{"contracts/smartContract.sol":{"VotingContract":{"abi":[{"inputs":[{"internalType":"address[]","name":"initialAdmins","type":"address[]"},{"internalType":"address","name":"_tokenAddress","type":"address"}],"stateMutability":"nonpayable","type":"constructor"},{"anonymous":false,"inputs":[{"indexed":false,"internalType":"uint256","name":"proposalId","type":"uint256"},{"indexed":false,"internalType":"string","name":"description","type":"string"},{"indexed":false,"internalType":"uint256","name":"votingEndTime","type":"uint256"}],"name":"ProposalCreated","type":"event"},{"anonymous":false,"inputs":[{"indexed":false,"internalType":"address","name":"voter","type":"address"},{"indexed":false,"internalType":"uint256","name":"rewardAmount","type":"uint256"}],"name":"RewardIssued","type":"event"},{"anonymous":false,"inputs":[{"indexed":false,"internalType":"address","name":"voter","type":"address"},{"indexed":false,"internalType":"uint256","name":"newShares","type":"uint256"}],"name":"SharesUpdated","type":"event"},{"anonymous":false,"inputs":[{"indexed":false,"internalType":"uint256","name":"proposalId","type":"uint256"},{"indexed":false,"internalType":"address","name":"voter","type":"address"},{"indexed":false,"internalType":"uint256","name":"weight","type":"uint256"},{"indexed":false,"internalType":"bool","name":"voteFor","type":"bool"}],"name":"VoteCast","type":"event"},{"inputs":[{"internalType":"address","name":"newAdmin","type":"address"}],"name":"addAdmin","outputs":[],"stateMutability":"nonpayable","type":"function"},{"inputs":[{"internalType":"address","name":"","type":"address"}],"name":"admins","outputs":[{"internalType":"bool","name":"","type":"bool"}],"stateMutability":"view","type":"function"},{"inputs":[{"internalType":"string","name":"title","type":"string"},{"internalType":"string","name":"description","type":"string"},{"internalType":"uint256","name":"durationInMinutes","type":"uint256"},{"internalType":"enum VotingContract.QuorumType","name":"quorumType","type":"uint8"}],"name":"createProposal","outputs":[],"stateMutability":"payable","type":"function"},{"inputs":[{"internalType":"uint256","name":"proposalId","type":"uint256"}],"name":"endVoting","outputs":[],"stateMutability":"nonpayable","type":"function"},{"inputs":[{"internalType":"uint256","name":"proposalId","type":"uint256"}],"name":"getProposalOutcome","outputs":[{"components":[{"internalType":"bool","name":"passed","type":"bool"},{"internalType":"uint256","name":"votesFor","type":"uint256"},{"internalType":"uint256","name":"votesAgainst","type":"uint256"}],"internalType":"struct VotingContract.ProposalOutcome","name":"","type":"tuple"}],"stateMutability":"view","type":"function"},{"inputs":[{"internalType":"uint256","name":"proposalId","type":"uint256"}],"name":"getProposals","outputs":[{"internalType":"string","name":"","type":"string"},{"internalType":"string","name":"","type":"string"},{"internalType":"uint256","name":"","type":"uint256"},{"internalType":"uint256","name":"","type":"uint256"},{"internalType":"bool","name":"","type":"bool"},{"internalType":"uint256","name":"","type":"uint256"},{"internalType":"uint256","name":"","type":"uint256"}],"stateMutability":"view","type":"function"},{"inputs":[],"name":"getProposalsCount","outputs":[{"internalType":"uint256","name":"","type":"uint256"}],"stateMutability":"view","type":"function"},{"inputs":[{"internalType":"address","name":"voter","type":"address"}],"name":"getShares","outputs":[{"internalType":"uint256","name":"","type":"uint256"}],"stateMutability":"view","type":"function"},{"inputs":[{"internalType":"uint256","name":"proposalId","type":"uint256"}],"name":"getTotalSharesVoted","outputs":[{"internalType":"uint256","name":"","type":"uint256"}],"stateMutability":"view","type":"function"},{"inputs":[{"internalType":"address","name":"voter","type":"address"}],"name":"getUserProfile","outputs":[{"internalType":"uint256","name":"","type":"uint256"},{"components":[{"internalType":"uint256","name":"proposalId","type":"uint256"},{"internalType":"bool","name":"votedFor","type":"bool"},{"internalType":"uint256","name":"voteWeight","type":"uint256"}],"internalType":"struct VotingContract.VotingRecord[]","name":"","type":"tuple[]"}],"stateMutability":"view","type":"function"},{"inputs":[{"internalType":"uint256","name":"proposalId","type":"uint256"}],"name":"getVotingProgress","outputs":[{"internalType":"uint256","name":"progress","type":"uint256"},{"internalType":"uint256","name":"requiredQuorum","type":"uint256"}],"stateMutability":"view","type":"function"},{"inputs":[],"name":"governanceToken","outputs":[{"internalType":"contract GovernanceToken","name":"","type":"address"}],"stateMutability":"view","type":"function"},{"inputs":[{"internalType":"uint256","name":"proposalId","type":"uint256"}],"name":"hasMetQuorum","outputs":[{"internalType":"bool","name":"","type":"bool"}],"stateMutability":"view","type":"function"},{"inputs":[{"internalType":"address","name":"user","type":"address"}],"name":"isAdmin","outputs":[{"internalType":"bool","name":"","type":"bool"}],"stateMutability":"view","type":"function"},{"inputs":[],"name":"isVotingPeriodActive","outputs":[{"internalType":"bool","name":"","type":"bool"}],"stateMutability":"view","type":"function"},{"inputs":[],"name":"proposalCount","outputs":[{"internalType":"uint256","name":"","type":"uint256"}],"stateMutability":"view","type":"function"},{"inputs":[{"internalType":"uint256","name":"","type":"uint256"}],"name":"proposalOutcomes","outputs":[{"internalType":"bool","name":"passed","type":"bool"},{"internalType":"uint256","name":"votesFor","type":"uint256"},{"internalType":"uint256","name":"votesAgainst","type":"uint256"}],"stateMutability":"view","type":"function"},{"inputs":[{"internalType":"uint256","name":"","type":"uint256"}],"name":"proposals","outputs":[{"internalType":"string","name":"title","type":"string"},{"internalType":"string","name":"description","type":"string"},{"internalType":"uint256","name":"votesFor","type":"uint256"},{"internalType":"uint256","name":"votesAgainst","type":"uint256"},{"internalType":"bool","name":"active","type":"bool"},{"internalType":"uint256","name":"votingEndTime","type":"uint256"},{"internalType":"uint256","name":"totalVotesCast","type":"uint256"},{"internalType":"enum VotingContract.QuorumType","name":"quorumType","type":"uint8"}],"stateMutability":"view","type":"function"},{"inputs":[{"internalType":"address","name":"voter","type":"address"},{"internalType":"uint256","name":"shareCount","type":"uint256"}],"name":"registerShareholder","outputs":[],"stateMutability":"nonpayable","type":"function"},{"inputs":[{"internalType":"address","name":"admin","type":"address"}],"name":"removeAdmin","outputs":[],"stateMutability":"nonpayable","type":"function"},{"inputs":[{"internalType":"address","name":"","type":"address"}],"name":"shares","outputs":[{"internalType":"uint256","name":"","type":"uint256"}],"stateMutability":"view","type":"function"},{"inputs":[],"name":"totalShares","outputs":[{"internalType":"uint256","name":"","type":"uint256"}],"stateMutability":"view","type":"function"},{"inputs":[{"internalType":"address","name":"voter","type":"address"},{"internalType":"uint256","name":"newShares","type":"uint256"}],"name":"updateShares","outputs":[],"stateMutability":"nonpayable","type":"function"},{"inputs":[{"internalType":"uint256","name":"proposalId","type":"uint256"},{"internalType":"bool","name":"voteFor","type":"bool"}],"name":"vote","outputs":[],"stateMutability":"nonpayable","type":"function"},{"inputs":[],"name":"votingEndTime","outputs":[{"internalType":"uint256","name":"","type":"uint256"}],"stateMutability":"view","type":"function"},{"inputs":[{"internalType":"address","name":"","type":"address"},{"internalType":"uint256","name":"","type":"uint256"}],"name":"votingHistory","outputs":[{"internalType":"uint256","name":"proposalId","type":"uint256"},{"internalType":"bool","name":"votedFor","type":"bool"},{"internalType":"uint256","name":"voteWeight","type":"uint256"}],"stateMutability":"view","type":"function"}],"evm":{"bytecode":{"linkReferences":{},"object":"608060405234801561001057600080fd5b5060405161315d38038061315d833981810160405281019061003291906102d1565b80600960006101000a81548173ffffffffffffffffffffffffffffffffffffffff021916908373ffffffffffffffffffffffffffffffffffffffff16021790555060005b82518110156100fe576001600360008584815181106100985761009761032d565b5b602002602001015173ffffffffffffffffffffffffffffffffffffffff1673ffffffffffffffffffffffffffffffffffffffff16815260200190815260200160002060006101000a81548160ff0219169083151502179055508080600101915050610076565b50505061035c565b6000604051905090565b600080fd5b600080fd5b600080fd5b6000601f19601f8301169050919050565b7f4e487b7100000000000000000000000000000000000000000000000000000000600052604160045260246000fd5b6101688261011f565b810181811067ffffffffffffffff8211171561018757610186610130565b5b80604052505050565b600061019a610106565b90506101a6828261015f565b919050565b600067ffffffffffffffff8211156101c6576101c5610130565b5b602082029050602081019050919050565b600080fd5b600073ffffffffffffffffffffffffffffffffffffffff82169050919050565b6000610207826101dc565b9050919050565b610217816101fc565b811461022257600080fd5b50565b6000815190506102348161020e565b92915050565b600061024d610248846101ab565b610190565b905080838252602082019050602084028301858111156102705761026f6101d7565b5b835b8181101561029957806102858882610225565b845260208401935050602081019050610272565b5050509392505050565b600082601f8301126102b8576102b761011a565b5b81516102c884826020860161023a565b91505092915050565b600080604083850312156102e8576102e7610110565b5b600083015167ffffffffffffffff81111561030657610305610115565b5b610312858286016102a3565b925050602061032385828601610225565b9150509250929050565b7f4e487b7100000000000000000000000000000000000000000000000000000000600052603260045260246000fd5b612df28061036b6000396000f3fe6080604052600436106101815760003560e01c806398e527d3116100d1578063ce7c2ac21161008a578063e5d0821f11610064578063e5d0821f146105f8578063f04da65b14610621578063f96dae0a1461065e578063fcf0c6ca1461068957610181565b8063ce7c2ac214610551578063d09c34f21461058e578063da35c664146105cd57610181565b806398e527d31461042c5780639baf1c97146104575780639fcc5ce414610495578063a9c0310d146104c0578063afafa0cf146104ff578063c9d27afe1461052857610181565b8063429b62e51161013e5780637048027511610118578063704802751461036c57806370f6e05d146103955780637a7c153b146103b1578063987ee156146103ee57610181565b8063429b62e5146102c9578063649f89a5146103065780636fdb6f7c1461032f57610181565b8063013cf08b146101865780631785f53c146101ca5780631ea736e0146101f357806324d7806c1461021e5780632c72fdfc1461025b5780633a98ef391461029e575b600080fd5b34801561019257600080fd5b506101ad60048036038101906101a89190611e81565b6106c6565b6040516101c1989796959493929190611fdf565b60405180910390f35b3480156101d657600080fd5b506101f160048036038101906101ec91906120c9565b610848565b005b3480156101ff57600080fd5b5061020861092f565b60405161021591906120f6565b60405180910390f35b34801561022a57600080fd5b50610245600480360381019061024091906120c9565b610935565b6040516102529190612111565b60405180910390f35b34801561026757600080fd5b50610282600480360381019061027d9190611e81565b61098b565b604051610295979695949392919061212c565b60405180910390f35b3480156102aa57600080fd5b506102b3610bdc565b6040516102c091906120f6565b60405180910390f35b3480156102d557600080fd5b506102f060048036038101906102eb91906120c9565b610be2565b6040516102fd9190612111565b60405180910390f35b34801561031257600080fd5b5061032d60048036038101906103289190611e81565b610c02565b005b34801561033b57600080fd5b5061035660048036038101906103519190611e81565b610eee565b6040516103639190612209565b60405180910390f35b34801561037857600080fd5b50610393600480360381019061038e91906120c9565b610f4a565b005b6103af60048036038101906103aa919061237e565b611031565b005b3480156103bd57600080fd5b506103d860048036038101906103d39190611e81565b6112ca565b6040516103e59190612111565b60405180910390f35b3480156103fa57600080fd5b50610415600480360381019061041091906120c9565b611459565b60405161042392919061250e565b60405180910390f35b34801561043857600080fd5b5061044161156c565b60405161044e91906120f6565b60405180910390f35b34801561046357600080fd5b5061047e60048036038101906104799190611e81565b611576565b60405161048c92919061253e565b60405180910390f35b3480156104a157600080fd5b506104aa6118a1565b6040516104b79190612111565b60405180910390f35b3480156104cc57600080fd5b506104e760048036038101906104e29190611e81565b6118b4565b6040516104f693929190612567565b60405180910390f35b34801561050b57600080fd5b506105266004803603810190610521919061259e565b6118eb565b005b34801561053457600080fd5b5061054f600480360381019061054a919061260a565b61199b565b005b34801561055d57600080fd5b50610578600480360381019061057391906120c9565b611c6a565b60405161058591906120f6565b60405180910390f35b34801561059a57600080fd5b506105b560048036038101906105b0919061259e565b611c82565b6040516105c49392919061264a565b60405180910390f35b3480156105d957600080fd5b506105e2611cd6565b6040516105ef91906120f6565b60405180910390f35b34801561060457600080fd5b5061061f600480360381019061061a919061259e565b611cdc565b005b34801561062d57600080fd5b50610648600480360381019061064391906120c9565b611d5c565b60405161065591906120f6565b60405180910390f35b34801561066a57600080fd5b50610673611da4565b60405161068091906126e0565b60405180910390f35b34801561069557600080fd5b506106b060048036038101906106ab9190611e81565b611dca565b6040516106bd91906120f6565b60405180910390f35b600681815481106106d657600080fd5b90600052602060002090600802016000915090508060000180546106f99061272a565b80601f01602080910402602001604051908101604052809291908181526020018280546107259061272a565b80156107725780601f1061074757610100808354040283529160200191610772565b820191906000526020600020905b81548152906001019060200180831161075557829003601f168201915b5050505050908060010180546107879061272a565b80601f01602080910402602001604051908101604052809291908181526020018280546107b39061272a565b80156108005780601f106107d557610100808354040283529160200191610800565b820191906000526020600020905b8154815290600101906020018083116107e357829003601f168201915b5050505050908060020154908060030154908060040160009054906101000a900460ff16908060050154908060060154908060070160009054906101000a900460ff16905088565b600360003373ffffffffffffffffffffffffffffffffffffffff1673ffffffffffffffffffffffffffffffffffffffff16815260200190815260200160002060009054906101000a900460ff166108d4576040517f08c379a00000000000000000000000000000000000000000000000000000000081526004016108cb906127cd565b60405180910390fd5b6000600360008373ffffffffffffffffffffffffffffffffffffffff1673ffffffffffffffffffffffffffffffffffffffff16815260200190815260200160002060006101000a81548160ff02191690831515021790555050565b60085481565b6000600360008373ffffffffffffffffffffffffffffffffffffffff1673ffffffffffffffffffffffffffffffffffffffff16815260200190815260200160002060009054906101000a900460ff169050919050565b6060806000806000806000600688815481106109aa576109a96127ed565b5b9060005260206000209060080201600001600689815481106109cf576109ce6127ed565b5b906000526020600020906008020160010160068a815481106109f4576109f36127ed565b5b90600052602060002090600802016002015460068b81548110610a1a57610a196127ed565b5b90600052602060002090600802016003015460068c81548110610a4057610a3f6127ed565b5b906000526020600020906008020160040160009054906101000a900460ff1660068d81548110610a7357610a726127ed565b5b90600052602060002090600802016005015460068e81548110610a9957610a986127ed565b5b906000526020600020906008020160060154868054610ab79061272a565b80601f0160208091040260200160405190810160405280929190818152602001828054610ae39061272a565b8015610b305780601f10610b0557610100808354040283529160200191610b30565b820191906000526020600020905b815481529060010190602001808311610b1357829003601f168201915b50505050509650858054610b439061272a565b80601f0160208091040260200160405190810160405280929190818152602001828054610b6f9061272a565b8015610bbc5780601f10610b9157610100808354040283529160200191610bbc565b820191906000526020600020905b815481529060010190602001808311610b9f57829003601f168201915b505050505095509650965096509650965096509650919395979092949650565b60055481565b60036020528060005260406000206000915054906101000a900460ff1681565b600060068281548110610c1857610c176127ed565b5b906000526020600020906008020160040160006101000a81548160ff0219169083151502179055506000805b600454811015610c9c5760068181548110610c6257610c616127ed565b5b906000526020600020906008020160040160009054906101000a900460ff1615610c8f5760019150610c9c565b8080600101915050610c44565b50600060068381548110610cb357610cb26127ed565b5b90600052602060002090600802016003015460068481548110610cd957610cd86127ed565b5b9060005260206000209060080201600201541190506040518060600160405280821515815260200160068581548110610d1557610d146127ed565b5b906000526020600020906008020160020154815260200160068581548110610d4057610d3f6127ed565b5b9060005260206000209060080201600301548152506002600085815260200190815260200160002060008201518160000160006101000a81548160ff021916908315150217905550602082015181600101556040820151816002015590505060068381548110610db357610db26127ed565b5b90600052602060002090600802016005015442118015610dd95750610dd7836112ca565b155b15610ecf57600060068481548110610df457610df36127ed565b5b906000526020600020906008020160040160006101000a81548160ff021916908315150217905550604051806060016040528060001515815260200160068581548110610e4457610e436127ed565b5b906000526020600020906008020160020154815260200160068581548110610e6f57610e6e6127ed565b5b9060005260206000209060080201600301548152506002600085815260200190815260200160002060008201518160000160006101000a81548160ff02191690831515021790555060208201518160010155604082015181600201559050505b81600760006101000a81548160ff021916908315150217905550505050565b610ef6611e14565b600260008381526020019081526020016000206040518060600160405290816000820160009054906101000a900460ff16151515158152602001600182015481526020016002820154815250509050919050565b600360003373ffffffffffffffffffffffffffffffffffffffff1673ffffffffffffffffffffffffffffffffffffffff16815260200190815260200160002060009054906101000a900460ff16610fd6576040517f08c379a0000000000000000000000000000000000000000000000000000000008152600401610fcd906127cd565b60405180910390fd5b6001600360008373ffffffffffffffffffffffffffffffffffffffff1673ffffffffffffffffffffffffffffffffffffffff16815260200190815260200160002060006101000a81548160ff02191690831515021790555050565b600360003373ffffffffffffffffffffffffffffffffffffffff1673ffffffffffffffffffffffffffffffffffffffff16815260200190815260200160002060009054906101000a900460ff166110bd576040517f08c379a00000000000000000000000000000000000000000000000000000000081526004016110b4906127cd565b60405180910390fd5b60003411611100576040517f08c379a00000000000000000000000000000000000000000000000000000000081526004016110f79061288e565b60405180910390fd5b6040518061010001604052808581526020018481526020016000815260200160008152602001600115158152602001603c8461113c91906128dd565b42611147919061291f565b81526020016000815260200182600381111561116657611165611f68565b5b81525060066004548154811061117f5761117e6127ed565b5b906000526020600020906008020160008201518160000190816111a29190612af5565b5060208201518160010190816111b89190612af5565b50604082015181600201556060820151816003015560808201518160040160006101000a81548160ff02191690831515021790555060a0820151816005015560c0820151816006015560e08201518160070160006101000a81548160ff0219169083600381111561122c5761122b611f68565b5b02179055509050506001600760006101000a81548160ff021916908315150217905550603c8261125c91906128dd565b42611267919061291f565b6008819055507ff5dc0da9afa6d080780a49fd8c680f03d2ddf3c067cd6d0c85360c096644d2d3600454846008546040516112a493929190612bc7565b60405180910390a1600460008154809291906112bf90612c05565b919050555050505050565b600080600683815481106112e1576112e06127ed565b5b90600052602060002090600802019050600080600381111561130657611305611f68565b5b8260070160009054906101000a900460ff16600381111561132a57611329611f68565b5b0361134557600260055461133e9190612c7c565b9050611448565b6001600381111561135957611358611f68565b5b8260070160009054906101000a900460ff16600381111561137d5761137c611f68565b5b036113a4576003600260055461139391906128dd565b61139d9190612c7c565b9050611447565b600260038111156113b8576113b7611f68565b5b8260070160009054906101000a900460ff1660038111156113dc576113db611f68565b5b0361140357600460036005546113f291906128dd565b6113fc9190612c7c565b9050611446565b60038081111561141657611415611f68565b5b8260070160009054906101000a900460ff16600381111561143a57611439611f68565b5b036114455760055490505b5b5b5b808260020154101592505050919050565b600060606000808473ffffffffffffffffffffffffffffffffffffffff1673ffffffffffffffffffffffffffffffffffffffff16815260200190815260200160002054600160008573ffffffffffffffffffffffffffffffffffffffff1673ffffffffffffffffffffffffffffffffffffffff16815260200190815260200160002080805480602002602001604051908101604052809291908181526020016000905b8282101561155d5783829060005260206000209060030201604051806060016040529081600082015481526020016001820160009054906101000a900460ff16151515158152602001600282015481525050815260200190600101906114fc565b50505050905091509150915091565b6000600454905090565b60008060006006848154811061158f5761158e6127ed565b5b9060005260206000209060080201604051806101000160405290816000820180546115b99061272a565b80601f01602080910402602001604051908101604052809291908181526020018280546115e59061272a565b80156116325780601f1061160757610100808354040283529160200191611632565b820191906000526020600020905b81548152906001019060200180831161161557829003601f168201915b5050505050815260200160018201805461164b9061272a565b80601f01602080910402602001604051908101604052809291908181526020018280546116779061272a565b80156116c45780601f10611699576101008083540402835291602001916116c4565b820191906000526020600020905b8154815290600101906020018083116116a757829003601f168201915b5050505050815260200160028201548152602001600382015481526020016004820160009054906101000a900460ff1615151515815260200160058201548152602001600682015481526020016007820160009054906101000a900460ff16600381111561173557611734611f68565b5b600381111561174757611746611f68565b5b81525050905060008160c001519050600060055460648361176891906128dd565b6117729190612c7c565b90506000600381111561178857611787611f68565b5b8360e00151600381111561179f5761179e611f68565b5b036117ba5760026005546117b39190612c7c565b9350611896565b600160038111156117ce576117cd611f68565b5b8360e0015160038111156117e5576117e4611f68565b5b0361180c57600360026005546117fb91906128dd565b6118059190612c7c565b9350611895565b600260038111156118205761181f611f68565b5b8360e00151600381111561183757611836611f68565b5b0361185e576004600360055461184d91906128dd565b6118579190612c7c565b9350611894565b60038081111561187157611870611f68565b5b8360e00151600381111561188857611887611f68565b5b036118935760055493505b5b5b5b809450505050915091565b600760009054906101000a900460ff1681565b60026020528060005260406000206000915090508060000160009054906101000a900460ff16908060010154908060020154905083565b600760009054906101000a900460ff161561193b576040517f08c379a000000000000000000000000000000000000000000000000000000000815260040161193290612d1f565b60405180910390fd5b806000808473ffffffffffffffffffffffffffffffffffffffff1673ffffffffffffffffffffffffffffffffffffffff168152602001908152602001600020819055508060056000828254611990919061291f565b925050819055505050565b60006005546127106000803373ffffffffffffffffffffffffffffffffffffffff1673ffffffffffffffffffffffffffffffffffffffff168152602001908152602001600020546119ec91906128dd565b6119f69190612c7c565b90508115611a3f578060068481548110611a1357611a126127ed565b5b90600052602060002090600802016002016000828254611a33919061291f565b92505081905550611a7c565b8060068481548110611a5457611a536127ed565b5b90600052602060002090600802016003016000828254611a74919061291f565b925050819055505b8060068481548110611a9157611a906127ed565b5b90600052602060002090600802016006016000828254611ab1919061291f565b92505081905550600160003373ffffffffffffffffffffffffffffffffffffffff1673ffffffffffffffffffffffffffffffffffffffff168152602001908152602001600020604051806060016040528085815260200184151581526020018381525090806001815401808255809150506001900390600052602060002090600302016000909190919091506000820151816000015560208201518160010160006101000a81548160ff0219169083151502179055506040820151816002015550506000611b7e82611dfe565b9050600960009054906101000a900473ffffffffffffffffffffffffffffffffffffffff1673ffffffffffffffffffffffffffffffffffffffff166340c10f1933836040518363ffffffff1660e01b8152600401611bdd929190612d4e565b600060405180830381600087803b158015611bf757600080fd5b505af1158015611c0b573d6000803e3d6000fd5b505050507fb898e75d5aac8de2f407e4a683c8d909e832d1e371e3bff0fa3ed934e88d956284338486604051611c449493929190612d77565b60405180910390a1611c55846112ca565b15611c6457611c6384610c02565b5b50505050565b60006020528060005260406000206000915090505481565b60016020528160005260406000208181548110611c9e57600080fd5b9060005260206000209060030201600091509150508060000154908060010160009054906101000a900460ff16908060020154905083565b60045481565b806000808473ffffffffffffffffffffffffffffffffffffffff1673ffffffffffffffffffffffffffffffffffffffff168152602001908152602001600020819055507fe6382c9ed5c0c33bb05042f73cf6cbe9cb25639f9a711e094ee563bc9cb80e2c8282604051611d50929190612d4e565b60405180910390a15050565b60008060008373ffffffffffffffffffffffffffffffffffffffff1673ffffffffffffffffffffffffffffffffffffffff168152602001908152602001600020549050919050565b600960009054906101000a900473ffffffffffffffffffffffffffffffffffffffff1681565b60008060068381548110611de157611de06127ed565b5b906000526020600020906008020160060154905080915050919050565b6000606482611e0d9190612c7c565b9050919050565b604051806060016040528060001515815260200160008152602001600081525090565b6000604051905090565b600080fd5b600080fd5b6000819050919050565b611e5e81611e4b565b8114611e6957600080fd5b50565b600081359050611e7b81611e55565b92915050565b600060208284031215611e9757611e96611e41565b5b6000611ea584828501611e6c565b91505092915050565b600081519050919050565b600082825260208201905092915050565b60005b83811015611ee8578082015181840152602081019050611ecd565b60008484015250505050565b6000601f19601f8301169050919050565b6000611f1082611eae565b611f1a8185611eb9565b9350611f2a818560208601611eca565b611f3381611ef4565b840191505092915050565b611f4781611e4b565b82525050565b60008115159050919050565b611f6281611f4d565b82525050565b7f4e487b7100000000000000000000000000000000000000000000000000000000600052602160045260246000fd5b60048110611fa857611fa7611f68565b5b50565b6000819050611fb982611f97565b919050565b6000611fc982611fab565b9050919050565b611fd981611fbe565b82525050565b6000610100820190508181036000830152611ffa818b611f05565b9050818103602083015261200e818a611f05565b905061201d6040830189611f3e565b61202a6060830188611f3e565b6120376080830187611f59565b61204460a0830186611f3e565b61205160c0830185611f3e565b61205e60e0830184611fd0565b9998505050505050505050565b600073ffffffffffffffffffffffffffffffffffffffff82169050919050565b60006120968261206b565b9050919050565b6120a68161208b565b81146120b157600080fd5b50565b6000813590506120c38161209d565b92915050565b6000602082840312156120df576120de611e41565b5b60006120ed848285016120b4565b91505092915050565b600060208201905061210b6000830184611f3e565b92915050565b60006020820190506121266000830184611f59565b92915050565b600060e0820190508181036000830152612146818a611f05565b9050818103602083015261215a8189611f05565b90506121696040830188611f3e565b6121766060830187611f3e565b6121836080830186611f59565b61219060a0830185611f3e565b61219d60c0830184611f3e565b98975050505050505050565b6121b281611f4d565b82525050565b6121c181611e4b565b82525050565b6060820160008201516121dd60008501826121a9565b5060208201516121f060208501826121b8565b50604082015161220360408501826121b8565b50505050565b600060608201905061221e60008301846121c7565b92915050565b600080fd5b600080fd5b7f4e487b7100000000000000000000000000000000000000000000000000000000600052604160045260246000fd5b61226682611ef4565b810181811067ffffffffffffffff821117156122855761228461222e565b5b80604052505050565b6000612298611e37565b90506122a4828261225d565b919050565b600067ffffffffffffffff8211156122c4576122c361222e565b5b6122cd82611ef4565b9050602081019050919050565b82818337600083830152505050565b60006122fc6122f7846122a9565b61228e565b90508281526020810184848401111561231857612317612229565b5b6123238482856122da565b509392505050565b600082601f8301126123405761233f612224565b5b81356123508482602086016122e9565b91505092915050565b6004811061236657600080fd5b50565b60008135905061237881612359565b92915050565b6000806000806080858703121561239857612397611e41565b5b600085013567ffffffffffffffff8111156123b6576123b5611e46565b5b6123c28782880161232b565b945050602085013567ffffffffffffffff8111156123e3576123e2611e46565b5b6123ef8782880161232b565b935050604061240087828801611e6c565b925050606061241187828801612369565b91505092959194509250565b600081519050919050565b600082825260208201905092915050565b6000819050602082019050919050565b60608201600082015161245f60008501826121b8565b50602082015161247260208501826121a9565b50604082015161248560408501826121b8565b50505050565b60006124978383612449565b60608301905092915050565b6000602082019050919050565b60006124bb8261241d565b6124c58185612428565b93506124d083612439565b8060005b838110156125015781516124e8888261248b565b97506124f3836124a3565b9250506001810190506124d4565b5085935050505092915050565b60006040820190506125236000830185611f3e565b818103602083015261253581846124b0565b90509392505050565b60006040820190506125536000830185611f3e565b6125606020830184611f3e565b9392505050565b600060608201905061257c6000830186611f59565b6125896020830185611f3e565b6125966040830184611f3e565b949350505050565b600080604083850312156125b5576125b4611e41565b5b60006125c3858286016120b4565b92505060206125d485828601611e6c565b9150509250929050565b6125e781611f4d565b81146125f257600080fd5b50565b600081359050612604816125de565b92915050565b6000806040838503121561262157612620611e41565b5b600061262f85828601611e6c565b9250506020612640858286016125f5565b9150509250929050565b600060608201905061265f6000830186611f3e565b61266c6020830185611f59565b6126796040830184611f3e565b949350505050565b6000819050919050565b60006126a66126a161269c8461206b565b612681565b61206b565b9050919050565b60006126b88261268b565b9050919050565b60006126ca826126ad565b9050919050565b6126da816126bf565b82525050565b60006020820190506126f560008301846126d1565b92915050565b7f4e487b7100000000000000000000000000000000000000000000000000000000600052602260045260246000fd5b6000600282049050600182168061274257607f821691505b602082108103612755576127546126fb565b5b50919050565b7f4f6e6c792061646d696e732063616e20706572666f726d20746869732061637460008201527f696f6e0000000000000000000000000000000000000000000000000000000000602082015250565b60006127b7602383611eb9565b91506127c28261275b565b604082019050919050565b600060208201905081810360008301526127e6816127aa565b9050919050565b7f4e487b7100000000000000000000000000000000000000000000000000000000600052603260045260246000fd5b7f45544820726571756972656420666f72206372656174696e672070726f706f7360008201527f616c000000000000000000000000000000000000000000000000000000000000602082015250565b6000612878602283611eb9565b91506128838261281c565b604082019050919050565b600060208201905081810360008301526128a78161286b565b9050919050565b7f4e487b7100000000000000000000000000000000000000000000000000000000600052601160045260246000fd5b60006128e882611e4b565b91506128f383611e4b565b925082820261290181611e4b565b91508282048414831517612918576129176128ae565b5b5092915050565b600061292a82611e4b565b915061293583611e4b565b925082820190508082111561294d5761294c6128ae565b5b92915050565b60008190508160005260206000209050919050565b60006020601f8301049050919050565b600082821b905092915050565b6000600883026129b57fffffffffffffffffffffffffffffffffffffffffffffffffffffffffffffffff82612978565b6129bf8683612978565b95508019841693508086168417925050509392505050565b60006129f26129ed6129e884611e4b565b612681565b611e4b565b9050919050565b6000819050919050565b612a0c836129d7565b612a20612a18826129f9565b848454612985565b825550505050565b600090565b612a35612a28565b612a40818484612a03565b505050565b5b81811015612a6457612a59600082612a2d565b600181019050612a46565b5050565b601f821115612aa957612a7a81612953565b612a8384612968565b81016020851015612a92578190505b612aa6612a9e85612968565b830182612a45565b50505b505050565b600082821c905092915050565b6000612acc60001984600802612aae565b1980831691505092915050565b6000612ae58383612abb565b9150826002028217905092915050565b612afe82611eae565b67ffffffffffffffff811115612b1757612b1661222e565b5b612b21825461272a565b612b2c828285612a68565b600060209050601f831160018114612b5f5760008415612b4d578287015190505b612b578582612ad9565b865550612bbf565b601f198416612b6d86612953565b60005b82811015612b9557848901518255600182019150602085019450602081019050612b70565b86831015612bb25784890151612bae601f891682612abb565b8355505b6001600288020188555050505b505050505050565b6000606082019050612bdc6000830186611f3e565b8181036020830152612bee8185611f05565b9050612bfd6040830184611f3e565b949350505050565b6000612c1082611e4b565b91507fffffffffffffffffffffffffffffffffffffffffffffffffffffffffffffffff8203612c4257612c416128ae565b5b600182019050919050565b7f4e487b7100000000000000000000000000000000000000000000000000000000600052601260045260246000fd5b6000612c8782611e4b565b9150612c9283611e4b565b925082612ca257612ca1612c4d565b5b828204905092915050565b7f4865792069747320616e2061637469766520766f74696e6720706572696f642c60008201527f20796f752063616e6e6f7420766f7465206e6f772e0000000000000000000000602082015250565b6000612d09603583611eb9565b9150612d1482612cad565b604082019050919050565b60006020820190508181036000830152612d3881612cfc565b9050919050565b612d488161208b565b82525050565b6000604082019050612d636000830185612d3f565b612d706020830184611f3e565b9392505050565b6000608082019050612d8c6000830187611f3e565b612d996020830186612d3f565b612da66040830185611f3e565b612db36060830184611f59565b9594505050505056fea26469706673582212208d8191f5447e6bc2b033f09ab848b9c2427a1ab78a4be2158fcf29a6639c22ec64736f6c634300081a0033","opcodes":"PUSH1 0x80 PUSH1 0x40 MSTORE CALLVALUE DUP1 ISZERO PUSH2 0x10 JUMPI PUSH1 0x0 DUP1 REVERT JUMPDEST POP PUSH1 0x40 MLOAD PUSH2 0x315D CODESIZE SUB DUP1 PUSH2 0x315D DUP4 CODECOPY DUP2 DUP2 ADD PUSH1 0x40 MSTORE DUP2 ADD SWAP1 PUSH2 0x32 SWAP2 SWAP1 PUSH2 0x2D1 JUMP JUMPDEST DUP1 PUSH1 0x9 PUSH1 0x0 PUSH2 0x100 EXP DUP2 SLOAD DUP2 PUSH20 0xFFFFFFFFFFFFFFFFFFFFFFFFFFFFFFFFFFFFFFFF MUL NOT AND SWAP1 DUP4 PUSH20 0xFFFFFFFFFFFFFFFFFFFFFFFFFFFFFFFFFFFFFFFF AND MUL OR SWAP1 SSTORE POP PUSH1 0x0 JUMPDEST DUP3 MLOAD DUP2 LT ISZERO PUSH2 0xFE JUMPI PUSH1 0x1 PUSH1 0x3 PUSH1 0x0 DUP6 DUP5 DUP2 MLOAD DUP2 LT PUSH2 0x98 JUMPI PUSH2 0x97 PUSH2 0x32D JUMP JUMPDEST JUMPDEST PUSH1 0x20 MUL PUSH1 0x20 ADD ADD MLOAD PUSH20 0xFFFFFFFFFFFFFFFFFFFFFFFFFFFFFFFFFFFFFFFF AND PUSH20 0xFFFFFFFFFFFFFFFFFFFFFFFFFFFFFFFFFFFFFFFF AND DUP2 MSTORE PUSH1 0x20 ADD SWAP1 DUP2 MSTORE PUSH1 0x20 ADD PUSH1 0x0 KECCAK256 PUSH1 0x0 PUSH2 0x100 EXP DUP2 SLOAD DUP2 PUSH1 0xFF MUL NOT AND SWAP1 DUP4 ISZERO ISZERO MUL OR SWAP1 SSTORE POP DUP1 DUP1 PUSH1 0x1 ADD SWAP2 POP POP PUSH2 0x76 JUMP JUMPDEST POP POP POP PUSH2 0x35C JUMP JUMPDEST PUSH1 0x0 PUSH1 0x40 MLOAD SWAP1 POP SWAP1 JUMP JUMPDEST PUSH1 0x0 DUP1 REVERT JUMPDEST PUSH1 0x0 DUP1 REVERT JUMPDEST PUSH1 0x0 DUP1 REVERT JUMPDEST PUSH1 0x0 PUSH1 0x1F NOT PUSH1 0x1F DUP4 ADD AND SWAP1 POP SWAP2 SWAP1 POP JUMP JUMPDEST PUSH32 0x4E487B7100000000000000000000000000000000000000000000000000000000 PUSH1 0x0 MSTORE PUSH1 0x41 PUSH1 0x4 MSTORE PUSH1 0x24 PUSH1 0x0 REVERT JUMPDEST PUSH2 0x168 DUP3 PUSH2 0x11F JUMP JUMPDEST DUP2 ADD DUP2 DUP2 LT PUSH8 0xFFFFFFFFFFFFFFFF DUP3 GT OR ISZERO PUSH2 0x187 JUMPI PUSH2 0x186 PUSH2 0x130 JUMP JUMPDEST JUMPDEST DUP1 PUSH1 0x40 MSTORE POP POP POP JUMP JUMPDEST PUSH1 0x0 PUSH2 0x19A PUSH2 0x106 JUMP JUMPDEST SWAP1 POP PUSH2 0x1A6 DUP3 DUP3 PUSH2 0x15F JUMP JUMPDEST SWAP2 SWAP1 POP JUMP JUMPDEST PUSH1 0x0 PUSH8 0xFFFFFFFFFFFFFFFF DUP3 GT ISZERO PUSH2 0x1C6 JUMPI PUSH2 0x1C5 PUSH2 0x130 JUMP JUMPDEST JUMPDEST PUSH1 0x20 DUP3 MUL SWAP1 POP PUSH1 0x20 DUP2 ADD SWAP1 POP SWAP2 SWAP1 POP JUMP JUMPDEST PUSH1 0x0 DUP1 REVERT JUMPDEST PUSH1 0x0 PUSH20 0xFFFFFFFFFFFFFFFFFFFFFFFFFFFFFFFFFFFFFFFF DUP3 AND SWAP1 POP SWAP2 SWAP1 POP JUMP JUMPDEST PUSH1 0x0 PUSH2 0x207 DUP3 PUSH2 0x1DC JUMP JUMPDEST SWAP1 POP SWAP2 SWAP1 POP JUMP JUMPDEST PUSH2 0x217 DUP2 PUSH2 0x1FC JUMP JUMPDEST DUP2 EQ PUSH2 0x222 JUMPI PUSH1 0x0 DUP1 REVERT JUMPDEST POP JUMP JUMPDEST PUSH1 0x0 DUP2 MLOAD SWAP1 POP PUSH2 0x234 DUP2 PUSH2 0x20E JUMP JUMPDEST SWAP3 SWAP2 POP POP JUMP JUMPDEST PUSH1 0x0 PUSH2 0x24D PUSH2 0x248 DUP5 PUSH2 0x1AB JUMP JUMPDEST PUSH2 0x190 JUMP JUMPDEST SWAP1 POP DUP1 DUP4 DUP3 MSTORE PUSH1 0x20 DUP3 ADD SWAP1 POP PUSH1 0x20 DUP5 MUL DUP4 ADD DUP6 DUP2 GT ISZERO PUSH2 0x270 JUMPI PUSH2 0x26F PUSH2 0x1D7 JUMP JUMPDEST JUMPDEST DUP4 JUMPDEST DUP2 DUP2 LT ISZERO PUSH2 0x299 JUMPI DUP1 PUSH2 0x285 DUP9 DUP3 PUSH2 0x225 JUMP JUMPDEST DUP5 MSTORE PUSH1 0x20 DUP5 ADD SWAP4 POP POP PUSH1 0x20 DUP2 ADD SWAP1 POP PUSH2 0x272 JUMP JUMPDEST POP POP POP SWAP4 SWAP3 POP POP POP JUMP JUMPDEST PUSH1 0x0 DUP3 PUSH1 0x1F DUP4 ADD SLT PUSH2 0x2B8 JUMPI PUSH2 0x2B7 PUSH2 0x11A JUMP JUMPDEST JUMPDEST DUP2 MLOAD PUSH2 0x2C8 DUP5 DUP3 PUSH1 0x20 DUP7 ADD PUSH2 0x23A JUMP JUMPDEST SWAP2 POP POP SWAP3 SWAP2 POP POP JUMP JUMPDEST PUSH1 0x0 DUP1 PUSH1 0x40 DUP4 DUP6 SUB SLT ISZERO PUSH2 0x2E8 JUMPI PUSH2 0x2E7 PUSH2 0x110 JUMP JUMPDEST JUMPDEST PUSH1 0x0 DUP4 ADD MLOAD PUSH8 0xFFFFFFFFFFFFFFFF DUP2 GT ISZERO PUSH2 0x306 JUMPI PUSH2 0x305 PUSH2 0x115 JUMP JUMPDEST JUMPDEST PUSH2 0x312 DUP6 DUP3 DUP7 ADD PUSH2 0x2A3 JUMP JUMPDEST SWAP3 POP POP PUSH1 0x20 PUSH2 0x323 DUP6 DUP3 DUP7 ADD PUSH2 0x225 JUMP JUMPDEST SWAP2 POP POP SWAP3 POP SWAP3 SWAP1 POP JUMP JUMPDEST PUSH32 0x4E487B7100000000000000000000000000000000000000000000000000000000 PUSH1 0x0 MSTORE PUSH1 0x32 PUSH1 0x4 MSTORE PUSH1 0x24 PUSH1 0x0 REVERT JUMPDEST PUSH2 0x2DF2 DUP1 PUSH2 0x36B PUSH1 0x0 CODECOPY PUSH1 0x0 RETURN INVALID PUSH1 0x80 PUSH1 0x40 MSTORE PUSH1 0x4 CALLDATASIZE LT PUSH2 0x181 JUMPI PUSH1 0x0 CALLDATALOAD PUSH1 0xE0 SHR DUP1 PUSH4 0x98E527D3 GT PUSH2 0xD1 JUMPI DUP1 PUSH4 0xCE7C2AC2 GT PUSH2 0x8A JUMPI DUP1 PUSH4 0xE5D0821F GT PUSH2 0x64 JUMPI DUP1 PUSH4 0xE5D0821F EQ PUSH2 0x5F8 JUMPI DUP1 PUSH4 0xF04DA65B EQ PUSH2 0x621 JUMPI DUP1 PUSH4 0xF96DAE0A EQ PUSH2 0x65E JUMPI DUP1 PUSH4 0xFCF0C6CA EQ PUSH2 0x689 JUMPI PUSH2 0x181 JUMP JUMPDEST DUP1 PUSH4 0xCE7C2AC2 EQ PUSH2 0x551 JUMPI DUP1 PUSH4 0xD09C34F2 EQ PUSH2 0x58E JUMPI DUP1 PUSH4 0xDA35C664 EQ PUSH2 0x5CD JUMPI PUSH2 0x181 JUMP JUMPDEST DUP1 PUSH4 0x98E527D3 EQ PUSH2 0x42C JUMPI DUP1 PUSH4 0x9BAF1C97 EQ PUSH2 0x457 JUMPI DUP1 PUSH4 0x9FCC5CE4 EQ PUSH2 0x495 JUMPI DUP1 PUSH4 0xA9C0310D EQ PUSH2 0x4C0 JUMPI DUP1 PUSH4 0xAFAFA0CF EQ PUSH2 0x4FF JUMPI DUP1 PUSH4 0xC9D27AFE EQ PUSH2 0x528 JUMPI PUSH2 0x181 JUMP JUMPDEST DUP1 PUSH4 0x429B62E5 GT PUSH2 0x13E JUMPI DUP1 PUSH4 0x70480275 GT PUSH2 0x118 JUMPI DUP1 PUSH4 0x70480275 EQ PUSH2 0x36C JUMPI DUP1 PUSH4 0x70F6E05D EQ PUSH2 0x395 JUMPI DUP1 PUSH4 0x7A7C153B EQ PUSH2 0x3B1 JUMPI DUP1 PUSH4 0x987EE156 EQ PUSH2 0x3EE JUMPI PUSH2 0x181 JUMP JUMPDEST DUP1 PUSH4 0x429B62E5 EQ PUSH2 0x2C9 JUMPI DUP1 PUSH4 0x649F89A5 EQ PUSH2 0x306 JUMPI DUP1 PUSH4 0x6FDB6F7C EQ PUSH2 0x32F JUMPI PUSH2 0x181 JUMP JUMPDEST DUP1 PUSH4 0x13CF08B EQ PUSH2 0x186 JUMPI DUP1 PUSH4 0x1785F53C EQ PUSH2 0x1CA JUMPI DUP1 PUSH4 0x1EA736E0 EQ PUSH2 0x1F3 JUMPI DUP1 PUSH4 0x24D7806C EQ PUSH2 0x21E JUMPI DUP1 PUSH4 0x2C72FDFC EQ PUSH2 0x25B JUMPI DUP1 PUSH4 0x3A98EF39 EQ PUSH2 0x29E JUMPI JUMPDEST PUSH1 0x0 DUP1 REVERT JUMPDEST CALLVALUE DUP1 ISZERO PUSH2 0x192 JUMPI PUSH1 0x0 DUP1 REVERT JUMPDEST POP PUSH2 0x1AD PUSH1 0x4 DUP1 CALLDATASIZE SUB DUP2 ADD SWAP1 PUSH2 0x1A8 SWAP2 SWAP1 PUSH2 0x1E81 JUMP JUMPDEST PUSH2 0x6C6 JUMP JUMPDEST PUSH1 0x40 MLOAD PUSH2 0x1C1 SWAP9 SWAP8 SWAP7 SWAP6 SWAP5 SWAP4 SWAP3 SWAP2 SWAP1 PUSH2 0x1FDF JUMP JUMPDEST PUSH1 0x40 MLOAD DUP1 SWAP2 SUB SWAP1 RETURN JUMPDEST CALLVALUE DUP1 ISZERO PUSH2 0x1D6 JUMPI PUSH1 0x0 DUP1 REVERT JUMPDEST POP PUSH2 0x1F1 PUSH1 0x4 DUP1 CALLDATASIZE SUB DUP2 ADD SWAP1 PUSH2 0x1EC SWAP2 SWAP1 PUSH2 0x20C9 JUMP JUMPDEST PUSH2 0x848 JUMP JUMPDEST STOP JUMPDEST CALLVALUE DUP1 ISZERO PUSH2 0x1FF JUMPI PUSH1 0x0 DUP1 REVERT JUMPDEST POP PUSH2 0x208 PUSH2 0x92F JUMP JUMPDEST PUSH1 0x40 MLOAD PUSH2 0x215 SWAP2 SWAP1 PUSH2 0x20F6 JUMP JUMPDEST PUSH1 0x40 MLOAD DUP1 SWAP2 SUB SWAP1 RETURN JUMPDEST CALLVALUE DUP1 ISZERO PUSH2 0x22A JUMPI PUSH1 0x0 DUP1 REVERT JUMPDEST POP PUSH2 0x245 PUSH1 0x4 DUP1 CALLDATASIZE SUB DUP2 ADD SWAP1 PUSH2 0x240 SWAP2 SWAP1 PUSH2 0x20C9 JUMP JUMPDEST PUSH2 0x935 JUMP JUMPDEST PUSH1 0x40 MLOAD PUSH2 0x252 SWAP2 SWAP1 PUSH2 0x2111 JUMP JUMPDEST PUSH1 0x40 MLOAD DUP1 SWAP2 SUB SWAP1 RETURN JUMPDEST CALLVALUE DUP1 ISZERO PUSH2 0x267 JUMPI PUSH1 0x0 DUP1 REVERT JUMPDEST POP PUSH2 0x282 PUSH1 0x4 DUP1 CALLDATASIZE SUB DUP2 ADD SWAP1 PUSH2 0x27D SWAP2 SWAP1 PUSH2 0x1E81 JUMP JUMPDEST PUSH2 0x98B JUMP JUMPDEST PUSH1 0x40 MLOAD PUSH2 0x295 SWAP8 SWAP7 SWAP6 SWAP5 SWAP4 SWAP3 SWAP2 SWAP1 PUSH2 0x212C JUMP JUMPDEST PUSH1 0x40 MLOAD DUP1 SWAP2 SUB SWAP1 RETURN JUMPDEST CALLVALUE DUP1 ISZERO PUSH2 0x2AA JUMPI PUSH1 0x0 DUP1 REVERT JUMPDEST POP PUSH2 0x2B3 PUSH2 0xBDC JUMP JUMPDEST PUSH1 0x40 MLOAD PUSH2 0x2C0 SWAP2 SWAP1 PUSH2 0x20F6 JUMP JUMPDEST PUSH1 0x40 MLOAD DUP1 SWAP2 SUB SWAP1 RETURN JUMPDEST CALLVALUE DUP1 ISZERO PUSH2 0x2D5 JUMPI PUSH1 0x0 DUP1 REVERT JUMPDEST POP PUSH2 0x2F0 PUSH1 0x4 DUP1 CALLDATASIZE SUB DUP2 ADD SWAP1 PUSH2 0x2EB SWAP2 SWAP1 PUSH2 0x20C9 JUMP JUMPDEST PUSH2 0xBE2 JUMP JUMPDEST PUSH1 0x40 MLOAD PUSH2 0x2FD SWAP2 SWAP1 PUSH2 0x2111 JUMP JUMPDEST PUSH1 0x40 MLOAD DUP1 SWAP2 SUB SWAP1 RETURN JUMPDEST CALLVALUE DUP1 ISZERO PUSH2 0x312 JUMPI PUSH1 0x0 DUP1 REVERT JUMPDEST POP PUSH2 0x32D PUSH1 0x4 DUP1 CALLDATASIZE SUB DUP2 ADD SWAP1 PUSH2 0x328 SWAP2 SWAP1 PUSH2 0x1E81 JUMP JUMPDEST PUSH2 0xC02 JUMP JUMPDEST STOP JUMPDEST CALLVALUE DUP1 ISZERO PUSH2 0x33B JUMPI PUSH1 0x0 DUP1 REVERT JUMPDEST POP PUSH2 0x356 PUSH1 0x4 DUP1 CALLDATASIZE SUB DUP2 ADD SWAP1 PUSH2 0x351 SWAP2 SWAP1 PUSH2 0x1E81 JUMP JUMPDEST PUSH2 0xEEE JUMP JUMPDEST PUSH1 0x40 MLOAD PUSH2 0x363 SWAP2 SWAP1 PUSH2 0x2209 JUMP JUMPDEST PUSH1 0x40 MLOAD DUP1 SWAP2 SUB SWAP1 RETURN JUMPDEST CALLVALUE DUP1 ISZERO PUSH2 0x378 JUMPI PUSH1 0x0 DUP1 REVERT JUMPDEST POP PUSH2 0x393 PUSH1 0x4 DUP1 CALLDATASIZE SUB DUP2 ADD SWAP1 PUSH2 0x38E SWAP2 SWAP1 PUSH2 0x20C9 JUMP JUMPDEST PUSH2 0xF4A JUMP JUMPDEST STOP JUMPDEST PUSH2 0x3AF PUSH1 0x4 DUP1 CALLDATASIZE SUB DUP2 ADD SWAP1 PUSH2 0x3AA SWAP2 SWAP1 PUSH2 0x237E JUMP JUMPDEST PUSH2 0x1031 JUMP JUMPDEST STOP JUMPDEST CALLVALUE DUP1 ISZERO PUSH2 0x3BD JUMPI PUSH1 0x0 DUP1 REVERT JUMPDEST POP PUSH2 0x3D8 PUSH1 0x4 DUP1 CALLDATASIZE SUB DUP2 ADD SWAP1 PUSH2 0x3D3 SWAP2 SWAP1 PUSH2 0x1E81 JUMP JUMPDEST PUSH2 0x12CA JUMP JUMPDEST PUSH1 0x40 MLOAD PUSH2 0x3E5 SWAP2 SWAP1 PUSH2 0x2111 JUMP JUMPDEST PUSH1 0x40 MLOAD DUP1 SWAP2 SUB SWAP1 RETURN JUMPDEST CALLVALUE DUP1 ISZERO PUSH2 0x3FA JUMPI PUSH1 0x0 DUP1 REVERT JUMPDEST POP PUSH2 0x415 PUSH1 0x4 DUP1 CALLDATASIZE SUB DUP2 ADD SWAP1 PUSH2 0x410 SWAP2 SWAP1 PUSH2 0x20C9 JUMP JUMPDEST PUSH2 0x1459 JUMP JUMPDEST PUSH1 0x40 MLOAD PUSH2 0x423 SWAP3 SWAP2 SWAP1 PUSH2 0x250E JUMP JUMPDEST PUSH1 0x40 MLOAD DUP1 SWAP2 SUB SWAP1 RETURN JUMPDEST CALLVALUE DUP1 ISZERO PUSH2 0x438 JUMPI PUSH1 0x0 DUP1 REVERT JUMPDEST POP PUSH2 0x441 PUSH2 0x156C JUMP JUMPDEST PUSH1 0x40 MLOAD PUSH2 0x44E SWAP2 SWAP1 PUSH2 0x20F6 JUMP JUMPDEST PUSH1 0x40 MLOAD DUP1 SWAP2 SUB SWAP1 RETURN JUMPDEST CALLVALUE DUP1 ISZERO PUSH2 0x463 JUMPI PUSH1 0x0 DUP1 REVERT JUMPDEST POP PUSH2 0x47E PUSH1 0x4 DUP1 CALLDATASIZE SUB DUP2 ADD SWAP1 PUSH2 0x479 SWAP2 SWAP1 PUSH2 0x1E81 JUMP JUMPDEST PUSH2 0x1576 JUMP JUMPDEST PUSH1 0x40 MLOAD PUSH2 0x48C SWAP3 SWAP2 SWAP1 PUSH2 0x253E JUMP JUMPDEST PUSH1 0x40 MLOAD DUP1 SWAP2 SUB SWAP1 RETURN JUMPDEST CALLVALUE DUP1 ISZERO PUSH2 0x4A1 JUMPI PUSH1 0x0 DUP1 REVERT JUMPDEST POP PUSH2 0x4AA PUSH2 0x18A1 JUMP JUMPDEST PUSH1 0x40 MLOAD PUSH2 0x4B7 SWAP2 SWAP1 PUSH2 0x2111 JUMP JUMPDEST PUSH1 0x40 MLOAD DUP1 SWAP2 SUB SWAP1 RETURN JUMPDEST CALLVALUE DUP1 ISZERO PUSH2 0x4CC JUMPI PUSH1 0x0 DUP1 REVERT JUMPDEST POP PUSH2 0x4E7 PUSH1 0x4 DUP1 CALLDATASIZE SUB DUP2 ADD SWAP1 PUSH2 0x4E2 SWAP2 SWAP1 PUSH2 0x1E81 JUMP JUMPDEST PUSH2 0x18B4 JUMP JUMPDEST PUSH1 0x40 MLOAD PUSH2 0x4F6 SWAP4 SWAP3 SWAP2 SWAP1 PUSH2 0x2567 JUMP JUMPDEST PUSH1 0x40 MLOAD DUP1 SWAP2 SUB SWAP1 RETURN JUMPDEST CALLVALUE DUP1 ISZERO PUSH2 0x50B JUMPI PUSH1 0x0 DUP1 REVERT JUMPDEST POP PUSH2 0x526 PUSH1 0x4 DUP1 CALLDATASIZE SUB DUP2 ADD SWAP1 PUSH2 0x521 SWAP2 SWAP1 PUSH2 0x259E JUMP JUMPDEST PUSH2 0x18EB JUMP JUMPDEST STOP JUMPDEST CALLVALUE DUP1 ISZERO PUSH2 0x534 JUMPI PUSH1 0x0 DUP1 REVERT JUMPDEST POP PUSH2 0x54F PUSH1 0x4 DUP1 CALLDATASIZE SUB DUP2 ADD SWAP1 PUSH2 0x54A SWAP2 SWAP1 PUSH2 0x260A JUMP JUMPDEST PUSH2 0x199B JUMP JUMPDEST STOP JUMPDEST CALLVALUE DUP1 ISZERO PUSH2 0x55D JUMPI PUSH1 0x0 DUP1 REVERT JUMPDEST POP PUSH2 0x578 PUSH1 0x4 DUP1 CALLDATASIZE SUB DUP2 ADD SWAP1 PUSH2 0x573 SWAP2 SWAP1 PUSH2 0x20C9 JUMP JUMPDEST PUSH2 0x1C6A JUMP JUMPDEST PUSH1 0x40 MLOAD PUSH2 0x585 SWAP2 SWAP1 PUSH2 0x20F6 JUMP JUMPDEST PUSH1 0x40 MLOAD DUP1 SWAP2 SUB SWAP1 RETURN JUMPDEST CALLVALUE DUP1 ISZERO PUSH2 0x59A JUMPI PUSH1 0x0 DUP1 REVERT JUMPDEST POP PUSH2 0x5B5 PUSH1 0x4 DUP1 CALLDATASIZE SUB DUP2 ADD SWAP1 PUSH2 0x5B0 SWAP2 SWAP1 PUSH2 0x259E JUMP JUMPDEST PUSH2 0x1C82 JUMP JUMPDEST PUSH1 0x40 MLOAD PUSH2 0x5C4 SWAP4 SWAP3 SWAP2 SWAP1 PUSH2 0x264A JUMP JUMPDEST PUSH1 0x40 MLOAD DUP1 SWAP2 SUB SWAP1 RETURN JUMPDEST CALLVALUE DUP1 ISZERO PUSH2 0x5D9 JUMPI PUSH1 0x0 DUP1 REVERT JUMPDEST POP PUSH2 0x5E2 PUSH2 0x1CD6 JUMP JUMPDEST PUSH1 0x40 MLOAD PUSH2 0x5EF SWAP2 SWAP1 PUSH2 0x20F6 JUMP JUMPDEST PUSH1 0x40 MLOAD DUP1 SWAP2 SUB SWAP1 RETURN JUMPDEST CALLVALUE DUP1 ISZERO PUSH2 0x604 JUMPI PUSH1 0x0 DUP1 REVERT JUMPDEST POP PUSH2 0x61F PUSH1 0x4 DUP1 CALLDATASIZE SUB DUP2 ADD SWAP1 PUSH2 0x61A SWAP2 SWAP1 PUSH2 0x259E JUMP JUMPDEST PUSH2 0x1CDC JUMP JUMPDEST STOP JUMPDEST CALLVALUE DUP1 ISZERO PUSH2 0x62D JUMPI PUSH1 0x0 DUP1 REVERT JUMPDEST POP PUSH2 0x648 PUSH1 0x4 DUP1 CALLDATASIZE SUB DUP2 ADD SWAP1 PUSH2 0x643 SWAP2 SWAP1 PUSH2 0x20C9 JUMP JUMPDEST PUSH2 0x1D5C JUMP JUMPDEST PUSH1 0x40 MLOAD PUSH2 0x655 SWAP2 SWAP1 PUSH2 0x20F6 JUMP JUMPDEST PUSH1 0x40 MLOAD DUP1 SWAP2 SUB SWAP1 RETURN JUMPDEST CALLVALUE DUP1 ISZERO PUSH2 0x66A JUMPI PUSH1 0x0 DUP1 REVERT JUMPDEST POP PUSH2 0x673 PUSH2 0x1DA4 JUMP JUMPDEST PUSH1 0x40 MLOAD PUSH2 0x680 SWAP2 SWAP1 PUSH2 0x26E0 JUMP JUMPDEST PUSH1 0x40 MLOAD DUP1 SWAP2 SUB SWAP1 RETURN JUMPDEST CALLVALUE DUP1 ISZERO PUSH2 0x695 JUMPI PUSH1 0x0 DUP1 REVERT JUMPDEST POP PUSH2 0x6B0 PUSH1 0x4 DUP1 CALLDATASIZE SUB DUP2 ADD SWAP1 PUSH2 0x6AB SWAP2 SWAP1 PUSH2 0x1E81 JUMP JUMPDEST PUSH2 0x1DCA JUMP JUMPDEST PUSH1 0x40 MLOAD PUSH2 0x6BD SWAP2 SWAP1 PUSH2 0x20F6 JUMP JUMPDEST PUSH1 0x40 MLOAD DUP1 SWAP2 SUB SWAP1 RETURN JUMPDEST PUSH1 0x6 DUP2 DUP2 SLOAD DUP2 LT PUSH2 0x6D6 JUMPI PUSH1 0x0 DUP1 REVERT JUMPDEST SWAP1 PUSH1 0x0 MSTORE PUSH1 0x20 PUSH1 0x0 KECCAK256 SWAP1 PUSH1 0x8 MUL ADD PUSH1 0x0 SWAP2 POP SWAP1 POP DUP1 PUSH1 0x0 ADD DUP1 SLOAD PUSH2 0x6F9 SWAP1 PUSH2 0x272A JUMP JUMPDEST DUP1 PUSH1 0x1F ADD PUSH1 0x20 DUP1 SWAP2 DIV MUL PUSH1 0x20 ADD PUSH1 0x40 MLOAD SWAP1 DUP2 ADD PUSH1 0x40 MSTORE DUP1 SWAP3 SWAP2 SWAP1 DUP2 DUP2 MSTORE PUSH1 0x20 ADD DUP3 DUP1 SLOAD PUSH2 0x725 SWAP1 PUSH2 0x272A JUMP JUMPDEST DUP1 ISZERO PUSH2 0x772 JUMPI DUP1 PUSH1 0x1F LT PUSH2 0x747 JUMPI PUSH2 0x100 DUP1 DUP4 SLOAD DIV MUL DUP4 MSTORE SWAP2 PUSH1 0x20 ADD SWAP2 PUSH2 0x772 JUMP JUMPDEST DUP3 ADD SWAP2 SWAP1 PUSH1 0x0 MSTORE PUSH1 0x20 PUSH1 0x0 KECCAK256 SWAP1 JUMPDEST DUP2 SLOAD DUP2 MSTORE SWAP1 PUSH1 0x1 ADD SWAP1 PUSH1 0x20 ADD DUP1 DUP4 GT PUSH2 0x755 JUMPI DUP3 SWAP1 SUB PUSH1 0x1F AND DUP3 ADD SWAP2 JUMPDEST POP POP POP POP POP SWAP1 DUP1 PUSH1 0x1 ADD DUP1 SLOAD PUSH2 0x787 SWAP1 PUSH2 0x272A JUMP JUMPDEST DUP1 PUSH1 0x1F ADD PUSH1 0x20 DUP1 SWAP2 DIV MUL PUSH1 0x20 ADD PUSH1 0x40 MLOAD SWAP1 DUP2 ADD PUSH1 0x40 MSTORE DUP1 SWAP3 SWAP2 SWAP1 DUP2 DUP2 MSTORE PUSH1 0x20 ADD DUP3 DUP1 SLOAD PUSH2 0x7B3 SWAP1 PUSH2 0x272A JUMP JUMPDEST DUP1 ISZERO PUSH2 0x800 JUMPI DUP1 PUSH1 0x1F LT PUSH2 0x7D5 JUMPI PUSH2 0x100 DUP1 DUP4 SLOAD DIV MUL DUP4 MSTORE SWAP2 PUSH1 0x20 ADD SWAP2 PUSH2 0x800 JUMP JUMPDEST DUP3 ADD SWAP2 SWAP1 PUSH1 0x0 MSTORE PUSH1 0x20 PUSH1 0x0 KECCAK256 SWAP1 JUMPDEST DUP2 SLOAD DUP2 MSTORE SWAP1 PUSH1 0x1 ADD SWAP1 PUSH1 0x20 ADD DUP1 DUP4 GT PUSH2 0x7E3 JUMPI DUP3 SWAP1 SUB PUSH1 0x1F AND DUP3 ADD SWAP2 JUMPDEST POP POP POP POP POP SWAP1 DUP1 PUSH1 0x2 ADD SLOAD SWAP1 DUP1 PUSH1 0x3 ADD SLOAD SWAP1 DUP1 PUSH1 0x4 ADD PUSH1 0x0 SWAP1 SLOAD SWAP1 PUSH2 0x100 EXP SWAP1 DIV PUSH1 0xFF AND SWAP1 DUP1 PUSH1 0x5 ADD SLOAD SWAP1 DUP1 PUSH1 0x6 ADD SLOAD SWAP1 DUP1 PUSH1 0x7 ADD PUSH1 0x0 SWAP1 SLOAD SWAP1 PUSH2 0x100 EXP SWAP1 DIV PUSH1 0xFF AND SWAP1 POP DUP9 JUMP JUMPDEST PUSH1 0x3 PUSH1 0x0 CALLER PUSH20 0xFFFFFFFFFFFFFFFFFFFFFFFFFFFFFFFFFFFFFFFF AND PUSH20 0xFFFFFFFFFFFFFFFFFFFFFFFFFFFFFFFFFFFFFFFF AND DUP2 MSTORE PUSH1 0x20 ADD SWAP1 DUP2 MSTORE PUSH1 0x20 ADD PUSH1 0x0 KECCAK256 PUSH1 0x0 SWAP1 SLOAD SWAP1 PUSH2 0x100 EXP SWAP1 DIV PUSH1 0xFF AND PUSH2 0x8D4 JUMPI PUSH1 0x40 MLOAD PUSH32 0x8C379A000000000000000000000000000000000000000000000000000000000 DUP2 MSTORE PUSH1 0x4 ADD PUSH2 0x8CB SWAP1 PUSH2 0x27CD JUMP JUMPDEST PUSH1 0x40 MLOAD DUP1 SWAP2 SUB SWAP1 REVERT JUMPDEST PUSH1 0x0 PUSH1 0x3 PUSH1 0x0 DUP4 PUSH20 0xFFFFFFFFFFFFFFFFFFFFFFFFFFFFFFFFFFFFFFFF AND PUSH20 0xFFFFFFFFFFFFFFFFFFFFFFFFFFFFFFFFFFFFFFFF AND DUP2 MSTORE PUSH1 0x20 ADD SWAP1 DUP2 MSTORE PUSH1 0x20 ADD PUSH1 0x0 KECCAK256 PUSH1 0x0 PUSH2 0x100 EXP DUP2 SLOAD DUP2 PUSH1 0xFF MUL NOT AND SWAP1 DUP4 ISZERO ISZERO MUL OR SWAP1 SSTORE POP POP JUMP JUMPDEST PUSH1 0x8 SLOAD DUP2 JUMP JUMPDEST PUSH1 0x0 PUSH1 0x3 PUSH1 0x0 DUP4 PUSH20 0xFFFFFFFFFFFFFFFFFFFFFFFFFFFFFFFFFFFFFFFF AND PUSH20 0xFFFFFFFFFFFFFFFFFFFFFFFFFFFFFFFFFFFFFFFF AND DUP2 MSTORE PUSH1 0x20 ADD SWAP1 DUP2 MSTORE PUSH1 0x20 ADD PUSH1 0x0 KECCAK256 PUSH1 0x0 SWAP1 SLOAD SWAP1 PUSH2 0x100 EXP SWAP1 DIV PUSH1 0xFF AND SWAP1 POP SWAP2 SWAP1 POP JUMP JUMPDEST PUSH1 0x60 DUP1 PUSH1 0x0 DUP1 PUSH1 0x0 DUP1 PUSH1 0x0 PUSH1 0x6 DUP9 DUP2 SLOAD DUP2 LT PUSH2 0x9AA JUMPI PUSH2 0x9A9 PUSH2 0x27ED JUMP JUMPDEST JUMPDEST SWAP1 PUSH1 0x0 MSTORE PUSH1 0x20 PUSH1 0x0 KECCAK256 SWAP1 PUSH1 0x8 MUL ADD PUSH1 0x0 ADD PUSH1 0x6 DUP10 DUP2 SLOAD DUP2 LT PUSH2 0x9CF JUMPI PUSH2 0x9CE PUSH2 0x27ED JUMP JUMPDEST JUMPDEST SWAP1 PUSH1 0x0 MSTORE PUSH1 0x20 PUSH1 0x0 KECCAK256 SWAP1 PUSH1 0x8 MUL ADD PUSH1 0x1 ADD PUSH1 0x6 DUP11 DUP2 SLOAD DUP2 LT PUSH2 0x9F4 JUMPI PUSH2 0x9F3 PUSH2 0x27ED JUMP JUMPDEST JUMPDEST SWAP1 PUSH1 0x0 MSTORE PUSH1 0x20 PUSH1 0x0 KECCAK256 SWAP1 PUSH1 0x8 MUL ADD PUSH1 0x2 ADD SLOAD PUSH1 0x6 DUP12 DUP2 SLOAD DUP2 LT PUSH2 0xA1A JUMPI PUSH2 0xA19 PUSH2 0x27ED JUMP JUMPDEST JUMPDEST SWAP1 PUSH1 0x0 MSTORE PUSH1 0x20 PUSH1 0x0 KECCAK256 SWAP1 PUSH1 0x8 MUL ADD PUSH1 0x3 ADD SLOAD PUSH1 0x6 DUP13 DUP2 SLOAD DUP2 LT PUSH2 0xA40 JUMPI PUSH2 0xA3F PUSH2 0x27ED JUMP JUMPDEST JUMPDEST SWAP1 PUSH1 0x0 MSTORE PUSH1 0x20 PUSH1 0x0 KECCAK256 SWAP1 PUSH1 0x8 MUL ADD PUSH1 0x4 ADD PUSH1 0x0 SWAP1 SLOAD SWAP1 PUSH2 0x100 EXP SWAP1 DIV PUSH1 0xFF AND PUSH1 0x6 DUP14 DUP2 SLOAD DUP2 LT PUSH2 0xA73 JUMPI PUSH2 0xA72 PUSH2 0x27ED JUMP JUMPDEST JUMPDEST SWAP1 PUSH1 0x0 MSTORE PUSH1 0x20 PUSH1 0x0 KECCAK256 SWAP1 PUSH1 0x8 MUL ADD PUSH1 0x5 ADD SLOAD PUSH1 0x6 DUP15 DUP2 SLOAD DUP2 LT PUSH2 0xA99 JUMPI PUSH2 0xA98 PUSH2 0x27ED JUMP JUMPDEST JUMPDEST SWAP1 PUSH1 0x0 MSTORE PUSH1 0x20 PUSH1 0x0 KECCAK256 SWAP1 PUSH1 0x8 MUL ADD PUSH1 0x6 ADD SLOAD DUP7 DUP1 SLOAD PUSH2 0xAB7 SWAP1 PUSH2 0x272A JUMP JUMPDEST DUP1 PUSH1 0x1F ADD PUSH1 0x20 DUP1 SWAP2 DIV MUL PUSH1 0x20 ADD PUSH1 0x40 MLOAD SWAP1 DUP2 ADD PUSH1 0x40 MSTORE DUP1 SWAP3 SWAP2 SWAP1 DUP2 DUP2 MSTORE PUSH1 0x20 ADD DUP3 DUP1 SLOAD PUSH2 0xAE3 SWAP1 PUSH2 0x272A JUMP JUMPDEST DUP1 ISZERO PUSH2 0xB30 JUMPI DUP1 PUSH1 0x1F LT PUSH2 0xB05 JUMPI PUSH2 0x100 DUP1 DUP4 SLOAD DIV MUL DUP4 MSTORE SWAP2 PUSH1 0x20 ADD SWAP2 PUSH2 0xB30 JUMP JUMPDEST DUP3 ADD SWAP2 SWAP1 PUSH1 0x0 MSTORE PUSH1 0x20 PUSH1 0x0 KECCAK256 SWAP1 JUMPDEST DUP2 SLOAD DUP2 MSTORE SWAP1 PUSH1 0x1 ADD SWAP1 PUSH1 0x20 ADD DUP1 DUP4 GT PUSH2 0xB13 JUMPI DUP3 SWAP1 SUB PUSH1 0x1F AND DUP3 ADD SWAP2 JUMPDEST POP POP POP POP POP SWAP7 POP DUP6 DUP1 SLOAD PUSH2 0xB43 SWAP1 PUSH2 0x272A JUMP JUMPDEST DUP1 PUSH1 0x1F ADD PUSH1 0x20 DUP1 SWAP2 DIV MUL PUSH1 0x20 ADD PUSH1 0x40 MLOAD SWAP1 DUP2 ADD PUSH1 0x40 MSTORE DUP1 SWAP3 SWAP2 SWAP1 DUP2 DUP2 MSTORE PUSH1 0x20 ADD DUP3 DUP1 SLOAD PUSH2 0xB6F SWAP1 PUSH2 0x272A JUMP JUMPDEST DUP1 ISZERO PUSH2 0xBBC JUMPI DUP1 PUSH1 0x1F LT PUSH2 0xB91 JUMPI PUSH2 0x100 DUP1 DUP4 SLOAD DIV MUL DUP4 MSTORE SWAP2 PUSH1 0x20 ADD SWAP2 PUSH2 0xBBC JUMP JUMPDEST DUP3 ADD SWAP2 SWAP1 PUSH1 0x0 MSTORE PUSH1 0x20 PUSH1 0x0 KECCAK256 SWAP1 JUMPDEST DUP2 SLOAD DUP2 MSTORE SWAP1 PUSH1 0x1 ADD SWAP1 PUSH1 0x20 ADD DUP1 DUP4 GT PUSH2 0xB9F JUMPI DUP3 SWAP1 SUB PUSH1 0x1F AND DUP3 ADD SWAP2 JUMPDEST POP POP POP POP POP SWAP6 POP SWAP7 POP SWAP7 POP SWAP7 POP SWAP7 POP SWAP7 POP SWAP7 POP SWAP7 POP SWAP2 SWAP4 SWAP6 SWAP8 SWAP1 SWAP3 SWAP5 SWAP7 POP JUMP JUMPDEST PUSH1 0x5 SLOAD DUP2 JUMP JUMPDEST PUSH1 0x3 PUSH1 0x20 MSTORE DUP1 PUSH1 0x0 MSTORE PUSH1 0x40 PUSH1 0x0 KECCAK256 PUSH1 0x0 SWAP2 POP SLOAD SWAP1 PUSH2 0x100 EXP SWAP1 DIV PUSH1 0xFF AND DUP2 JUMP JUMPDEST PUSH1 0x0 PUSH1 0x6 DUP3 DUP2 SLOAD DUP2 LT PUSH2 0xC18 JUMPI PUSH2 0xC17 PUSH2 0x27ED JUMP JUMPDEST JUMPDEST SWAP1 PUSH1 0x0 MSTORE PUSH1 0x20 PUSH1 0x0 KECCAK256 SWAP1 PUSH1 0x8 MUL ADD PUSH1 0x4 ADD PUSH1 0x0 PUSH2 0x100 EXP DUP2 SLOAD DUP2 PUSH1 0xFF MUL NOT AND SWAP1 DUP4 ISZERO ISZERO MUL OR SWAP1 SSTORE POP PUSH1 0x0 DUP1 JUMPDEST PUSH1 0x4 SLOAD DUP2 LT ISZERO PUSH2 0xC9C JUMPI PUSH1 0x6 DUP2 DUP2 SLOAD DUP2 LT PUSH2 0xC62 JUMPI PUSH2 0xC61 PUSH2 0x27ED JUMP JUMPDEST JUMPDEST SWAP1 PUSH1 0x0 MSTORE PUSH1 0x20 PUSH1 0x0 KECCAK256 SWAP1 PUSH1 0x8 MUL ADD PUSH1 0x4 ADD PUSH1 0x0 SWAP1 SLOAD SWAP1 PUSH2 0x100 EXP SWAP1 DIV PUSH1 0xFF AND ISZERO PUSH2 0xC8F JUMPI PUSH1 0x1 SWAP2 POP PUSH2 0xC9C JUMP JUMPDEST DUP1 DUP1 PUSH1 0x1 ADD SWAP2 POP POP PUSH2 0xC44 JUMP JUMPDEST POP PUSH1 0x0 PUSH1 0x6 DUP4 DUP2 SLOAD DUP2 LT PUSH2 0xCB3 JUMPI PUSH2 0xCB2 PUSH2 0x27ED JUMP JUMPDEST JUMPDEST SWAP1 PUSH1 0x0 MSTORE PUSH1 0x20 PUSH1 0x0 KECCAK256 SWAP1 PUSH1 0x8 MUL ADD PUSH1 0x3 ADD SLOAD PUSH1 0x6 DUP5 DUP2 SLOAD DUP2 LT PUSH2 0xCD9 JUMPI PUSH2 0xCD8 PUSH2 0x27ED JUMP JUMPDEST JUMPDEST SWAP1 PUSH1 0x0 MSTORE PUSH1 0x20 PUSH1 0x0 KECCAK256 SWAP1 PUSH1 0x8 MUL ADD PUSH1 0x2 ADD SLOAD GT SWAP1 POP PUSH1 0x40 MLOAD DUP1 PUSH1 0x60 ADD PUSH1 0x40 MSTORE DUP1 DUP3 ISZERO ISZERO DUP2 MSTORE PUSH1 0x20 ADD PUSH1 0x6 DUP6 DUP2 SLOAD DUP2 LT PUSH2 0xD15 JUMPI PUSH2 0xD14 PUSH2 0x27ED JUMP JUMPDEST JUMPDEST SWAP1 PUSH1 0x0 MSTORE PUSH1 0x20 PUSH1 0x0 KECCAK256 SWAP1 PUSH1 0x8 MUL ADD PUSH1 0x2 ADD SLOAD DUP2 MSTORE PUSH1 0x20 ADD PUSH1 0x6 DUP6 DUP2 SLOAD DUP2 LT PUSH2 0xD40 JUMPI PUSH2 0xD3F PUSH2 0x27ED JUMP JUMPDEST JUMPDEST SWAP1 PUSH1 0x0 MSTORE PUSH1 0x20 PUSH1 0x0 KECCAK256 SWAP1 PUSH1 0x8 MUL ADD PUSH1 0x3 ADD SLOAD DUP2 MSTORE POP PUSH1 0x2 PUSH1 0x0 DUP6 DUP2 MSTORE PUSH1 0x20 ADD SWAP1 DUP2 MSTORE PUSH1 0x20 ADD PUSH1 0x0 KECCAK256 PUSH1 0x0 DUP3 ADD MLOAD DUP2 PUSH1 0x0 ADD PUSH1 0x0 PUSH2 0x100 EXP DUP2 SLOAD DUP2 PUSH1 0xFF MUL NOT AND SWAP1 DUP4 ISZERO ISZERO MUL OR SWAP1 SSTORE POP PUSH1 0x20 DUP3 ADD MLOAD DUP2 PUSH1 0x1 ADD SSTORE PUSH1 0x40 DUP3 ADD MLOAD DUP2 PUSH1 0x2 ADD SSTORE SWAP1 POP POP PUSH1 0x6 DUP4 DUP2 SLOAD DUP2 LT PUSH2 0xDB3 JUMPI PUSH2 0xDB2 PUSH2 0x27ED JUMP JUMPDEST JUMPDEST SWAP1 PUSH1 0x0 MSTORE PUSH1 0x20 PUSH1 0x0 KECCAK256 SWAP1 PUSH1 0x8 MUL ADD PUSH1 0x5 ADD SLOAD TIMESTAMP GT DUP1 ISZERO PUSH2 0xDD9 JUMPI POP PUSH2 0xDD7 DUP4 PUSH2 0x12CA JUMP JUMPDEST ISZERO JUMPDEST ISZERO PUSH2 0xECF JUMPI PUSH1 0x0 PUSH1 0x6 DUP5 DUP2 SLOAD DUP2 LT PUSH2 0xDF4 JUMPI PUSH2 0xDF3 PUSH2 0x27ED JUMP JUMPDEST JUMPDEST SWAP1 PUSH1 0x0 MSTORE PUSH1 0x20 PUSH1 0x0 KECCAK256 SWAP1 PUSH1 0x8 MUL ADD PUSH1 0x4 ADD PUSH1 0x0 PUSH2 0x100 EXP DUP2 SLOAD DUP2 PUSH1 0xFF MUL NOT AND SWAP1 DUP4 ISZERO ISZERO MUL OR SWAP1 SSTORE POP PUSH1 0x40 MLOAD DUP1 PUSH1 0x60 ADD PUSH1 0x40 MSTORE DUP1 PUSH1 0x0 ISZERO ISZERO DUP2 MSTORE PUSH1 0x20 ADD PUSH1 0x6 DUP6 DUP2 SLOAD DUP2 LT PUSH2 0xE44 JUMPI PUSH2 0xE43 PUSH2 0x27ED JUMP JUMPDEST JUMPDEST SWAP1 PUSH1 0x0 MSTORE PUSH1 0x20 PUSH1 0x0 KECCAK256 SWAP1 PUSH1 0x8 MUL ADD PUSH1 0x2 ADD SLOAD DUP2 MSTORE PUSH1 0x20 ADD PUSH1 0x6 DUP6 DUP2 SLOAD DUP2 LT PUSH2 0xE6F JUMPI PUSH2 0xE6E PUSH2 0x27ED JUMP JUMPDEST JUMPDEST SWAP1 PUSH1 0x0 MSTORE PUSH1 0x20 PUSH1 0x0 KECCAK256 SWAP1 PUSH1 0x8 MUL ADD PUSH1 0x3 ADD SLOAD DUP2 MSTORE POP PUSH1 0x2 PUSH1 0x0 DUP6 DUP2 MSTORE PUSH1 0x20 ADD SWAP1 DUP2 MSTORE PUSH1 0x20 ADD PUSH1 0x0 KECCAK256 PUSH1 0x0 DUP3 ADD MLOAD DUP2 PUSH1 0x0 ADD PUSH1 0x0 PUSH2 0x100 EXP DUP2 SLOAD DUP2 PUSH1 0xFF MUL NOT AND SWAP1 DUP4 ISZERO ISZERO MUL OR SWAP1 SSTORE POP PUSH1 0x20 DUP3 ADD MLOAD DUP2 PUSH1 0x1 ADD SSTORE PUSH1 0x40 DUP3 ADD MLOAD DUP2 PUSH1 0x2 ADD SSTORE SWAP1 POP POP JUMPDEST DUP2 PUSH1 0x7 PUSH1 0x0 PUSH2 0x100 EXP DUP2 SLOAD DUP2 PUSH1 0xFF MUL NOT AND SWAP1 DUP4 ISZERO ISZERO MUL OR SWAP1 SSTORE POP POP POP POP JUMP JUMPDEST PUSH2 0xEF6 PUSH2 0x1E14 JUMP JUMPDEST PUSH1 0x2 PUSH1 0x0 DUP4 DUP2 MSTORE PUSH1 0x20 ADD SWAP1 DUP2 MSTORE PUSH1 0x20 ADD PUSH1 0x0 KECCAK256 PUSH1 0x40 MLOAD DUP1 PUSH1 0x60 ADD PUSH1 0x40 MSTORE SWAP1 DUP2 PUSH1 0x0 DUP3 ADD PUSH1 0x0 SWAP1 SLOAD SWAP1 PUSH2 0x100 EXP SWAP1 DIV PUSH1 0xFF AND ISZERO ISZERO ISZERO ISZERO DUP2 MSTORE PUSH1 0x20 ADD PUSH1 0x1 DUP3 ADD SLOAD DUP2 MSTORE PUSH1 0x20 ADD PUSH1 0x2 DUP3 ADD SLOAD DUP2 MSTORE POP POP SWAP1 POP SWAP2 SWAP1 POP JUMP JUMPDEST PUSH1 0x3 PUSH1 0x0 CALLER PUSH20 0xFFFFFFFFFFFFFFFFFFFFFFFFFFFFFFFFFFFFFFFF AND PUSH20 0xFFFFFFFFFFFFFFFFFFFFFFFFFFFFFFFFFFFFFFFF AND DUP2 MSTORE PUSH1 0x20 ADD SWAP1 DUP2 MSTORE PUSH1 0x20 ADD PUSH1 0x0 KECCAK256 PUSH1 0x0 SWAP1 SLOAD SWAP1 PUSH2 0x100 EXP SWAP1 DIV PUSH1 0xFF AND PUSH2 0xFD6 JUMPI PUSH1 0x40 MLOAD PUSH32 0x8C379A000000000000000000000000000000000000000000000000000000000 DUP2 MSTORE PUSH1 0x4 ADD PUSH2 0xFCD SWAP1 PUSH2 0x27CD JUMP JUMPDEST PUSH1 0x40 MLOAD DUP1 SWAP2 SUB SWAP1 REVERT JUMPDEST PUSH1 0x1 PUSH1 0x3 PUSH1 0x0 DUP4 PUSH20 0xFFFFFFFFFFFFFFFFFFFFFFFFFFFFFFFFFFFFFFFF AND PUSH20 0xFFFFFFFFFFFFFFFFFFFFFFFFFFFFFFFFFFFFFFFF AND DUP2 MSTORE PUSH1 0x20 ADD SWAP1 DUP2 MSTORE PUSH1 0x20 ADD PUSH1 0x0 KECCAK256 PUSH1 0x0 PUSH2 0x100 EXP DUP2 SLOAD DUP2 PUSH1 0xFF MUL NOT AND SWAP1 DUP4 ISZERO ISZERO MUL OR SWAP1 SSTORE POP POP JUMP JUMPDEST PUSH1 0x3 PUSH1 0x0 CALLER PUSH20 0xFFFFFFFFFFFFFFFFFFFFFFFFFFFFFFFFFFFFFFFF AND PUSH20 0xFFFFFFFFFFFFFFFFFFFFFFFFFFFFFFFFFFFFFFFF AND DUP2 MSTORE PUSH1 0x20 ADD SWAP1 DUP2 MSTORE PUSH1 0x20 ADD PUSH1 0x0 KECCAK256 PUSH1 0x0 SWAP1 SLOAD SWAP1 PUSH2 0x100 EXP SWAP1 DIV PUSH1 0xFF AND PUSH2 0x10BD JUMPI PUSH1 0x40 MLOAD PUSH32 0x8C379A000000000000000000000000000000000000000000000000000000000 DUP2 MSTORE PUSH1 0x4 ADD PUSH2 0x10B4 SWAP1 PUSH2 0x27CD JUMP JUMPDEST PUSH1 0x40 MLOAD DUP1 SWAP2 SUB SWAP1 REVERT JUMPDEST PUSH1 0x0 CALLVALUE GT PUSH2 0x1100 JUMPI PUSH1 0x40 MLOAD PUSH32 0x8C379A000000000000000000000000000000000000000000000000000000000 DUP2 MSTORE PUSH1 0x4 ADD PUSH2 0x10F7 SWAP1 PUSH2 0x288E JUMP JUMPDEST PUSH1 0x40 MLOAD DUP1 SWAP2 SUB SWAP1 REVERT JUMPDEST PUSH1 0x40 MLOAD DUP1 PUSH2 0x100 ADD PUSH1 0x40 MSTORE DUP1 DUP6 DUP2 MSTORE PUSH1 0x20 ADD DUP5 DUP2 MSTORE PUSH1 0x20 ADD PUSH1 0x0 DUP2 MSTORE PUSH1 0x20 ADD PUSH1 0x0 DUP2 MSTORE PUSH1 0x20 ADD PUSH1 0x1 ISZERO ISZERO DUP2 MSTORE PUSH1 0x20 ADD PUSH1 0x3C DUP5 PUSH2 0x113C SWAP2 SWAP1 PUSH2 0x28DD JUMP JUMPDEST TIMESTAMP PUSH2 0x1147 SWAP2 SWAP1 PUSH2 0x291F JUMP JUMPDEST DUP2 MSTORE PUSH1 0x20 ADD PUSH1 0x0 DUP2 MSTORE PUSH1 0x20 ADD DUP3 PUSH1 0x3 DUP2 GT ISZERO PUSH2 0x1166 JUMPI PUSH2 0x1165 PUSH2 0x1F68 JUMP JUMPDEST JUMPDEST DUP2 MSTORE POP PUSH1 0x6 PUSH1 0x4 SLOAD DUP2 SLOAD DUP2 LT PUSH2 0x117F JUMPI PUSH2 0x117E PUSH2 0x27ED JUMP JUMPDEST JUMPDEST SWAP1 PUSH1 0x0 MSTORE PUSH1 0x20 PUSH1 0x0 KECCAK256 SWAP1 PUSH1 0x8 MUL ADD PUSH1 0x0 DUP3 ADD MLOAD DUP2 PUSH1 0x0 ADD SWAP1 DUP2 PUSH2 0x11A2 SWAP2 SWAP1 PUSH2 0x2AF5 JUMP JUMPDEST POP PUSH1 0x20 DUP3 ADD MLOAD DUP2 PUSH1 0x1 ADD SWAP1 DUP2 PUSH2 0x11B8 SWAP2 SWAP1 PUSH2 0x2AF5 JUMP JUMPDEST POP PUSH1 0x40 DUP3 ADD MLOAD DUP2 PUSH1 0x2 ADD SSTORE PUSH1 0x60 DUP3 ADD MLOAD DUP2 PUSH1 0x3 ADD SSTORE PUSH1 0x80 DUP3 ADD MLOAD DUP2 PUSH1 0x4 ADD PUSH1 0x0 PUSH2 0x100 EXP DUP2 SLOAD DUP2 PUSH1 0xFF MUL NOT AND SWAP1 DUP4 ISZERO ISZERO MUL OR SWAP1 SSTORE POP PUSH1 0xA0 DUP3 ADD MLOAD DUP2 PUSH1 0x5 ADD SSTORE PUSH1 0xC0 DUP3 ADD MLOAD DUP2 PUSH1 0x6 ADD SSTORE PUSH1 0xE0 DUP3 ADD MLOAD DUP2 PUSH1 0x7 ADD PUSH1 0x0 PUSH2 0x100 EXP DUP2 SLOAD DUP2 PUSH1 0xFF MUL NOT AND SWAP1 DUP4 PUSH1 0x3 DUP2 GT ISZERO PUSH2 0x122C JUMPI PUSH2 0x122B PUSH2 0x1F68 JUMP JUMPDEST JUMPDEST MUL OR SWAP1 SSTORE POP SWAP1 POP POP PUSH1 0x1 PUSH1 0x7 PUSH1 0x0 PUSH2 0x100 EXP DUP2 SLOAD DUP2 PUSH1 0xFF MUL NOT AND SWAP1 DUP4 ISZERO ISZERO MUL OR SWAP1 SSTORE POP PUSH1 0x3C DUP3 PUSH2 0x125C SWAP2 SWAP1 PUSH2 0x28DD JUMP JUMPDEST TIMESTAMP PUSH2 0x1267 SWAP2 SWAP1 PUSH2 0x291F JUMP JUMPDEST PUSH1 0x8 DUP2 SWAP1 SSTORE POP PUSH32 0xF5DC0DA9AFA6D080780A49FD8C680F03D2DDF3C067CD6D0C85360C096644D2D3 PUSH1 0x4 SLOAD DUP5 PUSH1 0x8 SLOAD PUSH1 0x40 MLOAD PUSH2 0x12A4 SWAP4 SWAP3 SWAP2 SWAP1 PUSH2 0x2BC7 JUMP JUMPDEST PUSH1 0x40 MLOAD DUP1 SWAP2 SUB SWAP1 LOG1 PUSH1 0x4 PUSH1 0x0 DUP2 SLOAD DUP1 SWAP3 SWAP2 SWAP1 PUSH2 0x12BF SWAP1 PUSH2 0x2C05 JUMP JUMPDEST SWAP2 SWAP1 POP SSTORE POP POP POP POP POP JUMP JUMPDEST PUSH1 0x0 DUP1 PUSH1 0x6 DUP4 DUP2 SLOAD DUP2 LT PUSH2 0x12E1 JUMPI PUSH2 0x12E0 PUSH2 0x27ED JUMP JUMPDEST JUMPDEST SWAP1 PUSH1 0x0 MSTORE PUSH1 0x20 PUSH1 0x0 KECCAK256 SWAP1 PUSH1 0x8 MUL ADD SWAP1 POP PUSH1 0x0 DUP1 PUSH1 0x3 DUP2 GT ISZERO PUSH2 0x1306 JUMPI PUSH2 0x1305 PUSH2 0x1F68 JUMP JUMPDEST JUMPDEST DUP3 PUSH1 0x7 ADD PUSH1 0x0 SWAP1 SLOAD SWAP1 PUSH2 0x100 EXP SWAP1 DIV PUSH1 0xFF AND PUSH1 0x3 DUP2 GT ISZERO PUSH2 0x132A JUMPI PUSH2 0x1329 PUSH2 0x1F68 JUMP JUMPDEST JUMPDEST SUB PUSH2 0x1345 JUMPI PUSH1 0x2 PUSH1 0x5 SLOAD PUSH2 0x133E SWAP2 SWAP1 PUSH2 0x2C7C JUMP JUMPDEST SWAP1 POP PUSH2 0x1448 JUMP JUMPDEST PUSH1 0x1 PUSH1 0x3 DUP2 GT ISZERO PUSH2 0x1359 JUMPI PUSH2 0x1358 PUSH2 0x1F68 JUMP JUMPDEST JUMPDEST DUP3 PUSH1 0x7 ADD PUSH1 0x0 SWAP1 SLOAD SWAP1 PUSH2 0x100 EXP SWAP1 DIV PUSH1 0xFF AND PUSH1 0x3 DUP2 GT ISZERO PUSH2 0x137D JUMPI PUSH2 0x137C PUSH2 0x1F68 JUMP JUMPDEST JUMPDEST SUB PUSH2 0x13A4 JUMPI PUSH1 0x3 PUSH1 0x2 PUSH1 0x5 SLOAD PUSH2 0x1393 SWAP2 SWAP1 PUSH2 0x28DD JUMP JUMPDEST PUSH2 0x139D SWAP2 SWAP1 PUSH2 0x2C7C JUMP JUMPDEST SWAP1 POP PUSH2 0x1447 JUMP JUMPDEST PUSH1 0x2 PUSH1 0x3 DUP2 GT ISZERO PUSH2 0x13B8 JUMPI PUSH2 0x13B7 PUSH2 0x1F68 JUMP JUMPDEST JUMPDEST DUP3 PUSH1 0x7 ADD PUSH1 0x0 SWAP1 SLOAD SWAP1 PUSH2 0x100 EXP SWAP1 DIV PUSH1 0xFF AND PUSH1 0x3 DUP2 GT ISZERO PUSH2 0x13DC JUMPI PUSH2 0x13DB PUSH2 0x1F68 JUMP JUMPDEST JUMPDEST SUB PUSH2 0x1403 JUMPI PUSH1 0x4 PUSH1 0x3 PUSH1 0x5 SLOAD PUSH2 0x13F2 SWAP2 SWAP1 PUSH2 0x28DD JUMP JUMPDEST PUSH2 0x13FC SWAP2 SWAP1 PUSH2 0x2C7C JUMP JUMPDEST SWAP1 POP PUSH2 0x1446 JUMP JUMPDEST PUSH1 0x3 DUP1 DUP2 GT ISZERO PUSH2 0x1416 JUMPI PUSH2 0x1415 PUSH2 0x1F68 JUMP JUMPDEST JUMPDEST DUP3 PUSH1 0x7 ADD PUSH1 0x0 SWAP1 SLOAD SWAP1 PUSH2 0x100 EXP SWAP1 DIV PUSH1 0xFF AND PUSH1 0x3 DUP2 GT ISZERO PUSH2 0x143A JUMPI PUSH2 0x1439 PUSH2 0x1F68 JUMP JUMPDEST JUMPDEST SUB PUSH2 0x1445 JUMPI PUSH1 0x5 SLOAD SWAP1 POP JUMPDEST JUMPDEST JUMPDEST JUMPDEST DUP1 DUP3 PUSH1 0x2 ADD SLOAD LT ISZERO SWAP3 POP POP POP SWAP2 SWAP1 POP JUMP JUMPDEST PUSH1 0x0 PUSH1 0x60 PUSH1 0x0 DUP1 DUP5 PUSH20 0xFFFFFFFFFFFFFFFFFFFFFFFFFFFFFFFFFFFFFFFF AND PUSH20 0xFFFFFFFFFFFFFFFFFFFFFFFFFFFFFFFFFFFFFFFF AND DUP2 MSTORE PUSH1 0x20 ADD SWAP1 DUP2 MSTORE PUSH1 0x20 ADD PUSH1 0x0 KECCAK256 SLOAD PUSH1 0x1 PUSH1 0x0 DUP6 PUSH20 0xFFFFFFFFFFFFFFFFFFFFFFFFFFFFFFFFFFFFFFFF AND PUSH20 0xFFFFFFFFFFFFFFFFFFFFFFFFFFFFFFFFFFFFFFFF AND DUP2 MSTORE PUSH1 0x20 ADD SWAP1 DUP2 MSTORE PUSH1 0x20 ADD PUSH1 0x0 KECCAK256 DUP1 DUP1 SLOAD DUP1 PUSH1 0x20 MUL PUSH1 0x20 ADD PUSH1 0x40 MLOAD SWAP1 DUP2 ADD PUSH1 0x40 MSTORE DUP1 SWAP3 SWAP2 SWAP1 DUP2 DUP2 MSTORE PUSH1 0x20 ADD PUSH1 0x0 SWAP1 JUMPDEST DUP3 DUP3 LT ISZERO PUSH2 0x155D JUMPI DUP4 DUP3 SWAP1 PUSH1 0x0 MSTORE PUSH1 0x20 PUSH1 0x0 KECCAK256 SWAP1 PUSH1 0x3 MUL ADD PUSH1 0x40 MLOAD DUP1 PUSH1 0x60 ADD PUSH1 0x40 MSTORE SWAP1 DUP2 PUSH1 0x0 DUP3 ADD SLOAD DUP2 MSTORE PUSH1 0x20 ADD PUSH1 0x1 DUP3 ADD PUSH1 0x0 SWAP1 SLOAD SWAP1 PUSH2 0x100 EXP SWAP1 DIV PUSH1 0xFF AND ISZERO ISZERO ISZERO ISZERO DUP2 MSTORE PUSH1 0x20 ADD PUSH1 0x2 DUP3 ADD SLOAD DUP2 MSTORE POP POP DUP2 MSTORE PUSH1 0x20 ADD SWAP1 PUSH1 0x1 ADD SWAP1 PUSH2 0x14FC JUMP JUMPDEST POP POP POP POP SWAP1 POP SWAP2 POP SWAP2 POP SWAP2 POP SWAP2 JUMP JUMPDEST PUSH1 0x0 PUSH1 0x4 SLOAD SWAP1 POP SWAP1 JUMP JUMPDEST PUSH1 0x0 DUP1 PUSH1 0x0 PUSH1 0x6 DUP5 DUP2 SLOAD DUP2 LT PUSH2 0x158F JUMPI PUSH2 0x158E PUSH2 0x27ED JUMP JUMPDEST JUMPDEST SWAP1 PUSH1 0x0 MSTORE PUSH1 0x20 PUSH1 0x0 KECCAK256 SWAP1 PUSH1 0x8 MUL ADD PUSH1 0x40 MLOAD DUP1 PUSH2 0x100 ADD PUSH1 0x40 MSTORE SWAP1 DUP2 PUSH1 0x0 DUP3 ADD DUP1 SLOAD PUSH2 0x15B9 SWAP1 PUSH2 0x272A JUMP JUMPDEST DUP1 PUSH1 0x1F ADD PUSH1 0x20 DUP1 SWAP2 DIV MUL PUSH1 0x20 ADD PUSH1 0x40 MLOAD SWAP1 DUP2 ADD PUSH1 0x40 MSTORE DUP1 SWAP3 SWAP2 SWAP1 DUP2 DUP2 MSTORE PUSH1 0x20 ADD DUP3 DUP1 SLOAD PUSH2 0x15E5 SWAP1 PUSH2 0x272A JUMP JUMPDEST DUP1 ISZERO PUSH2 0x1632 JUMPI DUP1 PUSH1 0x1F LT PUSH2 0x1607 JUMPI PUSH2 0x100 DUP1 DUP4 SLOAD DIV MUL DUP4 MSTORE SWAP2 PUSH1 0x20 ADD SWAP2 PUSH2 0x1632 JUMP JUMPDEST DUP3 ADD SWAP2 SWAP1 PUSH1 0x0 MSTORE PUSH1 0x20 PUSH1 0x0 KECCAK256 SWAP1 JUMPDEST DUP2 SLOAD DUP2 MSTORE SWAP1 PUSH1 0x1 ADD SWAP1 PUSH1 0x20 ADD DUP1 DUP4 GT PUSH2 0x1615 JUMPI DUP3 SWAP1 SUB PUSH1 0x1F AND DUP3 ADD SWAP2 JUMPDEST POP POP POP POP POP DUP2 MSTORE PUSH1 0x20 ADD PUSH1 0x1 DUP3 ADD DUP1 SLOAD PUSH2 0x164B SWAP1 PUSH2 0x272A JUMP JUMPDEST DUP1 PUSH1 0x1F ADD PUSH1 0x20 DUP1 SWAP2 DIV MUL PUSH1 0x20 ADD PUSH1 0x40 MLOAD SWAP1 DUP2 ADD PUSH1 0x40 MSTORE DUP1 SWAP3 SWAP2 SWAP1 DUP2 DUP2 MSTORE PUSH1 0x20 ADD DUP3 DUP1 SLOAD PUSH2 0x1677 SWAP1 PUSH2 0x272A JUMP JUMPDEST DUP1 ISZERO PUSH2 0x16C4 JUMPI DUP1 PUSH1 0x1F LT PUSH2 0x1699 JUMPI PUSH2 0x100 DUP1 DUP4 SLOAD DIV MUL DUP4 MSTORE SWAP2 PUSH1 0x20 ADD SWAP2 PUSH2 0x16C4 JUMP JUMPDEST DUP3 ADD SWAP2 SWAP1 PUSH1 0x0 MSTORE PUSH1 0x20 PUSH1 0x0 KECCAK256 SWAP1 JUMPDEST DUP2 SLOAD DUP2 MSTORE SWAP1 PUSH1 0x1 ADD SWAP1 PUSH1 0x20 ADD DUP1 DUP4 GT PUSH2 0x16A7 JUMPI DUP3 SWAP1 SUB PUSH1 0x1F AND DUP3 ADD SWAP2 JUMPDEST POP POP POP POP POP DUP2 MSTORE PUSH1 0x20 ADD PUSH1 0x2 DUP3 ADD SLOAD DUP2 MSTORE PUSH1 0x20 ADD PUSH1 0x3 DUP3 ADD SLOAD DUP2 MSTORE PUSH1 0x20 ADD PUSH1 0x4 DUP3 ADD PUSH1 0x0 SWAP1 SLOAD SWAP1 PUSH2 0x100 EXP SWAP1 DIV PUSH1 0xFF AND ISZERO ISZERO ISZERO ISZERO DUP2 MSTORE PUSH1 0x20 ADD PUSH1 0x5 DUP3 ADD SLOAD DUP2 MSTORE PUSH1 0x20 ADD PUSH1 0x6 DUP3 ADD SLOAD DUP2 MSTORE PUSH1 0x20 ADD PUSH1 0x7 DUP3 ADD PUSH1 0x0 SWAP1 SLOAD SWAP1 PUSH2 0x100 EXP SWAP1 DIV PUSH1 0xFF AND PUSH1 0x3 DUP2 GT ISZERO PUSH2 0x1735 JUMPI PUSH2 0x1734 PUSH2 0x1F68 JUMP JUMPDEST JUMPDEST PUSH1 0x3 DUP2 GT ISZERO PUSH2 0x1747 JUMPI PUSH2 0x1746 PUSH2 0x1F68 JUMP JUMPDEST JUMPDEST DUP2 MSTORE POP POP SWAP1 POP PUSH1 0x0 DUP2 PUSH1 0xC0 ADD MLOAD SWAP1 POP PUSH1 0x0 PUSH1 0x5 SLOAD PUSH1 0x64 DUP4 PUSH2 0x1768 SWAP2 SWAP1 PUSH2 0x28DD JUMP JUMPDEST PUSH2 0x1772 SWAP2 SWAP1 PUSH2 0x2C7C JUMP JUMPDEST SWAP1 POP PUSH1 0x0 PUSH1 0x3 DUP2 GT ISZERO PUSH2 0x1788 JUMPI PUSH2 0x1787 PUSH2 0x1F68 JUMP JUMPDEST JUMPDEST DUP4 PUSH1 0xE0 ADD MLOAD PUSH1 0x3 DUP2 GT ISZERO PUSH2 0x179F JUMPI PUSH2 0x179E PUSH2 0x1F68 JUMP JUMPDEST JUMPDEST SUB PUSH2 0x17BA JUMPI PUSH1 0x2 PUSH1 0x5 SLOAD PUSH2 0x17B3 SWAP2 SWAP1 PUSH2 0x2C7C JUMP JUMPDEST SWAP4 POP PUSH2 0x1896 JUMP JUMPDEST PUSH1 0x1 PUSH1 0x3 DUP2 GT ISZERO PUSH2 0x17CE JUMPI PUSH2 0x17CD PUSH2 0x1F68 JUMP JUMPDEST JUMPDEST DUP4 PUSH1 0xE0 ADD MLOAD PUSH1 0x3 DUP2 GT ISZERO PUSH2 0x17E5 JUMPI PUSH2 0x17E4 PUSH2 0x1F68 JUMP JUMPDEST JUMPDEST SUB PUSH2 0x180C JUMPI PUSH1 0x3 PUSH1 0x2 PUSH1 0x5 SLOAD PUSH2 0x17FB SWAP2 SWAP1 PUSH2 0x28DD JUMP JUMPDEST PUSH2 0x1805 SWAP2 SWAP1 PUSH2 0x2C7C JUMP JUMPDEST SWAP4 POP PUSH2 0x1895 JUMP JUMPDEST PUSH1 0x2 PUSH1 0x3 DUP2 GT ISZERO PUSH2 0x1820 JUMPI PUSH2 0x181F PUSH2 0x1F68 JUMP JUMPDEST JUMPDEST DUP4 PUSH1 0xE0 ADD MLOAD PUSH1 0x3 DUP2 GT ISZERO PUSH2 0x1837 JUMPI PUSH2 0x1836 PUSH2 0x1F68 JUMP JUMPDEST JUMPDEST SUB PUSH2 0x185E JUMPI PUSH1 0x4 PUSH1 0x3 PUSH1 0x5 SLOAD PUSH2 0x184D SWAP2 SWAP1 PUSH2 0x28DD JUMP JUMPDEST PUSH2 0x1857 SWAP2 SWAP1 PUSH2 0x2C7C JUMP JUMPDEST SWAP4 POP PUSH2 0x1894 JUMP JUMPDEST PUSH1 0x3 DUP1 DUP2 GT ISZERO PUSH2 0x1871 JUMPI PUSH2 0x1870 PUSH2 0x1F68 JUMP JUMPDEST JUMPDEST DUP4 PUSH1 0xE0 ADD MLOAD PUSH1 0x3 DUP2 GT ISZERO PUSH2 0x1888 JUMPI PUSH2 0x1887 PUSH2 0x1F68 JUMP JUMPDEST JUMPDEST SUB PUSH2 0x1893 JUMPI PUSH1 0x5 SLOAD SWAP4 POP JUMPDEST JUMPDEST JUMPDEST JUMPDEST DUP1 SWAP5 POP POP POP POP SWAP2 POP SWAP2 JUMP JUMPDEST PUSH1 0x7 PUSH1 0x0 SWAP1 SLOAD SWAP1 PUSH2 0x100 EXP SWAP1 DIV PUSH1 0xFF AND DUP2 JUMP JUMPDEST PUSH1 0x2 PUSH1 0x20 MSTORE DUP1 PUSH1 0x0 MSTORE PUSH1 0x40 PUSH1 0x0 KECCAK256 PUSH1 0x0 SWAP2 POP SWAP1 POP DUP1 PUSH1 0x0 ADD PUSH1 0x0 SWAP1 SLOAD SWAP1 PUSH2 0x100 EXP SWAP1 DIV PUSH1 0xFF AND SWAP1 DUP1 PUSH1 0x1 ADD SLOAD SWAP1 DUP1 PUSH1 0x2 ADD SLOAD SWAP1 POP DUP4 JUMP JUMPDEST PUSH1 0x7 PUSH1 0x0 SWAP1 SLOAD SWAP1 PUSH2 0x100 EXP SWAP1 DIV PUSH1 0xFF AND ISZERO PUSH2 0x193B JUMPI PUSH1 0x40 MLOAD PUSH32 0x8C379A000000000000000000000000000000000000000000000000000000000 DUP2 MSTORE PUSH1 0x4 ADD PUSH2 0x1932 SWAP1 PUSH2 0x2D1F JUMP JUMPDEST PUSH1 0x40 MLOAD DUP1 SWAP2 SUB SWAP1 REVERT JUMPDEST DUP1 PUSH1 0x0 DUP1 DUP5 PUSH20 0xFFFFFFFFFFFFFFFFFFFFFFFFFFFFFFFFFFFFFFFF AND PUSH20 0xFFFFFFFFFFFFFFFFFFFFFFFFFFFFFFFFFFFFFFFF AND DUP2 MSTORE PUSH1 0x20 ADD SWAP1 DUP2 MSTORE PUSH1 0x20 ADD PUSH1 0x0 KECCAK256 DUP2 SWAP1 SSTORE POP DUP1 PUSH1 0x5 PUSH1 0x0 DUP3 DUP3 SLOAD PUSH2 0x1990 SWAP2 SWAP1 PUSH2 0x291F JUMP JUMPDEST SWAP3 POP POP DUP2 SWAP1 SSTORE POP POP POP JUMP JUMPDEST PUSH1 0x0 PUSH1 0x5 SLOAD PUSH2 0x2710 PUSH1 0x0 DUP1 CALLER PUSH20 0xFFFFFFFFFFFFFFFFFFFFFFFFFFFFFFFFFFFFFFFF AND PUSH20 0xFFFFFFFFFFFFFFFFFFFFFFFFFFFFFFFFFFFFFFFF AND DUP2 MSTORE PUSH1 0x20 ADD SWAP1 DUP2 MSTORE PUSH1 0x20 ADD PUSH1 0x0 KECCAK256 SLOAD PUSH2 0x19EC SWAP2 SWAP1 PUSH2 0x28DD JUMP JUMPDEST PUSH2 0x19F6 SWAP2 SWAP1 PUSH2 0x2C7C JUMP JUMPDEST SWAP1 POP DUP2 ISZERO PUSH2 0x1A3F JUMPI DUP1 PUSH1 0x6 DUP5 DUP2 SLOAD DUP2 LT PUSH2 0x1A13 JUMPI PUSH2 0x1A12 PUSH2 0x27ED JUMP JUMPDEST JUMPDEST SWAP1 PUSH1 0x0 MSTORE PUSH1 0x20 PUSH1 0x0 KECCAK256 SWAP1 PUSH1 0x8 MUL ADD PUSH1 0x2 ADD PUSH1 0x0 DUP3 DUP3 SLOAD PUSH2 0x1A33 SWAP2 SWAP1 PUSH2 0x291F JUMP JUMPDEST SWAP3 POP POP DUP2 SWAP1 SSTORE POP PUSH2 0x1A7C JUMP JUMPDEST DUP1 PUSH1 0x6 DUP5 DUP2 SLOAD DUP2 LT PUSH2 0x1A54 JUMPI PUSH2 0x1A53 PUSH2 0x27ED JUMP JUMPDEST JUMPDEST SWAP1 PUSH1 0x0 MSTORE PUSH1 0x20 PUSH1 0x0 KECCAK256 SWAP1 PUSH1 0x8 MUL ADD PUSH1 0x3 ADD PUSH1 0x0 DUP3 DUP3 SLOAD PUSH2 0x1A74 SWAP2 SWAP1 PUSH2 0x291F JUMP JUMPDEST SWAP3 POP POP DUP2 SWAP1 SSTORE POP JUMPDEST DUP1 PUSH1 0x6 DUP5 DUP2 SLOAD DUP2 LT PUSH2 0x1A91 JUMPI PUSH2 0x1A90 PUSH2 0x27ED JUMP JUMPDEST JUMPDEST SWAP1 PUSH1 0x0 MSTORE PUSH1 0x20 PUSH1 0x0 KECCAK256 SWAP1 PUSH1 0x8 MUL ADD PUSH1 0x6 ADD PUSH1 0x0 DUP3 DUP3 SLOAD PUSH2 0x1AB1 SWAP2 SWAP1 PUSH2 0x291F JUMP JUMPDEST SWAP3 POP POP DUP2 SWAP1 SSTORE POP PUSH1 0x1 PUSH1 0x0 CALLER PUSH20 0xFFFFFFFFFFFFFFFFFFFFFFFFFFFFFFFFFFFFFFFF AND PUSH20 0xFFFFFFFFFFFFFFFFFFFFFFFFFFFFFFFFFFFFFFFF AND DUP2 MSTORE PUSH1 0x20 ADD SWAP1 DUP2 MSTORE PUSH1 0x20 ADD PUSH1 0x0 KECCAK256 PUSH1 0x40 MLOAD DUP1 PUSH1 0x60 ADD PUSH1 0x40 MSTORE DUP1 DUP6 DUP2 MSTORE PUSH1 0x20 ADD DUP5 ISZERO ISZERO DUP2 MSTORE PUSH1 0x20 ADD DUP4 DUP2 MSTORE POP SWAP1 DUP1 PUSH1 0x1 DUP2 SLOAD ADD DUP1 DUP3 SSTORE DUP1 SWAP2 POP POP PUSH1 0x1 SWAP1 SUB SWAP1 PUSH1 0x0 MSTORE PUSH1 0x20 PUSH1 0x0 KECCAK256 SWAP1 PUSH1 0x3 MUL ADD PUSH1 0x0 SWAP1 SWAP2 SWAP1 SWAP2 SWAP1 SWAP2 POP PUSH1 0x0 DUP3 ADD MLOAD DUP2 PUSH1 0x0 ADD SSTORE PUSH1 0x20 DUP3 ADD MLOAD DUP2 PUSH1 0x1 ADD PUSH1 0x0 PUSH2 0x100 EXP DUP2 SLOAD DUP2 PUSH1 0xFF MUL NOT AND SWAP1 DUP4 ISZERO ISZERO MUL OR SWAP1 SSTORE POP PUSH1 0x40 DUP3 ADD MLOAD DUP2 PUSH1 0x2 ADD SSTORE POP POP PUSH1 0x0 PUSH2 0x1B7E DUP3 PUSH2 0x1DFE JUMP JUMPDEST SWAP1 POP PUSH1 0x9 PUSH1 0x0 SWAP1 SLOAD SWAP1 PUSH2 0x100 EXP SWAP1 DIV PUSH20 0xFFFFFFFFFFFFFFFFFFFFFFFFFFFFFFFFFFFFFFFF AND PUSH20 0xFFFFFFFFFFFFFFFFFFFFFFFFFFFFFFFFFFFFFFFF AND PUSH4 0x40C10F19 CALLER DUP4 PUSH1 0x40 MLOAD DUP4 PUSH4 0xFFFFFFFF AND PUSH1 0xE0 SHL DUP2 MSTORE PUSH1 0x4 ADD PUSH2 0x1BDD SWAP3 SWAP2 SWAP1 PUSH2 0x2D4E JUMP JUMPDEST PUSH1 0x0 PUSH1 0x40 MLOAD DUP1 DUP4 SUB DUP2 PUSH1 0x0 DUP8 DUP1 EXTCODESIZE ISZERO DUP1 ISZERO PUSH2 0x1BF7 JUMPI PUSH1 0x0 DUP1 REVERT JUMPDEST POP GAS CALL ISZERO DUP1 ISZERO PUSH2 0x1C0B JUMPI RETURNDATASIZE PUSH1 0x0 DUP1 RETURNDATACOPY RETURNDATASIZE PUSH1 0x0 REVERT JUMPDEST POP POP POP POP PUSH32 0xB898E75D5AAC8DE2F407E4A683C8D909E832D1E371E3BFF0FA3ED934E88D9562 DUP5 CALLER DUP5 DUP7 PUSH1 0x40 MLOAD PUSH2 0x1C44 SWAP5 SWAP4 SWAP3 SWAP2 SWAP1 PUSH2 0x2D77 JUMP JUMPDEST PUSH1 0x40 MLOAD DUP1 SWAP2 SUB SWAP1 LOG1 PUSH2 0x1C55 DUP5 PUSH2 0x12CA JUMP JUMPDEST ISZERO PUSH2 0x1C64 JUMPI PUSH2 0x1C63 DUP5 PUSH2 0xC02 JUMP JUMPDEST JUMPDEST POP POP POP POP JUMP JUMPDEST PUSH1 0x0 PUSH1 0x20 MSTORE DUP1 PUSH1 0x0 MSTORE PUSH1 0x40 PUSH1 0x0 KECCAK256 PUSH1 0x0 SWAP2 POP SWAP1 POP SLOAD DUP2 JUMP JUMPDEST PUSH1 0x1 PUSH1 0x20 MSTORE DUP2 PUSH1 0x0 MSTORE PUSH1 0x40 PUSH1 0x0 KECCAK256 DUP2 DUP2 SLOAD DUP2 LT PUSH2 0x1C9E JUMPI PUSH1 0x0 DUP1 REVERT JUMPDEST SWAP1 PUSH1 0x0 MSTORE PUSH1 0x20 PUSH1 0x0 KECCAK256 SWAP1 PUSH1 0x3 MUL ADD PUSH1 0x0 SWAP2 POP SWAP2 POP POP DUP1 PUSH1 0x0 ADD SLOAD SWAP1 DUP1 PUSH1 0x1 ADD PUSH1 0x0 SWAP1 SLOAD SWAP1 PUSH2 0x100 EXP SWAP1 DIV PUSH1 0xFF AND SWAP1 DUP1 PUSH1 0x2 ADD SLOAD SWAP1 POP DUP4 JUMP JUMPDEST PUSH1 0x4 SLOAD DUP2 JUMP JUMPDEST DUP1 PUSH1 0x0 DUP1 DUP5 PUSH20 0xFFFFFFFFFFFFFFFFFFFFFFFFFFFFFFFFFFFFFFFF AND PUSH20 0xFFFFFFFFFFFFFFFFFFFFFFFFFFFFFFFFFFFFFFFF AND DUP2 MSTORE PUSH1 0x20 ADD SWAP1 DUP2 MSTORE PUSH1 0x20 ADD PUSH1 0x0 KECCAK256 DUP2 SWAP1 SSTORE POP PUSH32 0xE6382C9ED5C0C33BB05042F73CF6CBE9CB25639F9A711E094EE563BC9CB80E2C DUP3 DUP3 PUSH1 0x40 MLOAD PUSH2 0x1D50 SWAP3 SWAP2 SWAP1 PUSH2 0x2D4E JUMP JUMPDEST PUSH1 0x40 MLOAD DUP1 SWAP2 SUB SWAP1 LOG1 POP POP JUMP JUMPDEST PUSH1 0x0 DUP1 PUSH1 0x0 DUP4 PUSH20 0xFFFFFFFFFFFFFFFFFFFFFFFFFFFFFFFFFFFFFFFF AND PUSH20 0xFFFFFFFFFFFFFFFFFFFFFFFFFFFFFFFFFFFFFFFF AND DUP2 MSTORE PUSH1 0x20 ADD SWAP1 DUP2 MSTORE PUSH1 0x20 ADD PUSH1 0x0 KECCAK256 SLOAD SWAP1 POP SWAP2 SWAP1 POP JUMP JUMPDEST PUSH1 0x9 PUSH1 0x0 SWAP1 SLOAD SWAP1 PUSH2 0x100 EXP SWAP1 DIV PUSH20 0xFFFFFFFFFFFFFFFFFFFFFFFFFFFFFFFFFFFFFFFF AND DUP2 JUMP JUMPDEST PUSH1 0x0 DUP1 PUSH1 0x6 DUP4 DUP2 SLOAD DUP2 LT PUSH2 0x1DE1 JUMPI PUSH2 0x1DE0 PUSH2 0x27ED JUMP JUMPDEST JUMPDEST SWAP1 PUSH1 0x0 MSTORE PUSH1 0x20 PUSH1 0x0 KECCAK256 SWAP1 PUSH1 0x8 MUL ADD PUSH1 0x6 ADD SLOAD SWAP1 POP DUP1 SWAP2 POP POP SWAP2 SWAP1 POP JUMP JUMPDEST PUSH1 0x0 PUSH1 0x64 DUP3 PUSH2 0x1E0D SWAP2 SWAP1 PUSH2 0x2C7C JUMP JUMPDEST SWAP1 POP SWAP2 SWAP1 POP JUMP JUMPDEST PUSH1 0x40 MLOAD DUP1 PUSH1 0x60 ADD PUSH1 0x40 MSTORE DUP1 PUSH1 0x0 ISZERO ISZERO DUP2 MSTORE PUSH1 0x20 ADD PUSH1 0x0 DUP2 MSTORE PUSH1 0x20 ADD PUSH1 0x0 DUP2 MSTORE POP SWAP1 JUMP JUMPDEST PUSH1 0x0 PUSH1 0x40 MLOAD SWAP1 POP SWAP1 JUMP JUMPDEST PUSH1 0x0 DUP1 REVERT JUMPDEST PUSH1 0x0 DUP1 REVERT JUMPDEST PUSH1 0x0 DUP2 SWAP1 POP SWAP2 SWAP1 POP JUMP JUMPDEST PUSH2 0x1E5E DUP2 PUSH2 0x1E4B JUMP JUMPDEST DUP2 EQ PUSH2 0x1E69 JUMPI PUSH1 0x0 DUP1 REVERT JUMPDEST POP JUMP JUMPDEST PUSH1 0x0 DUP2 CALLDATALOAD SWAP1 POP PUSH2 0x1E7B DUP2 PUSH2 0x1E55 JUMP JUMPDEST SWAP3 SWAP2 POP POP JUMP JUMPDEST PUSH1 0x0 PUSH1 0x20 DUP3 DUP5 SUB SLT ISZERO PUSH2 0x1E97 JUMPI PUSH2 0x1E96 PUSH2 0x1E41 JUMP JUMPDEST JUMPDEST PUSH1 0x0 PUSH2 0x1EA5 DUP5 DUP3 DUP6 ADD PUSH2 0x1E6C JUMP JUMPDEST SWAP2 POP POP SWAP3 SWAP2 POP POP JUMP JUMPDEST PUSH1 0x0 DUP2 MLOAD SWAP1 POP SWAP2 SWAP1 POP JUMP JUMPDEST PUSH1 0x0 DUP3 DUP3 MSTORE PUSH1 0x20 DUP3 ADD SWAP1 POP SWAP3 SWAP2 POP POP JUMP JUMPDEST PUSH1 0x0 JUMPDEST DUP4 DUP2 LT ISZERO PUSH2 0x1EE8 JUMPI DUP1 DUP3 ADD MLOAD DUP2 DUP5 ADD MSTORE PUSH1 0x20 DUP2 ADD SWAP1 POP PUSH2 0x1ECD JUMP JUMPDEST PUSH1 0x0 DUP5 DUP5 ADD MSTORE POP POP POP POP JUMP JUMPDEST PUSH1 0x0 PUSH1 0x1F NOT PUSH1 0x1F DUP4 ADD AND SWAP1 POP SWAP2 SWAP1 POP JUMP JUMPDEST PUSH1 0x0 PUSH2 0x1F10 DUP3 PUSH2 0x1EAE JUMP JUMPDEST PUSH2 0x1F1A DUP2 DUP6 PUSH2 0x1EB9 JUMP JUMPDEST SWAP4 POP PUSH2 0x1F2A DUP2 DUP6 PUSH1 0x20 DUP7 ADD PUSH2 0x1ECA JUMP JUMPDEST PUSH2 0x1F33 DUP2 PUSH2 0x1EF4 JUMP JUMPDEST DUP5 ADD SWAP2 POP POP SWAP3 SWAP2 POP POP JUMP JUMPDEST PUSH2 0x1F47 DUP2 PUSH2 0x1E4B JUMP JUMPDEST DUP3 MSTORE POP POP JUMP JUMPDEST PUSH1 0x0 DUP2 ISZERO ISZERO SWAP1 POP SWAP2 SWAP1 POP JUMP JUMPDEST PUSH2 0x1F62 DUP2 PUSH2 0x1F4D JUMP JUMPDEST DUP3 MSTORE POP POP JUMP JUMPDEST PUSH32 0x4E487B7100000000000000000000000000000000000000000000000000000000 PUSH1 0x0 MSTORE PUSH1 0x21 PUSH1 0x4 MSTORE PUSH1 0x24 PUSH1 0x0 REVERT JUMPDEST PUSH1 0x4 DUP2 LT PUSH2 0x1FA8 JUMPI PUSH2 0x1FA7 PUSH2 0x1F68 JUMP JUMPDEST JUMPDEST POP JUMP JUMPDEST PUSH1 0x0 DUP2 SWAP1 POP PUSH2 0x1FB9 DUP3 PUSH2 0x1F97 JUMP JUMPDEST SWAP2 SWAP1 POP JUMP JUMPDEST PUSH1 0x0 PUSH2 0x1FC9 DUP3 PUSH2 0x1FAB JUMP JUMPDEST SWAP1 POP SWAP2 SWAP1 POP JUMP JUMPDEST PUSH2 0x1FD9 DUP2 PUSH2 0x1FBE JUMP JUMPDEST DUP3 MSTORE POP POP JUMP JUMPDEST PUSH1 0x0 PUSH2 0x100 DUP3 ADD SWAP1 POP DUP2 DUP2 SUB PUSH1 0x0 DUP4 ADD MSTORE PUSH2 0x1FFA DUP2 DUP12 PUSH2 0x1F05 JUMP JUMPDEST SWAP1 POP DUP2 DUP2 SUB PUSH1 0x20 DUP4 ADD MSTORE PUSH2 0x200E DUP2 DUP11 PUSH2 0x1F05 JUMP JUMPDEST SWAP1 POP PUSH2 0x201D PUSH1 0x40 DUP4 ADD DUP10 PUSH2 0x1F3E JUMP JUMPDEST PUSH2 0x202A PUSH1 0x60 DUP4 ADD DUP9 PUSH2 0x1F3E JUMP JUMPDEST PUSH2 0x2037 PUSH1 0x80 DUP4 ADD DUP8 PUSH2 0x1F59 JUMP JUMPDEST PUSH2 0x2044 PUSH1 0xA0 DUP4 ADD DUP7 PUSH2 0x1F3E JUMP JUMPDEST PUSH2 0x2051 PUSH1 0xC0 DUP4 ADD DUP6 PUSH2 0x1F3E JUMP JUMPDEST PUSH2 0x205E PUSH1 0xE0 DUP4 ADD DUP5 PUSH2 0x1FD0 JUMP JUMPDEST SWAP10 SWAP9 POP POP POP POP POP POP POP POP POP JUMP JUMPDEST PUSH1 0x0 PUSH20 0xFFFFFFFFFFFFFFFFFFFFFFFFFFFFFFFFFFFFFFFF DUP3 AND SWAP1 POP SWAP2 SWAP1 POP JUMP JUMPDEST PUSH1 0x0 PUSH2 0x2096 DUP3 PUSH2 0x206B JUMP JUMPDEST SWAP1 POP SWAP2 SWAP1 POP JUMP JUMPDEST PUSH2 0x20A6 DUP2 PUSH2 0x208B JUMP JUMPDEST DUP2 EQ PUSH2 0x20B1 JUMPI PUSH1 0x0 DUP1 REVERT JUMPDEST POP JUMP JUMPDEST PUSH1 0x0 DUP2 CALLDATALOAD SWAP1 POP PUSH2 0x20C3 DUP2 PUSH2 0x209D JUMP JUMPDEST SWAP3 SWAP2 POP POP JUMP JUMPDEST PUSH1 0x0 PUSH1 0x20 DUP3 DUP5 SUB SLT ISZERO PUSH2 0x20DF JUMPI PUSH2 0x20DE PUSH2 0x1E41 JUMP JUMPDEST JUMPDEST PUSH1 0x0 PUSH2 0x20ED DUP5 DUP3 DUP6 ADD PUSH2 0x20B4 JUMP JUMPDEST SWAP2 POP POP SWAP3 SWAP2 POP POP JUMP JUMPDEST PUSH1 0x0 PUSH1 0x20 DUP3 ADD SWAP1 POP PUSH2 0x210B PUSH1 0x0 DUP4 ADD DUP5 PUSH2 0x1F3E JUMP JUMPDEST SWAP3 SWAP2 POP POP JUMP JUMPDEST PUSH1 0x0 PUSH1 0x20 DUP3 ADD SWAP1 POP PUSH2 0x2126 PUSH1 0x0 DUP4 ADD DUP5 PUSH2 0x1F59 JUMP JUMPDEST SWAP3 SWAP2 POP POP JUMP JUMPDEST PUSH1 0x0 PUSH1 0xE0 DUP3 ADD SWAP1 POP DUP2 DUP2 SUB PUSH1 0x0 DUP4 ADD MSTORE PUSH2 0x2146 DUP2 DUP11 PUSH2 0x1F05 JUMP JUMPDEST SWAP1 POP DUP2 DUP2 SUB PUSH1 0x20 DUP4 ADD MSTORE PUSH2 0x215A DUP2 DUP10 PUSH2 0x1F05 JUMP JUMPDEST SWAP1 POP PUSH2 0x2169 PUSH1 0x40 DUP4 ADD DUP9 PUSH2 0x1F3E JUMP JUMPDEST PUSH2 0x2176 PUSH1 0x60 DUP4 ADD DUP8 PUSH2 0x1F3E JUMP JUMPDEST PUSH2 0x2183 PUSH1 0x80 DUP4 ADD DUP7 PUSH2 0x1F59 JUMP JUMPDEST PUSH2 0x2190 PUSH1 0xA0 DUP4 ADD DUP6 PUSH2 0x1F3E JUMP JUMPDEST PUSH2 0x219D PUSH1 0xC0 DUP4 ADD DUP5 PUSH2 0x1F3E JUMP JUMPDEST SWAP9 SWAP8 POP POP POP POP POP POP POP POP JUMP JUMPDEST PUSH2 0x21B2 DUP2 PUSH2 0x1F4D JUMP JUMPDEST DUP3 MSTORE POP POP JUMP JUMPDEST PUSH2 0x21C1 DUP2 PUSH2 0x1E4B JUMP JUMPDEST DUP3 MSTORE POP POP JUMP JUMPDEST PUSH1 0x60 DUP3 ADD PUSH1 0x0 DUP3 ADD MLOAD PUSH2 0x21DD PUSH1 0x0 DUP6 ADD DUP3 PUSH2 0x21A9 JUMP JUMPDEST POP PUSH1 0x20 DUP3 ADD MLOAD PUSH2 0x21F0 PUSH1 0x20 DUP6 ADD DUP3 PUSH2 0x21B8 JUMP JUMPDEST POP PUSH1 0x40 DUP3 ADD MLOAD PUSH2 0x2203 PUSH1 0x40 DUP6 ADD DUP3 PUSH2 0x21B8 JUMP JUMPDEST POP POP POP POP JUMP JUMPDEST PUSH1 0x0 PUSH1 0x60 DUP3 ADD SWAP1 POP PUSH2 0x221E PUSH1 0x0 DUP4 ADD DUP5 PUSH2 0x21C7 JUMP JUMPDEST SWAP3 SWAP2 POP POP JUMP JUMPDEST PUSH1 0x0 DUP1 REVERT JUMPDEST PUSH1 0x0 DUP1 REVERT JUMPDEST PUSH32 0x4E487B7100000000000000000000000000000000000000000000000000000000 PUSH1 0x0 MSTORE PUSH1 0x41 PUSH1 0x4 MSTORE PUSH1 0x24 PUSH1 0x0 REVERT JUMPDEST PUSH2 0x2266 DUP3 PUSH2 0x1EF4 JUMP JUMPDEST DUP2 ADD DUP2 DUP2 LT PUSH8 0xFFFFFFFFFFFFFFFF DUP3 GT OR ISZERO PUSH2 0x2285 JUMPI PUSH2 0x2284 PUSH2 0x222E JUMP JUMPDEST JUMPDEST DUP1 PUSH1 0x40 MSTORE POP POP POP JUMP JUMPDEST PUSH1 0x0 PUSH2 0x2298 PUSH2 0x1E37 JUMP JUMPDEST SWAP1 POP PUSH2 0x22A4 DUP3 DUP3 PUSH2 0x225D JUMP JUMPDEST SWAP2 SWAP1 POP JUMP JUMPDEST PUSH1 0x0 PUSH8 0xFFFFFFFFFFFFFFFF DUP3 GT ISZERO PUSH2 0x22C4 JUMPI PUSH2 0x22C3 PUSH2 0x222E JUMP JUMPDEST JUMPDEST PUSH2 0x22CD DUP3 PUSH2 0x1EF4 JUMP JUMPDEST SWAP1 POP PUSH1 0x20 DUP2 ADD SWAP1 POP SWAP2 SWAP1 POP JUMP JUMPDEST DUP3 DUP2 DUP4 CALLDATACOPY PUSH1 0x0 DUP4 DUP4 ADD MSTORE POP POP POP JUMP JUMPDEST PUSH1 0x0 PUSH2 0x22FC PUSH2 0x22F7 DUP5 PUSH2 0x22A9 JUMP JUMPDEST PUSH2 0x228E JUMP JUMPDEST SWAP1 POP DUP3 DUP2 MSTORE PUSH1 0x20 DUP2 ADD DUP5 DUP5 DUP5 ADD GT ISZERO PUSH2 0x2318 JUMPI PUSH2 0x2317 PUSH2 0x2229 JUMP JUMPDEST JUMPDEST PUSH2 0x2323 DUP5 DUP3 DUP6 PUSH2 0x22DA JUMP JUMPDEST POP SWAP4 SWAP3 POP POP POP JUMP JUMPDEST PUSH1 0x0 DUP3 PUSH1 0x1F DUP4 ADD SLT PUSH2 0x2340 JUMPI PUSH2 0x233F PUSH2 0x2224 JUMP JUMPDEST JUMPDEST DUP2 CALLDATALOAD PUSH2 0x2350 DUP5 DUP3 PUSH1 0x20 DUP7 ADD PUSH2 0x22E9 JUMP JUMPDEST SWAP2 POP POP SWAP3 SWAP2 POP POP JUMP JUMPDEST PUSH1 0x4 DUP2 LT PUSH2 0x2366 JUMPI PUSH1 0x0 DUP1 REVERT JUMPDEST POP JUMP JUMPDEST PUSH1 0x0 DUP2 CALLDATALOAD SWAP1 POP PUSH2 0x2378 DUP2 PUSH2 0x2359 JUMP JUMPDEST SWAP3 SWAP2 POP POP JUMP JUMPDEST PUSH1 0x0 DUP1 PUSH1 0x0 DUP1 PUSH1 0x80 DUP6 DUP8 SUB SLT ISZERO PUSH2 0x2398 JUMPI PUSH2 0x2397 PUSH2 0x1E41 JUMP JUMPDEST JUMPDEST PUSH1 0x0 DUP6 ADD CALLDATALOAD PUSH8 0xFFFFFFFFFFFFFFFF DUP2 GT ISZERO PUSH2 0x23B6 JUMPI PUSH2 0x23B5 PUSH2 0x1E46 JUMP JUMPDEST JUMPDEST PUSH2 0x23C2 DUP8 DUP3 DUP9 ADD PUSH2 0x232B JUMP JUMPDEST SWAP5 POP POP PUSH1 0x20 DUP6 ADD CALLDATALOAD PUSH8 0xFFFFFFFFFFFFFFFF DUP2 GT ISZERO PUSH2 0x23E3 JUMPI PUSH2 0x23E2 PUSH2 0x1E46 JUMP JUMPDEST JUMPDEST PUSH2 0x23EF DUP8 DUP3 DUP9 ADD PUSH2 0x232B JUMP JUMPDEST SWAP4 POP POP PUSH1 0x40 PUSH2 0x2400 DUP8 DUP3 DUP9 ADD PUSH2 0x1E6C JUMP JUMPDEST SWAP3 POP POP PUSH1 0x60 PUSH2 0x2411 DUP8 DUP3 DUP9 ADD PUSH2 0x2369 JUMP JUMPDEST SWAP2 POP POP SWAP3 SWAP6 SWAP2 SWAP5 POP SWAP3 POP JUMP JUMPDEST PUSH1 0x0 DUP2 MLOAD SWAP1 POP SWAP2 SWAP1 POP JUMP JUMPDEST PUSH1 0x0 DUP3 DUP3 MSTORE PUSH1 0x20 DUP3 ADD SWAP1 POP SWAP3 SWAP2 POP POP JUMP JUMPDEST PUSH1 0x0 DUP2 SWAP1 POP PUSH1 0x20 DUP3 ADD SWAP1 POP SWAP2 SWAP1 POP JUMP JUMPDEST PUSH1 0x60 DUP3 ADD PUSH1 0x0 DUP3 ADD MLOAD PUSH2 0x245F PUSH1 0x0 DUP6 ADD DUP3 PUSH2 0x21B8 JUMP JUMPDEST POP PUSH1 0x20 DUP3 ADD MLOAD PUSH2 0x2472 PUSH1 0x20 DUP6 ADD DUP3 PUSH2 0x21A9 JUMP JUMPDEST POP PUSH1 0x40 DUP3 ADD MLOAD PUSH2 0x2485 PUSH1 0x40 DUP6 ADD DUP3 PUSH2 0x21B8 JUMP JUMPDEST POP POP POP POP JUMP JUMPDEST PUSH1 0x0 PUSH2 0x2497 DUP4 DUP4 PUSH2 0x2449 JUMP JUMPDEST PUSH1 0x60 DUP4 ADD SWAP1 POP SWAP3 SWAP2 POP POP JUMP JUMPDEST PUSH1 0x0 PUSH1 0x20 DUP3 ADD SWAP1 POP SWAP2 SWAP1 POP JUMP JUMPDEST PUSH1 0x0 PUSH2 0x24BB DUP3 PUSH2 0x241D JUMP JUMPDEST PUSH2 0x24C5 DUP2 DUP6 PUSH2 0x2428 JUMP JUMPDEST SWAP4 POP PUSH2 0x24D0 DUP4 PUSH2 0x2439 JUMP JUMPDEST DUP1 PUSH1 0x0 JUMPDEST DUP4 DUP2 LT ISZERO PUSH2 0x2501 JUMPI DUP2 MLOAD PUSH2 0x24E8 DUP9 DUP3 PUSH2 0x248B JUMP JUMPDEST SWAP8 POP PUSH2 0x24F3 DUP4 PUSH2 0x24A3 JUMP JUMPDEST SWAP3 POP POP PUSH1 0x1 DUP2 ADD SWAP1 POP PUSH2 0x24D4 JUMP JUMPDEST POP DUP6 SWAP4 POP POP POP POP SWAP3 SWAP2 POP POP JUMP JUMPDEST PUSH1 0x0 PUSH1 0x40 DUP3 ADD SWAP1 POP PUSH2 0x2523 PUSH1 0x0 DUP4 ADD DUP6 PUSH2 0x1F3E JUMP JUMPDEST DUP2 DUP2 SUB PUSH1 0x20 DUP4 ADD MSTORE PUSH2 0x2535 DUP2 DUP5 PUSH2 0x24B0 JUMP JUMPDEST SWAP1 POP SWAP4 SWAP3 POP POP POP JUMP JUMPDEST PUSH1 0x0 PUSH1 0x40 DUP3 ADD SWAP1 POP PUSH2 0x2553 PUSH1 0x0 DUP4 ADD DUP6 PUSH2 0x1F3E JUMP JUMPDEST PUSH2 0x2560 PUSH1 0x20 DUP4 ADD DUP5 PUSH2 0x1F3E JUMP JUMPDEST SWAP4 SWAP3 POP POP POP JUMP JUMPDEST PUSH1 0x0 PUSH1 0x60 DUP3 ADD SWAP1 POP PUSH2 0x257C PUSH1 0x0 DUP4 ADD DUP7 PUSH2 0x1F59 JUMP JUMPDEST PUSH2 0x2589 PUSH1 0x20 DUP4 ADD DUP6 PUSH2 0x1F3E JUMP JUMPDEST PUSH2 0x2596 PUSH1 0x40 DUP4 ADD DUP5 PUSH2 0x1F3E JUMP JUMPDEST SWAP5 SWAP4 POP POP POP POP JUMP JUMPDEST PUSH1 0x0 DUP1 PUSH1 0x40 DUP4 DUP6 SUB SLT ISZERO PUSH2 0x25B5 JUMPI PUSH2 0x25B4 PUSH2 0x1E41 JUMP JUMPDEST JUMPDEST PUSH1 0x0 PUSH2 0x25C3 DUP6 DUP3 DUP7 ADD PUSH2 0x20B4 JUMP JUMPDEST SWAP3 POP POP PUSH1 0x20 PUSH2 0x25D4 DUP6 DUP3 DUP7 ADD PUSH2 0x1E6C JUMP JUMPDEST SWAP2 POP POP SWAP3 POP SWAP3 SWAP1 POP JUMP JUMPDEST PUSH2 0x25E7 DUP2 PUSH2 0x1F4D JUMP JUMPDEST DUP2 EQ PUSH2 0x25F2 JUMPI PUSH1 0x0 DUP1 REVERT JUMPDEST POP JUMP JUMPDEST PUSH1 0x0 DUP2 CALLDATALOAD SWAP1 POP PUSH2 0x2604 DUP2 PUSH2 0x25DE JUMP JUMPDEST SWAP3 SWAP2 POP POP JUMP JUMPDEST PUSH1 0x0 DUP1 PUSH1 0x40 DUP4 DUP6 SUB SLT ISZERO PUSH2 0x2621 JUMPI PUSH2 0x2620 PUSH2 0x1E41 JUMP JUMPDEST JUMPDEST PUSH1 0x0 PUSH2 0x262F DUP6 DUP3 DUP7 ADD PUSH2 0x1E6C JUMP JUMPDEST SWAP3 POP POP PUSH1 0x20 PUSH2 0x2640 DUP6 DUP3 DUP7 ADD PUSH2 0x25F5 JUMP JUMPDEST SWAP2 POP POP SWAP3 POP SWAP3 SWAP1 POP JUMP JUMPDEST PUSH1 0x0 PUSH1 0x60 DUP3 ADD SWAP1 POP PUSH2 0x265F PUSH1 0x0 DUP4 ADD DUP7 PUSH2 0x1F3E JUMP JUMPDEST PUSH2 0x266C PUSH1 0x20 DUP4 ADD DUP6 PUSH2 0x1F59 JUMP JUMPDEST PUSH2 0x2679 PUSH1 0x40 DUP4 ADD DUP5 PUSH2 0x1F3E JUMP JUMPDEST SWAP5 SWAP4 POP POP POP POP JUMP JUMPDEST PUSH1 0x0 DUP2 SWAP1 POP SWAP2 SWAP1 POP JUMP JUMPDEST PUSH1 0x0 PUSH2 0x26A6 PUSH2 0x26A1 PUSH2 0x269C DUP5 PUSH2 0x206B JUMP JUMPDEST PUSH2 0x2681 JUMP JUMPDEST PUSH2 0x206B JUMP JUMPDEST SWAP1 POP SWAP2 SWAP1 POP JUMP JUMPDEST PUSH1 0x0 PUSH2 0x26B8 DUP3 PUSH2 0x268B JUMP JUMPDEST SWAP1 POP SWAP2 SWAP1 POP JUMP JUMPDEST PUSH1 0x0 PUSH2 0x26CA DUP3 PUSH2 0x26AD JUMP JUMPDEST SWAP1 POP SWAP2 SWAP1 POP JUMP JUMPDEST PUSH2 0x26DA DUP2 PUSH2 0x26BF JUMP JUMPDEST DUP3 MSTORE POP POP JUMP JUMPDEST PUSH1 0x0 PUSH1 0x20 DUP3 ADD SWAP1 POP PUSH2 0x26F5 PUSH1 0x0 DUP4 ADD DUP5 PUSH2 0x26D1 JUMP JUMPDEST SWAP3 SWAP2 POP POP JUMP JUMPDEST PUSH32 0x4E487B7100000000000000000000000000000000000000000000000000000000 PUSH1 0x0 MSTORE PUSH1 0x22 PUSH1 0x4 MSTORE PUSH1 0x24 PUSH1 0x0 REVERT JUMPDEST PUSH1 0x0 PUSH1 0x2 DUP3 DIV SWAP1 POP PUSH1 0x1 DUP3 AND DUP1 PUSH2 0x2742 JUMPI PUSH1 0x7F DUP3 AND SWAP2 POP JUMPDEST PUSH1 0x20 DUP3 LT DUP2 SUB PUSH2 0x2755 JUMPI PUSH2 0x2754 PUSH2 0x26FB JUMP JUMPDEST JUMPDEST POP SWAP2 SWAP1 POP JUMP JUMPDEST PUSH32 0x4F6E6C792061646D696E732063616E20706572666F726D207468697320616374 PUSH1 0x0 DUP3 ADD MSTORE PUSH32 0x696F6E0000000000000000000000000000000000000000000000000000000000 PUSH1 0x20 DUP3 ADD MSTORE POP JUMP JUMPDEST PUSH1 0x0 PUSH2 0x27B7 PUSH1 0x23 DUP4 PUSH2 0x1EB9 JUMP JUMPDEST SWAP2 POP PUSH2 0x27C2 DUP3 PUSH2 0x275B JUMP JUMPDEST PUSH1 0x40 DUP3 ADD SWAP1 POP SWAP2 SWAP1 POP JUMP JUMPDEST PUSH1 0x0 PUSH1 0x20 DUP3 ADD SWAP1 POP DUP2 DUP2 SUB PUSH1 0x0 DUP4 ADD MSTORE PUSH2 0x27E6 DUP2 PUSH2 0x27AA JUMP JUMPDEST SWAP1 POP SWAP2 SWAP1 POP JUMP JUMPDEST PUSH32 0x4E487B7100000000000000000000000000000000000000000000000000000000 PUSH1 0x0 MSTORE PUSH1 0x32 PUSH1 0x4 MSTORE PUSH1 0x24 PUSH1 0x0 REVERT JUMPDEST PUSH32 0x45544820726571756972656420666F72206372656174696E672070726F706F73 PUSH1 0x0 DUP3 ADD MSTORE PUSH32 0x616C000000000000000000000000000000000000000000000000000000000000 PUSH1 0x20 DUP3 ADD MSTORE POP JUMP JUMPDEST PUSH1 0x0 PUSH2 0x2878 PUSH1 0x22 DUP4 PUSH2 0x1EB9 JUMP JUMPDEST SWAP2 POP PUSH2 0x2883 DUP3 PUSH2 0x281C JUMP JUMPDEST PUSH1 0x40 DUP3 ADD SWAP1 POP SWAP2 SWAP1 POP JUMP JUMPDEST PUSH1 0x0 PUSH1 0x20 DUP3 ADD SWAP1 POP DUP2 DUP2 SUB PUSH1 0x0 DUP4 ADD MSTORE PUSH2 0x28A7 DUP2 PUSH2 0x286B JUMP JUMPDEST SWAP1 POP SWAP2 SWAP1 POP JUMP JUMPDEST PUSH32 0x4E487B7100000000000000000000000000000000000000000000000000000000 PUSH1 0x0 MSTORE PUSH1 0x11 PUSH1 0x4 MSTORE PUSH1 0x24 PUSH1 0x0 REVERT JUMPDEST PUSH1 0x0 PUSH2 0x28E8 DUP3 PUSH2 0x1E4B JUMP JUMPDEST SWAP2 POP PUSH2 0x28F3 DUP4 PUSH2 0x1E4B JUMP JUMPDEST SWAP3 POP DUP3 DUP3 MUL PUSH2 0x2901 DUP2 PUSH2 0x1E4B JUMP JUMPDEST SWAP2 POP DUP3 DUP3 DIV DUP5 EQ DUP4 ISZERO OR PUSH2 0x2918 JUMPI PUSH2 0x2917 PUSH2 0x28AE JUMP JUMPDEST JUMPDEST POP SWAP3 SWAP2 POP POP JUMP JUMPDEST PUSH1 0x0 PUSH2 0x292A DUP3 PUSH2 0x1E4B JUMP JUMPDEST SWAP2 POP PUSH2 0x2935 DUP4 PUSH2 0x1E4B JUMP JUMPDEST SWAP3 POP DUP3 DUP3 ADD SWAP1 POP DUP1 DUP3 GT ISZERO PUSH2 0x294D JUMPI PUSH2 0x294C PUSH2 0x28AE JUMP JUMPDEST JUMPDEST SWAP3 SWAP2 POP POP JUMP JUMPDEST PUSH1 0x0 DUP2 SWAP1 POP DUP2 PUSH1 0x0 MSTORE PUSH1 0x20 PUSH1 0x0 KECCAK256 SWAP1 POP SWAP2 SWAP1 POP JUMP JUMPDEST PUSH1 0x0 PUSH1 0x20 PUSH1 0x1F DUP4 ADD DIV SWAP1 POP SWAP2 SWAP1 POP JUMP JUMPDEST PUSH1 0x0 DUP3 DUP3 SHL SWAP1 POP SWAP3 SWAP2 POP POP JUMP JUMPDEST PUSH1 0x0 PUSH1 0x8 DUP4 MUL PUSH2 0x29B5 PUSH32 0xFFFFFFFFFFFFFFFFFFFFFFFFFFFFFFFFFFFFFFFFFFFFFFFFFFFFFFFFFFFFFFFF DUP3 PUSH2 0x2978 JUMP JUMPDEST PUSH2 0x29BF DUP7 DUP4 PUSH2 0x2978 JUMP JUMPDEST SWAP6 POP DUP1 NOT DUP5 AND SWAP4 POP DUP1 DUP7 AND DUP5 OR SWAP3 POP POP POP SWAP4 SWAP3 POP POP POP JUMP JUMPDEST PUSH1 0x0 PUSH2 0x29F2 PUSH2 0x29ED PUSH2 0x29E8 DUP5 PUSH2 0x1E4B JUMP JUMPDEST PUSH2 0x2681 JUMP JUMPDEST PUSH2 0x1E4B JUMP JUMPDEST SWAP1 POP SWAP2 SWAP1 POP JUMP JUMPDEST PUSH1 0x0 DUP2 SWAP1 POP SWAP2 SWAP1 POP JUMP JUMPDEST PUSH2 0x2A0C DUP4 PUSH2 0x29D7 JUMP JUMPDEST PUSH2 0x2A20 PUSH2 0x2A18 DUP3 PUSH2 0x29F9 JUMP JUMPDEST DUP5 DUP5 SLOAD PUSH2 0x2985 JUMP JUMPDEST DUP3 SSTORE POP POP POP POP JUMP JUMPDEST PUSH1 0x0 SWAP1 JUMP JUMPDEST PUSH2 0x2A35 PUSH2 0x2A28 JUMP JUMPDEST PUSH2 0x2A40 DUP2 DUP5 DUP5 PUSH2 0x2A03 JUMP JUMPDEST POP POP POP JUMP JUMPDEST JUMPDEST DUP2 DUP2 LT ISZERO PUSH2 0x2A64 JUMPI PUSH2 0x2A59 PUSH1 0x0 DUP3 PUSH2 0x2A2D JUMP JUMPDEST PUSH1 0x1 DUP2 ADD SWAP1 POP PUSH2 0x2A46 JUMP JUMPDEST POP POP JUMP JUMPDEST PUSH1 0x1F DUP3 GT ISZERO PUSH2 0x2AA9 JUMPI PUSH2 0x2A7A DUP2 PUSH2 0x2953 JUMP JUMPDEST PUSH2 0x2A83 DUP5 PUSH2 0x2968 JUMP JUMPDEST DUP2 ADD PUSH1 0x20 DUP6 LT ISZERO PUSH2 0x2A92 JUMPI DUP2 SWAP1 POP JUMPDEST PUSH2 0x2AA6 PUSH2 0x2A9E DUP6 PUSH2 0x2968 JUMP JUMPDEST DUP4 ADD DUP3 PUSH2 0x2A45 JUMP JUMPDEST POP POP JUMPDEST POP POP POP JUMP JUMPDEST PUSH1 0x0 DUP3 DUP3 SHR SWAP1 POP SWAP3 SWAP2 POP POP JUMP JUMPDEST PUSH1 0x0 PUSH2 0x2ACC PUSH1 0x0 NOT DUP5 PUSH1 0x8 MUL PUSH2 0x2AAE JUMP JUMPDEST NOT DUP1 DUP4 AND SWAP2 POP POP SWAP3 SWAP2 POP POP JUMP JUMPDEST PUSH1 0x0 PUSH2 0x2AE5 DUP4 DUP4 PUSH2 0x2ABB JUMP JUMPDEST SWAP2 POP DUP3 PUSH1 0x2 MUL DUP3 OR SWAP1 POP SWAP3 SWAP2 POP POP JUMP JUMPDEST PUSH2 0x2AFE DUP3 PUSH2 0x1EAE JUMP JUMPDEST PUSH8 0xFFFFFFFFFFFFFFFF DUP2 GT ISZERO PUSH2 0x2B17 JUMPI PUSH2 0x2B16 PUSH2 0x222E JUMP JUMPDEST JUMPDEST PUSH2 0x2B21 DUP3 SLOAD PUSH2 0x272A JUMP JUMPDEST PUSH2 0x2B2C DUP3 DUP3 DUP6 PUSH2 0x2A68 JUMP JUMPDEST PUSH1 0x0 PUSH1 0x20 SWAP1 POP PUSH1 0x1F DUP4 GT PUSH1 0x1 DUP2 EQ PUSH2 0x2B5F JUMPI PUSH1 0x0 DUP5 ISZERO PUSH2 0x2B4D JUMPI DUP3 DUP8 ADD MLOAD SWAP1 POP JUMPDEST PUSH2 0x2B57 DUP6 DUP3 PUSH2 0x2AD9 JUMP JUMPDEST DUP7 SSTORE POP PUSH2 0x2BBF JUMP JUMPDEST PUSH1 0x1F NOT DUP5 AND PUSH2 0x2B6D DUP7 PUSH2 0x2953 JUMP JUMPDEST PUSH1 0x0 JUMPDEST DUP3 DUP2 LT ISZERO PUSH2 0x2B95 JUMPI DUP5 DUP10 ADD MLOAD DUP3 SSTORE PUSH1 0x1 DUP3 ADD SWAP2 POP PUSH1 0x20 DUP6 ADD SWAP5 POP PUSH1 0x20 DUP2 ADD SWAP1 POP PUSH2 0x2B70 JUMP JUMPDEST DUP7 DUP4 LT ISZERO PUSH2 0x2BB2 JUMPI DUP5 DUP10 ADD MLOAD PUSH2 0x2BAE PUSH1 0x1F DUP10 AND DUP3 PUSH2 0x2ABB JUMP JUMPDEST DUP4 SSTORE POP JUMPDEST PUSH1 0x1 PUSH1 0x2 DUP9 MUL ADD DUP9 SSTORE POP POP POP JUMPDEST POP POP POP POP POP POP JUMP JUMPDEST PUSH1 0x0 PUSH1 0x60 DUP3 ADD SWAP1 POP PUSH2 0x2BDC PUSH1 0x0 DUP4 ADD DUP7 PUSH2 0x1F3E JUMP JUMPDEST DUP2 DUP2 SUB PUSH1 0x20 DUP4 ADD MSTORE PUSH2 0x2BEE DUP2 DUP6 PUSH2 0x1F05 JUMP JUMPDEST SWAP1 POP PUSH2 0x2BFD PUSH1 0x40 DUP4 ADD DUP5 PUSH2 0x1F3E JUMP JUMPDEST SWAP5 SWAP4 POP POP POP POP JUMP JUMPDEST PUSH1 0x0 PUSH2 0x2C10 DUP3 PUSH2 0x1E4B JUMP JUMPDEST SWAP2 POP PUSH32 0xFFFFFFFFFFFFFFFFFFFFFFFFFFFFFFFFFFFFFFFFFFFFFFFFFFFFFFFFFFFFFFFF DUP3 SUB PUSH2 0x2C42 JUMPI PUSH2 0x2C41 PUSH2 0x28AE JUMP JUMPDEST JUMPDEST PUSH1 0x1 DUP3 ADD SWAP1 POP SWAP2 SWAP1 POP JUMP JUMPDEST PUSH32 0x4E487B7100000000000000000000000000000000000000000000000000000000 PUSH1 0x0 MSTORE PUSH1 0x12 PUSH1 0x4 MSTORE PUSH1 0x24 PUSH1 0x0 REVERT JUMPDEST PUSH1 0x0 PUSH2 0x2C87 DUP3 PUSH2 0x1E4B JUMP JUMPDEST SWAP2 POP PUSH2 0x2C92 DUP4 PUSH2 0x1E4B JUMP JUMPDEST SWAP3 POP DUP3 PUSH2 0x2CA2 JUMPI PUSH2 0x2CA1 PUSH2 0x2C4D JUMP JUMPDEST JUMPDEST DUP3 DUP3 DIV SWAP1 POP SWAP3 SWAP2 POP POP JUMP JUMPDEST PUSH32 0x4865792069747320616E2061637469766520766F74696E6720706572696F642C PUSH1 0x0 DUP3 ADD MSTORE PUSH32 0x20796F752063616E6E6F7420766F7465206E6F772E0000000000000000000000 PUSH1 0x20 DUP3 ADD MSTORE POP JUMP JUMPDEST PUSH1 0x0 PUSH2 0x2D09 PUSH1 0x35 DUP4 PUSH2 0x1EB9 JUMP JUMPDEST SWAP2 POP PUSH2 0x2D14 DUP3 PUSH2 0x2CAD JUMP JUMPDEST PUSH1 0x40 DUP3 ADD SWAP1 POP SWAP2 SWAP1 POP JUMP JUMPDEST PUSH1 0x0 PUSH1 0x20 DUP3 ADD SWAP1 POP DUP2 DUP2 SUB PUSH1 0x0 DUP4 ADD MSTORE PUSH2 0x2D38 DUP2 PUSH2 0x2CFC JUMP JUMPDEST SWAP1 POP SWAP2 SWAP1 POP JUMP JUMPDEST PUSH2 0x2D48 DUP2 PUSH2 0x208B JUMP JUMPDEST DUP3 MSTORE POP POP JUMP JUMPDEST PUSH1 0x0 PUSH1 0x40 DUP3 ADD SWAP1 POP PUSH2 0x2D63 PUSH1 0x0 DUP4 ADD DUP6 PUSH2 0x2D3F JUMP JUMPDEST PUSH2 0x2D70 PUSH1 0x20 DUP4 ADD DUP5 PUSH2 0x1F3E JUMP JUMPDEST SWAP4 SWAP3 POP POP POP JUMP JUMPDEST PUSH1 0x0 PUSH1 0x80 DUP3 ADD SWAP1 POP PUSH2 0x2D8C PUSH1 0x0 DUP4 ADD DUP8 PUSH2 0x1F3E JUMP JUMPDEST PUSH2 0x2D99 PUSH1 0x20 DUP4 ADD DUP7 PUSH2 0x2D3F JUMP JUMPDEST PUSH2 0x2DA6 PUSH1 0x40 DUP4 ADD DUP6 PUSH2 0x1F3E JUMP JUMPDEST PUSH2 0x2DB3 PUSH1 0x60 DUP4 ADD DUP5 PUSH2 0x1F59 JUMP JUMPDEST SWAP6 SWAP5 POP POP POP POP POP JUMP INVALID LOG2 PUSH5 0x6970667358 0x22 SLT KECCAK256 DUP14 DUP2 SWAP2 CREATE2 PREVRANDAO PUSH31 0x6BC2B033F09AB848B9C2427A1AB78A4BE2158FCF29A6639C22EC64736F6C63 NUMBER STOP ADDMOD BYTE STOP CALLER "},"methodIdentifiers":{"addAdmin(address)":"70480275","admins(address)":"429b62e5","createProposal(string,string,uint256,uint8)":"70f6e05d","endVoting(uint256)":"649f89a5","getProposalOutcome(uint256)":"6fdb6f7c","getProposals(uint256)":"2c72fdfc","getProposalsCount()":"98e527d3","getShares(address)":"f04da65b","getTotalSharesVoted(uint256)":"fcf0c6ca","getUserProfile(address)":"987ee156","getVotingProgress(uint256)":"9baf1c97","governanceToken()":"f96dae0a","hasMetQuorum(uint256)":"7a7c153b","isAdmin(address)":"24d7806c","isVotingPeriodActive()":"9fcc5ce4","proposalCount()":"da35c664","proposalOutcomes(uint256)":"a9c0310d","proposals(uint256)":"013cf08b","registerShareholder(address,uint256)":"afafa0cf","removeAdmin(address)":"1785f53c","shares(address)":"ce7c2ac2","totalShares()":"3a98ef39","updateShares(address,uint256)":"e5d0821f","vote(uint256,bool)":"c9d27afe","votingEndTime()":"1ea736e0","votingHistory(address,uint256)":"d09c34f2"}}}}}