{"contracts/smartContract.sol":{"VotingContract":{"abi":[{"inputs":[{"internalType":"address","name":"_tokenAddress","type":"address"}],"stateMutability":"nonpayable","type":"constructor"},{"anonymous":false,"inputs":[{"indexed":false,"internalType":"uint256","name":"proposalId","type":"uint256"},{"indexed":false,"internalType":"string","name":"description","type":"string"},{"indexed":false,"internalType":"uint256","name":"votingEndTime","type":"uint256"}],"name":"ProposalCreated","type":"event"},{"anonymous":false,"inputs":[{"indexed":false,"internalType":"address","name":"voter","type":"address"},{"indexed":false,"internalType":"uint256","name":"rewardAmount","type":"uint256"}],"name":"RewardIssued","type":"event"},{"anonymous":false,"inputs":[{"indexed":false,"internalType":"address","name":"voter","type":"address"},{"indexed":false,"internalType":"uint256","name":"newShares","type":"uint256"}],"name":"SharesUpdated","type":"event"},{"anonymous":false,"inputs":[{"indexed":false,"internalType":"uint256","name":"proposalId","type":"uint256"},{"indexed":false,"internalType":"address","name":"voter","type":"address"},{"indexed":false,"internalType":"uint256","name":"weight","type":"uint256"},{"indexed":false,"internalType":"bool","name":"voteFor","type":"bool"}],"name":"VoteCast","type":"event"},{"inputs":[{"internalType":"string","name":"title","type":"string"},{"internalType":"string","name":"description","type":"string"},{"internalType":"uint256","name":"durationInMinutes","type":"uint256"},{"internalType":"enum VotingContract.QuorumType","name":"quorumType","type":"uint8"}],"name":"createProposal","outputs":[],"stateMutability":"payable","type":"function"},{"inputs":[{"internalType":"uint256","name":"proposalId","type":"uint256"}],"name":"endVoting","outputs":[],"stateMutability":"nonpayable","type":"function"},{"inputs":[{"internalType":"uint256","name":"proposalId","type":"uint256"}],"name":"getProposalOutcome","outputs":[{"components":[{"internalType":"bool","name":"passed","type":"bool"},{"internalType":"uint256","name":"votesFor","type":"uint256"},{"internalType":"uint256","name":"votesAgainst","type":"uint256"}],"internalType":"struct VotingContract.ProposalOutcome","name":"","type":"tuple"}],"stateMutability":"view","type":"function"},{"inputs":[{"internalType":"uint256","name":"startIndex","type":"uint256"},{"internalType":"uint256","name":"endIndex","type":"uint256"}],"name":"getProposals","outputs":[{"components":[{"internalType":"string","name":"title","type":"string"},{"internalType":"string","name":"description","type":"string"},{"internalType":"uint256","name":"votesFor","type":"uint256"},{"internalType":"uint256","name":"votesAgainst","type":"uint256"},{"internalType":"bool","name":"active","type":"bool"},{"internalType":"uint256","name":"votingEndTime","type":"uint256"},{"internalType":"uint256","name":"totalVotesCast","type":"uint256"},{"internalType":"enum VotingContract.QuorumType","name":"quorumType","type":"uint8"}],"internalType":"struct VotingContract.Proposal[]","name":"","type":"tuple[]"}],"stateMutability":"view","type":"function"},{"inputs":[],"name":"getProposalsCount","outputs":[{"internalType":"uint256","name":"","type":"uint256"}],"stateMutability":"view","type":"function"},{"inputs":[{"internalType":"uint256","name":"proposalId","type":"uint256"}],"name":"getVotingProgress","outputs":[{"internalType":"uint256","name":"progress","type":"uint256"},{"internalType":"uint256","name":"requiredQuorum","type":"uint256"}],"stateMutability":"view","type":"function"},{"inputs":[],"name":"governanceToken","outputs":[{"internalType":"contract GovernanceToken","name":"","type":"address"}],"stateMutability":"view","type":"function"},{"inputs":[{"internalType":"uint256","name":"proposalId","type":"uint256"}],"name":"hasMetQuorum","outputs":[{"internalType":"bool","name":"","type":"bool"}],"stateMutability":"view","type":"function"},{"inputs":[],"name":"isVotingPeriodActive","outputs":[{"internalType":"bool","name":"","type":"bool"}],"stateMutability":"view","type":"function"},{"inputs":[],"name":"proposalCount","outputs":[{"internalType":"uint256","name":"","type":"uint256"}],"stateMutability":"view","type":"function"},{"inputs":[{"internalType":"uint256","name":"","type":"uint256"}],"name":"proposalOutcomes","outputs":[{"internalType":"bool","name":"passed","type":"bool"},{"internalType":"uint256","name":"votesFor","type":"uint256"},{"internalType":"uint256","name":"votesAgainst","type":"uint256"}],"stateMutability":"view","type":"function"},{"inputs":[{"internalType":"uint256","name":"","type":"uint256"}],"name":"proposals","outputs":[{"internalType":"string","name":"title","type":"string"},{"internalType":"string","name":"description","type":"string"},{"internalType":"uint256","name":"votesFor","type":"uint256"},{"internalType":"uint256","name":"votesAgainst","type":"uint256"},{"internalType":"bool","name":"active","type":"bool"},{"internalType":"uint256","name":"votingEndTime","type":"uint256"},{"internalType":"uint256","name":"totalVotesCast","type":"uint256"},{"internalType":"enum VotingContract.QuorumType","name":"quorumType","type":"uint8"}],"stateMutability":"view","type":"function"},{"inputs":[{"internalType":"address","name":"voter","type":"address"},{"internalType":"uint256","name":"shareCount","type":"uint256"}],"name":"registerShareholder","outputs":[],"stateMutability":"nonpayable","type":"function"},{"inputs":[{"internalType":"address","name":"","type":"address"}],"name":"shares","outputs":[{"internalType":"uint256","name":"","type":"uint256"}],"stateMutability":"view","type":"function"},{"inputs":[],"name":"totalShares","outputs":[{"internalType":"uint256","name":"","type":"uint256"}],"stateMutability":"view","type":"function"},{"inputs":[{"internalType":"address","name":"voter","type":"address"},{"internalType":"uint256","name":"newShares","type":"uint256"}],"name":"updateShares","outputs":[],"stateMutability":"nonpayable","type":"function"},{"inputs":[{"internalType":"uint256","name":"proposalId","type":"uint256"},{"internalType":"bool","name":"voteFor","type":"bool"}],"name":"vote","outputs":[],"stateMutability":"nonpayable","type":"function"},{"inputs":[],"name":"votingEndTime","outputs":[{"internalType":"uint256","name":"","type":"uint256"}],"stateMutability":"view","type":"function"},{"inputs":[{"internalType":"address","name":"","type":"address"},{"internalType":"uint256","name":"","type":"uint256"}],"name":"votingHistory","outputs":[{"internalType":"uint256","name":"proposalId","type":"uint256"},{"internalType":"bool","name":"votedFor","type":"bool"},{"internalType":"uint256","name":"voteWeight","type":"uint256"}],"stateMutability":"view","type":"function"}],"evm":{"bytecode":{"linkReferences":{},"object":"608060405234801561001057600080fd5b50604051612aa1380380612aa1833981810160405281019061003291906100dc565b80600860006101000a81548173ffffffffffffffffffffffffffffffffffffffff021916908373ffffffffffffffffffffffffffffffffffffffff16021790555050610109565b600080fd5b600073ffffffffffffffffffffffffffffffffffffffff82169050919050565b60006100a98261007e565b9050919050565b6100b98161009e565b81146100c457600080fd5b50565b6000815190506100d6816100b0565b92915050565b6000602082840312156100f2576100f1610079565b5b6000610100848285016100c7565b91505092915050565b612989806101186000396000f3fe6080604052600436106101145760003560e01c80639baf1c97116100a0578063ce7c2ac211610064578063ce7c2ac2146103d4578063d09c34f214610411578063da35c66414610450578063e5d0821f1461047b578063f96dae0a146104a457610114565b80639baf1c97146102da5780639fcc5ce414610318578063a9c0310d14610343578063afafa0cf14610382578063c9d27afe146103ab57610114565b8063649f89a5116100e7578063649f89a5146101f05780636fdb6f7c1461021957806370f6e05d146102565780637a7c153b1461027257806398e527d3146102af57610114565b8063013cf08b146101195780631ea736e01461015d5780633a98ef39146101885780635e3b4365146101b3575b600080fd5b34801561012557600080fd5b50610140600480360381019061013b9190611876565b6104cf565b6040516101549897969594939291906119d4565b60405180910390f35b34801561016957600080fd5b50610172610641565b60405161017f9190611a60565b60405180910390f35b34801561019457600080fd5b5061019d610647565b6040516101aa9190611a60565b60405180910390f35b3480156101bf57600080fd5b506101da60048036038101906101d59190611a7b565b61064d565b6040516101e79190611cab565b60405180910390f35b3480156101fc57600080fd5b5061021760048036038101906102129190611876565b610990565b005b34801561022557600080fd5b50610240600480360381019061023b9190611876565b610be6565b60405161024d9190611d0f565b60405180910390f35b610270600480360381019061026b9190611e84565b610c42565b005b34801561027e57600080fd5b5061029960048036038101906102949190611876565b610e40565b6040516102a69190611f23565b60405180910390f35b3480156102bb57600080fd5b506102c4610fc0565b6040516102d19190611a60565b60405180910390f35b3480156102e657600080fd5b5061030160048036038101906102fc9190611876565b610fca565b60405161030f929190611f3e565b60405180910390f35b34801561032457600080fd5b5061032d6112e6565b60405161033a9190611f23565b60405180910390f35b34801561034f57600080fd5b5061036a60048036038101906103659190611876565b6112f9565b60405161037993929190611f67565b60405180910390f35b34801561038e57600080fd5b506103a960048036038101906103a49190611ffc565b611330565b005b3480156103b757600080fd5b506103d260048036038101906103cd9190612068565b6113e0565b005b3480156103e057600080fd5b506103fb60048036038101906103f691906120a8565b611682565b6040516104089190611a60565b60405180910390f35b34801561041d57600080fd5b5061043860048036038101906104339190611ffc565b61169a565b604051610447939291906120d5565b60405180910390f35b34801561045c57600080fd5b506104656116ee565b6040516104729190611a60565b60405180910390f35b34801561048757600080fd5b506104a2600480360381019061049d9190611ffc565b6116f4565b005b3480156104b057600080fd5b506104b9611774565b6040516104c6919061216b565b60405180910390f35b60016020528060005260406000206000915090508060000180546104f2906121b5565b80601f016020809104026020016040519081016040528092919081815260200182805461051e906121b5565b801561056b5780601f106105405761010080835404028352916020019161056b565b820191906000526020600020905b81548152906001019060200180831161054e57829003601f168201915b505050505090806001018054610580906121b5565b80601f01602080910402602001604051908101604052809291908181526020018280546105ac906121b5565b80156105f95780601f106105ce576101008083540402835291602001916105f9565b820191906000526020600020905b8154815290600101906020018083116105dc57829003601f168201915b5050505050908060020154908060030154908060040160009054906101000a900460ff16908060050154908060060154908060070160009054906101000a900460ff16905088565b60075481565b60055481565b60606004548310610693576040517f08c379a000000000000000000000000000000000000000000000000000000000815260040161068a90612232565b60405180910390fd5b6004548211156106d8576040517f08c379a00000000000000000000000000000000000000000000000000000000081526004016106cf9061229e565b60405180910390fd5b81831061071a576040517f08c379a000000000000000000000000000000000000000000000000000000000815260040161071190612330565b60405180910390fd5b60008383610728919061237f565b905060008167ffffffffffffffff81111561074657610745611d34565b5b60405190808252806020026020018201604052801561077f57816020015b61076c6117b0565b8152602001906001900390816107645790505b50905060005b828110156109845760016000828861079d91906123b3565b8152602001908152602001600020604051806101000160405290816000820180546107c7906121b5565b80601f01602080910402602001604051908101604052809291908181526020018280546107f3906121b5565b80156108405780601f1061081557610100808354040283529160200191610840565b820191906000526020600020905b81548152906001019060200180831161082357829003601f168201915b50505050508152602001600182018054610859906121b5565b80601f0160208091040260200160405190810160405280929190818152602001828054610885906121b5565b80156108d25780601f106108a7576101008083540402835291602001916108d2565b820191906000526020600020905b8154815290600101906020018083116108b557829003601f168201915b5050505050815260200160028201548152602001600382015481526020016004820160009054906101000a900460ff1615151515815260200160058201548152602001600682015481526020016007820160009054906101000a900460ff1660038111156109435761094261195d565b5b60038111156109555761095461195d565b5b8152505082828151811061096c5761096b6123e7565b5b60200260200101819052508080600101915050610785565b50809250505092915050565b60006001600083815260200190815260200160002060040160006101000a81548160ff0219169083151502179055506000805b600454811015610a0c576001600082815260200190815260200160002060040160009054906101000a900460ff16156109ff5760019150610a0c565b80806001019150506109c3565b50600060016000848152602001908152602001600020600301546001600085815260200190815260200160002060020154119050604051806060016040528082151581526020016001600086815260200190815260200160002060020154815260200160016000868152602001908152602001600020600301548152506003600085815260200190815260200160002060008201518160000160006101000a81548160ff0219169083151502179055506020820151816001015560408201518160020155905050600160008481526020019081526020016000206005015442118015610afe5750610afc83610e40565b155b15610bc75760006001600085815260200190815260200160002060040160006101000a81548160ff02191690831515021790555060405180606001604052806000151581526020016001600086815260200190815260200160002060020154815260200160016000868152602001908152602001600020600301548152506003600085815260200190815260200160002060008201518160000160006101000a81548160ff02191690831515021790555060208201518160010155604082015181600201559050505b81600660006101000a81548160ff021916908315150217905550505050565b610bee611809565b600360008381526020019081526020016000206040518060600160405290816000820160009054906101000a900460ff16151515158152602001600182015481526020016002820154815250509050919050565b60003411610c85576040517f08c379a0000000000000000000000000000000000000000000000000000000008152600401610c7c90612488565b60405180910390fd5b6040518061010001604052808581526020018481526020016000815260200160008152602001600115158152602001603c84610cc191906124a8565b42610ccc91906123b3565b815260200160008152602001826003811115610ceb57610cea61195d565b5b8152506001600060045481526020019081526020016000206000820151816000019081610d18919061268c565b506020820151816001019081610d2e919061268c565b50604082015181600201556060820151816003015560808201518160040160006101000a81548160ff02191690831515021790555060a0820151816005015560c0820151816006015560e08201518160070160006101000a81548160ff02191690836003811115610da257610da161195d565b5b02179055509050506001600660006101000a81548160ff021916908315150217905550603c82610dd291906124a8565b42610ddd91906123b3565b6007819055507ff5dc0da9afa6d080780a49fd8c680f03d2ddf3c067cd6d0c85360c096644d2d360045484600754604051610e1a9392919061275e565b60405180910390a160046000815480929190610e359061279c565b919050555050505050565b6000806001600084815260200190815260200160002090506000806003811115610e6d57610e6c61195d565b5b8260070160009054906101000a900460ff166003811115610e9157610e9061195d565b5b03610eac576002600554610ea59190612813565b9050610faf565b60016003811115610ec057610ebf61195d565b5b8260070160009054906101000a900460ff166003811115610ee457610ee361195d565b5b03610f0b5760036002600554610efa91906124a8565b610f049190612813565b9050610fae565b60026003811115610f1f57610f1e61195d565b5b8260070160009054906101000a900460ff166003811115610f4357610f4261195d565b5b03610f6a5760046003600554610f5991906124a8565b610f639190612813565b9050610fad565b600380811115610f7d57610f7c61195d565b5b8260070160009054906101000a900460ff166003811115610fa157610fa061195d565b5b03610fac5760055490505b5b5b5b808260020154101592505050919050565b6000600454905090565b60008060006001600085815260200190815260200160002060405180610100016040529081600082018054610ffe906121b5565b80601f016020809104026020016040519081016040528092919081815260200182805461102a906121b5565b80156110775780601f1061104c57610100808354040283529160200191611077565b820191906000526020600020905b81548152906001019060200180831161105a57829003601f168201915b50505050508152602001600182018054611090906121b5565b80601f01602080910402602001604051908101604052809291908181526020018280546110bc906121b5565b80156111095780601f106110de57610100808354040283529160200191611109565b820191906000526020600020905b8154815290600101906020018083116110ec57829003601f168201915b5050505050815260200160028201548152602001600382015481526020016004820160009054906101000a900460ff1615151515815260200160058201548152602001600682015481526020016007820160009054906101000a900460ff16600381111561117a5761117961195d565b5b600381111561118c5761118b61195d565b5b81525050905060008160c00151905060006005546064836111ad91906124a8565b6111b79190612813565b9050600060038111156111cd576111cc61195d565b5b8360e0015160038111156111e4576111e361195d565b5b036111ff5760026005546111f89190612813565b93506112db565b600160038111156112135761121261195d565b5b8360e00151600381111561122a5761122961195d565b5b03611251576003600260055461124091906124a8565b61124a9190612813565b93506112da565b600260038111156112655761126461195d565b5b8360e00151600381111561127c5761127b61195d565b5b036112a3576004600360055461129291906124a8565b61129c9190612813565b93506112d9565b6003808111156112b6576112b561195d565b5b8360e0015160038111156112cd576112cc61195d565b5b036112d85760055493505b5b5b5b809450505050915091565b600660009054906101000a900460ff1681565b60036020528060005260406000206000915090508060000160009054906101000a900460ff16908060010154908060020154905083565b600660009054906101000a900460ff1615611380576040517f08c379a0000000000000000000000000000000000000000000000000000000008152600401611377906128b6565b60405180910390fd5b806000808473ffffffffffffffffffffffffffffffffffffffff1673ffffffffffffffffffffffffffffffffffffffff1681526020019081526020016000208190555080600560008282546113d591906123b3565b925050819055505050565b60006005546127106000803373ffffffffffffffffffffffffffffffffffffffff1673ffffffffffffffffffffffffffffffffffffffff1681526020019081526020016000205461143191906124a8565b61143b9190612813565b90508115611475578060016000858152602001908152602001600020600201600082825461146991906123b3565b925050819055506114a3565b8060016000858152602001908152602001600020600301600082825461149b91906123b3565b925050819055505b806001600085815260200190815260200160002060060160008282546114c991906123b3565b92505081905550600260003373ffffffffffffffffffffffffffffffffffffffff1673ffffffffffffffffffffffffffffffffffffffff168152602001908152602001600020604051806060016040528085815260200184151581526020018381525090806001815401808255809150506001900390600052602060002090600302016000909190919091506000820151816000015560208201518160010160006101000a81548160ff02191690831515021790555060408201518160020155505060006115968261179a565b9050600860009054906101000a900473ffffffffffffffffffffffffffffffffffffffff1673ffffffffffffffffffffffffffffffffffffffff166340c10f1933836040518363ffffffff1660e01b81526004016115f59291906128e5565b600060405180830381600087803b15801561160f57600080fd5b505af1158015611623573d6000803e3d6000fd5b505050507fb898e75d5aac8de2f407e4a683c8d909e832d1e371e3bff0fa3ed934e88d95628433848660405161165c949392919061290e565b60405180910390a161166d84610e40565b1561167c5761167b84610990565b5b50505050565b60006020528060005260406000206000915090505481565b600260205281600052604060002081815481106116b657600080fd5b9060005260206000209060030201600091509150508060000154908060010160009054906101000a900460ff16908060020154905083565b60045481565b806000808473ffffffffffffffffffffffffffffffffffffffff1673ffffffffffffffffffffffffffffffffffffffff168152602001908152602001600020819055507fe6382c9ed5c0c33bb05042f73cf6cbe9cb25639f9a711e094ee563bc9cb80e2c82826040516117689291906128e5565b60405180910390a15050565b600860009054906101000a900473ffffffffffffffffffffffffffffffffffffffff1681565b60006064826117a99190612813565b9050919050565b604051806101000160405280606081526020016060815260200160008152602001600081526020016000151581526020016000815260200160008152602001600060038111156118035761180261195d565b5b81525090565b604051806060016040528060001515815260200160008152602001600081525090565b6000604051905090565b600080fd5b600080fd5b6000819050919050565b61185381611840565b811461185e57600080fd5b50565b6000813590506118708161184a565b92915050565b60006020828403121561188c5761188b611836565b5b600061189a84828501611861565b91505092915050565b600081519050919050565b600082825260208201905092915050565b60005b838110156118dd5780820151818401526020810190506118c2565b60008484015250505050565b6000601f19601f8301169050919050565b6000611905826118a3565b61190f81856118ae565b935061191f8185602086016118bf565b611928816118e9565b840191505092915050565b61193c81611840565b82525050565b60008115159050919050565b61195781611942565b82525050565b7f4e487b7100000000000000000000000000000000000000000000000000000000600052602160045260246000fd5b6004811061199d5761199c61195d565b5b50565b60008190506119ae8261198c565b919050565b60006119be826119a0565b9050919050565b6119ce816119b3565b82525050565b60006101008201905081810360008301526119ef818b6118fa565b90508181036020830152611a03818a6118fa565b9050611a126040830189611933565b611a1f6060830188611933565b611a2c608083018761194e565b611a3960a0830186611933565b611a4660c0830185611933565b611a5360e08301846119c5565b9998505050505050505050565b6000602082019050611a756000830184611933565b92915050565b60008060408385031215611a9257611a91611836565b5b6000611aa085828601611861565b9250506020611ab185828601611861565b9150509250929050565b600081519050919050565b600082825260208201905092915050565b6000819050602082019050919050565b600082825260208201905092915050565b6000611b03826118a3565b611b0d8185611ae7565b9350611b1d8185602086016118bf565b611b26816118e9565b840191505092915050565b611b3a81611840565b82525050565b611b4981611942565b82525050565b611b58816119b3565b82525050565b6000610100830160008301518482036000860152611b7c8282611af8565b91505060208301518482036020860152611b968282611af8565b9150506040830151611bab6040860182611b31565b506060830151611bbe6060860182611b31565b506080830151611bd16080860182611b40565b5060a0830151611be460a0860182611b31565b5060c0830151611bf760c0860182611b31565b5060e0830151611c0a60e0860182611b4f565b508091505092915050565b6000611c218383611b5e565b905092915050565b6000602082019050919050565b6000611c4182611abb565b611c4b8185611ac6565b935083602082028501611c5d85611ad7565b8060005b85811015611c995784840389528151611c7a8582611c15565b9450611c8583611c29565b925060208a01995050600181019050611c61565b50829750879550505050505092915050565b60006020820190508181036000830152611cc58184611c36565b905092915050565b606082016000820151611ce36000850182611b40565b506020820151611cf66020850182611b31565b506040820151611d096040850182611b31565b50505050565b6000606082019050611d246000830184611ccd565b92915050565b600080fd5b600080fd5b7f4e487b7100000000000000000000000000000000000000000000000000000000600052604160045260246000fd5b611d6c826118e9565b810181811067ffffffffffffffff82111715611d8b57611d8a611d34565b5b80604052505050565b6000611d9e61182c565b9050611daa8282611d63565b919050565b600067ffffffffffffffff821115611dca57611dc9611d34565b5b611dd3826118e9565b9050602081019050919050565b82818337600083830152505050565b6000611e02611dfd84611daf565b611d94565b905082815260208101848484011115611e1e57611e1d611d2f565b5b611e29848285611de0565b509392505050565b600082601f830112611e4657611e45611d2a565b5b8135611e56848260208601611def565b91505092915050565b60048110611e6c57600080fd5b50565b600081359050611e7e81611e5f565b92915050565b60008060008060808587031215611e9e57611e9d611836565b5b600085013567ffffffffffffffff811115611ebc57611ebb61183b565b5b611ec887828801611e31565b945050602085013567ffffffffffffffff811115611ee957611ee861183b565b5b611ef587828801611e31565b9350506040611f0687828801611861565b9250506060611f1787828801611e6f565b91505092959194509250565b6000602082019050611f38600083018461194e565b92915050565b6000604082019050611f536000830185611933565b611f606020830184611933565b9392505050565b6000606082019050611f7c600083018661194e565b611f896020830185611933565b611f966040830184611933565b949350505050565b600073ffffffffffffffffffffffffffffffffffffffff82169050919050565b6000611fc982611f9e565b9050919050565b611fd981611fbe565b8114611fe457600080fd5b50565b600081359050611ff681611fd0565b92915050565b6000806040838503121561201357612012611836565b5b600061202185828601611fe7565b925050602061203285828601611861565b9150509250929050565b61204581611942565b811461205057600080fd5b50565b6000813590506120628161203c565b92915050565b6000806040838503121561207f5761207e611836565b5b600061208d85828601611861565b925050602061209e85828601612053565b9150509250929050565b6000602082840312156120be576120bd611836565b5b60006120cc84828501611fe7565b91505092915050565b60006060820190506120ea6000830186611933565b6120f7602083018561194e565b6121046040830184611933565b949350505050565b6000819050919050565b600061213161212c61212784611f9e565b61210c565b611f9e565b9050919050565b600061214382612116565b9050919050565b600061215582612138565b9050919050565b6121658161214a565b82525050565b6000602082019050612180600083018461215c565b92915050565b7f4e487b7100000000000000000000000000000000000000000000000000000000600052602260045260246000fd5b600060028204905060018216806121cd57607f821691505b6020821081036121e0576121df612186565b5b50919050565b7f537461727420696e646578206973206f7574206f6620626f756e647300000000600082015250565b600061221c601c836118ae565b9150612227826121e6565b602082019050919050565b6000602082019050818103600083015261224b8161220f565b9050919050565b7f456e6420696e646578206973206f7574206f6620626f756e6473000000000000600082015250565b6000612288601a836118ae565b915061229382612252565b602082019050919050565b600060208201905081810360008301526122b78161227b565b9050919050565b7f537461727420696e646578206d757374206265206c657373207468616e20656e60008201527f6420696e64657800000000000000000000000000000000000000000000000000602082015250565b600061231a6027836118ae565b9150612325826122be565b604082019050919050565b600060208201905081810360008301526123498161230d565b9050919050565b7f4e487b7100000000000000000000000000000000000000000000000000000000600052601160045260246000fd5b600061238a82611840565b915061239583611840565b92508282039050818111156123ad576123ac612350565b5b92915050565b60006123be82611840565b91506123c983611840565b92508282019050808211156123e1576123e0612350565b5b92915050565b7f4e487b7100000000000000000000000000000000000000000000000000000000600052603260045260246000fd5b7f45544820726571756972656420666f72206372656174696e672070726f706f7360008201527f616c000000000000000000000000000000000000000000000000000000000000602082015250565b60006124726022836118ae565b915061247d82612416565b604082019050919050565b600060208201905081810360008301526124a181612465565b9050919050565b60006124b382611840565b91506124be83611840565b92508282026124cc81611840565b915082820484148315176124e3576124e2612350565b5b5092915050565b60008190508160005260206000209050919050565b60006020601f8301049050919050565b600082821b905092915050565b60006008830261254c7fffffffffffffffffffffffffffffffffffffffffffffffffffffffffffffffff8261250f565b612556868361250f565b95508019841693508086168417925050509392505050565b600061258961258461257f84611840565b61210c565b611840565b9050919050565b6000819050919050565b6125a38361256e565b6125b76125af82612590565b84845461251c565b825550505050565b600090565b6125cc6125bf565b6125d781848461259a565b505050565b5b818110156125fb576125f06000826125c4565b6001810190506125dd565b5050565b601f82111561264057612611816124ea565b61261a846124ff565b81016020851015612629578190505b61263d612635856124ff565b8301826125dc565b50505b505050565b600082821c905092915050565b600061266360001984600802612645565b1980831691505092915050565b600061267c8383612652565b9150826002028217905092915050565b612695826118a3565b67ffffffffffffffff8111156126ae576126ad611d34565b5b6126b882546121b5565b6126c38282856125ff565b600060209050601f8311600181146126f657600084156126e4578287015190505b6126ee8582612670565b865550612756565b601f198416612704866124ea565b60005b8281101561272c57848901518255600182019150602085019450602081019050612707565b868310156127495784890151612745601f891682612652565b8355505b6001600288020188555050505b505050505050565b60006060820190506127736000830186611933565b818103602083015261278581856118fa565b90506127946040830184611933565b949350505050565b60006127a782611840565b91507fffffffffffffffffffffffffffffffffffffffffffffffffffffffffffffffff82036127d9576127d8612350565b5b600182019050919050565b7f4e487b7100000000000000000000000000000000000000000000000000000000600052601260045260246000fd5b600061281e82611840565b915061282983611840565b925082612839576128386127e4565b5b828204905092915050565b7f4865792069747320616e2061637469766520766f74696e6720706572696f642c60008201527f20796f752063616e6e6f7420766f7465206e6f772e0000000000000000000000602082015250565b60006128a06035836118ae565b91506128ab82612844565b604082019050919050565b600060208201905081810360008301526128cf81612893565b9050919050565b6128df81611fbe565b82525050565b60006040820190506128fa60008301856128d6565b6129076020830184611933565b9392505050565b60006080820190506129236000830187611933565b61293060208301866128d6565b61293d6040830185611933565b61294a606083018461194e565b9594505050505056fea2646970667358221220201f31d0c01e4cd4e083aea9f38508eb8ac2203b5af377eed99bb05d174dc49e64736f6c634300081a0033","opcodes":"PUSH1 0x80 PUSH1 0x40 MSTORE CALLVALUE DUP1 ISZERO PUSH2 0x10 JUMPI PUSH1 0x0 DUP1 REVERT JUMPDEST POP PUSH1 0x40 MLOAD PUSH2 0x2AA1 CODESIZE SUB DUP1 PUSH2 0x2AA1 DUP4 CODECOPY DUP2 DUP2 ADD PUSH1 0x40 MSTORE DUP2 ADD SWAP1 PUSH2 0x32 SWAP2 SWAP1 PUSH2 0xDC JUMP JUMPDEST DUP1 PUSH1 0x8 PUSH1 0x0 PUSH2 0x100 EXP DUP2 SLOAD DUP2 PUSH20 0xFFFFFFFFFFFFFFFFFFFFFFFFFFFFFFFFFFFFFFFF MUL NOT AND SWAP1 DUP4 PUSH20 0xFFFFFFFFFFFFFFFFFFFFFFFFFFFFFFFFFFFFFFFF AND MUL OR SWAP1 SSTORE POP POP PUSH2 0x109 JUMP JUMPDEST PUSH1 0x0 DUP1 REVERT JUMPDEST PUSH1 0x0 PUSH20 0xFFFFFFFFFFFFFFFFFFFFFFFFFFFFFFFFFFFFFFFF DUP3 AND SWAP1 POP SWAP2 SWAP1 POP JUMP JUMPDEST PUSH1 0x0 PUSH2 0xA9 DUP3 PUSH2 0x7E JUMP JUMPDEST SWAP1 POP SWAP2 SWAP1 POP JUMP JUMPDEST PUSH2 0xB9 DUP2 PUSH2 0x9E JUMP JUMPDEST DUP2 EQ PUSH2 0xC4 JUMPI PUSH1 0x0 DUP1 REVERT JUMPDEST POP JUMP JUMPDEST PUSH1 0x0 DUP2 MLOAD SWAP1 POP PUSH2 0xD6 DUP2 PUSH2 0xB0 JUMP JUMPDEST SWAP3 SWAP2 POP POP JUMP JUMPDEST PUSH1 0x0 PUSH1 0x20 DUP3 DUP5 SUB SLT ISZERO PUSH2 0xF2 JUMPI PUSH2 0xF1 PUSH2 0x79 JUMP JUMPDEST JUMPDEST PUSH1 0x0 PUSH2 0x100 DUP5 DUP3 DUP6 ADD PUSH2 0xC7 JUMP JUMPDEST SWAP2 POP POP SWAP3 SWAP2 POP POP JUMP JUMPDEST PUSH2 0x2989 DUP1 PUSH2 0x118 PUSH1 0x0 CODECOPY PUSH1 0x0 RETURN INVALID PUSH1 0x80 PUSH1 0x40 MSTORE PUSH1 0x4 CALLDATASIZE LT PUSH2 0x114 JUMPI PUSH1 0x0 CALLDATALOAD PUSH1 0xE0 SHR DUP1 PUSH4 0x9BAF1C97 GT PUSH2 0xA0 JUMPI DUP1 PUSH4 0xCE7C2AC2 GT PUSH2 0x64 JUMPI DUP1 PUSH4 0xCE7C2AC2 EQ PUSH2 0x3D4 JUMPI DUP1 PUSH4 0xD09C34F2 EQ PUSH2 0x411 JUMPI DUP1 PUSH4 0xDA35C664 EQ PUSH2 0x450 JUMPI DUP1 PUSH4 0xE5D0821F EQ PUSH2 0x47B JUMPI DUP1 PUSH4 0xF96DAE0A EQ PUSH2 0x4A4 JUMPI PUSH2 0x114 JUMP JUMPDEST DUP1 PUSH4 0x9BAF1C97 EQ PUSH2 0x2DA JUMPI DUP1 PUSH4 0x9FCC5CE4 EQ PUSH2 0x318 JUMPI DUP1 PUSH4 0xA9C0310D EQ PUSH2 0x343 JUMPI DUP1 PUSH4 0xAFAFA0CF EQ PUSH2 0x382 JUMPI DUP1 PUSH4 0xC9D27AFE EQ PUSH2 0x3AB JUMPI PUSH2 0x114 JUMP JUMPDEST DUP1 PUSH4 0x649F89A5 GT PUSH2 0xE7 JUMPI DUP1 PUSH4 0x649F89A5 EQ PUSH2 0x1F0 JUMPI DUP1 PUSH4 0x6FDB6F7C EQ PUSH2 0x219 JUMPI DUP1 PUSH4 0x70F6E05D EQ PUSH2 0x256 JUMPI DUP1 PUSH4 0x7A7C153B EQ PUSH2 0x272 JUMPI DUP1 PUSH4 0x98E527D3 EQ PUSH2 0x2AF JUMPI PUSH2 0x114 JUMP JUMPDEST DUP1 PUSH4 0x13CF08B EQ PUSH2 0x119 JUMPI DUP1 PUSH4 0x1EA736E0 EQ PUSH2 0x15D JUMPI DUP1 PUSH4 0x3A98EF39 EQ PUSH2 0x188 JUMPI DUP1 PUSH4 0x5E3B4365 EQ PUSH2 0x1B3 JUMPI JUMPDEST PUSH1 0x0 DUP1 REVERT JUMPDEST CALLVALUE DUP1 ISZERO PUSH2 0x125 JUMPI PUSH1 0x0 DUP1 REVERT JUMPDEST POP PUSH2 0x140 PUSH1 0x4 DUP1 CALLDATASIZE SUB DUP2 ADD SWAP1 PUSH2 0x13B SWAP2 SWAP1 PUSH2 0x1876 JUMP JUMPDEST PUSH2 0x4CF JUMP JUMPDEST PUSH1 0x40 MLOAD PUSH2 0x154 SWAP9 SWAP8 SWAP7 SWAP6 SWAP5 SWAP4 SWAP3 SWAP2 SWAP1 PUSH2 0x19D4 JUMP JUMPDEST PUSH1 0x40 MLOAD DUP1 SWAP2 SUB SWAP1 RETURN JUMPDEST CALLVALUE DUP1 ISZERO PUSH2 0x169 JUMPI PUSH1 0x0 DUP1 REVERT JUMPDEST POP PUSH2 0x172 PUSH2 0x641 JUMP JUMPDEST PUSH1 0x40 MLOAD PUSH2 0x17F SWAP2 SWAP1 PUSH2 0x1A60 JUMP JUMPDEST PUSH1 0x40 MLOAD DUP1 SWAP2 SUB SWAP1 RETURN JUMPDEST CALLVALUE DUP1 ISZERO PUSH2 0x194 JUMPI PUSH1 0x0 DUP1 REVERT JUMPDEST POP PUSH2 0x19D PUSH2 0x647 JUMP JUMPDEST PUSH1 0x40 MLOAD PUSH2 0x1AA SWAP2 SWAP1 PUSH2 0x1A60 JUMP JUMPDEST PUSH1 0x40 MLOAD DUP1 SWAP2 SUB SWAP1 RETURN JUMPDEST CALLVALUE DUP1 ISZERO PUSH2 0x1BF JUMPI PUSH1 0x0 DUP1 REVERT JUMPDEST POP PUSH2 0x1DA PUSH1 0x4 DUP1 CALLDATASIZE SUB DUP2 ADD SWAP1 PUSH2 0x1D5 SWAP2 SWAP1 PUSH2 0x1A7B JUMP JUMPDEST PUSH2 0x64D JUMP JUMPDEST PUSH1 0x40 MLOAD PUSH2 0x1E7 SWAP2 SWAP1 PUSH2 0x1CAB JUMP JUMPDEST PUSH1 0x40 MLOAD DUP1 SWAP2 SUB SWAP1 RETURN JUMPDEST CALLVALUE DUP1 ISZERO PUSH2 0x1FC JUMPI PUSH1 0x0 DUP1 REVERT JUMPDEST POP PUSH2 0x217 PUSH1 0x4 DUP1 CALLDATASIZE SUB DUP2 ADD SWAP1 PUSH2 0x212 SWAP2 SWAP1 PUSH2 0x1876 JUMP JUMPDEST PUSH2 0x990 JUMP JUMPDEST STOP JUMPDEST CALLVALUE DUP1 ISZERO PUSH2 0x225 JUMPI PUSH1 0x0 DUP1 REVERT JUMPDEST POP PUSH2 0x240 PUSH1 0x4 DUP1 CALLDATASIZE SUB DUP2 ADD SWAP1 PUSH2 0x23B SWAP2 SWAP1 PUSH2 0x1876 JUMP JUMPDEST PUSH2 0xBE6 JUMP JUMPDEST PUSH1 0x40 MLOAD PUSH2 0x24D SWAP2 SWAP1 PUSH2 0x1D0F JUMP JUMPDEST PUSH1 0x40 MLOAD DUP1 SWAP2 SUB SWAP1 RETURN JUMPDEST PUSH2 0x270 PUSH1 0x4 DUP1 CALLDATASIZE SUB DUP2 ADD SWAP1 PUSH2 0x26B SWAP2 SWAP1 PUSH2 0x1E84 JUMP JUMPDEST PUSH2 0xC42 JUMP JUMPDEST STOP JUMPDEST CALLVALUE DUP1 ISZERO PUSH2 0x27E JUMPI PUSH1 0x0 DUP1 REVERT JUMPDEST POP PUSH2 0x299 PUSH1 0x4 DUP1 CALLDATASIZE SUB DUP2 ADD SWAP1 PUSH2 0x294 SWAP2 SWAP1 PUSH2 0x1876 JUMP JUMPDEST PUSH2 0xE40 JUMP JUMPDEST PUSH1 0x40 MLOAD PUSH2 0x2A6 SWAP2 SWAP1 PUSH2 0x1F23 JUMP JUMPDEST PUSH1 0x40 MLOAD DUP1 SWAP2 SUB SWAP1 RETURN JUMPDEST CALLVALUE DUP1 ISZERO PUSH2 0x2BB JUMPI PUSH1 0x0 DUP1 REVERT JUMPDEST POP PUSH2 0x2C4 PUSH2 0xFC0 JUMP JUMPDEST PUSH1 0x40 MLOAD PUSH2 0x2D1 SWAP2 SWAP1 PUSH2 0x1A60 JUMP JUMPDEST PUSH1 0x40 MLOAD DUP1 SWAP2 SUB SWAP1 RETURN JUMPDEST CALLVALUE DUP1 ISZERO PUSH2 0x2E6 JUMPI PUSH1 0x0 DUP1 REVERT JUMPDEST POP PUSH2 0x301 PUSH1 0x4 DUP1 CALLDATASIZE SUB DUP2 ADD SWAP1 PUSH2 0x2FC SWAP2 SWAP1 PUSH2 0x1876 JUMP JUMPDEST PUSH2 0xFCA JUMP JUMPDEST PUSH1 0x40 MLOAD PUSH2 0x30F SWAP3 SWAP2 SWAP1 PUSH2 0x1F3E JUMP JUMPDEST PUSH1 0x40 MLOAD DUP1 SWAP2 SUB SWAP1 RETURN JUMPDEST CALLVALUE DUP1 ISZERO PUSH2 0x324 JUMPI PUSH1 0x0 DUP1 REVERT JUMPDEST POP PUSH2 0x32D PUSH2 0x12E6 JUMP JUMPDEST PUSH1 0x40 MLOAD PUSH2 0x33A SWAP2 SWAP1 PUSH2 0x1F23 JUMP JUMPDEST PUSH1 0x40 MLOAD DUP1 SWAP2 SUB SWAP1 RETURN JUMPDEST CALLVALUE DUP1 ISZERO PUSH2 0x34F JUMPI PUSH1 0x0 DUP1 REVERT JUMPDEST POP PUSH2 0x36A PUSH1 0x4 DUP1 CALLDATASIZE SUB DUP2 ADD SWAP1 PUSH2 0x365 SWAP2 SWAP1 PUSH2 0x1876 JUMP JUMPDEST PUSH2 0x12F9 JUMP JUMPDEST PUSH1 0x40 MLOAD PUSH2 0x379 SWAP4 SWAP3 SWAP2 SWAP1 PUSH2 0x1F67 JUMP JUMPDEST PUSH1 0x40 MLOAD DUP1 SWAP2 SUB SWAP1 RETURN JUMPDEST CALLVALUE DUP1 ISZERO PUSH2 0x38E JUMPI PUSH1 0x0 DUP1 REVERT JUMPDEST POP PUSH2 0x3A9 PUSH1 0x4 DUP1 CALLDATASIZE SUB DUP2 ADD SWAP1 PUSH2 0x3A4 SWAP2 SWAP1 PUSH2 0x1FFC JUMP JUMPDEST PUSH2 0x1330 JUMP JUMPDEST STOP JUMPDEST CALLVALUE DUP1 ISZERO PUSH2 0x3B7 JUMPI PUSH1 0x0 DUP1 REVERT JUMPDEST POP PUSH2 0x3D2 PUSH1 0x4 DUP1 CALLDATASIZE SUB DUP2 ADD SWAP1 PUSH2 0x3CD SWAP2 SWAP1 PUSH2 0x2068 JUMP JUMPDEST PUSH2 0x13E0 JUMP JUMPDEST STOP JUMPDEST CALLVALUE DUP1 ISZERO PUSH2 0x3E0 JUMPI PUSH1 0x0 DUP1 REVERT JUMPDEST POP PUSH2 0x3FB PUSH1 0x4 DUP1 CALLDATASIZE SUB DUP2 ADD SWAP1 PUSH2 0x3F6 SWAP2 SWAP1 PUSH2 0x20A8 JUMP JUMPDEST PUSH2 0x1682 JUMP JUMPDEST PUSH1 0x40 MLOAD PUSH2 0x408 SWAP2 SWAP1 PUSH2 0x1A60 JUMP JUMPDEST PUSH1 0x40 MLOAD DUP1 SWAP2 SUB SWAP1 RETURN JUMPDEST CALLVALUE DUP1 ISZERO PUSH2 0x41D JUMPI PUSH1 0x0 DUP1 REVERT JUMPDEST POP PUSH2 0x438 PUSH1 0x4 DUP1 CALLDATASIZE SUB DUP2 ADD SWAP1 PUSH2 0x433 SWAP2 SWAP1 PUSH2 0x1FFC JUMP JUMPDEST PUSH2 0x169A JUMP JUMPDEST PUSH1 0x40 MLOAD PUSH2 0x447 SWAP4 SWAP3 SWAP2 SWAP1 PUSH2 0x20D5 JUMP JUMPDEST PUSH1 0x40 MLOAD DUP1 SWAP2 SUB SWAP1 RETURN JUMPDEST CALLVALUE DUP1 ISZERO PUSH2 0x45C JUMPI PUSH1 0x0 DUP1 REVERT JUMPDEST POP PUSH2 0x465 PUSH2 0x16EE JUMP JUMPDEST PUSH1 0x40 MLOAD PUSH2 0x472 SWAP2 SWAP1 PUSH2 0x1A60 JUMP JUMPDEST PUSH1 0x40 MLOAD DUP1 SWAP2 SUB SWAP1 RETURN JUMPDEST CALLVALUE DUP1 ISZERO PUSH2 0x487 JUMPI PUSH1 0x0 DUP1 REVERT JUMPDEST POP PUSH2 0x4A2 PUSH1 0x4 DUP1 CALLDATASIZE SUB DUP2 ADD SWAP1 PUSH2 0x49D SWAP2 SWAP1 PUSH2 0x1FFC JUMP JUMPDEST PUSH2 0x16F4 JUMP JUMPDEST STOP JUMPDEST CALLVALUE DUP1 ISZERO PUSH2 0x4B0 JUMPI PUSH1 0x0 DUP1 REVERT JUMPDEST POP PUSH2 0x4B9 PUSH2 0x1774 JUMP JUMPDEST PUSH1 0x40 MLOAD PUSH2 0x4C6 SWAP2 SWAP1 PUSH2 0x216B JUMP JUMPDEST PUSH1 0x40 MLOAD DUP1 SWAP2 SUB SWAP1 RETURN JUMPDEST PUSH1 0x1 PUSH1 0x20 MSTORE DUP1 PUSH1 0x0 MSTORE PUSH1 0x40 PUSH1 0x0 KECCAK256 PUSH1 0x0 SWAP2 POP SWAP1 POP DUP1 PUSH1 0x0 ADD DUP1 SLOAD PUSH2 0x4F2 SWAP1 PUSH2 0x21B5 JUMP JUMPDEST DUP1 PUSH1 0x1F ADD PUSH1 0x20 DUP1 SWAP2 DIV MUL PUSH1 0x20 ADD PUSH1 0x40 MLOAD SWAP1 DUP2 ADD PUSH1 0x40 MSTORE DUP1 SWAP3 SWAP2 SWAP1 DUP2 DUP2 MSTORE PUSH1 0x20 ADD DUP3 DUP1 SLOAD PUSH2 0x51E SWAP1 PUSH2 0x21B5 JUMP JUMPDEST DUP1 ISZERO PUSH2 0x56B JUMPI DUP1 PUSH1 0x1F LT PUSH2 0x540 JUMPI PUSH2 0x100 DUP1 DUP4 SLOAD DIV MUL DUP4 MSTORE SWAP2 PUSH1 0x20 ADD SWAP2 PUSH2 0x56B JUMP JUMPDEST DUP3 ADD SWAP2 SWAP1 PUSH1 0x0 MSTORE PUSH1 0x20 PUSH1 0x0 KECCAK256 SWAP1 JUMPDEST DUP2 SLOAD DUP2 MSTORE SWAP1 PUSH1 0x1 ADD SWAP1 PUSH1 0x20 ADD DUP1 DUP4 GT PUSH2 0x54E JUMPI DUP3 SWAP1 SUB PUSH1 0x1F AND DUP3 ADD SWAP2 JUMPDEST POP POP POP POP POP SWAP1 DUP1 PUSH1 0x1 ADD DUP1 SLOAD PUSH2 0x580 SWAP1 PUSH2 0x21B5 JUMP JUMPDEST DUP1 PUSH1 0x1F ADD PUSH1 0x20 DUP1 SWAP2 DIV MUL PUSH1 0x20 ADD PUSH1 0x40 MLOAD SWAP1 DUP2 ADD PUSH1 0x40 MSTORE DUP1 SWAP3 SWAP2 SWAP1 DUP2 DUP2 MSTORE PUSH1 0x20 ADD DUP3 DUP1 SLOAD PUSH2 0x5AC SWAP1 PUSH2 0x21B5 JUMP JUMPDEST DUP1 ISZERO PUSH2 0x5F9 JUMPI DUP1 PUSH1 0x1F LT PUSH2 0x5CE JUMPI PUSH2 0x100 DUP1 DUP4 SLOAD DIV MUL DUP4 MSTORE SWAP2 PUSH1 0x20 ADD SWAP2 PUSH2 0x5F9 JUMP JUMPDEST DUP3 ADD SWAP2 SWAP1 PUSH1 0x0 MSTORE PUSH1 0x20 PUSH1 0x0 KECCAK256 SWAP1 JUMPDEST DUP2 SLOAD DUP2 MSTORE SWAP1 PUSH1 0x1 ADD SWAP1 PUSH1 0x20 ADD DUP1 DUP4 GT PUSH2 0x5DC JUMPI DUP3 SWAP1 SUB PUSH1 0x1F AND DUP3 ADD SWAP2 JUMPDEST POP POP POP POP POP SWAP1 DUP1 PUSH1 0x2 ADD SLOAD SWAP1 DUP1 PUSH1 0x3 ADD SLOAD SWAP1 DUP1 PUSH1 0x4 ADD PUSH1 0x0 SWAP1 SLOAD SWAP1 PUSH2 0x100 EXP SWAP1 DIV PUSH1 0xFF AND SWAP1 DUP1 PUSH1 0x5 ADD SLOAD SWAP1 DUP1 PUSH1 0x6 ADD SLOAD SWAP1 DUP1 PUSH1 0x7 ADD PUSH1 0x0 SWAP1 SLOAD SWAP1 PUSH2 0x100 EXP SWAP1 DIV PUSH1 0xFF AND SWAP1 POP DUP9 JUMP JUMPDEST PUSH1 0x7 SLOAD DUP2 JUMP JUMPDEST PUSH1 0x5 SLOAD DUP2 JUMP JUMPDEST PUSH1 0x60 PUSH1 0x4 SLOAD DUP4 LT PUSH2 0x693 JUMPI PUSH1 0x40 MLOAD PUSH32 0x8C379A000000000000000000000000000000000000000000000000000000000 DUP2 MSTORE PUSH1 0x4 ADD PUSH2 0x68A SWAP1 PUSH2 0x2232 JUMP JUMPDEST PUSH1 0x40 MLOAD DUP1 SWAP2 SUB SWAP1 REVERT JUMPDEST PUSH1 0x4 SLOAD DUP3 GT ISZERO PUSH2 0x6D8 JUMPI PUSH1 0x40 MLOAD PUSH32 0x8C379A000000000000000000000000000000000000000000000000000000000 DUP2 MSTORE PUSH1 0x4 ADD PUSH2 0x6CF SWAP1 PUSH2 0x229E JUMP JUMPDEST PUSH1 0x40 MLOAD DUP1 SWAP2 SUB SWAP1 REVERT JUMPDEST DUP2 DUP4 LT PUSH2 0x71A JUMPI PUSH1 0x40 MLOAD PUSH32 0x8C379A000000000000000000000000000000000000000000000000000000000 DUP2 MSTORE PUSH1 0x4 ADD PUSH2 0x711 SWAP1 PUSH2 0x2330 JUMP JUMPDEST PUSH1 0x40 MLOAD DUP1 SWAP2 SUB SWAP1 REVERT JUMPDEST PUSH1 0x0 DUP4 DUP4 PUSH2 0x728 SWAP2 SWAP1 PUSH2 0x237F JUMP JUMPDEST SWAP1 POP PUSH1 0x0 DUP2 PUSH8 0xFFFFFFFFFFFFFFFF DUP2 GT ISZERO PUSH2 0x746 JUMPI PUSH2 0x745 PUSH2 0x1D34 JUMP JUMPDEST JUMPDEST PUSH1 0x40 MLOAD SWAP1 DUP1 DUP3 MSTORE DUP1 PUSH1 0x20 MUL PUSH1 0x20 ADD DUP3 ADD PUSH1 0x40 MSTORE DUP1 ISZERO PUSH2 0x77F JUMPI DUP2 PUSH1 0x20 ADD JUMPDEST PUSH2 0x76C PUSH2 0x17B0 JUMP JUMPDEST DUP2 MSTORE PUSH1 0x20 ADD SWAP1 PUSH1 0x1 SWAP1 SUB SWAP1 DUP2 PUSH2 0x764 JUMPI SWAP1 POP JUMPDEST POP SWAP1 POP PUSH1 0x0 JUMPDEST DUP3 DUP2 LT ISZERO PUSH2 0x984 JUMPI PUSH1 0x1 PUSH1 0x0 DUP3 DUP9 PUSH2 0x79D SWAP2 SWAP1 PUSH2 0x23B3 JUMP JUMPDEST DUP2 MSTORE PUSH1 0x20 ADD SWAP1 DUP2 MSTORE PUSH1 0x20 ADD PUSH1 0x0 KECCAK256 PUSH1 0x40 MLOAD DUP1 PUSH2 0x100 ADD PUSH1 0x40 MSTORE SWAP1 DUP2 PUSH1 0x0 DUP3 ADD DUP1 SLOAD PUSH2 0x7C7 SWAP1 PUSH2 0x21B5 JUMP JUMPDEST DUP1 PUSH1 0x1F ADD PUSH1 0x20 DUP1 SWAP2 DIV MUL PUSH1 0x20 ADD PUSH1 0x40 MLOAD SWAP1 DUP2 ADD PUSH1 0x40 MSTORE DUP1 SWAP3 SWAP2 SWAP1 DUP2 DUP2 MSTORE PUSH1 0x20 ADD DUP3 DUP1 SLOAD PUSH2 0x7F3 SWAP1 PUSH2 0x21B5 JUMP JUMPDEST DUP1 ISZERO PUSH2 0x840 JUMPI DUP1 PUSH1 0x1F LT PUSH2 0x815 JUMPI PUSH2 0x100 DUP1 DUP4 SLOAD DIV MUL DUP4 MSTORE SWAP2 PUSH1 0x20 ADD SWAP2 PUSH2 0x840 JUMP JUMPDEST DUP3 ADD SWAP2 SWAP1 PUSH1 0x0 MSTORE PUSH1 0x20 PUSH1 0x0 KECCAK256 SWAP1 JUMPDEST DUP2 SLOAD DUP2 MSTORE SWAP1 PUSH1 0x1 ADD SWAP1 PUSH1 0x20 ADD DUP1 DUP4 GT PUSH2 0x823 JUMPI DUP3 SWAP1 SUB PUSH1 0x1F AND DUP3 ADD SWAP2 JUMPDEST POP POP POP POP POP DUP2 MSTORE PUSH1 0x20 ADD PUSH1 0x1 DUP3 ADD DUP1 SLOAD PUSH2 0x859 SWAP1 PUSH2 0x21B5 JUMP JUMPDEST DUP1 PUSH1 0x1F ADD PUSH1 0x20 DUP1 SWAP2 DIV MUL PUSH1 0x20 ADD PUSH1 0x40 MLOAD SWAP1 DUP2 ADD PUSH1 0x40 MSTORE DUP1 SWAP3 SWAP2 SWAP1 DUP2 DUP2 MSTORE PUSH1 0x20 ADD DUP3 DUP1 SLOAD PUSH2 0x885 SWAP1 PUSH2 0x21B5 JUMP JUMPDEST DUP1 ISZERO PUSH2 0x8D2 JUMPI DUP1 PUSH1 0x1F LT PUSH2 0x8A7 JUMPI PUSH2 0x100 DUP1 DUP4 SLOAD DIV MUL DUP4 MSTORE SWAP2 PUSH1 0x20 ADD SWAP2 PUSH2 0x8D2 JUMP JUMPDEST DUP3 ADD SWAP2 SWAP1 PUSH1 0x0 MSTORE PUSH1 0x20 PUSH1 0x0 KECCAK256 SWAP1 JUMPDEST DUP2 SLOAD DUP2 MSTORE SWAP1 PUSH1 0x1 ADD SWAP1 PUSH1 0x20 ADD DUP1 DUP4 GT PUSH2 0x8B5 JUMPI DUP3 SWAP1 SUB PUSH1 0x1F AND DUP3 ADD SWAP2 JUMPDEST POP POP POP POP POP DUP2 MSTORE PUSH1 0x20 ADD PUSH1 0x2 DUP3 ADD SLOAD DUP2 MSTORE PUSH1 0x20 ADD PUSH1 0x3 DUP3 ADD SLOAD DUP2 MSTORE PUSH1 0x20 ADD PUSH1 0x4 DUP3 ADD PUSH1 0x0 SWAP1 SLOAD SWAP1 PUSH2 0x100 EXP SWAP1 DIV PUSH1 0xFF AND ISZERO ISZERO ISZERO ISZERO DUP2 MSTORE PUSH1 0x20 ADD PUSH1 0x5 DUP3 ADD SLOAD DUP2 MSTORE PUSH1 0x20 ADD PUSH1 0x6 DUP3 ADD SLOAD DUP2 MSTORE PUSH1 0x20 ADD PUSH1 0x7 DUP3 ADD PUSH1 0x0 SWAP1 SLOAD SWAP1 PUSH2 0x100 EXP SWAP1 DIV PUSH1 0xFF AND PUSH1 0x3 DUP2 GT ISZERO PUSH2 0x943 JUMPI PUSH2 0x942 PUSH2 0x195D JUMP JUMPDEST JUMPDEST PUSH1 0x3 DUP2 GT ISZERO PUSH2 0x955 JUMPI PUSH2 0x954 PUSH2 0x195D JUMP JUMPDEST JUMPDEST DUP2 MSTORE POP POP DUP3 DUP3 DUP2 MLOAD DUP2 LT PUSH2 0x96C JUMPI PUSH2 0x96B PUSH2 0x23E7 JUMP JUMPDEST JUMPDEST PUSH1 0x20 MUL PUSH1 0x20 ADD ADD DUP2 SWAP1 MSTORE POP DUP1 DUP1 PUSH1 0x1 ADD SWAP2 POP POP PUSH2 0x785 JUMP JUMPDEST POP DUP1 SWAP3 POP POP POP SWAP3 SWAP2 POP POP JUMP JUMPDEST PUSH1 0x0 PUSH1 0x1 PUSH1 0x0 DUP4 DUP2 MSTORE PUSH1 0x20 ADD SWAP1 DUP2 MSTORE PUSH1 0x20 ADD PUSH1 0x0 KECCAK256 PUSH1 0x4 ADD PUSH1 0x0 PUSH2 0x100 EXP DUP2 SLOAD DUP2 PUSH1 0xFF MUL NOT AND SWAP1 DUP4 ISZERO ISZERO MUL OR SWAP1 SSTORE POP PUSH1 0x0 DUP1 JUMPDEST PUSH1 0x4 SLOAD DUP2 LT ISZERO PUSH2 0xA0C JUMPI PUSH1 0x1 PUSH1 0x0 DUP3 DUP2 MSTORE PUSH1 0x20 ADD SWAP1 DUP2 MSTORE PUSH1 0x20 ADD PUSH1 0x0 KECCAK256 PUSH1 0x4 ADD PUSH1 0x0 SWAP1 SLOAD SWAP1 PUSH2 0x100 EXP SWAP1 DIV PUSH1 0xFF AND ISZERO PUSH2 0x9FF JUMPI PUSH1 0x1 SWAP2 POP PUSH2 0xA0C JUMP JUMPDEST DUP1 DUP1 PUSH1 0x1 ADD SWAP2 POP POP PUSH2 0x9C3 JUMP JUMPDEST POP PUSH1 0x0 PUSH1 0x1 PUSH1 0x0 DUP5 DUP2 MSTORE PUSH1 0x20 ADD SWAP1 DUP2 MSTORE PUSH1 0x20 ADD PUSH1 0x0 KECCAK256 PUSH1 0x3 ADD SLOAD PUSH1 0x1 PUSH1 0x0 DUP6 DUP2 MSTORE PUSH1 0x20 ADD SWAP1 DUP2 MSTORE PUSH1 0x20 ADD PUSH1 0x0 KECCAK256 PUSH1 0x2 ADD SLOAD GT SWAP1 POP PUSH1 0x40 MLOAD DUP1 PUSH1 0x60 ADD PUSH1 0x40 MSTORE DUP1 DUP3 ISZERO ISZERO DUP2 MSTORE PUSH1 0x20 ADD PUSH1 0x1 PUSH1 0x0 DUP7 DUP2 MSTORE PUSH1 0x20 ADD SWAP1 DUP2 MSTORE PUSH1 0x20 ADD PUSH1 0x0 KECCAK256 PUSH1 0x2 ADD SLOAD DUP2 MSTORE PUSH1 0x20 ADD PUSH1 0x1 PUSH1 0x0 DUP7 DUP2 MSTORE PUSH1 0x20 ADD SWAP1 DUP2 MSTORE PUSH1 0x20 ADD PUSH1 0x0 KECCAK256 PUSH1 0x3 ADD SLOAD DUP2 MSTORE POP PUSH1 0x3 PUSH1 0x0 DUP6 DUP2 MSTORE PUSH1 0x20 ADD SWAP1 DUP2 MSTORE PUSH1 0x20 ADD PUSH1 0x0 KECCAK256 PUSH1 0x0 DUP3 ADD MLOAD DUP2 PUSH1 0x0 ADD PUSH1 0x0 PUSH2 0x100 EXP DUP2 SLOAD DUP2 PUSH1 0xFF MUL NOT AND SWAP1 DUP4 ISZERO ISZERO MUL OR SWAP1 SSTORE POP PUSH1 0x20 DUP3 ADD MLOAD DUP2 PUSH1 0x1 ADD SSTORE PUSH1 0x40 DUP3 ADD MLOAD DUP2 PUSH1 0x2 ADD SSTORE SWAP1 POP POP PUSH1 0x1 PUSH1 0x0 DUP5 DUP2 MSTORE PUSH1 0x20 ADD SWAP1 DUP2 MSTORE PUSH1 0x20 ADD PUSH1 0x0 KECCAK256 PUSH1 0x5 ADD SLOAD TIMESTAMP GT DUP1 ISZERO PUSH2 0xAFE JUMPI POP PUSH2 0xAFC DUP4 PUSH2 0xE40 JUMP JUMPDEST ISZERO JUMPDEST ISZERO PUSH2 0xBC7 JUMPI PUSH1 0x0 PUSH1 0x1 PUSH1 0x0 DUP6 DUP2 MSTORE PUSH1 0x20 ADD SWAP1 DUP2 MSTORE PUSH1 0x20 ADD PUSH1 0x0 KECCAK256 PUSH1 0x4 ADD PUSH1 0x0 PUSH2 0x100 EXP DUP2 SLOAD DUP2 PUSH1 0xFF MUL NOT AND SWAP1 DUP4 ISZERO ISZERO MUL OR SWAP1 SSTORE POP PUSH1 0x40 MLOAD DUP1 PUSH1 0x60 ADD PUSH1 0x40 MSTORE DUP1 PUSH1 0x0 ISZERO ISZERO DUP2 MSTORE PUSH1 0x20 ADD PUSH1 0x1 PUSH1 0x0 DUP7 DUP2 MSTORE PUSH1 0x20 ADD SWAP1 DUP2 MSTORE PUSH1 0x20 ADD PUSH1 0x0 KECCAK256 PUSH1 0x2 ADD SLOAD DUP2 MSTORE PUSH1 0x20 ADD PUSH1 0x1 PUSH1 0x0 DUP7 DUP2 MSTORE PUSH1 0x20 ADD SWAP1 DUP2 MSTORE PUSH1 0x20 ADD PUSH1 0x0 KECCAK256 PUSH1 0x3 ADD SLOAD DUP2 MSTORE POP PUSH1 0x3 PUSH1 0x0 DUP6 DUP2 MSTORE PUSH1 0x20 ADD SWAP1 DUP2 MSTORE PUSH1 0x20 ADD PUSH1 0x0 KECCAK256 PUSH1 0x0 DUP3 ADD MLOAD DUP2 PUSH1 0x0 ADD PUSH1 0x0 PUSH2 0x100 EXP DUP2 SLOAD DUP2 PUSH1 0xFF MUL NOT AND SWAP1 DUP4 ISZERO ISZERO MUL OR SWAP1 SSTORE POP PUSH1 0x20 DUP3 ADD MLOAD DUP2 PUSH1 0x1 ADD SSTORE PUSH1 0x40 DUP3 ADD MLOAD DUP2 PUSH1 0x2 ADD SSTORE SWAP1 POP POP JUMPDEST DUP2 PUSH1 0x6 PUSH1 0x0 PUSH2 0x100 EXP DUP2 SLOAD DUP2 PUSH1 0xFF MUL NOT AND SWAP1 DUP4 ISZERO ISZERO MUL OR SWAP1 SSTORE POP POP POP POP JUMP JUMPDEST PUSH2 0xBEE PUSH2 0x1809 JUMP JUMPDEST PUSH1 0x3 PUSH1 0x0 DUP4 DUP2 MSTORE PUSH1 0x20 ADD SWAP1 DUP2 MSTORE PUSH1 0x20 ADD PUSH1 0x0 KECCAK256 PUSH1 0x40 MLOAD DUP1 PUSH1 0x60 ADD PUSH1 0x40 MSTORE SWAP1 DUP2 PUSH1 0x0 DUP3 ADD PUSH1 0x0 SWAP1 SLOAD SWAP1 PUSH2 0x100 EXP SWAP1 DIV PUSH1 0xFF AND ISZERO ISZERO ISZERO ISZERO DUP2 MSTORE PUSH1 0x20 ADD PUSH1 0x1 DUP3 ADD SLOAD DUP2 MSTORE PUSH1 0x20 ADD PUSH1 0x2 DUP3 ADD SLOAD DUP2 MSTORE POP POP SWAP1 POP SWAP2 SWAP1 POP JUMP JUMPDEST PUSH1 0x0 CALLVALUE GT PUSH2 0xC85 JUMPI PUSH1 0x40 MLOAD PUSH32 0x8C379A000000000000000000000000000000000000000000000000000000000 DUP2 MSTORE PUSH1 0x4 ADD PUSH2 0xC7C SWAP1 PUSH2 0x2488 JUMP JUMPDEST PUSH1 0x40 MLOAD DUP1 SWAP2 SUB SWAP1 REVERT JUMPDEST PUSH1 0x40 MLOAD DUP1 PUSH2 0x100 ADD PUSH1 0x40 MSTORE DUP1 DUP6 DUP2 MSTORE PUSH1 0x20 ADD DUP5 DUP2 MSTORE PUSH1 0x20 ADD PUSH1 0x0 DUP2 MSTORE PUSH1 0x20 ADD PUSH1 0x0 DUP2 MSTORE PUSH1 0x20 ADD PUSH1 0x1 ISZERO ISZERO DUP2 MSTORE PUSH1 0x20 ADD PUSH1 0x3C DUP5 PUSH2 0xCC1 SWAP2 SWAP1 PUSH2 0x24A8 JUMP JUMPDEST TIMESTAMP PUSH2 0xCCC SWAP2 SWAP1 PUSH2 0x23B3 JUMP JUMPDEST DUP2 MSTORE PUSH1 0x20 ADD PUSH1 0x0 DUP2 MSTORE PUSH1 0x20 ADD DUP3 PUSH1 0x3 DUP2 GT ISZERO PUSH2 0xCEB JUMPI PUSH2 0xCEA PUSH2 0x195D JUMP JUMPDEST JUMPDEST DUP2 MSTORE POP PUSH1 0x1 PUSH1 0x0 PUSH1 0x4 SLOAD DUP2 MSTORE PUSH1 0x20 ADD SWAP1 DUP2 MSTORE PUSH1 0x20 ADD PUSH1 0x0 KECCAK256 PUSH1 0x0 DUP3 ADD MLOAD DUP2 PUSH1 0x0 ADD SWAP1 DUP2 PUSH2 0xD18 SWAP2 SWAP1 PUSH2 0x268C JUMP JUMPDEST POP PUSH1 0x20 DUP3 ADD MLOAD DUP2 PUSH1 0x1 ADD SWAP1 DUP2 PUSH2 0xD2E SWAP2 SWAP1 PUSH2 0x268C JUMP JUMPDEST POP PUSH1 0x40 DUP3 ADD MLOAD DUP2 PUSH1 0x2 ADD SSTORE PUSH1 0x60 DUP3 ADD MLOAD DUP2 PUSH1 0x3 ADD SSTORE PUSH1 0x80 DUP3 ADD MLOAD DUP2 PUSH1 0x4 ADD PUSH1 0x0 PUSH2 0x100 EXP DUP2 SLOAD DUP2 PUSH1 0xFF MUL NOT AND SWAP1 DUP4 ISZERO ISZERO MUL OR SWAP1 SSTORE POP PUSH1 0xA0 DUP3 ADD MLOAD DUP2 PUSH1 0x5 ADD SSTORE PUSH1 0xC0 DUP3 ADD MLOAD DUP2 PUSH1 0x6 ADD SSTORE PUSH1 0xE0 DUP3 ADD MLOAD DUP2 PUSH1 0x7 ADD PUSH1 0x0 PUSH2 0x100 EXP DUP2 SLOAD DUP2 PUSH1 0xFF MUL NOT AND SWAP1 DUP4 PUSH1 0x3 DUP2 GT ISZERO PUSH2 0xDA2 JUMPI PUSH2 0xDA1 PUSH2 0x195D JUMP JUMPDEST JUMPDEST MUL OR SWAP1 SSTORE POP SWAP1 POP POP PUSH1 0x1 PUSH1 0x6 PUSH1 0x0 PUSH2 0x100 EXP DUP2 SLOAD DUP2 PUSH1 0xFF MUL NOT AND SWAP1 DUP4 ISZERO ISZERO MUL OR SWAP1 SSTORE POP PUSH1 0x3C DUP3 PUSH2 0xDD2 SWAP2 SWAP1 PUSH2 0x24A8 JUMP JUMPDEST TIMESTAMP PUSH2 0xDDD SWAP2 SWAP1 PUSH2 0x23B3 JUMP JUMPDEST PUSH1 0x7 DUP2 SWAP1 SSTORE POP PUSH32 0xF5DC0DA9AFA6D080780A49FD8C680F03D2DDF3C067CD6D0C85360C096644D2D3 PUSH1 0x4 SLOAD DUP5 PUSH1 0x7 SLOAD PUSH1 0x40 MLOAD PUSH2 0xE1A SWAP4 SWAP3 SWAP2 SWAP1 PUSH2 0x275E JUMP JUMPDEST PUSH1 0x40 MLOAD DUP1 SWAP2 SUB SWAP1 LOG1 PUSH1 0x4 PUSH1 0x0 DUP2 SLOAD DUP1 SWAP3 SWAP2 SWAP1 PUSH2 0xE35 SWAP1 PUSH2 0x279C JUMP JUMPDEST SWAP2 SWAP1 POP SSTORE POP POP POP POP POP JUMP JUMPDEST PUSH1 0x0 DUP1 PUSH1 0x1 PUSH1 0x0 DUP5 DUP2 MSTORE PUSH1 0x20 ADD SWAP1 DUP2 MSTORE PUSH1 0x20 ADD PUSH1 0x0 KECCAK256 SWAP1 POP PUSH1 0x0 DUP1 PUSH1 0x3 DUP2 GT ISZERO PUSH2 0xE6D JUMPI PUSH2 0xE6C PUSH2 0x195D JUMP JUMPDEST JUMPDEST DUP3 PUSH1 0x7 ADD PUSH1 0x0 SWAP1 SLOAD SWAP1 PUSH2 0x100 EXP SWAP1 DIV PUSH1 0xFF AND PUSH1 0x3 DUP2 GT ISZERO PUSH2 0xE91 JUMPI PUSH2 0xE90 PUSH2 0x195D JUMP JUMPDEST JUMPDEST SUB PUSH2 0xEAC JUMPI PUSH1 0x2 PUSH1 0x5 SLOAD PUSH2 0xEA5 SWAP2 SWAP1 PUSH2 0x2813 JUMP JUMPDEST SWAP1 POP PUSH2 0xFAF JUMP JUMPDEST PUSH1 0x1 PUSH1 0x3 DUP2 GT ISZERO PUSH2 0xEC0 JUMPI PUSH2 0xEBF PUSH2 0x195D JUMP JUMPDEST JUMPDEST DUP3 PUSH1 0x7 ADD PUSH1 0x0 SWAP1 SLOAD SWAP1 PUSH2 0x100 EXP SWAP1 DIV PUSH1 0xFF AND PUSH1 0x3 DUP2 GT ISZERO PUSH2 0xEE4 JUMPI PUSH2 0xEE3 PUSH2 0x195D JUMP JUMPDEST JUMPDEST SUB PUSH2 0xF0B JUMPI PUSH1 0x3 PUSH1 0x2 PUSH1 0x5 SLOAD PUSH2 0xEFA SWAP2 SWAP1 PUSH2 0x24A8 JUMP JUMPDEST PUSH2 0xF04 SWAP2 SWAP1 PUSH2 0x2813 JUMP JUMPDEST SWAP1 POP PUSH2 0xFAE JUMP JUMPDEST PUSH1 0x2 PUSH1 0x3 DUP2 GT ISZERO PUSH2 0xF1F JUMPI PUSH2 0xF1E PUSH2 0x195D JUMP JUMPDEST JUMPDEST DUP3 PUSH1 0x7 ADD PUSH1 0x0 SWAP1 SLOAD SWAP1 PUSH2 0x100 EXP SWAP1 DIV PUSH1 0xFF AND PUSH1 0x3 DUP2 GT ISZERO PUSH2 0xF43 JUMPI PUSH2 0xF42 PUSH2 0x195D JUMP JUMPDEST JUMPDEST SUB PUSH2 0xF6A JUMPI PUSH1 0x4 PUSH1 0x3 PUSH1 0x5 SLOAD PUSH2 0xF59 SWAP2 SWAP1 PUSH2 0x24A8 JUMP JUMPDEST PUSH2 0xF63 SWAP2 SWAP1 PUSH2 0x2813 JUMP JUMPDEST SWAP1 POP PUSH2 0xFAD JUMP JUMPDEST PUSH1 0x3 DUP1 DUP2 GT ISZERO PUSH2 0xF7D JUMPI PUSH2 0xF7C PUSH2 0x195D JUMP JUMPDEST JUMPDEST DUP3 PUSH1 0x7 ADD PUSH1 0x0 SWAP1 SLOAD SWAP1 PUSH2 0x100 EXP SWAP1 DIV PUSH1 0xFF AND PUSH1 0x3 DUP2 GT ISZERO PUSH2 0xFA1 JUMPI PUSH2 0xFA0 PUSH2 0x195D JUMP JUMPDEST JUMPDEST SUB PUSH2 0xFAC JUMPI PUSH1 0x5 SLOAD SWAP1 POP JUMPDEST JUMPDEST JUMPDEST JUMPDEST DUP1 DUP3 PUSH1 0x2 ADD SLOAD LT ISZERO SWAP3 POP POP POP SWAP2 SWAP1 POP JUMP JUMPDEST PUSH1 0x0 PUSH1 0x4 SLOAD SWAP1 POP SWAP1 JUMP JUMPDEST PUSH1 0x0 DUP1 PUSH1 0x0 PUSH1 0x1 PUSH1 0x0 DUP6 DUP2 MSTORE PUSH1 0x20 ADD SWAP1 DUP2 MSTORE PUSH1 0x20 ADD PUSH1 0x0 KECCAK256 PUSH1 0x40 MLOAD DUP1 PUSH2 0x100 ADD PUSH1 0x40 MSTORE SWAP1 DUP2 PUSH1 0x0 DUP3 ADD DUP1 SLOAD PUSH2 0xFFE SWAP1 PUSH2 0x21B5 JUMP JUMPDEST DUP1 PUSH1 0x1F ADD PUSH1 0x20 DUP1 SWAP2 DIV MUL PUSH1 0x20 ADD PUSH1 0x40 MLOAD SWAP1 DUP2 ADD PUSH1 0x40 MSTORE DUP1 SWAP3 SWAP2 SWAP1 DUP2 DUP2 MSTORE PUSH1 0x20 ADD DUP3 DUP1 SLOAD PUSH2 0x102A SWAP1 PUSH2 0x21B5 JUMP JUMPDEST DUP1 ISZERO PUSH2 0x1077 JUMPI DUP1 PUSH1 0x1F LT PUSH2 0x104C JUMPI PUSH2 0x100 DUP1 DUP4 SLOAD DIV MUL DUP4 MSTORE SWAP2 PUSH1 0x20 ADD SWAP2 PUSH2 0x1077 JUMP JUMPDEST DUP3 ADD SWAP2 SWAP1 PUSH1 0x0 MSTORE PUSH1 0x20 PUSH1 0x0 KECCAK256 SWAP1 JUMPDEST DUP2 SLOAD DUP2 MSTORE SWAP1 PUSH1 0x1 ADD SWAP1 PUSH1 0x20 ADD DUP1 DUP4 GT PUSH2 0x105A JUMPI DUP3 SWAP1 SUB PUSH1 0x1F AND DUP3 ADD SWAP2 JUMPDEST POP POP POP POP POP DUP2 MSTORE PUSH1 0x20 ADD PUSH1 0x1 DUP3 ADD DUP1 SLOAD PUSH2 0x1090 SWAP1 PUSH2 0x21B5 JUMP JUMPDEST DUP1 PUSH1 0x1F ADD PUSH1 0x20 DUP1 SWAP2 DIV MUL PUSH1 0x20 ADD PUSH1 0x40 MLOAD SWAP1 DUP2 ADD PUSH1 0x40 MSTORE DUP1 SWAP3 SWAP2 SWAP1 DUP2 DUP2 MSTORE PUSH1 0x20 ADD DUP3 DUP1 SLOAD PUSH2 0x10BC SWAP1 PUSH2 0x21B5 JUMP JUMPDEST DUP1 ISZERO PUSH2 0x1109 JUMPI DUP1 PUSH1 0x1F LT PUSH2 0x10DE JUMPI PUSH2 0x100 DUP1 DUP4 SLOAD DIV MUL DUP4 MSTORE SWAP2 PUSH1 0x20 ADD SWAP2 PUSH2 0x1109 JUMP JUMPDEST DUP3 ADD SWAP2 SWAP1 PUSH1 0x0 MSTORE PUSH1 0x20 PUSH1 0x0 KECCAK256 SWAP1 JUMPDEST DUP2 SLOAD DUP2 MSTORE SWAP1 PUSH1 0x1 ADD SWAP1 PUSH1 0x20 ADD DUP1 DUP4 GT PUSH2 0x10EC JUMPI DUP3 SWAP1 SUB PUSH1 0x1F AND DUP3 ADD SWAP2 JUMPDEST POP POP POP POP POP DUP2 MSTORE PUSH1 0x20 ADD PUSH1 0x2 DUP3 ADD SLOAD DUP2 MSTORE PUSH1 0x20 ADD PUSH1 0x3 DUP3 ADD SLOAD DUP2 MSTORE PUSH1 0x20 ADD PUSH1 0x4 DUP3 ADD PUSH1 0x0 SWAP1 SLOAD SWAP1 PUSH2 0x100 EXP SWAP1 DIV PUSH1 0xFF AND ISZERO ISZERO ISZERO ISZERO DUP2 MSTORE PUSH1 0x20 ADD PUSH1 0x5 DUP3 ADD SLOAD DUP2 MSTORE PUSH1 0x20 ADD PUSH1 0x6 DUP3 ADD SLOAD DUP2 MSTORE PUSH1 0x20 ADD PUSH1 0x7 DUP3 ADD PUSH1 0x0 SWAP1 SLOAD SWAP1 PUSH2 0x100 EXP SWAP1 DIV PUSH1 0xFF AND PUSH1 0x3 DUP2 GT ISZERO PUSH2 0x117A JUMPI PUSH2 0x1179 PUSH2 0x195D JUMP JUMPDEST JUMPDEST PUSH1 0x3 DUP2 GT ISZERO PUSH2 0x118C JUMPI PUSH2 0x118B PUSH2 0x195D JUMP JUMPDEST JUMPDEST DUP2 MSTORE POP POP SWAP1 POP PUSH1 0x0 DUP2 PUSH1 0xC0 ADD MLOAD SWAP1 POP PUSH1 0x0 PUSH1 0x5 SLOAD PUSH1 0x64 DUP4 PUSH2 0x11AD SWAP2 SWAP1 PUSH2 0x24A8 JUMP JUMPDEST PUSH2 0x11B7 SWAP2 SWAP1 PUSH2 0x2813 JUMP JUMPDEST SWAP1 POP PUSH1 0x0 PUSH1 0x3 DUP2 GT ISZERO PUSH2 0x11CD JUMPI PUSH2 0x11CC PUSH2 0x195D JUMP JUMPDEST JUMPDEST DUP4 PUSH1 0xE0 ADD MLOAD PUSH1 0x3 DUP2 GT ISZERO PUSH2 0x11E4 JUMPI PUSH2 0x11E3 PUSH2 0x195D JUMP JUMPDEST JUMPDEST SUB PUSH2 0x11FF JUMPI PUSH1 0x2 PUSH1 0x5 SLOAD PUSH2 0x11F8 SWAP2 SWAP1 PUSH2 0x2813 JUMP JUMPDEST SWAP4 POP PUSH2 0x12DB JUMP JUMPDEST PUSH1 0x1 PUSH1 0x3 DUP2 GT ISZERO PUSH2 0x1213 JUMPI PUSH2 0x1212 PUSH2 0x195D JUMP JUMPDEST JUMPDEST DUP4 PUSH1 0xE0 ADD MLOAD PUSH1 0x3 DUP2 GT ISZERO PUSH2 0x122A JUMPI PUSH2 0x1229 PUSH2 0x195D JUMP JUMPDEST JUMPDEST SUB PUSH2 0x1251 JUMPI PUSH1 0x3 PUSH1 0x2 PUSH1 0x5 SLOAD PUSH2 0x1240 SWAP2 SWAP1 PUSH2 0x24A8 JUMP JUMPDEST PUSH2 0x124A SWAP2 SWAP1 PUSH2 0x2813 JUMP JUMPDEST SWAP4 POP PUSH2 0x12DA JUMP JUMPDEST PUSH1 0x2 PUSH1 0x3 DUP2 GT ISZERO PUSH2 0x1265 JUMPI PUSH2 0x1264 PUSH2 0x195D JUMP JUMPDEST JUMPDEST DUP4 PUSH1 0xE0 ADD MLOAD PUSH1 0x3 DUP2 GT ISZERO PUSH2 0x127C JUMPI PUSH2 0x127B PUSH2 0x195D JUMP JUMPDEST JUMPDEST SUB PUSH2 0x12A3 JUMPI PUSH1 0x4 PUSH1 0x3 PUSH1 0x5 SLOAD PUSH2 0x1292 SWAP2 SWAP1 PUSH2 0x24A8 JUMP JUMPDEST PUSH2 0x129C SWAP2 SWAP1 PUSH2 0x2813 JUMP JUMPDEST SWAP4 POP PUSH2 0x12D9 JUMP JUMPDEST PUSH1 0x3 DUP1 DUP2 GT ISZERO PUSH2 0x12B6 JUMPI PUSH2 0x12B5 PUSH2 0x195D JUMP JUMPDEST JUMPDEST DUP4 PUSH1 0xE0 ADD MLOAD PUSH1 0x3 DUP2 GT ISZERO PUSH2 0x12CD JUMPI PUSH2 0x12CC PUSH2 0x195D JUMP JUMPDEST JUMPDEST SUB PUSH2 0x12D8 JUMPI PUSH1 0x5 SLOAD SWAP4 POP JUMPDEST JUMPDEST JUMPDEST JUMPDEST DUP1 SWAP5 POP POP POP POP SWAP2 POP SWAP2 JUMP JUMPDEST PUSH1 0x6 PUSH1 0x0 SWAP1 SLOAD SWAP1 PUSH2 0x100 EXP SWAP1 DIV PUSH1 0xFF AND DUP2 JUMP JUMPDEST PUSH1 0x3 PUSH1 0x20 MSTORE DUP1 PUSH1 0x0 MSTORE PUSH1 0x40 PUSH1 0x0 KECCAK256 PUSH1 0x0 SWAP2 POP SWAP1 POP DUP1 PUSH1 0x0 ADD PUSH1 0x0 SWAP1 SLOAD SWAP1 PUSH2 0x100 EXP SWAP1 DIV PUSH1 0xFF AND SWAP1 DUP1 PUSH1 0x1 ADD SLOAD SWAP1 DUP1 PUSH1 0x2 ADD SLOAD SWAP1 POP DUP4 JUMP JUMPDEST PUSH1 0x6 PUSH1 0x0 SWAP1 SLOAD SWAP1 PUSH2 0x100 EXP SWAP1 DIV PUSH1 0xFF AND ISZERO PUSH2 0x1380 JUMPI PUSH1 0x40 MLOAD PUSH32 0x8C379A000000000000000000000000000000000000000000000000000000000 DUP2 MSTORE PUSH1 0x4 ADD PUSH2 0x1377 SWAP1 PUSH2 0x28B6 JUMP JUMPDEST PUSH1 0x40 MLOAD DUP1 SWAP2 SUB SWAP1 REVERT JUMPDEST DUP1 PUSH1 0x0 DUP1 DUP5 PUSH20 0xFFFFFFFFFFFFFFFFFFFFFFFFFFFFFFFFFFFFFFFF AND PUSH20 0xFFFFFFFFFFFFFFFFFFFFFFFFFFFFFFFFFFFFFFFF AND DUP2 MSTORE PUSH1 0x20 ADD SWAP1 DUP2 MSTORE PUSH1 0x20 ADD PUSH1 0x0 KECCAK256 DUP2 SWAP1 SSTORE POP DUP1 PUSH1 0x5 PUSH1 0x0 DUP3 DUP3 SLOAD PUSH2 0x13D5 SWAP2 SWAP1 PUSH2 0x23B3 JUMP JUMPDEST SWAP3 POP POP DUP2 SWAP1 SSTORE POP POP POP JUMP JUMPDEST PUSH1 0x0 PUSH1 0x5 SLOAD PUSH2 0x2710 PUSH1 0x0 DUP1 CALLER PUSH20 0xFFFFFFFFFFFFFFFFFFFFFFFFFFFFFFFFFFFFFFFF AND PUSH20 0xFFFFFFFFFFFFFFFFFFFFFFFFFFFFFFFFFFFFFFFF AND DUP2 MSTORE PUSH1 0x20 ADD SWAP1 DUP2 MSTORE PUSH1 0x20 ADD PUSH1 0x0 KECCAK256 SLOAD PUSH2 0x1431 SWAP2 SWAP1 PUSH2 0x24A8 JUMP JUMPDEST PUSH2 0x143B SWAP2 SWAP1 PUSH2 0x2813 JUMP JUMPDEST SWAP1 POP DUP2 ISZERO PUSH2 0x1475 JUMPI DUP1 PUSH1 0x1 PUSH1 0x0 DUP6 DUP2 MSTORE PUSH1 0x20 ADD SWAP1 DUP2 MSTORE PUSH1 0x20 ADD PUSH1 0x0 KECCAK256 PUSH1 0x2 ADD PUSH1 0x0 DUP3 DUP3 SLOAD PUSH2 0x1469 SWAP2 SWAP1 PUSH2 0x23B3 JUMP JUMPDEST SWAP3 POP POP DUP2 SWAP1 SSTORE POP PUSH2 0x14A3 JUMP JUMPDEST DUP1 PUSH1 0x1 PUSH1 0x0 DUP6 DUP2 MSTORE PUSH1 0x20 ADD SWAP1 DUP2 MSTORE PUSH1 0x20 ADD PUSH1 0x0 KECCAK256 PUSH1 0x3 ADD PUSH1 0x0 DUP3 DUP3 SLOAD PUSH2 0x149B SWAP2 SWAP1 PUSH2 0x23B3 JUMP JUMPDEST SWAP3 POP POP DUP2 SWAP1 SSTORE POP JUMPDEST DUP1 PUSH1 0x1 PUSH1 0x0 DUP6 DUP2 MSTORE PUSH1 0x20 ADD SWAP1 DUP2 MSTORE PUSH1 0x20 ADD PUSH1 0x0 KECCAK256 PUSH1 0x6 ADD PUSH1 0x0 DUP3 DUP3 SLOAD PUSH2 0x14C9 SWAP2 SWAP1 PUSH2 0x23B3 JUMP JUMPDEST SWAP3 POP POP DUP2 SWAP1 SSTORE POP PUSH1 0x2 PUSH1 0x0 CALLER PUSH20 0xFFFFFFFFFFFFFFFFFFFFFFFFFFFFFFFFFFFFFFFF AND PUSH20 0xFFFFFFFFFFFFFFFFFFFFFFFFFFFFFFFFFFFFFFFF AND DUP2 MSTORE PUSH1 0x20 ADD SWAP1 DUP2 MSTORE PUSH1 0x20 ADD PUSH1 0x0 KECCAK256 PUSH1 0x40 MLOAD DUP1 PUSH1 0x60 ADD PUSH1 0x40 MSTORE DUP1 DUP6 DUP2 MSTORE PUSH1 0x20 ADD DUP5 ISZERO ISZERO DUP2 MSTORE PUSH1 0x20 ADD DUP4 DUP2 MSTORE POP SWAP1 DUP1 PUSH1 0x1 DUP2 SLOAD ADD DUP1 DUP3 SSTORE DUP1 SWAP2 POP POP PUSH1 0x1 SWAP1 SUB SWAP1 PUSH1 0x0 MSTORE PUSH1 0x20 PUSH1 0x0 KECCAK256 SWAP1 PUSH1 0x3 MUL ADD PUSH1 0x0 SWAP1 SWAP2 SWAP1 SWAP2 SWAP1 SWAP2 POP PUSH1 0x0 DUP3 ADD MLOAD DUP2 PUSH1 0x0 ADD SSTORE PUSH1 0x20 DUP3 ADD MLOAD DUP2 PUSH1 0x1 ADD PUSH1 0x0 PUSH2 0x100 EXP DUP2 SLOAD DUP2 PUSH1 0xFF MUL NOT AND SWAP1 DUP4 ISZERO ISZERO MUL OR SWAP1 SSTORE POP PUSH1 0x40 DUP3 ADD MLOAD DUP2 PUSH1 0x2 ADD SSTORE POP POP PUSH1 0x0 PUSH2 0x1596 DUP3 PUSH2 0x179A JUMP JUMPDEST SWAP1 POP PUSH1 0x8 PUSH1 0x0 SWAP1 SLOAD SWAP1 PUSH2 0x100 EXP SWAP1 DIV PUSH20 0xFFFFFFFFFFFFFFFFFFFFFFFFFFFFFFFFFFFFFFFF AND PUSH20 0xFFFFFFFFFFFFFFFFFFFFFFFFFFFFFFFFFFFFFFFF AND PUSH4 0x40C10F19 CALLER DUP4 PUSH1 0x40 MLOAD DUP4 PUSH4 0xFFFFFFFF AND PUSH1 0xE0 SHL DUP2 MSTORE PUSH1 0x4 ADD PUSH2 0x15F5 SWAP3 SWAP2 SWAP1 PUSH2 0x28E5 JUMP JUMPDEST PUSH1 0x0 PUSH1 0x40 MLOAD DUP1 DUP4 SUB DUP2 PUSH1 0x0 DUP8 DUP1 EXTCODESIZE ISZERO DUP1 ISZERO PUSH2 0x160F JUMPI PUSH1 0x0 DUP1 REVERT JUMPDEST POP GAS CALL ISZERO DUP1 ISZERO PUSH2 0x1623 JUMPI RETURNDATASIZE PUSH1 0x0 DUP1 RETURNDATACOPY RETURNDATASIZE PUSH1 0x0 REVERT JUMPDEST POP POP POP POP PUSH32 0xB898E75D5AAC8DE2F407E4A683C8D909E832D1E371E3BFF0FA3ED934E88D9562 DUP5 CALLER DUP5 DUP7 PUSH1 0x40 MLOAD PUSH2 0x165C SWAP5 SWAP4 SWAP3 SWAP2 SWAP1 PUSH2 0x290E JUMP JUMPDEST PUSH1 0x40 MLOAD DUP1 SWAP2 SUB SWAP1 LOG1 PUSH2 0x166D DUP5 PUSH2 0xE40 JUMP JUMPDEST ISZERO PUSH2 0x167C JUMPI PUSH2 0x167B DUP5 PUSH2 0x990 JUMP JUMPDEST JUMPDEST POP POP POP POP JUMP JUMPDEST PUSH1 0x0 PUSH1 0x20 MSTORE DUP1 PUSH1 0x0 MSTORE PUSH1 0x40 PUSH1 0x0 KECCAK256 PUSH1 0x0 SWAP2 POP SWAP1 POP SLOAD DUP2 JUMP JUMPDEST PUSH1 0x2 PUSH1 0x20 MSTORE DUP2 PUSH1 0x0 MSTORE PUSH1 0x40 PUSH1 0x0 KECCAK256 DUP2 DUP2 SLOAD DUP2 LT PUSH2 0x16B6 JUMPI PUSH1 0x0 DUP1 REVERT JUMPDEST SWAP1 PUSH1 0x0 MSTORE PUSH1 0x20 PUSH1 0x0 KECCAK256 SWAP1 PUSH1 0x3 MUL ADD PUSH1 0x0 SWAP2 POP SWAP2 POP POP DUP1 PUSH1 0x0 ADD SLOAD SWAP1 DUP1 PUSH1 0x1 ADD PUSH1 0x0 SWAP1 SLOAD SWAP1 PUSH2 0x100 EXP SWAP1 DIV PUSH1 0xFF AND SWAP1 DUP1 PUSH1 0x2 ADD SLOAD SWAP1 POP DUP4 JUMP JUMPDEST PUSH1 0x4 SLOAD DUP2 JUMP JUMPDEST DUP1 PUSH1 0x0 DUP1 DUP5 PUSH20 0xFFFFFFFFFFFFFFFFFFFFFFFFFFFFFFFFFFFFFFFF AND PUSH20 0xFFFFFFFFFFFFFFFFFFFFFFFFFFFFFFFFFFFFFFFF AND DUP2 MSTORE PUSH1 0x20 ADD SWAP1 DUP2 MSTORE PUSH1 0x20 ADD PUSH1 0x0 KECCAK256 DUP2 SWAP1 SSTORE POP PUSH32 0xE6382C9ED5C0C33BB05042F73CF6CBE9CB25639F9A711E094EE563BC9CB80E2C DUP3 DUP3 PUSH1 0x40 MLOAD PUSH2 0x1768 SWAP3 SWAP2 SWAP1 PUSH2 0x28E5 JUMP JUMPDEST PUSH1 0x40 MLOAD DUP1 SWAP2 SUB SWAP1 LOG1 POP POP JUMP JUMPDEST PUSH1 0x8 PUSH1 0x0 SWAP1 SLOAD SWAP1 PUSH2 0x100 EXP SWAP1 DIV PUSH20 0xFFFFFFFFFFFFFFFFFFFFFFFFFFFFFFFFFFFFFFFF AND DUP2 JUMP JUMPDEST PUSH1 0x0 PUSH1 0x64 DUP3 PUSH2 0x17A9 SWAP2 SWAP1 PUSH2 0x2813 JUMP JUMPDEST SWAP1 POP SWAP2 SWAP1 POP JUMP JUMPDEST PUSH1 0x40 MLOAD DUP1 PUSH2 0x100 ADD PUSH1 0x40 MSTORE DUP1 PUSH1 0x60 DUP2 MSTORE PUSH1 0x20 ADD PUSH1 0x60 DUP2 MSTORE PUSH1 0x20 ADD PUSH1 0x0 DUP2 MSTORE PUSH1 0x20 ADD PUSH1 0x0 DUP2 MSTORE PUSH1 0x20 ADD PUSH1 0x0 ISZERO ISZERO DUP2 MSTORE PUSH1 0x20 ADD PUSH1 0x0 DUP2 MSTORE PUSH1 0x20 ADD PUSH1 0x0 DUP2 MSTORE PUSH1 0x20 ADD PUSH1 0x0 PUSH1 0x3 DUP2 GT ISZERO PUSH2 0x1803 JUMPI PUSH2 0x1802 PUSH2 0x195D JUMP JUMPDEST JUMPDEST DUP2 MSTORE POP SWAP1 JUMP JUMPDEST PUSH1 0x40 MLOAD DUP1 PUSH1 0x60 ADD PUSH1 0x40 MSTORE DUP1 PUSH1 0x0 ISZERO ISZERO DUP2 MSTORE PUSH1 0x20 ADD PUSH1 0x0 DUP2 MSTORE PUSH1 0x20 ADD PUSH1 0x0 DUP2 MSTORE POP SWAP1 JUMP JUMPDEST PUSH1 0x0 PUSH1 0x40 MLOAD SWAP1 POP SWAP1 JUMP JUMPDEST PUSH1 0x0 DUP1 REVERT JUMPDEST PUSH1 0x0 DUP1 REVERT JUMPDEST PUSH1 0x0 DUP2 SWAP1 POP SWAP2 SWAP1 POP JUMP JUMPDEST PUSH2 0x1853 DUP2 PUSH2 0x1840 JUMP JUMPDEST DUP2 EQ PUSH2 0x185E JUMPI PUSH1 0x0 DUP1 REVERT JUMPDEST POP JUMP JUMPDEST PUSH1 0x0 DUP2 CALLDATALOAD SWAP1 POP PUSH2 0x1870 DUP2 PUSH2 0x184A JUMP JUMPDEST SWAP3 SWAP2 POP POP JUMP JUMPDEST PUSH1 0x0 PUSH1 0x20 DUP3 DUP5 SUB SLT ISZERO PUSH2 0x188C JUMPI PUSH2 0x188B PUSH2 0x1836 JUMP JUMPDEST JUMPDEST PUSH1 0x0 PUSH2 0x189A DUP5 DUP3 DUP6 ADD PUSH2 0x1861 JUMP JUMPDEST SWAP2 POP POP SWAP3 SWAP2 POP POP JUMP JUMPDEST PUSH1 0x0 DUP2 MLOAD SWAP1 POP SWAP2 SWAP1 POP JUMP JUMPDEST PUSH1 0x0 DUP3 DUP3 MSTORE PUSH1 0x20 DUP3 ADD SWAP1 POP SWAP3 SWAP2 POP POP JUMP JUMPDEST PUSH1 0x0 JUMPDEST DUP4 DUP2 LT ISZERO PUSH2 0x18DD JUMPI DUP1 DUP3 ADD MLOAD DUP2 DUP5 ADD MSTORE PUSH1 0x20 DUP2 ADD SWAP1 POP PUSH2 0x18C2 JUMP JUMPDEST PUSH1 0x0 DUP5 DUP5 ADD MSTORE POP POP POP POP JUMP JUMPDEST PUSH1 0x0 PUSH1 0x1F NOT PUSH1 0x1F DUP4 ADD AND SWAP1 POP SWAP2 SWAP1 POP JUMP JUMPDEST PUSH1 0x0 PUSH2 0x1905 DUP3 PUSH2 0x18A3 JUMP JUMPDEST PUSH2 0x190F DUP2 DUP6 PUSH2 0x18AE JUMP JUMPDEST SWAP4 POP PUSH2 0x191F DUP2 DUP6 PUSH1 0x20 DUP7 ADD PUSH2 0x18BF JUMP JUMPDEST PUSH2 0x1928 DUP2 PUSH2 0x18E9 JUMP JUMPDEST DUP5 ADD SWAP2 POP POP SWAP3 SWAP2 POP POP JUMP JUMPDEST PUSH2 0x193C DUP2 PUSH2 0x1840 JUMP JUMPDEST DUP3 MSTORE POP POP JUMP JUMPDEST PUSH1 0x0 DUP2 ISZERO ISZERO SWAP1 POP SWAP2 SWAP1 POP JUMP JUMPDEST PUSH2 0x1957 DUP2 PUSH2 0x1942 JUMP JUMPDEST DUP3 MSTORE POP POP JUMP JUMPDEST PUSH32 0x4E487B7100000000000000000000000000000000000000000000000000000000 PUSH1 0x0 MSTORE PUSH1 0x21 PUSH1 0x4 MSTORE PUSH1 0x24 PUSH1 0x0 REVERT JUMPDEST PUSH1 0x4 DUP2 LT PUSH2 0x199D JUMPI PUSH2 0x199C PUSH2 0x195D JUMP JUMPDEST JUMPDEST POP JUMP JUMPDEST PUSH1 0x0 DUP2 SWAP1 POP PUSH2 0x19AE DUP3 PUSH2 0x198C JUMP JUMPDEST SWAP2 SWAP1 POP JUMP JUMPDEST PUSH1 0x0 PUSH2 0x19BE DUP3 PUSH2 0x19A0 JUMP JUMPDEST SWAP1 POP SWAP2 SWAP1 POP JUMP JUMPDEST PUSH2 0x19CE DUP2 PUSH2 0x19B3 JUMP JUMPDEST DUP3 MSTORE POP POP JUMP JUMPDEST PUSH1 0x0 PUSH2 0x100 DUP3 ADD SWAP1 POP DUP2 DUP2 SUB PUSH1 0x0 DUP4 ADD MSTORE PUSH2 0x19EF DUP2 DUP12 PUSH2 0x18FA JUMP JUMPDEST SWAP1 POP DUP2 DUP2 SUB PUSH1 0x20 DUP4 ADD MSTORE PUSH2 0x1A03 DUP2 DUP11 PUSH2 0x18FA JUMP JUMPDEST SWAP1 POP PUSH2 0x1A12 PUSH1 0x40 DUP4 ADD DUP10 PUSH2 0x1933 JUMP JUMPDEST PUSH2 0x1A1F PUSH1 0x60 DUP4 ADD DUP9 PUSH2 0x1933 JUMP JUMPDEST PUSH2 0x1A2C PUSH1 0x80 DUP4 ADD DUP8 PUSH2 0x194E JUMP JUMPDEST PUSH2 0x1A39 PUSH1 0xA0 DUP4 ADD DUP7 PUSH2 0x1933 JUMP JUMPDEST PUSH2 0x1A46 PUSH1 0xC0 DUP4 ADD DUP6 PUSH2 0x1933 JUMP JUMPDEST PUSH2 0x1A53 PUSH1 0xE0 DUP4 ADD DUP5 PUSH2 0x19C5 JUMP JUMPDEST SWAP10 SWAP9 POP POP POP POP POP POP POP POP POP JUMP JUMPDEST PUSH1 0x0 PUSH1 0x20 DUP3 ADD SWAP1 POP PUSH2 0x1A75 PUSH1 0x0 DUP4 ADD DUP5 PUSH2 0x1933 JUMP JUMPDEST SWAP3 SWAP2 POP POP JUMP JUMPDEST PUSH1 0x0 DUP1 PUSH1 0x40 DUP4 DUP6 SUB SLT ISZERO PUSH2 0x1A92 JUMPI PUSH2 0x1A91 PUSH2 0x1836 JUMP JUMPDEST JUMPDEST PUSH1 0x0 PUSH2 0x1AA0 DUP6 DUP3 DUP7 ADD PUSH2 0x1861 JUMP JUMPDEST SWAP3 POP POP PUSH1 0x20 PUSH2 0x1AB1 DUP6 DUP3 DUP7 ADD PUSH2 0x1861 JUMP JUMPDEST SWAP2 POP POP SWAP3 POP SWAP3 SWAP1 POP JUMP JUMPDEST PUSH1 0x0 DUP2 MLOAD SWAP1 POP SWAP2 SWAP1 POP JUMP JUMPDEST PUSH1 0x0 DUP3 DUP3 MSTORE PUSH1 0x20 DUP3 ADD SWAP1 POP SWAP3 SWAP2 POP POP JUMP JUMPDEST PUSH1 0x0 DUP2 SWAP1 POP PUSH1 0x20 DUP3 ADD SWAP1 POP SWAP2 SWAP1 POP JUMP JUMPDEST PUSH1 0x0 DUP3 DUP3 MSTORE PUSH1 0x20 DUP3 ADD SWAP1 POP SWAP3 SWAP2 POP POP JUMP JUMPDEST PUSH1 0x0 PUSH2 0x1B03 DUP3 PUSH2 0x18A3 JUMP JUMPDEST PUSH2 0x1B0D DUP2 DUP6 PUSH2 0x1AE7 JUMP JUMPDEST SWAP4 POP PUSH2 0x1B1D DUP2 DUP6 PUSH1 0x20 DUP7 ADD PUSH2 0x18BF JUMP JUMPDEST PUSH2 0x1B26 DUP2 PUSH2 0x18E9 JUMP JUMPDEST DUP5 ADD SWAP2 POP POP SWAP3 SWAP2 POP POP JUMP JUMPDEST PUSH2 0x1B3A DUP2 PUSH2 0x1840 JUMP JUMPDEST DUP3 MSTORE POP POP JUMP JUMPDEST PUSH2 0x1B49 DUP2 PUSH2 0x1942 JUMP JUMPDEST DUP3 MSTORE POP POP JUMP JUMPDEST PUSH2 0x1B58 DUP2 PUSH2 0x19B3 JUMP JUMPDEST DUP3 MSTORE POP POP JUMP JUMPDEST PUSH1 0x0 PUSH2 0x100 DUP4 ADD PUSH1 0x0 DUP4 ADD MLOAD DUP5 DUP3 SUB PUSH1 0x0 DUP7 ADD MSTORE PUSH2 0x1B7C DUP3 DUP3 PUSH2 0x1AF8 JUMP JUMPDEST SWAP2 POP POP PUSH1 0x20 DUP4 ADD MLOAD DUP5 DUP3 SUB PUSH1 0x20 DUP7 ADD MSTORE PUSH2 0x1B96 DUP3 DUP3 PUSH2 0x1AF8 JUMP JUMPDEST SWAP2 POP POP PUSH1 0x40 DUP4 ADD MLOAD PUSH2 0x1BAB PUSH1 0x40 DUP7 ADD DUP3 PUSH2 0x1B31 JUMP JUMPDEST POP PUSH1 0x60 DUP4 ADD MLOAD PUSH2 0x1BBE PUSH1 0x60 DUP7 ADD DUP3 PUSH2 0x1B31 JUMP JUMPDEST POP PUSH1 0x80 DUP4 ADD MLOAD PUSH2 0x1BD1 PUSH1 0x80 DUP7 ADD DUP3 PUSH2 0x1B40 JUMP JUMPDEST POP PUSH1 0xA0 DUP4 ADD MLOAD PUSH2 0x1BE4 PUSH1 0xA0 DUP7 ADD DUP3 PUSH2 0x1B31 JUMP JUMPDEST POP PUSH1 0xC0 DUP4 ADD MLOAD PUSH2 0x1BF7 PUSH1 0xC0 DUP7 ADD DUP3 PUSH2 0x1B31 JUMP JUMPDEST POP PUSH1 0xE0 DUP4 ADD MLOAD PUSH2 0x1C0A PUSH1 0xE0 DUP7 ADD DUP3 PUSH2 0x1B4F JUMP JUMPDEST POP DUP1 SWAP2 POP POP SWAP3 SWAP2 POP POP JUMP JUMPDEST PUSH1 0x0 PUSH2 0x1C21 DUP4 DUP4 PUSH2 0x1B5E JUMP JUMPDEST SWAP1 POP SWAP3 SWAP2 POP POP JUMP JUMPDEST PUSH1 0x0 PUSH1 0x20 DUP3 ADD SWAP1 POP SWAP2 SWAP1 POP JUMP JUMPDEST PUSH1 0x0 PUSH2 0x1C41 DUP3 PUSH2 0x1ABB JUMP JUMPDEST PUSH2 0x1C4B DUP2 DUP6 PUSH2 0x1AC6 JUMP JUMPDEST SWAP4 POP DUP4 PUSH1 0x20 DUP3 MUL DUP6 ADD PUSH2 0x1C5D DUP6 PUSH2 0x1AD7 JUMP JUMPDEST DUP1 PUSH1 0x0 JUMPDEST DUP6 DUP2 LT ISZERO PUSH2 0x1C99 JUMPI DUP5 DUP5 SUB DUP10 MSTORE DUP2 MLOAD PUSH2 0x1C7A DUP6 DUP3 PUSH2 0x1C15 JUMP JUMPDEST SWAP5 POP PUSH2 0x1C85 DUP4 PUSH2 0x1C29 JUMP JUMPDEST SWAP3 POP PUSH1 0x20 DUP11 ADD SWAP10 POP POP PUSH1 0x1 DUP2 ADD SWAP1 POP PUSH2 0x1C61 JUMP JUMPDEST POP DUP3 SWAP8 POP DUP8 SWAP6 POP POP POP POP POP POP SWAP3 SWAP2 POP POP JUMP JUMPDEST PUSH1 0x0 PUSH1 0x20 DUP3 ADD SWAP1 POP DUP2 DUP2 SUB PUSH1 0x0 DUP4 ADD MSTORE PUSH2 0x1CC5 DUP2 DUP5 PUSH2 0x1C36 JUMP JUMPDEST SWAP1 POP SWAP3 SWAP2 POP POP JUMP JUMPDEST PUSH1 0x60 DUP3 ADD PUSH1 0x0 DUP3 ADD MLOAD PUSH2 0x1CE3 PUSH1 0x0 DUP6 ADD DUP3 PUSH2 0x1B40 JUMP JUMPDEST POP PUSH1 0x20 DUP3 ADD MLOAD PUSH2 0x1CF6 PUSH1 0x20 DUP6 ADD DUP3 PUSH2 0x1B31 JUMP JUMPDEST POP PUSH1 0x40 DUP3 ADD MLOAD PUSH2 0x1D09 PUSH1 0x40 DUP6 ADD DUP3 PUSH2 0x1B31 JUMP JUMPDEST POP POP POP POP JUMP JUMPDEST PUSH1 0x0 PUSH1 0x60 DUP3 ADD SWAP1 POP PUSH2 0x1D24 PUSH1 0x0 DUP4 ADD DUP5 PUSH2 0x1CCD JUMP JUMPDEST SWAP3 SWAP2 POP POP JUMP JUMPDEST PUSH1 0x0 DUP1 REVERT JUMPDEST PUSH1 0x0 DUP1 REVERT JUMPDEST PUSH32 0x4E487B7100000000000000000000000000000000000000000000000000000000 PUSH1 0x0 MSTORE PUSH1 0x41 PUSH1 0x4 MSTORE PUSH1 0x24 PUSH1 0x0 REVERT JUMPDEST PUSH2 0x1D6C DUP3 PUSH2 0x18E9 JUMP JUMPDEST DUP2 ADD DUP2 DUP2 LT PUSH8 0xFFFFFFFFFFFFFFFF DUP3 GT OR ISZERO PUSH2 0x1D8B JUMPI PUSH2 0x1D8A PUSH2 0x1D34 JUMP JUMPDEST JUMPDEST DUP1 PUSH1 0x40 MSTORE POP POP POP JUMP JUMPDEST PUSH1 0x0 PUSH2 0x1D9E PUSH2 0x182C JUMP JUMPDEST SWAP1 POP PUSH2 0x1DAA DUP3 DUP3 PUSH2 0x1D63 JUMP JUMPDEST SWAP2 SWAP1 POP JUMP JUMPDEST PUSH1 0x0 PUSH8 0xFFFFFFFFFFFFFFFF DUP3 GT ISZERO PUSH2 0x1DCA JUMPI PUSH2 0x1DC9 PUSH2 0x1D34 JUMP JUMPDEST JUMPDEST PUSH2 0x1DD3 DUP3 PUSH2 0x18E9 JUMP JUMPDEST SWAP1 POP PUSH1 0x20 DUP2 ADD SWAP1 POP SWAP2 SWAP1 POP JUMP JUMPDEST DUP3 DUP2 DUP4 CALLDATACOPY PUSH1 0x0 DUP4 DUP4 ADD MSTORE POP POP POP JUMP JUMPDEST PUSH1 0x0 PUSH2 0x1E02 PUSH2 0x1DFD DUP5 PUSH2 0x1DAF JUMP JUMPDEST PUSH2 0x1D94 JUMP JUMPDEST SWAP1 POP DUP3 DUP2 MSTORE PUSH1 0x20 DUP2 ADD DUP5 DUP5 DUP5 ADD GT ISZERO PUSH2 0x1E1E JUMPI PUSH2 0x1E1D PUSH2 0x1D2F JUMP JUMPDEST JUMPDEST PUSH2 0x1E29 DUP5 DUP3 DUP6 PUSH2 0x1DE0 JUMP JUMPDEST POP SWAP4 SWAP3 POP POP POP JUMP JUMPDEST PUSH1 0x0 DUP3 PUSH1 0x1F DUP4 ADD SLT PUSH2 0x1E46 JUMPI PUSH2 0x1E45 PUSH2 0x1D2A JUMP JUMPDEST JUMPDEST DUP2 CALLDATALOAD PUSH2 0x1E56 DUP5 DUP3 PUSH1 0x20 DUP7 ADD PUSH2 0x1DEF JUMP JUMPDEST SWAP2 POP POP SWAP3 SWAP2 POP POP JUMP JUMPDEST PUSH1 0x4 DUP2 LT PUSH2 0x1E6C JUMPI PUSH1 0x0 DUP1 REVERT JUMPDEST POP JUMP JUMPDEST PUSH1 0x0 DUP2 CALLDATALOAD SWAP1 POP PUSH2 0x1E7E DUP2 PUSH2 0x1E5F JUMP JUMPDEST SWAP3 SWAP2 POP POP JUMP JUMPDEST PUSH1 0x0 DUP1 PUSH1 0x0 DUP1 PUSH1 0x80 DUP6 DUP8 SUB SLT ISZERO PUSH2 0x1E9E JUMPI PUSH2 0x1E9D PUSH2 0x1836 JUMP JUMPDEST JUMPDEST PUSH1 0x0 DUP6 ADD CALLDATALOAD PUSH8 0xFFFFFFFFFFFFFFFF DUP2 GT ISZERO PUSH2 0x1EBC JUMPI PUSH2 0x1EBB PUSH2 0x183B JUMP JUMPDEST JUMPDEST PUSH2 0x1EC8 DUP8 DUP3 DUP9 ADD PUSH2 0x1E31 JUMP JUMPDEST SWAP5 POP POP PUSH1 0x20 DUP6 ADD CALLDATALOAD PUSH8 0xFFFFFFFFFFFFFFFF DUP2 GT ISZERO PUSH2 0x1EE9 JUMPI PUSH2 0x1EE8 PUSH2 0x183B JUMP JUMPDEST JUMPDEST PUSH2 0x1EF5 DUP8 DUP3 DUP9 ADD PUSH2 0x1E31 JUMP JUMPDEST SWAP4 POP POP PUSH1 0x40 PUSH2 0x1F06 DUP8 DUP3 DUP9 ADD PUSH2 0x1861 JUMP JUMPDEST SWAP3 POP POP PUSH1 0x60 PUSH2 0x1F17 DUP8 DUP3 DUP9 ADD PUSH2 0x1E6F JUMP JUMPDEST SWAP2 POP POP SWAP3 SWAP6 SWAP2 SWAP5 POP SWAP3 POP JUMP JUMPDEST PUSH1 0x0 PUSH1 0x20 DUP3 ADD SWAP1 POP PUSH2 0x1F38 PUSH1 0x0 DUP4 ADD DUP5 PUSH2 0x194E JUMP JUMPDEST SWAP3 SWAP2 POP POP JUMP JUMPDEST PUSH1 0x0 PUSH1 0x40 DUP3 ADD SWAP1 POP PUSH2 0x1F53 PUSH1 0x0 DUP4 ADD DUP6 PUSH2 0x1933 JUMP JUMPDEST PUSH2 0x1F60 PUSH1 0x20 DUP4 ADD DUP5 PUSH2 0x1933 JUMP JUMPDEST SWAP4 SWAP3 POP POP POP JUMP JUMPDEST PUSH1 0x0 PUSH1 0x60 DUP3 ADD SWAP1 POP PUSH2 0x1F7C PUSH1 0x0 DUP4 ADD DUP7 PUSH2 0x194E JUMP JUMPDEST PUSH2 0x1F89 PUSH1 0x20 DUP4 ADD DUP6 PUSH2 0x1933 JUMP JUMPDEST PUSH2 0x1F96 PUSH1 0x40 DUP4 ADD DUP5 PUSH2 0x1933 JUMP JUMPDEST SWAP5 SWAP4 POP POP POP POP JUMP JUMPDEST PUSH1 0x0 PUSH20 0xFFFFFFFFFFFFFFFFFFFFFFFFFFFFFFFFFFFFFFFF DUP3 AND SWAP1 POP SWAP2 SWAP1 POP JUMP JUMPDEST PUSH1 0x0 PUSH2 0x1FC9 DUP3 PUSH2 0x1F9E JUMP JUMPDEST SWAP1 POP SWAP2 SWAP1 POP JUMP JUMPDEST PUSH2 0x1FD9 DUP2 PUSH2 0x1FBE JUMP JUMPDEST DUP2 EQ PUSH2 0x1FE4 JUMPI PUSH1 0x0 DUP1 REVERT JUMPDEST POP JUMP JUMPDEST PUSH1 0x0 DUP2 CALLDATALOAD SWAP1 POP PUSH2 0x1FF6 DUP2 PUSH2 0x1FD0 JUMP JUMPDEST SWAP3 SWAP2 POP POP JUMP JUMPDEST PUSH1 0x0 DUP1 PUSH1 0x40 DUP4 DUP6 SUB SLT ISZERO PUSH2 0x2013 JUMPI PUSH2 0x2012 PUSH2 0x1836 JUMP JUMPDEST JUMPDEST PUSH1 0x0 PUSH2 0x2021 DUP6 DUP3 DUP7 ADD PUSH2 0x1FE7 JUMP JUMPDEST SWAP3 POP POP PUSH1 0x20 PUSH2 0x2032 DUP6 DUP3 DUP7 ADD PUSH2 0x1861 JUMP JUMPDEST SWAP2 POP POP SWAP3 POP SWAP3 SWAP1 POP JUMP JUMPDEST PUSH2 0x2045 DUP2 PUSH2 0x1942 JUMP JUMPDEST DUP2 EQ PUSH2 0x2050 JUMPI PUSH1 0x0 DUP1 REVERT JUMPDEST POP JUMP JUMPDEST PUSH1 0x0 DUP2 CALLDATALOAD SWAP1 POP PUSH2 0x2062 DUP2 PUSH2 0x203C JUMP JUMPDEST SWAP3 SWAP2 POP POP JUMP JUMPDEST PUSH1 0x0 DUP1 PUSH1 0x40 DUP4 DUP6 SUB SLT ISZERO PUSH2 0x207F JUMPI PUSH2 0x207E PUSH2 0x1836 JUMP JUMPDEST JUMPDEST PUSH1 0x0 PUSH2 0x208D DUP6 DUP3 DUP7 ADD PUSH2 0x1861 JUMP JUMPDEST SWAP3 POP POP PUSH1 0x20 PUSH2 0x209E DUP6 DUP3 DUP7 ADD PUSH2 0x2053 JUMP JUMPDEST SWAP2 POP POP SWAP3 POP SWAP3 SWAP1 POP JUMP JUMPDEST PUSH1 0x0 PUSH1 0x20 DUP3 DUP5 SUB SLT ISZERO PUSH2 0x20BE JUMPI PUSH2 0x20BD PUSH2 0x1836 JUMP JUMPDEST JUMPDEST PUSH1 0x0 PUSH2 0x20CC DUP5 DUP3 DUP6 ADD PUSH2 0x1FE7 JUMP JUMPDEST SWAP2 POP POP SWAP3 SWAP2 POP POP JUMP JUMPDEST PUSH1 0x0 PUSH1 0x60 DUP3 ADD SWAP1 POP PUSH2 0x20EA PUSH1 0x0 DUP4 ADD DUP7 PUSH2 0x1933 JUMP JUMPDEST PUSH2 0x20F7 PUSH1 0x20 DUP4 ADD DUP6 PUSH2 0x194E JUMP JUMPDEST PUSH2 0x2104 PUSH1 0x40 DUP4 ADD DUP5 PUSH2 0x1933 JUMP JUMPDEST SWAP5 SWAP4 POP POP POP POP JUMP JUMPDEST PUSH1 0x0 DUP2 SWAP1 POP SWAP2 SWAP1 POP JUMP JUMPDEST PUSH1 0x0 PUSH2 0x2131 PUSH2 0x212C PUSH2 0x2127 DUP5 PUSH2 0x1F9E JUMP JUMPDEST PUSH2 0x210C JUMP JUMPDEST PUSH2 0x1F9E JUMP JUMPDEST SWAP1 POP SWAP2 SWAP1 POP JUMP JUMPDEST PUSH1 0x0 PUSH2 0x2143 DUP3 PUSH2 0x2116 JUMP JUMPDEST SWAP1 POP SWAP2 SWAP1 POP JUMP JUMPDEST PUSH1 0x0 PUSH2 0x2155 DUP3 PUSH2 0x2138 JUMP JUMPDEST SWAP1 POP SWAP2 SWAP1 POP JUMP JUMPDEST PUSH2 0x2165 DUP2 PUSH2 0x214A JUMP JUMPDEST DUP3 MSTORE POP POP JUMP JUMPDEST PUSH1 0x0 PUSH1 0x20 DUP3 ADD SWAP1 POP PUSH2 0x2180 PUSH1 0x0 DUP4 ADD DUP5 PUSH2 0x215C JUMP JUMPDEST SWAP3 SWAP2 POP POP JUMP JUMPDEST PUSH32 0x4E487B7100000000000000000000000000000000000000000000000000000000 PUSH1 0x0 MSTORE PUSH1 0x22 PUSH1 0x4 MSTORE PUSH1 0x24 PUSH1 0x0 REVERT JUMPDEST PUSH1 0x0 PUSH1 0x2 DUP3 DIV SWAP1 POP PUSH1 0x1 DUP3 AND DUP1 PUSH2 0x21CD JUMPI PUSH1 0x7F DUP3 AND SWAP2 POP JUMPDEST PUSH1 0x20 DUP3 LT DUP2 SUB PUSH2 0x21E0 JUMPI PUSH2 0x21DF PUSH2 0x2186 JUMP JUMPDEST JUMPDEST POP SWAP2 SWAP1 POP JUMP JUMPDEST PUSH32 0x537461727420696E646578206973206F7574206F6620626F756E647300000000 PUSH1 0x0 DUP3 ADD MSTORE POP JUMP JUMPDEST PUSH1 0x0 PUSH2 0x221C PUSH1 0x1C DUP4 PUSH2 0x18AE JUMP JUMPDEST SWAP2 POP PUSH2 0x2227 DUP3 PUSH2 0x21E6 JUMP JUMPDEST PUSH1 0x20 DUP3 ADD SWAP1 POP SWAP2 SWAP1 POP JUMP JUMPDEST PUSH1 0x0 PUSH1 0x20 DUP3 ADD SWAP1 POP DUP2 DUP2 SUB PUSH1 0x0 DUP4 ADD MSTORE PUSH2 0x224B DUP2 PUSH2 0x220F JUMP JUMPDEST SWAP1 POP SWAP2 SWAP1 POP JUMP JUMPDEST PUSH32 0x456E6420696E646578206973206F7574206F6620626F756E6473000000000000 PUSH1 0x0 DUP3 ADD MSTORE POP JUMP JUMPDEST PUSH1 0x0 PUSH2 0x2288 PUSH1 0x1A DUP4 PUSH2 0x18AE JUMP JUMPDEST SWAP2 POP PUSH2 0x2293 DUP3 PUSH2 0x2252 JUMP JUMPDEST PUSH1 0x20 DUP3 ADD SWAP1 POP SWAP2 SWAP1 POP JUMP JUMPDEST PUSH1 0x0 PUSH1 0x20 DUP3 ADD SWAP1 POP DUP2 DUP2 SUB PUSH1 0x0 DUP4 ADD MSTORE PUSH2 0x22B7 DUP2 PUSH2 0x227B JUMP JUMPDEST SWAP1 POP SWAP2 SWAP1 POP JUMP JUMPDEST PUSH32 0x537461727420696E646578206D757374206265206C657373207468616E20656E PUSH1 0x0 DUP3 ADD MSTORE PUSH32 0x6420696E64657800000000000000000000000000000000000000000000000000 PUSH1 0x20 DUP3 ADD MSTORE POP JUMP JUMPDEST PUSH1 0x0 PUSH2 0x231A PUSH1 0x27 DUP4 PUSH2 0x18AE JUMP JUMPDEST SWAP2 POP PUSH2 0x2325 DUP3 PUSH2 0x22BE JUMP JUMPDEST PUSH1 0x40 DUP3 ADD SWAP1 POP SWAP2 SWAP1 POP JUMP JUMPDEST PUSH1 0x0 PUSH1 0x20 DUP3 ADD SWAP1 POP DUP2 DUP2 SUB PUSH1 0x0 DUP4 ADD MSTORE PUSH2 0x2349 DUP2 PUSH2 0x230D JUMP JUMPDEST SWAP1 POP SWAP2 SWAP1 POP JUMP JUMPDEST PUSH32 0x4E487B7100000000000000000000000000000000000000000000000000000000 PUSH1 0x0 MSTORE PUSH1 0x11 PUSH1 0x4 MSTORE PUSH1 0x24 PUSH1 0x0 REVERT JUMPDEST PUSH1 0x0 PUSH2 0x238A DUP3 PUSH2 0x1840 JUMP JUMPDEST SWAP2 POP PUSH2 0x2395 DUP4 PUSH2 0x1840 JUMP JUMPDEST SWAP3 POP DUP3 DUP3 SUB SWAP1 POP DUP2 DUP2 GT ISZERO PUSH2 0x23AD JUMPI PUSH2 0x23AC PUSH2 0x2350 JUMP JUMPDEST JUMPDEST SWAP3 SWAP2 POP POP JUMP JUMPDEST PUSH1 0x0 PUSH2 0x23BE DUP3 PUSH2 0x1840 JUMP JUMPDEST SWAP2 POP PUSH2 0x23C9 DUP4 PUSH2 0x1840 JUMP JUMPDEST SWAP3 POP DUP3 DUP3 ADD SWAP1 POP DUP1 DUP3 GT ISZERO PUSH2 0x23E1 JUMPI PUSH2 0x23E0 PUSH2 0x2350 JUMP JUMPDEST JUMPDEST SWAP3 SWAP2 POP POP JUMP JUMPDEST PUSH32 0x4E487B7100000000000000000000000000000000000000000000000000000000 PUSH1 0x0 MSTORE PUSH1 0x32 PUSH1 0x4 MSTORE PUSH1 0x24 PUSH1 0x0 REVERT JUMPDEST PUSH32 0x45544820726571756972656420666F72206372656174696E672070726F706F73 PUSH1 0x0 DUP3 ADD MSTORE PUSH32 0x616C000000000000000000000000000000000000000000000000000000000000 PUSH1 0x20 DUP3 ADD MSTORE POP JUMP JUMPDEST PUSH1 0x0 PUSH2 0x2472 PUSH1 0x22 DUP4 PUSH2 0x18AE JUMP JUMPDEST SWAP2 POP PUSH2 0x247D DUP3 PUSH2 0x2416 JUMP JUMPDEST PUSH1 0x40 DUP3 ADD SWAP1 POP SWAP2 SWAP1 POP JUMP JUMPDEST PUSH1 0x0 PUSH1 0x20 DUP3 ADD SWAP1 POP DUP2 DUP2 SUB PUSH1 0x0 DUP4 ADD MSTORE PUSH2 0x24A1 DUP2 PUSH2 0x2465 JUMP JUMPDEST SWAP1 POP SWAP2 SWAP1 POP JUMP JUMPDEST PUSH1 0x0 PUSH2 0x24B3 DUP3 PUSH2 0x1840 JUMP JUMPDEST SWAP2 POP PUSH2 0x24BE DUP4 PUSH2 0x1840 JUMP JUMPDEST SWAP3 POP DUP3 DUP3 MUL PUSH2 0x24CC DUP2 PUSH2 0x1840 JUMP JUMPDEST SWAP2 POP DUP3 DUP3 DIV DUP5 EQ DUP4 ISZERO OR PUSH2 0x24E3 JUMPI PUSH2 0x24E2 PUSH2 0x2350 JUMP JUMPDEST JUMPDEST POP SWAP3 SWAP2 POP POP JUMP JUMPDEST PUSH1 0x0 DUP2 SWAP1 POP DUP2 PUSH1 0x0 MSTORE PUSH1 0x20 PUSH1 0x0 KECCAK256 SWAP1 POP SWAP2 SWAP1 POP JUMP JUMPDEST PUSH1 0x0 PUSH1 0x20 PUSH1 0x1F DUP4 ADD DIV SWAP1 POP SWAP2 SWAP1 POP JUMP JUMPDEST PUSH1 0x0 DUP3 DUP3 SHL SWAP1 POP SWAP3 SWAP2 POP POP JUMP JUMPDEST PUSH1 0x0 PUSH1 0x8 DUP4 MUL PUSH2 0x254C PUSH32 0xFFFFFFFFFFFFFFFFFFFFFFFFFFFFFFFFFFFFFFFFFFFFFFFFFFFFFFFFFFFFFFFF DUP3 PUSH2 0x250F JUMP JUMPDEST PUSH2 0x2556 DUP7 DUP4 PUSH2 0x250F JUMP JUMPDEST SWAP6 POP DUP1 NOT DUP5 AND SWAP4 POP DUP1 DUP7 AND DUP5 OR SWAP3 POP POP POP SWAP4 SWAP3 POP POP POP JUMP JUMPDEST PUSH1 0x0 PUSH2 0x2589 PUSH2 0x2584 PUSH2 0x257F DUP5 PUSH2 0x1840 JUMP JUMPDEST PUSH2 0x210C JUMP JUMPDEST PUSH2 0x1840 JUMP JUMPDEST SWAP1 POP SWAP2 SWAP1 POP JUMP JUMPDEST PUSH1 0x0 DUP2 SWAP1 POP SWAP2 SWAP1 POP JUMP JUMPDEST PUSH2 0x25A3 DUP4 PUSH2 0x256E JUMP JUMPDEST PUSH2 0x25B7 PUSH2 0x25AF DUP3 PUSH2 0x2590 JUMP JUMPDEST DUP5 DUP5 SLOAD PUSH2 0x251C JUMP JUMPDEST DUP3 SSTORE POP POP POP POP JUMP JUMPDEST PUSH1 0x0 SWAP1 JUMP JUMPDEST PUSH2 0x25CC PUSH2 0x25BF JUMP JUMPDEST PUSH2 0x25D7 DUP2 DUP5 DUP5 PUSH2 0x259A JUMP JUMPDEST POP POP POP JUMP JUMPDEST JUMPDEST DUP2 DUP2 LT ISZERO PUSH2 0x25FB JUMPI PUSH2 0x25F0 PUSH1 0x0 DUP3 PUSH2 0x25C4 JUMP JUMPDEST PUSH1 0x1 DUP2 ADD SWAP1 POP PUSH2 0x25DD JUMP JUMPDEST POP POP JUMP JUMPDEST PUSH1 0x1F DUP3 GT ISZERO PUSH2 0x2640 JUMPI PUSH2 0x2611 DUP2 PUSH2 0x24EA JUMP JUMPDEST PUSH2 0x261A DUP5 PUSH2 0x24FF JUMP JUMPDEST DUP2 ADD PUSH1 0x20 DUP6 LT ISZERO PUSH2 0x2629 JUMPI DUP2 SWAP1 POP JUMPDEST PUSH2 0x263D PUSH2 0x2635 DUP6 PUSH2 0x24FF JUMP JUMPDEST DUP4 ADD DUP3 PUSH2 0x25DC JUMP JUMPDEST POP POP JUMPDEST POP POP POP JUMP JUMPDEST PUSH1 0x0 DUP3 DUP3 SHR SWAP1 POP SWAP3 SWAP2 POP POP JUMP JUMPDEST PUSH1 0x0 PUSH2 0x2663 PUSH1 0x0 NOT DUP5 PUSH1 0x8 MUL PUSH2 0x2645 JUMP JUMPDEST NOT DUP1 DUP4 AND SWAP2 POP POP SWAP3 SWAP2 POP POP JUMP JUMPDEST PUSH1 0x0 PUSH2 0x267C DUP4 DUP4 PUSH2 0x2652 JUMP JUMPDEST SWAP2 POP DUP3 PUSH1 0x2 MUL DUP3 OR SWAP1 POP SWAP3 SWAP2 POP POP JUMP JUMPDEST PUSH2 0x2695 DUP3 PUSH2 0x18A3 JUMP JUMPDEST PUSH8 0xFFFFFFFFFFFFFFFF DUP2 GT ISZERO PUSH2 0x26AE JUMPI PUSH2 0x26AD PUSH2 0x1D34 JUMP JUMPDEST JUMPDEST PUSH2 0x26B8 DUP3 SLOAD PUSH2 0x21B5 JUMP JUMPDEST PUSH2 0x26C3 DUP3 DUP3 DUP6 PUSH2 0x25FF JUMP JUMPDEST PUSH1 0x0 PUSH1 0x20 SWAP1 POP PUSH1 0x1F DUP4 GT PUSH1 0x1 DUP2 EQ PUSH2 0x26F6 JUMPI PUSH1 0x0 DUP5 ISZERO PUSH2 0x26E4 JUMPI DUP3 DUP8 ADD MLOAD SWAP1 POP JUMPDEST PUSH2 0x26EE DUP6 DUP3 PUSH2 0x2670 JUMP JUMPDEST DUP7 SSTORE POP PUSH2 0x2756 JUMP JUMPDEST PUSH1 0x1F NOT DUP5 AND PUSH2 0x2704 DUP7 PUSH2 0x24EA JUMP JUMPDEST PUSH1 0x0 JUMPDEST DUP3 DUP2 LT ISZERO PUSH2 0x272C JUMPI DUP5 DUP10 ADD MLOAD DUP3 SSTORE PUSH1 0x1 DUP3 ADD SWAP2 POP PUSH1 0x20 DUP6 ADD SWAP5 POP PUSH1 0x20 DUP2 ADD SWAP1 POP PUSH2 0x2707 JUMP JUMPDEST DUP7 DUP4 LT ISZERO PUSH2 0x2749 JUMPI DUP5 DUP10 ADD MLOAD PUSH2 0x2745 PUSH1 0x1F DUP10 AND DUP3 PUSH2 0x2652 JUMP JUMPDEST DUP4 SSTORE POP JUMPDEST PUSH1 0x1 PUSH1 0x2 DUP9 MUL ADD DUP9 SSTORE POP POP POP JUMPDEST POP POP POP POP POP POP JUMP JUMPDEST PUSH1 0x0 PUSH1 0x60 DUP3 ADD SWAP1 POP PUSH2 0x2773 PUSH1 0x0 DUP4 ADD DUP7 PUSH2 0x1933 JUMP JUMPDEST DUP2 DUP2 SUB PUSH1 0x20 DUP4 ADD MSTORE PUSH2 0x2785 DUP2 DUP6 PUSH2 0x18FA JUMP JUMPDEST SWAP1 POP PUSH2 0x2794 PUSH1 0x40 DUP4 ADD DUP5 PUSH2 0x1933 JUMP JUMPDEST SWAP5 SWAP4 POP POP POP POP JUMP JUMPDEST PUSH1 0x0 PUSH2 0x27A7 DUP3 PUSH2 0x1840 JUMP JUMPDEST SWAP2 POP PUSH32 0xFFFFFFFFFFFFFFFFFFFFFFFFFFFFFFFFFFFFFFFFFFFFFFFFFFFFFFFFFFFFFFFF DUP3 SUB PUSH2 0x27D9 JUMPI PUSH2 0x27D8 PUSH2 0x2350 JUMP JUMPDEST JUMPDEST PUSH1 0x1 DUP3 ADD SWAP1 POP SWAP2 SWAP1 POP JUMP JUMPDEST PUSH32 0x4E487B7100000000000000000000000000000000000000000000000000000000 PUSH1 0x0 MSTORE PUSH1 0x12 PUSH1 0x4 MSTORE PUSH1 0x24 PUSH1 0x0 REVERT JUMPDEST PUSH1 0x0 PUSH2 0x281E DUP3 PUSH2 0x1840 JUMP JUMPDEST SWAP2 POP PUSH2 0x2829 DUP4 PUSH2 0x1840 JUMP JUMPDEST SWAP3 POP DUP3 PUSH2 0x2839 JUMPI PUSH2 0x2838 PUSH2 0x27E4 JUMP JUMPDEST JUMPDEST DUP3 DUP3 DIV SWAP1 POP SWAP3 SWAP2 POP POP JUMP JUMPDEST PUSH32 0x4865792069747320616E2061637469766520766F74696E6720706572696F642C PUSH1 0x0 DUP3 ADD MSTORE PUSH32 0x20796F752063616E6E6F7420766F7465206E6F772E0000000000000000000000 PUSH1 0x20 DUP3 ADD MSTORE POP JUMP JUMPDEST PUSH1 0x0 PUSH2 0x28A0 PUSH1 0x35 DUP4 PUSH2 0x18AE JUMP JUMPDEST SWAP2 POP PUSH2 0x28AB DUP3 PUSH2 0x2844 JUMP JUMPDEST PUSH1 0x40 DUP3 ADD SWAP1 POP SWAP2 SWAP1 POP JUMP JUMPDEST PUSH1 0x0 PUSH1 0x20 DUP3 ADD SWAP1 POP DUP2 DUP2 SUB PUSH1 0x0 DUP4 ADD MSTORE PUSH2 0x28CF DUP2 PUSH2 0x2893 JUMP JUMPDEST SWAP1 POP SWAP2 SWAP1 POP JUMP JUMPDEST PUSH2 0x28DF DUP2 PUSH2 0x1FBE JUMP JUMPDEST DUP3 MSTORE POP POP JUMP JUMPDEST PUSH1 0x0 PUSH1 0x40 DUP3 ADD SWAP1 POP PUSH2 0x28FA PUSH1 0x0 DUP4 ADD DUP6 PUSH2 0x28D6 JUMP JUMPDEST PUSH2 0x2907 PUSH1 0x20 DUP4 ADD DUP5 PUSH2 0x1933 JUMP JUMPDEST SWAP4 SWAP3 POP POP POP JUMP JUMPDEST PUSH1 0x0 PUSH1 0x80 DUP3 ADD SWAP1 POP PUSH2 0x2923 PUSH1 0x0 DUP4 ADD DUP8 PUSH2 0x1933 JUMP JUMPDEST PUSH2 0x2930 PUSH1 0x20 DUP4 ADD DUP7 PUSH2 0x28D6 JUMP JUMPDEST PUSH2 0x293D PUSH1 0x40 DUP4 ADD DUP6 PUSH2 0x1933 JUMP JUMPDEST PUSH2 0x294A PUSH1 0x60 DUP4 ADD DUP5 PUSH2 0x194E JUMP JUMPDEST SWAP6 SWAP5 POP POP POP POP POP JUMP INVALID LOG2 PUSH5 0x6970667358 0x22 SLT KECCAK256 KECCAK256 0x1F BALANCE 0xD0 0xC0 0x1E 0x4C 0xD4 0xE0 DUP4 0xAE 0xA9 RETURN DUP6 ADDMOD 0xEB DUP11 0xC2 KECCAK256 EXTCODESIZE GAS RETURN PUSH24 0xEED99BB05D174DC49E64736F6C634300081A003300000000 "},"methodIdentifiers":{"createProposal(string,string,uint256,uint8)":"70f6e05d","endVoting(uint256)":"649f89a5","getProposalOutcome(uint256)":"6fdb6f7c","getProposals(uint256,uint256)":"5e3b4365","getProposalsCount()":"98e527d3","getVotingProgress(uint256)":"9baf1c97","governanceToken()":"f96dae0a","hasMetQuorum(uint256)":"7a7c153b","isVotingPeriodActive()":"9fcc5ce4","proposalCount()":"da35c664","proposalOutcomes(uint256)":"a9c0310d","proposals(uint256)":"013cf08b","registerShareholder(address,uint256)":"afafa0cf","shares(address)":"ce7c2ac2","totalShares()":"3a98ef39","updateShares(address,uint256)":"e5d0821f","vote(uint256,bool)":"c9d27afe","votingEndTime()":"1ea736e0","votingHistory(address,uint256)":"d09c34f2"}}}}}