{
  "_format": "hh-sol-artifact-1",
  "contractName": "Voting",
  "sourceName": "contracts/voting.sol",
  "abi": [
    {
      "inputs": [
        {
          "internalType": "string[]",
          "name": "candidateNames",
          "type": "string[]"
        }
      ],
      "stateMutability": "nonpayable",
      "type": "constructor"
    },
    {
      "inputs": [
        {
          "internalType": "uint256",
          "name": "",
          "type": "uint256"
        }
      ],
      "name": "candidates",
      "outputs": [
        {
          "internalType": "string",
          "name": "name",
          "type": "string"
        },
        {
          "internalType": "uint256",
          "name": "voteCount",
          "type": "uint256"
        }
      ],
      "stateMutability": "view",
      "type": "function"
    },
    {
      "inputs": [],
      "name": "getCandidates",
      "outputs": [
        {
          "components": [
            {
              "internalType": "string",
              "name": "name",
              "type": "string"
            },
            {
              "internalType": "uint256",
              "name": "voteCount",
              "type": "uint256"
            }
          ],
          "internalType": "struct Voting.Candidate[]",
          "name": "",
          "type": "tuple[]"
        }
      ],
      "stateMutability": "view",
      "type": "function"
    },
    {
      "inputs": [
        {
          "internalType": "address",
          "name": "",
          "type": "address"
        }
      ],
      "name": "hasVoted",
      "outputs": [
        {
          "internalType": "bool",
          "name": "",
          "type": "bool"
        }
      ],
      "stateMutability": "view",
      "type": "function"
    },
    {
      "inputs": [],
      "name": "owner",
      "outputs": [
        {
          "internalType": "address",
          "name": "",
          "type": "address"
        }
      ],
      "stateMutability": "view",
      "type": "function"
    },
    {
      "inputs": [
        {
          "internalType": "uint256",
          "name": "candidateIndex",
          "type": "uint256"
        }
      ],
      "name": "vote",
      "outputs": [],
      "stateMutability": "nonpayable",
      "type": "function"
    }
  ],
  "bytecode": "0x608060405234801561001057600080fd5b5060405161110d38038061110d8339818101604052810190610032919061036a565b336000806101000a81548173ffffffffffffffffffffffffffffffffffffffff021916908373ffffffffffffffffffffffffffffffffffffffff16021790555060005b8151811015610108576002604051806040016040528084848151811061009e5761009d6103b3565b5b602002602001015181526020016000815250908060018154018082558091505060019003906000526020600020906002020160009091909190915060008201518160000190816100ee9190610603565b506020820151816001015550508080600101915050610075565b50506106d5565b6000604051905090565b600080fd5b600080fd5b600080fd5b6000601f19601f8301169050919050565b7f4e487b7100000000000000000000000000000000000000000000000000000000600052604160045260246000fd5b61017182610128565b810181811067ffffffffffffffff821117156101905761018f610139565b5b80604052505050565b60006101a361010f565b90506101af8282610168565b919050565b600067ffffffffffffffff8211156101cf576101ce610139565b5b602082029050602081019050919050565b600080fd5b600080fd5b600067ffffffffffffffff82111561020557610204610139565b5b61020e82610128565b9050602081019050919050565b60005b8381101561023957808201518184015260208101905061021e565b60008484015250505050565b6000610258610253846101ea565b610199565b905082815260208101848484011115610274576102736101e5565b5b61027f84828561021b565b509392505050565b600082601f83011261029c5761029b610123565b5b81516102ac848260208601610245565b91505092915050565b60006102c86102c3846101b4565b610199565b905080838252602082019050602084028301858111156102eb576102ea6101e0565b5b835b8181101561033257805167ffffffffffffffff8111156103105761030f610123565b5b80860161031d8982610287565b855260208501945050506020810190506102ed565b5050509392505050565b600082601f83011261035157610350610123565b5b81516103618482602086016102b5565b91505092915050565b6000602082840312156103805761037f610119565b5b600082015167ffffffffffffffff81111561039e5761039d61011e565b5b6103aa8482850161033c565b91505092915050565b7f4e487b7100000000000000000000000000000000000000000000000000000000600052603260045260246000fd5b600081519050919050565b7f4e487b7100000000000000000000000000000000000000000000000000000000600052602260045260246000fd5b6000600282049050600182168061043457607f821691505b602082108103610447576104466103ed565b5b50919050565b60008190508160005260206000209050919050565b60006020601f8301049050919050565b600082821b905092915050565b6000600883026104af7fffffffffffffffffffffffffffffffffffffffffffffffffffffffffffffffff82610472565b6104b98683610472565b95508019841693508086168417925050509392505050565b6000819050919050565b6000819050919050565b60006105006104fb6104f6846104d1565b6104db565b6104d1565b9050919050565b6000819050919050565b61051a836104e5565b61052e61052682610507565b84845461047f565b825550505050565b600090565b610543610536565b61054e818484610511565b505050565b5b818110156105725761056760008261053b565b600181019050610554565b5050565b601f8211156105b7576105888161044d565b61059184610462565b810160208510156105a0578190505b6105b46105ac85610462565b830182610553565b50505b505050565b600082821c905092915050565b60006105da600019846008026105bc565b1980831691505092915050565b60006105f383836105c9565b9150826002028217905092915050565b61060c826103e2565b67ffffffffffffffff81111561062557610624610139565b5b61062f825461041c565b61063a828285610576565b600060209050601f83116001811461066d576000841561065b578287015190505b61066585826105e7565b8655506106cd565b601f19841661067b8661044d565b60005b828110156106a35784890151825560018201915060208501945060208101905061067e565b868310156106c057848901516106bc601f8916826105c9565b8355505b6001600288020188555050505b505050505050565b610a29806106e46000396000f3fe608060405234801561001057600080fd5b50600436106100575760003560e01c80630121b93f1461005c57806306a49fce1461007857806309eef43e146100965780633477ee2e146100c65780638da5cb5b146100f7575b600080fd5b610076600480360381019061007191906104b4565b610115565b005b61008061027e565b60405161008d919061067f565b60405180910390f35b6100b060048036038101906100ab91906106ff565b610379565b6040516100bd9190610747565b60405180910390f35b6100e060048036038101906100db91906104b4565b610399565b6040516100ee9291906107bb565b60405180910390f35b6100ff610455565b60405161010c91906107fa565b60405180910390f35b600160003373ffffffffffffffffffffffffffffffffffffffff1673ffffffffffffffffffffffffffffffffffffffff16815260200190815260200160002060009054906101000a900460ff16156101a2576040517f08c379a000000000000000000000000000000000000000000000000000000000815260040161019990610861565b60405180910390fd5b60028054905081106101e9576040517f08c379a00000000000000000000000000000000000000000000000000000000081526004016101e0906108cd565b60405180910390fd5b60018060003373ffffffffffffffffffffffffffffffffffffffff1673ffffffffffffffffffffffffffffffffffffffff16815260200190815260200160002060006101000a81548160ff02191690831515021790555060028181548110610254576102536108ed565b5b906000526020600020906002020160010160008154809291906102769061094b565b919050555050565b60606002805480602002602001604051908101604052809291908181526020016000905b8282101561037057838290600052602060002090600202016040518060400160405290816000820180546102d5906109c2565b80601f0160208091040260200160405190810160405280929190818152602001828054610301906109c2565b801561034e5780601f106103235761010080835404028352916020019161034e565b820191906000526020600020905b81548152906001019060200180831161033157829003601f168201915b50505050508152602001600182015481525050815260200190600101906102a2565b50505050905090565b60016020528060005260406000206000915054906101000a900460ff1681565b600281815481106103a957600080fd5b90600052602060002090600202016000915090508060000180546103cc906109c2565b80601f01602080910402602001604051908101604052809291908181526020018280546103f8906109c2565b80156104455780601f1061041a57610100808354040283529160200191610445565b820191906000526020600020905b81548152906001019060200180831161042857829003601f168201915b5050505050908060010154905082565b60008054906101000a900473ffffffffffffffffffffffffffffffffffffffff1681565b600080fd5b6000819050919050565b6104918161047e565b811461049c57600080fd5b50565b6000813590506104ae81610488565b92915050565b6000602082840312156104ca576104c9610479565b5b60006104d88482850161049f565b91505092915050565b600081519050919050565b600082825260208201905092915050565b6000819050602082019050919050565b600081519050919050565b600082825260208201905092915050565b60005b8381101561054757808201518184015260208101905061052c565b60008484015250505050565b6000601f19601f8301169050919050565b600061056f8261050d565b6105798185610518565b9350610589818560208601610529565b61059281610553565b840191505092915050565b6105a68161047e565b82525050565b600060408301600083015184820360008601526105c98282610564565b91505060208301516105de602086018261059d565b508091505092915050565b60006105f583836105ac565b905092915050565b6000602082019050919050565b6000610615826104e1565b61061f81856104ec565b935083602082028501610631856104fd565b8060005b8581101561066d578484038952815161064e85826105e9565b9450610659836105fd565b925060208a01995050600181019050610635565b50829750879550505050505092915050565b60006020820190508181036000830152610699818461060a565b905092915050565b600073ffffffffffffffffffffffffffffffffffffffff82169050919050565b60006106cc826106a1565b9050919050565b6106dc816106c1565b81146106e757600080fd5b50565b6000813590506106f9816106d3565b92915050565b60006020828403121561071557610714610479565b5b6000610723848285016106ea565b91505092915050565b60008115159050919050565b6107418161072c565b82525050565b600060208201905061075c6000830184610738565b92915050565b600082825260208201905092915050565b600061077e8261050d565b6107888185610762565b9350610798818560208601610529565b6107a181610553565b840191505092915050565b6107b58161047e565b82525050565b600060408201905081810360008301526107d58185610773565b90506107e460208301846107ac565b9392505050565b6107f4816106c1565b82525050565b600060208201905061080f60008301846107eb565b92915050565b7f596f75206861766520616c726561647920766f7465642e000000000000000000600082015250565b600061084b601783610762565b915061085682610815565b602082019050919050565b6000602082019050818103600083015261087a8161083e565b9050919050565b7f496e76616c69642063616e6469646174652e0000000000000000000000000000600082015250565b60006108b7601283610762565b91506108c282610881565b602082019050919050565b600060208201905081810360008301526108e6816108aa565b9050919050565b7f4e487b7100000000000000000000000000000000000000000000000000000000600052603260045260246000fd5b7f4e487b7100000000000000000000000000000000000000000000000000000000600052601160045260246000fd5b60006109568261047e565b91507fffffffffffffffffffffffffffffffffffffffffffffffffffffffffffffffff82036109885761098761091c565b5b600182019050919050565b7f4e487b7100000000000000000000000000000000000000000000000000000000600052602260045260246000fd5b600060028204905060018216806109da57607f821691505b6020821081036109ed576109ec610993565b5b5091905056fea264697066735822122078dca003dcdde8213470acc26bbf83bc68451f5612c32401b67cf84ad635c99164736f6c634300081a0033",
  "linkReferences": {},
  "deployedLinkReferences": {}
}