{
  "_format": "hh-sol-artifact-1",
  "contractName": "VotingContract",
  "sourceName": "contracts/smartContract.sol",
  "abi": [
    {
      "inputs": [
        {
          "internalType": "address[]",
          "name": "initialAdmins",
          "type": "address[]"
        },
        {
          "internalType": "address",
          "name": "_tokenAddress",
          "type": "address"
        }
      ],
      "stateMutability": "nonpayable",
      "type": "constructor"
    },
    {
      "anonymous": false,
      "inputs": [
        {
          "indexed": false,
          "internalType": "uint256",
          "name": "proposalId",
          "type": "uint256"
        },
        {
          "indexed": false,
          "internalType": "string",
          "name": "description",
          "type": "string"
        },
        {
          "indexed": false,
          "internalType": "uint256",
          "name": "votingEndTime",
          "type": "uint256"
        }
      ],
      "name": "ProposalCreated",
      "type": "event"
    },
    {
      "anonymous": false,
      "inputs": [
        {
          "indexed": false,
          "internalType": "address",
          "name": "voter",
          "type": "address"
        },
        {
          "indexed": false,
          "internalType": "uint256",
          "name": "rewardAmount",
          "type": "uint256"
        }
      ],
      "name": "RewardIssued",
      "type": "event"
    },
    {
      "anonymous": false,
      "inputs": [
        {
          "indexed": false,
          "internalType": "address",
          "name": "voter",
          "type": "address"
        },
        {
          "indexed": false,
          "internalType": "uint256",
          "name": "newShares",
          "type": "uint256"
        }
      ],
      "name": "SharesUpdated",
      "type": "event"
    },
    {
      "anonymous": false,
      "inputs": [
        {
          "indexed": false,
          "internalType": "uint256",
          "name": "proposalId",
          "type": "uint256"
        },
        {
          "indexed": false,
          "internalType": "address",
          "name": "voter",
          "type": "address"
        },
        {
          "indexed": false,
          "internalType": "uint256",
          "name": "weight",
          "type": "uint256"
        },
        {
          "indexed": false,
          "internalType": "bool",
          "name": "voteFor",
          "type": "bool"
        }
      ],
      "name": "VoteCast",
      "type": "event"
    },
    {
      "inputs": [
        {
          "internalType": "address",
          "name": "newAdmin",
          "type": "address"
        }
      ],
      "name": "addAdmin",
      "outputs": [],
      "stateMutability": "nonpayable",
      "type": "function"
    },
    {
      "inputs": [
        {
          "internalType": "string",
          "name": "_title",
          "type": "string"
        },
        {
          "internalType": "string",
          "name": "_description",
          "type": "string"
        }
      ],
      "name": "addProposal",
      "outputs": [],
      "stateMutability": "nonpayable",
      "type": "function"
    },
    {
      "inputs": [
        {
          "internalType": "address",
          "name": "",
          "type": "address"
        }
      ],
      "name": "admins",
      "outputs": [
        {
          "internalType": "bool",
          "name": "",
          "type": "bool"
        }
      ],
      "stateMutability": "view",
      "type": "function"
    },
    {
      "inputs": [
        {
          "internalType": "string",
          "name": "title",
          "type": "string"
        },
        {
          "internalType": "string",
          "name": "description",
          "type": "string"
        },
        {
          "internalType": "uint256",
          "name": "durationInMinutes",
          "type": "uint256"
        },
        {
          "internalType": "enum VotingContract.QuorumType",
          "name": "quorumType",
          "type": "uint8"
        }
      ],
      "name": "createProposal",
      "outputs": [],
      "stateMutability": "payable",
      "type": "function"
    },
    {
      "inputs": [
        {
          "internalType": "uint256",
          "name": "proposalId",
          "type": "uint256"
        }
      ],
      "name": "endVoting",
      "outputs": [],
      "stateMutability": "nonpayable",
      "type": "function"
    },
    {
      "inputs": [
        {
          "internalType": "uint256",
          "name": "proposalId",
          "type": "uint256"
        }
      ],
      "name": "getProposalOutcome",
      "outputs": [
        {
          "components": [
            {
              "internalType": "bool",
              "name": "passed",
              "type": "bool"
            },
            {
              "internalType": "uint256",
              "name": "votesFor",
              "type": "uint256"
            },
            {
              "internalType": "uint256",
              "name": "votesAgainst",
              "type": "uint256"
            }
          ],
          "internalType": "struct VotingContract.ProposalOutcome",
          "name": "",
          "type": "tuple"
        }
      ],
      "stateMutability": "view",
      "type": "function"
    },
    {
      "inputs": [],
      "name": "getProposals",
      "outputs": [
        {
          "internalType": "uint256[]",
          "name": "ids",
          "type": "uint256[]"
        },
        {
          "internalType": "string[]",
          "name": "titles",
          "type": "string[]"
        },
        {
          "internalType": "string[]",
          "name": "descriptions",
          "type": "string[]"
        },
        {
          "internalType": "uint256[]",
          "name": "votesForArray",
          "type": "uint256[]"
        },
        {
          "internalType": "uint256[]",
          "name": "votesAgainstArray",
          "type": "uint256[]"
        },
        {
          "internalType": "bool[]",
          "name": "actives",
          "type": "bool[]"
        }
      ],
      "stateMutability": "view",
      "type": "function"
    },
    {
      "inputs": [],
      "name": "getProposalsCount",
      "outputs": [
        {
          "internalType": "uint256",
          "name": "",
          "type": "uint256"
        }
      ],
      "stateMutability": "view",
      "type": "function"
    },
    {
      "inputs": [
        {
          "internalType": "address",
          "name": "voter",
          "type": "address"
        }
      ],
      "name": "getShares",
      "outputs": [
        {
          "internalType": "uint256",
          "name": "",
          "type": "uint256"
        }
      ],
      "stateMutability": "view",
      "type": "function"
    },
    {
      "inputs": [
        {
          "internalType": "uint256",
          "name": "proposalId",
          "type": "uint256"
        }
      ],
      "name": "getTotalSharesVoted",
      "outputs": [
        {
          "internalType": "uint256",
          "name": "",
          "type": "uint256"
        }
      ],
      "stateMutability": "view",
      "type": "function"
    },
    {
      "inputs": [
        {
          "internalType": "address",
          "name": "voter",
          "type": "address"
        }
      ],
      "name": "getUserProfile",
      "outputs": [
        {
          "internalType": "uint256",
          "name": "",
          "type": "uint256"
        },
        {
          "components": [
            {
              "internalType": "uint256",
              "name": "proposalId",
              "type": "uint256"
            },
            {
              "internalType": "bool",
              "name": "votedFor",
              "type": "bool"
            },
            {
              "internalType": "uint256",
              "name": "voteWeight",
              "type": "uint256"
            }
          ],
          "internalType": "struct VotingContract.VotingRecord[]",
          "name": "",
          "type": "tuple[]"
        }
      ],
      "stateMutability": "view",
      "type": "function"
    },
    {
      "inputs": [
        {
          "internalType": "uint256",
          "name": "proposalId",
          "type": "uint256"
        }
      ],
      "name": "getVotingProgress",
      "outputs": [
        {
          "internalType": "uint256",
          "name": "progress",
          "type": "uint256"
        },
        {
          "internalType": "uint256",
          "name": "requiredQuorum",
          "type": "uint256"
        }
      ],
      "stateMutability": "view",
      "type": "function"
    },
    {
      "inputs": [],
      "name": "governanceToken",
      "outputs": [
        {
          "internalType": "contract GovernanceToken",
          "name": "",
          "type": "address"
        }
      ],
      "stateMutability": "view",
      "type": "function"
    },
    {
      "inputs": [
        {
          "internalType": "uint256",
          "name": "proposalId",
          "type": "uint256"
        }
      ],
      "name": "hasMetQuorum",
      "outputs": [
        {
          "internalType": "bool",
          "name": "",
          "type": "bool"
        }
      ],
      "stateMutability": "view",
      "type": "function"
    },
    {
      "inputs": [
        {
          "internalType": "address",
          "name": "user",
          "type": "address"
        }
      ],
      "name": "isAdmin",
      "outputs": [
        {
          "internalType": "bool",
          "name": "",
          "type": "bool"
        }
      ],
      "stateMutability": "view",
      "type": "function"
    },
    {
      "inputs": [],
      "name": "isVotingPeriodActive",
      "outputs": [
        {
          "internalType": "bool",
          "name": "",
          "type": "bool"
        }
      ],
      "stateMutability": "view",
      "type": "function"
    },
    {
      "inputs": [],
      "name": "proposalCount",
      "outputs": [
        {
          "internalType": "uint256",
          "name": "",
          "type": "uint256"
        }
      ],
      "stateMutability": "view",
      "type": "function"
    },
    {
      "inputs": [
        {
          "internalType": "uint256",
          "name": "",
          "type": "uint256"
        }
      ],
      "name": "proposalOutcomes",
      "outputs": [
        {
          "internalType": "bool",
          "name": "passed",
          "type": "bool"
        },
        {
          "internalType": "uint256",
          "name": "votesFor",
          "type": "uint256"
        },
        {
          "internalType": "uint256",
          "name": "votesAgainst",
          "type": "uint256"
        }
      ],
      "stateMutability": "view",
      "type": "function"
    },
    {
      "inputs": [
        {
          "internalType": "uint256",
          "name": "",
          "type": "uint256"
        }
      ],
      "name": "proposals",
      "outputs": [
        {
          "internalType": "string",
          "name": "title",
          "type": "string"
        },
        {
          "internalType": "string",
          "name": "description",
          "type": "string"
        },
        {
          "internalType": "uint256",
          "name": "votesFor",
          "type": "uint256"
        },
        {
          "internalType": "uint256",
          "name": "votesAgainst",
          "type": "uint256"
        },
        {
          "internalType": "bool",
          "name": "active",
          "type": "bool"
        },
        {
          "internalType": "uint256",
          "name": "votingEndTime",
          "type": "uint256"
        },
        {
          "internalType": "uint256",
          "name": "totalVotesCast",
          "type": "uint256"
        },
        {
          "internalType": "enum VotingContract.QuorumType",
          "name": "quorumType",
          "type": "uint8"
        }
      ],
      "stateMutability": "view",
      "type": "function"
    },
    {
      "inputs": [
        {
          "internalType": "address",
          "name": "voter",
          "type": "address"
        },
        {
          "internalType": "uint256",
          "name": "shareCount",
          "type": "uint256"
        }
      ],
      "name": "registerShareholder",
      "outputs": [],
      "stateMutability": "nonpayable",
      "type": "function"
    },
    {
      "inputs": [
        {
          "internalType": "address",
          "name": "admin",
          "type": "address"
        }
      ],
      "name": "removeAdmin",
      "outputs": [],
      "stateMutability": "nonpayable",
      "type": "function"
    },
    {
      "inputs": [
        {
          "internalType": "address",
          "name": "",
          "type": "address"
        }
      ],
      "name": "shares",
      "outputs": [
        {
          "internalType": "uint256",
          "name": "",
          "type": "uint256"
        }
      ],
      "stateMutability": "view",
      "type": "function"
    },
    {
      "inputs": [],
      "name": "totalShares",
      "outputs": [
        {
          "internalType": "uint256",
          "name": "",
          "type": "uint256"
        }
      ],
      "stateMutability": "view",
      "type": "function"
    },
    {
      "inputs": [
        {
          "internalType": "address",
          "name": "voter",
          "type": "address"
        },
        {
          "internalType": "uint256",
          "name": "newShares",
          "type": "uint256"
        }
      ],
      "name": "updateShares",
      "outputs": [],
      "stateMutability": "nonpayable",
      "type": "function"
    },
    {
      "inputs": [
        {
          "internalType": "uint256",
          "name": "proposalId",
          "type": "uint256"
        },
        {
          "internalType": "bool",
          "name": "voteFor",
          "type": "bool"
        }
      ],
      "name": "vote",
      "outputs": [],
      "stateMutability": "nonpayable",
      "type": "function"
    },
    {
      "inputs": [],
      "name": "votingEndTime",
      "outputs": [
        {
          "internalType": "uint256",
          "name": "",
          "type": "uint256"
        }
      ],
      "stateMutability": "view",
      "type": "function"
    },
    {
      "inputs": [
        {
          "internalType": "address",
          "name": "",
          "type": "address"
        },
        {
          "internalType": "uint256",
          "name": "",
          "type": "uint256"
        }
      ],
      "name": "votingHistory",
      "outputs": [
        {
          "internalType": "uint256",
          "name": "proposalId",
          "type": "uint256"
        },
        {
          "internalType": "bool",
          "name": "votedFor",
          "type": "bool"
        },
        {
          "internalType": "uint256",
          "name": "voteWeight",
          "type": "uint256"
        }
      ],
      "stateMutability": "view",
      "type": "function"
    }
  ],
  "bytecode": "0x608060405234801561001057600080fd5b50604051613783380380613783833981810160405281019061003291906102d1565b80600960006101000a81548173ffffffffffffffffffffffffffffffffffffffff021916908373ffffffffffffffffffffffffffffffffffffffff16021790555060005b82518110156100fe576001600360008584815181106100985761009761032d565b5b602002602001015173ffffffffffffffffffffffffffffffffffffffff1673ffffffffffffffffffffffffffffffffffffffff16815260200190815260200160002060006101000a81548160ff0219169083151502179055508080600101915050610076565b50505061035c565b6000604051905090565b600080fd5b600080fd5b600080fd5b6000601f19601f8301169050919050565b7f4e487b7100000000000000000000000000000000000000000000000000000000600052604160045260246000fd5b6101688261011f565b810181811067ffffffffffffffff8211171561018757610186610130565b5b80604052505050565b600061019a610106565b90506101a6828261015f565b919050565b600067ffffffffffffffff8211156101c6576101c5610130565b5b602082029050602081019050919050565b600080fd5b600073ffffffffffffffffffffffffffffffffffffffff82169050919050565b6000610207826101dc565b9050919050565b610217816101fc565b811461022257600080fd5b50565b6000815190506102348161020e565b92915050565b600061024d610248846101ab565b610190565b905080838252602082019050602084028301858111156102705761026f6101d7565b5b835b8181101561029957806102858882610225565b845260208401935050602081019050610272565b5050509392505050565b600082601f8301126102b8576102b761011a565b5b81516102c884826020860161023a565b91505092915050565b600080604083850312156102e8576102e7610110565b5b600083015167ffffffffffffffff81111561030657610305610115565b5b610312858286016102a3565b925050602061032385828601610225565b9150509250929050565b7f4e487b7100000000000000000000000000000000000000000000000000000000600052603260045260246000fd5b6134188061036b6000396000f3fe60806040526004361061019c5760003560e01c8063987ee156116100ec578063ce7c2ac21161008a578063e5d0821f11610064578063e5d0821f14610629578063f04da65b14610652578063f96dae0a1461068f578063fcf0c6ca146106ba5761019c565b8063ce7c2ac214610582578063d09c34f2146105bf578063da35c664146105fe5761019c565b80639fcc5ce4116100c65780639fcc5ce4146104c6578063a9c0310d146104f1578063afafa0cf14610530578063c9d27afe146105595761019c565b8063987ee1561461041f57806398e527d31461045d5780639baf1c97146104885761019c565b8063429b62e5116101595780636fdb6f7c116101335780636fdb6f7c14610360578063704802751461039d57806370f6e05d146103c65780637a7c153b146103e25761019c565b8063429b62e5146102ca57806362564c4814610307578063649f89a5146103375761019c565b8063013cf08b146101a15780631785f53c146101e55780631ea736e01461020e57806323d1c95e1461023957806324d7806c146102625780633a98ef391461029f575b600080fd5b3480156101ad57600080fd5b506101c860048036038101906101c391906121b7565b6106f7565b6040516101dc989796959493929190612315565b60405180910390f35b3480156101f157600080fd5b5061020c600480360381019061020791906123ff565b610879565b005b34801561021a57600080fd5b50610223610960565b604051610230919061242c565b60405180910390f35b34801561024557600080fd5b50610260600480360381019061025b919061257c565b610966565b005b34801561026e57600080fd5b50610289600480360381019061028491906123ff565b610a9c565b60405161029691906125f4565b60405180910390f35b3480156102ab57600080fd5b506102b4610af2565b6040516102c1919061242c565b60405180910390f35b3480156102d657600080fd5b506102f160048036038101906102ec91906123ff565b610af8565b6040516102fe91906125f4565b60405180910390f35b34801561031357600080fd5b5061031c610b18565b60405161032e96959493929190612897565b60405180910390f35b34801561034357600080fd5b5061035e600480360381019061035991906121b7565b610f38565b005b34801561036c57600080fd5b50610387600480360381019061038291906121b7565b611224565b6040516103949190612964565b60405180910390f35b3480156103a957600080fd5b506103c460048036038101906103bf91906123ff565b611280565b005b6103e060048036038101906103db91906129a4565b611367565b005b3480156103ee57600080fd5b50610409600480360381019061040491906121b7565b611600565b60405161041691906125f4565b60405180910390f35b34801561042b57600080fd5b50610446600480360381019061044191906123ff565b61178f565b604051610454929190612b34565b60405180910390f35b34801561046957600080fd5b506104726118a2565b60405161047f919061242c565b60405180910390f35b34801561049457600080fd5b506104af60048036038101906104aa91906121b7565b6118ac565b6040516104bd929190612b64565b60405180910390f35b3480156104d257600080fd5b506104db611bd7565b6040516104e891906125f4565b60405180910390f35b3480156104fd57600080fd5b50610518600480360381019061051391906121b7565b611bea565b60405161052793929190612b8d565b60405180910390f35b34801561053c57600080fd5b5061055760048036038101906105529190612bc4565b611c21565b005b34801561056557600080fd5b50610580600480360381019061057b9190612c30565b611cd1565b005b34801561058e57600080fd5b506105a960048036038101906105a491906123ff565b611fa0565b6040516105b6919061242c565b60405180910390f35b3480156105cb57600080fd5b506105e660048036038101906105e19190612bc4565b611fb8565b6040516105f593929190612c70565b60405180910390f35b34801561060a57600080fd5b5061061361200c565b604051610620919061242c565b60405180910390f35b34801561063557600080fd5b50610650600480360381019061064b9190612bc4565b612012565b005b34801561065e57600080fd5b50610679600480360381019061067491906123ff565b612092565b604051610686919061242c565b60405180910390f35b34801561069b57600080fd5b506106a46120da565b6040516106b19190612d06565b60405180910390f35b3480156106c657600080fd5b506106e160048036038101906106dc91906121b7565b612100565b6040516106ee919061242c565b60405180910390f35b6006818154811061070757600080fd5b906000526020600020906008020160009150905080600001805461072a90612d50565b80601f016020809104026020016040519081016040528092919081815260200182805461075690612d50565b80156107a35780601f10610778576101008083540402835291602001916107a3565b820191906000526020600020905b81548152906001019060200180831161078657829003601f168201915b5050505050908060010180546107b890612d50565b80601f01602080910402602001604051908101604052809291908181526020018280546107e490612d50565b80156108315780601f1061080657610100808354040283529160200191610831565b820191906000526020600020905b81548152906001019060200180831161081457829003601f168201915b5050505050908060020154908060030154908060040160009054906101000a900460ff16908060050154908060060154908060070160009054906101000a900460ff16905088565b600360003373ffffffffffffffffffffffffffffffffffffffff1673ffffffffffffffffffffffffffffffffffffffff16815260200190815260200160002060009054906101000a900460ff16610905576040517f08c379a00000000000000000000000000000000000000000000000000000000081526004016108fc90612df3565b60405180910390fd5b6000600360008373ffffffffffffffffffffffffffffffffffffffff1673ffffffffffffffffffffffffffffffffffffffff16815260200190815260200160002060006101000a81548160ff02191690831515021790555050565b60085481565b6006604051806101000160405280848152602001838152602001600081526020016000815260200160011515815260200162093a80426109a69190612e42565b815260200160008152602001600060038111156109c6576109c561229e565b5b81525090806001815401808255809150506001900390600052602060002090600802016000909190919091506000820151816000019081610a079190613018565b506020820151816001019081610a1d9190613018565b50604082015181600201556060820151816003015560808201518160040160006101000a81548160ff02191690831515021790555060a0820151816005015560c0820151816006015560e08201518160070160006101000a81548160ff02191690836003811115610a9157610a9061229e565b5b021790555050505050565b6000600360008373ffffffffffffffffffffffffffffffffffffffff1673ffffffffffffffffffffffffffffffffffffffff16815260200190815260200160002060009054906101000a900460ff169050919050565b60055481565b60036020528060005260406000206000915054906101000a900460ff1681565b60608060608060608060045467ffffffffffffffff811115610b3d57610b3c612451565b5b604051908082528060200260200182016040528015610b6b5781602001602082028036833780820191505090505b50955060045467ffffffffffffffff811115610b8a57610b89612451565b5b604051908082528060200260200182016040528015610bbd57816020015b6060815260200190600190039081610ba85790505b50945060045467ffffffffffffffff811115610bdc57610bdb612451565b5b604051908082528060200260200182016040528015610c0f57816020015b6060815260200190600190039081610bfa5790505b50935060045467ffffffffffffffff811115610c2e57610c2d612451565b5b604051908082528060200260200182016040528015610c5c5781602001602082028036833780820191505090505b50925060045467ffffffffffffffff811115610c7b57610c7a612451565b5b604051908082528060200260200182016040528015610ca95781602001602082028036833780820191505090505b50915060045467ffffffffffffffff811115610cc857610cc7612451565b5b604051908082528060200260200182016040528015610cf65781602001602082028036833780820191505090505b50905060005b600454811015610f2f57600060068281548110610d1c57610d1b6130ea565b5b9060005260206000209060080201905081888381518110610d4057610d3f6130ea565b5b602002602001018181525050806000018054610d5b90612d50565b80601f0160208091040260200160405190810160405280929190818152602001828054610d8790612d50565b8015610dd45780601f10610da957610100808354040283529160200191610dd4565b820191906000526020600020905b815481529060010190602001808311610db757829003601f168201915b5050505050878381518110610dec57610deb6130ea565b5b6020026020010181905250806001018054610e0690612d50565b80601f0160208091040260200160405190810160405280929190818152602001828054610e3290612d50565b8015610e7f5780601f10610e5457610100808354040283529160200191610e7f565b820191906000526020600020905b815481529060010190602001808311610e6257829003601f168201915b5050505050868381518110610e9757610e966130ea565b5b60200260200101819052508060020154858381518110610eba57610eb96130ea565b5b6020026020010181815250508060030154848381518110610ede57610edd6130ea565b5b6020026020010181815250508060040160009054906101000a900460ff16838381518110610f0f57610f0e6130ea565b5b602002602001019015159081151581525050508080600101915050610cfc565b50909192939495565b600060068281548110610f4e57610f4d6130ea565b5b906000526020600020906008020160040160006101000a81548160ff0219169083151502179055506000805b600454811015610fd25760068181548110610f9857610f976130ea565b5b906000526020600020906008020160040160009054906101000a900460ff1615610fc55760019150610fd2565b8080600101915050610f7a565b50600060068381548110610fe957610fe86130ea565b5b9060005260206000209060080201600301546006848154811061100f5761100e6130ea565b5b906000526020600020906008020160020154119050604051806060016040528082151581526020016006858154811061104b5761104a6130ea565b5b906000526020600020906008020160020154815260200160068581548110611076576110756130ea565b5b9060005260206000209060080201600301548152506002600085815260200190815260200160002060008201518160000160006101000a81548160ff0219169083151502179055506020820151816001015560408201518160020155905050600683815481106110e9576110e86130ea565b5b9060005260206000209060080201600501544211801561110f575061110d83611600565b155b156112055760006006848154811061112a576111296130ea565b5b906000526020600020906008020160040160006101000a81548160ff02191690831515021790555060405180606001604052806000151581526020016006858154811061117a576111796130ea565b5b9060005260206000209060080201600201548152602001600685815481106111a5576111a46130ea565b5b9060005260206000209060080201600301548152506002600085815260200190815260200160002060008201518160000160006101000a81548160ff02191690831515021790555060208201518160010155604082015181600201559050505b81600760006101000a81548160ff021916908315150217905550505050565b61122c61214a565b600260008381526020019081526020016000206040518060600160405290816000820160009054906101000a900460ff16151515158152602001600182015481526020016002820154815250509050919050565b600360003373ffffffffffffffffffffffffffffffffffffffff1673ffffffffffffffffffffffffffffffffffffffff16815260200190815260200160002060009054906101000a900460ff1661130c576040517f08c379a000000000000000000000000000000000000000000000000000000000815260040161130390612df3565b60405180910390fd5b6001600360008373ffffffffffffffffffffffffffffffffffffffff1673ffffffffffffffffffffffffffffffffffffffff16815260200190815260200160002060006101000a81548160ff02191690831515021790555050565b600360003373ffffffffffffffffffffffffffffffffffffffff1673ffffffffffffffffffffffffffffffffffffffff16815260200190815260200160002060009054906101000a900460ff166113f3576040517f08c379a00000000000000000000000000000000000000000000000000000000081526004016113ea90612df3565b60405180910390fd5b60003411611436576040517f08c379a000000000000000000000000000000000000000000000000000000000815260040161142d9061318b565b60405180910390fd5b6040518061010001604052808581526020018481526020016000815260200160008152602001600115158152602001603c8461147291906131ab565b4261147d9190612e42565b81526020016000815260200182600381111561149c5761149b61229e565b5b8152506006600454815481106114b5576114b46130ea565b5b906000526020600020906008020160008201518160000190816114d89190613018565b5060208201518160010190816114ee9190613018565b50604082015181600201556060820151816003015560808201518160040160006101000a81548160ff02191690831515021790555060a0820151816005015560c0820151816006015560e08201518160070160006101000a81548160ff021916908360038111156115625761156161229e565b5b02179055509050506001600760006101000a81548160ff021916908315150217905550603c8261159291906131ab565b4261159d9190612e42565b6008819055507ff5dc0da9afa6d080780a49fd8c680f03d2ddf3c067cd6d0c85360c096644d2d3600454846008546040516115da939291906131ed565b60405180910390a1600460008154809291906115f59061322b565b919050555050505050565b60008060068381548110611617576116166130ea565b5b90600052602060002090600802019050600080600381111561163c5761163b61229e565b5b8260070160009054906101000a900460ff1660038111156116605761165f61229e565b5b0361167b57600260055461167491906132a2565b905061177e565b6001600381111561168f5761168e61229e565b5b8260070160009054906101000a900460ff1660038111156116b3576116b261229e565b5b036116da57600360026005546116c991906131ab565b6116d391906132a2565b905061177d565b600260038111156116ee576116ed61229e565b5b8260070160009054906101000a900460ff1660038111156117125761171161229e565b5b03611739576004600360055461172891906131ab565b61173291906132a2565b905061177c565b60038081111561174c5761174b61229e565b5b8260070160009054906101000a900460ff1660038111156117705761176f61229e565b5b0361177b5760055490505b5b5b5b808260020154101592505050919050565b600060606000808473ffffffffffffffffffffffffffffffffffffffff1673ffffffffffffffffffffffffffffffffffffffff16815260200190815260200160002054600160008573ffffffffffffffffffffffffffffffffffffffff1673ffffffffffffffffffffffffffffffffffffffff16815260200190815260200160002080805480602002602001604051908101604052809291908181526020016000905b828210156118935783829060005260206000209060030201604051806060016040529081600082015481526020016001820160009054906101000a900460ff1615151515815260200160028201548152505081526020019060010190611832565b50505050905091509150915091565b6000600454905090565b6000806000600684815481106118c5576118c46130ea565b5b9060005260206000209060080201604051806101000160405290816000820180546118ef90612d50565b80601f016020809104026020016040519081016040528092919081815260200182805461191b90612d50565b80156119685780601f1061193d57610100808354040283529160200191611968565b820191906000526020600020905b81548152906001019060200180831161194b57829003601f168201915b5050505050815260200160018201805461198190612d50565b80601f01602080910402602001604051908101604052809291908181526020018280546119ad90612d50565b80156119fa5780601f106119cf576101008083540402835291602001916119fa565b820191906000526020600020905b8154815290600101906020018083116119dd57829003601f168201915b5050505050815260200160028201548152602001600382015481526020016004820160009054906101000a900460ff1615151515815260200160058201548152602001600682015481526020016007820160009054906101000a900460ff166003811115611a6b57611a6a61229e565b5b6003811115611a7d57611a7c61229e565b5b81525050905060008160c0015190506000600554606483611a9e91906131ab565b611aa891906132a2565b905060006003811115611abe57611abd61229e565b5b8360e001516003811115611ad557611ad461229e565b5b03611af0576002600554611ae991906132a2565b9350611bcc565b60016003811115611b0457611b0361229e565b5b8360e001516003811115611b1b57611b1a61229e565b5b03611b425760036002600554611b3191906131ab565b611b3b91906132a2565b9350611bcb565b60026003811115611b5657611b5561229e565b5b8360e001516003811115611b6d57611b6c61229e565b5b03611b945760046003600554611b8391906131ab565b611b8d91906132a2565b9350611bca565b600380811115611ba757611ba661229e565b5b8360e001516003811115611bbe57611bbd61229e565b5b03611bc95760055493505b5b5b5b809450505050915091565b600760009054906101000a900460ff1681565b60026020528060005260406000206000915090508060000160009054906101000a900460ff16908060010154908060020154905083565b600760009054906101000a900460ff1615611c71576040517f08c379a0000000000000000000000000000000000000000000000000000000008152600401611c6890613345565b60405180910390fd5b806000808473ffffffffffffffffffffffffffffffffffffffff1673ffffffffffffffffffffffffffffffffffffffff168152602001908152602001600020819055508060056000828254611cc69190612e42565b925050819055505050565b60006005546127106000803373ffffffffffffffffffffffffffffffffffffffff1673ffffffffffffffffffffffffffffffffffffffff16815260200190815260200160002054611d2291906131ab565b611d2c91906132a2565b90508115611d75578060068481548110611d4957611d486130ea565b5b90600052602060002090600802016002016000828254611d699190612e42565b92505081905550611db2565b8060068481548110611d8a57611d896130ea565b5b90600052602060002090600802016003016000828254611daa9190612e42565b925050819055505b8060068481548110611dc757611dc66130ea565b5b90600052602060002090600802016006016000828254611de79190612e42565b92505081905550600160003373ffffffffffffffffffffffffffffffffffffffff1673ffffffffffffffffffffffffffffffffffffffff168152602001908152602001600020604051806060016040528085815260200184151581526020018381525090806001815401808255809150506001900390600052602060002090600302016000909190919091506000820151816000015560208201518160010160006101000a81548160ff0219169083151502179055506040820151816002015550506000611eb482612134565b9050600960009054906101000a900473ffffffffffffffffffffffffffffffffffffffff1673ffffffffffffffffffffffffffffffffffffffff166340c10f1933836040518363ffffffff1660e01b8152600401611f13929190613374565b600060405180830381600087803b158015611f2d57600080fd5b505af1158015611f41573d6000803e3d6000fd5b505050507fb898e75d5aac8de2f407e4a683c8d909e832d1e371e3bff0fa3ed934e88d956284338486604051611f7a949392919061339d565b60405180910390a1611f8b84611600565b15611f9a57611f9984610f38565b5b50505050565b60006020528060005260406000206000915090505481565b60016020528160005260406000208181548110611fd457600080fd5b9060005260206000209060030201600091509150508060000154908060010160009054906101000a900460ff16908060020154905083565b60045481565b806000808473ffffffffffffffffffffffffffffffffffffffff1673ffffffffffffffffffffffffffffffffffffffff168152602001908152602001600020819055507fe6382c9ed5c0c33bb05042f73cf6cbe9cb25639f9a711e094ee563bc9cb80e2c8282604051612086929190613374565b60405180910390a15050565b60008060008373ffffffffffffffffffffffffffffffffffffffff1673ffffffffffffffffffffffffffffffffffffffff168152602001908152602001600020549050919050565b600960009054906101000a900473ffffffffffffffffffffffffffffffffffffffff1681565b60008060068381548110612117576121166130ea565b5b906000526020600020906008020160060154905080915050919050565b600060648261214391906132a2565b9050919050565b604051806060016040528060001515815260200160008152602001600081525090565b6000604051905090565b600080fd5b600080fd5b6000819050919050565b61219481612181565b811461219f57600080fd5b50565b6000813590506121b18161218b565b92915050565b6000602082840312156121cd576121cc612177565b5b60006121db848285016121a2565b91505092915050565b600081519050919050565b600082825260208201905092915050565b60005b8381101561221e578082015181840152602081019050612203565b60008484015250505050565b6000601f19601f8301169050919050565b6000612246826121e4565b61225081856121ef565b9350612260818560208601612200565b6122698161222a565b840191505092915050565b61227d81612181565b82525050565b60008115159050919050565b61229881612283565b82525050565b7f4e487b7100000000000000000000000000000000000000000000000000000000600052602160045260246000fd5b600481106122de576122dd61229e565b5b50565b60008190506122ef826122cd565b919050565b60006122ff826122e1565b9050919050565b61230f816122f4565b82525050565b6000610100820190508181036000830152612330818b61223b565b90508181036020830152612344818a61223b565b90506123536040830189612274565b6123606060830188612274565b61236d608083018761228f565b61237a60a0830186612274565b61238760c0830185612274565b61239460e0830184612306565b9998505050505050505050565b600073ffffffffffffffffffffffffffffffffffffffff82169050919050565b60006123cc826123a1565b9050919050565b6123dc816123c1565b81146123e757600080fd5b50565b6000813590506123f9816123d3565b92915050565b60006020828403121561241557612414612177565b5b6000612423848285016123ea565b91505092915050565b60006020820190506124416000830184612274565b92915050565b600080fd5b600080fd5b7f4e487b7100000000000000000000000000000000000000000000000000000000600052604160045260246000fd5b6124898261222a565b810181811067ffffffffffffffff821117156124a8576124a7612451565b5b80604052505050565b60006124bb61216d565b90506124c78282612480565b919050565b600067ffffffffffffffff8211156124e7576124e6612451565b5b6124f08261222a565b9050602081019050919050565b82818337600083830152505050565b600061251f61251a846124cc565b6124b1565b90508281526020810184848401111561253b5761253a61244c565b5b6125468482856124fd565b509392505050565b600082601f83011261256357612562612447565b5b813561257384826020860161250c565b91505092915050565b6000806040838503121561259357612592612177565b5b600083013567ffffffffffffffff8111156125b1576125b061217c565b5b6125bd8582860161254e565b925050602083013567ffffffffffffffff8111156125de576125dd61217c565b5b6125ea8582860161254e565b9150509250929050565b6000602082019050612609600083018461228f565b92915050565b600081519050919050565b600082825260208201905092915050565b6000819050602082019050919050565b61264481612181565b82525050565b6000612656838361263b565b60208301905092915050565b6000602082019050919050565b600061267a8261260f565b612684818561261a565b935061268f8361262b565b8060005b838110156126c05781516126a7888261264a565b97506126b283612662565b925050600181019050612693565b5085935050505092915050565b600081519050919050565b600082825260208201905092915050565b6000819050602082019050919050565b600082825260208201905092915050565b6000612715826121e4565b61271f81856126f9565b935061272f818560208601612200565b6127388161222a565b840191505092915050565b600061274f838361270a565b905092915050565b6000602082019050919050565b600061276f826126cd565b61277981856126d8565b93508360208202850161278b856126e9565b8060005b858110156127c757848403895281516127a88582612743565b94506127b383612757565b925060208a0199505060018101905061278f565b50829750879550505050505092915050565b600081519050919050565b600082825260208201905092915050565b6000819050602082019050919050565b61280e81612283565b82525050565b60006128208383612805565b60208301905092915050565b6000602082019050919050565b6000612844826127d9565b61284e81856127e4565b9350612859836127f5565b8060005b8381101561288a5781516128718882612814565b975061287c8361282c565b92505060018101905061285d565b5085935050505092915050565b600060c08201905081810360008301526128b1818961266f565b905081810360208301526128c58188612764565b905081810360408301526128d98187612764565b905081810360608301526128ed818661266f565b90508181036080830152612901818561266f565b905081810360a08301526129158184612839565b9050979650505050505050565b6060820160008201516129386000850182612805565b50602082015161294b602085018261263b565b50604082015161295e604085018261263b565b50505050565b60006060820190506129796000830184612922565b92915050565b6004811061298c57600080fd5b50565b60008135905061299e8161297f565b92915050565b600080600080608085870312156129be576129bd612177565b5b600085013567ffffffffffffffff8111156129dc576129db61217c565b5b6129e88782880161254e565b945050602085013567ffffffffffffffff811115612a0957612a0861217c565b5b612a158782880161254e565b9350506040612a26878288016121a2565b9250506060612a378782880161298f565b91505092959194509250565b600081519050919050565b600082825260208201905092915050565b6000819050602082019050919050565b606082016000820151612a85600085018261263b565b506020820151612a986020850182612805565b506040820151612aab604085018261263b565b50505050565b6000612abd8383612a6f565b60608301905092915050565b6000602082019050919050565b6000612ae182612a43565b612aeb8185612a4e565b9350612af683612a5f565b8060005b83811015612b27578151612b0e8882612ab1565b9750612b1983612ac9565b925050600181019050612afa565b5085935050505092915050565b6000604082019050612b496000830185612274565b8181036020830152612b5b8184612ad6565b90509392505050565b6000604082019050612b796000830185612274565b612b866020830184612274565b9392505050565b6000606082019050612ba2600083018661228f565b612baf6020830185612274565b612bbc6040830184612274565b949350505050565b60008060408385031215612bdb57612bda612177565b5b6000612be9858286016123ea565b9250506020612bfa858286016121a2565b9150509250929050565b612c0d81612283565b8114612c1857600080fd5b50565b600081359050612c2a81612c04565b92915050565b60008060408385031215612c4757612c46612177565b5b6000612c55858286016121a2565b9250506020612c6685828601612c1b565b9150509250929050565b6000606082019050612c856000830186612274565b612c92602083018561228f565b612c9f6040830184612274565b949350505050565b6000819050919050565b6000612ccc612cc7612cc2846123a1565b612ca7565b6123a1565b9050919050565b6000612cde82612cb1565b9050919050565b6000612cf082612cd3565b9050919050565b612d0081612ce5565b82525050565b6000602082019050612d1b6000830184612cf7565b92915050565b7f4e487b7100000000000000000000000000000000000000000000000000000000600052602260045260246000fd5b60006002820490506001821680612d6857607f821691505b602082108103612d7b57612d7a612d21565b5b50919050565b7f4f6e6c792061646d696e732063616e20706572666f726d20746869732061637460008201527f696f6e0000000000000000000000000000000000000000000000000000000000602082015250565b6000612ddd6023836121ef565b9150612de882612d81565b604082019050919050565b60006020820190508181036000830152612e0c81612dd0565b9050919050565b7f4e487b7100000000000000000000000000000000000000000000000000000000600052601160045260246000fd5b6000612e4d82612181565b9150612e5883612181565b9250828201905080821115612e7057612e6f612e13565b5b92915050565b60008190508160005260206000209050919050565b60006020601f8301049050919050565b600082821b905092915050565b600060088302612ed87fffffffffffffffffffffffffffffffffffffffffffffffffffffffffffffffff82612e9b565b612ee28683612e9b565b95508019841693508086168417925050509392505050565b6000612f15612f10612f0b84612181565b612ca7565b612181565b9050919050565b6000819050919050565b612f2f83612efa565b612f43612f3b82612f1c565b848454612ea8565b825550505050565b600090565b612f58612f4b565b612f63818484612f26565b505050565b5b81811015612f8757612f7c600082612f50565b600181019050612f69565b5050565b601f821115612fcc57612f9d81612e76565b612fa684612e8b565b81016020851015612fb5578190505b612fc9612fc185612e8b565b830182612f68565b50505b505050565b600082821c905092915050565b6000612fef60001984600802612fd1565b1980831691505092915050565b60006130088383612fde565b9150826002028217905092915050565b613021826121e4565b67ffffffffffffffff81111561303a57613039612451565b5b6130448254612d50565b61304f828285612f8b565b600060209050601f8311600181146130825760008415613070578287015190505b61307a8582612ffc565b8655506130e2565b601f19841661309086612e76565b60005b828110156130b857848901518255600182019150602085019450602081019050613093565b868310156130d557848901516130d1601f891682612fde565b8355505b6001600288020188555050505b505050505050565b7f4e487b7100000000000000000000000000000000000000000000000000000000600052603260045260246000fd5b7f45544820726571756972656420666f72206372656174696e672070726f706f7360008201527f616c000000000000000000000000000000000000000000000000000000000000602082015250565b60006131756022836121ef565b915061318082613119565b604082019050919050565b600060208201905081810360008301526131a481613168565b9050919050565b60006131b682612181565b91506131c183612181565b92508282026131cf81612181565b915082820484148315176131e6576131e5612e13565b5b5092915050565b60006060820190506132026000830186612274565b8181036020830152613214818561223b565b90506132236040830184612274565b949350505050565b600061323682612181565b91507fffffffffffffffffffffffffffffffffffffffffffffffffffffffffffffffff820361326857613267612e13565b5b600182019050919050565b7f4e487b7100000000000000000000000000000000000000000000000000000000600052601260045260246000fd5b60006132ad82612181565b91506132b883612181565b9250826132c8576132c7613273565b5b828204905092915050565b7f4865792069747320616e2061637469766520766f74696e6720706572696f642c60008201527f20796f752063616e6e6f7420766f7465206e6f772e0000000000000000000000602082015250565b600061332f6035836121ef565b915061333a826132d3565b604082019050919050565b6000602082019050818103600083015261335e81613322565b9050919050565b61336e816123c1565b82525050565b60006040820190506133896000830185613365565b6133966020830184612274565b9392505050565b60006080820190506133b26000830187612274565b6133bf6020830186613365565b6133cc6040830185612274565b6133d9606083018461228f565b9594505050505056fea2646970667358221220ec389cbc00899fdce4c24d8f1a5ab062b9bb69fd25ede66c04b24505f5bcbe9964736f6c634300081a0033",
  "linkReferences": {},
  "deployedLinkReferences": {}
}