{
  "_format": "hh-sol-artifact-1",
  "contractName": "VotingContract",
  "sourceName": "contracts/smartContract.sol",
  "abi": [
    {
      "inputs": [
        {
          "internalType": "address[]",
          "name": "initialAdmins",
          "type": "address[]"
        },
        {
          "internalType": "address",
          "name": "_tokenAddress",
          "type": "address"
        }
      ],
      "stateMutability": "nonpayable",
      "type": "constructor"
    },
    {
      "anonymous": false,
      "inputs": [
        {
          "indexed": false,
          "internalType": "uint256",
          "name": "proposalId",
          "type": "uint256"
        },
        {
          "indexed": false,
          "internalType": "string",
          "name": "title",
          "type": "string"
        },
        {
          "indexed": false,
          "internalType": "string",
          "name": "description",
          "type": "string"
        },
        {
          "indexed": false,
          "internalType": "uint256",
          "name": "durationInMinutes",
          "type": "uint256"
        },
        {
          "indexed": false,
          "internalType": "uint8",
          "name": "quorumType",
          "type": "uint8"
        },
        {
          "indexed": false,
          "internalType": "uint256",
          "name": "endTime",
          "type": "uint256"
        },
        {
          "indexed": false,
          "internalType": "address",
          "name": "proposer",
          "type": "address"
        }
      ],
      "name": "ProposalCreated",
      "type": "event"
    },
    {
      "anonymous": false,
      "inputs": [
        {
          "indexed": true,
          "internalType": "uint256",
          "name": "proposalId",
          "type": "uint256"
        }
      ],
      "name": "ProposalDeleted",
      "type": "event"
    },
    {
      "anonymous": false,
      "inputs": [
        {
          "indexed": false,
          "internalType": "address",
          "name": "voter",
          "type": "address"
        },
        {
          "indexed": false,
          "internalType": "uint256",
          "name": "rewardAmount",
          "type": "uint256"
        }
      ],
      "name": "RewardIssued",
      "type": "event"
    },
    {
      "anonymous": false,
      "inputs": [
        {
          "indexed": false,
          "internalType": "address",
          "name": "voter",
          "type": "address"
        },
        {
          "indexed": false,
          "internalType": "uint256",
          "name": "newShares",
          "type": "uint256"
        }
      ],
      "name": "SharesUpdated",
      "type": "event"
    },
    {
      "anonymous": false,
      "inputs": [
        {
          "indexed": false,
          "internalType": "uint256",
          "name": "proposalId",
          "type": "uint256"
        },
        {
          "indexed": false,
          "internalType": "address",
          "name": "voter",
          "type": "address"
        },
        {
          "indexed": false,
          "internalType": "uint256",
          "name": "weight",
          "type": "uint256"
        },
        {
          "indexed": false,
          "internalType": "bool",
          "name": "voteFor",
          "type": "bool"
        }
      ],
      "name": "VoteCast",
      "type": "event"
    },
    {
      "anonymous": false,
      "inputs": [
        {
          "indexed": false,
          "internalType": "uint256",
          "name": "proposalId",
          "type": "uint256"
        },
        {
          "indexed": false,
          "internalType": "uint256",
          "name": "votesFor",
          "type": "uint256"
        },
        {
          "indexed": false,
          "internalType": "uint256",
          "name": "votesAgainst",
          "type": "uint256"
        }
      ],
      "name": "VoteProgressUpdated",
      "type": "event"
    },
    {
      "inputs": [
        {
          "internalType": "address",
          "name": "newAdmin",
          "type": "address"
        }
      ],
      "name": "addAdmin",
      "outputs": [],
      "stateMutability": "nonpayable",
      "type": "function"
    },
    {
      "inputs": [
        {
          "internalType": "address",
          "name": "",
          "type": "address"
        }
      ],
      "name": "admins",
      "outputs": [
        {
          "internalType": "bool",
          "name": "",
          "type": "bool"
        }
      ],
      "stateMutability": "view",
      "type": "function"
    },
    {
      "inputs": [
        {
          "internalType": "uint256",
          "name": "proposalId",
          "type": "uint256"
        }
      ],
      "name": "calculateQuorum",
      "outputs": [
        {
          "internalType": "uint256",
          "name": "",
          "type": "uint256"
        }
      ],
      "stateMutability": "view",
      "type": "function"
    },
    {
      "inputs": [
        {
          "internalType": "address",
          "name": "voter",
          "type": "address"
        }
      ],
      "name": "calculateVotingWeight",
      "outputs": [
        {
          "internalType": "uint256",
          "name": "",
          "type": "uint256"
        }
      ],
      "stateMutability": "view",
      "type": "function"
    },
    {
      "inputs": [
        {
          "internalType": "uint256",
          "name": "proposalId",
          "type": "uint256"
        },
        {
          "internalType": "bool",
          "name": "voteFor",
          "type": "bool"
        }
      ],
      "name": "castVote",
      "outputs": [],
      "stateMutability": "nonpayable",
      "type": "function"
    },
    {
      "inputs": [
        {
          "internalType": "string",
          "name": "title",
          "type": "string"
        },
        {
          "internalType": "string",
          "name": "description",
          "type": "string"
        },
        {
          "internalType": "uint256",
          "name": "durationInMinutes",
          "type": "uint256"
        },
        {
          "internalType": "uint8",
          "name": "quorumType",
          "type": "uint8"
        }
      ],
      "name": "createProposal",
      "outputs": [],
      "stateMutability": "payable",
      "type": "function"
    },
    {
      "inputs": [
        {
          "internalType": "uint256",
          "name": "proposalId",
          "type": "uint256"
        }
      ],
      "name": "deleteProposal",
      "outputs": [],
      "stateMutability": "nonpayable",
      "type": "function"
    },
    {
      "inputs": [
        {
          "internalType": "uint256",
          "name": "proposalId",
          "type": "uint256"
        }
      ],
      "name": "finalizeProposal",
      "outputs": [],
      "stateMutability": "nonpayable",
      "type": "function"
    },
    {
      "inputs": [],
      "name": "getPastProposals",
      "outputs": [
        {
          "components": [
            {
              "internalType": "string",
              "name": "title",
              "type": "string"
            },
            {
              "internalType": "string",
              "name": "description",
              "type": "string"
            },
            {
              "internalType": "uint256",
              "name": "durationInMinutes",
              "type": "uint256"
            },
            {
              "internalType": "uint8",
              "name": "quorumType",
              "type": "uint8"
            },
            {
              "internalType": "uint256",
              "name": "endTime",
              "type": "uint256"
            },
            {
              "internalType": "address",
              "name": "proposer",
              "type": "address"
            },
            {
              "internalType": "bool",
              "name": "active",
              "type": "bool"
            },
            {
              "internalType": "uint256",
              "name": "votesFor",
              "type": "uint256"
            },
            {
              "internalType": "uint256",
              "name": "votesAgainst",
              "type": "uint256"
            }
          ],
          "internalType": "struct VotingContract.Proposal[]",
          "name": "",
          "type": "tuple[]"
        },
        {
          "components": [
            {
              "internalType": "bool",
              "name": "passed",
              "type": "bool"
            },
            {
              "internalType": "uint256",
              "name": "votesFor",
              "type": "uint256"
            },
            {
              "internalType": "uint256",
              "name": "votesAgainst",
              "type": "uint256"
            }
          ],
          "internalType": "struct VotingContract.ProposalOutcome[]",
          "name": "",
          "type": "tuple[]"
        }
      ],
      "stateMutability": "view",
      "type": "function"
    },
    {
      "inputs": [
        {
          "internalType": "uint256",
          "name": "proposalId",
          "type": "uint256"
        }
      ],
      "name": "getProposalOutcome",
      "outputs": [
        {
          "components": [
            {
              "internalType": "bool",
              "name": "passed",
              "type": "bool"
            },
            {
              "internalType": "uint256",
              "name": "votesFor",
              "type": "uint256"
            },
            {
              "internalType": "uint256",
              "name": "votesAgainst",
              "type": "uint256"
            }
          ],
          "internalType": "struct VotingContract.ProposalOutcome",
          "name": "",
          "type": "tuple"
        }
      ],
      "stateMutability": "view",
      "type": "function"
    },
    {
      "inputs": [],
      "name": "getProposals",
      "outputs": [
        {
          "components": [
            {
              "internalType": "string",
              "name": "title",
              "type": "string"
            },
            {
              "internalType": "string",
              "name": "description",
              "type": "string"
            },
            {
              "internalType": "uint256",
              "name": "durationInMinutes",
              "type": "uint256"
            },
            {
              "internalType": "uint8",
              "name": "quorumType",
              "type": "uint8"
            },
            {
              "internalType": "uint256",
              "name": "endTime",
              "type": "uint256"
            },
            {
              "internalType": "address",
              "name": "proposer",
              "type": "address"
            },
            {
              "internalType": "bool",
              "name": "active",
              "type": "bool"
            },
            {
              "internalType": "uint256",
              "name": "votesFor",
              "type": "uint256"
            },
            {
              "internalType": "uint256",
              "name": "votesAgainst",
              "type": "uint256"
            }
          ],
          "internalType": "struct VotingContract.Proposal[]",
          "name": "",
          "type": "tuple[]"
        }
      ],
      "stateMutability": "view",
      "type": "function"
    },
    {
      "inputs": [],
      "name": "getProposalsCount",
      "outputs": [
        {
          "internalType": "uint256",
          "name": "",
          "type": "uint256"
        }
      ],
      "stateMutability": "view",
      "type": "function"
    },
    {
      "inputs": [
        {
          "internalType": "address",
          "name": "account",
          "type": "address"
        }
      ],
      "name": "getTokens",
      "outputs": [
        {
          "internalType": "uint256",
          "name": "",
          "type": "uint256"
        }
      ],
      "stateMutability": "view",
      "type": "function"
    },
    {
      "inputs": [
        {
          "internalType": "address",
          "name": "shareholder",
          "type": "address"
        }
      ],
      "name": "getVotingHistory",
      "outputs": [
        {
          "components": [
            {
              "internalType": "uint256",
              "name": "proposalId",
              "type": "uint256"
            },
            {
              "internalType": "bool",
              "name": "votedFor",
              "type": "bool"
            },
            {
              "internalType": "uint256",
              "name": "voteWeight",
              "type": "uint256"
            }
          ],
          "internalType": "struct VotingContract.VotingRecord[]",
          "name": "",
          "type": "tuple[]"
        }
      ],
      "stateMutability": "view",
      "type": "function"
    },
    {
      "inputs": [],
      "name": "governanceToken",
      "outputs": [
        {
          "internalType": "contract GovernanceToken",
          "name": "",
          "type": "address"
        }
      ],
      "stateMutability": "view",
      "type": "function"
    },
    {
      "inputs": [
        {
          "internalType": "address",
          "name": "user",
          "type": "address"
        }
      ],
      "name": "isAdmin",
      "outputs": [
        {
          "internalType": "bool",
          "name": "",
          "type": "bool"
        }
      ],
      "stateMutability": "view",
      "type": "function"
    },
    {
      "inputs": [],
      "name": "isVotingPeriodActive",
      "outputs": [
        {
          "internalType": "bool",
          "name": "",
          "type": "bool"
        }
      ],
      "stateMutability": "view",
      "type": "function"
    },
    {
      "inputs": [],
      "name": "proposalCount",
      "outputs": [
        {
          "internalType": "uint256",
          "name": "",
          "type": "uint256"
        }
      ],
      "stateMutability": "view",
      "type": "function"
    },
    {
      "inputs": [
        {
          "internalType": "uint256",
          "name": "",
          "type": "uint256"
        }
      ],
      "name": "proposalOutcomes",
      "outputs": [
        {
          "internalType": "bool",
          "name": "passed",
          "type": "bool"
        },
        {
          "internalType": "uint256",
          "name": "votesFor",
          "type": "uint256"
        },
        {
          "internalType": "uint256",
          "name": "votesAgainst",
          "type": "uint256"
        }
      ],
      "stateMutability": "view",
      "type": "function"
    },
    {
      "inputs": [
        {
          "internalType": "uint256",
          "name": "",
          "type": "uint256"
        }
      ],
      "name": "proposals",
      "outputs": [
        {
          "internalType": "string",
          "name": "title",
          "type": "string"
        },
        {
          "internalType": "string",
          "name": "description",
          "type": "string"
        },
        {
          "internalType": "uint256",
          "name": "durationInMinutes",
          "type": "uint256"
        },
        {
          "internalType": "uint8",
          "name": "quorumType",
          "type": "uint8"
        },
        {
          "internalType": "uint256",
          "name": "endTime",
          "type": "uint256"
        },
        {
          "internalType": "address",
          "name": "proposer",
          "type": "address"
        },
        {
          "internalType": "bool",
          "name": "active",
          "type": "bool"
        },
        {
          "internalType": "uint256",
          "name": "votesFor",
          "type": "uint256"
        },
        {
          "internalType": "uint256",
          "name": "votesAgainst",
          "type": "uint256"
        }
      ],
      "stateMutability": "view",
      "type": "function"
    },
    {
      "inputs": [
        {
          "internalType": "address",
          "name": "account",
          "type": "address"
        },
        {
          "internalType": "uint256",
          "name": "_shares",
          "type": "uint256"
        }
      ],
      "name": "registerShareholder",
      "outputs": [],
      "stateMutability": "nonpayable",
      "type": "function"
    },
    {
      "inputs": [
        {
          "internalType": "address",
          "name": "admin",
          "type": "address"
        }
      ],
      "name": "removeAdmin",
      "outputs": [],
      "stateMutability": "nonpayable",
      "type": "function"
    },
    {
      "inputs": [
        {
          "internalType": "address",
          "name": "",
          "type": "address"
        }
      ],
      "name": "shares",
      "outputs": [
        {
          "internalType": "uint256",
          "name": "",
          "type": "uint256"
        }
      ],
      "stateMutability": "view",
      "type": "function"
    },
    {
      "inputs": [
        {
          "internalType": "address",
          "name": "",
          "type": "address"
        }
      ],
      "name": "tokens",
      "outputs": [
        {
          "internalType": "uint256",
          "name": "",
          "type": "uint256"
        }
      ],
      "stateMutability": "view",
      "type": "function"
    },
    {
      "inputs": [],
      "name": "totalShares",
      "outputs": [
        {
          "internalType": "uint256",
          "name": "",
          "type": "uint256"
        }
      ],
      "stateMutability": "view",
      "type": "function"
    },
    {
      "inputs": [
        {
          "internalType": "address",
          "name": "voter",
          "type": "address"
        },
        {
          "internalType": "uint256",
          "name": "newShares",
          "type": "uint256"
        }
      ],
      "name": "updateShares",
      "outputs": [],
      "stateMutability": "nonpayable",
      "type": "function"
    },
    {
      "inputs": [
        {
          "internalType": "address",
          "name": "account",
          "type": "address"
        },
        {
          "internalType": "uint256",
          "name": "voteAmount",
          "type": "uint256"
        }
      ],
      "name": "vote",
      "outputs": [],
      "stateMutability": "nonpayable",
      "type": "function"
    },
    {
      "inputs": [
        {
          "internalType": "address",
          "name": "",
          "type": "address"
        }
      ],
      "name": "voted",
      "outputs": [
        {
          "internalType": "bool",
          "name": "",
          "type": "bool"
        }
      ],
      "stateMutability": "view",
      "type": "function"
    },
    {
      "inputs": [],
      "name": "votingEndTime",
      "outputs": [
        {
          "internalType": "uint256",
          "name": "",
          "type": "uint256"
        }
      ],
      "stateMutability": "view",
      "type": "function"
    },
    {
      "inputs": [
        {
          "internalType": "address",
          "name": "",
          "type": "address"
        },
        {
          "internalType": "uint256",
          "name": "",
          "type": "uint256"
        }
      ],
      "name": "votingHistory",
      "outputs": [
        {
          "internalType": "uint256",
          "name": "proposalId",
          "type": "uint256"
        },
        {
          "internalType": "bool",
          "name": "votedFor",
          "type": "bool"
        },
        {
          "internalType": "uint256",
          "name": "voteWeight",
          "type": "uint256"
        }
      ],
      "stateMutability": "view",
      "type": "function"
    }
  ],
  "bytecode": "0x60806040523480156200001157600080fd5b506040516200417d3803806200417d833981810160405281019062000037919062000307565b80600b60006101000a81548173ffffffffffffffffffffffffffffffffffffffff021916908373ffffffffffffffffffffffffffffffffffffffff16021790555060005b82518110156200011057600160046000858481518110620000a157620000a06200036d565b5b602002602001015173ffffffffffffffffffffffffffffffffffffffff1673ffffffffffffffffffffffffffffffffffffffff16815260200190815260200160002060006101000a81548160ff02191690831515021790555080806200010790620003d5565b9150506200007b565b50505062000422565b6000604051905090565b600080fd5b600080fd5b600080fd5b6000601f19601f8301169050919050565b7f4e487b7100000000000000000000000000000000000000000000000000000000600052604160045260246000fd5b6200017d8262000132565b810181811067ffffffffffffffff821117156200019f576200019e62000143565b5b80604052505050565b6000620001b462000119565b9050620001c2828262000172565b919050565b600067ffffffffffffffff821115620001e557620001e462000143565b5b602082029050602081019050919050565b600080fd5b600073ffffffffffffffffffffffffffffffffffffffff82169050919050565b60006200022882620001fb565b9050919050565b6200023a816200021b565b81146200024657600080fd5b50565b6000815190506200025a816200022f565b92915050565b6000620002776200027184620001c7565b620001a8565b905080838252602082019050602084028301858111156200029d576200029c620001f6565b5b835b81811015620002ca5780620002b5888262000249565b8452602084019350506020810190506200029f565b5050509392505050565b600082601f830112620002ec57620002eb6200012d565b5b8151620002fe84826020860162000260565b91505092915050565b6000806040838503121562000321576200032062000123565b5b600083015167ffffffffffffffff81111562000342576200034162000128565b5b6200035085828601620002d4565b9250506020620003638582860162000249565b9150509250929050565b7f4e487b7100000000000000000000000000000000000000000000000000000000600052603260045260246000fd5b7f4e487b7100000000000000000000000000000000000000000000000000000000600052601160045260246000fd5b6000819050919050565b6000620003e282620003cb565b91507fffffffffffffffffffffffffffffffffffffffffffffffffffffffffffffffff82036200041757620004166200039c565b5b600182019050919050565b613d4b80620004326000396000f3fe6080604052600436106101cd5760003560e01c806370f6e05d116100f7578063afafa0cf11610095578063da35c66411610064578063da35c664146106f8578063e486033914610723578063e5d0821f14610760578063f96dae0a14610789576101cd565b8063afafa0cf14610627578063ce7c2ac214610650578063d09c34f21461068d578063d4bdf023146106cc576101cd565b806398e527d3116100d157806398e527d3146105555780639fcc5ce414610580578063a9c0310d146105ab578063aec2ccae146105ea576101cd565b806370f6e05d146104d35780637ad6e5aa146104ef5780638259d5531461052c576101cd565b8063429b62e51161016f5780635f74bbde1161013e5780635f74bbde1461041957806362564c48146104425780636fdb6f7c1461046d57806370480275146104aa576101cd565b8063429b62e514610339578063450efe21146103765780635652077c146103b35780635daff901146103dc576101cd565b80631ea736e0116101ab5780631ea736e01461026957806324d7806c14610294578063317571b2146102d15780633a98ef391461030e576101cd565b8063013cf08b146101d257806315373e3d146102175780631785f53c14610240575b600080fd5b3480156101de57600080fd5b506101f960048036038101906101f49190612622565b6107b4565b60405161020e99989796959493929190612766565b60405180910390f35b34801561022357600080fd5b5061023e6004803603810190610239919061282d565b61095c565b005b34801561024c57600080fd5b5061026760048036038101906102629190612899565b610dfa565b005b34801561027557600080fd5b5061027e610ee1565b60405161028b91906128c6565b60405180910390f35b3480156102a057600080fd5b506102bb60048036038101906102b69190612899565b610ee7565b6040516102c891906128e1565b60405180910390f35b3480156102dd57600080fd5b506102f860048036038101906102f39190612899565b610f3d565b60405161030591906128c6565b60405180910390f35b34801561031a57600080fd5b50610323610fe2565b60405161033091906128c6565b60405180910390f35b34801561034557600080fd5b50610360600480360381019061035b9190612899565b610fe8565b60405161036d91906128e1565b60405180910390f35b34801561038257600080fd5b5061039d60048036038101906103989190612899565b611008565b6040516103aa91906128c6565b60405180910390f35b3480156103bf57600080fd5b506103da60048036038101906103d59190612622565b611051565b005b3480156103e857600080fd5b5061040360048036038101906103fe9190612899565b6112d6565b6040516104109190612a0b565b60405180910390f35b34801561042557600080fd5b50610440600480360381019061043b9190612a2d565b6113a3565b005b34801561044e57600080fd5b506104576115d1565b6040516104649190612c63565b60405180910390f35b34801561047957600080fd5b50610494600480360381019061048f9190612622565b61180b565b6040516104a19190612cc7565b60405180910390f35b3480156104b657600080fd5b506104d160048036038101906104cc9190612899565b611867565b005b6104ed60048036038101906104e89190612e43565b61194e565b005b3480156104fb57600080fd5b5061051660048036038101906105119190612622565b611c21565b60405161052391906128c6565b60405180910390f35b34801561053857600080fd5b50610553600480360381019061054e9190612622565b611db3565b005b34801561056157600080fd5b5061056a611ef4565b60405161057791906128c6565b60405180910390f35b34801561058c57600080fd5b50610595611efe565b6040516105a291906128e1565b60405180910390f35b3480156105b757600080fd5b506105d260048036038101906105cd9190612622565b611f11565b6040516105e193929190612ee2565b60405180910390f35b3480156105f657600080fd5b50610611600480360381019061060c9190612899565b611f48565b60405161061e91906128e1565b60405180910390f35b34801561063357600080fd5b5061064e60048036038101906106499190612a2d565b611f68565b005b34801561065c57600080fd5b5061067760048036038101906106729190612899565b612043565b60405161068491906128c6565b60405180910390f35b34801561069957600080fd5b506106b460048036038101906106af9190612a2d565b61205b565b6040516106c393929190612f19565b60405180910390f35b3480156106d857600080fd5b506106e16120af565b6040516106ef929190613041565b60405180910390f35b34801561070457600080fd5b5061070d612424565b60405161071a91906128c6565b60405180910390f35b34801561072f57600080fd5b5061074a60048036038101906107459190612899565b61242a565b60405161075791906128c6565b60405180910390f35b34801561076c57600080fd5b5061078760048036038101906107829190612a2d565b612442565b005b34801561079557600080fd5b5061079e612512565b6040516107ab91906130d7565b60405180910390f35b600781815481106107c457600080fd5b90600052602060002090600802016000915090508060000180546107e790613121565b80601f016020809104026020016040519081016040528092919081815260200182805461081390613121565b80156108605780601f1061083557610100808354040283529160200191610860565b820191906000526020600020905b81548152906001019060200180831161084357829003601f168201915b50505050509080600101805461087590613121565b80601f01602080910402602001604051908101604052809291908181526020018280546108a190613121565b80156108ee5780601f106108c3576101008083540402835291602001916108ee565b820191906000526020600020905b8154815290600101906020018083116108d157829003601f168201915b5050505050908060020154908060030160009054906101000a900460ff16908060040154908060050160009054906101000a900473ffffffffffffffffffffffffffffffffffffffff16908060050160149054906101000a900460ff16908060060154908060070154905089565b600660003373ffffffffffffffffffffffffffffffffffffffff1673ffffffffffffffffffffffffffffffffffffffff16815260200190815260200160002060009054906101000a900460ff16156109e9576040517f08c379a00000000000000000000000000000000000000000000000000000000081526004016109e09061319e565b60405180910390fd5b600782815481106109fd576109fc6131be565b5b906000526020600020906008020160050160149054906101000a900460ff16610a5b576040517f08c379a0000000000000000000000000000000000000000000000000000000008152600401610a5290613239565b60405180910390fd5b6000610a6633610f3d565b905060008111610aab576040517f08c379a0000000000000000000000000000000000000000000000000000000008152600401610aa2906132a5565b60405180910390fd5b8115610af2578060078481548110610ac657610ac56131be565b5b90600052602060002090600802016006016000828254610ae691906132f4565b92505081905550610b2f565b8060078481548110610b0757610b066131be565b5b90600052602060002090600802016007016000828254610b2791906132f4565b925050819055505b600260003373ffffffffffffffffffffffffffffffffffffffff1673ffffffffffffffffffffffffffffffffffffffff168152602001908152602001600020604051806060016040528085815260200184151581526020018381525090806001815401808255809150506001900390600052602060002090600302016000909190919091506000820151816000015560208201518160010160006101000a81548160ff0219169083151502179055506040820151816002015550506001600660003373ffffffffffffffffffffffffffffffffffffffff1673ffffffffffffffffffffffffffffffffffffffff16815260200190815260200160002060006101000a81548160ff0219169083151502179055506001600960006101000a81548160ff0219169083151502179055506000610c6882612538565b9050600b60009054906101000a900473ffffffffffffffffffffffffffffffffffffffff1673ffffffffffffffffffffffffffffffffffffffff166340c10f1933836040518363ffffffff1660e01b8152600401610cc7929190613328565b600060405180830381600087803b158015610ce157600080fd5b505af1158015610cf5573d6000803e3d6000fd5b505050507fb898e75d5aac8de2f407e4a683c8d909e832d1e371e3bff0fa3ed934e88d956284338486604051610d2e9493929190613351565b60405180910390a17ff9b6ec770c96c3a6f9225bf3a8463a8ad03e884448af07b4ecd4d19d628946ee3382604051610d67929190613328565b60405180910390a17f2928c60fc388d58e01cef82fb7676953f4792e35df8e557becce0082924185fc8460078681548110610da557610da46131be565b5b90600052602060002090600802016006015460078781548110610dcb57610dca6131be565b5b906000526020600020906008020160070154604051610dec93929190613396565b60405180910390a150505050565b600460003373ffffffffffffffffffffffffffffffffffffffff1673ffffffffffffffffffffffffffffffffffffffff16815260200190815260200160002060009054906101000a900460ff16610e86576040517f08c379a0000000000000000000000000000000000000000000000000000000008152600401610e7d9061343f565b60405180910390fd5b6000600460008373ffffffffffffffffffffffffffffffffffffffff1673ffffffffffffffffffffffffffffffffffffffff16815260200190815260200160002060006101000a81548160ff02191690831515021790555050565b600a5481565b6000600460008373ffffffffffffffffffffffffffffffffffffffff1673ffffffffffffffffffffffffffffffffffffffff16815260200190815260200160002060009054906101000a900460ff169050919050565b60008060055411610f83576040517f08c379a0000000000000000000000000000000000000000000000000000000008152600401610f7a906134d1565b60405180910390fd5b60055460646000808573ffffffffffffffffffffffffffffffffffffffff1673ffffffffffffffffffffffffffffffffffffffff16815260200190815260200160002054610fd191906134f1565b610fdb9190613562565b9050919050565b60055481565b60046020528060005260406000206000915054906101000a900460ff1681565b6000600160008373ffffffffffffffffffffffffffffffffffffffff1673ffffffffffffffffffffffffffffffffffffffff168152602001908152602001600020549050919050565b600460003373ffffffffffffffffffffffffffffffffffffffff1673ffffffffffffffffffffffffffffffffffffffff16815260200190815260200160002060009054906101000a900460ff166110dd576040517f08c379a00000000000000000000000000000000000000000000000000000000081526004016110d49061343f565b60405180910390fd5b6000600782815481106110f3576110f26131be565b5b90600052602060002090600802019050806004015442101561114a576040517f08c379a0000000000000000000000000000000000000000000000000000000008152600401611141906135df565b60405180910390fd5b8060050160149054906101000a900460ff1661119b576040517f08c379a000000000000000000000000000000000000000000000000000000000815260040161119290613239565b60405180910390fd5b60006111a683611c21565b9050808260060154106112285760405180606001604052806001151581526020018360060154815260200183600701548152506003600085815260200190815260200160002060008201518160000160006101000a81548160ff0219169083151502179055506020820151816001015560408201518160020155905050611299565b60405180606001604052806000151581526020018360060154815260200183600701548152506003600085815260200190815260200160002060008201518160000160006101000a81548160ff02191690831515021790555060208201518160010155604082015181600201559050505b60008260050160146101000a81548160ff0219169083151502179055506000600960006101000a81548160ff021916908315150217905550505050565b6060600260008373ffffffffffffffffffffffffffffffffffffffff1673ffffffffffffffffffffffffffffffffffffffff168152602001908152602001600020805480602002602001604051908101604052809291908181526020016000905b828210156113985783829060005260206000209060030201604051806060016040529081600082015481526020016001820160009054906101000a900460ff1615151515815260200160028201548152505081526020019060010190611337565b505050509050919050565b80600160008473ffffffffffffffffffffffffffffffffffffffff1673ffffffffffffffffffffffffffffffffffffffff168152602001908152602001600020541015611425576040517f08c379a000000000000000000000000000000000000000000000000000000000815260040161141c9061364b565b60405180910390fd5b80600160008473ffffffffffffffffffffffffffffffffffffffff1673ffffffffffffffffffffffffffffffffffffffff1681526020019081526020016000206000828254611474919061366b565b92505081905550806005600082825461148d919061366b565b925050819055508060076000815481106114aa576114a96131be565b5b906000526020600020906008020160060160008282546114ca91906132f4565b92505081905550600260008373ffffffffffffffffffffffffffffffffffffffff1673ffffffffffffffffffffffffffffffffffffffff1681526020019081526020016000206040518060600160405280600081526020016001151581526020018381525090806001815401808255809150506001900390600052602060002090600302016000909190919091506000820151816000015560208201518160010160006101000a81548160ff0219169083151502179055506040820151816002015550507fb898e75d5aac8de2f407e4a683c8d909e832d1e371e3bff0fa3ed934e88d95626000838360016040516115c594939291906136da565b60405180910390a15050565b60606007805480602002602001604051908101604052809291908181526020016000905b8282101561180257838290600052602060002090600802016040518061012001604052908160008201805461162990613121565b80601f016020809104026020016040519081016040528092919081815260200182805461165590613121565b80156116a25780601f10611677576101008083540402835291602001916116a2565b820191906000526020600020905b81548152906001019060200180831161168557829003601f168201915b505050505081526020016001820180546116bb90613121565b80601f01602080910402602001604051908101604052809291908181526020018280546116e790613121565b80156117345780601f1061170957610100808354040283529160200191611734565b820191906000526020600020905b81548152906001019060200180831161171757829003601f168201915b50505050508152602001600282015481526020016003820160009054906101000a900460ff1660ff1660ff168152602001600482015481526020016005820160009054906101000a900473ffffffffffffffffffffffffffffffffffffffff1673ffffffffffffffffffffffffffffffffffffffff1673ffffffffffffffffffffffffffffffffffffffff1681526020016005820160149054906101000a900460ff1615151515815260200160068201548152602001600782015481525050815260200190600101906115f5565b50505050905090565b61181361254e565b600360008381526020019081526020016000206040518060600160405290816000820160009054906101000a900460ff16151515158152602001600182015481526020016002820154815250509050919050565b600460003373ffffffffffffffffffffffffffffffffffffffff1673ffffffffffffffffffffffffffffffffffffffff16815260200190815260200160002060009054906101000a900460ff166118f3576040517f08c379a00000000000000000000000000000000000000000000000000000000081526004016118ea9061343f565b60405180910390fd5b6001600460008373ffffffffffffffffffffffffffffffffffffffff1673ffffffffffffffffffffffffffffffffffffffff16815260200190815260200160002060006101000a81548160ff02191690831515021790555050565b600460003373ffffffffffffffffffffffffffffffffffffffff1673ffffffffffffffffffffffffffffffffffffffff16815260200190815260200160002060009054906101000a900460ff166119da576040517f08c379a00000000000000000000000000000000000000000000000000000000081526004016119d19061343f565b60405180910390fd5b670de0b6b3a76400003414611a24576040517f08c379a0000000000000000000000000000000000000000000000000000000008152600401611a1b90613791565b60405180910390fd5b6000603c83611a3391906134f1565b42611a3e91906132f4565b905060076040518061012001604052808781526020018681526020018581526020018460ff1681526020018381526020013373ffffffffffffffffffffffffffffffffffffffff16815260200160011515815260200160008152602001600081525090806001815401808255809150506001900390600052602060002090600802016000909190919091506000820151816000019081611ade9190613953565b506020820151816001019081611af49190613953565b506040820151816002015560608201518160030160006101000a81548160ff021916908360ff1602179055506080820151816004015560a08201518160050160006101000a81548173ffffffffffffffffffffffffffffffffffffffff021916908373ffffffffffffffffffffffffffffffffffffffff16021790555060c08201518160050160146101000a81548160ff02191690831515021790555060e082015181600601556101008201518160070155505060006001600780549050611bbc919061366b565b905060086000815480929190611bd190613a25565b91905055507f3d7708da99615a873ed0ef5e0b10f8b1bd8e76e197387471a6a8ca12c29da91381878787878733604051611c119796959493929190613a6d565b60405180910390a1505050505050565b60008060078381548110611c3857611c376131be565b5b9060005260206000209060080201905060006003811115611c5c57611c5b613aea565b5b60ff168160030160009054906101000a900460ff1660ff1603611c90576002600554611c889190613562565b915050611dae565b60016003811115611ca457611ca3613aea565b5b60ff168160030160009054906101000a900460ff1660ff1603611ce45760036002600554611cd291906134f1565b611cdc9190613562565b915050611dae565b60026003811115611cf857611cf7613aea565b5b60ff168160030160009054906101000a900460ff1660ff1603611d385760046003600554611d2691906134f1565b611d309190613562565b915050611dae565b600380811115611d4b57611d4a613aea565b5b60ff168160030160009054906101000a900460ff1660ff1603611d7357600554915050611dae565b6040517f08c379a0000000000000000000000000000000000000000000000000000000008152600401611da590613b65565b60405180910390fd5b919050565b600460003373ffffffffffffffffffffffffffffffffffffffff1673ffffffffffffffffffffffffffffffffffffffff16815260200190815260200160002060009054906101000a900460ff16611e3f576040517f08c379a0000000000000000000000000000000000000000000000000000000008152600401611e369061343f565b60405180910390fd5b6007805490508110611e86576040517f08c379a0000000000000000000000000000000000000000000000000000000008152600401611e7d90613bd1565b60405180910390fd5b600060078281548110611e9c57611e9b6131be565b5b906000526020600020906008020160050160146101000a81548160ff021916908315150217905550807f61c0d93dc2b610877e420b107c8d12e9185e46e04a505da758cc7f7329ae545f60405160405180910390a250565b6000600854905090565b600960009054906101000a900460ff1681565b60036020528060005260406000206000915090508060000160009054906101000a900460ff16908060010154908060020154905083565b60066020528060005260406000206000915054906101000a900460ff1681565b600960009054906101000a900460ff1615611fb8576040517f08c379a0000000000000000000000000000000000000000000000000000000008152600401611faf90613c63565b60405180910390fd5b806000808473ffffffffffffffffffffffffffffffffffffffff1673ffffffffffffffffffffffffffffffffffffffff1681526020019081526020016000208190555080600160008473ffffffffffffffffffffffffffffffffffffffff1673ffffffffffffffffffffffffffffffffffffffff168152602001908152602001600020819055505050565b60006020528060005260406000206000915090505481565b6002602052816000526040600020818154811061207757600080fd5b9060005260206000209060030201600091509150508060000154908060010160009054906101000a900460ff16908060020154905083565b606080600060085467ffffffffffffffff8111156120d0576120cf612cec565b5b60405190808252806020026020018201604052801561210957816020015b6120f6612571565b8152602001906001900390816120ee5790505b509050600060085467ffffffffffffffff81111561212a57612129612cec565b5b60405190808252806020026020018201604052801561216357816020015b61215061254e565b8152602001906001900390816121485790505b50905060005b6008548110156124175760078181548110612187576121866131be565b5b9060005260206000209060080201604051806101200160405290816000820180546121b190613121565b80601f01602080910402602001604051908101604052809291908181526020018280546121dd90613121565b801561222a5780601f106121ff5761010080835404028352916020019161222a565b820191906000526020600020905b81548152906001019060200180831161220d57829003601f168201915b5050505050815260200160018201805461224390613121565b80601f016020809104026020016040519081016040528092919081815260200182805461226f90613121565b80156122bc5780601f10612291576101008083540402835291602001916122bc565b820191906000526020600020905b81548152906001019060200180831161229f57829003601f168201915b50505050508152602001600282015481526020016003820160009054906101000a900460ff1660ff1660ff168152602001600482015481526020016005820160009054906101000a900473ffffffffffffffffffffffffffffffffffffffff1673ffffffffffffffffffffffffffffffffffffffff1673ffffffffffffffffffffffffffffffffffffffff1681526020016005820160149054906101000a900460ff161515151581526020016006820154815260200160078201548152505083828151811061238e5761238d6131be565b5b6020026020010181905250600360008281526020019081526020016000206040518060600160405290816000820160009054906101000a900460ff16151515158152602001600182015481526020016002820154815250508282815181106123f9576123f86131be565b5b6020026020010181905250808061240f90613a25565b915050612169565b5081819350935050509091565b60085481565b60016020528060005260406000206000915090505481565b600960009054906101000a900460ff1615612492576040517f08c379a000000000000000000000000000000000000000000000000000000000815260040161248990613cf5565b60405180910390fd5b806000808473ffffffffffffffffffffffffffffffffffffffff1673ffffffffffffffffffffffffffffffffffffffff168152602001908152602001600020819055507fe6382c9ed5c0c33bb05042f73cf6cbe9cb25639f9a711e094ee563bc9cb80e2c8282604051612506929190613328565b60405180910390a15050565b600b60009054906101000a900473ffffffffffffffffffffffffffffffffffffffff1681565b60006064826125479190613562565b9050919050565b604051806060016040528060001515815260200160008152602001600081525090565b604051806101200160405280606081526020016060815260200160008152602001600060ff16815260200160008152602001600073ffffffffffffffffffffffffffffffffffffffff16815260200160001515815260200160008152602001600081525090565b6000604051905090565b600080fd5b600080fd5b6000819050919050565b6125ff816125ec565b811461260a57600080fd5b50565b60008135905061261c816125f6565b92915050565b600060208284031215612638576126376125e2565b5b60006126468482850161260d565b91505092915050565b600081519050919050565b600082825260208201905092915050565b60005b8381101561268957808201518184015260208101905061266e565b60008484015250505050565b6000601f19601f8301169050919050565b60006126b18261264f565b6126bb818561265a565b93506126cb81856020860161266b565b6126d481612695565b840191505092915050565b6126e8816125ec565b82525050565b600060ff82169050919050565b612704816126ee565b82525050565b600073ffffffffffffffffffffffffffffffffffffffff82169050919050565b60006127358261270a565b9050919050565b6127458161272a565b82525050565b60008115159050919050565b6127608161274b565b82525050565b6000610120820190508181036000830152612781818c6126a6565b90508181036020830152612795818b6126a6565b90506127a4604083018a6126df565b6127b160608301896126fb565b6127be60808301886126df565b6127cb60a083018761273c565b6127d860c0830186612757565b6127e560e08301856126df565b6127f36101008301846126df565b9a9950505050505050505050565b61280a8161274b565b811461281557600080fd5b50565b60008135905061282781612801565b92915050565b60008060408385031215612844576128436125e2565b5b60006128528582860161260d565b925050602061286385828601612818565b9150509250929050565b6128768161272a565b811461288157600080fd5b50565b6000813590506128938161286d565b92915050565b6000602082840312156128af576128ae6125e2565b5b60006128bd84828501612884565b91505092915050565b60006020820190506128db60008301846126df565b92915050565b60006020820190506128f66000830184612757565b92915050565b600081519050919050565b600082825260208201905092915050565b6000819050602082019050919050565b612931816125ec565b82525050565b6129408161274b565b82525050565b60608201600082015161295c6000850182612928565b50602082015161296f6020850182612937565b5060408201516129826040850182612928565b50505050565b60006129948383612946565b60608301905092915050565b6000602082019050919050565b60006129b8826128fc565b6129c28185612907565b93506129cd83612918565b8060005b838110156129fe5781516129e58882612988565b97506129f0836129a0565b9250506001810190506129d1565b5085935050505092915050565b60006020820190508181036000830152612a2581846129ad565b905092915050565b60008060408385031215612a4457612a436125e2565b5b6000612a5285828601612884565b9250506020612a638582860161260d565b9150509250929050565b600081519050919050565b600082825260208201905092915050565b6000819050602082019050919050565b600082825260208201905092915050565b6000612ab58261264f565b612abf8185612a99565b9350612acf81856020860161266b565b612ad881612695565b840191505092915050565b612aec816126ee565b82525050565b612afb8161272a565b82525050565b6000610120830160008301518482036000860152612b1f8282612aaa565b91505060208301518482036020860152612b398282612aaa565b9150506040830151612b4e6040860182612928565b506060830151612b616060860182612ae3565b506080830151612b746080860182612928565b5060a0830151612b8760a0860182612af2565b5060c0830151612b9a60c0860182612937565b5060e0830151612bad60e0860182612928565b50610100830151612bc2610100860182612928565b508091505092915050565b6000612bd98383612b01565b905092915050565b6000602082019050919050565b6000612bf982612a6d565b612c038185612a78565b935083602082028501612c1585612a89565b8060005b85811015612c515784840389528151612c328582612bcd565b9450612c3d83612be1565b925060208a01995050600181019050612c19565b50829750879550505050505092915050565b60006020820190508181036000830152612c7d8184612bee565b905092915050565b606082016000820151612c9b6000850182612937565b506020820151612cae6020850182612928565b506040820151612cc16040850182612928565b50505050565b6000606082019050612cdc6000830184612c85565b92915050565b600080fd5b600080fd5b7f4e487b7100000000000000000000000000000000000000000000000000000000600052604160045260246000fd5b612d2482612695565b810181811067ffffffffffffffff82111715612d4357612d42612cec565b5b80604052505050565b6000612d566125d8565b9050612d628282612d1b565b919050565b600067ffffffffffffffff821115612d8257612d81612cec565b5b612d8b82612695565b9050602081019050919050565b82818337600083830152505050565b6000612dba612db584612d67565b612d4c565b905082815260208101848484011115612dd657612dd5612ce7565b5b612de1848285612d98565b509392505050565b600082601f830112612dfe57612dfd612ce2565b5b8135612e0e848260208601612da7565b91505092915050565b612e20816126ee565b8114612e2b57600080fd5b50565b600081359050612e3d81612e17565b92915050565b60008060008060808587031215612e5d57612e5c6125e2565b5b600085013567ffffffffffffffff811115612e7b57612e7a6125e7565b5b612e8787828801612de9565b945050602085013567ffffffffffffffff811115612ea857612ea76125e7565b5b612eb487828801612de9565b9350506040612ec58782880161260d565b9250506060612ed687828801612e2e565b91505092959194509250565b6000606082019050612ef76000830186612757565b612f0460208301856126df565b612f1160408301846126df565b949350505050565b6000606082019050612f2e60008301866126df565b612f3b6020830185612757565b612f4860408301846126df565b949350505050565b600081519050919050565b600082825260208201905092915050565b6000819050602082019050919050565b606082016000820151612f926000850182612937565b506020820151612fa56020850182612928565b506040820151612fb86040850182612928565b50505050565b6000612fca8383612f7c565b60608301905092915050565b6000602082019050919050565b6000612fee82612f50565b612ff88185612f5b565b935061300383612f6c565b8060005b8381101561303457815161301b8882612fbe565b975061302683612fd6565b925050600181019050613007565b5085935050505092915050565b6000604082019050818103600083015261305b8185612bee565b9050818103602083015261306f8184612fe3565b90509392505050565b6000819050919050565b600061309d6130986130938461270a565b613078565b61270a565b9050919050565b60006130af82613082565b9050919050565b60006130c1826130a4565b9050919050565b6130d1816130b6565b82525050565b60006020820190506130ec60008301846130c8565b92915050565b7f4e487b7100000000000000000000000000000000000000000000000000000000600052602260045260246000fd5b6000600282049050600182168061313957607f821691505b60208210810361314c5761314b6130f2565b5b50919050565b7f596f75206861766520616c726561647920766f74656400000000000000000000600082015250565b600061318860168361265a565b915061319382613152565b602082019050919050565b600060208201905081810360008301526131b78161317b565b9050919050565b7f4e487b7100000000000000000000000000000000000000000000000000000000600052603260045260246000fd5b7f50726f706f73616c206973206e6f742061637469766500000000000000000000600082015250565b600061322360168361265a565b915061322e826131ed565b602082019050919050565b6000602082019050818103600083015261325281613216565b9050919050565b7f596f75206d75737420686f6c642073686172657320746f20766f746500000000600082015250565b600061328f601c8361265a565b915061329a82613259565b602082019050919050565b600060208201905081810360008301526132be81613282565b9050919050565b7f4e487b7100000000000000000000000000000000000000000000000000000000600052601160045260246000fd5b60006132ff826125ec565b915061330a836125ec565b9250828201905080821115613322576133216132c5565b5b92915050565b600060408201905061333d600083018561273c565b61334a60208301846126df565b9392505050565b600060808201905061336660008301876126df565b613373602083018661273c565b61338060408301856126df565b61338d6060830184612757565b95945050505050565b60006060820190506133ab60008301866126df565b6133b860208301856126df565b6133c560408301846126df565b949350505050565b7f4f6e6c792061646d696e732063616e20706572666f726d20746869732061637460008201527f696f6e0000000000000000000000000000000000000000000000000000000000602082015250565b600061342960238361265a565b9150613434826133cd565b604082019050919050565b600060208201905081810360008301526134588161341c565b9050919050565b7f546f74616c20736861726573206d75737420626520677265617465722074686160008201527f6e207a65726f0000000000000000000000000000000000000000000000000000602082015250565b60006134bb60268361265a565b91506134c68261345f565b604082019050919050565b600060208201905081810360008301526134ea816134ae565b9050919050565b60006134fc826125ec565b9150613507836125ec565b9250828202613515816125ec565b9150828204841483151761352c5761352b6132c5565b5b5092915050565b7f4e487b7100000000000000000000000000000000000000000000000000000000600052601260045260246000fd5b600061356d826125ec565b9150613578836125ec565b92508261358857613587613533565b5b828204905092915050565b7f566f74696e6720706572696f6420686173206e6f7420656e6465640000000000600082015250565b60006135c9601b8361265a565b91506135d482613593565b602082019050919050565b600060208201905081810360008301526135f8816135bc565b9050919050565b7f4e6f7420656e6f75676820746f6b656e7320746f20766f746500000000000000600082015250565b600061363560198361265a565b9150613640826135ff565b602082019050919050565b6000602082019050818103600083015261366481613628565b9050919050565b6000613676826125ec565b9150613681836125ec565b9250828203905081811115613699576136986132c5565b5b92915050565b6000819050919050565b60006136c46136bf6136ba8461369f565b613078565b6125ec565b9050919050565b6136d4816136a9565b82525050565b60006080820190506136ef60008301876136cb565b6136fc602083018661273c565b61370960408301856126df565b6137166060830184612757565b95945050505050565b7f4d7573742073656e6420312045544820746f2063726561746520612070726f7060008201527f6f73616c00000000000000000000000000000000000000000000000000000000602082015250565b600061377b60248361265a565b91506137868261371f565b604082019050919050565b600060208201905081810360008301526137aa8161376e565b9050919050565b60008190508160005260206000209050919050565b60006020601f8301049050919050565b600082821b905092915050565b6000600883026138137fffffffffffffffffffffffffffffffffffffffffffffffffffffffffffffffff826137d6565b61381d86836137d6565b95508019841693508086168417925050509392505050565b600061385061384b613846846125ec565b613078565b6125ec565b9050919050565b6000819050919050565b61386a83613835565b61387e61387682613857565b8484546137e3565b825550505050565b600090565b613893613886565b61389e818484613861565b505050565b5b818110156138c2576138b760008261388b565b6001810190506138a4565b5050565b601f821115613907576138d8816137b1565b6138e1846137c6565b810160208510156138f0578190505b6139046138fc856137c6565b8301826138a3565b50505b505050565b600082821c905092915050565b600061392a6000198460080261390c565b1980831691505092915050565b60006139438383613919565b9150826002028217905092915050565b61395c8261264f565b67ffffffffffffffff81111561397557613974612cec565b5b61397f8254613121565b61398a8282856138c6565b600060209050601f8311600181146139bd57600084156139ab578287015190505b6139b58582613937565b865550613a1d565b601f1984166139cb866137b1565b60005b828110156139f3578489015182556001820191506020850194506020810190506139ce565b86831015613a105784890151613a0c601f891682613919565b8355505b6001600288020188555050505b505050505050565b6000613a30826125ec565b91507fffffffffffffffffffffffffffffffffffffffffffffffffffffffffffffffff8203613a6257613a616132c5565b5b600182019050919050565b600060e082019050613a82600083018a6126df565b8181036020830152613a9481896126a6565b90508181036040830152613aa881886126a6565b9050613ab760608301876126df565b613ac460808301866126fb565b613ad160a08301856126df565b613ade60c083018461273c565b98975050505050505050565b7f4e487b7100000000000000000000000000000000000000000000000000000000600052602160045260246000fd5b7f496e76616c69642071756f72756d207479706500000000000000000000000000600082015250565b6000613b4f60138361265a565b9150613b5a82613b19565b602082019050919050565b60006020820190508181036000830152613b7e81613b42565b9050919050565b7f496e76616c69642070726f706f73616c20494400000000000000000000000000600082015250565b6000613bbb60138361265a565b9150613bc682613b85565b602082019050919050565b60006020820190508181036000830152613bea81613bae565b9050919050565b7f43616e6e6f74207265676973746572207368617265686f6c646572732064757260008201527f696e6720766f74696e6720706572696f64000000000000000000000000000000602082015250565b6000613c4d60318361265a565b9150613c5882613bf1565b604082019050919050565b60006020820190508181036000830152613c7c81613c40565b9050919050565b7f43616e6e6f74207570646174652073686172657320647572696e6720766f746960008201527f6e6720706572696f640000000000000000000000000000000000000000000000602082015250565b6000613cdf60298361265a565b9150613cea82613c83565b604082019050919050565b60006020820190508181036000830152613d0e81613cd2565b905091905056fea264697066735822122001a59415aaa6f8cc7533e44813506cfbb344de01b05f96949090431543ec6a7064736f6c63430008140033",
  "linkReferences": {},
  "deployedLinkReferences": {}
}