{
  "_format": "hh-sol-artifact-1",
  "contractName": "VotingContract",
  "sourceName": "contracts/smartContract.sol",
  "abi": [
    {
      "inputs": [
        {
          "internalType": "address[]",
          "name": "initialAdmins",
          "type": "address[]"
        },
        {
          "internalType": "address",
          "name": "_tokenAddress",
          "type": "address"
        }
      ],
      "stateMutability": "nonpayable",
      "type": "constructor"
    },
    {
      "anonymous": false,
      "inputs": [
        {
          "indexed": false,
          "internalType": "uint256",
          "name": "proposalId",
          "type": "uint256"
        },
        {
          "indexed": false,
          "internalType": "string",
          "name": "title",
          "type": "string"
        },
        {
          "indexed": false,
          "internalType": "string",
          "name": "description",
          "type": "string"
        },
        {
          "indexed": false,
          "internalType": "uint256",
          "name": "durationInMinutes",
          "type": "uint256"
        },
        {
          "indexed": false,
          "internalType": "uint8",
          "name": "quorumType",
          "type": "uint8"
        },
        {
          "indexed": false,
          "internalType": "uint256",
          "name": "endTime",
          "type": "uint256"
        },
        {
          "indexed": false,
          "internalType": "address",
          "name": "proposer",
          "type": "address"
        }
      ],
      "name": "ProposalCreated",
      "type": "event"
    },
    {
      "anonymous": false,
      "inputs": [
        {
          "indexed": true,
          "internalType": "uint256",
          "name": "proposalId",
          "type": "uint256"
        }
      ],
      "name": "ProposalDeleted",
      "type": "event"
    },
    {
      "anonymous": false,
      "inputs": [
        {
          "indexed": false,
          "internalType": "address",
          "name": "voter",
          "type": "address"
        },
        {
          "indexed": false,
          "internalType": "uint256",
          "name": "rewardAmount",
          "type": "uint256"
        }
      ],
      "name": "RewardIssued",
      "type": "event"
    },
    {
      "anonymous": false,
      "inputs": [
        {
          "indexed": false,
          "internalType": "address",
          "name": "voter",
          "type": "address"
        },
        {
          "indexed": false,
          "internalType": "uint256",
          "name": "newShares",
          "type": "uint256"
        }
      ],
      "name": "SharesUpdated",
      "type": "event"
    },
    {
      "anonymous": false,
      "inputs": [
        {
          "indexed": false,
          "internalType": "uint256",
          "name": "proposalId",
          "type": "uint256"
        },
        {
          "indexed": false,
          "internalType": "address",
          "name": "voter",
          "type": "address"
        },
        {
          "indexed": false,
          "internalType": "uint256",
          "name": "weight",
          "type": "uint256"
        },
        {
          "indexed": false,
          "internalType": "bool",
          "name": "voteFor",
          "type": "bool"
        }
      ],
      "name": "VoteCast",
      "type": "event"
    },
    {
      "inputs": [
        {
          "internalType": "address",
          "name": "newAdmin",
          "type": "address"
        }
      ],
      "name": "addAdmin",
      "outputs": [],
      "stateMutability": "nonpayable",
      "type": "function"
    },
    {
      "inputs": [
        {
          "internalType": "address",
          "name": "",
          "type": "address"
        }
      ],
      "name": "admins",
      "outputs": [
        {
          "internalType": "bool",
          "name": "",
          "type": "bool"
        }
      ],
      "stateMutability": "view",
      "type": "function"
    },
    {
      "inputs": [
        {
          "internalType": "uint256",
          "name": "proposalId",
          "type": "uint256"
        },
        {
          "internalType": "bool",
          "name": "voteFor",
          "type": "bool"
        }
      ],
      "name": "castVote",
      "outputs": [],
      "stateMutability": "nonpayable",
      "type": "function"
    },
    {
      "inputs": [
        {
          "internalType": "string",
          "name": "title",
          "type": "string"
        },
        {
          "internalType": "string",
          "name": "description",
          "type": "string"
        },
        {
          "internalType": "uint256",
          "name": "durationInMinutes",
          "type": "uint256"
        },
        {
          "internalType": "uint8",
          "name": "quorumType",
          "type": "uint8"
        }
      ],
      "name": "createProposal",
      "outputs": [],
      "stateMutability": "payable",
      "type": "function"
    },
    {
      "inputs": [
        {
          "internalType": "uint256",
          "name": "proposalId",
          "type": "uint256"
        }
      ],
      "name": "deleteProposal",
      "outputs": [],
      "stateMutability": "nonpayable",
      "type": "function"
    },
    {
      "inputs": [
        {
          "internalType": "uint256",
          "name": "proposalId",
          "type": "uint256"
        }
      ],
      "name": "getProposalOutcome",
      "outputs": [
        {
          "components": [
            {
              "internalType": "bool",
              "name": "passed",
              "type": "bool"
            },
            {
              "internalType": "uint256",
              "name": "votesFor",
              "type": "uint256"
            },
            {
              "internalType": "uint256",
              "name": "votesAgainst",
              "type": "uint256"
            }
          ],
          "internalType": "struct VotingContract.ProposalOutcome",
          "name": "",
          "type": "tuple"
        }
      ],
      "stateMutability": "view",
      "type": "function"
    },
    {
      "inputs": [],
      "name": "getProposals",
      "outputs": [
        {
          "components": [
            {
              "internalType": "string",
              "name": "title",
              "type": "string"
            },
            {
              "internalType": "string",
              "name": "description",
              "type": "string"
            },
            {
              "internalType": "uint256",
              "name": "durationInMinutes",
              "type": "uint256"
            },
            {
              "internalType": "uint8",
              "name": "quorumType",
              "type": "uint8"
            },
            {
              "internalType": "uint256",
              "name": "endTime",
              "type": "uint256"
            },
            {
              "internalType": "address",
              "name": "proposer",
              "type": "address"
            },
            {
              "internalType": "bool",
              "name": "active",
              "type": "bool"
            },
            {
              "internalType": "uint256",
              "name": "votesFor",
              "type": "uint256"
            },
            {
              "internalType": "uint256",
              "name": "votesAgainst",
              "type": "uint256"
            }
          ],
          "internalType": "struct VotingContract.Proposal[]",
          "name": "",
          "type": "tuple[]"
        }
      ],
      "stateMutability": "view",
      "type": "function"
    },
    {
      "inputs": [],
      "name": "getProposalsCount",
      "outputs": [
        {
          "internalType": "uint256",
          "name": "",
          "type": "uint256"
        }
      ],
      "stateMutability": "view",
      "type": "function"
    },
    {
      "inputs": [
        {
          "internalType": "address",
          "name": "account",
          "type": "address"
        }
      ],
      "name": "getTokens",
      "outputs": [
        {
          "internalType": "uint256",
          "name": "",
          "type": "uint256"
        }
      ],
      "stateMutability": "view",
      "type": "function"
    },
    {
      "inputs": [],
      "name": "governanceToken",
      "outputs": [
        {
          "internalType": "contract GovernanceToken",
          "name": "",
          "type": "address"
        }
      ],
      "stateMutability": "view",
      "type": "function"
    },
    {
      "inputs": [
        {
          "internalType": "address",
          "name": "user",
          "type": "address"
        }
      ],
      "name": "isAdmin",
      "outputs": [
        {
          "internalType": "bool",
          "name": "",
          "type": "bool"
        }
      ],
      "stateMutability": "view",
      "type": "function"
    },
    {
      "inputs": [],
      "name": "isVotingPeriodActive",
      "outputs": [
        {
          "internalType": "bool",
          "name": "",
          "type": "bool"
        }
      ],
      "stateMutability": "view",
      "type": "function"
    },
    {
      "inputs": [],
      "name": "proposalCount",
      "outputs": [
        {
          "internalType": "uint256",
          "name": "",
          "type": "uint256"
        }
      ],
      "stateMutability": "view",
      "type": "function"
    },
    {
      "inputs": [
        {
          "internalType": "uint256",
          "name": "",
          "type": "uint256"
        }
      ],
      "name": "proposalOutcomes",
      "outputs": [
        {
          "internalType": "bool",
          "name": "passed",
          "type": "bool"
        },
        {
          "internalType": "uint256",
          "name": "votesFor",
          "type": "uint256"
        },
        {
          "internalType": "uint256",
          "name": "votesAgainst",
          "type": "uint256"
        }
      ],
      "stateMutability": "view",
      "type": "function"
    },
    {
      "inputs": [
        {
          "internalType": "uint256",
          "name": "",
          "type": "uint256"
        }
      ],
      "name": "proposals",
      "outputs": [
        {
          "internalType": "string",
          "name": "title",
          "type": "string"
        },
        {
          "internalType": "string",
          "name": "description",
          "type": "string"
        },
        {
          "internalType": "uint256",
          "name": "durationInMinutes",
          "type": "uint256"
        },
        {
          "internalType": "uint8",
          "name": "quorumType",
          "type": "uint8"
        },
        {
          "internalType": "uint256",
          "name": "endTime",
          "type": "uint256"
        },
        {
          "internalType": "address",
          "name": "proposer",
          "type": "address"
        },
        {
          "internalType": "bool",
          "name": "active",
          "type": "bool"
        },
        {
          "internalType": "uint256",
          "name": "votesFor",
          "type": "uint256"
        },
        {
          "internalType": "uint256",
          "name": "votesAgainst",
          "type": "uint256"
        }
      ],
      "stateMutability": "view",
      "type": "function"
    },
    {
      "inputs": [
        {
          "internalType": "address",
          "name": "account",
          "type": "address"
        },
        {
          "internalType": "uint256",
          "name": "_shares",
          "type": "uint256"
        }
      ],
      "name": "registerShareholder",
      "outputs": [],
      "stateMutability": "nonpayable",
      "type": "function"
    },
    {
      "inputs": [
        {
          "internalType": "address",
          "name": "admin",
          "type": "address"
        }
      ],
      "name": "removeAdmin",
      "outputs": [],
      "stateMutability": "nonpayable",
      "type": "function"
    },
    {
      "inputs": [
        {
          "internalType": "address",
          "name": "",
          "type": "address"
        }
      ],
      "name": "shares",
      "outputs": [
        {
          "internalType": "uint256",
          "name": "",
          "type": "uint256"
        }
      ],
      "stateMutability": "view",
      "type": "function"
    },
    {
      "inputs": [
        {
          "internalType": "address",
          "name": "",
          "type": "address"
        }
      ],
      "name": "tokens",
      "outputs": [
        {
          "internalType": "uint256",
          "name": "",
          "type": "uint256"
        }
      ],
      "stateMutability": "view",
      "type": "function"
    },
    {
      "inputs": [],
      "name": "totalShares",
      "outputs": [
        {
          "internalType": "uint256",
          "name": "",
          "type": "uint256"
        }
      ],
      "stateMutability": "view",
      "type": "function"
    },
    {
      "inputs": [
        {
          "internalType": "address",
          "name": "voter",
          "type": "address"
        },
        {
          "internalType": "uint256",
          "name": "newShares",
          "type": "uint256"
        }
      ],
      "name": "updateShares",
      "outputs": [],
      "stateMutability": "nonpayable",
      "type": "function"
    },
    {
      "inputs": [
        {
          "internalType": "address",
          "name": "account",
          "type": "address"
        },
        {
          "internalType": "uint256",
          "name": "voteAmount",
          "type": "uint256"
        }
      ],
      "name": "vote",
      "outputs": [],
      "stateMutability": "nonpayable",
      "type": "function"
    },
    {
      "inputs": [
        {
          "internalType": "address",
          "name": "",
          "type": "address"
        }
      ],
      "name": "voted",
      "outputs": [
        {
          "internalType": "bool",
          "name": "",
          "type": "bool"
        }
      ],
      "stateMutability": "view",
      "type": "function"
    },
    {
      "inputs": [],
      "name": "votingEndTime",
      "outputs": [
        {
          "internalType": "uint256",
          "name": "",
          "type": "uint256"
        }
      ],
      "stateMutability": "view",
      "type": "function"
    },
    {
      "inputs": [
        {
          "internalType": "address",
          "name": "",
          "type": "address"
        },
        {
          "internalType": "uint256",
          "name": "",
          "type": "uint256"
        }
      ],
      "name": "votingHistory",
      "outputs": [
        {
          "internalType": "uint256",
          "name": "proposalId",
          "type": "uint256"
        },
        {
          "internalType": "bool",
          "name": "votedFor",
          "type": "bool"
        },
        {
          "internalType": "uint256",
          "name": "voteWeight",
          "type": "uint256"
        }
      ],
      "stateMutability": "view",
      "type": "function"
    }
  ],
  "bytecode": "0x60806040523480156200001157600080fd5b5060405162002e9438038062002e94833981810160405281019062000037919062000307565b80600b60006101000a81548173ffffffffffffffffffffffffffffffffffffffff021916908373ffffffffffffffffffffffffffffffffffffffff16021790555060005b82518110156200011057600160046000858481518110620000a157620000a06200036d565b5b602002602001015173ffffffffffffffffffffffffffffffffffffffff1673ffffffffffffffffffffffffffffffffffffffff16815260200190815260200160002060006101000a81548160ff02191690831515021790555080806200010790620003d5565b9150506200007b565b50505062000422565b6000604051905090565b600080fd5b600080fd5b600080fd5b6000601f19601f8301169050919050565b7f4e487b7100000000000000000000000000000000000000000000000000000000600052604160045260246000fd5b6200017d8262000132565b810181811067ffffffffffffffff821117156200019f576200019e62000143565b5b80604052505050565b6000620001b462000119565b9050620001c2828262000172565b919050565b600067ffffffffffffffff821115620001e557620001e462000143565b5b602082029050602081019050919050565b600080fd5b600073ffffffffffffffffffffffffffffffffffffffff82169050919050565b60006200022882620001fb565b9050919050565b6200023a816200021b565b81146200024657600080fd5b50565b6000815190506200025a816200022f565b92915050565b6000620002776200027184620001c7565b620001a8565b905080838252602082019050602084028301858111156200029d576200029c620001f6565b5b835b81811015620002ca5780620002b5888262000249565b8452602084019350506020810190506200029f565b5050509392505050565b600082601f830112620002ec57620002eb6200012d565b5b8151620002fe84826020860162000260565b91505092915050565b6000806040838503121562000321576200032062000123565b5b600083015167ffffffffffffffff81111562000342576200034162000128565b5b6200035085828601620002d4565b9250506020620003638582860162000249565b9150509250929050565b7f4e487b7100000000000000000000000000000000000000000000000000000000600052603260045260246000fd5b7f4e487b7100000000000000000000000000000000000000000000000000000000600052601160045260246000fd5b6000819050919050565b6000620003e282620003cb565b91507fffffffffffffffffffffffffffffffffffffffffffffffffffffffffffffffff82036200041757620004166200039c565b5b600182019050919050565b612a6280620004326000396000f3fe6080604052600436106101665760003560e01c806370f6e05d116100d1578063afafa0cf1161008a578063da35c66411610064578063da35c66414610585578063e4860339146105b0578063e5d0821f146105ed578063f96dae0a1461061657610166565b8063afafa0cf146104e0578063ce7c2ac214610509578063d09c34f21461054657610166565b806370f6e05d146103c95780638259d553146103e557806398e527d31461040e5780639fcc5ce414610439578063a9c0310d14610464578063aec2ccae146104a357610166565b8063429b62e511610123578063429b62e514610295578063450efe21146102d25780635f74bbde1461030f57806362564c48146103385780636fdb6f7c1461036357806370480275146103a057610166565b8063013cf08b1461016b57806315373e3d146101b05780631785f53c146101d95780631ea736e01461020257806324d7806c1461022d5780633a98ef391461026a575b600080fd5b34801561017757600080fd5b50610192600480360381019061018d91906118c8565b610641565b6040516101a799989796959493929190611a0c565b60405180910390f35b3480156101bc57600080fd5b506101d760048036038101906101d29190611ad3565b6107e9565b005b3480156101e557600080fd5b5061020060048036038101906101fb9190611b3f565b610b47565b005b34801561020e57600080fd5b50610217610c2e565b6040516102249190611b6c565b60405180910390f35b34801561023957600080fd5b50610254600480360381019061024f9190611b3f565b610c34565b6040516102619190611b87565b60405180910390f35b34801561027657600080fd5b5061027f610c8a565b60405161028c9190611b6c565b60405180910390f35b3480156102a157600080fd5b506102bc60048036038101906102b79190611b3f565b610c90565b6040516102c99190611b87565b60405180910390f35b3480156102de57600080fd5b506102f960048036038101906102f49190611b3f565b610cb0565b6040516103069190611b6c565b60405180910390f35b34801561031b57600080fd5b5061033660048036038101906103319190611ba2565b610cf9565b005b34801561034457600080fd5b5061034d610f27565b60405161035a9190611df6565b60405180910390f35b34801561036f57600080fd5b5061038a600480360381019061038591906118c8565b611161565b6040516103979190611e5a565b60405180910390f35b3480156103ac57600080fd5b506103c760048036038101906103c29190611b3f565b6111bd565b005b6103e360048036038101906103de9190611fd6565b6112a4565b005b3480156103f157600080fd5b5061040c600480360381019061040791906118c8565b6114eb565b005b34801561041a57600080fd5b5061042361162c565b6040516104309190611b6c565b60405180910390f35b34801561044557600080fd5b5061044e611636565b60405161045b9190611b87565b60405180910390f35b34801561047057600080fd5b5061048b600480360381019061048691906118c8565b611649565b60405161049a93929190612075565b60405180910390f35b3480156104af57600080fd5b506104ca60048036038101906104c59190611b3f565b611680565b6040516104d79190611b87565b60405180910390f35b3480156104ec57600080fd5b5061050760048036038101906105029190611ba2565b6116a0565b005b34801561051557600080fd5b50610530600480360381019061052b9190611b3f565b61172b565b60405161053d9190611b6c565b60405180910390f35b34801561055257600080fd5b5061056d60048036038101906105689190611ba2565b611743565b60405161057c939291906120ac565b60405180910390f35b34801561059157600080fd5b5061059a611797565b6040516105a79190611b6c565b60405180910390f35b3480156105bc57600080fd5b506105d760048036038101906105d29190611b3f565b61179d565b6040516105e49190611b6c565b60405180910390f35b3480156105f957600080fd5b50610614600480360381019061060f9190611ba2565b6117b5565b005b34801561062257600080fd5b5061062b611835565b6040516106389190612142565b60405180910390f35b6007818154811061065157600080fd5b90600052602060002090600802016000915090508060000180546106749061218c565b80601f01602080910402602001604051908101604052809291908181526020018280546106a09061218c565b80156106ed5780601f106106c2576101008083540402835291602001916106ed565b820191906000526020600020905b8154815290600101906020018083116106d057829003601f168201915b5050505050908060010180546107029061218c565b80601f016020809104026020016040519081016040528092919081815260200182805461072e9061218c565b801561077b5780601f106107505761010080835404028352916020019161077b565b820191906000526020600020905b81548152906001019060200180831161075e57829003601f168201915b5050505050908060020154908060030160009054906101000a900460ff16908060040154908060050160009054906101000a900473ffffffffffffffffffffffffffffffffffffffff16908060050160149054906101000a900460ff16908060060154908060070154905089565b600660003373ffffffffffffffffffffffffffffffffffffffff1673ffffffffffffffffffffffffffffffffffffffff16815260200190815260200160002060009054906101000a900460ff1615610876576040517f08c379a000000000000000000000000000000000000000000000000000000000815260040161086d90612209565b60405180910390fd5b6007828154811061088a57610889612229565b5b906000526020600020906008020160050160149054906101000a900460ff166108e8576040517f08c379a00000000000000000000000000000000000000000000000000000000081526004016108df906122a4565b60405180910390fd5b60008060003373ffffffffffffffffffffffffffffffffffffffff1673ffffffffffffffffffffffffffffffffffffffff1681526020019081526020016000205490506000811161096e576040517f08c379a000000000000000000000000000000000000000000000000000000000815260040161096590612310565b60405180910390fd5b81156109b557806007848154811061098957610988612229565b5b906000526020600020906008020160060160008282546109a9919061235f565b925050819055506109f2565b80600784815481106109ca576109c9612229565b5b906000526020600020906008020160070160008282546109ea919061235f565b925050819055505b600260003373ffffffffffffffffffffffffffffffffffffffff1673ffffffffffffffffffffffffffffffffffffffff168152602001908152602001600020604051806060016040528085815260200184151581526020018381525090806001815401808255809150506001900390600052602060002090600302016000909190919091506000820151816000015560208201518160010160006101000a81548160ff0219169083151502179055506040820151816002015550506001600660003373ffffffffffffffffffffffffffffffffffffffff1673ffffffffffffffffffffffffffffffffffffffff16815260200190815260200160002060006101000a81548160ff0219169083151502179055507fb898e75d5aac8de2f407e4a683c8d909e832d1e371e3bff0fa3ed934e88d956283338385604051610b3a9493929190612393565b60405180910390a1505050565b600460003373ffffffffffffffffffffffffffffffffffffffff1673ffffffffffffffffffffffffffffffffffffffff16815260200190815260200160002060009054906101000a900460ff16610bd3576040517f08c379a0000000000000000000000000000000000000000000000000000000008152600401610bca9061244a565b60405180910390fd5b6000600460008373ffffffffffffffffffffffffffffffffffffffff1673ffffffffffffffffffffffffffffffffffffffff16815260200190815260200160002060006101000a81548160ff02191690831515021790555050565b600a5481565b6000600460008373ffffffffffffffffffffffffffffffffffffffff1673ffffffffffffffffffffffffffffffffffffffff16815260200190815260200160002060009054906101000a900460ff169050919050565b60055481565b60046020528060005260406000206000915054906101000a900460ff1681565b6000600160008373ffffffffffffffffffffffffffffffffffffffff1673ffffffffffffffffffffffffffffffffffffffff168152602001908152602001600020549050919050565b80600160008473ffffffffffffffffffffffffffffffffffffffff1673ffffffffffffffffffffffffffffffffffffffff168152602001908152602001600020541015610d7b576040517f08c379a0000000000000000000000000000000000000000000000000000000008152600401610d72906124b6565b60405180910390fd5b80600160008473ffffffffffffffffffffffffffffffffffffffff1673ffffffffffffffffffffffffffffffffffffffff1681526020019081526020016000206000828254610dca91906124d6565b925050819055508060056000828254610de391906124d6565b92505081905550806007600081548110610e0057610dff612229565b5b90600052602060002090600802016006016000828254610e20919061235f565b92505081905550600260008373ffffffffffffffffffffffffffffffffffffffff1673ffffffffffffffffffffffffffffffffffffffff1681526020019081526020016000206040518060600160405280600081526020016001151581526020018381525090806001815401808255809150506001900390600052602060002090600302016000909190919091506000820151816000015560208201518160010160006101000a81548160ff0219169083151502179055506040820151816002015550507fb898e75d5aac8de2f407e4a683c8d909e832d1e371e3bff0fa3ed934e88d9562600083836001604051610f1b9493929190612545565b60405180910390a15050565b60606007805480602002602001604051908101604052809291908181526020016000905b82821015611158578382906000526020600020906008020160405180610120016040529081600082018054610f7f9061218c565b80601f0160208091040260200160405190810160405280929190818152602001828054610fab9061218c565b8015610ff85780601f10610fcd57610100808354040283529160200191610ff8565b820191906000526020600020905b815481529060010190602001808311610fdb57829003601f168201915b505050505081526020016001820180546110119061218c565b80601f016020809104026020016040519081016040528092919081815260200182805461103d9061218c565b801561108a5780601f1061105f5761010080835404028352916020019161108a565b820191906000526020600020905b81548152906001019060200180831161106d57829003601f168201915b50505050508152602001600282015481526020016003820160009054906101000a900460ff1660ff1660ff168152602001600482015481526020016005820160009054906101000a900473ffffffffffffffffffffffffffffffffffffffff1673ffffffffffffffffffffffffffffffffffffffff1673ffffffffffffffffffffffffffffffffffffffff1681526020016005820160149054906101000a900460ff161515151581526020016006820154815260200160078201548152505081526020019060010190610f4b565b50505050905090565b61116961185b565b600360008381526020019081526020016000206040518060600160405290816000820160009054906101000a900460ff16151515158152602001600182015481526020016002820154815250509050919050565b600460003373ffffffffffffffffffffffffffffffffffffffff1673ffffffffffffffffffffffffffffffffffffffff16815260200190815260200160002060009054906101000a900460ff16611249576040517f08c379a00000000000000000000000000000000000000000000000000000000081526004016112409061244a565b60405180910390fd5b6001600460008373ffffffffffffffffffffffffffffffffffffffff1673ffffffffffffffffffffffffffffffffffffffff16815260200190815260200160002060006101000a81548160ff02191690831515021790555050565b670de0b6b3a764000034146112ee576040517f08c379a00000000000000000000000000000000000000000000000000000000081526004016112e5906125fc565b60405180910390fd5b6000603c836112fd919061261c565b42611308919061235f565b905060076040518061012001604052808781526020018681526020018581526020018460ff1681526020018381526020013373ffffffffffffffffffffffffffffffffffffffff168152602001600115158152602001600081526020016000815250908060018154018082558091505060019003906000526020600020906008020160009091909190915060008201518160000190816113a89190612800565b5060208201518160010190816113be9190612800565b506040820151816002015560608201518160030160006101000a81548160ff021916908360ff1602179055506080820151816004015560a08201518160050160006101000a81548173ffffffffffffffffffffffffffffffffffffffff021916908373ffffffffffffffffffffffffffffffffffffffff16021790555060c08201518160050160146101000a81548160ff02191690831515021790555060e08201518160060155610100820151816007015550506000600160078054905061148691906124d6565b90506008600081548092919061149b906128d2565b91905055507f3d7708da99615a873ed0ef5e0b10f8b1bd8e76e197387471a6a8ca12c29da913818787878787336040516114db979695949392919061291a565b60405180910390a1505050505050565b600460003373ffffffffffffffffffffffffffffffffffffffff1673ffffffffffffffffffffffffffffffffffffffff16815260200190815260200160002060009054906101000a900460ff16611577576040517f08c379a000000000000000000000000000000000000000000000000000000000815260040161156e9061244a565b60405180910390fd5b60078054905081106115be576040517f08c379a00000000000000000000000000000000000000000000000000000000081526004016115b5906129e3565b60405180910390fd5b6000600782815481106115d4576115d3612229565b5b906000526020600020906008020160050160146101000a81548160ff021916908315150217905550807f61c0d93dc2b610877e420b107c8d12e9185e46e04a505da758cc7f7329ae545f60405160405180910390a250565b6000600854905090565b600960009054906101000a900460ff1681565b60036020528060005260406000206000915090508060000160009054906101000a900460ff16908060010154908060020154905083565b60066020528060005260406000206000915054906101000a900460ff1681565b806000808473ffffffffffffffffffffffffffffffffffffffff1673ffffffffffffffffffffffffffffffffffffffff1681526020019081526020016000208190555080600160008473ffffffffffffffffffffffffffffffffffffffff1673ffffffffffffffffffffffffffffffffffffffff168152602001908152602001600020819055505050565b60006020528060005260406000206000915090505481565b6002602052816000526040600020818154811061175f57600080fd5b9060005260206000209060030201600091509150508060000154908060010160009054906101000a900460ff16908060020154905083565b60085481565b60016020528060005260406000206000915090505481565b806000808473ffffffffffffffffffffffffffffffffffffffff1673ffffffffffffffffffffffffffffffffffffffff168152602001908152602001600020819055507fe6382c9ed5c0c33bb05042f73cf6cbe9cb25639f9a711e094ee563bc9cb80e2c8282604051611829929190612a03565b60405180910390a15050565b600b60009054906101000a900473ffffffffffffffffffffffffffffffffffffffff1681565b604051806060016040528060001515815260200160008152602001600081525090565b6000604051905090565b600080fd5b600080fd5b6000819050919050565b6118a581611892565b81146118b057600080fd5b50565b6000813590506118c28161189c565b92915050565b6000602082840312156118de576118dd611888565b5b60006118ec848285016118b3565b91505092915050565b600081519050919050565b600082825260208201905092915050565b60005b8381101561192f578082015181840152602081019050611914565b60008484015250505050565b6000601f19601f8301169050919050565b6000611957826118f5565b6119618185611900565b9350611971818560208601611911565b61197a8161193b565b840191505092915050565b61198e81611892565b82525050565b600060ff82169050919050565b6119aa81611994565b82525050565b600073ffffffffffffffffffffffffffffffffffffffff82169050919050565b60006119db826119b0565b9050919050565b6119eb816119d0565b82525050565b60008115159050919050565b611a06816119f1565b82525050565b6000610120820190508181036000830152611a27818c61194c565b90508181036020830152611a3b818b61194c565b9050611a4a604083018a611985565b611a5760608301896119a1565b611a646080830188611985565b611a7160a08301876119e2565b611a7e60c08301866119fd565b611a8b60e0830185611985565b611a99610100830184611985565b9a9950505050505050505050565b611ab0816119f1565b8114611abb57600080fd5b50565b600081359050611acd81611aa7565b92915050565b60008060408385031215611aea57611ae9611888565b5b6000611af8858286016118b3565b9250506020611b0985828601611abe565b9150509250929050565b611b1c816119d0565b8114611b2757600080fd5b50565b600081359050611b3981611b13565b92915050565b600060208284031215611b5557611b54611888565b5b6000611b6384828501611b2a565b91505092915050565b6000602082019050611b816000830184611985565b92915050565b6000602082019050611b9c60008301846119fd565b92915050565b60008060408385031215611bb957611bb8611888565b5b6000611bc785828601611b2a565b9250506020611bd8858286016118b3565b9150509250929050565b600081519050919050565b600082825260208201905092915050565b6000819050602082019050919050565b600082825260208201905092915050565b6000611c2a826118f5565b611c348185611c0e565b9350611c44818560208601611911565b611c4d8161193b565b840191505092915050565b611c6181611892565b82525050565b611c7081611994565b82525050565b611c7f816119d0565b82525050565b611c8e816119f1565b82525050565b6000610120830160008301518482036000860152611cb28282611c1f565b91505060208301518482036020860152611ccc8282611c1f565b9150506040830151611ce16040860182611c58565b506060830151611cf46060860182611c67565b506080830151611d076080860182611c58565b5060a0830151611d1a60a0860182611c76565b5060c0830151611d2d60c0860182611c85565b5060e0830151611d4060e0860182611c58565b50610100830151611d55610100860182611c58565b508091505092915050565b6000611d6c8383611c94565b905092915050565b6000602082019050919050565b6000611d8c82611be2565b611d968185611bed565b935083602082028501611da885611bfe565b8060005b85811015611de45784840389528151611dc58582611d60565b9450611dd083611d74565b925060208a01995050600181019050611dac565b50829750879550505050505092915050565b60006020820190508181036000830152611e108184611d81565b905092915050565b606082016000820151611e2e6000850182611c85565b506020820151611e416020850182611c58565b506040820151611e546040850182611c58565b50505050565b6000606082019050611e6f6000830184611e18565b92915050565b600080fd5b600080fd5b7f4e487b7100000000000000000000000000000000000000000000000000000000600052604160045260246000fd5b611eb78261193b565b810181811067ffffffffffffffff82111715611ed657611ed5611e7f565b5b80604052505050565b6000611ee961187e565b9050611ef58282611eae565b919050565b600067ffffffffffffffff821115611f1557611f14611e7f565b5b611f1e8261193b565b9050602081019050919050565b82818337600083830152505050565b6000611f4d611f4884611efa565b611edf565b905082815260208101848484011115611f6957611f68611e7a565b5b611f74848285611f2b565b509392505050565b600082601f830112611f9157611f90611e75565b5b8135611fa1848260208601611f3a565b91505092915050565b611fb381611994565b8114611fbe57600080fd5b50565b600081359050611fd081611faa565b92915050565b60008060008060808587031215611ff057611fef611888565b5b600085013567ffffffffffffffff81111561200e5761200d61188d565b5b61201a87828801611f7c565b945050602085013567ffffffffffffffff81111561203b5761203a61188d565b5b61204787828801611f7c565b9350506040612058878288016118b3565b925050606061206987828801611fc1565b91505092959194509250565b600060608201905061208a60008301866119fd565b6120976020830185611985565b6120a46040830184611985565b949350505050565b60006060820190506120c16000830186611985565b6120ce60208301856119fd565b6120db6040830184611985565b949350505050565b6000819050919050565b60006121086121036120fe846119b0565b6120e3565b6119b0565b9050919050565b600061211a826120ed565b9050919050565b600061212c8261210f565b9050919050565b61213c81612121565b82525050565b60006020820190506121576000830184612133565b92915050565b7f4e487b7100000000000000000000000000000000000000000000000000000000600052602260045260246000fd5b600060028204905060018216806121a457607f821691505b6020821081036121b7576121b661215d565b5b50919050565b7f596f75206861766520616c726561647920766f74656400000000000000000000600082015250565b60006121f3601683611900565b91506121fe826121bd565b602082019050919050565b60006020820190508181036000830152612222816121e6565b9050919050565b7f4e487b7100000000000000000000000000000000000000000000000000000000600052603260045260246000fd5b7f50726f706f73616c206973206e6f742061637469766500000000000000000000600082015250565b600061228e601683611900565b915061229982612258565b602082019050919050565b600060208201905081810360008301526122bd81612281565b9050919050565b7f596f75206d75737420686f6c642073686172657320746f20766f746500000000600082015250565b60006122fa601c83611900565b9150612305826122c4565b602082019050919050565b60006020820190508181036000830152612329816122ed565b9050919050565b7f4e487b7100000000000000000000000000000000000000000000000000000000600052601160045260246000fd5b600061236a82611892565b915061237583611892565b925082820190508082111561238d5761238c612330565b5b92915050565b60006080820190506123a86000830187611985565b6123b560208301866119e2565b6123c26040830185611985565b6123cf60608301846119fd565b95945050505050565b7f4f6e6c792061646d696e732063616e20706572666f726d20746869732061637460008201527f696f6e0000000000000000000000000000000000000000000000000000000000602082015250565b6000612434602383611900565b915061243f826123d8565b604082019050919050565b6000602082019050818103600083015261246381612427565b9050919050565b7f4e6f7420656e6f75676820746f6b656e7320746f20766f746500000000000000600082015250565b60006124a0601983611900565b91506124ab8261246a565b602082019050919050565b600060208201905081810360008301526124cf81612493565b9050919050565b60006124e182611892565b91506124ec83611892565b925082820390508181111561250457612503612330565b5b92915050565b6000819050919050565b600061252f61252a6125258461250a565b6120e3565b611892565b9050919050565b61253f81612514565b82525050565b600060808201905061255a6000830187612536565b61256760208301866119e2565b6125746040830185611985565b61258160608301846119fd565b95945050505050565b7f4d7573742073656e6420312045544820746f2063726561746520612070726f7060008201527f6f73616c00000000000000000000000000000000000000000000000000000000602082015250565b60006125e6602483611900565b91506125f18261258a565b604082019050919050565b60006020820190508181036000830152612615816125d9565b9050919050565b600061262782611892565b915061263283611892565b925082820261264081611892565b9150828204841483151761265757612656612330565b5b5092915050565b60008190508160005260206000209050919050565b60006020601f8301049050919050565b600082821b905092915050565b6000600883026126c07fffffffffffffffffffffffffffffffffffffffffffffffffffffffffffffffff82612683565b6126ca8683612683565b95508019841693508086168417925050509392505050565b60006126fd6126f86126f384611892565b6120e3565b611892565b9050919050565b6000819050919050565b612717836126e2565b61272b61272382612704565b848454612690565b825550505050565b600090565b612740612733565b61274b81848461270e565b505050565b5b8181101561276f57612764600082612738565b600181019050612751565b5050565b601f8211156127b4576127858161265e565b61278e84612673565b8101602085101561279d578190505b6127b16127a985612673565b830182612750565b50505b505050565b600082821c905092915050565b60006127d7600019846008026127b9565b1980831691505092915050565b60006127f083836127c6565b9150826002028217905092915050565b612809826118f5565b67ffffffffffffffff81111561282257612821611e7f565b5b61282c825461218c565b612837828285612773565b600060209050601f83116001811461286a5760008415612858578287015190505b61286285826127e4565b8655506128ca565b601f1984166128788661265e565b60005b828110156128a05784890151825560018201915060208501945060208101905061287b565b868310156128bd57848901516128b9601f8916826127c6565b8355505b6001600288020188555050505b505050505050565b60006128dd82611892565b91507fffffffffffffffffffffffffffffffffffffffffffffffffffffffffffffffff820361290f5761290e612330565b5b600182019050919050565b600060e08201905061292f600083018a611985565b8181036020830152612941818961194c565b90508181036040830152612955818861194c565b90506129646060830187611985565b61297160808301866119a1565b61297e60a0830185611985565b61298b60c08301846119e2565b98975050505050505050565b7f496e76616c69642070726f706f73616c20494400000000000000000000000000600082015250565b60006129cd601383611900565b91506129d882612997565b602082019050919050565b600060208201905081810360008301526129fc816129c0565b9050919050565b6000604082019050612a1860008301856119e2565b612a256020830184611985565b939250505056fea26469706673582212201d8b87a64407673591221551a7d6887b925e8b881230980d07e196981a2168e664736f6c63430008140033",
  "linkReferences": {},
  "deployedLinkReferences": {}
}