{
  "_format": "hh-sol-artifact-1",
  "contractName": "VotingContract",
  "sourceName": "contracts/smartContract.sol",
  "abi": [
    {
      "inputs": [
        {
          "internalType": "address",
          "name": "_tokenAddress",
          "type": "address"
        }
      ],
      "stateMutability": "nonpayable",
      "type": "constructor"
    },
    {
      "anonymous": false,
      "inputs": [
        {
          "indexed": false,
          "internalType": "uint256",
          "name": "proposalId",
          "type": "uint256"
        },
        {
          "indexed": false,
          "internalType": "string",
          "name": "description",
          "type": "string"
        },
        {
          "indexed": false,
          "internalType": "uint256",
          "name": "votingEndTime",
          "type": "uint256"
        }
      ],
      "name": "ProposalCreated",
      "type": "event"
    },
    {
      "anonymous": false,
      "inputs": [
        {
          "indexed": false,
          "internalType": "address",
          "name": "voter",
          "type": "address"
        },
        {
          "indexed": false,
          "internalType": "uint256",
          "name": "rewardAmount",
          "type": "uint256"
        }
      ],
      "name": "RewardIssued",
      "type": "event"
    },
    {
      "anonymous": false,
      "inputs": [
        {
          "indexed": false,
          "internalType": "address",
          "name": "voter",
          "type": "address"
        },
        {
          "indexed": false,
          "internalType": "uint256",
          "name": "newShares",
          "type": "uint256"
        }
      ],
      "name": "SharesUpdated",
      "type": "event"
    },
    {
      "anonymous": false,
      "inputs": [
        {
          "indexed": false,
          "internalType": "uint256",
          "name": "proposalId",
          "type": "uint256"
        },
        {
          "indexed": false,
          "internalType": "address",
          "name": "voter",
          "type": "address"
        },
        {
          "indexed": false,
          "internalType": "uint256",
          "name": "weight",
          "type": "uint256"
        },
        {
          "indexed": false,
          "internalType": "bool",
          "name": "voteFor",
          "type": "bool"
        }
      ],
      "name": "VoteCast",
      "type": "event"
    },
    {
      "inputs": [
        {
          "internalType": "string",
          "name": "title",
          "type": "string"
        },
        {
          "internalType": "string",
          "name": "description",
          "type": "string"
        },
        {
          "internalType": "uint256",
          "name": "durationInMinutes",
          "type": "uint256"
        },
        {
          "internalType": "enum VotingContract.QuorumType",
          "name": "quorumType",
          "type": "uint8"
        }
      ],
      "name": "createProposal",
      "outputs": [],
      "stateMutability": "payable",
      "type": "function"
    },
    {
      "inputs": [
        {
          "internalType": "uint256",
          "name": "proposalId",
          "type": "uint256"
        }
      ],
      "name": "endVoting",
      "outputs": [],
      "stateMutability": "nonpayable",
      "type": "function"
    },
    {
      "inputs": [
        {
          "internalType": "uint256",
          "name": "proposalId",
          "type": "uint256"
        }
      ],
      "name": "getProposalOutcome",
      "outputs": [
        {
          "components": [
            {
              "internalType": "bool",
              "name": "passed",
              "type": "bool"
            },
            {
              "internalType": "uint256",
              "name": "votesFor",
              "type": "uint256"
            },
            {
              "internalType": "uint256",
              "name": "votesAgainst",
              "type": "uint256"
            }
          ],
          "internalType": "struct VotingContract.ProposalOutcome",
          "name": "",
          "type": "tuple"
        }
      ],
      "stateMutability": "view",
      "type": "function"
    },
    {
      "inputs": [
        {
          "internalType": "uint256",
          "name": "startIndex",
          "type": "uint256"
        },
        {
          "internalType": "uint256",
          "name": "endIndex",
          "type": "uint256"
        }
      ],
      "name": "getProposals",
      "outputs": [
        {
          "components": [
            {
              "internalType": "string",
              "name": "title",
              "type": "string"
            },
            {
              "internalType": "string",
              "name": "description",
              "type": "string"
            },
            {
              "internalType": "uint256",
              "name": "votesFor",
              "type": "uint256"
            },
            {
              "internalType": "uint256",
              "name": "votesAgainst",
              "type": "uint256"
            },
            {
              "internalType": "bool",
              "name": "active",
              "type": "bool"
            },
            {
              "internalType": "uint256",
              "name": "votingEndTime",
              "type": "uint256"
            },
            {
              "internalType": "uint256",
              "name": "totalVotesCast",
              "type": "uint256"
            },
            {
              "internalType": "enum VotingContract.QuorumType",
              "name": "quorumType",
              "type": "uint8"
            }
          ],
          "internalType": "struct VotingContract.Proposal[]",
          "name": "",
          "type": "tuple[]"
        }
      ],
      "stateMutability": "view",
      "type": "function"
    },
    {
      "inputs": [],
      "name": "getProposalsCount",
      "outputs": [
        {
          "internalType": "uint256",
          "name": "",
          "type": "uint256"
        }
      ],
      "stateMutability": "view",
      "type": "function"
    },
    {
      "inputs": [
        {
          "internalType": "uint256",
          "name": "proposalId",
          "type": "uint256"
        }
      ],
      "name": "getVotingProgress",
      "outputs": [
        {
          "internalType": "uint256",
          "name": "progress",
          "type": "uint256"
        },
        {
          "internalType": "uint256",
          "name": "requiredQuorum",
          "type": "uint256"
        }
      ],
      "stateMutability": "view",
      "type": "function"
    },
    {
      "inputs": [],
      "name": "governanceToken",
      "outputs": [
        {
          "internalType": "contract GovernanceToken",
          "name": "",
          "type": "address"
        }
      ],
      "stateMutability": "view",
      "type": "function"
    },
    {
      "inputs": [
        {
          "internalType": "uint256",
          "name": "proposalId",
          "type": "uint256"
        }
      ],
      "name": "hasMetQuorum",
      "outputs": [
        {
          "internalType": "bool",
          "name": "",
          "type": "bool"
        }
      ],
      "stateMutability": "view",
      "type": "function"
    },
    {
      "inputs": [],
      "name": "isVotingPeriodActive",
      "outputs": [
        {
          "internalType": "bool",
          "name": "",
          "type": "bool"
        }
      ],
      "stateMutability": "view",
      "type": "function"
    },
    {
      "inputs": [],
      "name": "proposalCount",
      "outputs": [
        {
          "internalType": "uint256",
          "name": "",
          "type": "uint256"
        }
      ],
      "stateMutability": "view",
      "type": "function"
    },
    {
      "inputs": [
        {
          "internalType": "uint256",
          "name": "",
          "type": "uint256"
        }
      ],
      "name": "proposalOutcomes",
      "outputs": [
        {
          "internalType": "bool",
          "name": "passed",
          "type": "bool"
        },
        {
          "internalType": "uint256",
          "name": "votesFor",
          "type": "uint256"
        },
        {
          "internalType": "uint256",
          "name": "votesAgainst",
          "type": "uint256"
        }
      ],
      "stateMutability": "view",
      "type": "function"
    },
    {
      "inputs": [
        {
          "internalType": "uint256",
          "name": "",
          "type": "uint256"
        }
      ],
      "name": "proposals",
      "outputs": [
        {
          "internalType": "string",
          "name": "title",
          "type": "string"
        },
        {
          "internalType": "string",
          "name": "description",
          "type": "string"
        },
        {
          "internalType": "uint256",
          "name": "votesFor",
          "type": "uint256"
        },
        {
          "internalType": "uint256",
          "name": "votesAgainst",
          "type": "uint256"
        },
        {
          "internalType": "bool",
          "name": "active",
          "type": "bool"
        },
        {
          "internalType": "uint256",
          "name": "votingEndTime",
          "type": "uint256"
        },
        {
          "internalType": "uint256",
          "name": "totalVotesCast",
          "type": "uint256"
        },
        {
          "internalType": "enum VotingContract.QuorumType",
          "name": "quorumType",
          "type": "uint8"
        }
      ],
      "stateMutability": "view",
      "type": "function"
    },
    {
      "inputs": [
        {
          "internalType": "address",
          "name": "voter",
          "type": "address"
        },
        {
          "internalType": "uint256",
          "name": "shareCount",
          "type": "uint256"
        }
      ],
      "name": "registerShareholder",
      "outputs": [],
      "stateMutability": "nonpayable",
      "type": "function"
    },
    {
      "inputs": [
        {
          "internalType": "address",
          "name": "",
          "type": "address"
        }
      ],
      "name": "shares",
      "outputs": [
        {
          "internalType": "uint256",
          "name": "",
          "type": "uint256"
        }
      ],
      "stateMutability": "view",
      "type": "function"
    },
    {
      "inputs": [],
      "name": "totalShares",
      "outputs": [
        {
          "internalType": "uint256",
          "name": "",
          "type": "uint256"
        }
      ],
      "stateMutability": "view",
      "type": "function"
    },
    {
      "inputs": [
        {
          "internalType": "address",
          "name": "voter",
          "type": "address"
        },
        {
          "internalType": "uint256",
          "name": "newShares",
          "type": "uint256"
        }
      ],
      "name": "updateShares",
      "outputs": [],
      "stateMutability": "nonpayable",
      "type": "function"
    },
    {
      "inputs": [
        {
          "internalType": "uint256",
          "name": "proposalId",
          "type": "uint256"
        },
        {
          "internalType": "bool",
          "name": "voteFor",
          "type": "bool"
        }
      ],
      "name": "vote",
      "outputs": [],
      "stateMutability": "nonpayable",
      "type": "function"
    },
    {
      "inputs": [],
      "name": "votingEndTime",
      "outputs": [
        {
          "internalType": "uint256",
          "name": "",
          "type": "uint256"
        }
      ],
      "stateMutability": "view",
      "type": "function"
    },
    {
      "inputs": [
        {
          "internalType": "address",
          "name": "",
          "type": "address"
        },
        {
          "internalType": "uint256",
          "name": "",
          "type": "uint256"
        }
      ],
      "name": "votingHistory",
      "outputs": [
        {
          "internalType": "uint256",
          "name": "proposalId",
          "type": "uint256"
        },
        {
          "internalType": "bool",
          "name": "votedFor",
          "type": "bool"
        },
        {
          "internalType": "uint256",
          "name": "voteWeight",
          "type": "uint256"
        }
      ],
      "stateMutability": "view",
      "type": "function"
    }
  ],
  "bytecode": "0x608060405234801561001057600080fd5b50604051612aa1380380612aa1833981810160405281019061003291906100dc565b80600860006101000a81548173ffffffffffffffffffffffffffffffffffffffff021916908373ffffffffffffffffffffffffffffffffffffffff16021790555050610109565b600080fd5b600073ffffffffffffffffffffffffffffffffffffffff82169050919050565b60006100a98261007e565b9050919050565b6100b98161009e565b81146100c457600080fd5b50565b6000815190506100d6816100b0565b92915050565b6000602082840312156100f2576100f1610079565b5b6000610100848285016100c7565b91505092915050565b612989806101186000396000f3fe6080604052600436106101145760003560e01c80639baf1c97116100a0578063ce7c2ac211610064578063ce7c2ac2146103d4578063d09c34f214610411578063da35c66414610450578063e5d0821f1461047b578063f96dae0a146104a457610114565b80639baf1c97146102da5780639fcc5ce414610318578063a9c0310d14610343578063afafa0cf14610382578063c9d27afe146103ab57610114565b8063649f89a5116100e7578063649f89a5146101f05780636fdb6f7c1461021957806370f6e05d146102565780637a7c153b1461027257806398e527d3146102af57610114565b8063013cf08b146101195780631ea736e01461015d5780633a98ef39146101885780635e3b4365146101b3575b600080fd5b34801561012557600080fd5b50610140600480360381019061013b9190611876565b6104cf565b6040516101549897969594939291906119d4565b60405180910390f35b34801561016957600080fd5b50610172610641565b60405161017f9190611a60565b60405180910390f35b34801561019457600080fd5b5061019d610647565b6040516101aa9190611a60565b60405180910390f35b3480156101bf57600080fd5b506101da60048036038101906101d59190611a7b565b61064d565b6040516101e79190611cab565b60405180910390f35b3480156101fc57600080fd5b5061021760048036038101906102129190611876565b610990565b005b34801561022557600080fd5b50610240600480360381019061023b9190611876565b610be6565b60405161024d9190611d0f565b60405180910390f35b610270600480360381019061026b9190611e84565b610c42565b005b34801561027e57600080fd5b5061029960048036038101906102949190611876565b610e40565b6040516102a69190611f23565b60405180910390f35b3480156102bb57600080fd5b506102c4610fc0565b6040516102d19190611a60565b60405180910390f35b3480156102e657600080fd5b5061030160048036038101906102fc9190611876565b610fca565b60405161030f929190611f3e565b60405180910390f35b34801561032457600080fd5b5061032d6112e6565b60405161033a9190611f23565b60405180910390f35b34801561034f57600080fd5b5061036a60048036038101906103659190611876565b6112f9565b60405161037993929190611f67565b60405180910390f35b34801561038e57600080fd5b506103a960048036038101906103a49190611ffc565b611330565b005b3480156103b757600080fd5b506103d260048036038101906103cd9190612068565b6113e0565b005b3480156103e057600080fd5b506103fb60048036038101906103f691906120a8565b611682565b6040516104089190611a60565b60405180910390f35b34801561041d57600080fd5b5061043860048036038101906104339190611ffc565b61169a565b604051610447939291906120d5565b60405180910390f35b34801561045c57600080fd5b506104656116ee565b6040516104729190611a60565b60405180910390f35b34801561048757600080fd5b506104a2600480360381019061049d9190611ffc565b6116f4565b005b3480156104b057600080fd5b506104b9611774565b6040516104c6919061216b565b60405180910390f35b60016020528060005260406000206000915090508060000180546104f2906121b5565b80601f016020809104026020016040519081016040528092919081815260200182805461051e906121b5565b801561056b5780601f106105405761010080835404028352916020019161056b565b820191906000526020600020905b81548152906001019060200180831161054e57829003601f168201915b505050505090806001018054610580906121b5565b80601f01602080910402602001604051908101604052809291908181526020018280546105ac906121b5565b80156105f95780601f106105ce576101008083540402835291602001916105f9565b820191906000526020600020905b8154815290600101906020018083116105dc57829003601f168201915b5050505050908060020154908060030154908060040160009054906101000a900460ff16908060050154908060060154908060070160009054906101000a900460ff16905088565b60075481565b60055481565b60606004548310610693576040517f08c379a000000000000000000000000000000000000000000000000000000000815260040161068a90612232565b60405180910390fd5b6004548211156106d8576040517f08c379a00000000000000000000000000000000000000000000000000000000081526004016106cf9061229e565b60405180910390fd5b81831061071a576040517f08c379a000000000000000000000000000000000000000000000000000000000815260040161071190612330565b60405180910390fd5b60008383610728919061237f565b905060008167ffffffffffffffff81111561074657610745611d34565b5b60405190808252806020026020018201604052801561077f57816020015b61076c6117b0565b8152602001906001900390816107645790505b50905060005b828110156109845760016000828861079d91906123b3565b8152602001908152602001600020604051806101000160405290816000820180546107c7906121b5565b80601f01602080910402602001604051908101604052809291908181526020018280546107f3906121b5565b80156108405780601f1061081557610100808354040283529160200191610840565b820191906000526020600020905b81548152906001019060200180831161082357829003601f168201915b50505050508152602001600182018054610859906121b5565b80601f0160208091040260200160405190810160405280929190818152602001828054610885906121b5565b80156108d25780601f106108a7576101008083540402835291602001916108d2565b820191906000526020600020905b8154815290600101906020018083116108b557829003601f168201915b5050505050815260200160028201548152602001600382015481526020016004820160009054906101000a900460ff1615151515815260200160058201548152602001600682015481526020016007820160009054906101000a900460ff1660038111156109435761094261195d565b5b60038111156109555761095461195d565b5b8152505082828151811061096c5761096b6123e7565b5b60200260200101819052508080600101915050610785565b50809250505092915050565b60006001600083815260200190815260200160002060040160006101000a81548160ff0219169083151502179055506000805b600454811015610a0c576001600082815260200190815260200160002060040160009054906101000a900460ff16156109ff5760019150610a0c565b80806001019150506109c3565b50600060016000848152602001908152602001600020600301546001600085815260200190815260200160002060020154119050604051806060016040528082151581526020016001600086815260200190815260200160002060020154815260200160016000868152602001908152602001600020600301548152506003600085815260200190815260200160002060008201518160000160006101000a81548160ff0219169083151502179055506020820151816001015560408201518160020155905050600160008481526020019081526020016000206005015442118015610afe5750610afc83610e40565b155b15610bc75760006001600085815260200190815260200160002060040160006101000a81548160ff02191690831515021790555060405180606001604052806000151581526020016001600086815260200190815260200160002060020154815260200160016000868152602001908152602001600020600301548152506003600085815260200190815260200160002060008201518160000160006101000a81548160ff02191690831515021790555060208201518160010155604082015181600201559050505b81600660006101000a81548160ff021916908315150217905550505050565b610bee611809565b600360008381526020019081526020016000206040518060600160405290816000820160009054906101000a900460ff16151515158152602001600182015481526020016002820154815250509050919050565b60003411610c85576040517f08c379a0000000000000000000000000000000000000000000000000000000008152600401610c7c90612488565b60405180910390fd5b6040518061010001604052808581526020018481526020016000815260200160008152602001600115158152602001603c84610cc191906124a8565b42610ccc91906123b3565b815260200160008152602001826003811115610ceb57610cea61195d565b5b8152506001600060045481526020019081526020016000206000820151816000019081610d18919061268c565b506020820151816001019081610d2e919061268c565b50604082015181600201556060820151816003015560808201518160040160006101000a81548160ff02191690831515021790555060a0820151816005015560c0820151816006015560e08201518160070160006101000a81548160ff02191690836003811115610da257610da161195d565b5b02179055509050506001600660006101000a81548160ff021916908315150217905550603c82610dd291906124a8565b42610ddd91906123b3565b6007819055507ff5dc0da9afa6d080780a49fd8c680f03d2ddf3c067cd6d0c85360c096644d2d360045484600754604051610e1a9392919061275e565b60405180910390a160046000815480929190610e359061279c565b919050555050505050565b6000806001600084815260200190815260200160002090506000806003811115610e6d57610e6c61195d565b5b8260070160009054906101000a900460ff166003811115610e9157610e9061195d565b5b03610eac576002600554610ea59190612813565b9050610faf565b60016003811115610ec057610ebf61195d565b5b8260070160009054906101000a900460ff166003811115610ee457610ee361195d565b5b03610f0b5760036002600554610efa91906124a8565b610f049190612813565b9050610fae565b60026003811115610f1f57610f1e61195d565b5b8260070160009054906101000a900460ff166003811115610f4357610f4261195d565b5b03610f6a5760046003600554610f5991906124a8565b610f639190612813565b9050610fad565b600380811115610f7d57610f7c61195d565b5b8260070160009054906101000a900460ff166003811115610fa157610fa061195d565b5b03610fac5760055490505b5b5b5b808260020154101592505050919050565b6000600454905090565b60008060006001600085815260200190815260200160002060405180610100016040529081600082018054610ffe906121b5565b80601f016020809104026020016040519081016040528092919081815260200182805461102a906121b5565b80156110775780601f1061104c57610100808354040283529160200191611077565b820191906000526020600020905b81548152906001019060200180831161105a57829003601f168201915b50505050508152602001600182018054611090906121b5565b80601f01602080910402602001604051908101604052809291908181526020018280546110bc906121b5565b80156111095780601f106110de57610100808354040283529160200191611109565b820191906000526020600020905b8154815290600101906020018083116110ec57829003601f168201915b5050505050815260200160028201548152602001600382015481526020016004820160009054906101000a900460ff1615151515815260200160058201548152602001600682015481526020016007820160009054906101000a900460ff16600381111561117a5761117961195d565b5b600381111561118c5761118b61195d565b5b81525050905060008160c00151905060006005546064836111ad91906124a8565b6111b79190612813565b9050600060038111156111cd576111cc61195d565b5b8360e0015160038111156111e4576111e361195d565b5b036111ff5760026005546111f89190612813565b93506112db565b600160038111156112135761121261195d565b5b8360e00151600381111561122a5761122961195d565b5b03611251576003600260055461124091906124a8565b61124a9190612813565b93506112da565b600260038111156112655761126461195d565b5b8360e00151600381111561127c5761127b61195d565b5b036112a3576004600360055461129291906124a8565b61129c9190612813565b93506112d9565b6003808111156112b6576112b561195d565b5b8360e0015160038111156112cd576112cc61195d565b5b036112d85760055493505b5b5b5b809450505050915091565b600660009054906101000a900460ff1681565b60036020528060005260406000206000915090508060000160009054906101000a900460ff16908060010154908060020154905083565b600660009054906101000a900460ff1615611380576040517f08c379a0000000000000000000000000000000000000000000000000000000008152600401611377906128b6565b60405180910390fd5b806000808473ffffffffffffffffffffffffffffffffffffffff1673ffffffffffffffffffffffffffffffffffffffff1681526020019081526020016000208190555080600560008282546113d591906123b3565b925050819055505050565b60006005546127106000803373ffffffffffffffffffffffffffffffffffffffff1673ffffffffffffffffffffffffffffffffffffffff1681526020019081526020016000205461143191906124a8565b61143b9190612813565b90508115611475578060016000858152602001908152602001600020600201600082825461146991906123b3565b925050819055506114a3565b8060016000858152602001908152602001600020600301600082825461149b91906123b3565b925050819055505b806001600085815260200190815260200160002060060160008282546114c991906123b3565b92505081905550600260003373ffffffffffffffffffffffffffffffffffffffff1673ffffffffffffffffffffffffffffffffffffffff168152602001908152602001600020604051806060016040528085815260200184151581526020018381525090806001815401808255809150506001900390600052602060002090600302016000909190919091506000820151816000015560208201518160010160006101000a81548160ff02191690831515021790555060408201518160020155505060006115968261179a565b9050600860009054906101000a900473ffffffffffffffffffffffffffffffffffffffff1673ffffffffffffffffffffffffffffffffffffffff166340c10f1933836040518363ffffffff1660e01b81526004016115f59291906128e5565b600060405180830381600087803b15801561160f57600080fd5b505af1158015611623573d6000803e3d6000fd5b505050507fb898e75d5aac8de2f407e4a683c8d909e832d1e371e3bff0fa3ed934e88d95628433848660405161165c949392919061290e565b60405180910390a161166d84610e40565b1561167c5761167b84610990565b5b50505050565b60006020528060005260406000206000915090505481565b600260205281600052604060002081815481106116b657600080fd5b9060005260206000209060030201600091509150508060000154908060010160009054906101000a900460ff16908060020154905083565b60045481565b806000808473ffffffffffffffffffffffffffffffffffffffff1673ffffffffffffffffffffffffffffffffffffffff168152602001908152602001600020819055507fe6382c9ed5c0c33bb05042f73cf6cbe9cb25639f9a711e094ee563bc9cb80e2c82826040516117689291906128e5565b60405180910390a15050565b600860009054906101000a900473ffffffffffffffffffffffffffffffffffffffff1681565b60006064826117a99190612813565b9050919050565b604051806101000160405280606081526020016060815260200160008152602001600081526020016000151581526020016000815260200160008152602001600060038111156118035761180261195d565b5b81525090565b604051806060016040528060001515815260200160008152602001600081525090565b6000604051905090565b600080fd5b600080fd5b6000819050919050565b61185381611840565b811461185e57600080fd5b50565b6000813590506118708161184a565b92915050565b60006020828403121561188c5761188b611836565b5b600061189a84828501611861565b91505092915050565b600081519050919050565b600082825260208201905092915050565b60005b838110156118dd5780820151818401526020810190506118c2565b60008484015250505050565b6000601f19601f8301169050919050565b6000611905826118a3565b61190f81856118ae565b935061191f8185602086016118bf565b611928816118e9565b840191505092915050565b61193c81611840565b82525050565b60008115159050919050565b61195781611942565b82525050565b7f4e487b7100000000000000000000000000000000000000000000000000000000600052602160045260246000fd5b6004811061199d5761199c61195d565b5b50565b60008190506119ae8261198c565b919050565b60006119be826119a0565b9050919050565b6119ce816119b3565b82525050565b60006101008201905081810360008301526119ef818b6118fa565b90508181036020830152611a03818a6118fa565b9050611a126040830189611933565b611a1f6060830188611933565b611a2c608083018761194e565b611a3960a0830186611933565b611a4660c0830185611933565b611a5360e08301846119c5565b9998505050505050505050565b6000602082019050611a756000830184611933565b92915050565b60008060408385031215611a9257611a91611836565b5b6000611aa085828601611861565b9250506020611ab185828601611861565b9150509250929050565b600081519050919050565b600082825260208201905092915050565b6000819050602082019050919050565b600082825260208201905092915050565b6000611b03826118a3565b611b0d8185611ae7565b9350611b1d8185602086016118bf565b611b26816118e9565b840191505092915050565b611b3a81611840565b82525050565b611b4981611942565b82525050565b611b58816119b3565b82525050565b6000610100830160008301518482036000860152611b7c8282611af8565b91505060208301518482036020860152611b968282611af8565b9150506040830151611bab6040860182611b31565b506060830151611bbe6060860182611b31565b506080830151611bd16080860182611b40565b5060a0830151611be460a0860182611b31565b5060c0830151611bf760c0860182611b31565b5060e0830151611c0a60e0860182611b4f565b508091505092915050565b6000611c218383611b5e565b905092915050565b6000602082019050919050565b6000611c4182611abb565b611c4b8185611ac6565b935083602082028501611c5d85611ad7565b8060005b85811015611c995784840389528151611c7a8582611c15565b9450611c8583611c29565b925060208a01995050600181019050611c61565b50829750879550505050505092915050565b60006020820190508181036000830152611cc58184611c36565b905092915050565b606082016000820151611ce36000850182611b40565b506020820151611cf66020850182611b31565b506040820151611d096040850182611b31565b50505050565b6000606082019050611d246000830184611ccd565b92915050565b600080fd5b600080fd5b7f4e487b7100000000000000000000000000000000000000000000000000000000600052604160045260246000fd5b611d6c826118e9565b810181811067ffffffffffffffff82111715611d8b57611d8a611d34565b5b80604052505050565b6000611d9e61182c565b9050611daa8282611d63565b919050565b600067ffffffffffffffff821115611dca57611dc9611d34565b5b611dd3826118e9565b9050602081019050919050565b82818337600083830152505050565b6000611e02611dfd84611daf565b611d94565b905082815260208101848484011115611e1e57611e1d611d2f565b5b611e29848285611de0565b509392505050565b600082601f830112611e4657611e45611d2a565b5b8135611e56848260208601611def565b91505092915050565b60048110611e6c57600080fd5b50565b600081359050611e7e81611e5f565b92915050565b60008060008060808587031215611e9e57611e9d611836565b5b600085013567ffffffffffffffff811115611ebc57611ebb61183b565b5b611ec887828801611e31565b945050602085013567ffffffffffffffff811115611ee957611ee861183b565b5b611ef587828801611e31565b9350506040611f0687828801611861565b9250506060611f1787828801611e6f565b91505092959194509250565b6000602082019050611f38600083018461194e565b92915050565b6000604082019050611f536000830185611933565b611f606020830184611933565b9392505050565b6000606082019050611f7c600083018661194e565b611f896020830185611933565b611f966040830184611933565b949350505050565b600073ffffffffffffffffffffffffffffffffffffffff82169050919050565b6000611fc982611f9e565b9050919050565b611fd981611fbe565b8114611fe457600080fd5b50565b600081359050611ff681611fd0565b92915050565b6000806040838503121561201357612012611836565b5b600061202185828601611fe7565b925050602061203285828601611861565b9150509250929050565b61204581611942565b811461205057600080fd5b50565b6000813590506120628161203c565b92915050565b6000806040838503121561207f5761207e611836565b5b600061208d85828601611861565b925050602061209e85828601612053565b9150509250929050565b6000602082840312156120be576120bd611836565b5b60006120cc84828501611fe7565b91505092915050565b60006060820190506120ea6000830186611933565b6120f7602083018561194e565b6121046040830184611933565b949350505050565b6000819050919050565b600061213161212c61212784611f9e565b61210c565b611f9e565b9050919050565b600061214382612116565b9050919050565b600061215582612138565b9050919050565b6121658161214a565b82525050565b6000602082019050612180600083018461215c565b92915050565b7f4e487b7100000000000000000000000000000000000000000000000000000000600052602260045260246000fd5b600060028204905060018216806121cd57607f821691505b6020821081036121e0576121df612186565b5b50919050565b7f537461727420696e646578206973206f7574206f6620626f756e647300000000600082015250565b600061221c601c836118ae565b9150612227826121e6565b602082019050919050565b6000602082019050818103600083015261224b8161220f565b9050919050565b7f456e6420696e646578206973206f7574206f6620626f756e6473000000000000600082015250565b6000612288601a836118ae565b915061229382612252565b602082019050919050565b600060208201905081810360008301526122b78161227b565b9050919050565b7f537461727420696e646578206d757374206265206c657373207468616e20656e60008201527f6420696e64657800000000000000000000000000000000000000000000000000602082015250565b600061231a6027836118ae565b9150612325826122be565b604082019050919050565b600060208201905081810360008301526123498161230d565b9050919050565b7f4e487b7100000000000000000000000000000000000000000000000000000000600052601160045260246000fd5b600061238a82611840565b915061239583611840565b92508282039050818111156123ad576123ac612350565b5b92915050565b60006123be82611840565b91506123c983611840565b92508282019050808211156123e1576123e0612350565b5b92915050565b7f4e487b7100000000000000000000000000000000000000000000000000000000600052603260045260246000fd5b7f45544820726571756972656420666f72206372656174696e672070726f706f7360008201527f616c000000000000000000000000000000000000000000000000000000000000602082015250565b60006124726022836118ae565b915061247d82612416565b604082019050919050565b600060208201905081810360008301526124a181612465565b9050919050565b60006124b382611840565b91506124be83611840565b92508282026124cc81611840565b915082820484148315176124e3576124e2612350565b5b5092915050565b60008190508160005260206000209050919050565b60006020601f8301049050919050565b600082821b905092915050565b60006008830261254c7fffffffffffffffffffffffffffffffffffffffffffffffffffffffffffffffff8261250f565b612556868361250f565b95508019841693508086168417925050509392505050565b600061258961258461257f84611840565b61210c565b611840565b9050919050565b6000819050919050565b6125a38361256e565b6125b76125af82612590565b84845461251c565b825550505050565b600090565b6125cc6125bf565b6125d781848461259a565b505050565b5b818110156125fb576125f06000826125c4565b6001810190506125dd565b5050565b601f82111561264057612611816124ea565b61261a846124ff565b81016020851015612629578190505b61263d612635856124ff565b8301826125dc565b50505b505050565b600082821c905092915050565b600061266360001984600802612645565b1980831691505092915050565b600061267c8383612652565b9150826002028217905092915050565b612695826118a3565b67ffffffffffffffff8111156126ae576126ad611d34565b5b6126b882546121b5565b6126c38282856125ff565b600060209050601f8311600181146126f657600084156126e4578287015190505b6126ee8582612670565b865550612756565b601f198416612704866124ea565b60005b8281101561272c57848901518255600182019150602085019450602081019050612707565b868310156127495784890151612745601f891682612652565b8355505b6001600288020188555050505b505050505050565b60006060820190506127736000830186611933565b818103602083015261278581856118fa565b90506127946040830184611933565b949350505050565b60006127a782611840565b91507fffffffffffffffffffffffffffffffffffffffffffffffffffffffffffffffff82036127d9576127d8612350565b5b600182019050919050565b7f4e487b7100000000000000000000000000000000000000000000000000000000600052601260045260246000fd5b600061281e82611840565b915061282983611840565b925082612839576128386127e4565b5b828204905092915050565b7f4865792069747320616e2061637469766520766f74696e6720706572696f642c60008201527f20796f752063616e6e6f7420766f7465206e6f772e0000000000000000000000602082015250565b60006128a06035836118ae565b91506128ab82612844565b604082019050919050565b600060208201905081810360008301526128cf81612893565b9050919050565b6128df81611fbe565b82525050565b60006040820190506128fa60008301856128d6565b6129076020830184611933565b9392505050565b60006080820190506129236000830187611933565b61293060208301866128d6565b61293d6040830185611933565b61294a606083018461194e565b9594505050505056fea2646970667358221220201f31d0c01e4cd4e083aea9f38508eb8ac2203b5af377eed99bb05d174dc49e64736f6c634300081a0033",
  "linkReferences": {},
  "deployedLinkReferences": {}
}