{
  "_format": "hh-sol-artifact-1",
  "contractName": "VotingContract",
  "sourceName": "contracts/smartContract.sol",
  "abi": [
    {
      "inputs": [
        {
          "internalType": "address[]",
          "name": "initialAdmins",
          "type": "address[]"
        },
        {
          "internalType": "address",
          "name": "_tokenAddress",
          "type": "address"
        }
      ],
      "stateMutability": "nonpayable",
      "type": "constructor"
    },
    {
      "anonymous": false,
      "inputs": [
        {
          "indexed": false,
          "internalType": "uint256",
          "name": "proposalId",
          "type": "uint256"
        },
        {
          "indexed": false,
          "internalType": "string",
          "name": "title",
          "type": "string"
        },
        {
          "indexed": false,
          "internalType": "string",
          "name": "description",
          "type": "string"
        },
        {
          "indexed": false,
          "internalType": "uint256",
          "name": "durationInMinutes",
          "type": "uint256"
        },
        {
          "indexed": false,
          "internalType": "uint8",
          "name": "quorumType",
          "type": "uint8"
        },
        {
          "indexed": false,
          "internalType": "uint256",
          "name": "endTime",
          "type": "uint256"
        },
        {
          "indexed": false,
          "internalType": "address",
          "name": "proposer",
          "type": "address"
        }
      ],
      "name": "ProposalCreated",
      "type": "event"
    },
    {
      "anonymous": false,
      "inputs": [
        {
          "indexed": true,
          "internalType": "uint256",
          "name": "proposalId",
          "type": "uint256"
        }
      ],
      "name": "ProposalDeleted",
      "type": "event"
    },
    {
      "anonymous": false,
      "inputs": [
        {
          "indexed": false,
          "internalType": "address",
          "name": "voter",
          "type": "address"
        },
        {
          "indexed": false,
          "internalType": "uint256",
          "name": "rewardAmount",
          "type": "uint256"
        }
      ],
      "name": "RewardIssued",
      "type": "event"
    },
    {
      "anonymous": false,
      "inputs": [
        {
          "indexed": false,
          "internalType": "address",
          "name": "voter",
          "type": "address"
        },
        {
          "indexed": false,
          "internalType": "uint256",
          "name": "newShares",
          "type": "uint256"
        }
      ],
      "name": "SharesUpdated",
      "type": "event"
    },
    {
      "anonymous": false,
      "inputs": [
        {
          "indexed": false,
          "internalType": "uint256",
          "name": "proposalId",
          "type": "uint256"
        },
        {
          "indexed": false,
          "internalType": "address",
          "name": "voter",
          "type": "address"
        },
        {
          "indexed": false,
          "internalType": "uint256",
          "name": "weight",
          "type": "uint256"
        },
        {
          "indexed": false,
          "internalType": "bool",
          "name": "voteFor",
          "type": "bool"
        }
      ],
      "name": "VoteCast",
      "type": "event"
    },
    {
      "inputs": [
        {
          "internalType": "address",
          "name": "newAdmin",
          "type": "address"
        }
      ],
      "name": "addAdmin",
      "outputs": [],
      "stateMutability": "nonpayable",
      "type": "function"
    },
    {
      "inputs": [
        {
          "internalType": "address",
          "name": "",
          "type": "address"
        }
      ],
      "name": "admins",
      "outputs": [
        {
          "internalType": "bool",
          "name": "",
          "type": "bool"
        }
      ],
      "stateMutability": "view",
      "type": "function"
    },
    {
      "inputs": [
        {
          "internalType": "uint256",
          "name": "proposalId",
          "type": "uint256"
        },
        {
          "internalType": "bool",
          "name": "voteFor",
          "type": "bool"
        }
      ],
      "name": "castVote",
      "outputs": [],
      "stateMutability": "nonpayable",
      "type": "function"
    },
    {
      "inputs": [
        {
          "internalType": "string",
          "name": "title",
          "type": "string"
        },
        {
          "internalType": "string",
          "name": "description",
          "type": "string"
        },
        {
          "internalType": "uint256",
          "name": "durationInMinutes",
          "type": "uint256"
        },
        {
          "internalType": "uint8",
          "name": "quorumType",
          "type": "uint8"
        }
      ],
      "name": "createProposal",
      "outputs": [],
      "stateMutability": "payable",
      "type": "function"
    },
    {
      "inputs": [
        {
          "internalType": "uint256",
          "name": "proposalId",
          "type": "uint256"
        }
      ],
      "name": "deleteProposal",
      "outputs": [],
      "stateMutability": "nonpayable",
      "type": "function"
    },
    {
      "inputs": [
        {
          "internalType": "uint256",
          "name": "proposalId",
          "type": "uint256"
        }
      ],
      "name": "getProposalOutcome",
      "outputs": [
        {
          "components": [
            {
              "internalType": "bool",
              "name": "passed",
              "type": "bool"
            },
            {
              "internalType": "uint256",
              "name": "votesFor",
              "type": "uint256"
            },
            {
              "internalType": "uint256",
              "name": "votesAgainst",
              "type": "uint256"
            }
          ],
          "internalType": "struct VotingContract.ProposalOutcome",
          "name": "",
          "type": "tuple"
        }
      ],
      "stateMutability": "view",
      "type": "function"
    },
    {
      "inputs": [],
      "name": "getProposals",
      "outputs": [
        {
          "components": [
            {
              "internalType": "string",
              "name": "title",
              "type": "string"
            },
            {
              "internalType": "string",
              "name": "description",
              "type": "string"
            },
            {
              "internalType": "uint256",
              "name": "durationInMinutes",
              "type": "uint256"
            },
            {
              "internalType": "uint8",
              "name": "quorumType",
              "type": "uint8"
            },
            {
              "internalType": "uint256",
              "name": "endTime",
              "type": "uint256"
            },
            {
              "internalType": "address",
              "name": "proposer",
              "type": "address"
            },
            {
              "internalType": "bool",
              "name": "active",
              "type": "bool"
            },
            {
              "internalType": "uint256",
              "name": "votesFor",
              "type": "uint256"
            },
            {
              "internalType": "uint256",
              "name": "votesAgainst",
              "type": "uint256"
            }
          ],
          "internalType": "struct VotingContract.Proposal[]",
          "name": "",
          "type": "tuple[]"
        }
      ],
      "stateMutability": "view",
      "type": "function"
    },
    {
      "inputs": [],
      "name": "getProposalsCount",
      "outputs": [
        {
          "internalType": "uint256",
          "name": "",
          "type": "uint256"
        }
      ],
      "stateMutability": "view",
      "type": "function"
    },
    {
      "inputs": [],
      "name": "governanceToken",
      "outputs": [
        {
          "internalType": "contract GovernanceToken",
          "name": "",
          "type": "address"
        }
      ],
      "stateMutability": "view",
      "type": "function"
    },
    {
      "inputs": [
        {
          "internalType": "address",
          "name": "user",
          "type": "address"
        }
      ],
      "name": "isAdmin",
      "outputs": [
        {
          "internalType": "bool",
          "name": "",
          "type": "bool"
        }
      ],
      "stateMutability": "view",
      "type": "function"
    },
    {
      "inputs": [],
      "name": "isVotingPeriodActive",
      "outputs": [
        {
          "internalType": "bool",
          "name": "",
          "type": "bool"
        }
      ],
      "stateMutability": "view",
      "type": "function"
    },
    {
      "inputs": [],
      "name": "proposalCount",
      "outputs": [
        {
          "internalType": "uint256",
          "name": "",
          "type": "uint256"
        }
      ],
      "stateMutability": "view",
      "type": "function"
    },
    {
      "inputs": [
        {
          "internalType": "uint256",
          "name": "",
          "type": "uint256"
        }
      ],
      "name": "proposalOutcomes",
      "outputs": [
        {
          "internalType": "bool",
          "name": "passed",
          "type": "bool"
        },
        {
          "internalType": "uint256",
          "name": "votesFor",
          "type": "uint256"
        },
        {
          "internalType": "uint256",
          "name": "votesAgainst",
          "type": "uint256"
        }
      ],
      "stateMutability": "view",
      "type": "function"
    },
    {
      "inputs": [
        {
          "internalType": "uint256",
          "name": "",
          "type": "uint256"
        }
      ],
      "name": "proposals",
      "outputs": [
        {
          "internalType": "string",
          "name": "title",
          "type": "string"
        },
        {
          "internalType": "string",
          "name": "description",
          "type": "string"
        },
        {
          "internalType": "uint256",
          "name": "durationInMinutes",
          "type": "uint256"
        },
        {
          "internalType": "uint8",
          "name": "quorumType",
          "type": "uint8"
        },
        {
          "internalType": "uint256",
          "name": "endTime",
          "type": "uint256"
        },
        {
          "internalType": "address",
          "name": "proposer",
          "type": "address"
        },
        {
          "internalType": "bool",
          "name": "active",
          "type": "bool"
        },
        {
          "internalType": "uint256",
          "name": "votesFor",
          "type": "uint256"
        },
        {
          "internalType": "uint256",
          "name": "votesAgainst",
          "type": "uint256"
        }
      ],
      "stateMutability": "view",
      "type": "function"
    },
    {
      "inputs": [
        {
          "internalType": "address",
          "name": "voter",
          "type": "address"
        },
        {
          "internalType": "uint256",
          "name": "shareCount",
          "type": "uint256"
        }
      ],
      "name": "registerShareholder",
      "outputs": [],
      "stateMutability": "nonpayable",
      "type": "function"
    },
    {
      "inputs": [
        {
          "internalType": "address",
          "name": "admin",
          "type": "address"
        }
      ],
      "name": "removeAdmin",
      "outputs": [],
      "stateMutability": "nonpayable",
      "type": "function"
    },
    {
      "inputs": [
        {
          "internalType": "address",
          "name": "",
          "type": "address"
        }
      ],
      "name": "shares",
      "outputs": [
        {
          "internalType": "uint256",
          "name": "",
          "type": "uint256"
        }
      ],
      "stateMutability": "view",
      "type": "function"
    },
    {
      "inputs": [],
      "name": "totalShares",
      "outputs": [
        {
          "internalType": "uint256",
          "name": "",
          "type": "uint256"
        }
      ],
      "stateMutability": "view",
      "type": "function"
    },
    {
      "inputs": [
        {
          "internalType": "address",
          "name": "voter",
          "type": "address"
        },
        {
          "internalType": "uint256",
          "name": "newShares",
          "type": "uint256"
        }
      ],
      "name": "updateShares",
      "outputs": [],
      "stateMutability": "nonpayable",
      "type": "function"
    },
    {
      "inputs": [
        {
          "internalType": "address",
          "name": "",
          "type": "address"
        }
      ],
      "name": "voted",
      "outputs": [
        {
          "internalType": "bool",
          "name": "",
          "type": "bool"
        }
      ],
      "stateMutability": "view",
      "type": "function"
    },
    {
      "inputs": [],
      "name": "votingEndTime",
      "outputs": [
        {
          "internalType": "uint256",
          "name": "",
          "type": "uint256"
        }
      ],
      "stateMutability": "view",
      "type": "function"
    },
    {
      "inputs": [
        {
          "internalType": "address",
          "name": "",
          "type": "address"
        },
        {
          "internalType": "uint256",
          "name": "",
          "type": "uint256"
        }
      ],
      "name": "votingHistory",
      "outputs": [
        {
          "internalType": "uint256",
          "name": "proposalId",
          "type": "uint256"
        },
        {
          "internalType": "bool",
          "name": "votedFor",
          "type": "bool"
        },
        {
          "internalType": "uint256",
          "name": "voteWeight",
          "type": "uint256"
        }
      ],
      "stateMutability": "view",
      "type": "function"
    }
  ],
  "bytecode": "0x60806040523480156200001157600080fd5b5060405162002afc38038062002afc833981810160405281019062000037919062000307565b80600a60006101000a81548173ffffffffffffffffffffffffffffffffffffffff021916908373ffffffffffffffffffffffffffffffffffffffff16021790555060005b82518110156200011057600160036000858481518110620000a157620000a06200036d565b5b602002602001015173ffffffffffffffffffffffffffffffffffffffff1673ffffffffffffffffffffffffffffffffffffffff16815260200190815260200160002060006101000a81548160ff02191690831515021790555080806200010790620003d5565b9150506200007b565b50505062000422565b6000604051905090565b600080fd5b600080fd5b600080fd5b6000601f19601f8301169050919050565b7f4e487b7100000000000000000000000000000000000000000000000000000000600052604160045260246000fd5b6200017d8262000132565b810181811067ffffffffffffffff821117156200019f576200019e62000143565b5b80604052505050565b6000620001b462000119565b9050620001c2828262000172565b919050565b600067ffffffffffffffff821115620001e557620001e462000143565b5b602082029050602081019050919050565b600080fd5b600073ffffffffffffffffffffffffffffffffffffffff82169050919050565b60006200022882620001fb565b9050919050565b6200023a816200021b565b81146200024657600080fd5b50565b6000815190506200025a816200022f565b92915050565b6000620002776200027184620001c7565b620001a8565b905080838252602082019050602084028301858111156200029d576200029c620001f6565b5b835b81811015620002ca5780620002b5888262000249565b8452602084019350506020810190506200029f565b5050509392505050565b600082601f830112620002ec57620002eb6200012d565b5b8151620002fe84826020860162000260565b91505092915050565b6000806040838503121562000321576200032062000123565b5b600083015167ffffffffffffffff81111562000342576200034162000128565b5b6200035085828601620002d4565b9250506020620003638582860162000249565b9150509250929050565b7f4e487b7100000000000000000000000000000000000000000000000000000000600052603260045260246000fd5b7f4e487b7100000000000000000000000000000000000000000000000000000000600052601160045260246000fd5b6000819050919050565b6000620003e282620003cb565b91507fffffffffffffffffffffffffffffffffffffffffffffffffffffffffffffffff82036200041757620004166200039c565b5b600182019050919050565b6126ca80620004326000396000f3fe6080604052600436106101355760003560e01c80638259d553116100ab578063afafa0cf1161006f578063afafa0cf14610449578063ce7c2ac214610472578063d09c34f2146104af578063da35c664146104ee578063e5d0821f14610519578063f96dae0a1461054257610135565b80638259d5531461034e57806398e527d3146103775780639fcc5ce4146103a2578063a9c0310d146103cd578063aec2ccae1461040c57610135565b80633a98ef39116100fd5780633a98ef3914610239578063429b62e51461026457806362564c48146102a15780636fdb6f7c146102cc578063704802751461030957806370f6e05d1461033257610135565b8063013cf08b1461013a57806315373e3d1461017f5780631785f53c146101a85780631ea736e0146101d157806324d7806c146101fc575b600080fd5b34801561014657600080fd5b50610161600480360381019061015c919061158a565b61056d565b604051610176999897969594939291906116ce565b60405180910390f35b34801561018b57600080fd5b506101a660048036038101906101a19190611795565b610715565b005b3480156101b457600080fd5b506101cf60048036038101906101ca9190611801565b610a73565b005b3480156101dd57600080fd5b506101e6610b5a565b6040516101f3919061182e565b60405180910390f35b34801561020857600080fd5b50610223600480360381019061021e9190611801565b610b60565b6040516102309190611849565b60405180910390f35b34801561024557600080fd5b5061024e610bb6565b60405161025b919061182e565b60405180910390f35b34801561027057600080fd5b5061028b60048036038101906102869190611801565b610bbc565b6040516102989190611849565b60405180910390f35b3480156102ad57600080fd5b506102b6610bdc565b6040516102c39190611a78565b60405180910390f35b3480156102d857600080fd5b506102f360048036038101906102ee919061158a565b610e16565b6040516103009190611adc565b60405180910390f35b34801561031557600080fd5b50610330600480360381019061032b9190611801565b610e72565b005b61034c60048036038101906103479190611c58565b610f59565b005b34801561035a57600080fd5b506103756004803603810190610370919061158a565b6111a0565b005b34801561038357600080fd5b5061038c6112e1565b604051610399919061182e565b60405180910390f35b3480156103ae57600080fd5b506103b76112eb565b6040516103c49190611849565b60405180910390f35b3480156103d957600080fd5b506103f460048036038101906103ef919061158a565b6112fe565b60405161040393929190611cf7565b60405180910390f35b34801561041857600080fd5b50610433600480360381019061042e9190611801565b611335565b6040516104409190611849565b60405180910390f35b34801561045557600080fd5b50610470600480360381019061046b9190611d2e565b611355565b005b34801561047e57600080fd5b5061049960048036038101906104949190611801565b611405565b6040516104a6919061182e565b60405180910390f35b3480156104bb57600080fd5b506104d660048036038101906104d19190611d2e565b61141d565b6040516104e593929190611d6e565b60405180910390f35b3480156104fa57600080fd5b50610503611471565b604051610510919061182e565b60405180910390f35b34801561052557600080fd5b50610540600480360381019061053b9190611d2e565b611477565b005b34801561054e57600080fd5b506105576114f7565b6040516105649190611e04565b60405180910390f35b6006818154811061057d57600080fd5b90600052602060002090600802016000915090508060000180546105a090611e4e565b80601f01602080910402602001604051908101604052809291908181526020018280546105cc90611e4e565b80156106195780601f106105ee57610100808354040283529160200191610619565b820191906000526020600020905b8154815290600101906020018083116105fc57829003601f168201915b50505050509080600101805461062e90611e4e565b80601f016020809104026020016040519081016040528092919081815260200182805461065a90611e4e565b80156106a75780601f1061067c576101008083540402835291602001916106a7565b820191906000526020600020905b81548152906001019060200180831161068a57829003601f168201915b5050505050908060020154908060030160009054906101000a900460ff16908060040154908060050160009054906101000a900473ffffffffffffffffffffffffffffffffffffffff16908060050160149054906101000a900460ff16908060060154908060070154905089565b600560003373ffffffffffffffffffffffffffffffffffffffff1673ffffffffffffffffffffffffffffffffffffffff16815260200190815260200160002060009054906101000a900460ff16156107a2576040517f08c379a000000000000000000000000000000000000000000000000000000000815260040161079990611ecb565b60405180910390fd5b600682815481106107b6576107b5611eeb565b5b906000526020600020906008020160050160149054906101000a900460ff16610814576040517f08c379a000000000000000000000000000000000000000000000000000000000815260040161080b90611f66565b60405180910390fd5b60008060003373ffffffffffffffffffffffffffffffffffffffff1673ffffffffffffffffffffffffffffffffffffffff1681526020019081526020016000205490506000811161089a576040517f08c379a000000000000000000000000000000000000000000000000000000000815260040161089190611fd2565b60405180910390fd5b81156108e15780600684815481106108b5576108b4611eeb565b5b906000526020600020906008020160060160008282546108d59190612021565b9250508190555061091e565b80600684815481106108f6576108f5611eeb565b5b906000526020600020906008020160070160008282546109169190612021565b925050819055505b600160003373ffffffffffffffffffffffffffffffffffffffff1673ffffffffffffffffffffffffffffffffffffffff168152602001908152602001600020604051806060016040528085815260200184151581526020018381525090806001815401808255809150506001900390600052602060002090600302016000909190919091506000820151816000015560208201518160010160006101000a81548160ff0219169083151502179055506040820151816002015550506001600560003373ffffffffffffffffffffffffffffffffffffffff1673ffffffffffffffffffffffffffffffffffffffff16815260200190815260200160002060006101000a81548160ff0219169083151502179055507fb898e75d5aac8de2f407e4a683c8d909e832d1e371e3bff0fa3ed934e88d956283338385604051610a669493929190612055565b60405180910390a1505050565b600360003373ffffffffffffffffffffffffffffffffffffffff1673ffffffffffffffffffffffffffffffffffffffff16815260200190815260200160002060009054906101000a900460ff16610aff576040517f08c379a0000000000000000000000000000000000000000000000000000000008152600401610af69061210c565b60405180910390fd5b6000600360008373ffffffffffffffffffffffffffffffffffffffff1673ffffffffffffffffffffffffffffffffffffffff16815260200190815260200160002060006101000a81548160ff02191690831515021790555050565b60095481565b6000600360008373ffffffffffffffffffffffffffffffffffffffff1673ffffffffffffffffffffffffffffffffffffffff16815260200190815260200160002060009054906101000a900460ff169050919050565b60045481565b60036020528060005260406000206000915054906101000a900460ff1681565b60606006805480602002602001604051908101604052809291908181526020016000905b82821015610e0d578382906000526020600020906008020160405180610120016040529081600082018054610c3490611e4e565b80601f0160208091040260200160405190810160405280929190818152602001828054610c6090611e4e565b8015610cad5780601f10610c8257610100808354040283529160200191610cad565b820191906000526020600020905b815481529060010190602001808311610c9057829003601f168201915b50505050508152602001600182018054610cc690611e4e565b80601f0160208091040260200160405190810160405280929190818152602001828054610cf290611e4e565b8015610d3f5780601f10610d1457610100808354040283529160200191610d3f565b820191906000526020600020905b815481529060010190602001808311610d2257829003601f168201915b50505050508152602001600282015481526020016003820160009054906101000a900460ff1660ff1660ff168152602001600482015481526020016005820160009054906101000a900473ffffffffffffffffffffffffffffffffffffffff1673ffffffffffffffffffffffffffffffffffffffff1673ffffffffffffffffffffffffffffffffffffffff1681526020016005820160149054906101000a900460ff161515151581526020016006820154815260200160078201548152505081526020019060010190610c00565b50505050905090565b610e1e61151d565b600260008381526020019081526020016000206040518060600160405290816000820160009054906101000a900460ff16151515158152602001600182015481526020016002820154815250509050919050565b600360003373ffffffffffffffffffffffffffffffffffffffff1673ffffffffffffffffffffffffffffffffffffffff16815260200190815260200160002060009054906101000a900460ff16610efe576040517f08c379a0000000000000000000000000000000000000000000000000000000008152600401610ef59061210c565b60405180910390fd5b6001600360008373ffffffffffffffffffffffffffffffffffffffff1673ffffffffffffffffffffffffffffffffffffffff16815260200190815260200160002060006101000a81548160ff02191690831515021790555050565b670de0b6b3a76400003414610fa3576040517f08c379a0000000000000000000000000000000000000000000000000000000008152600401610f9a9061219e565b60405180910390fd5b6000603c83610fb291906121be565b42610fbd9190612021565b905060066040518061012001604052808781526020018681526020018581526020018460ff1681526020018381526020013373ffffffffffffffffffffffffffffffffffffffff1681526020016001151581526020016000815260200160008152509080600181540180825580915050600190039060005260206000209060080201600090919091909150600082015181600001908161105d91906123a2565b50602082015181600101908161107391906123a2565b506040820151816002015560608201518160030160006101000a81548160ff021916908360ff1602179055506080820151816004015560a08201518160050160006101000a81548173ffffffffffffffffffffffffffffffffffffffff021916908373ffffffffffffffffffffffffffffffffffffffff16021790555060c08201518160050160146101000a81548160ff02191690831515021790555060e08201518160060155610100820151816007015550506000600160068054905061113b9190612474565b905060076000815480929190611150906124a8565b91905055507f3d7708da99615a873ed0ef5e0b10f8b1bd8e76e197387471a6a8ca12c29da9138187878787873360405161119097969594939291906124f0565b60405180910390a1505050505050565b600360003373ffffffffffffffffffffffffffffffffffffffff1673ffffffffffffffffffffffffffffffffffffffff16815260200190815260200160002060009054906101000a900460ff1661122c576040517f08c379a00000000000000000000000000000000000000000000000000000000081526004016112239061210c565b60405180910390fd5b6006805490508110611273576040517f08c379a000000000000000000000000000000000000000000000000000000000815260040161126a906125b9565b60405180910390fd5b60006006828154811061128957611288611eeb565b5b906000526020600020906008020160050160146101000a81548160ff021916908315150217905550807f61c0d93dc2b610877e420b107c8d12e9185e46e04a505da758cc7f7329ae545f60405160405180910390a250565b6000600754905090565b600860009054906101000a900460ff1681565b60026020528060005260406000206000915090508060000160009054906101000a900460ff16908060010154908060020154905083565b60056020528060005260406000206000915054906101000a900460ff1681565b600860009054906101000a900460ff16156113a5576040517f08c379a000000000000000000000000000000000000000000000000000000000815260040161139c9061264b565b60405180910390fd5b806000808473ffffffffffffffffffffffffffffffffffffffff1673ffffffffffffffffffffffffffffffffffffffff1681526020019081526020016000208190555080600460008282546113fa9190612021565b925050819055505050565b60006020528060005260406000206000915090505481565b6001602052816000526040600020818154811061143957600080fd5b9060005260206000209060030201600091509150508060000154908060010160009054906101000a900460ff16908060020154905083565b60075481565b806000808473ffffffffffffffffffffffffffffffffffffffff1673ffffffffffffffffffffffffffffffffffffffff168152602001908152602001600020819055507fe6382c9ed5c0c33bb05042f73cf6cbe9cb25639f9a711e094ee563bc9cb80e2c82826040516114eb92919061266b565b60405180910390a15050565b600a60009054906101000a900473ffffffffffffffffffffffffffffffffffffffff1681565b604051806060016040528060001515815260200160008152602001600081525090565b6000604051905090565b600080fd5b600080fd5b6000819050919050565b61156781611554565b811461157257600080fd5b50565b6000813590506115848161155e565b92915050565b6000602082840312156115a05761159f61154a565b5b60006115ae84828501611575565b91505092915050565b600081519050919050565b600082825260208201905092915050565b60005b838110156115f15780820151818401526020810190506115d6565b60008484015250505050565b6000601f19601f8301169050919050565b6000611619826115b7565b61162381856115c2565b93506116338185602086016115d3565b61163c816115fd565b840191505092915050565b61165081611554565b82525050565b600060ff82169050919050565b61166c81611656565b82525050565b600073ffffffffffffffffffffffffffffffffffffffff82169050919050565b600061169d82611672565b9050919050565b6116ad81611692565b82525050565b60008115159050919050565b6116c8816116b3565b82525050565b60006101208201905081810360008301526116e9818c61160e565b905081810360208301526116fd818b61160e565b905061170c604083018a611647565b6117196060830189611663565b6117266080830188611647565b61173360a08301876116a4565b61174060c08301866116bf565b61174d60e0830185611647565b61175b610100830184611647565b9a9950505050505050505050565b611772816116b3565b811461177d57600080fd5b50565b60008135905061178f81611769565b92915050565b600080604083850312156117ac576117ab61154a565b5b60006117ba85828601611575565b92505060206117cb85828601611780565b9150509250929050565b6117de81611692565b81146117e957600080fd5b50565b6000813590506117fb816117d5565b92915050565b6000602082840312156118175761181661154a565b5b6000611825848285016117ec565b91505092915050565b60006020820190506118436000830184611647565b92915050565b600060208201905061185e60008301846116bf565b92915050565b600081519050919050565b600082825260208201905092915050565b6000819050602082019050919050565b600082825260208201905092915050565b60006118ac826115b7565b6118b68185611890565b93506118c68185602086016115d3565b6118cf816115fd565b840191505092915050565b6118e381611554565b82525050565b6118f281611656565b82525050565b61190181611692565b82525050565b611910816116b3565b82525050565b600061012083016000830151848203600086015261193482826118a1565b9150506020830151848203602086015261194e82826118a1565b915050604083015161196360408601826118da565b50606083015161197660608601826118e9565b50608083015161198960808601826118da565b5060a083015161199c60a08601826118f8565b5060c08301516119af60c0860182611907565b5060e08301516119c260e08601826118da565b506101008301516119d76101008601826118da565b508091505092915050565b60006119ee8383611916565b905092915050565b6000602082019050919050565b6000611a0e82611864565b611a18818561186f565b935083602082028501611a2a85611880565b8060005b85811015611a665784840389528151611a4785826119e2565b9450611a52836119f6565b925060208a01995050600181019050611a2e565b50829750879550505050505092915050565b60006020820190508181036000830152611a928184611a03565b905092915050565b606082016000820151611ab06000850182611907565b506020820151611ac360208501826118da565b506040820151611ad660408501826118da565b50505050565b6000606082019050611af16000830184611a9a565b92915050565b600080fd5b600080fd5b7f4e487b7100000000000000000000000000000000000000000000000000000000600052604160045260246000fd5b611b39826115fd565b810181811067ffffffffffffffff82111715611b5857611b57611b01565b5b80604052505050565b6000611b6b611540565b9050611b778282611b30565b919050565b600067ffffffffffffffff821115611b9757611b96611b01565b5b611ba0826115fd565b9050602081019050919050565b82818337600083830152505050565b6000611bcf611bca84611b7c565b611b61565b905082815260208101848484011115611beb57611bea611afc565b5b611bf6848285611bad565b509392505050565b600082601f830112611c1357611c12611af7565b5b8135611c23848260208601611bbc565b91505092915050565b611c3581611656565b8114611c4057600080fd5b50565b600081359050611c5281611c2c565b92915050565b60008060008060808587031215611c7257611c7161154a565b5b600085013567ffffffffffffffff811115611c9057611c8f61154f565b5b611c9c87828801611bfe565b945050602085013567ffffffffffffffff811115611cbd57611cbc61154f565b5b611cc987828801611bfe565b9350506040611cda87828801611575565b9250506060611ceb87828801611c43565b91505092959194509250565b6000606082019050611d0c60008301866116bf565b611d196020830185611647565b611d266040830184611647565b949350505050565b60008060408385031215611d4557611d4461154a565b5b6000611d53858286016117ec565b9250506020611d6485828601611575565b9150509250929050565b6000606082019050611d836000830186611647565b611d9060208301856116bf565b611d9d6040830184611647565b949350505050565b6000819050919050565b6000611dca611dc5611dc084611672565b611da5565b611672565b9050919050565b6000611ddc82611daf565b9050919050565b6000611dee82611dd1565b9050919050565b611dfe81611de3565b82525050565b6000602082019050611e196000830184611df5565b92915050565b7f4e487b7100000000000000000000000000000000000000000000000000000000600052602260045260246000fd5b60006002820490506001821680611e6657607f821691505b602082108103611e7957611e78611e1f565b5b50919050565b7f596f75206861766520616c726561647920766f74656400000000000000000000600082015250565b6000611eb56016836115c2565b9150611ec082611e7f565b602082019050919050565b60006020820190508181036000830152611ee481611ea8565b9050919050565b7f4e487b7100000000000000000000000000000000000000000000000000000000600052603260045260246000fd5b7f50726f706f73616c206973206e6f742061637469766500000000000000000000600082015250565b6000611f506016836115c2565b9150611f5b82611f1a565b602082019050919050565b60006020820190508181036000830152611f7f81611f43565b9050919050565b7f596f75206d75737420686f6c642073686172657320746f20766f746500000000600082015250565b6000611fbc601c836115c2565b9150611fc782611f86565b602082019050919050565b60006020820190508181036000830152611feb81611faf565b9050919050565b7f4e487b7100000000000000000000000000000000000000000000000000000000600052601160045260246000fd5b600061202c82611554565b915061203783611554565b925082820190508082111561204f5761204e611ff2565b5b92915050565b600060808201905061206a6000830187611647565b61207760208301866116a4565b6120846040830185611647565b61209160608301846116bf565b95945050505050565b7f4f6e6c792061646d696e732063616e20706572666f726d20746869732061637460008201527f696f6e0000000000000000000000000000000000000000000000000000000000602082015250565b60006120f66023836115c2565b91506121018261209a565b604082019050919050565b60006020820190508181036000830152612125816120e9565b9050919050565b7f4d7573742073656e6420312045544820746f2063726561746520612070726f7060008201527f6f73616c00000000000000000000000000000000000000000000000000000000602082015250565b60006121886024836115c2565b91506121938261212c565b604082019050919050565b600060208201905081810360008301526121b78161217b565b9050919050565b60006121c982611554565b91506121d483611554565b92508282026121e281611554565b915082820484148315176121f9576121f8611ff2565b5b5092915050565b60008190508160005260206000209050919050565b60006020601f8301049050919050565b600082821b905092915050565b6000600883026122627fffffffffffffffffffffffffffffffffffffffffffffffffffffffffffffffff82612225565b61226c8683612225565b95508019841693508086168417925050509392505050565b600061229f61229a61229584611554565b611da5565b611554565b9050919050565b6000819050919050565b6122b983612284565b6122cd6122c5826122a6565b848454612232565b825550505050565b600090565b6122e26122d5565b6122ed8184846122b0565b505050565b5b81811015612311576123066000826122da565b6001810190506122f3565b5050565b601f8211156123565761232781612200565b61233084612215565b8101602085101561233f578190505b61235361234b85612215565b8301826122f2565b50505b505050565b600082821c905092915050565b60006123796000198460080261235b565b1980831691505092915050565b60006123928383612368565b9150826002028217905092915050565b6123ab826115b7565b67ffffffffffffffff8111156123c4576123c3611b01565b5b6123ce8254611e4e565b6123d9828285612315565b600060209050601f83116001811461240c57600084156123fa578287015190505b6124048582612386565b86555061246c565b601f19841661241a86612200565b60005b828110156124425784890151825560018201915060208501945060208101905061241d565b8683101561245f578489015161245b601f891682612368565b8355505b6001600288020188555050505b505050505050565b600061247f82611554565b915061248a83611554565b92508282039050818111156124a2576124a1611ff2565b5b92915050565b60006124b382611554565b91507fffffffffffffffffffffffffffffffffffffffffffffffffffffffffffffffff82036124e5576124e4611ff2565b5b600182019050919050565b600060e082019050612505600083018a611647565b8181036020830152612517818961160e565b9050818103604083015261252b818861160e565b905061253a6060830187611647565b6125476080830186611663565b61255460a0830185611647565b61256160c08301846116a4565b98975050505050505050565b7f496e76616c69642070726f706f73616c20494400000000000000000000000000600082015250565b60006125a36013836115c2565b91506125ae8261256d565b602082019050919050565b600060208201905081810360008301526125d281612596565b9050919050565b7f4865792069747320616e2061637469766520766f74696e6720706572696f642c60008201527f20796f752063616e6e6f7420766f7465206e6f772e0000000000000000000000602082015250565b60006126356035836115c2565b9150612640826125d9565b604082019050919050565b6000602082019050818103600083015261266481612628565b9050919050565b600060408201905061268060008301856116a4565b61268d6020830184611647565b939250505056fea26469706673582212200d275467173218bd6aed272053b1f79f316221371b5acd4b57909aa01591999364736f6c63430008140033",
  "linkReferences": {},
  "deployedLinkReferences": {}
}