{
  "_format": "hh-sol-artifact-1",
  "contractName": "VotingContract",
  "sourceName": "contracts/smartContract.sol",
  "abi": [
    {
      "inputs": [
        {
          "internalType": "address[]",
          "name": "initialAdmins",
          "type": "address[]"
        },
        {
          "internalType": "address",
          "name": "_tokenAddress",
          "type": "address"
        }
      ],
      "stateMutability": "nonpayable",
      "type": "constructor"
    },
    {
      "anonymous": false,
      "inputs": [
        {
          "indexed": false,
          "internalType": "uint256",
          "name": "proposalId",
          "type": "uint256"
        },
        {
          "indexed": false,
          "internalType": "string",
          "name": "title",
          "type": "string"
        },
        {
          "indexed": false,
          "internalType": "string",
          "name": "description",
          "type": "string"
        },
        {
          "indexed": false,
          "internalType": "uint256",
          "name": "durationInMinutes",
          "type": "uint256"
        },
        {
          "indexed": false,
          "internalType": "uint8",
          "name": "quorumType",
          "type": "uint8"
        },
        {
          "indexed": false,
          "internalType": "uint256",
          "name": "endTime",
          "type": "uint256"
        },
        {
          "indexed": false,
          "internalType": "address",
          "name": "proposer",
          "type": "address"
        }
      ],
      "name": "ProposalCreated",
      "type": "event"
    },
    {
      "anonymous": false,
      "inputs": [
        {
          "indexed": true,
          "internalType": "uint256",
          "name": "proposalId",
          "type": "uint256"
        }
      ],
      "name": "ProposalDeleted",
      "type": "event"
    },
    {
      "anonymous": false,
      "inputs": [
        {
          "indexed": false,
          "internalType": "address",
          "name": "voter",
          "type": "address"
        },
        {
          "indexed": false,
          "internalType": "uint256",
          "name": "rewardAmount",
          "type": "uint256"
        }
      ],
      "name": "RewardIssued",
      "type": "event"
    },
    {
      "anonymous": false,
      "inputs": [
        {
          "indexed": false,
          "internalType": "address",
          "name": "voter",
          "type": "address"
        },
        {
          "indexed": false,
          "internalType": "uint256",
          "name": "newShares",
          "type": "uint256"
        }
      ],
      "name": "SharesUpdated",
      "type": "event"
    },
    {
      "anonymous": false,
      "inputs": [
        {
          "indexed": false,
          "internalType": "uint256",
          "name": "proposalId",
          "type": "uint256"
        },
        {
          "indexed": false,
          "internalType": "address",
          "name": "voter",
          "type": "address"
        },
        {
          "indexed": false,
          "internalType": "uint256",
          "name": "weight",
          "type": "uint256"
        },
        {
          "indexed": false,
          "internalType": "bool",
          "name": "voteFor",
          "type": "bool"
        }
      ],
      "name": "VoteCast",
      "type": "event"
    },
    {
      "anonymous": false,
      "inputs": [
        {
          "indexed": false,
          "internalType": "uint256",
          "name": "proposalId",
          "type": "uint256"
        },
        {
          "indexed": false,
          "internalType": "uint256",
          "name": "votesFor",
          "type": "uint256"
        },
        {
          "indexed": false,
          "internalType": "uint256",
          "name": "votesAgainst",
          "type": "uint256"
        }
      ],
      "name": "VoteProgressUpdated",
      "type": "event"
    },
    {
      "inputs": [
        {
          "internalType": "address",
          "name": "newAdmin",
          "type": "address"
        }
      ],
      "name": "addAdmin",
      "outputs": [],
      "stateMutability": "nonpayable",
      "type": "function"
    },
    {
      "inputs": [
        {
          "internalType": "address",
          "name": "",
          "type": "address"
        }
      ],
      "name": "admins",
      "outputs": [
        {
          "internalType": "bool",
          "name": "",
          "type": "bool"
        }
      ],
      "stateMutability": "view",
      "type": "function"
    },
    {
      "inputs": [
        {
          "internalType": "uint256",
          "name": "proposalId",
          "type": "uint256"
        }
      ],
      "name": "calculateQuorum",
      "outputs": [
        {
          "internalType": "uint256",
          "name": "",
          "type": "uint256"
        }
      ],
      "stateMutability": "view",
      "type": "function"
    },
    {
      "inputs": [
        {
          "internalType": "address",
          "name": "voter",
          "type": "address"
        }
      ],
      "name": "calculateVotingWeight",
      "outputs": [
        {
          "internalType": "uint256",
          "name": "",
          "type": "uint256"
        }
      ],
      "stateMutability": "view",
      "type": "function"
    },
    {
      "inputs": [
        {
          "internalType": "uint256",
          "name": "proposalId",
          "type": "uint256"
        },
        {
          "internalType": "bool",
          "name": "voteFor",
          "type": "bool"
        }
      ],
      "name": "castVote",
      "outputs": [],
      "stateMutability": "nonpayable",
      "type": "function"
    },
    {
      "inputs": [
        {
          "internalType": "string",
          "name": "title",
          "type": "string"
        },
        {
          "internalType": "string",
          "name": "description",
          "type": "string"
        },
        {
          "internalType": "uint256",
          "name": "durationInMinutes",
          "type": "uint256"
        },
        {
          "internalType": "uint8",
          "name": "quorumType",
          "type": "uint8"
        }
      ],
      "name": "createProposal",
      "outputs": [],
      "stateMutability": "payable",
      "type": "function"
    },
    {
      "inputs": [
        {
          "internalType": "uint256",
          "name": "proposalId",
          "type": "uint256"
        }
      ],
      "name": "deleteProposal",
      "outputs": [],
      "stateMutability": "nonpayable",
      "type": "function"
    },
    {
      "inputs": [
        {
          "internalType": "uint256",
          "name": "proposalId",
          "type": "uint256"
        }
      ],
      "name": "finalizeProposal",
      "outputs": [],
      "stateMutability": "nonpayable",
      "type": "function"
    },
    {
      "inputs": [],
      "name": "getPastProposals",
      "outputs": [
        {
          "components": [
            {
              "internalType": "string",
              "name": "title",
              "type": "string"
            },
            {
              "internalType": "string",
              "name": "description",
              "type": "string"
            },
            {
              "internalType": "uint256",
              "name": "durationInMinutes",
              "type": "uint256"
            },
            {
              "internalType": "uint8",
              "name": "quorumType",
              "type": "uint8"
            },
            {
              "internalType": "uint256",
              "name": "endTime",
              "type": "uint256"
            },
            {
              "internalType": "address",
              "name": "proposer",
              "type": "address"
            },
            {
              "internalType": "bool",
              "name": "active",
              "type": "bool"
            },
            {
              "internalType": "uint256",
              "name": "votesFor",
              "type": "uint256"
            },
            {
              "internalType": "uint256",
              "name": "votesAgainst",
              "type": "uint256"
            }
          ],
          "internalType": "struct VotingContract.Proposal[]",
          "name": "",
          "type": "tuple[]"
        },
        {
          "components": [
            {
              "internalType": "bool",
              "name": "passed",
              "type": "bool"
            },
            {
              "internalType": "uint256",
              "name": "votesFor",
              "type": "uint256"
            },
            {
              "internalType": "uint256",
              "name": "votesAgainst",
              "type": "uint256"
            }
          ],
          "internalType": "struct VotingContract.ProposalOutcome[]",
          "name": "",
          "type": "tuple[]"
        }
      ],
      "stateMutability": "view",
      "type": "function"
    },
    {
      "inputs": [
        {
          "internalType": "uint256",
          "name": "proposalId",
          "type": "uint256"
        }
      ],
      "name": "getProposalOutcome",
      "outputs": [
        {
          "components": [
            {
              "internalType": "bool",
              "name": "passed",
              "type": "bool"
            },
            {
              "internalType": "uint256",
              "name": "votesFor",
              "type": "uint256"
            },
            {
              "internalType": "uint256",
              "name": "votesAgainst",
              "type": "uint256"
            }
          ],
          "internalType": "struct VotingContract.ProposalOutcome",
          "name": "",
          "type": "tuple"
        }
      ],
      "stateMutability": "view",
      "type": "function"
    },
    {
      "inputs": [],
      "name": "getProposals",
      "outputs": [
        {
          "components": [
            {
              "internalType": "string",
              "name": "title",
              "type": "string"
            },
            {
              "internalType": "string",
              "name": "description",
              "type": "string"
            },
            {
              "internalType": "uint256",
              "name": "durationInMinutes",
              "type": "uint256"
            },
            {
              "internalType": "uint8",
              "name": "quorumType",
              "type": "uint8"
            },
            {
              "internalType": "uint256",
              "name": "endTime",
              "type": "uint256"
            },
            {
              "internalType": "address",
              "name": "proposer",
              "type": "address"
            },
            {
              "internalType": "bool",
              "name": "active",
              "type": "bool"
            },
            {
              "internalType": "uint256",
              "name": "votesFor",
              "type": "uint256"
            },
            {
              "internalType": "uint256",
              "name": "votesAgainst",
              "type": "uint256"
            }
          ],
          "internalType": "struct VotingContract.Proposal[]",
          "name": "",
          "type": "tuple[]"
        }
      ],
      "stateMutability": "view",
      "type": "function"
    },
    {
      "inputs": [],
      "name": "getProposalsCount",
      "outputs": [
        {
          "internalType": "uint256",
          "name": "",
          "type": "uint256"
        }
      ],
      "stateMutability": "view",
      "type": "function"
    },
    {
      "inputs": [
        {
          "internalType": "address",
          "name": "account",
          "type": "address"
        }
      ],
      "name": "getTokens",
      "outputs": [
        {
          "internalType": "uint256",
          "name": "",
          "type": "uint256"
        }
      ],
      "stateMutability": "view",
      "type": "function"
    },
    {
      "inputs": [
        {
          "internalType": "address",
          "name": "shareholder",
          "type": "address"
        }
      ],
      "name": "getVotingHistory",
      "outputs": [
        {
          "components": [
            {
              "internalType": "uint256",
              "name": "proposalId",
              "type": "uint256"
            },
            {
              "internalType": "bool",
              "name": "votedFor",
              "type": "bool"
            },
            {
              "internalType": "uint256",
              "name": "voteWeight",
              "type": "uint256"
            }
          ],
          "internalType": "struct VotingContract.VotingRecord[]",
          "name": "",
          "type": "tuple[]"
        }
      ],
      "stateMutability": "view",
      "type": "function"
    },
    {
      "inputs": [],
      "name": "governanceToken",
      "outputs": [
        {
          "internalType": "contract GovernanceToken",
          "name": "",
          "type": "address"
        }
      ],
      "stateMutability": "view",
      "type": "function"
    },
    {
      "inputs": [
        {
          "internalType": "address",
          "name": "user",
          "type": "address"
        }
      ],
      "name": "isAdmin",
      "outputs": [
        {
          "internalType": "bool",
          "name": "",
          "type": "bool"
        }
      ],
      "stateMutability": "view",
      "type": "function"
    },
    {
      "inputs": [],
      "name": "isVotingPeriodActive",
      "outputs": [
        {
          "internalType": "bool",
          "name": "",
          "type": "bool"
        }
      ],
      "stateMutability": "view",
      "type": "function"
    },
    {
      "inputs": [
        {
          "internalType": "address",
          "name": "tokenAddress",
          "type": "address"
        }
      ],
      "name": "linkTokenizedShareRegistry",
      "outputs": [],
      "stateMutability": "nonpayable",
      "type": "function"
    },
    {
      "inputs": [],
      "name": "proposalCount",
      "outputs": [
        {
          "internalType": "uint256",
          "name": "",
          "type": "uint256"
        }
      ],
      "stateMutability": "view",
      "type": "function"
    },
    {
      "inputs": [
        {
          "internalType": "uint256",
          "name": "",
          "type": "uint256"
        }
      ],
      "name": "proposalOutcomes",
      "outputs": [
        {
          "internalType": "bool",
          "name": "passed",
          "type": "bool"
        },
        {
          "internalType": "uint256",
          "name": "votesFor",
          "type": "uint256"
        },
        {
          "internalType": "uint256",
          "name": "votesAgainst",
          "type": "uint256"
        }
      ],
      "stateMutability": "view",
      "type": "function"
    },
    {
      "inputs": [
        {
          "internalType": "uint256",
          "name": "",
          "type": "uint256"
        }
      ],
      "name": "proposals",
      "outputs": [
        {
          "internalType": "string",
          "name": "title",
          "type": "string"
        },
        {
          "internalType": "string",
          "name": "description",
          "type": "string"
        },
        {
          "internalType": "uint256",
          "name": "durationInMinutes",
          "type": "uint256"
        },
        {
          "internalType": "uint8",
          "name": "quorumType",
          "type": "uint8"
        },
        {
          "internalType": "uint256",
          "name": "endTime",
          "type": "uint256"
        },
        {
          "internalType": "address",
          "name": "proposer",
          "type": "address"
        },
        {
          "internalType": "bool",
          "name": "active",
          "type": "bool"
        },
        {
          "internalType": "uint256",
          "name": "votesFor",
          "type": "uint256"
        },
        {
          "internalType": "uint256",
          "name": "votesAgainst",
          "type": "uint256"
        }
      ],
      "stateMutability": "view",
      "type": "function"
    },
    {
      "inputs": [
        {
          "internalType": "address",
          "name": "account",
          "type": "address"
        },
        {
          "internalType": "uint256",
          "name": "_shares",
          "type": "uint256"
        }
      ],
      "name": "registerShareholder",
      "outputs": [],
      "stateMutability": "nonpayable",
      "type": "function"
    },
    {
      "inputs": [
        {
          "internalType": "address",
          "name": "admin",
          "type": "address"
        }
      ],
      "name": "removeAdmin",
      "outputs": [],
      "stateMutability": "nonpayable",
      "type": "function"
    },
    {
      "inputs": [
        {
          "internalType": "address",
          "name": "",
          "type": "address"
        }
      ],
      "name": "shares",
      "outputs": [
        {
          "internalType": "uint256",
          "name": "",
          "type": "uint256"
        }
      ],
      "stateMutability": "view",
      "type": "function"
    },
    {
      "inputs": [
        {
          "internalType": "address",
          "name": "",
          "type": "address"
        }
      ],
      "name": "tokens",
      "outputs": [
        {
          "internalType": "uint256",
          "name": "",
          "type": "uint256"
        }
      ],
      "stateMutability": "view",
      "type": "function"
    },
    {
      "inputs": [],
      "name": "totalShares",
      "outputs": [
        {
          "internalType": "uint256",
          "name": "",
          "type": "uint256"
        }
      ],
      "stateMutability": "view",
      "type": "function"
    },
    {
      "inputs": [
        {
          "internalType": "address",
          "name": "voter",
          "type": "address"
        },
        {
          "internalType": "uint256",
          "name": "newShares",
          "type": "uint256"
        }
      ],
      "name": "updateShares",
      "outputs": [],
      "stateMutability": "nonpayable",
      "type": "function"
    },
    {
      "inputs": [
        {
          "internalType": "address",
          "name": "account",
          "type": "address"
        },
        {
          "internalType": "uint256",
          "name": "voteAmount",
          "type": "uint256"
        }
      ],
      "name": "vote",
      "outputs": [],
      "stateMutability": "nonpayable",
      "type": "function"
    },
    {
      "inputs": [
        {
          "internalType": "address",
          "name": "",
          "type": "address"
        }
      ],
      "name": "voted",
      "outputs": [
        {
          "internalType": "bool",
          "name": "",
          "type": "bool"
        }
      ],
      "stateMutability": "view",
      "type": "function"
    },
    {
      "inputs": [],
      "name": "votingEndTime",
      "outputs": [
        {
          "internalType": "uint256",
          "name": "",
          "type": "uint256"
        }
      ],
      "stateMutability": "view",
      "type": "function"
    },
    {
      "inputs": [
        {
          "internalType": "address",
          "name": "",
          "type": "address"
        },
        {
          "internalType": "uint256",
          "name": "",
          "type": "uint256"
        }
      ],
      "name": "votingHistory",
      "outputs": [
        {
          "internalType": "uint256",
          "name": "proposalId",
          "type": "uint256"
        },
        {
          "internalType": "bool",
          "name": "votedFor",
          "type": "bool"
        },
        {
          "internalType": "uint256",
          "name": "voteWeight",
          "type": "uint256"
        }
      ],
      "stateMutability": "view",
      "type": "function"
    }
  ],
  "bytecode": "0x60806040523480156200001157600080fd5b506040516200431038038062004310833981810160405281019062000037919062000307565b80600b60006101000a81548173ffffffffffffffffffffffffffffffffffffffff021916908373ffffffffffffffffffffffffffffffffffffffff16021790555060005b82518110156200011057600160046000858481518110620000a157620000a06200036d565b5b602002602001015173ffffffffffffffffffffffffffffffffffffffff1673ffffffffffffffffffffffffffffffffffffffff16815260200190815260200160002060006101000a81548160ff02191690831515021790555080806200010790620003d5565b9150506200007b565b50505062000422565b6000604051905090565b600080fd5b600080fd5b600080fd5b6000601f19601f8301169050919050565b7f4e487b7100000000000000000000000000000000000000000000000000000000600052604160045260246000fd5b6200017d8262000132565b810181811067ffffffffffffffff821117156200019f576200019e62000143565b5b80604052505050565b6000620001b462000119565b9050620001c2828262000172565b919050565b600067ffffffffffffffff821115620001e557620001e462000143565b5b602082029050602081019050919050565b600080fd5b600073ffffffffffffffffffffffffffffffffffffffff82169050919050565b60006200022882620001fb565b9050919050565b6200023a816200021b565b81146200024657600080fd5b50565b6000815190506200025a816200022f565b92915050565b6000620002776200027184620001c7565b620001a8565b905080838252602082019050602084028301858111156200029d576200029c620001f6565b5b835b81811015620002ca5780620002b5888262000249565b8452602084019350506020810190506200029f565b5050509392505050565b600082601f830112620002ec57620002eb6200012d565b5b8151620002fe84826020860162000260565b91505092915050565b6000806040838503121562000321576200032062000123565b5b600083015167ffffffffffffffff81111562000342576200034162000128565b5b6200035085828601620002d4565b9250506020620003638582860162000249565b9150509250929050565b7f4e487b7100000000000000000000000000000000000000000000000000000000600052603260045260246000fd5b7f4e487b7100000000000000000000000000000000000000000000000000000000600052601160045260246000fd5b6000819050919050565b6000620003e282620003cb565b91507fffffffffffffffffffffffffffffffffffffffffffffffffffffffffffffffff82036200041757620004166200039c565b5b600182019050919050565b613ede80620004326000396000f3fe6080604052600436106101d85760003560e01c806370f6e05d11610102578063ce7c2ac211610095578063e486033911610064578063e48603391461072e578063e5d0821f1461076b578063f315103314610794578063f96dae0a146107bd576101d8565b8063ce7c2ac21461065b578063d09c34f214610698578063d4bdf023146106d7578063da35c66414610703576101d8565b80639fcc5ce4116100d15780639fcc5ce41461058b578063a9c0310d146105b6578063aec2ccae146105f5578063afafa0cf14610632576101d8565b806370f6e05d146104de5780637ad6e5aa146104fa5780638259d5531461053757806398e527d314610560576101d8565b8063429b62e51161017a5780635f74bbde116101495780635f74bbde1461042457806362564c481461044d5780636fdb6f7c1461047857806370480275146104b5576101d8565b8063429b62e514610344578063450efe21146103815780635652077c146103be5780635daff901146103e7576101d8565b80631ea736e0116101b65780631ea736e01461027457806324d7806c1461029f578063317571b2146102dc5780633a98ef3914610319576101d8565b8063013cf08b146101dd57806315373e3d146102225780631785f53c1461024b575b600080fd5b3480156101e957600080fd5b5061020460048036038101906101ff91906127b5565b6107e8565b604051610219999897969594939291906128f9565b60405180910390f35b34801561022e57600080fd5b50610249600480360381019061024491906129c0565b610990565b005b34801561025757600080fd5b50610272600480360381019061026d9190612a2c565b610e2e565b005b34801561028057600080fd5b50610289610f15565b6040516102969190612a59565b60405180910390f35b3480156102ab57600080fd5b506102c660048036038101906102c19190612a2c565b610f1b565b6040516102d39190612a74565b60405180910390f35b3480156102e857600080fd5b5061030360048036038101906102fe9190612a2c565b610f71565b6040516103109190612a59565b60405180910390f35b34801561032557600080fd5b5061032e611016565b60405161033b9190612a59565b60405180910390f35b34801561035057600080fd5b5061036b60048036038101906103669190612a2c565b61101c565b6040516103789190612a74565b60405180910390f35b34801561038d57600080fd5b506103a860048036038101906103a39190612a2c565b61103c565b6040516103b59190612a59565b60405180910390f35b3480156103ca57600080fd5b506103e560048036038101906103e091906127b5565b611085565b005b3480156103f357600080fd5b5061040e60048036038101906104099190612a2c565b61130a565b60405161041b9190612b9e565b60405180910390f35b34801561043057600080fd5b5061044b60048036038101906104469190612bc0565b6113d7565b005b34801561045957600080fd5b50610462611605565b60405161046f9190612df6565b60405180910390f35b34801561048457600080fd5b5061049f600480360381019061049a91906127b5565b61183f565b6040516104ac9190612e5a565b60405180910390f35b3480156104c157600080fd5b506104dc60048036038101906104d79190612a2c565b61189b565b005b6104f860048036038101906104f39190612fd6565b611982565b005b34801561050657600080fd5b50610521600480360381019061051c91906127b5565b611c55565b60405161052e9190612a59565b60405180910390f35b34801561054357600080fd5b5061055e600480360381019061055991906127b5565b611de7565b005b34801561056c57600080fd5b50610575611f28565b6040516105829190612a59565b60405180910390f35b34801561059757600080fd5b506105a0611f32565b6040516105ad9190612a74565b60405180910390f35b3480156105c257600080fd5b506105dd60048036038101906105d891906127b5565b611f45565b6040516105ec93929190613075565b60405180910390f35b34801561060157600080fd5b5061061c60048036038101906106179190612a2c565b611f7c565b6040516106299190612a74565b60405180910390f35b34801561063e57600080fd5b5061065960048036038101906106549190612bc0565b611f9c565b005b34801561066757600080fd5b50610682600480360381019061067d9190612a2c565b612106565b60405161068f9190612a59565b60405180910390f35b3480156106a457600080fd5b506106bf60048036038101906106ba9190612bc0565b61211e565b6040516106ce939291906130ac565b60405180910390f35b3480156106e357600080fd5b506106ec612172565b6040516106fa9291906131d4565b60405180910390f35b34801561070f57600080fd5b506107186124e7565b6040516107259190612a59565b60405180910390f35b34801561073a57600080fd5b5061075560048036038101906107509190612a2c565b6124ed565b6040516107629190612a59565b60405180910390f35b34801561077757600080fd5b50610792600480360381019061078d9190612bc0565b612505565b005b3480156107a057600080fd5b506107bb60048036038101906107b69190612a2c565b6125d5565b005b3480156107c957600080fd5b506107d26126a5565b6040516107df919061326a565b60405180910390f35b600781815481106107f857600080fd5b906000526020600020906008020160009150905080600001805461081b906132b4565b80601f0160208091040260200160405190810160405280929190818152602001828054610847906132b4565b80156108945780601f1061086957610100808354040283529160200191610894565b820191906000526020600020905b81548152906001019060200180831161087757829003601f168201915b5050505050908060010180546108a9906132b4565b80601f01602080910402602001604051908101604052809291908181526020018280546108d5906132b4565b80156109225780601f106108f757610100808354040283529160200191610922565b820191906000526020600020905b81548152906001019060200180831161090557829003601f168201915b5050505050908060020154908060030160009054906101000a900460ff16908060040154908060050160009054906101000a900473ffffffffffffffffffffffffffffffffffffffff16908060050160149054906101000a900460ff16908060060154908060070154905089565b600660003373ffffffffffffffffffffffffffffffffffffffff1673ffffffffffffffffffffffffffffffffffffffff16815260200190815260200160002060009054906101000a900460ff1615610a1d576040517f08c379a0000000000000000000000000000000000000000000000000000000008152600401610a1490613331565b60405180910390fd5b60078281548110610a3157610a30613351565b5b906000526020600020906008020160050160149054906101000a900460ff16610a8f576040517f08c379a0000000000000000000000000000000000000000000000000000000008152600401610a86906133cc565b60405180910390fd5b6000610a9a33610f71565b905060008111610adf576040517f08c379a0000000000000000000000000000000000000000000000000000000008152600401610ad690613438565b60405180910390fd5b8115610b26578060078481548110610afa57610af9613351565b5b90600052602060002090600802016006016000828254610b1a9190613487565b92505081905550610b63565b8060078481548110610b3b57610b3a613351565b5b90600052602060002090600802016007016000828254610b5b9190613487565b925050819055505b600260003373ffffffffffffffffffffffffffffffffffffffff1673ffffffffffffffffffffffffffffffffffffffff168152602001908152602001600020604051806060016040528085815260200184151581526020018381525090806001815401808255809150506001900390600052602060002090600302016000909190919091506000820151816000015560208201518160010160006101000a81548160ff0219169083151502179055506040820151816002015550506001600660003373ffffffffffffffffffffffffffffffffffffffff1673ffffffffffffffffffffffffffffffffffffffff16815260200190815260200160002060006101000a81548160ff0219169083151502179055506001600960006101000a81548160ff0219169083151502179055506000610c9c826126cb565b9050600b60009054906101000a900473ffffffffffffffffffffffffffffffffffffffff1673ffffffffffffffffffffffffffffffffffffffff166340c10f1933836040518363ffffffff1660e01b8152600401610cfb9291906134bb565b600060405180830381600087803b158015610d1557600080fd5b505af1158015610d29573d6000803e3d6000fd5b505050507fb898e75d5aac8de2f407e4a683c8d909e832d1e371e3bff0fa3ed934e88d956284338486604051610d6294939291906134e4565b60405180910390a17ff9b6ec770c96c3a6f9225bf3a8463a8ad03e884448af07b4ecd4d19d628946ee3382604051610d9b9291906134bb565b60405180910390a17f2928c60fc388d58e01cef82fb7676953f4792e35df8e557becce0082924185fc8460078681548110610dd957610dd8613351565b5b90600052602060002090600802016006015460078781548110610dff57610dfe613351565b5b906000526020600020906008020160070154604051610e2093929190613529565b60405180910390a150505050565b600460003373ffffffffffffffffffffffffffffffffffffffff1673ffffffffffffffffffffffffffffffffffffffff16815260200190815260200160002060009054906101000a900460ff16610eba576040517f08c379a0000000000000000000000000000000000000000000000000000000008152600401610eb1906135d2565b60405180910390fd5b6000600460008373ffffffffffffffffffffffffffffffffffffffff1673ffffffffffffffffffffffffffffffffffffffff16815260200190815260200160002060006101000a81548160ff02191690831515021790555050565b600a5481565b6000600460008373ffffffffffffffffffffffffffffffffffffffff1673ffffffffffffffffffffffffffffffffffffffff16815260200190815260200160002060009054906101000a900460ff169050919050565b60008060055411610fb7576040517f08c379a0000000000000000000000000000000000000000000000000000000008152600401610fae90613664565b60405180910390fd5b60055460646000808573ffffffffffffffffffffffffffffffffffffffff1673ffffffffffffffffffffffffffffffffffffffff168152602001908152602001600020546110059190613684565b61100f91906136f5565b9050919050565b60055481565b60046020528060005260406000206000915054906101000a900460ff1681565b6000600160008373ffffffffffffffffffffffffffffffffffffffff1673ffffffffffffffffffffffffffffffffffffffff168152602001908152602001600020549050919050565b600460003373ffffffffffffffffffffffffffffffffffffffff1673ffffffffffffffffffffffffffffffffffffffff16815260200190815260200160002060009054906101000a900460ff16611111576040517f08c379a0000000000000000000000000000000000000000000000000000000008152600401611108906135d2565b60405180910390fd5b60006007828154811061112757611126613351565b5b90600052602060002090600802019050806004015442101561117e576040517f08c379a000000000000000000000000000000000000000000000000000000000815260040161117590613772565b60405180910390fd5b8060050160149054906101000a900460ff166111cf576040517f08c379a00000000000000000000000000000000000000000000000000000000081526004016111c6906133cc565b60405180910390fd5b60006111da83611c55565b90508082600601541061125c5760405180606001604052806001151581526020018360060154815260200183600701548152506003600085815260200190815260200160002060008201518160000160006101000a81548160ff02191690831515021790555060208201518160010155604082015181600201559050506112cd565b60405180606001604052806000151581526020018360060154815260200183600701548152506003600085815260200190815260200160002060008201518160000160006101000a81548160ff02191690831515021790555060208201518160010155604082015181600201559050505b60008260050160146101000a81548160ff0219169083151502179055506000600960006101000a81548160ff021916908315150217905550505050565b6060600260008373ffffffffffffffffffffffffffffffffffffffff1673ffffffffffffffffffffffffffffffffffffffff168152602001908152602001600020805480602002602001604051908101604052809291908181526020016000905b828210156113cc5783829060005260206000209060030201604051806060016040529081600082015481526020016001820160009054906101000a900460ff161515151581526020016002820154815250508152602001906001019061136b565b505050509050919050565b80600160008473ffffffffffffffffffffffffffffffffffffffff1673ffffffffffffffffffffffffffffffffffffffff168152602001908152602001600020541015611459576040517f08c379a0000000000000000000000000000000000000000000000000000000008152600401611450906137de565b60405180910390fd5b80600160008473ffffffffffffffffffffffffffffffffffffffff1673ffffffffffffffffffffffffffffffffffffffff16815260200190815260200160002060008282546114a891906137fe565b9250508190555080600560008282546114c191906137fe565b925050819055508060076000815481106114de576114dd613351565b5b906000526020600020906008020160060160008282546114fe9190613487565b92505081905550600260008373ffffffffffffffffffffffffffffffffffffffff1673ffffffffffffffffffffffffffffffffffffffff1681526020019081526020016000206040518060600160405280600081526020016001151581526020018381525090806001815401808255809150506001900390600052602060002090600302016000909190919091506000820151816000015560208201518160010160006101000a81548160ff0219169083151502179055506040820151816002015550507fb898e75d5aac8de2f407e4a683c8d909e832d1e371e3bff0fa3ed934e88d95626000838360016040516115f9949392919061386d565b60405180910390a15050565b60606007805480602002602001604051908101604052809291908181526020016000905b8282101561183657838290600052602060002090600802016040518061012001604052908160008201805461165d906132b4565b80601f0160208091040260200160405190810160405280929190818152602001828054611689906132b4565b80156116d65780601f106116ab576101008083540402835291602001916116d6565b820191906000526020600020905b8154815290600101906020018083116116b957829003601f168201915b505050505081526020016001820180546116ef906132b4565b80601f016020809104026020016040519081016040528092919081815260200182805461171b906132b4565b80156117685780601f1061173d57610100808354040283529160200191611768565b820191906000526020600020905b81548152906001019060200180831161174b57829003601f168201915b50505050508152602001600282015481526020016003820160009054906101000a900460ff1660ff1660ff168152602001600482015481526020016005820160009054906101000a900473ffffffffffffffffffffffffffffffffffffffff1673ffffffffffffffffffffffffffffffffffffffff1673ffffffffffffffffffffffffffffffffffffffff1681526020016005820160149054906101000a900460ff161515151581526020016006820154815260200160078201548152505081526020019060010190611629565b50505050905090565b6118476126e1565b600360008381526020019081526020016000206040518060600160405290816000820160009054906101000a900460ff16151515158152602001600182015481526020016002820154815250509050919050565b600460003373ffffffffffffffffffffffffffffffffffffffff1673ffffffffffffffffffffffffffffffffffffffff16815260200190815260200160002060009054906101000a900460ff16611927576040517f08c379a000000000000000000000000000000000000000000000000000000000815260040161191e906135d2565b60405180910390fd5b6001600460008373ffffffffffffffffffffffffffffffffffffffff1673ffffffffffffffffffffffffffffffffffffffff16815260200190815260200160002060006101000a81548160ff02191690831515021790555050565b600460003373ffffffffffffffffffffffffffffffffffffffff1673ffffffffffffffffffffffffffffffffffffffff16815260200190815260200160002060009054906101000a900460ff16611a0e576040517f08c379a0000000000000000000000000000000000000000000000000000000008152600401611a05906135d2565b60405180910390fd5b670de0b6b3a76400003414611a58576040517f08c379a0000000000000000000000000000000000000000000000000000000008152600401611a4f90613924565b60405180910390fd5b6000603c83611a679190613684565b42611a729190613487565b905060076040518061012001604052808781526020018681526020018581526020018460ff1681526020018381526020013373ffffffffffffffffffffffffffffffffffffffff16815260200160011515815260200160008152602001600081525090806001815401808255809150506001900390600052602060002090600802016000909190919091506000820151816000019081611b129190613ae6565b506020820151816001019081611b289190613ae6565b506040820151816002015560608201518160030160006101000a81548160ff021916908360ff1602179055506080820151816004015560a08201518160050160006101000a81548173ffffffffffffffffffffffffffffffffffffffff021916908373ffffffffffffffffffffffffffffffffffffffff16021790555060c08201518160050160146101000a81548160ff02191690831515021790555060e082015181600601556101008201518160070155505060006001600780549050611bf091906137fe565b905060086000815480929190611c0590613bb8565b91905055507f3d7708da99615a873ed0ef5e0b10f8b1bd8e76e197387471a6a8ca12c29da91381878787878733604051611c459796959493929190613c00565b60405180910390a1505050505050565b60008060078381548110611c6c57611c6b613351565b5b9060005260206000209060080201905060006003811115611c9057611c8f613c7d565b5b60ff168160030160009054906101000a900460ff1660ff1603611cc4576002600554611cbc91906136f5565b915050611de2565b60016003811115611cd857611cd7613c7d565b5b60ff168160030160009054906101000a900460ff1660ff1603611d185760036002600554611d069190613684565b611d1091906136f5565b915050611de2565b60026003811115611d2c57611d2b613c7d565b5b60ff168160030160009054906101000a900460ff1660ff1603611d6c5760046003600554611d5a9190613684565b611d6491906136f5565b915050611de2565b600380811115611d7f57611d7e613c7d565b5b60ff168160030160009054906101000a900460ff1660ff1603611da757600554915050611de2565b6040517f08c379a0000000000000000000000000000000000000000000000000000000008152600401611dd990613cf8565b60405180910390fd5b919050565b600460003373ffffffffffffffffffffffffffffffffffffffff1673ffffffffffffffffffffffffffffffffffffffff16815260200190815260200160002060009054906101000a900460ff16611e73576040517f08c379a0000000000000000000000000000000000000000000000000000000008152600401611e6a906135d2565b60405180910390fd5b6007805490508110611eba576040517f08c379a0000000000000000000000000000000000000000000000000000000008152600401611eb190613d64565b60405180910390fd5b600060078281548110611ed057611ecf613351565b5b906000526020600020906008020160050160146101000a81548160ff021916908315150217905550807f61c0d93dc2b610877e420b107c8d12e9185e46e04a505da758cc7f7329ae545f60405160405180910390a250565b6000600854905090565b600960009054906101000a900460ff1681565b60036020528060005260406000206000915090508060000160009054906101000a900460ff16908060010154908060020154905083565b60066020528060005260406000206000915054906101000a900460ff1681565b600960009054906101000a900460ff1615611fec576040517f08c379a0000000000000000000000000000000000000000000000000000000008152600401611fe390613df6565b60405180910390fd5b806000808473ffffffffffffffffffffffffffffffffffffffff1673ffffffffffffffffffffffffffffffffffffffff1681526020019081526020016000208190555080600160008473ffffffffffffffffffffffffffffffffffffffff1673ffffffffffffffffffffffffffffffffffffffff16815260200190815260200160002081905550600b60009054906101000a900473ffffffffffffffffffffffffffffffffffffffff1673ffffffffffffffffffffffffffffffffffffffff166340c10f1983836040518363ffffffff1660e01b81526004016120d09291906134bb565b600060405180830381600087803b1580156120ea57600080fd5b505af11580156120fe573d6000803e3d6000fd5b505050505050565b60006020528060005260406000206000915090505481565b6002602052816000526040600020818154811061213a57600080fd5b9060005260206000209060030201600091509150508060000154908060010160009054906101000a900460ff16908060020154905083565b606080600060085467ffffffffffffffff81111561219357612192612e7f565b5b6040519080825280602002602001820160405280156121cc57816020015b6121b9612704565b8152602001906001900390816121b15790505b509050600060085467ffffffffffffffff8111156121ed576121ec612e7f565b5b60405190808252806020026020018201604052801561222657816020015b6122136126e1565b81526020019060019003908161220b5790505b50905060005b6008548110156124da576007818154811061224a57612249613351565b5b906000526020600020906008020160405180610120016040529081600082018054612274906132b4565b80601f01602080910402602001604051908101604052809291908181526020018280546122a0906132b4565b80156122ed5780601f106122c2576101008083540402835291602001916122ed565b820191906000526020600020905b8154815290600101906020018083116122d057829003601f168201915b50505050508152602001600182018054612306906132b4565b80601f0160208091040260200160405190810160405280929190818152602001828054612332906132b4565b801561237f5780601f106123545761010080835404028352916020019161237f565b820191906000526020600020905b81548152906001019060200180831161236257829003601f168201915b50505050508152602001600282015481526020016003820160009054906101000a900460ff1660ff1660ff168152602001600482015481526020016005820160009054906101000a900473ffffffffffffffffffffffffffffffffffffffff1673ffffffffffffffffffffffffffffffffffffffff1673ffffffffffffffffffffffffffffffffffffffff1681526020016005820160149054906101000a900460ff161515151581526020016006820154815260200160078201548152505083828151811061245157612450613351565b5b6020026020010181905250600360008281526020019081526020016000206040518060600160405290816000820160009054906101000a900460ff16151515158152602001600182015481526020016002820154815250508282815181106124bc576124bb613351565b5b602002602001018190525080806124d290613bb8565b91505061222c565b5081819350935050509091565b60085481565b60016020528060005260406000206000915090505481565b600960009054906101000a900460ff1615612555576040517f08c379a000000000000000000000000000000000000000000000000000000000815260040161254c90613e88565b60405180910390fd5b806000808473ffffffffffffffffffffffffffffffffffffffff1673ffffffffffffffffffffffffffffffffffffffff168152602001908152602001600020819055507fe6382c9ed5c0c33bb05042f73cf6cbe9cb25639f9a711e094ee563bc9cb80e2c82826040516125c99291906134bb565b60405180910390a15050565b600460003373ffffffffffffffffffffffffffffffffffffffff1673ffffffffffffffffffffffffffffffffffffffff16815260200190815260200160002060009054906101000a900460ff16612661576040517f08c379a0000000000000000000000000000000000000000000000000000000008152600401612658906135d2565b60405180910390fd5b80600b60006101000a81548173ffffffffffffffffffffffffffffffffffffffff021916908373ffffffffffffffffffffffffffffffffffffffff16021790555050565b600b60009054906101000a900473ffffffffffffffffffffffffffffffffffffffff1681565b60006064826126da91906136f5565b9050919050565b604051806060016040528060001515815260200160008152602001600081525090565b604051806101200160405280606081526020016060815260200160008152602001600060ff16815260200160008152602001600073ffffffffffffffffffffffffffffffffffffffff16815260200160001515815260200160008152602001600081525090565b6000604051905090565b600080fd5b600080fd5b6000819050919050565b6127928161277f565b811461279d57600080fd5b50565b6000813590506127af81612789565b92915050565b6000602082840312156127cb576127ca612775565b5b60006127d9848285016127a0565b91505092915050565b600081519050919050565b600082825260208201905092915050565b60005b8381101561281c578082015181840152602081019050612801565b60008484015250505050565b6000601f19601f8301169050919050565b6000612844826127e2565b61284e81856127ed565b935061285e8185602086016127fe565b61286781612828565b840191505092915050565b61287b8161277f565b82525050565b600060ff82169050919050565b61289781612881565b82525050565b600073ffffffffffffffffffffffffffffffffffffffff82169050919050565b60006128c88261289d565b9050919050565b6128d8816128bd565b82525050565b60008115159050919050565b6128f3816128de565b82525050565b6000610120820190508181036000830152612914818c612839565b90508181036020830152612928818b612839565b9050612937604083018a612872565b612944606083018961288e565b6129516080830188612872565b61295e60a08301876128cf565b61296b60c08301866128ea565b61297860e0830185612872565b612986610100830184612872565b9a9950505050505050505050565b61299d816128de565b81146129a857600080fd5b50565b6000813590506129ba81612994565b92915050565b600080604083850312156129d7576129d6612775565b5b60006129e5858286016127a0565b92505060206129f6858286016129ab565b9150509250929050565b612a09816128bd565b8114612a1457600080fd5b50565b600081359050612a2681612a00565b92915050565b600060208284031215612a4257612a41612775565b5b6000612a5084828501612a17565b91505092915050565b6000602082019050612a6e6000830184612872565b92915050565b6000602082019050612a8960008301846128ea565b92915050565b600081519050919050565b600082825260208201905092915050565b6000819050602082019050919050565b612ac48161277f565b82525050565b612ad3816128de565b82525050565b606082016000820151612aef6000850182612abb565b506020820151612b026020850182612aca565b506040820151612b156040850182612abb565b50505050565b6000612b278383612ad9565b60608301905092915050565b6000602082019050919050565b6000612b4b82612a8f565b612b558185612a9a565b9350612b6083612aab565b8060005b83811015612b91578151612b788882612b1b565b9750612b8383612b33565b925050600181019050612b64565b5085935050505092915050565b60006020820190508181036000830152612bb88184612b40565b905092915050565b60008060408385031215612bd757612bd6612775565b5b6000612be585828601612a17565b9250506020612bf6858286016127a0565b9150509250929050565b600081519050919050565b600082825260208201905092915050565b6000819050602082019050919050565b600082825260208201905092915050565b6000612c48826127e2565b612c528185612c2c565b9350612c628185602086016127fe565b612c6b81612828565b840191505092915050565b612c7f81612881565b82525050565b612c8e816128bd565b82525050565b6000610120830160008301518482036000860152612cb28282612c3d565b91505060208301518482036020860152612ccc8282612c3d565b9150506040830151612ce16040860182612abb565b506060830151612cf46060860182612c76565b506080830151612d076080860182612abb565b5060a0830151612d1a60a0860182612c85565b5060c0830151612d2d60c0860182612aca565b5060e0830151612d4060e0860182612abb565b50610100830151612d55610100860182612abb565b508091505092915050565b6000612d6c8383612c94565b905092915050565b6000602082019050919050565b6000612d8c82612c00565b612d968185612c0b565b935083602082028501612da885612c1c565b8060005b85811015612de45784840389528151612dc58582612d60565b9450612dd083612d74565b925060208a01995050600181019050612dac565b50829750879550505050505092915050565b60006020820190508181036000830152612e108184612d81565b905092915050565b606082016000820151612e2e6000850182612aca565b506020820151612e416020850182612abb565b506040820151612e546040850182612abb565b50505050565b6000606082019050612e6f6000830184612e18565b92915050565b600080fd5b600080fd5b7f4e487b7100000000000000000000000000000000000000000000000000000000600052604160045260246000fd5b612eb782612828565b810181811067ffffffffffffffff82111715612ed657612ed5612e7f565b5b80604052505050565b6000612ee961276b565b9050612ef58282612eae565b919050565b600067ffffffffffffffff821115612f1557612f14612e7f565b5b612f1e82612828565b9050602081019050919050565b82818337600083830152505050565b6000612f4d612f4884612efa565b612edf565b905082815260208101848484011115612f6957612f68612e7a565b5b612f74848285612f2b565b509392505050565b600082601f830112612f9157612f90612e75565b5b8135612fa1848260208601612f3a565b91505092915050565b612fb381612881565b8114612fbe57600080fd5b50565b600081359050612fd081612faa565b92915050565b60008060008060808587031215612ff057612fef612775565b5b600085013567ffffffffffffffff81111561300e5761300d61277a565b5b61301a87828801612f7c565b945050602085013567ffffffffffffffff81111561303b5761303a61277a565b5b61304787828801612f7c565b9350506040613058878288016127a0565b925050606061306987828801612fc1565b91505092959194509250565b600060608201905061308a60008301866128ea565b6130976020830185612872565b6130a46040830184612872565b949350505050565b60006060820190506130c16000830186612872565b6130ce60208301856128ea565b6130db6040830184612872565b949350505050565b600081519050919050565b600082825260208201905092915050565b6000819050602082019050919050565b6060820160008201516131256000850182612aca565b5060208201516131386020850182612abb565b50604082015161314b6040850182612abb565b50505050565b600061315d838361310f565b60608301905092915050565b6000602082019050919050565b6000613181826130e3565b61318b81856130ee565b9350613196836130ff565b8060005b838110156131c75781516131ae8882613151565b97506131b983613169565b92505060018101905061319a565b5085935050505092915050565b600060408201905081810360008301526131ee8185612d81565b905081810360208301526132028184613176565b90509392505050565b6000819050919050565b600061323061322b6132268461289d565b61320b565b61289d565b9050919050565b600061324282613215565b9050919050565b600061325482613237565b9050919050565b61326481613249565b82525050565b600060208201905061327f600083018461325b565b92915050565b7f4e487b7100000000000000000000000000000000000000000000000000000000600052602260045260246000fd5b600060028204905060018216806132cc57607f821691505b6020821081036132df576132de613285565b5b50919050565b7f596f75206861766520616c726561647920766f74656400000000000000000000600082015250565b600061331b6016836127ed565b9150613326826132e5565b602082019050919050565b6000602082019050818103600083015261334a8161330e565b9050919050565b7f4e487b7100000000000000000000000000000000000000000000000000000000600052603260045260246000fd5b7f50726f706f73616c206973206e6f742061637469766500000000000000000000600082015250565b60006133b66016836127ed565b91506133c182613380565b602082019050919050565b600060208201905081810360008301526133e5816133a9565b9050919050565b7f596f75206d75737420686f6c642073686172657320746f20766f746500000000600082015250565b6000613422601c836127ed565b915061342d826133ec565b602082019050919050565b6000602082019050818103600083015261345181613415565b9050919050565b7f4e487b7100000000000000000000000000000000000000000000000000000000600052601160045260246000fd5b60006134928261277f565b915061349d8361277f565b92508282019050808211156134b5576134b4613458565b5b92915050565b60006040820190506134d060008301856128cf565b6134dd6020830184612872565b9392505050565b60006080820190506134f96000830187612872565b61350660208301866128cf565b6135136040830185612872565b61352060608301846128ea565b95945050505050565b600060608201905061353e6000830186612872565b61354b6020830185612872565b6135586040830184612872565b949350505050565b7f4f6e6c792061646d696e732063616e20706572666f726d20746869732061637460008201527f696f6e0000000000000000000000000000000000000000000000000000000000602082015250565b60006135bc6023836127ed565b91506135c782613560565b604082019050919050565b600060208201905081810360008301526135eb816135af565b9050919050565b7f546f74616c20736861726573206d75737420626520677265617465722074686160008201527f6e207a65726f0000000000000000000000000000000000000000000000000000602082015250565b600061364e6026836127ed565b9150613659826135f2565b604082019050919050565b6000602082019050818103600083015261367d81613641565b9050919050565b600061368f8261277f565b915061369a8361277f565b92508282026136a88161277f565b915082820484148315176136bf576136be613458565b5b5092915050565b7f4e487b7100000000000000000000000000000000000000000000000000000000600052601260045260246000fd5b60006137008261277f565b915061370b8361277f565b92508261371b5761371a6136c6565b5b828204905092915050565b7f566f74696e6720706572696f6420686173206e6f7420656e6465640000000000600082015250565b600061375c601b836127ed565b915061376782613726565b602082019050919050565b6000602082019050818103600083015261378b8161374f565b9050919050565b7f4e6f7420656e6f75676820746f6b656e7320746f20766f746500000000000000600082015250565b60006137c86019836127ed565b91506137d382613792565b602082019050919050565b600060208201905081810360008301526137f7816137bb565b9050919050565b60006138098261277f565b91506138148361277f565b925082820390508181111561382c5761382b613458565b5b92915050565b6000819050919050565b600061385761385261384d84613832565b61320b565b61277f565b9050919050565b6138678161383c565b82525050565b6000608082019050613882600083018761385e565b61388f60208301866128cf565b61389c6040830185612872565b6138a960608301846128ea565b95945050505050565b7f4d7573742073656e6420312045544820746f2063726561746520612070726f7060008201527f6f73616c00000000000000000000000000000000000000000000000000000000602082015250565b600061390e6024836127ed565b9150613919826138b2565b604082019050919050565b6000602082019050818103600083015261393d81613901565b9050919050565b60008190508160005260206000209050919050565b60006020601f8301049050919050565b600082821b905092915050565b6000600883026139a67fffffffffffffffffffffffffffffffffffffffffffffffffffffffffffffffff82613969565b6139b08683613969565b95508019841693508086168417925050509392505050565b60006139e36139de6139d98461277f565b61320b565b61277f565b9050919050565b6000819050919050565b6139fd836139c8565b613a11613a09826139ea565b848454613976565b825550505050565b600090565b613a26613a19565b613a318184846139f4565b505050565b5b81811015613a5557613a4a600082613a1e565b600181019050613a37565b5050565b601f821115613a9a57613a6b81613944565b613a7484613959565b81016020851015613a83578190505b613a97613a8f85613959565b830182613a36565b50505b505050565b600082821c905092915050565b6000613abd60001984600802613a9f565b1980831691505092915050565b6000613ad68383613aac565b9150826002028217905092915050565b613aef826127e2565b67ffffffffffffffff811115613b0857613b07612e7f565b5b613b1282546132b4565b613b1d828285613a59565b600060209050601f831160018114613b505760008415613b3e578287015190505b613b488582613aca565b865550613bb0565b601f198416613b5e86613944565b60005b82811015613b8657848901518255600182019150602085019450602081019050613b61565b86831015613ba35784890151613b9f601f891682613aac565b8355505b6001600288020188555050505b505050505050565b6000613bc38261277f565b91507fffffffffffffffffffffffffffffffffffffffffffffffffffffffffffffffff8203613bf557613bf4613458565b5b600182019050919050565b600060e082019050613c15600083018a612872565b8181036020830152613c278189612839565b90508181036040830152613c3b8188612839565b9050613c4a6060830187612872565b613c57608083018661288e565b613c6460a0830185612872565b613c7160c08301846128cf565b98975050505050505050565b7f4e487b7100000000000000000000000000000000000000000000000000000000600052602160045260246000fd5b7f496e76616c69642071756f72756d207479706500000000000000000000000000600082015250565b6000613ce26013836127ed565b9150613ced82613cac565b602082019050919050565b60006020820190508181036000830152613d1181613cd5565b9050919050565b7f496e76616c69642070726f706f73616c20494400000000000000000000000000600082015250565b6000613d4e6013836127ed565b9150613d5982613d18565b602082019050919050565b60006020820190508181036000830152613d7d81613d41565b9050919050565b7f43616e6e6f74207265676973746572207368617265686f6c646572732064757260008201527f696e6720766f74696e6720706572696f64000000000000000000000000000000602082015250565b6000613de06031836127ed565b9150613deb82613d84565b604082019050919050565b60006020820190508181036000830152613e0f81613dd3565b9050919050565b7f43616e6e6f74207570646174652073686172657320647572696e6720766f746960008201527f6e6720706572696f640000000000000000000000000000000000000000000000602082015250565b6000613e726029836127ed565b9150613e7d82613e16565b604082019050919050565b60006020820190508181036000830152613ea181613e65565b905091905056fea2646970667358221220b2050a64a4fec7c708d4b7efe41014d04bfc9996020ceb95dbdb17f4219cf24f64736f6c63430008140033",
  "linkReferences": {},
  "deployedLinkReferences": {}
}