{
  "_format": "hh-sol-artifact-1",
  "contractName": "VotingContract",
  "sourceName": "contracts/smartContract.sol",
  "abi": [
    {
      "inputs": [
        {
          "internalType": "address",
          "name": "_tokenAddress",
          "type": "address"
        }
      ],
      "stateMutability": "nonpayable",
      "type": "constructor"
    },
    {
      "anonymous": false,
      "inputs": [
        {
          "indexed": false,
          "internalType": "uint256",
          "name": "proposalId",
          "type": "uint256"
        },
        {
          "indexed": false,
          "internalType": "string",
          "name": "description",
          "type": "string"
        },
        {
          "indexed": false,
          "internalType": "uint256",
          "name": "votingEndTime",
          "type": "uint256"
        }
      ],
      "name": "ProposalCreated",
      "type": "event"
    },
    {
      "anonymous": false,
      "inputs": [
        {
          "indexed": false,
          "internalType": "address",
          "name": "voter",
          "type": "address"
        },
        {
          "indexed": false,
          "internalType": "uint256",
          "name": "rewardAmount",
          "type": "uint256"
        }
      ],
      "name": "RewardIssued",
      "type": "event"
    },
    {
      "anonymous": false,
      "inputs": [
        {
          "indexed": false,
          "internalType": "address",
          "name": "voter",
          "type": "address"
        },
        {
          "indexed": false,
          "internalType": "uint256",
          "name": "newShares",
          "type": "uint256"
        }
      ],
      "name": "SharesUpdated",
      "type": "event"
    },
    {
      "anonymous": false,
      "inputs": [
        {
          "indexed": false,
          "internalType": "uint256",
          "name": "proposalId",
          "type": "uint256"
        },
        {
          "indexed": false,
          "internalType": "address",
          "name": "voter",
          "type": "address"
        },
        {
          "indexed": false,
          "internalType": "uint256",
          "name": "weight",
          "type": "uint256"
        },
        {
          "indexed": false,
          "internalType": "bool",
          "name": "voteFor",
          "type": "bool"
        }
      ],
      "name": "VoteCast",
      "type": "event"
    },
    {
      "inputs": [
        {
          "internalType": "string",
          "name": "title",
          "type": "string"
        },
        {
          "internalType": "string",
          "name": "description",
          "type": "string"
        },
        {
          "internalType": "uint256",
          "name": "durationInMinutes",
          "type": "uint256"
        },
        {
          "internalType": "enum VotingContract.QuorumType",
          "name": "quorumType",
          "type": "uint8"
        }
      ],
      "name": "createProposal",
      "outputs": [],
      "stateMutability": "payable",
      "type": "function"
    },
    {
      "inputs": [
        {
          "internalType": "uint256",
          "name": "proposalId",
          "type": "uint256"
        }
      ],
      "name": "endVoting",
      "outputs": [],
      "stateMutability": "nonpayable",
      "type": "function"
    },
    {
      "inputs": [
        {
          "internalType": "uint256",
          "name": "proposalId",
          "type": "uint256"
        }
      ],
      "name": "getProposalOutcome",
      "outputs": [
        {
          "components": [
            {
              "internalType": "bool",
              "name": "passed",
              "type": "bool"
            },
            {
              "internalType": "uint256",
              "name": "votesFor",
              "type": "uint256"
            },
            {
              "internalType": "uint256",
              "name": "votesAgainst",
              "type": "uint256"
            }
          ],
          "internalType": "struct VotingContract.ProposalOutcome",
          "name": "",
          "type": "tuple"
        }
      ],
      "stateMutability": "view",
      "type": "function"
    },
    {
      "inputs": [],
      "name": "getProposalsCount",
      "outputs": [
        {
          "internalType": "uint256",
          "name": "",
          "type": "uint256"
        }
      ],
      "stateMutability": "view",
      "type": "function"
    },
    {
      "inputs": [
        {
          "internalType": "uint256",
          "name": "proposalId",
          "type": "uint256"
        }
      ],
      "name": "getVotingProgress",
      "outputs": [
        {
          "internalType": "uint256",
          "name": "progress",
          "type": "uint256"
        },
        {
          "internalType": "uint256",
          "name": "requiredQuorum",
          "type": "uint256"
        }
      ],
      "stateMutability": "view",
      "type": "function"
    },
    {
      "inputs": [],
      "name": "governanceToken",
      "outputs": [
        {
          "internalType": "contract GovernanceToken",
          "name": "",
          "type": "address"
        }
      ],
      "stateMutability": "view",
      "type": "function"
    },
    {
      "inputs": [
        {
          "internalType": "uint256",
          "name": "proposalId",
          "type": "uint256"
        }
      ],
      "name": "hasMetQuorum",
      "outputs": [
        {
          "internalType": "bool",
          "name": "",
          "type": "bool"
        }
      ],
      "stateMutability": "view",
      "type": "function"
    },
    {
      "inputs": [],
      "name": "isVotingPeriodActive",
      "outputs": [
        {
          "internalType": "bool",
          "name": "",
          "type": "bool"
        }
      ],
      "stateMutability": "view",
      "type": "function"
    },
    {
      "inputs": [],
      "name": "proposalCount",
      "outputs": [
        {
          "internalType": "uint256",
          "name": "",
          "type": "uint256"
        }
      ],
      "stateMutability": "view",
      "type": "function"
    },
    {
      "inputs": [
        {
          "internalType": "uint256",
          "name": "",
          "type": "uint256"
        }
      ],
      "name": "proposalOutcomes",
      "outputs": [
        {
          "internalType": "bool",
          "name": "passed",
          "type": "bool"
        },
        {
          "internalType": "uint256",
          "name": "votesFor",
          "type": "uint256"
        },
        {
          "internalType": "uint256",
          "name": "votesAgainst",
          "type": "uint256"
        }
      ],
      "stateMutability": "view",
      "type": "function"
    },
    {
      "inputs": [
        {
          "internalType": "uint256",
          "name": "",
          "type": "uint256"
        }
      ],
      "name": "proposals",
      "outputs": [
        {
          "internalType": "string",
          "name": "title",
          "type": "string"
        },
        {
          "internalType": "string",
          "name": "description",
          "type": "string"
        },
        {
          "internalType": "uint256",
          "name": "votesFor",
          "type": "uint256"
        },
        {
          "internalType": "uint256",
          "name": "votesAgainst",
          "type": "uint256"
        },
        {
          "internalType": "bool",
          "name": "active",
          "type": "bool"
        },
        {
          "internalType": "uint256",
          "name": "votingEndTime",
          "type": "uint256"
        },
        {
          "internalType": "uint256",
          "name": "totalVotesCast",
          "type": "uint256"
        },
        {
          "internalType": "enum VotingContract.QuorumType",
          "name": "quorumType",
          "type": "uint8"
        }
      ],
      "stateMutability": "view",
      "type": "function"
    },
    {
      "inputs": [
        {
          "internalType": "address",
          "name": "voter",
          "type": "address"
        },
        {
          "internalType": "uint256",
          "name": "shareCount",
          "type": "uint256"
        }
      ],
      "name": "registerShareholder",
      "outputs": [],
      "stateMutability": "nonpayable",
      "type": "function"
    },
    {
      "inputs": [
        {
          "internalType": "address",
          "name": "",
          "type": "address"
        }
      ],
      "name": "shares",
      "outputs": [
        {
          "internalType": "uint256",
          "name": "",
          "type": "uint256"
        }
      ],
      "stateMutability": "view",
      "type": "function"
    },
    {
      "inputs": [],
      "name": "totalShares",
      "outputs": [
        {
          "internalType": "uint256",
          "name": "",
          "type": "uint256"
        }
      ],
      "stateMutability": "view",
      "type": "function"
    },
    {
      "inputs": [
        {
          "internalType": "address",
          "name": "voter",
          "type": "address"
        },
        {
          "internalType": "uint256",
          "name": "newShares",
          "type": "uint256"
        }
      ],
      "name": "updateShares",
      "outputs": [],
      "stateMutability": "nonpayable",
      "type": "function"
    },
    {
      "inputs": [
        {
          "internalType": "uint256",
          "name": "proposalId",
          "type": "uint256"
        },
        {
          "internalType": "bool",
          "name": "voteFor",
          "type": "bool"
        }
      ],
      "name": "vote",
      "outputs": [],
      "stateMutability": "nonpayable",
      "type": "function"
    },
    {
      "inputs": [],
      "name": "votingEndTime",
      "outputs": [
        {
          "internalType": "uint256",
          "name": "",
          "type": "uint256"
        }
      ],
      "stateMutability": "view",
      "type": "function"
    },
    {
      "inputs": [
        {
          "internalType": "address",
          "name": "",
          "type": "address"
        },
        {
          "internalType": "uint256",
          "name": "",
          "type": "uint256"
        }
      ],
      "name": "votingHistory",
      "outputs": [
        {
          "internalType": "uint256",
          "name": "proposalId",
          "type": "uint256"
        },
        {
          "internalType": "bool",
          "name": "votedFor",
          "type": "bool"
        },
        {
          "internalType": "uint256",
          "name": "voteWeight",
          "type": "uint256"
        }
      ],
      "stateMutability": "view",
      "type": "function"
    }
  ],
  "bytecode": "0x608060405234801561001057600080fd5b506040516122bc3803806122bc833981810160405281019061003291906100dc565b80600860006101000a81548173ffffffffffffffffffffffffffffffffffffffff021916908373ffffffffffffffffffffffffffffffffffffffff16021790555050610109565b600080fd5b600073ffffffffffffffffffffffffffffffffffffffff82169050919050565b60006100a98261007e565b9050919050565b6100b98161009e565b81146100c457600080fd5b50565b6000815190506100d6816100b0565b92915050565b6000602082840312156100f2576100f1610079565b5b6000610100848285016100c7565b91505092915050565b6121a4806101186000396000f3fe6080604052600436106101095760003560e01c80639fcc5ce411610095578063ce7c2ac211610064578063ce7c2ac21461038c578063d09c34f2146103c9578063da35c66414610408578063e5d0821f14610433578063f96dae0a1461045c57610109565b80639fcc5ce4146102d0578063a9c0310d146102fb578063afafa0cf1461033a578063c9d27afe1461036357610109565b80636fdb6f7c116100dc5780636fdb6f7c146101d157806370f6e05d1461020e5780637a7c153b1461022a57806398e527d3146102675780639baf1c971461029257610109565b8063013cf08b1461010e5780631ea736e0146101525780633a98ef391461017d578063649f89a5146101a8575b600080fd5b34801561011a57600080fd5b5061013560048036038101906101309190611492565b610487565b6040516101499897969594939291906115f0565b60405180910390f35b34801561015e57600080fd5b506101676105f9565b604051610174919061167c565b60405180910390f35b34801561018957600080fd5b506101926105ff565b60405161019f919061167c565b60405180910390f35b3480156101b457600080fd5b506101cf60048036038101906101ca9190611492565b610605565b005b3480156101dd57600080fd5b506101f860048036038101906101f39190611492565b61085b565b60405161020591906116f7565b60405180910390f35b6102286004803603810190610223919061186c565b6108b7565b005b34801561023657600080fd5b50610251600480360381019061024c9190611492565b610ab5565b60405161025e919061190b565b60405180910390f35b34801561027357600080fd5b5061027c610c35565b604051610289919061167c565b60405180910390f35b34801561029e57600080fd5b506102b960048036038101906102b49190611492565b610c3f565b6040516102c7929190611926565b60405180910390f35b3480156102dc57600080fd5b506102e5610f5b565b6040516102f2919061190b565b60405180910390f35b34801561030757600080fd5b50610322600480360381019061031d9190611492565b610f6e565b6040516103319392919061194f565b60405180910390f35b34801561034657600080fd5b50610361600480360381019061035c91906119e4565b610fa5565b005b34801561036f57600080fd5b5061038a60048036038101906103859190611a50565b611055565b005b34801561039857600080fd5b506103b360048036038101906103ae9190611a90565b6112f7565b6040516103c0919061167c565b60405180910390f35b3480156103d557600080fd5b506103f060048036038101906103eb91906119e4565b61130f565b6040516103ff93929190611abd565b60405180910390f35b34801561041457600080fd5b5061041d611363565b60405161042a919061167c565b60405180910390f35b34801561043f57600080fd5b5061045a600480360381019061045591906119e4565b611369565b005b34801561046857600080fd5b506104716113e9565b60405161047e9190611b53565b60405180910390f35b60016020528060005260406000206000915090508060000180546104aa90611b9d565b80601f01602080910402602001604051908101604052809291908181526020018280546104d690611b9d565b80156105235780601f106104f857610100808354040283529160200191610523565b820191906000526020600020905b81548152906001019060200180831161050657829003601f168201915b50505050509080600101805461053890611b9d565b80601f016020809104026020016040519081016040528092919081815260200182805461056490611b9d565b80156105b15780601f10610586576101008083540402835291602001916105b1565b820191906000526020600020905b81548152906001019060200180831161059457829003601f168201915b5050505050908060020154908060030154908060040160009054906101000a900460ff16908060050154908060060154908060070160009054906101000a900460ff16905088565b60075481565b60055481565b60006001600083815260200190815260200160002060040160006101000a81548160ff0219169083151502179055506000805b600454811015610681576001600082815260200190815260200160002060040160009054906101000a900460ff16156106745760019150610681565b8080600101915050610638565b50600060016000848152602001908152602001600020600301546001600085815260200190815260200160002060020154119050604051806060016040528082151581526020016001600086815260200190815260200160002060020154815260200160016000868152602001908152602001600020600301548152506003600085815260200190815260200160002060008201518160000160006101000a81548160ff0219169083151502179055506020820151816001015560408201518160020155905050600160008481526020019081526020016000206005015442118015610773575061077183610ab5565b155b1561083c5760006001600085815260200190815260200160002060040160006101000a81548160ff02191690831515021790555060405180606001604052806000151581526020016001600086815260200190815260200160002060020154815260200160016000868152602001908152602001600020600301548152506003600085815260200190815260200160002060008201518160000160006101000a81548160ff02191690831515021790555060208201518160010155604082015181600201559050505b81600660006101000a81548160ff021916908315150217905550505050565b610863611425565b600360008381526020019081526020016000206040518060600160405290816000820160009054906101000a900460ff16151515158152602001600182015481526020016002820154815250509050919050565b600034116108fa576040517f08c379a00000000000000000000000000000000000000000000000000000000081526004016108f190611c40565b60405180910390fd5b6040518061010001604052808581526020018481526020016000815260200160008152602001600115158152602001603c846109369190611c8f565b426109419190611cd1565b8152602001600081526020018260038111156109605761095f611579565b5b815250600160006004548152602001908152602001600020600082015181600001908161098d9190611ea7565b5060208201518160010190816109a39190611ea7565b50604082015181600201556060820151816003015560808201518160040160006101000a81548160ff02191690831515021790555060a0820151816005015560c0820151816006015560e08201518160070160006101000a81548160ff02191690836003811115610a1757610a16611579565b5b02179055509050506001600660006101000a81548160ff021916908315150217905550603c82610a479190611c8f565b42610a529190611cd1565b6007819055507ff5dc0da9afa6d080780a49fd8c680f03d2ddf3c067cd6d0c85360c096644d2d360045484600754604051610a8f93929190611f79565b60405180910390a160046000815480929190610aaa90611fb7565b919050555050505050565b6000806001600084815260200190815260200160002090506000806003811115610ae257610ae1611579565b5b8260070160009054906101000a900460ff166003811115610b0657610b05611579565b5b03610b21576002600554610b1a919061202e565b9050610c24565b60016003811115610b3557610b34611579565b5b8260070160009054906101000a900460ff166003811115610b5957610b58611579565b5b03610b805760036002600554610b6f9190611c8f565b610b79919061202e565b9050610c23565b60026003811115610b9457610b93611579565b5b8260070160009054906101000a900460ff166003811115610bb857610bb7611579565b5b03610bdf5760046003600554610bce9190611c8f565b610bd8919061202e565b9050610c22565b600380811115610bf257610bf1611579565b5b8260070160009054906101000a900460ff166003811115610c1657610c15611579565b5b03610c215760055490505b5b5b5b808260020154101592505050919050565b6000600454905090565b60008060006001600085815260200190815260200160002060405180610100016040529081600082018054610c7390611b9d565b80601f0160208091040260200160405190810160405280929190818152602001828054610c9f90611b9d565b8015610cec5780601f10610cc157610100808354040283529160200191610cec565b820191906000526020600020905b815481529060010190602001808311610ccf57829003601f168201915b50505050508152602001600182018054610d0590611b9d565b80601f0160208091040260200160405190810160405280929190818152602001828054610d3190611b9d565b8015610d7e5780601f10610d5357610100808354040283529160200191610d7e565b820191906000526020600020905b815481529060010190602001808311610d6157829003601f168201915b5050505050815260200160028201548152602001600382015481526020016004820160009054906101000a900460ff1615151515815260200160058201548152602001600682015481526020016007820160009054906101000a900460ff166003811115610def57610dee611579565b5b6003811115610e0157610e00611579565b5b81525050905060008160c0015190506000600554606483610e229190611c8f565b610e2c919061202e565b905060006003811115610e4257610e41611579565b5b8360e001516003811115610e5957610e58611579565b5b03610e74576002600554610e6d919061202e565b9350610f50565b60016003811115610e8857610e87611579565b5b8360e001516003811115610e9f57610e9e611579565b5b03610ec65760036002600554610eb59190611c8f565b610ebf919061202e565b9350610f4f565b60026003811115610eda57610ed9611579565b5b8360e001516003811115610ef157610ef0611579565b5b03610f185760046003600554610f079190611c8f565b610f11919061202e565b9350610f4e565b600380811115610f2b57610f2a611579565b5b8360e001516003811115610f4257610f41611579565b5b03610f4d5760055493505b5b5b5b809450505050915091565b600660009054906101000a900460ff1681565b60036020528060005260406000206000915090508060000160009054906101000a900460ff16908060010154908060020154905083565b600660009054906101000a900460ff1615610ff5576040517f08c379a0000000000000000000000000000000000000000000000000000000008152600401610fec906120d1565b60405180910390fd5b806000808473ffffffffffffffffffffffffffffffffffffffff1673ffffffffffffffffffffffffffffffffffffffff16815260200190815260200160002081905550806005600082825461104a9190611cd1565b925050819055505050565b60006005546127106000803373ffffffffffffffffffffffffffffffffffffffff1673ffffffffffffffffffffffffffffffffffffffff168152602001908152602001600020546110a69190611c8f565b6110b0919061202e565b905081156110ea57806001600085815260200190815260200160002060020160008282546110de9190611cd1565b92505081905550611118565b806001600085815260200190815260200160002060030160008282546111109190611cd1565b925050819055505b8060016000858152602001908152602001600020600601600082825461113e9190611cd1565b92505081905550600260003373ffffffffffffffffffffffffffffffffffffffff1673ffffffffffffffffffffffffffffffffffffffff168152602001908152602001600020604051806060016040528085815260200184151581526020018381525090806001815401808255809150506001900390600052602060002090600302016000909190919091506000820151816000015560208201518160010160006101000a81548160ff021916908315150217905550604082015181600201555050600061120b8261140f565b9050600860009054906101000a900473ffffffffffffffffffffffffffffffffffffffff1673ffffffffffffffffffffffffffffffffffffffff166340c10f1933836040518363ffffffff1660e01b815260040161126a929190612100565b600060405180830381600087803b15801561128457600080fd5b505af1158015611298573d6000803e3d6000fd5b505050507fb898e75d5aac8de2f407e4a683c8d909e832d1e371e3bff0fa3ed934e88d9562843384866040516112d19493929190612129565b60405180910390a16112e284610ab5565b156112f1576112f084610605565b5b50505050565b60006020528060005260406000206000915090505481565b6002602052816000526040600020818154811061132b57600080fd5b9060005260206000209060030201600091509150508060000154908060010160009054906101000a900460ff16908060020154905083565b60045481565b806000808473ffffffffffffffffffffffffffffffffffffffff1673ffffffffffffffffffffffffffffffffffffffff168152602001908152602001600020819055507fe6382c9ed5c0c33bb05042f73cf6cbe9cb25639f9a711e094ee563bc9cb80e2c82826040516113dd929190612100565b60405180910390a15050565b600860009054906101000a900473ffffffffffffffffffffffffffffffffffffffff1681565b600060648261141e919061202e565b9050919050565b604051806060016040528060001515815260200160008152602001600081525090565b6000604051905090565b600080fd5b600080fd5b6000819050919050565b61146f8161145c565b811461147a57600080fd5b50565b60008135905061148c81611466565b92915050565b6000602082840312156114a8576114a7611452565b5b60006114b68482850161147d565b91505092915050565b600081519050919050565b600082825260208201905092915050565b60005b838110156114f95780820151818401526020810190506114de565b60008484015250505050565b6000601f19601f8301169050919050565b6000611521826114bf565b61152b81856114ca565b935061153b8185602086016114db565b61154481611505565b840191505092915050565b6115588161145c565b82525050565b60008115159050919050565b6115738161155e565b82525050565b7f4e487b7100000000000000000000000000000000000000000000000000000000600052602160045260246000fd5b600481106115b9576115b8611579565b5b50565b60008190506115ca826115a8565b919050565b60006115da826115bc565b9050919050565b6115ea816115cf565b82525050565b600061010082019050818103600083015261160b818b611516565b9050818103602083015261161f818a611516565b905061162e604083018961154f565b61163b606083018861154f565b611648608083018761156a565b61165560a083018661154f565b61166260c083018561154f565b61166f60e08301846115e1565b9998505050505050505050565b6000602082019050611691600083018461154f565b92915050565b6116a08161155e565b82525050565b6116af8161145c565b82525050565b6060820160008201516116cb6000850182611697565b5060208201516116de60208501826116a6565b5060408201516116f160408501826116a6565b50505050565b600060608201905061170c60008301846116b5565b92915050565b600080fd5b600080fd5b7f4e487b7100000000000000000000000000000000000000000000000000000000600052604160045260246000fd5b61175482611505565b810181811067ffffffffffffffff821117156117735761177261171c565b5b80604052505050565b6000611786611448565b9050611792828261174b565b919050565b600067ffffffffffffffff8211156117b2576117b161171c565b5b6117bb82611505565b9050602081019050919050565b82818337600083830152505050565b60006117ea6117e584611797565b61177c565b90508281526020810184848401111561180657611805611717565b5b6118118482856117c8565b509392505050565b600082601f83011261182e5761182d611712565b5b813561183e8482602086016117d7565b91505092915050565b6004811061185457600080fd5b50565b60008135905061186681611847565b92915050565b6000806000806080858703121561188657611885611452565b5b600085013567ffffffffffffffff8111156118a4576118a3611457565b5b6118b087828801611819565b945050602085013567ffffffffffffffff8111156118d1576118d0611457565b5b6118dd87828801611819565b93505060406118ee8782880161147d565b92505060606118ff87828801611857565b91505092959194509250565b6000602082019050611920600083018461156a565b92915050565b600060408201905061193b600083018561154f565b611948602083018461154f565b9392505050565b6000606082019050611964600083018661156a565b611971602083018561154f565b61197e604083018461154f565b949350505050565b600073ffffffffffffffffffffffffffffffffffffffff82169050919050565b60006119b182611986565b9050919050565b6119c1816119a6565b81146119cc57600080fd5b50565b6000813590506119de816119b8565b92915050565b600080604083850312156119fb576119fa611452565b5b6000611a09858286016119cf565b9250506020611a1a8582860161147d565b9150509250929050565b611a2d8161155e565b8114611a3857600080fd5b50565b600081359050611a4a81611a24565b92915050565b60008060408385031215611a6757611a66611452565b5b6000611a758582860161147d565b9250506020611a8685828601611a3b565b9150509250929050565b600060208284031215611aa657611aa5611452565b5b6000611ab4848285016119cf565b91505092915050565b6000606082019050611ad2600083018661154f565b611adf602083018561156a565b611aec604083018461154f565b949350505050565b6000819050919050565b6000611b19611b14611b0f84611986565b611af4565b611986565b9050919050565b6000611b2b82611afe565b9050919050565b6000611b3d82611b20565b9050919050565b611b4d81611b32565b82525050565b6000602082019050611b686000830184611b44565b92915050565b7f4e487b7100000000000000000000000000000000000000000000000000000000600052602260045260246000fd5b60006002820490506001821680611bb557607f821691505b602082108103611bc857611bc7611b6e565b5b50919050565b7f45544820726571756972656420666f72206372656174696e672070726f706f7360008201527f616c000000000000000000000000000000000000000000000000000000000000602082015250565b6000611c2a6022836114ca565b9150611c3582611bce565b604082019050919050565b60006020820190508181036000830152611c5981611c1d565b9050919050565b7f4e487b7100000000000000000000000000000000000000000000000000000000600052601160045260246000fd5b6000611c9a8261145c565b9150611ca58361145c565b9250828202611cb38161145c565b91508282048414831517611cca57611cc9611c60565b5b5092915050565b6000611cdc8261145c565b9150611ce78361145c565b9250828201905080821115611cff57611cfe611c60565b5b92915050565b60008190508160005260206000209050919050565b60006020601f8301049050919050565b600082821b905092915050565b600060088302611d677fffffffffffffffffffffffffffffffffffffffffffffffffffffffffffffffff82611d2a565b611d718683611d2a565b95508019841693508086168417925050509392505050565b6000611da4611d9f611d9a8461145c565b611af4565b61145c565b9050919050565b6000819050919050565b611dbe83611d89565b611dd2611dca82611dab565b848454611d37565b825550505050565b600090565b611de7611dda565b611df2818484611db5565b505050565b5b81811015611e1657611e0b600082611ddf565b600181019050611df8565b5050565b601f821115611e5b57611e2c81611d05565b611e3584611d1a565b81016020851015611e44578190505b611e58611e5085611d1a565b830182611df7565b50505b505050565b600082821c905092915050565b6000611e7e60001984600802611e60565b1980831691505092915050565b6000611e978383611e6d565b9150826002028217905092915050565b611eb0826114bf565b67ffffffffffffffff811115611ec957611ec861171c565b5b611ed38254611b9d565b611ede828285611e1a565b600060209050601f831160018114611f115760008415611eff578287015190505b611f098582611e8b565b865550611f71565b601f198416611f1f86611d05565b60005b82811015611f4757848901518255600182019150602085019450602081019050611f22565b86831015611f645784890151611f60601f891682611e6d565b8355505b6001600288020188555050505b505050505050565b6000606082019050611f8e600083018661154f565b8181036020830152611fa08185611516565b9050611faf604083018461154f565b949350505050565b6000611fc28261145c565b91507fffffffffffffffffffffffffffffffffffffffffffffffffffffffffffffffff8203611ff457611ff3611c60565b5b600182019050919050565b7f4e487b7100000000000000000000000000000000000000000000000000000000600052601260045260246000fd5b60006120398261145c565b91506120448361145c565b92508261205457612053611fff565b5b828204905092915050565b7f4865792069747320616e2061637469766520766f74696e6720706572696f642c60008201527f20796f752063616e6e6f7420766f7465206e6f772e0000000000000000000000602082015250565b60006120bb6035836114ca565b91506120c68261205f565b604082019050919050565b600060208201905081810360008301526120ea816120ae565b9050919050565b6120fa816119a6565b82525050565b600060408201905061211560008301856120f1565b612122602083018461154f565b9392505050565b600060808201905061213e600083018761154f565b61214b60208301866120f1565b612158604083018561154f565b612165606083018461156a565b9594505050505056fea26469706673582212208bb667bad7e3a399719c68b83715779fa60fbece458d7fd9ef4eb63fea726fd664736f6c634300081a0033",
  "linkReferences": {},
  "deployedLinkReferences": {}
}