{
  "_format": "hh-sol-artifact-1",
  "contractName": "VotingContract",
  "sourceName": "contracts/smartContract.sol",
  "abi": [
    {
      "inputs": [
        {
          "internalType": "address[]",
          "name": "initialAdmins",
          "type": "address[]"
        },
        {
          "internalType": "address",
          "name": "_tokenAddress",
          "type": "address"
        }
      ],
      "stateMutability": "payable",
      "type": "constructor"
    },
    {
      "anonymous": false,
      "inputs": [
        {
          "indexed": false,
          "internalType": "uint256",
          "name": "proposalId",
          "type": "uint256"
        },
        {
          "indexed": false,
          "internalType": "string",
          "name": "title",
          "type": "string"
        },
        {
          "indexed": false,
          "internalType": "string",
          "name": "description",
          "type": "string"
        },
        {
          "indexed": false,
          "internalType": "uint8",
          "name": "durationInMinutes",
          "type": "uint8"
        },
        {
          "indexed": false,
          "internalType": "uint8",
          "name": "quorumType",
          "type": "uint8"
        },
        {
          "indexed": false,
          "internalType": "uint256",
          "name": "endTime",
          "type": "uint256"
        },
        {
          "indexed": false,
          "internalType": "address",
          "name": "proposer",
          "type": "address"
        }
      ],
      "name": "ProposalCreated",
      "type": "event"
    },
    {
      "anonymous": false,
      "inputs": [
        {
          "indexed": true,
          "internalType": "uint256",
          "name": "proposalId",
          "type": "uint256"
        }
      ],
      "name": "ProposalDeleted",
      "type": "event"
    },
    {
      "anonymous": false,
      "inputs": [
        {
          "indexed": false,
          "internalType": "address",
          "name": "voter",
          "type": "address"
        },
        {
          "indexed": false,
          "internalType": "uint256",
          "name": "rewardAmount",
          "type": "uint256"
        }
      ],
      "name": "RewardIssued",
      "type": "event"
    },
    {
      "anonymous": false,
      "inputs": [
        {
          "indexed": false,
          "internalType": "address",
          "name": "voter",
          "type": "address"
        },
        {
          "indexed": false,
          "internalType": "uint256",
          "name": "newShares",
          "type": "uint256"
        }
      ],
      "name": "SharesUpdated",
      "type": "event"
    },
    {
      "anonymous": false,
      "inputs": [
        {
          "indexed": false,
          "internalType": "uint256",
          "name": "proposalId",
          "type": "uint256"
        },
        {
          "indexed": false,
          "internalType": "address",
          "name": "voter",
          "type": "address"
        },
        {
          "indexed": false,
          "internalType": "uint256",
          "name": "weight",
          "type": "uint256"
        },
        {
          "indexed": false,
          "internalType": "bool",
          "name": "voteFor",
          "type": "bool"
        }
      ],
      "name": "VoteCast",
      "type": "event"
    },
    {
      "stateMutability": "payable",
      "type": "fallback"
    },
    {
      "inputs": [
        {
          "internalType": "address",
          "name": "newAdmin",
          "type": "address"
        }
      ],
      "name": "addAdmin",
      "outputs": [],
      "stateMutability": "nonpayable",
      "type": "function"
    },
    {
      "inputs": [
        {
          "internalType": "uint256",
          "name": "",
          "type": "uint256"
        }
      ],
      "name": "adminAddresses",
      "outputs": [
        {
          "internalType": "address",
          "name": "",
          "type": "address"
        }
      ],
      "stateMutability": "view",
      "type": "function"
    },
    {
      "inputs": [
        {
          "internalType": "address",
          "name": "",
          "type": "address"
        }
      ],
      "name": "admins",
      "outputs": [
        {
          "internalType": "bool",
          "name": "",
          "type": "bool"
        }
      ],
      "stateMutability": "view",
      "type": "function"
    },
    {
      "inputs": [
        {
          "internalType": "uint256",
          "name": "proposalId",
          "type": "uint256"
        },
        {
          "internalType": "bool",
          "name": "voteFor",
          "type": "bool"
        }
      ],
      "name": "castVote",
      "outputs": [],
      "stateMutability": "nonpayable",
      "type": "function"
    },
    {
      "inputs": [
        {
          "internalType": "string",
          "name": "title",
          "type": "string"
        },
        {
          "internalType": "string",
          "name": "description",
          "type": "string"
        },
        {
          "internalType": "uint8",
          "name": "durationInMinutes",
          "type": "uint8"
        },
        {
          "internalType": "uint8",
          "name": "quorumType",
          "type": "uint8"
        }
      ],
      "name": "createProposal",
      "outputs": [],
      "stateMutability": "payable",
      "type": "function"
    },
    {
      "inputs": [
        {
          "internalType": "uint8",
          "name": "proposalId",
          "type": "uint8"
        }
      ],
      "name": "deleteProposal",
      "outputs": [],
      "stateMutability": "nonpayable",
      "type": "function"
    },
    {
      "inputs": [],
      "name": "getAdmins",
      "outputs": [
        {
          "internalType": "address[]",
          "name": "",
          "type": "address[]"
        }
      ],
      "stateMutability": "view",
      "type": "function"
    },
    {
      "inputs": [
        {
          "internalType": "uint256",
          "name": "proposalId",
          "type": "uint256"
        }
      ],
      "name": "getProposalOutcome",
      "outputs": [
        {
          "components": [
            {
              "internalType": "bool",
              "name": "passed",
              "type": "bool"
            },
            {
              "internalType": "uint256",
              "name": "votesFor",
              "type": "uint256"
            },
            {
              "internalType": "uint256",
              "name": "votesAgainst",
              "type": "uint256"
            }
          ],
          "internalType": "struct VotingContract.ProposalOutcome",
          "name": "",
          "type": "tuple"
        }
      ],
      "stateMutability": "view",
      "type": "function"
    },
    {
      "inputs": [
        {
          "internalType": "uint256",
          "name": "proposalId",
          "type": "uint256"
        }
      ],
      "name": "getProposalVotes",
      "outputs": [
        {
          "internalType": "uint256",
          "name": "votesFor",
          "type": "uint256"
        },
        {
          "internalType": "uint256",
          "name": "votesAgainst",
          "type": "uint256"
        },
        {
          "internalType": "bool",
          "name": "active",
          "type": "bool"
        }
      ],
      "stateMutability": "view",
      "type": "function"
    },
    {
      "inputs": [],
      "name": "getProposals",
      "outputs": [
        {
          "components": [
            {
              "internalType": "string",
              "name": "title",
              "type": "string"
            },
            {
              "internalType": "string",
              "name": "description",
              "type": "string"
            },
            {
              "internalType": "uint8",
              "name": "durationInMinutes",
              "type": "uint8"
            },
            {
              "internalType": "uint8",
              "name": "quorumType",
              "type": "uint8"
            },
            {
              "internalType": "uint256",
              "name": "endTime",
              "type": "uint256"
            },
            {
              "internalType": "address",
              "name": "proposer",
              "type": "address"
            },
            {
              "internalType": "bool",
              "name": "active",
              "type": "bool"
            },
            {
              "internalType": "uint256",
              "name": "votesFor",
              "type": "uint256"
            },
            {
              "internalType": "uint256",
              "name": "votesAgainst",
              "type": "uint256"
            }
          ],
          "internalType": "struct VotingContract.Proposal[]",
          "name": "",
          "type": "tuple[]"
        }
      ],
      "stateMutability": "view",
      "type": "function"
    },
    {
      "inputs": [],
      "name": "getProposalsCount",
      "outputs": [
        {
          "internalType": "uint8",
          "name": "",
          "type": "uint8"
        }
      ],
      "stateMutability": "view",
      "type": "function"
    },
    {
      "inputs": [
        {
          "internalType": "address",
          "name": "account",
          "type": "address"
        }
      ],
      "name": "getTokens",
      "outputs": [
        {
          "internalType": "uint256",
          "name": "",
          "type": "uint256"
        }
      ],
      "stateMutability": "view",
      "type": "function"
    },
    {
      "inputs": [
        {
          "internalType": "address",
          "name": "user",
          "type": "address"
        }
      ],
      "name": "isAdmin",
      "outputs": [
        {
          "internalType": "bool",
          "name": "",
          "type": "bool"
        }
      ],
      "stateMutability": "view",
      "type": "function"
    },
    {
      "inputs": [
        {
          "internalType": "uint256",
          "name": "proposalId",
          "type": "uint256"
        }
      ],
      "name": "isProposalActive",
      "outputs": [
        {
          "internalType": "bool",
          "name": "",
          "type": "bool"
        }
      ],
      "stateMutability": "view",
      "type": "function"
    },
    {
      "inputs": [],
      "name": "isVotingPeriodActive",
      "outputs": [
        {
          "internalType": "bool",
          "name": "",
          "type": "bool"
        }
      ],
      "stateMutability": "view",
      "type": "function"
    },
    {
      "inputs": [],
      "name": "proposalCount",
      "outputs": [
        {
          "internalType": "uint8",
          "name": "",
          "type": "uint8"
        }
      ],
      "stateMutability": "view",
      "type": "function"
    },
    {
      "inputs": [
        {
          "internalType": "uint256",
          "name": "",
          "type": "uint256"
        }
      ],
      "name": "proposalOutcomes",
      "outputs": [
        {
          "internalType": "bool",
          "name": "passed",
          "type": "bool"
        },
        {
          "internalType": "uint256",
          "name": "votesFor",
          "type": "uint256"
        },
        {
          "internalType": "uint256",
          "name": "votesAgainst",
          "type": "uint256"
        }
      ],
      "stateMutability": "view",
      "type": "function"
    },
    {
      "inputs": [
        {
          "internalType": "uint256",
          "name": "",
          "type": "uint256"
        }
      ],
      "name": "proposals",
      "outputs": [
        {
          "internalType": "string",
          "name": "title",
          "type": "string"
        },
        {
          "internalType": "string",
          "name": "description",
          "type": "string"
        },
        {
          "internalType": "uint8",
          "name": "durationInMinutes",
          "type": "uint8"
        },
        {
          "internalType": "uint8",
          "name": "quorumType",
          "type": "uint8"
        },
        {
          "internalType": "uint256",
          "name": "endTime",
          "type": "uint256"
        },
        {
          "internalType": "address",
          "name": "proposer",
          "type": "address"
        },
        {
          "internalType": "bool",
          "name": "active",
          "type": "bool"
        },
        {
          "internalType": "uint256",
          "name": "votesFor",
          "type": "uint256"
        },
        {
          "internalType": "uint256",
          "name": "votesAgainst",
          "type": "uint256"
        }
      ],
      "stateMutability": "view",
      "type": "function"
    },
    {
      "inputs": [
        {
          "internalType": "address",
          "name": "account",
          "type": "address"
        },
        {
          "internalType": "uint256",
          "name": "_shares",
          "type": "uint256"
        }
      ],
      "name": "registerShareholder",
      "outputs": [],
      "stateMutability": "nonpayable",
      "type": "function"
    },
    {
      "inputs": [
        {
          "internalType": "address",
          "name": "admin",
          "type": "address"
        }
      ],
      "name": "removeAdmin",
      "outputs": [],
      "stateMutability": "nonpayable",
      "type": "function"
    },
    {
      "inputs": [
        {
          "internalType": "address",
          "name": "",
          "type": "address"
        }
      ],
      "name": "shares",
      "outputs": [
        {
          "internalType": "uint256",
          "name": "",
          "type": "uint256"
        }
      ],
      "stateMutability": "view",
      "type": "function"
    },
    {
      "inputs": [
        {
          "internalType": "address",
          "name": "",
          "type": "address"
        }
      ],
      "name": "tokens",
      "outputs": [
        {
          "internalType": "uint256",
          "name": "",
          "type": "uint256"
        }
      ],
      "stateMutability": "view",
      "type": "function"
    },
    {
      "inputs": [
        {
          "internalType": "address",
          "name": "voter",
          "type": "address"
        },
        {
          "internalType": "uint256",
          "name": "newShares",
          "type": "uint256"
        }
      ],
      "name": "updateShares",
      "outputs": [],
      "stateMutability": "nonpayable",
      "type": "function"
    },
    {
      "inputs": [
        {
          "internalType": "uint256",
          "name": "",
          "type": "uint256"
        },
        {
          "internalType": "address",
          "name": "",
          "type": "address"
        }
      ],
      "name": "voted",
      "outputs": [
        {
          "internalType": "bool",
          "name": "",
          "type": "bool"
        }
      ],
      "stateMutability": "view",
      "type": "function"
    },
    {
      "inputs": [],
      "name": "votingEndTime",
      "outputs": [
        {
          "internalType": "uint256",
          "name": "",
          "type": "uint256"
        }
      ],
      "stateMutability": "view",
      "type": "function"
    },
    {
      "inputs": [
        {
          "internalType": "address",
          "name": "",
          "type": "address"
        },
        {
          "internalType": "uint256",
          "name": "",
          "type": "uint256"
        }
      ],
      "name": "votingHistory",
      "outputs": [
        {
          "internalType": "uint256",
          "name": "proposalId",
          "type": "uint256"
        },
        {
          "internalType": "bool",
          "name": "votedFor",
          "type": "bool"
        },
        {
          "internalType": "uint256",
          "name": "voteWeight",
          "type": "uint256"
        }
      ],
      "stateMutability": "view",
      "type": "function"
    },
    {
      "stateMutability": "payable",
      "type": "receive"
    }
  ],
  "bytecode": "0x60806040526040516131cf3803806131cf833981810160405281019061002591906103fe565b670de0b6b3a7640000341015610070576040517f08c379a0000000000000000000000000000000000000000000000000000000008152600401610067906104dd565b60405180910390fd5b60008251116100b4576040517f08c379a00000000000000000000000000000000000000000000000000000000081526004016100ab90610549565b60405180910390fd5b600073ffffffffffffffffffffffffffffffffffffffff168173ffffffffffffffffffffffffffffffffffffffff1603610123576040517f08c379a000000000000000000000000000000000000000000000000000000000815260040161011a906105b5565b60405180910390fd5b60005b825181101561022b57600160046000858481518110610148576101476105d5565b5b602002602001015173ffffffffffffffffffffffffffffffffffffffff1673ffffffffffffffffffffffffffffffffffffffff16815260200190815260200160002060006101000a81548160ff02191690831515021790555060068382815181106101b6576101b56105d5565b5b60200260200101519080600181540180825580915050600190039060005260206000200160009091909190916101000a81548173ffffffffffffffffffffffffffffffffffffffff021916908373ffffffffffffffffffffffffffffffffffffffff1602179055508080600101915050610126565b505050610604565b6000604051905090565b600080fd5b600080fd5b600080fd5b6000601f19601f8301169050919050565b7f4e487b7100000000000000000000000000000000000000000000000000000000600052604160045260246000fd5b6102958261024c565b810181811067ffffffffffffffff821117156102b4576102b361025d565b5b80604052505050565b60006102c7610233565b90506102d3828261028c565b919050565b600067ffffffffffffffff8211156102f3576102f261025d565b5b602082029050602081019050919050565b600080fd5b600073ffffffffffffffffffffffffffffffffffffffff82169050919050565b600061033482610309565b9050919050565b61034481610329565b811461034f57600080fd5b50565b6000815190506103618161033b565b92915050565b600061037a610375846102d8565b6102bd565b9050808382526020820190506020840283018581111561039d5761039c610304565b5b835b818110156103c657806103b28882610352565b84526020840193505060208101905061039f565b5050509392505050565b600082601f8301126103e5576103e4610247565b5b81516103f5848260208601610367565b91505092915050565b600080604083850312156104155761041461023d565b5b600083015167ffffffffffffffff81111561043357610432610242565b5b61043f858286016103d0565b925050602061045085828601610352565b9150509250929050565b600082825260208201905092915050565b7f596f75206d7573742073656e64206174206c6561737420312045544820746f2060008201527f6465706c6f792074686520636f6e747261637400000000000000000000000000602082015250565b60006104c760338361045a565b91506104d28261046b565b604082019050919050565b600060208201905081810360008301526104f6816104ba565b9050919050565b7f496e697469616c2061646d696e73207265717569726564000000000000000000600082015250565b600061053360178361045a565b915061053e826104fd565b602082019050919050565b6000602082019050818103600083015261056281610526565b9050919050565b7f496e76616c696420746f6b656e20616464726573730000000000000000000000600082015250565b600061059f60158361045a565b91506105aa82610569565b602082019050919050565b600060208201905081810360008301526105ce81610592565b9050919050565b7f4e487b7100000000000000000000000000000000000000000000000000000000600052603260045260246000fd5b612bbc806106136000396000f3fe6080604052600436106101855760003560e01c80636fdb6f7c116100d1578063ba44eecf1161008a578063d70b8e7e11610064578063d70b8e7e1461061c578063da35c66414610638578063e486033914610663578063e5d0821f146106a05761018c565b8063ba44eecf14610563578063ce7c2ac2146105a0578063d09c34f2146105dd5761018c565b80636fdb6f7c1461043f578063704802751461047c57806398e527d3146104a55780639fcc5ce4146104d0578063a9c0310d146104fb578063afafa0cf1461053a5761018c565b806331ae450b1161013e578063450efe2111610118578063450efe211461035b57806347c66140146103985780635277b4ae146103d757806362564c48146104145761018c565b806331ae450b146102ca57806334bdcdd7146102f5578063429b62e51461031e5761018c565b8063013cf08b1461018e57806315373e3d146101d3578063164b3d2f146101fc5780631785f53c146102395780631ea736e01461026257806324d7806c1461028d5761018c565b3661018c57005b005b34801561019a57600080fd5b506101b560048036038101906101b091906119c5565b6106c9565b6040516101ca99989796959493929190611b09565b60405180910390f35b3480156101df57600080fd5b506101fa60048036038101906101f59190611bd0565b61087e565b005b34801561020857600080fd5b50610223600480360381019061021e91906119c5565b610bfe565b6040516102309190611c10565b60405180910390f35b34801561024557600080fd5b50610260600480360381019061025b9190611c57565b610c3a565b005b34801561026e57600080fd5b50610277610d21565b6040516102849190611c84565b60405180910390f35b34801561029957600080fd5b506102b460048036038101906102af9190611c57565b610d27565b6040516102c19190611c10565b60405180910390f35b3480156102d657600080fd5b506102df610d7d565b6040516102ec9190611d5d565b60405180910390f35b34801561030157600080fd5b5061031c60048036038101906103179190611dab565b610e0b565b005b34801561032a57600080fd5b5061034560048036038101906103409190611c57565b610fca565b6040516103529190611c10565b60405180910390f35b34801561036757600080fd5b50610382600480360381019061037d9190611c57565b610fea565b60405161038f9190611c84565b60405180910390f35b3480156103a457600080fd5b506103bf60048036038101906103ba91906119c5565b611033565b6040516103ce93929190611dd8565b60405180910390f35b3480156103e357600080fd5b506103fe60048036038101906103f99190611e0f565b6110cf565b60405161040b9190611c10565b60405180910390f35b34801561042057600080fd5b506104296110fe565b6040516104369190612054565b60405180910390f35b34801561044b57600080fd5b50610466600480360381019061046191906119c5565b61134b565b60405161047391906120b8565b60405180910390f35b34801561048857600080fd5b506104a3600480360381019061049e9190611c57565b6113a7565b005b3480156104b157600080fd5b506104ba61148e565b6040516104c791906120d3565b60405180910390f35b3480156104dc57600080fd5b506104e56114a5565b6040516104f29190611c10565b60405180910390f35b34801561050757600080fd5b50610522600480360381019061051d91906119c5565b6114b8565b604051610531939291906120ee565b60405180910390f35b34801561054657600080fd5b50610561600480360381019061055c9190612125565b6114ef565b005b34801561056f57600080fd5b5061058a600480360381019061058591906119c5565b61157a565b6040516105979190612165565b60405180910390f35b3480156105ac57600080fd5b506105c760048036038101906105c29190611c57565b6115b9565b6040516105d49190611c84565b60405180910390f35b3480156105e957600080fd5b5061060460048036038101906105ff9190612125565b6115d1565b60405161061393929190612180565b60405180910390f35b610636600480360381019061063191906122ec565b611625565b005b34801561064457600080fd5b5061064d6118ad565b60405161065a91906120d3565b60405180910390f35b34801561066f57600080fd5b5061068a60048036038101906106859190611c57565b6118c0565b6040516106979190611c84565b60405180910390f35b3480156106ac57600080fd5b506106c760048036038101906106c29190612125565b6118d8565b005b600781815481106106d957600080fd5b90600052602060002090600702016000915090508060000180546106fc906123ba565b80601f0160208091040260200160405190810160405280929190818152602001828054610728906123ba565b80156107755780601f1061074a57610100808354040283529160200191610775565b820191906000526020600020905b81548152906001019060200180831161075857829003601f168201915b50505050509080600101805461078a906123ba565b80601f01602080910402602001604051908101604052809291908181526020018280546107b6906123ba565b80156108035780601f106107d857610100808354040283529160200191610803565b820191906000526020600020905b8154815290600101906020018083116107e657829003601f168201915b5050505050908060020160009054906101000a900460ff16908060020160019054906101000a900460ff16908060030154908060040160009054906101000a900473ffffffffffffffffffffffffffffffffffffffff16908060040160149054906101000a900460ff16908060050154908060060154905089565b6005600083815260200190815260200160002060003373ffffffffffffffffffffffffffffffffffffffff1673ffffffffffffffffffffffffffffffffffffffff16815260200190815260200160002060009054906101000a900460ff161561091c576040517f08c379a000000000000000000000000000000000000000000000000000000000815260040161091390612437565b60405180910390fd5b600782815481106109305761092f612457565b5b906000526020600020906007020160040160149054906101000a900460ff1661098e576040517f08c379a0000000000000000000000000000000000000000000000000000000008152600401610985906124d2565b60405180910390fd5b60008060003373ffffffffffffffffffffffffffffffffffffffff1673ffffffffffffffffffffffffffffffffffffffff16815260200190815260200160002054905060008111610a14576040517f08c379a0000000000000000000000000000000000000000000000000000000008152600401610a0b9061253e565b60405180910390fd5b8115610a5b578060078481548110610a2f57610a2e612457565b5b90600052602060002090600702016005016000828254610a4f919061258d565b92505081905550610a98565b8060078481548110610a7057610a6f612457565b5b90600052602060002090600702016006016000828254610a90919061258d565b925050819055505b600260003373ffffffffffffffffffffffffffffffffffffffff1673ffffffffffffffffffffffffffffffffffffffff168152602001908152602001600020604051806060016040528085815260200184151581526020018381525090806001815401808255809150506001900390600052602060002090600302016000909190919091506000820151816000015560208201518160010160006101000a81548160ff02191690831515021790555060408201518160020155505060016005600085815260200190815260200160002060003373ffffffffffffffffffffffffffffffffffffffff1673ffffffffffffffffffffffffffffffffffffffff16815260200190815260200160002060006101000a81548160ff0219169083151502179055507fb898e75d5aac8de2f407e4a683c8d909e832d1e371e3bff0fa3ed934e88d956283338385604051610bf194939291906125c1565b60405180910390a1505050565b600060078281548110610c1457610c13612457565b5b906000526020600020906007020160040160149054906101000a900460ff169050919050565b600460003373ffffffffffffffffffffffffffffffffffffffff1673ffffffffffffffffffffffffffffffffffffffff16815260200190815260200160002060009054906101000a900460ff16610cc6576040517f08c379a0000000000000000000000000000000000000000000000000000000008152600401610cbd90612678565b60405180910390fd5b6000600460008373ffffffffffffffffffffffffffffffffffffffff1673ffffffffffffffffffffffffffffffffffffffff16815260200190815260200160002060006101000a81548160ff02191690831515021790555050565b60095481565b6000600460008373ffffffffffffffffffffffffffffffffffffffff1673ffffffffffffffffffffffffffffffffffffffff16815260200190815260200160002060009054906101000a900460ff169050919050565b60606006805480602002602001604051908101604052809291908181526020018280548015610e0157602002820191906000526020600020905b8160009054906101000a900473ffffffffffffffffffffffffffffffffffffffff1673ffffffffffffffffffffffffffffffffffffffff1681526020019060010190808311610db7575b5050505050905090565b600460003373ffffffffffffffffffffffffffffffffffffffff1673ffffffffffffffffffffffffffffffffffffffff16815260200190815260200160002060009054906101000a900460ff16610e97576040517f08c379a0000000000000000000000000000000000000000000000000000000008152600401610e8e90612678565b60405180910390fd5b6007805490508160ff1610610ee1576040517f08c379a0000000000000000000000000000000000000000000000000000000008152600401610ed8906126e4565b60405180910390fd5b60078160ff1681548110610ef857610ef7612457565b5b906000526020600020906007020160040160149054906101000a900460ff16610f56576040517f08c379a0000000000000000000000000000000000000000000000000000000008152600401610f4d906124d2565b60405180910390fd5b8060ff167f61c0d93dc2b610877e420b107c8d12e9185e46e04a505da758cc7f7329ae545f60405160405180910390a2600060078260ff1681548110610f9f57610f9e612457565b5b906000526020600020906007020160040160146101000a81548160ff02191690831515021790555050565b60046020528060005260406000206000915054906101000a900460ff1681565b6000600160008373ffffffffffffffffffffffffffffffffffffffff1673ffffffffffffffffffffffffffffffffffffffff168152602001908152602001600020549050919050565b6000806000600780549050841061107f576040517f08c379a0000000000000000000000000000000000000000000000000000000008152600401611076906126e4565b60405180910390fd5b60006007858154811061109557611094612457565b5b90600052602060002090600702019050806005015481600601548260040160149054906101000a900460ff16935093509350509193909250565b60056020528160005260406000206020528060005260406000206000915091509054906101000a900460ff1681565b60606007805480602002602001604051908101604052809291908181526020016000905b82821015611342578382906000526020600020906007020160405180610120016040529081600082018054611156906123ba565b80601f0160208091040260200160405190810160405280929190818152602001828054611182906123ba565b80156111cf5780601f106111a4576101008083540402835291602001916111cf565b820191906000526020600020905b8154815290600101906020018083116111b257829003601f168201915b505050505081526020016001820180546111e8906123ba565b80601f0160208091040260200160405190810160405280929190818152602001828054611214906123ba565b80156112615780601f1061123657610100808354040283529160200191611261565b820191906000526020600020905b81548152906001019060200180831161124457829003601f168201915b505050505081526020016002820160009054906101000a900460ff1660ff1660ff1681526020016002820160019054906101000a900460ff1660ff1660ff168152602001600382015481526020016004820160009054906101000a900473ffffffffffffffffffffffffffffffffffffffff1673ffffffffffffffffffffffffffffffffffffffff1673ffffffffffffffffffffffffffffffffffffffff1681526020016004820160149054906101000a900460ff161515151581526020016005820154815260200160068201548152505081526020019060010190611122565b50505050905090565b611353611958565b600360008381526020019081526020016000206040518060600160405290816000820160009054906101000a900460ff16151515158152602001600182015481526020016002820154815250509050919050565b600460003373ffffffffffffffffffffffffffffffffffffffff1673ffffffffffffffffffffffffffffffffffffffff16815260200190815260200160002060009054906101000a900460ff16611433576040517f08c379a000000000000000000000000000000000000000000000000000000000815260040161142a90612678565b60405180910390fd5b6001600460008373ffffffffffffffffffffffffffffffffffffffff1673ffffffffffffffffffffffffffffffffffffffff16815260200190815260200160002060006101000a81548160ff02191690831515021790555050565b6000600860009054906101000a900460ff16905090565b600860019054906101000a900460ff1681565b60036020528060005260406000206000915090508060000160009054906101000a900460ff16908060010154908060020154905083565b806000808473ffffffffffffffffffffffffffffffffffffffff1673ffffffffffffffffffffffffffffffffffffffff1681526020019081526020016000208190555080600160008473ffffffffffffffffffffffffffffffffffffffff1673ffffffffffffffffffffffffffffffffffffffff168152602001908152602001600020819055505050565b6006818154811061158a57600080fd5b906000526020600020016000915054906101000a900473ffffffffffffffffffffffffffffffffffffffff1681565b60006020528060005260406000206000915090505481565b600260205281600052604060002081815481106115ed57600080fd5b9060005260206000209060030201600091509150508060000154908060010160009054906101000a900460ff16908060020154905083565b670de0b6b3a7640000341461166f576040517f08c379a000000000000000000000000000000000000000000000000000000000815260040161166690612776565b60405180910390fd5b6000603c8361167e9190612796565b60ff164261168c919061258d565b905060076040518061012001604052808781526020018681526020018560ff1681526020018460ff1681526020018381526020013373ffffffffffffffffffffffffffffffffffffffff1681526020016001151581526020016000815260200160008152509080600181540180825580915050600190039060005260206000209060070201600090919091909150600082015181600001908161172f919061297f565b506020820151816001019081611745919061297f565b5060408201518160020160006101000a81548160ff021916908360ff16021790555060608201518160020160016101000a81548160ff021916908360ff1602179055506080820151816003015560a08201518160040160006101000a81548173ffffffffffffffffffffffffffffffffffffffff021916908373ffffffffffffffffffffffffffffffffffffffff16021790555060c08201518160040160146101000a81548160ff02191690831515021790555060e08201518160050155610100820151816006015550506008600081819054906101000a900460ff168092919061182f90612a51565b91906101000a81548160ff021916908360ff160217905550507f21f74685a93242ae0e358e8ff84a7b085919a1daa28f1f2389bc009727898b236001600860009054906101000a900460ff166118859190612a7a565b86868686863360405161189e9796959493929190612ae0565b60405180910390a15050505050565b600860009054906101000a900460ff1681565b60016020528060005260406000206000915090505481565b806000808473ffffffffffffffffffffffffffffffffffffffff1673ffffffffffffffffffffffffffffffffffffffff168152602001908152602001600020819055507fe6382c9ed5c0c33bb05042f73cf6cbe9cb25639f9a711e094ee563bc9cb80e2c828260405161194c929190612b5d565b60405180910390a15050565b604051806060016040528060001515815260200160008152602001600081525090565b6000604051905090565b600080fd5b600080fd5b6000819050919050565b6119a28161198f565b81146119ad57600080fd5b50565b6000813590506119bf81611999565b92915050565b6000602082840312156119db576119da611985565b5b60006119e9848285016119b0565b91505092915050565b600081519050919050565b600082825260208201905092915050565b60005b83811015611a2c578082015181840152602081019050611a11565b60008484015250505050565b6000601f19601f8301169050919050565b6000611a54826119f2565b611a5e81856119fd565b9350611a6e818560208601611a0e565b611a7781611a38565b840191505092915050565b600060ff82169050919050565b611a9881611a82565b82525050565b611aa78161198f565b82525050565b600073ffffffffffffffffffffffffffffffffffffffff82169050919050565b6000611ad882611aad565b9050919050565b611ae881611acd565b82525050565b60008115159050919050565b611b0381611aee565b82525050565b6000610120820190508181036000830152611b24818c611a49565b90508181036020830152611b38818b611a49565b9050611b47604083018a611a8f565b611b546060830189611a8f565b611b616080830188611a9e565b611b6e60a0830187611adf565b611b7b60c0830186611afa565b611b8860e0830185611a9e565b611b96610100830184611a9e565b9a9950505050505050505050565b611bad81611aee565b8114611bb857600080fd5b50565b600081359050611bca81611ba4565b92915050565b60008060408385031215611be757611be6611985565b5b6000611bf5858286016119b0565b9250506020611c0685828601611bbb565b9150509250929050565b6000602082019050611c256000830184611afa565b92915050565b611c3481611acd565b8114611c3f57600080fd5b50565b600081359050611c5181611c2b565b92915050565b600060208284031215611c6d57611c6c611985565b5b6000611c7b84828501611c42565b91505092915050565b6000602082019050611c996000830184611a9e565b92915050565b600081519050919050565b600082825260208201905092915050565b6000819050602082019050919050565b611cd481611acd565b82525050565b6000611ce68383611ccb565b60208301905092915050565b6000602082019050919050565b6000611d0a82611c9f565b611d148185611caa565b9350611d1f83611cbb565b8060005b83811015611d50578151611d378882611cda565b9750611d4283611cf2565b925050600181019050611d23565b5085935050505092915050565b60006020820190508181036000830152611d778184611cff565b905092915050565b611d8881611a82565b8114611d9357600080fd5b50565b600081359050611da581611d7f565b92915050565b600060208284031215611dc157611dc0611985565b5b6000611dcf84828501611d96565b91505092915050565b6000606082019050611ded6000830186611a9e565b611dfa6020830185611a9e565b611e076040830184611afa565b949350505050565b60008060408385031215611e2657611e25611985565b5b6000611e34858286016119b0565b9250506020611e4585828601611c42565b9150509250929050565b600081519050919050565b600082825260208201905092915050565b6000819050602082019050919050565b600082825260208201905092915050565b6000611e97826119f2565b611ea18185611e7b565b9350611eb1818560208601611a0e565b611eba81611a38565b840191505092915050565b611ece81611a82565b82525050565b611edd8161198f565b82525050565b611eec81611aee565b82525050565b6000610120830160008301518482036000860152611f108282611e8c565b91505060208301518482036020860152611f2a8282611e8c565b9150506040830151611f3f6040860182611ec5565b506060830151611f526060860182611ec5565b506080830151611f656080860182611ed4565b5060a0830151611f7860a0860182611ccb565b5060c0830151611f8b60c0860182611ee3565b5060e0830151611f9e60e0860182611ed4565b50610100830151611fb3610100860182611ed4565b508091505092915050565b6000611fca8383611ef2565b905092915050565b6000602082019050919050565b6000611fea82611e4f565b611ff48185611e5a565b93508360208202850161200685611e6b565b8060005b8581101561204257848403895281516120238582611fbe565b945061202e83611fd2565b925060208a0199505060018101905061200a565b50829750879550505050505092915050565b6000602082019050818103600083015261206e8184611fdf565b905092915050565b60608201600082015161208c6000850182611ee3565b50602082015161209f6020850182611ed4565b5060408201516120b26040850182611ed4565b50505050565b60006060820190506120cd6000830184612076565b92915050565b60006020820190506120e86000830184611a8f565b92915050565b60006060820190506121036000830186611afa565b6121106020830185611a9e565b61211d6040830184611a9e565b949350505050565b6000806040838503121561213c5761213b611985565b5b600061214a85828601611c42565b925050602061215b858286016119b0565b9150509250929050565b600060208201905061217a6000830184611adf565b92915050565b60006060820190506121956000830186611a9e565b6121a26020830185611afa565b6121af6040830184611a9e565b949350505050565b600080fd5b600080fd5b7f4e487b7100000000000000000000000000000000000000000000000000000000600052604160045260246000fd5b6121f982611a38565b810181811067ffffffffffffffff82111715612218576122176121c1565b5b80604052505050565b600061222b61197b565b905061223782826121f0565b919050565b600067ffffffffffffffff821115612257576122566121c1565b5b61226082611a38565b9050602081019050919050565b82818337600083830152505050565b600061228f61228a8461223c565b612221565b9050828152602081018484840111156122ab576122aa6121bc565b5b6122b684828561226d565b509392505050565b600082601f8301126122d3576122d26121b7565b5b81356122e384826020860161227c565b91505092915050565b6000806000806080858703121561230657612305611985565b5b600085013567ffffffffffffffff8111156123245761232361198a565b5b612330878288016122be565b945050602085013567ffffffffffffffff8111156123515761235061198a565b5b61235d878288016122be565b935050604061236e87828801611d96565b925050606061237f87828801611d96565b91505092959194509250565b7f4e487b7100000000000000000000000000000000000000000000000000000000600052602260045260246000fd5b600060028204905060018216806123d257607f821691505b6020821081036123e5576123e461238b565b5b50919050565b7f596f75206861766520616c726561647920766f74656400000000000000000000600082015250565b60006124216016836119fd565b915061242c826123eb565b602082019050919050565b6000602082019050818103600083015261245081612414565b9050919050565b7f4e487b7100000000000000000000000000000000000000000000000000000000600052603260045260246000fd5b7f50726f706f73616c206973206e6f742061637469766500000000000000000000600082015250565b60006124bc6016836119fd565b91506124c782612486565b602082019050919050565b600060208201905081810360008301526124eb816124af565b9050919050565b7f596f75206d75737420686f6c642073686172657320746f20766f746500000000600082015250565b6000612528601c836119fd565b9150612533826124f2565b602082019050919050565b600060208201905081810360008301526125578161251b565b9050919050565b7f4e487b7100000000000000000000000000000000000000000000000000000000600052601160045260246000fd5b60006125988261198f565b91506125a38361198f565b92508282019050808211156125bb576125ba61255e565b5b92915050565b60006080820190506125d66000830187611a9e565b6125e36020830186611adf565b6125f06040830185611a9e565b6125fd6060830184611afa565b95945050505050565b7f4f6e6c792061646d696e732063616e20706572666f726d20746869732061637460008201527f696f6e0000000000000000000000000000000000000000000000000000000000602082015250565b60006126626023836119fd565b915061266d82612606565b604082019050919050565b6000602082019050818103600083015261269181612655565b9050919050565b7f496e76616c69642070726f706f73616c20494400000000000000000000000000600082015250565b60006126ce6013836119fd565b91506126d982612698565b602082019050919050565b600060208201905081810360008301526126fd816126c1565b9050919050565b7f4d7573742073656e6420312045544820746f2063726561746520612070726f7060008201527f6f73616c00000000000000000000000000000000000000000000000000000000602082015250565b60006127606024836119fd565b915061276b82612704565b604082019050919050565b6000602082019050818103600083015261278f81612753565b9050919050565b60006127a182611a82565b91506127ac83611a82565b92508282026127ba81611a82565b91508082146127cc576127cb61255e565b5b5092915050565b60008190508160005260206000209050919050565b60006020601f8301049050919050565b600082821b905092915050565b6000600883026128357fffffffffffffffffffffffffffffffffffffffffffffffffffffffffffffffff826127f8565b61283f86836127f8565b95508019841693508086168417925050509392505050565b6000819050919050565b600061287c6128776128728461198f565b612857565b61198f565b9050919050565b6000819050919050565b61289683612861565b6128aa6128a282612883565b848454612805565b825550505050565b600090565b6128bf6128b2565b6128ca81848461288d565b505050565b5b818110156128ee576128e36000826128b7565b6001810190506128d0565b5050565b601f82111561293357612904816127d3565b61290d846127e8565b8101602085101561291c578190505b612930612928856127e8565b8301826128cf565b50505b505050565b600082821c905092915050565b600061295660001984600802612938565b1980831691505092915050565b600061296f8383612945565b9150826002028217905092915050565b612988826119f2565b67ffffffffffffffff8111156129a1576129a06121c1565b5b6129ab82546123ba565b6129b68282856128f2565b600060209050601f8311600181146129e957600084156129d7578287015190505b6129e18582612963565b865550612a49565b601f1984166129f7866127d3565b60005b82811015612a1f578489015182556001820191506020850194506020810190506129fa565b86831015612a3c5784890151612a38601f891682612945565b8355505b6001600288020188555050505b505050505050565b6000612a5c82611a82565b915060ff8203612a6f57612a6e61255e565b5b600182019050919050565b6000612a8582611a82565b9150612a9083611a82565b9250828203905060ff811115612aa957612aa861255e565b5b92915050565b6000612aca612ac5612ac084611a82565b612857565b61198f565b9050919050565b612ada81612aaf565b82525050565b600060e082019050612af5600083018a612ad1565b8181036020830152612b078189611a49565b90508181036040830152612b1b8188611a49565b9050612b2a6060830187611a8f565b612b376080830186611a8f565b612b4460a0830185611a9e565b612b5160c0830184611adf565b98975050505050505050565b6000604082019050612b726000830185611adf565b612b7f6020830184611a9e565b939250505056fea26469706673582212208eaa9ba4e7a7a8421e7a9c260e5ecfbc7f2ec94a89763de6f2b4769434d1b3cd64736f6c634300081a0033",
  "linkReferences": {},
  "deployedLinkReferences": {}
}