{
  "_format": "hh-sol-artifact-1",
  "contractName": "VotingContract",
  "sourceName": "contracts/smartContract.sol",
  "abi": [
    {
      "inputs": [
        {
          "internalType": "address[]",
          "name": "initialAdmins",
          "type": "address[]"
        },
        {
          "internalType": "address",
          "name": "_tokenAddress",
          "type": "address"
        }
      ],
      "stateMutability": "nonpayable",
      "type": "constructor"
    },
    {
      "anonymous": false,
      "inputs": [
        {
          "indexed": false,
          "internalType": "uint256",
          "name": "proposalId",
          "type": "uint256"
        },
        {
          "indexed": false,
          "internalType": "string",
          "name": "description",
          "type": "string"
        },
        {
          "indexed": false,
          "internalType": "uint256",
          "name": "votingEndTime",
          "type": "uint256"
        }
      ],
      "name": "ProposalCreated",
      "type": "event"
    },
    {
      "anonymous": false,
      "inputs": [
        {
          "indexed": false,
          "internalType": "address",
          "name": "voter",
          "type": "address"
        },
        {
          "indexed": false,
          "internalType": "uint256",
          "name": "rewardAmount",
          "type": "uint256"
        }
      ],
      "name": "RewardIssued",
      "type": "event"
    },
    {
      "anonymous": false,
      "inputs": [
        {
          "indexed": false,
          "internalType": "address",
          "name": "voter",
          "type": "address"
        },
        {
          "indexed": false,
          "internalType": "uint256",
          "name": "newShares",
          "type": "uint256"
        }
      ],
      "name": "SharesUpdated",
      "type": "event"
    },
    {
      "anonymous": false,
      "inputs": [
        {
          "indexed": false,
          "internalType": "uint256",
          "name": "proposalId",
          "type": "uint256"
        },
        {
          "indexed": false,
          "internalType": "address",
          "name": "voter",
          "type": "address"
        },
        {
          "indexed": false,
          "internalType": "uint256",
          "name": "weight",
          "type": "uint256"
        },
        {
          "indexed": false,
          "internalType": "bool",
          "name": "voteFor",
          "type": "bool"
        }
      ],
      "name": "VoteCast",
      "type": "event"
    },
    {
      "inputs": [
        {
          "internalType": "address",
          "name": "newAdmin",
          "type": "address"
        }
      ],
      "name": "addAdmin",
      "outputs": [],
      "stateMutability": "nonpayable",
      "type": "function"
    },
    {
      "inputs": [
        {
          "internalType": "string",
          "name": "_title",
          "type": "string"
        },
        {
          "internalType": "string",
          "name": "_description",
          "type": "string"
        }
      ],
      "name": "addProposal",
      "outputs": [],
      "stateMutability": "nonpayable",
      "type": "function"
    },
    {
      "inputs": [
        {
          "internalType": "address",
          "name": "",
          "type": "address"
        }
      ],
      "name": "admins",
      "outputs": [
        {
          "internalType": "bool",
          "name": "",
          "type": "bool"
        }
      ],
      "stateMutability": "view",
      "type": "function"
    },
    {
      "inputs": [
        {
          "internalType": "string",
          "name": "title",
          "type": "string"
        },
        {
          "internalType": "string",
          "name": "description",
          "type": "string"
        },
        {
          "internalType": "uint256",
          "name": "durationInMinutes",
          "type": "uint256"
        },
        {
          "internalType": "enum VotingContract.QuorumType",
          "name": "quorumType",
          "type": "uint8"
        }
      ],
      "name": "createProposal",
      "outputs": [],
      "stateMutability": "payable",
      "type": "function"
    },
    {
      "inputs": [
        {
          "internalType": "uint256",
          "name": "proposalId",
          "type": "uint256"
        }
      ],
      "name": "endVoting",
      "outputs": [],
      "stateMutability": "nonpayable",
      "type": "function"
    },
    {
      "inputs": [
        {
          "internalType": "uint256",
          "name": "proposalId",
          "type": "uint256"
        }
      ],
      "name": "getProposalOutcome",
      "outputs": [
        {
          "components": [
            {
              "internalType": "bool",
              "name": "passed",
              "type": "bool"
            },
            {
              "internalType": "uint256",
              "name": "votesFor",
              "type": "uint256"
            },
            {
              "internalType": "uint256",
              "name": "votesAgainst",
              "type": "uint256"
            }
          ],
          "internalType": "struct VotingContract.ProposalOutcome",
          "name": "",
          "type": "tuple"
        }
      ],
      "stateMutability": "view",
      "type": "function"
    },
    {
      "inputs": [],
      "name": "getProposals",
      "outputs": [
        {
          "internalType": "uint256[]",
          "name": "ids",
          "type": "uint256[]"
        },
        {
          "internalType": "string[]",
          "name": "titles",
          "type": "string[]"
        },
        {
          "internalType": "string[]",
          "name": "descriptions",
          "type": "string[]"
        },
        {
          "internalType": "uint256[]",
          "name": "votesForArray",
          "type": "uint256[]"
        },
        {
          "internalType": "uint256[]",
          "name": "votesAgainstArray",
          "type": "uint256[]"
        },
        {
          "internalType": "bool[]",
          "name": "actives",
          "type": "bool[]"
        },
        {
          "internalType": "uint256[]",
          "name": "quorum",
          "type": "uint256[]"
        }
      ],
      "stateMutability": "view",
      "type": "function"
    },
    {
      "inputs": [],
      "name": "getProposalsCount",
      "outputs": [
        {
          "internalType": "uint256",
          "name": "",
          "type": "uint256"
        }
      ],
      "stateMutability": "view",
      "type": "function"
    },
    {
      "inputs": [
        {
          "internalType": "address",
          "name": "voter",
          "type": "address"
        }
      ],
      "name": "getShares",
      "outputs": [
        {
          "internalType": "uint256",
          "name": "",
          "type": "uint256"
        }
      ],
      "stateMutability": "view",
      "type": "function"
    },
    {
      "inputs": [
        {
          "internalType": "uint256",
          "name": "proposalId",
          "type": "uint256"
        }
      ],
      "name": "getTotalSharesVoted",
      "outputs": [
        {
          "internalType": "uint256",
          "name": "",
          "type": "uint256"
        }
      ],
      "stateMutability": "view",
      "type": "function"
    },
    {
      "inputs": [
        {
          "internalType": "address",
          "name": "voter",
          "type": "address"
        }
      ],
      "name": "getUserProfile",
      "outputs": [
        {
          "internalType": "uint256",
          "name": "",
          "type": "uint256"
        },
        {
          "components": [
            {
              "internalType": "uint256",
              "name": "proposalId",
              "type": "uint256"
            },
            {
              "internalType": "bool",
              "name": "votedFor",
              "type": "bool"
            },
            {
              "internalType": "uint256",
              "name": "voteWeight",
              "type": "uint256"
            }
          ],
          "internalType": "struct VotingContract.VotingRecord[]",
          "name": "",
          "type": "tuple[]"
        }
      ],
      "stateMutability": "view",
      "type": "function"
    },
    {
      "inputs": [
        {
          "internalType": "uint256",
          "name": "proposalId",
          "type": "uint256"
        }
      ],
      "name": "getVotingProgress",
      "outputs": [
        {
          "internalType": "uint256",
          "name": "progress",
          "type": "uint256"
        },
        {
          "internalType": "uint256",
          "name": "requiredQuorum",
          "type": "uint256"
        }
      ],
      "stateMutability": "view",
      "type": "function"
    },
    {
      "inputs": [],
      "name": "governanceToken",
      "outputs": [
        {
          "internalType": "contract GovernanceToken",
          "name": "",
          "type": "address"
        }
      ],
      "stateMutability": "view",
      "type": "function"
    },
    {
      "inputs": [
        {
          "internalType": "uint256",
          "name": "proposalId",
          "type": "uint256"
        }
      ],
      "name": "hasMetQuorum",
      "outputs": [
        {
          "internalType": "bool",
          "name": "",
          "type": "bool"
        }
      ],
      "stateMutability": "view",
      "type": "function"
    },
    {
      "inputs": [
        {
          "internalType": "address",
          "name": "user",
          "type": "address"
        }
      ],
      "name": "isAdmin",
      "outputs": [
        {
          "internalType": "bool",
          "name": "",
          "type": "bool"
        }
      ],
      "stateMutability": "view",
      "type": "function"
    },
    {
      "inputs": [],
      "name": "isVotingPeriodActive",
      "outputs": [
        {
          "internalType": "bool",
          "name": "",
          "type": "bool"
        }
      ],
      "stateMutability": "view",
      "type": "function"
    },
    {
      "inputs": [],
      "name": "proposalCount",
      "outputs": [
        {
          "internalType": "uint256",
          "name": "",
          "type": "uint256"
        }
      ],
      "stateMutability": "view",
      "type": "function"
    },
    {
      "inputs": [
        {
          "internalType": "uint256",
          "name": "",
          "type": "uint256"
        }
      ],
      "name": "proposalOutcomes",
      "outputs": [
        {
          "internalType": "bool",
          "name": "passed",
          "type": "bool"
        },
        {
          "internalType": "uint256",
          "name": "votesFor",
          "type": "uint256"
        },
        {
          "internalType": "uint256",
          "name": "votesAgainst",
          "type": "uint256"
        }
      ],
      "stateMutability": "view",
      "type": "function"
    },
    {
      "inputs": [
        {
          "internalType": "uint256",
          "name": "",
          "type": "uint256"
        }
      ],
      "name": "proposals",
      "outputs": [
        {
          "internalType": "string",
          "name": "title",
          "type": "string"
        },
        {
          "internalType": "string",
          "name": "description",
          "type": "string"
        },
        {
          "internalType": "uint256",
          "name": "votesFor",
          "type": "uint256"
        },
        {
          "internalType": "uint256",
          "name": "votesAgainst",
          "type": "uint256"
        },
        {
          "internalType": "bool",
          "name": "active",
          "type": "bool"
        },
        {
          "internalType": "uint256",
          "name": "votingEndTime",
          "type": "uint256"
        },
        {
          "internalType": "uint256",
          "name": "totalVotesCast",
          "type": "uint256"
        },
        {
          "internalType": "enum VotingContract.QuorumType",
          "name": "quorumType",
          "type": "uint8"
        }
      ],
      "stateMutability": "view",
      "type": "function"
    },
    {
      "inputs": [
        {
          "internalType": "address",
          "name": "voter",
          "type": "address"
        },
        {
          "internalType": "uint256",
          "name": "shareCount",
          "type": "uint256"
        }
      ],
      "name": "registerShareholder",
      "outputs": [],
      "stateMutability": "nonpayable",
      "type": "function"
    },
    {
      "inputs": [
        {
          "internalType": "address",
          "name": "admin",
          "type": "address"
        }
      ],
      "name": "removeAdmin",
      "outputs": [],
      "stateMutability": "nonpayable",
      "type": "function"
    },
    {
      "inputs": [
        {
          "internalType": "address",
          "name": "",
          "type": "address"
        }
      ],
      "name": "shares",
      "outputs": [
        {
          "internalType": "uint256",
          "name": "",
          "type": "uint256"
        }
      ],
      "stateMutability": "view",
      "type": "function"
    },
    {
      "inputs": [],
      "name": "totalShares",
      "outputs": [
        {
          "internalType": "uint256",
          "name": "",
          "type": "uint256"
        }
      ],
      "stateMutability": "view",
      "type": "function"
    },
    {
      "inputs": [
        {
          "internalType": "address",
          "name": "voter",
          "type": "address"
        },
        {
          "internalType": "uint256",
          "name": "newShares",
          "type": "uint256"
        }
      ],
      "name": "updateShares",
      "outputs": [],
      "stateMutability": "nonpayable",
      "type": "function"
    },
    {
      "inputs": [
        {
          "internalType": "uint256",
          "name": "proposalId",
          "type": "uint256"
        },
        {
          "internalType": "bool",
          "name": "voteFor",
          "type": "bool"
        }
      ],
      "name": "vote",
      "outputs": [],
      "stateMutability": "nonpayable",
      "type": "function"
    },
    {
      "inputs": [],
      "name": "votingEndTime",
      "outputs": [
        {
          "internalType": "uint256",
          "name": "",
          "type": "uint256"
        }
      ],
      "stateMutability": "view",
      "type": "function"
    },
    {
      "inputs": [
        {
          "internalType": "address",
          "name": "",
          "type": "address"
        },
        {
          "internalType": "uint256",
          "name": "",
          "type": "uint256"
        }
      ],
      "name": "votingHistory",
      "outputs": [
        {
          "internalType": "uint256",
          "name": "proposalId",
          "type": "uint256"
        },
        {
          "internalType": "bool",
          "name": "votedFor",
          "type": "bool"
        },
        {
          "internalType": "uint256",
          "name": "voteWeight",
          "type": "uint256"
        }
      ],
      "stateMutability": "view",
      "type": "function"
    }
  ],
  "bytecode": "0x60806040523480156200001157600080fd5b50604051620038ff380380620038ff833981810160405281019062000037919062000307565b80600960006101000a81548173ffffffffffffffffffffffffffffffffffffffff021916908373ffffffffffffffffffffffffffffffffffffffff16021790555060005b82518110156200011057600160036000858481518110620000a157620000a06200036d565b5b602002602001015173ffffffffffffffffffffffffffffffffffffffff1673ffffffffffffffffffffffffffffffffffffffff16815260200190815260200160002060006101000a81548160ff02191690831515021790555080806200010790620003d5565b9150506200007b565b50505062000422565b6000604051905090565b600080fd5b600080fd5b600080fd5b6000601f19601f8301169050919050565b7f4e487b7100000000000000000000000000000000000000000000000000000000600052604160045260246000fd5b6200017d8262000132565b810181811067ffffffffffffffff821117156200019f576200019e62000143565b5b80604052505050565b6000620001b462000119565b9050620001c2828262000172565b919050565b600067ffffffffffffffff821115620001e557620001e462000143565b5b602082029050602081019050919050565b600080fd5b600073ffffffffffffffffffffffffffffffffffffffff82169050919050565b60006200022882620001fb565b9050919050565b6200023a816200021b565b81146200024657600080fd5b50565b6000815190506200025a816200022f565b92915050565b6000620002776200027184620001c7565b620001a8565b905080838252602082019050602084028301858111156200029d576200029c620001f6565b5b835b81811015620002ca5780620002b5888262000249565b8452602084019350506020810190506200029f565b5050509392505050565b600082601f830112620002ec57620002eb6200012d565b5b8151620002fe84826020860162000260565b91505092915050565b6000806040838503121562000321576200032062000123565b5b600083015167ffffffffffffffff81111562000342576200034162000128565b5b6200035085828601620002d4565b9250506020620003638582860162000249565b9150509250929050565b7f4e487b7100000000000000000000000000000000000000000000000000000000600052603260045260246000fd5b7f4e487b7100000000000000000000000000000000000000000000000000000000600052601160045260246000fd5b6000819050919050565b6000620003e282620003cb565b91507fffffffffffffffffffffffffffffffffffffffffffffffffffffffffffffffff82036200041757620004166200039c565b5b600182019050919050565b6134cd80620004326000396000f3fe60806040526004361061019c5760003560e01c8063987ee156116100ec578063ce7c2ac21161008a578063e5d0821f11610064578063e5d0821f1461062a578063f04da65b14610653578063f96dae0a14610690578063fcf0c6ca146106bb5761019c565b8063ce7c2ac214610583578063d09c34f2146105c0578063da35c664146105ff5761019c565b80639fcc5ce4116100c65780639fcc5ce4146104c7578063a9c0310d146104f2578063afafa0cf14610531578063c9d27afe1461055a5761019c565b8063987ee1561461042057806398e527d31461045e5780639baf1c97146104895761019c565b8063429b62e5116101595780636fdb6f7c116101335780636fdb6f7c14610361578063704802751461039e57806370f6e05d146103c75780637a7c153b146103e35761019c565b8063429b62e5146102ca57806362564c4814610307578063649f89a5146103385761019c565b8063013cf08b146101a15780631785f53c146101e55780631ea736e01461020e57806323d1c95e1461023957806324d7806c146102625780633a98ef391461029f575b600080fd5b3480156101ad57600080fd5b506101c860048036038101906101c39190612257565b6106f8565b6040516101dc9897969594939291906123b5565b60405180910390f35b3480156101f157600080fd5b5061020c6004803603810190610207919061249f565b61087a565b005b34801561021a57600080fd5b50610223610961565b60405161023091906124cc565b60405180910390f35b34801561024557600080fd5b50610260600480360381019061025b919061261c565b610967565b005b34801561026e57600080fd5b506102896004803603810190610284919061249f565b610a9d565b6040516102969190612694565b60405180910390f35b3480156102ab57600080fd5b506102b4610af3565b6040516102c191906124cc565b60405180910390f35b3480156102d657600080fd5b506102f160048036038101906102ec919061249f565b610af9565b6040516102fe9190612694565b60405180910390f35b34801561031357600080fd5b5061031c610b19565b60405161032f9796959493929190612937565b60405180910390f35b34801561034457600080fd5b5061035f600480360381019061035a9190612257565b610fd2565b005b34801561036d57600080fd5b5061038860048036038101906103839190612257565b6112c4565b6040516103959190612a19565b60405180910390f35b3480156103aa57600080fd5b506103c560048036038101906103c0919061249f565b611320565b005b6103e160048036038101906103dc9190612a59565b611407565b005b3480156103ef57600080fd5b5061040a60048036038101906104059190612257565b6116a0565b6040516104179190612694565b60405180910390f35b34801561042c57600080fd5b506104476004803603810190610442919061249f565b61182f565b604051610455929190612be9565b60405180910390f35b34801561046a57600080fd5b50610473611942565b60405161048091906124cc565b60405180910390f35b34801561049557600080fd5b506104b060048036038101906104ab9190612257565b61194c565b6040516104be929190612c19565b60405180910390f35b3480156104d357600080fd5b506104dc611c77565b6040516104e99190612694565b60405180910390f35b3480156104fe57600080fd5b5061051960048036038101906105149190612257565b611c8a565b60405161052893929190612c42565b60405180910390f35b34801561053d57600080fd5b5061055860048036038101906105539190612c79565b611cc1565b005b34801561056657600080fd5b50610581600480360381019061057c9190612ce5565b611d71565b005b34801561058f57600080fd5b506105aa60048036038101906105a5919061249f565b612040565b6040516105b791906124cc565b60405180910390f35b3480156105cc57600080fd5b506105e760048036038101906105e29190612c79565b612058565b6040516105f693929190612d25565b60405180910390f35b34801561060b57600080fd5b506106146120ac565b60405161062191906124cc565b60405180910390f35b34801561063657600080fd5b50610651600480360381019061064c9190612c79565b6120b2565b005b34801561065f57600080fd5b5061067a6004803603810190610675919061249f565b612132565b60405161068791906124cc565b60405180910390f35b34801561069c57600080fd5b506106a561217a565b6040516106b29190612dbb565b60405180910390f35b3480156106c757600080fd5b506106e260048036038101906106dd9190612257565b6121a0565b6040516106ef91906124cc565b60405180910390f35b6006818154811061070857600080fd5b906000526020600020906008020160009150905080600001805461072b90612e05565b80601f016020809104026020016040519081016040528092919081815260200182805461075790612e05565b80156107a45780601f10610779576101008083540402835291602001916107a4565b820191906000526020600020905b81548152906001019060200180831161078757829003601f168201915b5050505050908060010180546107b990612e05565b80601f01602080910402602001604051908101604052809291908181526020018280546107e590612e05565b80156108325780601f1061080757610100808354040283529160200191610832565b820191906000526020600020905b81548152906001019060200180831161081557829003601f168201915b5050505050908060020154908060030154908060040160009054906101000a900460ff16908060050154908060060154908060070160009054906101000a900460ff16905088565b600360003373ffffffffffffffffffffffffffffffffffffffff1673ffffffffffffffffffffffffffffffffffffffff16815260200190815260200160002060009054906101000a900460ff16610906576040517f08c379a00000000000000000000000000000000000000000000000000000000081526004016108fd90612ea8565b60405180910390fd5b6000600360008373ffffffffffffffffffffffffffffffffffffffff1673ffffffffffffffffffffffffffffffffffffffff16815260200190815260200160002060006101000a81548160ff02191690831515021790555050565b60085481565b6006604051806101000160405280848152602001838152602001600081526020016000815260200160011515815260200162093a80426109a79190612ef7565b815260200160008152602001600060038111156109c7576109c661233e565b5b81525090806001815401808255809150506001900390600052602060002090600802016000909190919091506000820151816000019081610a0891906130cd565b506020820151816001019081610a1e91906130cd565b50604082015181600201556060820151816003015560808201518160040160006101000a81548160ff02191690831515021790555060a0820151816005015560c0820151816006015560e08201518160070160006101000a81548160ff02191690836003811115610a9257610a9161233e565b5b021790555050505050565b6000600360008373ffffffffffffffffffffffffffffffffffffffff1673ffffffffffffffffffffffffffffffffffffffff16815260200190815260200160002060009054906101000a900460ff169050919050565b60055481565b60036020528060005260406000206000915054906101000a900460ff1681565b606080606080606080606060045467ffffffffffffffff811115610b4057610b3f6124f1565b5b604051908082528060200260200182016040528015610b6e5781602001602082028036833780820191505090505b50965060045467ffffffffffffffff811115610b8d57610b8c6124f1565b5b604051908082528060200260200182016040528015610bc057816020015b6060815260200190600190039081610bab5790505b50955060045467ffffffffffffffff811115610bdf57610bde6124f1565b5b604051908082528060200260200182016040528015610c1257816020015b6060815260200190600190039081610bfd5790505b50945060045467ffffffffffffffff811115610c3157610c306124f1565b5b604051908082528060200260200182016040528015610c5f5781602001602082028036833780820191505090505b50935060045467ffffffffffffffff811115610c7e57610c7d6124f1565b5b604051908082528060200260200182016040528015610cac5781602001602082028036833780820191505090505b50925060045467ffffffffffffffff811115610ccb57610cca6124f1565b5b604051908082528060200260200182016040528015610cf95781602001602082028036833780820191505090505b50915060045467ffffffffffffffff811115610d1857610d176124f1565b5b604051908082528060200260200182016040528015610d465781602001602082028036833780820191505090505b50905060005b600454811015610fc857600060068281548110610d6c57610d6b61319f565b5b9060005260206000209060080201905081898381518110610d9057610d8f61319f565b5b602002602001018181525050806000018054610dab90612e05565b80601f0160208091040260200160405190810160405280929190818152602001828054610dd790612e05565b8015610e245780601f10610df957610100808354040283529160200191610e24565b820191906000526020600020905b815481529060010190602001808311610e0757829003601f168201915b5050505050888381518110610e3c57610e3b61319f565b5b6020026020010181905250806001018054610e5690612e05565b80601f0160208091040260200160405190810160405280929190818152602001828054610e8290612e05565b8015610ecf5780601f10610ea457610100808354040283529160200191610ecf565b820191906000526020600020905b815481529060010190602001808311610eb257829003601f168201915b5050505050878381518110610ee757610ee661319f565b5b60200260200101819052508060020154868381518110610f0a57610f0961319f565b5b6020026020010181815250508060030154858381518110610f2e57610f2d61319f565b5b6020026020010181815250508060040160009054906101000a900460ff16848381518110610f5f57610f5e61319f565b5b6020026020010190151590811515815250508060070160009054906101000a900460ff166003811115610f9557610f9461233e565b5b838381518110610fa857610fa761319f565b5b602002602001018181525050508080610fc0906131ce565b915050610d4c565b5090919293949596565b600060068281548110610fe857610fe761319f565b5b906000526020600020906008020160040160006101000a81548160ff0219169083151502179055506000805b60045481101561107257600681815481106110325761103161319f565b5b906000526020600020906008020160040160009054906101000a900460ff161561105f5760019150611072565b808061106a906131ce565b915050611014565b506000600683815481106110895761108861319f565b5b906000526020600020906008020160030154600684815481106110af576110ae61319f565b5b90600052602060002090600802016002015411905060405180606001604052808215158152602001600685815481106110eb576110ea61319f565b5b9060005260206000209060080201600201548152602001600685815481106111165761111561319f565b5b9060005260206000209060080201600301548152506002600085815260200190815260200160002060008201518160000160006101000a81548160ff0219169083151502179055506020820151816001015560408201518160020155905050600683815481106111895761118861319f565b5b906000526020600020906008020160050154421180156111af57506111ad836116a0565b155b156112a5576000600684815481106111ca576111c961319f565b5b906000526020600020906008020160040160006101000a81548160ff02191690831515021790555060405180606001604052806000151581526020016006858154811061121a5761121961319f565b5b9060005260206000209060080201600201548152602001600685815481106112455761124461319f565b5b9060005260206000209060080201600301548152506002600085815260200190815260200160002060008201518160000160006101000a81548160ff02191690831515021790555060208201518160010155604082015181600201559050505b81600760006101000a81548160ff021916908315150217905550505050565b6112cc6121ea565b600260008381526020019081526020016000206040518060600160405290816000820160009054906101000a900460ff16151515158152602001600182015481526020016002820154815250509050919050565b600360003373ffffffffffffffffffffffffffffffffffffffff1673ffffffffffffffffffffffffffffffffffffffff16815260200190815260200160002060009054906101000a900460ff166113ac576040517f08c379a00000000000000000000000000000000000000000000000000000000081526004016113a390612ea8565b60405180910390fd5b6001600360008373ffffffffffffffffffffffffffffffffffffffff1673ffffffffffffffffffffffffffffffffffffffff16815260200190815260200160002060006101000a81548160ff02191690831515021790555050565b600360003373ffffffffffffffffffffffffffffffffffffffff1673ffffffffffffffffffffffffffffffffffffffff16815260200190815260200160002060009054906101000a900460ff16611493576040517f08c379a000000000000000000000000000000000000000000000000000000000815260040161148a90612ea8565b60405180910390fd5b600034116114d6576040517f08c379a00000000000000000000000000000000000000000000000000000000081526004016114cd90613288565b60405180910390fd5b6040518061010001604052808581526020018481526020016000815260200160008152602001600115158152602001603c8461151291906132a8565b4261151d9190612ef7565b81526020016000815260200182600381111561153c5761153b61233e565b5b8152506006600454815481106115555761155461319f565b5b9060005260206000209060080201600082015181600001908161157891906130cd565b50602082015181600101908161158e91906130cd565b50604082015181600201556060820151816003015560808201518160040160006101000a81548160ff02191690831515021790555060a0820151816005015560c0820151816006015560e08201518160070160006101000a81548160ff021916908360038111156116025761160161233e565b5b02179055509050506001600760006101000a81548160ff021916908315150217905550603c8261163291906132a8565b4261163d9190612ef7565b6008819055507ff5dc0da9afa6d080780a49fd8c680f03d2ddf3c067cd6d0c85360c096644d2d36004548460085460405161167a939291906132ea565b60405180910390a160046000815480929190611695906131ce565b919050555050505050565b600080600683815481106116b7576116b661319f565b5b9060005260206000209060080201905060008060038111156116dc576116db61233e565b5b8260070160009054906101000a900460ff166003811115611700576116ff61233e565b5b0361171b5760026005546117149190613357565b905061181e565b6001600381111561172f5761172e61233e565b5b8260070160009054906101000a900460ff1660038111156117535761175261233e565b5b0361177a576003600260055461176991906132a8565b6117739190613357565b905061181d565b6002600381111561178e5761178d61233e565b5b8260070160009054906101000a900460ff1660038111156117b2576117b161233e565b5b036117d957600460036005546117c891906132a8565b6117d29190613357565b905061181c565b6003808111156117ec576117eb61233e565b5b8260070160009054906101000a900460ff1660038111156118105761180f61233e565b5b0361181b5760055490505b5b5b5b808260020154101592505050919050565b600060606000808473ffffffffffffffffffffffffffffffffffffffff1673ffffffffffffffffffffffffffffffffffffffff16815260200190815260200160002054600160008573ffffffffffffffffffffffffffffffffffffffff1673ffffffffffffffffffffffffffffffffffffffff16815260200190815260200160002080805480602002602001604051908101604052809291908181526020016000905b828210156119335783829060005260206000209060030201604051806060016040529081600082015481526020016001820160009054906101000a900460ff16151515158152602001600282015481525050815260200190600101906118d2565b50505050905091509150915091565b6000600454905090565b6000806000600684815481106119655761196461319f565b5b90600052602060002090600802016040518061010001604052908160008201805461198f90612e05565b80601f01602080910402602001604051908101604052809291908181526020018280546119bb90612e05565b8015611a085780601f106119dd57610100808354040283529160200191611a08565b820191906000526020600020905b8154815290600101906020018083116119eb57829003601f168201915b50505050508152602001600182018054611a2190612e05565b80601f0160208091040260200160405190810160405280929190818152602001828054611a4d90612e05565b8015611a9a5780601f10611a6f57610100808354040283529160200191611a9a565b820191906000526020600020905b815481529060010190602001808311611a7d57829003601f168201915b5050505050815260200160028201548152602001600382015481526020016004820160009054906101000a900460ff1615151515815260200160058201548152602001600682015481526020016007820160009054906101000a900460ff166003811115611b0b57611b0a61233e565b5b6003811115611b1d57611b1c61233e565b5b81525050905060008160c0015190506000600554606483611b3e91906132a8565b611b489190613357565b905060006003811115611b5e57611b5d61233e565b5b8360e001516003811115611b7557611b7461233e565b5b03611b90576002600554611b899190613357565b9350611c6c565b60016003811115611ba457611ba361233e565b5b8360e001516003811115611bbb57611bba61233e565b5b03611be25760036002600554611bd191906132a8565b611bdb9190613357565b9350611c6b565b60026003811115611bf657611bf561233e565b5b8360e001516003811115611c0d57611c0c61233e565b5b03611c345760046003600554611c2391906132a8565b611c2d9190613357565b9350611c6a565b600380811115611c4757611c4661233e565b5b8360e001516003811115611c5e57611c5d61233e565b5b03611c695760055493505b5b5b5b809450505050915091565b600760009054906101000a900460ff1681565b60026020528060005260406000206000915090508060000160009054906101000a900460ff16908060010154908060020154905083565b600760009054906101000a900460ff1615611d11576040517f08c379a0000000000000000000000000000000000000000000000000000000008152600401611d08906133fa565b60405180910390fd5b806000808473ffffffffffffffffffffffffffffffffffffffff1673ffffffffffffffffffffffffffffffffffffffff168152602001908152602001600020819055508060056000828254611d669190612ef7565b925050819055505050565b60006005546127106000803373ffffffffffffffffffffffffffffffffffffffff1673ffffffffffffffffffffffffffffffffffffffff16815260200190815260200160002054611dc291906132a8565b611dcc9190613357565b90508115611e15578060068481548110611de957611de861319f565b5b90600052602060002090600802016002016000828254611e099190612ef7565b92505081905550611e52565b8060068481548110611e2a57611e2961319f565b5b90600052602060002090600802016003016000828254611e4a9190612ef7565b925050819055505b8060068481548110611e6757611e6661319f565b5b90600052602060002090600802016006016000828254611e879190612ef7565b92505081905550600160003373ffffffffffffffffffffffffffffffffffffffff1673ffffffffffffffffffffffffffffffffffffffff168152602001908152602001600020604051806060016040528085815260200184151581526020018381525090806001815401808255809150506001900390600052602060002090600302016000909190919091506000820151816000015560208201518160010160006101000a81548160ff0219169083151502179055506040820151816002015550506000611f54826121d4565b9050600960009054906101000a900473ffffffffffffffffffffffffffffffffffffffff1673ffffffffffffffffffffffffffffffffffffffff166340c10f1933836040518363ffffffff1660e01b8152600401611fb3929190613429565b600060405180830381600087803b158015611fcd57600080fd5b505af1158015611fe1573d6000803e3d6000fd5b505050507fb898e75d5aac8de2f407e4a683c8d909e832d1e371e3bff0fa3ed934e88d95628433848660405161201a9493929190613452565b60405180910390a161202b846116a0565b1561203a5761203984610fd2565b5b50505050565b60006020528060005260406000206000915090505481565b6001602052816000526040600020818154811061207457600080fd5b9060005260206000209060030201600091509150508060000154908060010160009054906101000a900460ff16908060020154905083565b60045481565b806000808473ffffffffffffffffffffffffffffffffffffffff1673ffffffffffffffffffffffffffffffffffffffff168152602001908152602001600020819055507fe6382c9ed5c0c33bb05042f73cf6cbe9cb25639f9a711e094ee563bc9cb80e2c8282604051612126929190613429565b60405180910390a15050565b60008060008373ffffffffffffffffffffffffffffffffffffffff1673ffffffffffffffffffffffffffffffffffffffff168152602001908152602001600020549050919050565b600960009054906101000a900473ffffffffffffffffffffffffffffffffffffffff1681565b600080600683815481106121b7576121b661319f565b5b906000526020600020906008020160060154905080915050919050565b60006064826121e39190613357565b9050919050565b604051806060016040528060001515815260200160008152602001600081525090565b6000604051905090565b600080fd5b600080fd5b6000819050919050565b61223481612221565b811461223f57600080fd5b50565b6000813590506122518161222b565b92915050565b60006020828403121561226d5761226c612217565b5b600061227b84828501612242565b91505092915050565b600081519050919050565b600082825260208201905092915050565b60005b838110156122be5780820151818401526020810190506122a3565b60008484015250505050565b6000601f19601f8301169050919050565b60006122e682612284565b6122f0818561228f565b93506123008185602086016122a0565b612309816122ca565b840191505092915050565b61231d81612221565b82525050565b60008115159050919050565b61233881612323565b82525050565b7f4e487b7100000000000000000000000000000000000000000000000000000000600052602160045260246000fd5b6004811061237e5761237d61233e565b5b50565b600081905061238f8261236d565b919050565b600061239f82612381565b9050919050565b6123af81612394565b82525050565b60006101008201905081810360008301526123d0818b6122db565b905081810360208301526123e4818a6122db565b90506123f36040830189612314565b6124006060830188612314565b61240d608083018761232f565b61241a60a0830186612314565b61242760c0830185612314565b61243460e08301846123a6565b9998505050505050505050565b600073ffffffffffffffffffffffffffffffffffffffff82169050919050565b600061246c82612441565b9050919050565b61247c81612461565b811461248757600080fd5b50565b60008135905061249981612473565b92915050565b6000602082840312156124b5576124b4612217565b5b60006124c38482850161248a565b91505092915050565b60006020820190506124e16000830184612314565b92915050565b600080fd5b600080fd5b7f4e487b7100000000000000000000000000000000000000000000000000000000600052604160045260246000fd5b612529826122ca565b810181811067ffffffffffffffff82111715612548576125476124f1565b5b80604052505050565b600061255b61220d565b90506125678282612520565b919050565b600067ffffffffffffffff821115612587576125866124f1565b5b612590826122ca565b9050602081019050919050565b82818337600083830152505050565b60006125bf6125ba8461256c565b612551565b9050828152602081018484840111156125db576125da6124ec565b5b6125e684828561259d565b509392505050565b600082601f830112612603576126026124e7565b5b81356126138482602086016125ac565b91505092915050565b6000806040838503121561263357612632612217565b5b600083013567ffffffffffffffff8111156126515761265061221c565b5b61265d858286016125ee565b925050602083013567ffffffffffffffff81111561267e5761267d61221c565b5b61268a858286016125ee565b9150509250929050565b60006020820190506126a9600083018461232f565b92915050565b600081519050919050565b600082825260208201905092915050565b6000819050602082019050919050565b6126e481612221565b82525050565b60006126f683836126db565b60208301905092915050565b6000602082019050919050565b600061271a826126af565b61272481856126ba565b935061272f836126cb565b8060005b8381101561276057815161274788826126ea565b975061275283612702565b925050600181019050612733565b5085935050505092915050565b600081519050919050565b600082825260208201905092915050565b6000819050602082019050919050565b600082825260208201905092915050565b60006127b582612284565b6127bf8185612799565b93506127cf8185602086016122a0565b6127d8816122ca565b840191505092915050565b60006127ef83836127aa565b905092915050565b6000602082019050919050565b600061280f8261276d565b6128198185612778565b93508360208202850161282b85612789565b8060005b85811015612867578484038952815161284885826127e3565b9450612853836127f7565b925060208a0199505060018101905061282f565b50829750879550505050505092915050565b600081519050919050565b600082825260208201905092915050565b6000819050602082019050919050565b6128ae81612323565b82525050565b60006128c083836128a5565b60208301905092915050565b6000602082019050919050565b60006128e482612879565b6128ee8185612884565b93506128f983612895565b8060005b8381101561292a57815161291188826128b4565b975061291c836128cc565b9250506001810190506128fd565b5085935050505092915050565b600060e0820190508181036000830152612951818a61270f565b905081810360208301526129658189612804565b905081810360408301526129798188612804565b9050818103606083015261298d818761270f565b905081810360808301526129a1818661270f565b905081810360a08301526129b581856128d9565b905081810360c08301526129c9818461270f565b905098975050505050505050565b6060820160008201516129ed60008501826128a5565b506020820151612a0060208501826126db565b506040820151612a1360408501826126db565b50505050565b6000606082019050612a2e60008301846129d7565b92915050565b60048110612a4157600080fd5b50565b600081359050612a5381612a34565b92915050565b60008060008060808587031215612a7357612a72612217565b5b600085013567ffffffffffffffff811115612a9157612a9061221c565b5b612a9d878288016125ee565b945050602085013567ffffffffffffffff811115612abe57612abd61221c565b5b612aca878288016125ee565b9350506040612adb87828801612242565b9250506060612aec87828801612a44565b91505092959194509250565b600081519050919050565b600082825260208201905092915050565b6000819050602082019050919050565b606082016000820151612b3a60008501826126db565b506020820151612b4d60208501826128a5565b506040820151612b6060408501826126db565b50505050565b6000612b728383612b24565b60608301905092915050565b6000602082019050919050565b6000612b9682612af8565b612ba08185612b03565b9350612bab83612b14565b8060005b83811015612bdc578151612bc38882612b66565b9750612bce83612b7e565b925050600181019050612baf565b5085935050505092915050565b6000604082019050612bfe6000830185612314565b8181036020830152612c108184612b8b565b90509392505050565b6000604082019050612c2e6000830185612314565b612c3b6020830184612314565b9392505050565b6000606082019050612c57600083018661232f565b612c646020830185612314565b612c716040830184612314565b949350505050565b60008060408385031215612c9057612c8f612217565b5b6000612c9e8582860161248a565b9250506020612caf85828601612242565b9150509250929050565b612cc281612323565b8114612ccd57600080fd5b50565b600081359050612cdf81612cb9565b92915050565b60008060408385031215612cfc57612cfb612217565b5b6000612d0a85828601612242565b9250506020612d1b85828601612cd0565b9150509250929050565b6000606082019050612d3a6000830186612314565b612d47602083018561232f565b612d546040830184612314565b949350505050565b6000819050919050565b6000612d81612d7c612d7784612441565b612d5c565b612441565b9050919050565b6000612d9382612d66565b9050919050565b6000612da582612d88565b9050919050565b612db581612d9a565b82525050565b6000602082019050612dd06000830184612dac565b92915050565b7f4e487b7100000000000000000000000000000000000000000000000000000000600052602260045260246000fd5b60006002820490506001821680612e1d57607f821691505b602082108103612e3057612e2f612dd6565b5b50919050565b7f4f6e6c792061646d696e732063616e20706572666f726d20746869732061637460008201527f696f6e0000000000000000000000000000000000000000000000000000000000602082015250565b6000612e9260238361228f565b9150612e9d82612e36565b604082019050919050565b60006020820190508181036000830152612ec181612e85565b9050919050565b7f4e487b7100000000000000000000000000000000000000000000000000000000600052601160045260246000fd5b6000612f0282612221565b9150612f0d83612221565b9250828201905080821115612f2557612f24612ec8565b5b92915050565b60008190508160005260206000209050919050565b60006020601f8301049050919050565b600082821b905092915050565b600060088302612f8d7fffffffffffffffffffffffffffffffffffffffffffffffffffffffffffffffff82612f50565b612f978683612f50565b95508019841693508086168417925050509392505050565b6000612fca612fc5612fc084612221565b612d5c565b612221565b9050919050565b6000819050919050565b612fe483612faf565b612ff8612ff082612fd1565b848454612f5d565b825550505050565b600090565b61300d613000565b613018818484612fdb565b505050565b5b8181101561303c57613031600082613005565b60018101905061301e565b5050565b601f8211156130815761305281612f2b565b61305b84612f40565b8101602085101561306a578190505b61307e61307685612f40565b83018261301d565b50505b505050565b600082821c905092915050565b60006130a460001984600802613086565b1980831691505092915050565b60006130bd8383613093565b9150826002028217905092915050565b6130d682612284565b67ffffffffffffffff8111156130ef576130ee6124f1565b5b6130f98254612e05565b613104828285613040565b600060209050601f8311600181146131375760008415613125578287015190505b61312f85826130b1565b865550613197565b601f19841661314586612f2b565b60005b8281101561316d57848901518255600182019150602085019450602081019050613148565b8683101561318a5784890151613186601f891682613093565b8355505b6001600288020188555050505b505050505050565b7f4e487b7100000000000000000000000000000000000000000000000000000000600052603260045260246000fd5b60006131d982612221565b91507fffffffffffffffffffffffffffffffffffffffffffffffffffffffffffffffff820361320b5761320a612ec8565b5b600182019050919050565b7f45544820726571756972656420666f72206372656174696e672070726f706f7360008201527f616c000000000000000000000000000000000000000000000000000000000000602082015250565b600061327260228361228f565b915061327d82613216565b604082019050919050565b600060208201905081810360008301526132a181613265565b9050919050565b60006132b382612221565b91506132be83612221565b92508282026132cc81612221565b915082820484148315176132e3576132e2612ec8565b5b5092915050565b60006060820190506132ff6000830186612314565b818103602083015261331181856122db565b90506133206040830184612314565b949350505050565b7f4e487b7100000000000000000000000000000000000000000000000000000000600052601260045260246000fd5b600061336282612221565b915061336d83612221565b92508261337d5761337c613328565b5b828204905092915050565b7f4865792069747320616e2061637469766520766f74696e6720706572696f642c60008201527f20796f752063616e6e6f7420766f7465206e6f772e0000000000000000000000602082015250565b60006133e460358361228f565b91506133ef82613388565b604082019050919050565b60006020820190508181036000830152613413816133d7565b9050919050565b61342381612461565b82525050565b600060408201905061343e600083018561341a565b61344b6020830184612314565b9392505050565b60006080820190506134676000830187612314565b613474602083018661341a565b6134816040830185612314565b61348e606083018461232f565b9594505050505056fea26469706673582212203242c025f5fe3e8db7c8cf58247dbd55462ecc9d1b8e41c220b52b2c617ce22d64736f6c63430008140033",
  "linkReferences": {},
  "deployedLinkReferences": {}
}