{
  "_format": "hh-sol-artifact-1",
  "contractName": "VotingContract",
  "sourceName": "contracts/smartContract.sol",
  "abi": [
    {
      "inputs": [
        {
          "internalType": "address",
          "name": "_tokenAddress",
          "type": "address"
        }
      ],
      "stateMutability": "nonpayable",
      "type": "constructor"
    },
    {
      "anonymous": false,
      "inputs": [
        {
          "indexed": false,
          "internalType": "uint256",
          "name": "proposalId",
          "type": "uint256"
        },
        {
          "indexed": false,
          "internalType": "string",
          "name": "description",
          "type": "string"
        },
        {
          "indexed": false,
          "internalType": "uint256",
          "name": "votingEndTime",
          "type": "uint256"
        }
      ],
      "name": "ProposalCreated",
      "type": "event"
    },
    {
      "anonymous": false,
      "inputs": [
        {
          "indexed": false,
          "internalType": "address",
          "name": "voter",
          "type": "address"
        },
        {
          "indexed": false,
          "internalType": "uint256",
          "name": "rewardAmount",
          "type": "uint256"
        }
      ],
      "name": "RewardIssued",
      "type": "event"
    },
    {
      "anonymous": false,
      "inputs": [
        {
          "indexed": false,
          "internalType": "address",
          "name": "voter",
          "type": "address"
        },
        {
          "indexed": false,
          "internalType": "uint256",
          "name": "newShares",
          "type": "uint256"
        }
      ],
      "name": "SharesUpdated",
      "type": "event"
    },
    {
      "anonymous": false,
      "inputs": [
        {
          "indexed": false,
          "internalType": "uint256",
          "name": "proposalId",
          "type": "uint256"
        },
        {
          "indexed": false,
          "internalType": "address",
          "name": "voter",
          "type": "address"
        },
        {
          "indexed": false,
          "internalType": "uint256",
          "name": "weight",
          "type": "uint256"
        },
        {
          "indexed": false,
          "internalType": "bool",
          "name": "voteFor",
          "type": "bool"
        }
      ],
      "name": "VoteCast",
      "type": "event"
    },
    {
      "inputs": [
        {
          "internalType": "string",
          "name": "title",
          "type": "string"
        },
        {
          "internalType": "string",
          "name": "description",
          "type": "string"
        },
        {
          "internalType": "uint256",
          "name": "durationInMinutes",
          "type": "uint256"
        },
        {
          "internalType": "enum VotingContract.QuorumType",
          "name": "quorumType",
          "type": "uint8"
        }
      ],
      "name": "createProposal",
      "outputs": [],
      "stateMutability": "nonpayable",
      "type": "function"
    },
    {
      "inputs": [
        {
          "internalType": "uint256",
          "name": "proposalId",
          "type": "uint256"
        }
      ],
      "name": "endVoting",
      "outputs": [],
      "stateMutability": "nonpayable",
      "type": "function"
    },
    {
      "inputs": [
        {
          "internalType": "uint256",
          "name": "proposalId",
          "type": "uint256"
        }
      ],
      "name": "getProposalOutcome",
      "outputs": [
        {
          "components": [
            {
              "internalType": "bool",
              "name": "passed",
              "type": "bool"
            },
            {
              "internalType": "uint256",
              "name": "votesFor",
              "type": "uint256"
            },
            {
              "internalType": "uint256",
              "name": "votesAgainst",
              "type": "uint256"
            }
          ],
          "internalType": "struct VotingContract.ProposalOutcome",
          "name": "",
          "type": "tuple"
        }
      ],
      "stateMutability": "view",
      "type": "function"
    },
    {
      "inputs": [],
      "name": "getProposalsCount",
      "outputs": [
        {
          "internalType": "uint256",
          "name": "",
          "type": "uint256"
        }
      ],
      "stateMutability": "view",
      "type": "function"
    },
    {
      "inputs": [
        {
          "internalType": "uint256",
          "name": "proposalId",
          "type": "uint256"
        }
      ],
      "name": "getVotingProgress",
      "outputs": [
        {
          "internalType": "uint256",
          "name": "progress",
          "type": "uint256"
        },
        {
          "internalType": "uint256",
          "name": "requiredQuorum",
          "type": "uint256"
        }
      ],
      "stateMutability": "view",
      "type": "function"
    },
    {
      "inputs": [],
      "name": "governanceToken",
      "outputs": [
        {
          "internalType": "contract GovernanceToken",
          "name": "",
          "type": "address"
        }
      ],
      "stateMutability": "view",
      "type": "function"
    },
    {
      "inputs": [
        {
          "internalType": "uint256",
          "name": "proposalId",
          "type": "uint256"
        }
      ],
      "name": "hasMetQuorum",
      "outputs": [
        {
          "internalType": "bool",
          "name": "",
          "type": "bool"
        }
      ],
      "stateMutability": "view",
      "type": "function"
    },
    {
      "inputs": [],
      "name": "isVotingPeriodActive",
      "outputs": [
        {
          "internalType": "bool",
          "name": "",
          "type": "bool"
        }
      ],
      "stateMutability": "view",
      "type": "function"
    },
    {
      "inputs": [],
      "name": "proposalCount",
      "outputs": [
        {
          "internalType": "uint256",
          "name": "",
          "type": "uint256"
        }
      ],
      "stateMutability": "view",
      "type": "function"
    },
    {
      "inputs": [
        {
          "internalType": "uint256",
          "name": "",
          "type": "uint256"
        }
      ],
      "name": "proposalOutcomes",
      "outputs": [
        {
          "internalType": "bool",
          "name": "passed",
          "type": "bool"
        },
        {
          "internalType": "uint256",
          "name": "votesFor",
          "type": "uint256"
        },
        {
          "internalType": "uint256",
          "name": "votesAgainst",
          "type": "uint256"
        }
      ],
      "stateMutability": "view",
      "type": "function"
    },
    {
      "inputs": [
        {
          "internalType": "uint256",
          "name": "",
          "type": "uint256"
        }
      ],
      "name": "proposals",
      "outputs": [
        {
          "internalType": "string",
          "name": "title",
          "type": "string"
        },
        {
          "internalType": "string",
          "name": "description",
          "type": "string"
        },
        {
          "internalType": "uint256",
          "name": "votesFor",
          "type": "uint256"
        },
        {
          "internalType": "uint256",
          "name": "votesAgainst",
          "type": "uint256"
        },
        {
          "internalType": "bool",
          "name": "active",
          "type": "bool"
        },
        {
          "internalType": "uint256",
          "name": "votingEndTime",
          "type": "uint256"
        },
        {
          "internalType": "uint256",
          "name": "totalVotesCast",
          "type": "uint256"
        },
        {
          "internalType": "enum VotingContract.QuorumType",
          "name": "quorumType",
          "type": "uint8"
        }
      ],
      "stateMutability": "view",
      "type": "function"
    },
    {
      "inputs": [
        {
          "internalType": "address",
          "name": "voter",
          "type": "address"
        },
        {
          "internalType": "uint256",
          "name": "shareCount",
          "type": "uint256"
        }
      ],
      "name": "registerVoter",
      "outputs": [],
      "stateMutability": "nonpayable",
      "type": "function"
    },
    {
      "inputs": [
        {
          "internalType": "address",
          "name": "",
          "type": "address"
        }
      ],
      "name": "shares",
      "outputs": [
        {
          "internalType": "uint256",
          "name": "",
          "type": "uint256"
        }
      ],
      "stateMutability": "view",
      "type": "function"
    },
    {
      "inputs": [],
      "name": "totalShares",
      "outputs": [
        {
          "internalType": "uint256",
          "name": "",
          "type": "uint256"
        }
      ],
      "stateMutability": "view",
      "type": "function"
    },
    {
      "inputs": [
        {
          "internalType": "address",
          "name": "voter",
          "type": "address"
        },
        {
          "internalType": "uint256",
          "name": "newShares",
          "type": "uint256"
        }
      ],
      "name": "updateShares",
      "outputs": [],
      "stateMutability": "nonpayable",
      "type": "function"
    },
    {
      "inputs": [
        {
          "internalType": "uint256",
          "name": "proposalId",
          "type": "uint256"
        },
        {
          "internalType": "bool",
          "name": "voteFor",
          "type": "bool"
        }
      ],
      "name": "vote",
      "outputs": [],
      "stateMutability": "nonpayable",
      "type": "function"
    },
    {
      "inputs": [],
      "name": "votingEndTime",
      "outputs": [
        {
          "internalType": "uint256",
          "name": "",
          "type": "uint256"
        }
      ],
      "stateMutability": "view",
      "type": "function"
    },
    {
      "inputs": [
        {
          "internalType": "address",
          "name": "",
          "type": "address"
        },
        {
          "internalType": "uint256",
          "name": "",
          "type": "uint256"
        }
      ],
      "name": "votingHistory",
      "outputs": [
        {
          "internalType": "uint256",
          "name": "proposalId",
          "type": "uint256"
        },
        {
          "internalType": "bool",
          "name": "votedFor",
          "type": "bool"
        },
        {
          "internalType": "uint256",
          "name": "voteWeight",
          "type": "uint256"
        }
      ],
      "stateMutability": "view",
      "type": "function"
    }
  ],
  "bytecode": "0x608060405234801561001057600080fd5b50604051612117380380612117833981810160405281019061003291906100dc565b80600860006101000a81548173ffffffffffffffffffffffffffffffffffffffff021916908373ffffffffffffffffffffffffffffffffffffffff16021790555050610109565b600080fd5b600073ffffffffffffffffffffffffffffffffffffffff82169050919050565b60006100a98261007e565b9050919050565b6100b98161009e565b81146100c457600080fd5b50565b6000815190506100d6816100b0565b92915050565b6000602082840312156100f2576100f1610079565b5b6000610100848285016100c7565b91505092915050565b611fff806101186000396000f3fe608060405234801561001057600080fd5b50600436106101165760003560e01c80639fcc5ce4116100a2578063ce7c2ac211610071578063ce7c2ac2146102fd578063d09c34f21461032d578063da35c6641461035f578063e5d0821f1461037d578063f96dae0a1461039957610116565b80639fcc5ce414610275578063a9c0310d14610293578063c9d27afe146102c5578063cbea81ef146102e157610116565b80636fdb6f7c116100e95780636fdb6f7c146101aa57806370f6e05d146101da5780637a7c153b146101f657806398e527d3146102265780639baf1c971461024457610116565b8063013cf08b1461011b5780631ea736e0146101525780633a98ef3914610170578063649f89a51461018e575b600080fd5b6101356004803603810190610130919061137f565b6103b7565b6040516101499897969594939291906114dd565b60405180910390f35b61015a610529565b6040516101679190611569565b60405180910390f35b61017861052f565b6040516101859190611569565b60405180910390f35b6101a860048036038101906101a3919061137f565b610535565b005b6101c460048036038101906101bf919061137f565b61078b565b6040516101d191906115e4565b60405180910390f35b6101f460048036038101906101ef9190611759565b6107e7565b005b610210600480360381019061020b919061137f565b6109a2565b60405161021d91906117f8565b60405180910390f35b61022e610b22565b60405161023b9190611569565b60405180910390f35b61025e6004803603810190610259919061137f565b610b2c565b60405161026c929190611813565b60405180910390f35b61027d610e48565b60405161028a91906117f8565b60405180910390f35b6102ad60048036038101906102a8919061137f565b610e5b565b6040516102bc9392919061183c565b60405180910390f35b6102df60048036038101906102da919061189f565b610e92565b005b6102fb60048036038101906102f6919061193d565b611134565b005b6103176004803603810190610312919061197d565b6111e4565b6040516103249190611569565b60405180910390f35b6103476004803603810190610342919061193d565b6111fc565b604051610356939291906119aa565b60405180910390f35b610367611250565b6040516103749190611569565b60405180910390f35b6103976004803603810190610392919061193d565b611256565b005b6103a16112d6565b6040516103ae9190611a40565b60405180910390f35b60016020528060005260406000206000915090508060000180546103da90611a8a565b80601f016020809104026020016040519081016040528092919081815260200182805461040690611a8a565b80156104535780601f1061042857610100808354040283529160200191610453565b820191906000526020600020905b81548152906001019060200180831161043657829003601f168201915b50505050509080600101805461046890611a8a565b80601f016020809104026020016040519081016040528092919081815260200182805461049490611a8a565b80156104e15780601f106104b6576101008083540402835291602001916104e1565b820191906000526020600020905b8154815290600101906020018083116104c457829003601f168201915b5050505050908060020154908060030154908060040160009054906101000a900460ff16908060050154908060060154908060070160009054906101000a900460ff16905088565b60075481565b60055481565b60006001600083815260200190815260200160002060040160006101000a81548160ff0219169083151502179055506000805b6004548110156105b1576001600082815260200190815260200160002060040160009054906101000a900460ff16156105a457600191506105b1565b8080600101915050610568565b50600060016000848152602001908152602001600020600301546001600085815260200190815260200160002060020154119050604051806060016040528082151581526020016001600086815260200190815260200160002060020154815260200160016000868152602001908152602001600020600301548152506003600085815260200190815260200160002060008201518160000160006101000a81548160ff02191690831515021790555060208201518160010155604082015181600201559050506001600084815260200190815260200160002060050154421180156106a357506106a1836109a2565b155b1561076c5760006001600085815260200190815260200160002060040160006101000a81548160ff02191690831515021790555060405180606001604052806000151581526020016001600086815260200190815260200160002060020154815260200160016000868152602001908152602001600020600301548152506003600085815260200190815260200160002060008201518160000160006101000a81548160ff02191690831515021790555060208201518160010155604082015181600201559050505b81600660006101000a81548160ff021916908315150217905550505050565b610793611312565b600360008381526020019081526020016000206040518060600160405290816000820160009054906101000a900460ff16151515158152602001600182015481526020016002820154815250509050919050565b6040518061010001604052808581526020018481526020016000815260200160008152602001600115158152602001603c846108239190611aea565b4261082e9190611b2c565b81526020016000815260200182600381111561084d5761084c611466565b5b815250600160006004548152602001908152602001600020600082015181600001908161087a9190611d02565b5060208201518160010190816108909190611d02565b50604082015181600201556060820151816003015560808201518160040160006101000a81548160ff02191690831515021790555060a0820151816005015560c0820151816006015560e08201518160070160006101000a81548160ff0219169083600381111561090457610903611466565b5b02179055509050506001600660006101000a81548160ff021916908315150217905550603c826109349190611aea565b4261093f9190611b2c565b6007819055507ff5dc0da9afa6d080780a49fd8c680f03d2ddf3c067cd6d0c85360c096644d2d36004548460075460405161097c93929190611dd4565b60405180910390a16004600081548092919061099790611e12565b919050555050505050565b60008060016000848152602001908152602001600020905060008060038111156109cf576109ce611466565b5b8260070160009054906101000a900460ff1660038111156109f3576109f2611466565b5b03610a0e576002600554610a079190611e89565b9050610b11565b60016003811115610a2257610a21611466565b5b8260070160009054906101000a900460ff166003811115610a4657610a45611466565b5b03610a6d5760036002600554610a5c9190611aea565b610a669190611e89565b9050610b10565b60026003811115610a8157610a80611466565b5b8260070160009054906101000a900460ff166003811115610aa557610aa4611466565b5b03610acc5760046003600554610abb9190611aea565b610ac59190611e89565b9050610b0f565b600380811115610adf57610ade611466565b5b8260070160009054906101000a900460ff166003811115610b0357610b02611466565b5b03610b0e5760055490505b5b5b5b808260020154101592505050919050565b6000600454905090565b60008060006001600085815260200190815260200160002060405180610100016040529081600082018054610b6090611a8a565b80601f0160208091040260200160405190810160405280929190818152602001828054610b8c90611a8a565b8015610bd95780601f10610bae57610100808354040283529160200191610bd9565b820191906000526020600020905b815481529060010190602001808311610bbc57829003601f168201915b50505050508152602001600182018054610bf290611a8a565b80601f0160208091040260200160405190810160405280929190818152602001828054610c1e90611a8a565b8015610c6b5780601f10610c4057610100808354040283529160200191610c6b565b820191906000526020600020905b815481529060010190602001808311610c4e57829003601f168201915b5050505050815260200160028201548152602001600382015481526020016004820160009054906101000a900460ff1615151515815260200160058201548152602001600682015481526020016007820160009054906101000a900460ff166003811115610cdc57610cdb611466565b5b6003811115610cee57610ced611466565b5b81525050905060008160c0015190506000600554606483610d0f9190611aea565b610d199190611e89565b905060006003811115610d2f57610d2e611466565b5b8360e001516003811115610d4657610d45611466565b5b03610d61576002600554610d5a9190611e89565b9350610e3d565b60016003811115610d7557610d74611466565b5b8360e001516003811115610d8c57610d8b611466565b5b03610db35760036002600554610da29190611aea565b610dac9190611e89565b9350610e3c565b60026003811115610dc757610dc6611466565b5b8360e001516003811115610dde57610ddd611466565b5b03610e055760046003600554610df49190611aea565b610dfe9190611e89565b9350610e3b565b600380811115610e1857610e17611466565b5b8360e001516003811115610e2f57610e2e611466565b5b03610e3a5760055493505b5b5b5b809450505050915091565b600660009054906101000a900460ff1681565b60036020528060005260406000206000915090508060000160009054906101000a900460ff16908060010154908060020154905083565b60006005546127106000803373ffffffffffffffffffffffffffffffffffffffff1673ffffffffffffffffffffffffffffffffffffffff16815260200190815260200160002054610ee39190611aea565b610eed9190611e89565b90508115610f275780600160008581526020019081526020016000206002016000828254610f1b9190611b2c565b92505081905550610f55565b80600160008581526020019081526020016000206003016000828254610f4d9190611b2c565b925050819055505b80600160008581526020019081526020016000206006016000828254610f7b9190611b2c565b92505081905550600260003373ffffffffffffffffffffffffffffffffffffffff1673ffffffffffffffffffffffffffffffffffffffff168152602001908152602001600020604051806060016040528085815260200184151581526020018381525090806001815401808255809150506001900390600052602060002090600302016000909190919091506000820151816000015560208201518160010160006101000a81548160ff0219169083151502179055506040820151816002015550506000611048826112fc565b9050600860009054906101000a900473ffffffffffffffffffffffffffffffffffffffff1673ffffffffffffffffffffffffffffffffffffffff166340c10f1933836040518363ffffffff1660e01b81526004016110a7929190611ec9565b600060405180830381600087803b1580156110c157600080fd5b505af11580156110d5573d6000803e3d6000fd5b505050507fb898e75d5aac8de2f407e4a683c8d909e832d1e371e3bff0fa3ed934e88d95628433848660405161110e9493929190611ef2565b60405180910390a161111f846109a2565b1561112e5761112d84610535565b5b50505050565b600660009054906101000a900460ff1615611184576040517f08c379a000000000000000000000000000000000000000000000000000000000815260040161117b90611fa9565b60405180910390fd5b806000808473ffffffffffffffffffffffffffffffffffffffff1673ffffffffffffffffffffffffffffffffffffffff1681526020019081526020016000208190555080600560008282546111d99190611b2c565b925050819055505050565b60006020528060005260406000206000915090505481565b6002602052816000526040600020818154811061121857600080fd5b9060005260206000209060030201600091509150508060000154908060010160009054906101000a900460ff16908060020154905083565b60045481565b806000808473ffffffffffffffffffffffffffffffffffffffff1673ffffffffffffffffffffffffffffffffffffffff168152602001908152602001600020819055507fe6382c9ed5c0c33bb05042f73cf6cbe9cb25639f9a711e094ee563bc9cb80e2c82826040516112ca929190611ec9565b60405180910390a15050565b600860009054906101000a900473ffffffffffffffffffffffffffffffffffffffff1681565b600060648261130b9190611e89565b9050919050565b604051806060016040528060001515815260200160008152602001600081525090565b6000604051905090565b600080fd5b600080fd5b6000819050919050565b61135c81611349565b811461136757600080fd5b50565b60008135905061137981611353565b92915050565b6000602082840312156113955761139461133f565b5b60006113a38482850161136a565b91505092915050565b600081519050919050565b600082825260208201905092915050565b60005b838110156113e65780820151818401526020810190506113cb565b60008484015250505050565b6000601f19601f8301169050919050565b600061140e826113ac565b61141881856113b7565b93506114288185602086016113c8565b611431816113f2565b840191505092915050565b61144581611349565b82525050565b60008115159050919050565b6114608161144b565b82525050565b7f4e487b7100000000000000000000000000000000000000000000000000000000600052602160045260246000fd5b600481106114a6576114a5611466565b5b50565b60008190506114b782611495565b919050565b60006114c7826114a9565b9050919050565b6114d7816114bc565b82525050565b60006101008201905081810360008301526114f8818b611403565b9050818103602083015261150c818a611403565b905061151b604083018961143c565b611528606083018861143c565b6115356080830187611457565b61154260a083018661143c565b61154f60c083018561143c565b61155c60e08301846114ce565b9998505050505050505050565b600060208201905061157e600083018461143c565b92915050565b61158d8161144b565b82525050565b61159c81611349565b82525050565b6060820160008201516115b86000850182611584565b5060208201516115cb6020850182611593565b5060408201516115de6040850182611593565b50505050565b60006060820190506115f960008301846115a2565b92915050565b600080fd5b600080fd5b7f4e487b7100000000000000000000000000000000000000000000000000000000600052604160045260246000fd5b611641826113f2565b810181811067ffffffffffffffff821117156116605761165f611609565b5b80604052505050565b6000611673611335565b905061167f8282611638565b919050565b600067ffffffffffffffff82111561169f5761169e611609565b5b6116a8826113f2565b9050602081019050919050565b82818337600083830152505050565b60006116d76116d284611684565b611669565b9050828152602081018484840111156116f3576116f2611604565b5b6116fe8482856116b5565b509392505050565b600082601f83011261171b5761171a6115ff565b5b813561172b8482602086016116c4565b91505092915050565b6004811061174157600080fd5b50565b60008135905061175381611734565b92915050565b600080600080608085870312156117735761177261133f565b5b600085013567ffffffffffffffff81111561179157611790611344565b5b61179d87828801611706565b945050602085013567ffffffffffffffff8111156117be576117bd611344565b5b6117ca87828801611706565b93505060406117db8782880161136a565b92505060606117ec87828801611744565b91505092959194509250565b600060208201905061180d6000830184611457565b92915050565b6000604082019050611828600083018561143c565b611835602083018461143c565b9392505050565b60006060820190506118516000830186611457565b61185e602083018561143c565b61186b604083018461143c565b949350505050565b61187c8161144b565b811461188757600080fd5b50565b60008135905061189981611873565b92915050565b600080604083850312156118b6576118b561133f565b5b60006118c48582860161136a565b92505060206118d58582860161188a565b9150509250929050565b600073ffffffffffffffffffffffffffffffffffffffff82169050919050565b600061190a826118df565b9050919050565b61191a816118ff565b811461192557600080fd5b50565b60008135905061193781611911565b92915050565b600080604083850312156119545761195361133f565b5b600061196285828601611928565b92505060206119738582860161136a565b9150509250929050565b6000602082840312156119935761199261133f565b5b60006119a184828501611928565b91505092915050565b60006060820190506119bf600083018661143c565b6119cc6020830185611457565b6119d9604083018461143c565b949350505050565b6000819050919050565b6000611a06611a016119fc846118df565b6119e1565b6118df565b9050919050565b6000611a18826119eb565b9050919050565b6000611a2a82611a0d565b9050919050565b611a3a81611a1f565b82525050565b6000602082019050611a556000830184611a31565b92915050565b7f4e487b7100000000000000000000000000000000000000000000000000000000600052602260045260246000fd5b60006002820490506001821680611aa257607f821691505b602082108103611ab557611ab4611a5b565b5b50919050565b7f4e487b7100000000000000000000000000000000000000000000000000000000600052601160045260246000fd5b6000611af582611349565b9150611b0083611349565b9250828202611b0e81611349565b91508282048414831517611b2557611b24611abb565b5b5092915050565b6000611b3782611349565b9150611b4283611349565b9250828201905080821115611b5a57611b59611abb565b5b92915050565b60008190508160005260206000209050919050565b60006020601f8301049050919050565b600082821b905092915050565b600060088302611bc27fffffffffffffffffffffffffffffffffffffffffffffffffffffffffffffffff82611b85565b611bcc8683611b85565b95508019841693508086168417925050509392505050565b6000611bff611bfa611bf584611349565b6119e1565b611349565b9050919050565b6000819050919050565b611c1983611be4565b611c2d611c2582611c06565b848454611b92565b825550505050565b600090565b611c42611c35565b611c4d818484611c10565b505050565b5b81811015611c7157611c66600082611c3a565b600181019050611c53565b5050565b601f821115611cb657611c8781611b60565b611c9084611b75565b81016020851015611c9f578190505b611cb3611cab85611b75565b830182611c52565b50505b505050565b600082821c905092915050565b6000611cd960001984600802611cbb565b1980831691505092915050565b6000611cf28383611cc8565b9150826002028217905092915050565b611d0b826113ac565b67ffffffffffffffff811115611d2457611d23611609565b5b611d2e8254611a8a565b611d39828285611c75565b600060209050601f831160018114611d6c5760008415611d5a578287015190505b611d648582611ce6565b865550611dcc565b601f198416611d7a86611b60565b60005b82811015611da257848901518255600182019150602085019450602081019050611d7d565b86831015611dbf5784890151611dbb601f891682611cc8565b8355505b6001600288020188555050505b505050505050565b6000606082019050611de9600083018661143c565b8181036020830152611dfb8185611403565b9050611e0a604083018461143c565b949350505050565b6000611e1d82611349565b91507fffffffffffffffffffffffffffffffffffffffffffffffffffffffffffffffff8203611e4f57611e4e611abb565b5b600182019050919050565b7f4e487b7100000000000000000000000000000000000000000000000000000000600052601260045260246000fd5b6000611e9482611349565b9150611e9f83611349565b925082611eaf57611eae611e5a565b5b828204905092915050565b611ec3816118ff565b82525050565b6000604082019050611ede6000830185611eba565b611eeb602083018461143c565b9392505050565b6000608082019050611f07600083018761143c565b611f146020830186611eba565b611f21604083018561143c565b611f2e6060830184611457565b95945050505050565b7f4865792069747320616e2061637469766520766f74696e6720706572696f642c60008201527f20796f752063616e6e6f7420766f7465206e6f772e0000000000000000000000602082015250565b6000611f936035836113b7565b9150611f9e82611f37565b604082019050919050565b60006020820190508181036000830152611fc281611f86565b905091905056fea2646970667358221220b463102c3097c33e6dfa22946d101c88ffaa271486461e236ba95c1612c63c4964736f6c634300081a0033",
  "linkReferences": {},
  "deployedLinkReferences": {}
}