{
  "_format": "hh-sol-artifact-1",
  "contractName": "VotingContract",
  "sourceName": "contracts/smartContract.sol",
  "abi": [
    {
      "inputs": [
        {
          "internalType": "address[]",
          "name": "initialAdmins",
          "type": "address[]"
        },
        {
          "internalType": "address",
          "name": "_tokenAddress",
          "type": "address"
        }
      ],
      "stateMutability": "nonpayable",
      "type": "constructor"
    },
    {
      "anonymous": false,
      "inputs": [
        {
          "indexed": false,
          "internalType": "uint256",
          "name": "proposalId",
          "type": "uint256"
        },
        {
          "indexed": false,
          "internalType": "string",
          "name": "title",
          "type": "string"
        },
        {
          "indexed": false,
          "internalType": "string",
          "name": "description",
          "type": "string"
        },
        {
          "indexed": false,
          "internalType": "uint256",
          "name": "durationInMinutes",
          "type": "uint256"
        },
        {
          "indexed": false,
          "internalType": "uint8",
          "name": "quorumType",
          "type": "uint8"
        },
        {
          "indexed": false,
          "internalType": "uint256",
          "name": "endTime",
          "type": "uint256"
        },
        {
          "indexed": false,
          "internalType": "address",
          "name": "proposer",
          "type": "address"
        }
      ],
      "name": "ProposalCreated",
      "type": "event"
    },
    {
      "anonymous": false,
      "inputs": [
        {
          "indexed": true,
          "internalType": "uint256",
          "name": "proposalId",
          "type": "uint256"
        }
      ],
      "name": "ProposalDeleted",
      "type": "event"
    },
    {
      "anonymous": false,
      "inputs": [
        {
          "indexed": false,
          "internalType": "address",
          "name": "voter",
          "type": "address"
        },
        {
          "indexed": false,
          "internalType": "uint256",
          "name": "rewardAmount",
          "type": "uint256"
        }
      ],
      "name": "RewardIssued",
      "type": "event"
    },
    {
      "anonymous": false,
      "inputs": [
        {
          "indexed": false,
          "internalType": "address",
          "name": "voter",
          "type": "address"
        },
        {
          "indexed": false,
          "internalType": "uint256",
          "name": "newShares",
          "type": "uint256"
        }
      ],
      "name": "SharesUpdated",
      "type": "event"
    },
    {
      "anonymous": false,
      "inputs": [
        {
          "indexed": false,
          "internalType": "uint256",
          "name": "proposalId",
          "type": "uint256"
        },
        {
          "indexed": false,
          "internalType": "address",
          "name": "voter",
          "type": "address"
        },
        {
          "indexed": false,
          "internalType": "uint256",
          "name": "weight",
          "type": "uint256"
        },
        {
          "indexed": false,
          "internalType": "bool",
          "name": "voteFor",
          "type": "bool"
        }
      ],
      "name": "VoteCast",
      "type": "event"
    },
    {
      "inputs": [
        {
          "internalType": "address",
          "name": "newAdmin",
          "type": "address"
        }
      ],
      "name": "addAdmin",
      "outputs": [],
      "stateMutability": "nonpayable",
      "type": "function"
    },
    {
      "inputs": [
        {
          "internalType": "address",
          "name": "",
          "type": "address"
        }
      ],
      "name": "admins",
      "outputs": [
        {
          "internalType": "bool",
          "name": "",
          "type": "bool"
        }
      ],
      "stateMutability": "view",
      "type": "function"
    },
    {
      "inputs": [
        {
          "internalType": "uint256",
          "name": "proposalId",
          "type": "uint256"
        },
        {
          "internalType": "bool",
          "name": "voteFor",
          "type": "bool"
        }
      ],
      "name": "castVote",
      "outputs": [],
      "stateMutability": "nonpayable",
      "type": "function"
    },
    {
      "inputs": [
        {
          "internalType": "string",
          "name": "title",
          "type": "string"
        },
        {
          "internalType": "string",
          "name": "description",
          "type": "string"
        },
        {
          "internalType": "uint256",
          "name": "durationInMinutes",
          "type": "uint256"
        },
        {
          "internalType": "uint8",
          "name": "quorumType",
          "type": "uint8"
        }
      ],
      "name": "createProposal",
      "outputs": [],
      "stateMutability": "payable",
      "type": "function"
    },
    {
      "inputs": [
        {
          "internalType": "uint256",
          "name": "proposalId",
          "type": "uint256"
        }
      ],
      "name": "deleteProposal",
      "outputs": [],
      "stateMutability": "nonpayable",
      "type": "function"
    },
    {
      "inputs": [
        {
          "internalType": "uint256",
          "name": "proposalId",
          "type": "uint256"
        }
      ],
      "name": "getProposalOutcome",
      "outputs": [
        {
          "components": [
            {
              "internalType": "bool",
              "name": "passed",
              "type": "bool"
            },
            {
              "internalType": "uint256",
              "name": "votesFor",
              "type": "uint256"
            },
            {
              "internalType": "uint256",
              "name": "votesAgainst",
              "type": "uint256"
            }
          ],
          "internalType": "struct VotingContract.ProposalOutcome",
          "name": "",
          "type": "tuple"
        }
      ],
      "stateMutability": "view",
      "type": "function"
    },
    {
      "inputs": [],
      "name": "getProposals",
      "outputs": [
        {
          "components": [
            {
              "internalType": "string",
              "name": "title",
              "type": "string"
            },
            {
              "internalType": "string",
              "name": "description",
              "type": "string"
            },
            {
              "internalType": "uint256",
              "name": "durationInMinutes",
              "type": "uint256"
            },
            {
              "internalType": "uint8",
              "name": "quorumType",
              "type": "uint8"
            },
            {
              "internalType": "uint256",
              "name": "endTime",
              "type": "uint256"
            },
            {
              "internalType": "address",
              "name": "proposer",
              "type": "address"
            },
            {
              "internalType": "bool",
              "name": "active",
              "type": "bool"
            },
            {
              "internalType": "uint256",
              "name": "votesFor",
              "type": "uint256"
            },
            {
              "internalType": "uint256",
              "name": "votesAgainst",
              "type": "uint256"
            }
          ],
          "internalType": "struct VotingContract.Proposal[]",
          "name": "",
          "type": "tuple[]"
        }
      ],
      "stateMutability": "view",
      "type": "function"
    },
    {
      "inputs": [],
      "name": "getProposalsCount",
      "outputs": [
        {
          "internalType": "uint256",
          "name": "",
          "type": "uint256"
        }
      ],
      "stateMutability": "view",
      "type": "function"
    },
    {
      "inputs": [],
      "name": "governanceToken",
      "outputs": [
        {
          "internalType": "contract GovernanceToken",
          "name": "",
          "type": "address"
        }
      ],
      "stateMutability": "view",
      "type": "function"
    },
    {
      "inputs": [
        {
          "internalType": "address",
          "name": "user",
          "type": "address"
        }
      ],
      "name": "isAdmin",
      "outputs": [
        {
          "internalType": "bool",
          "name": "",
          "type": "bool"
        }
      ],
      "stateMutability": "view",
      "type": "function"
    },
    {
      "inputs": [],
      "name": "isVotingPeriodActive",
      "outputs": [
        {
          "internalType": "bool",
          "name": "",
          "type": "bool"
        }
      ],
      "stateMutability": "view",
      "type": "function"
    },
    {
      "inputs": [],
      "name": "proposalCount",
      "outputs": [
        {
          "internalType": "uint256",
          "name": "",
          "type": "uint256"
        }
      ],
      "stateMutability": "view",
      "type": "function"
    },
    {
      "inputs": [
        {
          "internalType": "uint256",
          "name": "",
          "type": "uint256"
        }
      ],
      "name": "proposalOutcomes",
      "outputs": [
        {
          "internalType": "bool",
          "name": "passed",
          "type": "bool"
        },
        {
          "internalType": "uint256",
          "name": "votesFor",
          "type": "uint256"
        },
        {
          "internalType": "uint256",
          "name": "votesAgainst",
          "type": "uint256"
        }
      ],
      "stateMutability": "view",
      "type": "function"
    },
    {
      "inputs": [
        {
          "internalType": "uint256",
          "name": "",
          "type": "uint256"
        }
      ],
      "name": "proposals",
      "outputs": [
        {
          "internalType": "string",
          "name": "title",
          "type": "string"
        },
        {
          "internalType": "string",
          "name": "description",
          "type": "string"
        },
        {
          "internalType": "uint256",
          "name": "durationInMinutes",
          "type": "uint256"
        },
        {
          "internalType": "uint8",
          "name": "quorumType",
          "type": "uint8"
        },
        {
          "internalType": "uint256",
          "name": "endTime",
          "type": "uint256"
        },
        {
          "internalType": "address",
          "name": "proposer",
          "type": "address"
        },
        {
          "internalType": "bool",
          "name": "active",
          "type": "bool"
        },
        {
          "internalType": "uint256",
          "name": "votesFor",
          "type": "uint256"
        },
        {
          "internalType": "uint256",
          "name": "votesAgainst",
          "type": "uint256"
        }
      ],
      "stateMutability": "view",
      "type": "function"
    },
    {
      "inputs": [
        {
          "internalType": "address",
          "name": "voter",
          "type": "address"
        },
        {
          "internalType": "uint256",
          "name": "shareCount",
          "type": "uint256"
        }
      ],
      "name": "registerShareholder",
      "outputs": [],
      "stateMutability": "nonpayable",
      "type": "function"
    },
    {
      "inputs": [
        {
          "internalType": "address",
          "name": "admin",
          "type": "address"
        }
      ],
      "name": "removeAdmin",
      "outputs": [],
      "stateMutability": "nonpayable",
      "type": "function"
    },
    {
      "inputs": [
        {
          "internalType": "address",
          "name": "",
          "type": "address"
        }
      ],
      "name": "shares",
      "outputs": [
        {
          "internalType": "uint256",
          "name": "",
          "type": "uint256"
        }
      ],
      "stateMutability": "view",
      "type": "function"
    },
    {
      "inputs": [],
      "name": "totalShares",
      "outputs": [
        {
          "internalType": "uint256",
          "name": "",
          "type": "uint256"
        }
      ],
      "stateMutability": "view",
      "type": "function"
    },
    {
      "inputs": [
        {
          "internalType": "address",
          "name": "voter",
          "type": "address"
        },
        {
          "internalType": "uint256",
          "name": "newShares",
          "type": "uint256"
        }
      ],
      "name": "updateShares",
      "outputs": [],
      "stateMutability": "nonpayable",
      "type": "function"
    },
    {
      "inputs": [
        {
          "internalType": "address",
          "name": "",
          "type": "address"
        }
      ],
      "name": "voted",
      "outputs": [
        {
          "internalType": "bool",
          "name": "",
          "type": "bool"
        }
      ],
      "stateMutability": "view",
      "type": "function"
    },
    {
      "inputs": [],
      "name": "votingEndTime",
      "outputs": [
        {
          "internalType": "uint256",
          "name": "",
          "type": "uint256"
        }
      ],
      "stateMutability": "view",
      "type": "function"
    },
    {
      "inputs": [
        {
          "internalType": "address",
          "name": "",
          "type": "address"
        },
        {
          "internalType": "uint256",
          "name": "",
          "type": "uint256"
        }
      ],
      "name": "votingHistory",
      "outputs": [
        {
          "internalType": "uint256",
          "name": "proposalId",
          "type": "uint256"
        },
        {
          "internalType": "bool",
          "name": "votedFor",
          "type": "bool"
        },
        {
          "internalType": "uint256",
          "name": "voteWeight",
          "type": "uint256"
        }
      ],
      "stateMutability": "view",
      "type": "function"
    }
  ],
  "bytecode": "0x60806040523480156200001157600080fd5b5060405162002d2f38038062002d2f833981810160405281019062000037919062000307565b80600a60006101000a81548173ffffffffffffffffffffffffffffffffffffffff021916908373ffffffffffffffffffffffffffffffffffffffff16021790555060005b82518110156200011057600160036000858481518110620000a157620000a06200036d565b5b602002602001015173ffffffffffffffffffffffffffffffffffffffff1673ffffffffffffffffffffffffffffffffffffffff16815260200190815260200160002060006101000a81548160ff02191690831515021790555080806200010790620003d5565b9150506200007b565b50505062000422565b6000604051905090565b600080fd5b600080fd5b600080fd5b6000601f19601f8301169050919050565b7f4e487b7100000000000000000000000000000000000000000000000000000000600052604160045260246000fd5b6200017d8262000132565b810181811067ffffffffffffffff821117156200019f576200019e62000143565b5b80604052505050565b6000620001b462000119565b9050620001c2828262000172565b919050565b600067ffffffffffffffff821115620001e557620001e462000143565b5b602082029050602081019050919050565b600080fd5b600073ffffffffffffffffffffffffffffffffffffffff82169050919050565b60006200022882620001fb565b9050919050565b6200023a816200021b565b81146200024657600080fd5b50565b6000815190506200025a816200022f565b92915050565b6000620002776200027184620001c7565b620001a8565b905080838252602082019050602084028301858111156200029d576200029c620001f6565b5b835b81811015620002ca5780620002b5888262000249565b8452602084019350506020810190506200029f565b5050509392505050565b600082601f830112620002ec57620002eb6200012d565b5b8151620002fe84826020860162000260565b91505092915050565b6000806040838503121562000321576200032062000123565b5b600083015167ffffffffffffffff81111562000342576200034162000128565b5b6200035085828601620002d4565b9250506020620003638582860162000249565b9150509250929050565b7f4e487b7100000000000000000000000000000000000000000000000000000000600052603260045260246000fd5b7f4e487b7100000000000000000000000000000000000000000000000000000000600052601160045260246000fd5b6000819050919050565b6000620003e282620003cb565b91507fffffffffffffffffffffffffffffffffffffffffffffffffffffffffffffffff82036200041757620004166200039c565b5b600182019050919050565b6128fd80620004326000396000f3fe6080604052600436106101355760003560e01c80638259d553116100ab578063afafa0cf1161006f578063afafa0cf14610449578063ce7c2ac214610472578063d09c34f2146104af578063da35c664146104ee578063e5d0821f14610519578063f96dae0a1461054257610135565b80638259d5531461034e57806398e527d3146103775780639fcc5ce4146103a2578063a9c0310d146103cd578063aec2ccae1461040c57610135565b80633a98ef39116100fd5780633a98ef3914610239578063429b62e51461026457806362564c48146102a15780636fdb6f7c146102cc578063704802751461030957806370f6e05d1461033257610135565b8063013cf08b1461013a57806315373e3d1461017f5780631785f53c146101a85780631ea736e0146101d157806324d7806c146101fc575b600080fd5b34801561014657600080fd5b50610161600480360381019061015c91906116fc565b61056d565b60405161017699989796959493929190611840565b60405180910390f35b34801561018b57600080fd5b506101a660048036038101906101a19190611907565b610715565b005b3480156101b457600080fd5b506101cf60048036038101906101ca9190611973565b610a73565b005b3480156101dd57600080fd5b506101e6610b5a565b6040516101f391906119a0565b60405180910390f35b34801561020857600080fd5b50610223600480360381019061021e9190611973565b610b60565b60405161023091906119bb565b60405180910390f35b34801561024557600080fd5b5061024e610bb6565b60405161025b91906119a0565b60405180910390f35b34801561027057600080fd5b5061028b60048036038101906102869190611973565b610bbc565b60405161029891906119bb565b60405180910390f35b3480156102ad57600080fd5b506102b6610bdc565b6040516102c39190611bea565b60405180910390f35b3480156102d857600080fd5b506102f360048036038101906102ee91906116fc565b610e16565b6040516103009190611c4e565b60405180910390f35b34801561031557600080fd5b50610330600480360381019061032b9190611973565b610e72565b005b61034c60048036038101906103479190611dca565b610f59565b005b34801561035a57600080fd5b50610375600480360381019061037091906116fc565b6111a0565b005b34801561038357600080fd5b5061038c6113f6565b60405161039991906119a0565b60405180910390f35b3480156103ae57600080fd5b506103b7611400565b6040516103c491906119bb565b60405180910390f35b3480156103d957600080fd5b506103f460048036038101906103ef91906116fc565b611413565b60405161040393929190611e69565b60405180910390f35b34801561041857600080fd5b50610433600480360381019061042e9190611973565b61144a565b60405161044091906119bb565b60405180910390f35b34801561045557600080fd5b50610470600480360381019061046b9190611ea0565b61146a565b005b34801561047e57600080fd5b5061049960048036038101906104949190611973565b61151a565b6040516104a691906119a0565b60405180910390f35b3480156104bb57600080fd5b506104d660048036038101906104d19190611ea0565b611532565b6040516104e593929190611ee0565b60405180910390f35b3480156104fa57600080fd5b50610503611586565b60405161051091906119a0565b60405180910390f35b34801561052557600080fd5b50610540600480360381019061053b9190611ea0565b61158c565b005b34801561054e57600080fd5b5061055761160c565b6040516105649190611f76565b60405180910390f35b6006818154811061057d57600080fd5b90600052602060002090600802016000915090508060000180546105a090611fc0565b80601f01602080910402602001604051908101604052809291908181526020018280546105cc90611fc0565b80156106195780601f106105ee57610100808354040283529160200191610619565b820191906000526020600020905b8154815290600101906020018083116105fc57829003601f168201915b50505050509080600101805461062e90611fc0565b80601f016020809104026020016040519081016040528092919081815260200182805461065a90611fc0565b80156106a75780601f1061067c576101008083540402835291602001916106a7565b820191906000526020600020905b81548152906001019060200180831161068a57829003601f168201915b5050505050908060020154908060030160009054906101000a900460ff16908060040154908060050160009054906101000a900473ffffffffffffffffffffffffffffffffffffffff16908060050160149054906101000a900460ff16908060060154908060070154905089565b600560003373ffffffffffffffffffffffffffffffffffffffff1673ffffffffffffffffffffffffffffffffffffffff16815260200190815260200160002060009054906101000a900460ff16156107a2576040517f08c379a00000000000000000000000000000000000000000000000000000000081526004016107999061203d565b60405180910390fd5b600682815481106107b6576107b561205d565b5b906000526020600020906008020160050160149054906101000a900460ff16610814576040517f08c379a000000000000000000000000000000000000000000000000000000000815260040161080b906120d8565b60405180910390fd5b60008060003373ffffffffffffffffffffffffffffffffffffffff1673ffffffffffffffffffffffffffffffffffffffff1681526020019081526020016000205490506000811161089a576040517f08c379a000000000000000000000000000000000000000000000000000000000815260040161089190612144565b60405180910390fd5b81156108e15780600684815481106108b5576108b461205d565b5b906000526020600020906008020160060160008282546108d59190612193565b9250508190555061091e565b80600684815481106108f6576108f561205d565b5b906000526020600020906008020160070160008282546109169190612193565b925050819055505b600160003373ffffffffffffffffffffffffffffffffffffffff1673ffffffffffffffffffffffffffffffffffffffff168152602001908152602001600020604051806060016040528085815260200184151581526020018381525090806001815401808255809150506001900390600052602060002090600302016000909190919091506000820151816000015560208201518160010160006101000a81548160ff0219169083151502179055506040820151816002015550506001600560003373ffffffffffffffffffffffffffffffffffffffff1673ffffffffffffffffffffffffffffffffffffffff16815260200190815260200160002060006101000a81548160ff0219169083151502179055507fb898e75d5aac8de2f407e4a683c8d909e832d1e371e3bff0fa3ed934e88d956283338385604051610a6694939291906121c7565b60405180910390a1505050565b600360003373ffffffffffffffffffffffffffffffffffffffff1673ffffffffffffffffffffffffffffffffffffffff16815260200190815260200160002060009054906101000a900460ff16610aff576040517f08c379a0000000000000000000000000000000000000000000000000000000008152600401610af69061227e565b60405180910390fd5b6000600360008373ffffffffffffffffffffffffffffffffffffffff1673ffffffffffffffffffffffffffffffffffffffff16815260200190815260200160002060006101000a81548160ff02191690831515021790555050565b60095481565b6000600360008373ffffffffffffffffffffffffffffffffffffffff1673ffffffffffffffffffffffffffffffffffffffff16815260200190815260200160002060009054906101000a900460ff169050919050565b60045481565b60036020528060005260406000206000915054906101000a900460ff1681565b60606006805480602002602001604051908101604052809291908181526020016000905b82821015610e0d578382906000526020600020906008020160405180610120016040529081600082018054610c3490611fc0565b80601f0160208091040260200160405190810160405280929190818152602001828054610c6090611fc0565b8015610cad5780601f10610c8257610100808354040283529160200191610cad565b820191906000526020600020905b815481529060010190602001808311610c9057829003601f168201915b50505050508152602001600182018054610cc690611fc0565b80601f0160208091040260200160405190810160405280929190818152602001828054610cf290611fc0565b8015610d3f5780601f10610d1457610100808354040283529160200191610d3f565b820191906000526020600020905b815481529060010190602001808311610d2257829003601f168201915b50505050508152602001600282015481526020016003820160009054906101000a900460ff1660ff1660ff168152602001600482015481526020016005820160009054906101000a900473ffffffffffffffffffffffffffffffffffffffff1673ffffffffffffffffffffffffffffffffffffffff1673ffffffffffffffffffffffffffffffffffffffff1681526020016005820160149054906101000a900460ff161515151581526020016006820154815260200160078201548152505081526020019060010190610c00565b50505050905090565b610e1e611632565b600260008381526020019081526020016000206040518060600160405290816000820160009054906101000a900460ff16151515158152602001600182015481526020016002820154815250509050919050565b600360003373ffffffffffffffffffffffffffffffffffffffff1673ffffffffffffffffffffffffffffffffffffffff16815260200190815260200160002060009054906101000a900460ff16610efe576040517f08c379a0000000000000000000000000000000000000000000000000000000008152600401610ef59061227e565b60405180910390fd5b6001600360008373ffffffffffffffffffffffffffffffffffffffff1673ffffffffffffffffffffffffffffffffffffffff16815260200190815260200160002060006101000a81548160ff02191690831515021790555050565b670de0b6b3a76400003414610fa3576040517f08c379a0000000000000000000000000000000000000000000000000000000008152600401610f9a90612310565b60405180910390fd5b6000603c83610fb29190612330565b42610fbd9190612193565b905060066040518061012001604052808781526020018681526020018581526020018460ff1681526020018381526020013373ffffffffffffffffffffffffffffffffffffffff1681526020016001151581526020016000815260200160008152509080600181540180825580915050600190039060005260206000209060080201600090919091909150600082015181600001908161105d9190612514565b5060208201518160010190816110739190612514565b506040820151816002015560608201518160030160006101000a81548160ff021916908360ff1602179055506080820151816004015560a08201518160050160006101000a81548173ffffffffffffffffffffffffffffffffffffffff021916908373ffffffffffffffffffffffffffffffffffffffff16021790555060c08201518160050160146101000a81548160ff02191690831515021790555060e08201518160060155610100820151816007015550506000600160068054905061113b91906125e6565b9050600760008154809291906111509061261a565b91905055507f3d7708da99615a873ed0ef5e0b10f8b1bd8e76e197387471a6a8ca12c29da913818787878787336040516111909796959493929190612662565b60405180910390a1505050505050565b600660016006805490506111b491906125e6565b815481106111c5576111c461205d565b5b9060005260206000209060080201600682815481106111e7576111e661205d565b5b90600052602060002090600802016000820181600001908161120991906126f5565b506001820181600101908161121e91906126f5565b50600282015481600201556003820160009054906101000a900460ff168160030160006101000a81548160ff021916908360ff160217905550600482015481600401556005820160009054906101000a900473ffffffffffffffffffffffffffffffffffffffff168160050160006101000a81548173ffffffffffffffffffffffffffffffffffffffff021916908373ffffffffffffffffffffffffffffffffffffffff1602179055506005820160149054906101000a900460ff168160050160146101000a81548160ff0219169083151502179055506006820154816006015560078201548160070155905050600680548061131e5761131d6127dd565b5b6001900381819060005260206000209060080201600080820160006113439190611655565b6001820160006113539190611655565b60028201600090556003820160006101000a81549060ff021916905560048201600090556005820160006101000a81549073ffffffffffffffffffffffffffffffffffffffff02191690556005820160146101000a81549060ff02191690556006820160009055600782016000905550509055807f61c0d93dc2b610877e420b107c8d12e9185e46e04a505da758cc7f7329ae545f60405160405180910390a250565b6000600754905090565b600860009054906101000a900460ff1681565b60026020528060005260406000206000915090508060000160009054906101000a900460ff16908060010154908060020154905083565b60056020528060005260406000206000915054906101000a900460ff1681565b600860009054906101000a900460ff16156114ba576040517f08c379a00000000000000000000000000000000000000000000000000000000081526004016114b19061287e565b60405180910390fd5b806000808473ffffffffffffffffffffffffffffffffffffffff1673ffffffffffffffffffffffffffffffffffffffff16815260200190815260200160002081905550806004600082825461150f9190612193565b925050819055505050565b60006020528060005260406000206000915090505481565b6001602052816000526040600020818154811061154e57600080fd5b9060005260206000209060030201600091509150508060000154908060010160009054906101000a900460ff16908060020154905083565b60075481565b806000808473ffffffffffffffffffffffffffffffffffffffff1673ffffffffffffffffffffffffffffffffffffffff168152602001908152602001600020819055507fe6382c9ed5c0c33bb05042f73cf6cbe9cb25639f9a711e094ee563bc9cb80e2c828260405161160092919061289e565b60405180910390a15050565b600a60009054906101000a900473ffffffffffffffffffffffffffffffffffffffff1681565b604051806060016040528060001515815260200160008152602001600081525090565b50805461166190611fc0565b6000825580601f106116735750611692565b601f0160209004906000526020600020908101906116919190611695565b5b50565b5b808211156116ae576000816000905550600101611696565b5090565b6000604051905090565b600080fd5b600080fd5b6000819050919050565b6116d9816116c6565b81146116e457600080fd5b50565b6000813590506116f6816116d0565b92915050565b600060208284031215611712576117116116bc565b5b6000611720848285016116e7565b91505092915050565b600081519050919050565b600082825260208201905092915050565b60005b83811015611763578082015181840152602081019050611748565b60008484015250505050565b6000601f19601f8301169050919050565b600061178b82611729565b6117958185611734565b93506117a5818560208601611745565b6117ae8161176f565b840191505092915050565b6117c2816116c6565b82525050565b600060ff82169050919050565b6117de816117c8565b82525050565b600073ffffffffffffffffffffffffffffffffffffffff82169050919050565b600061180f826117e4565b9050919050565b61181f81611804565b82525050565b60008115159050919050565b61183a81611825565b82525050565b600061012082019050818103600083015261185b818c611780565b9050818103602083015261186f818b611780565b905061187e604083018a6117b9565b61188b60608301896117d5565b61189860808301886117b9565b6118a560a0830187611816565b6118b260c0830186611831565b6118bf60e08301856117b9565b6118cd6101008301846117b9565b9a9950505050505050505050565b6118e481611825565b81146118ef57600080fd5b50565b600081359050611901816118db565b92915050565b6000806040838503121561191e5761191d6116bc565b5b600061192c858286016116e7565b925050602061193d858286016118f2565b9150509250929050565b61195081611804565b811461195b57600080fd5b50565b60008135905061196d81611947565b92915050565b600060208284031215611989576119886116bc565b5b60006119978482850161195e565b91505092915050565b60006020820190506119b560008301846117b9565b92915050565b60006020820190506119d06000830184611831565b92915050565b600081519050919050565b600082825260208201905092915050565b6000819050602082019050919050565b600082825260208201905092915050565b6000611a1e82611729565b611a288185611a02565b9350611a38818560208601611745565b611a418161176f565b840191505092915050565b611a55816116c6565b82525050565b611a64816117c8565b82525050565b611a7381611804565b82525050565b611a8281611825565b82525050565b6000610120830160008301518482036000860152611aa68282611a13565b91505060208301518482036020860152611ac08282611a13565b9150506040830151611ad56040860182611a4c565b506060830151611ae86060860182611a5b565b506080830151611afb6080860182611a4c565b5060a0830151611b0e60a0860182611a6a565b5060c0830151611b2160c0860182611a79565b5060e0830151611b3460e0860182611a4c565b50610100830151611b49610100860182611a4c565b508091505092915050565b6000611b608383611a88565b905092915050565b6000602082019050919050565b6000611b80826119d6565b611b8a81856119e1565b935083602082028501611b9c856119f2565b8060005b85811015611bd85784840389528151611bb98582611b54565b9450611bc483611b68565b925060208a01995050600181019050611ba0565b50829750879550505050505092915050565b60006020820190508181036000830152611c048184611b75565b905092915050565b606082016000820151611c226000850182611a79565b506020820151611c356020850182611a4c565b506040820151611c486040850182611a4c565b50505050565b6000606082019050611c636000830184611c0c565b92915050565b600080fd5b600080fd5b7f4e487b7100000000000000000000000000000000000000000000000000000000600052604160045260246000fd5b611cab8261176f565b810181811067ffffffffffffffff82111715611cca57611cc9611c73565b5b80604052505050565b6000611cdd6116b2565b9050611ce98282611ca2565b919050565b600067ffffffffffffffff821115611d0957611d08611c73565b5b611d128261176f565b9050602081019050919050565b82818337600083830152505050565b6000611d41611d3c84611cee565b611cd3565b905082815260208101848484011115611d5d57611d5c611c6e565b5b611d68848285611d1f565b509392505050565b600082601f830112611d8557611d84611c69565b5b8135611d95848260208601611d2e565b91505092915050565b611da7816117c8565b8114611db257600080fd5b50565b600081359050611dc481611d9e565b92915050565b60008060008060808587031215611de457611de36116bc565b5b600085013567ffffffffffffffff811115611e0257611e016116c1565b5b611e0e87828801611d70565b945050602085013567ffffffffffffffff811115611e2f57611e2e6116c1565b5b611e3b87828801611d70565b9350506040611e4c878288016116e7565b9250506060611e5d87828801611db5565b91505092959194509250565b6000606082019050611e7e6000830186611831565b611e8b60208301856117b9565b611e9860408301846117b9565b949350505050565b60008060408385031215611eb757611eb66116bc565b5b6000611ec58582860161195e565b9250506020611ed6858286016116e7565b9150509250929050565b6000606082019050611ef560008301866117b9565b611f026020830185611831565b611f0f60408301846117b9565b949350505050565b6000819050919050565b6000611f3c611f37611f32846117e4565b611f17565b6117e4565b9050919050565b6000611f4e82611f21565b9050919050565b6000611f6082611f43565b9050919050565b611f7081611f55565b82525050565b6000602082019050611f8b6000830184611f67565b92915050565b7f4e487b7100000000000000000000000000000000000000000000000000000000600052602260045260246000fd5b60006002820490506001821680611fd857607f821691505b602082108103611feb57611fea611f91565b5b50919050565b7f596f75206861766520616c726561647920766f74656400000000000000000000600082015250565b6000612027601683611734565b915061203282611ff1565b602082019050919050565b600060208201905081810360008301526120568161201a565b9050919050565b7f4e487b7100000000000000000000000000000000000000000000000000000000600052603260045260246000fd5b7f50726f706f73616c206973206e6f742061637469766500000000000000000000600082015250565b60006120c2601683611734565b91506120cd8261208c565b602082019050919050565b600060208201905081810360008301526120f1816120b5565b9050919050565b7f596f75206d75737420686f6c642073686172657320746f20766f746500000000600082015250565b600061212e601c83611734565b9150612139826120f8565b602082019050919050565b6000602082019050818103600083015261215d81612121565b9050919050565b7f4e487b7100000000000000000000000000000000000000000000000000000000600052601160045260246000fd5b600061219e826116c6565b91506121a9836116c6565b92508282019050808211156121c1576121c0612164565b5b92915050565b60006080820190506121dc60008301876117b9565b6121e96020830186611816565b6121f660408301856117b9565b6122036060830184611831565b95945050505050565b7f4f6e6c792061646d696e732063616e20706572666f726d20746869732061637460008201527f696f6e0000000000000000000000000000000000000000000000000000000000602082015250565b6000612268602383611734565b91506122738261220c565b604082019050919050565b600060208201905081810360008301526122978161225b565b9050919050565b7f4d7573742073656e6420312045544820746f2063726561746520612070726f7060008201527f6f73616c00000000000000000000000000000000000000000000000000000000602082015250565b60006122fa602483611734565b91506123058261229e565b604082019050919050565b60006020820190508181036000830152612329816122ed565b9050919050565b600061233b826116c6565b9150612346836116c6565b9250828202612354816116c6565b9150828204841483151761236b5761236a612164565b5b5092915050565b60008190508160005260206000209050919050565b60006020601f8301049050919050565b600082821b905092915050565b6000600883026123d47fffffffffffffffffffffffffffffffffffffffffffffffffffffffffffffffff82612397565b6123de8683612397565b95508019841693508086168417925050509392505050565b600061241161240c612407846116c6565b611f17565b6116c6565b9050919050565b6000819050919050565b61242b836123f6565b61243f61243782612418565b8484546123a4565b825550505050565b600090565b612454612447565b61245f818484612422565b505050565b5b818110156124835761247860008261244c565b600181019050612465565b5050565b601f8211156124c85761249981612372565b6124a284612387565b810160208510156124b1578190505b6124c56124bd85612387565b830182612464565b50505b505050565b600082821c905092915050565b60006124eb600019846008026124cd565b1980831691505092915050565b600061250483836124da565b9150826002028217905092915050565b61251d82611729565b67ffffffffffffffff81111561253657612535611c73565b5b6125408254611fc0565b61254b828285612487565b600060209050601f83116001811461257e576000841561256c578287015190505b61257685826124f8565b8655506125de565b601f19841661258c86612372565b60005b828110156125b45784890151825560018201915060208501945060208101905061258f565b868310156125d157848901516125cd601f8916826124da565b8355505b6001600288020188555050505b505050505050565b60006125f1826116c6565b91506125fc836116c6565b925082820390508181111561261457612613612164565b5b92915050565b6000612625826116c6565b91507fffffffffffffffffffffffffffffffffffffffffffffffffffffffffffffffff820361265757612656612164565b5b600182019050919050565b600060e082019050612677600083018a6117b9565b81810360208301526126898189611780565b9050818103604083015261269d8188611780565b90506126ac60608301876117b9565b6126b960808301866117d5565b6126c660a08301856117b9565b6126d360c0830184611816565b98975050505050505050565b6000815490506126ee81611fc0565b9050919050565b8181036127035750506127db565b61270c826126df565b67ffffffffffffffff81111561272557612724611c73565b5b61272f8254611fc0565b61273a828285612487565b6000601f8311600181146127695760008415612757578287015490505b61276185826124f8565b8655506127d4565b601f19841661277787612372565b965061278286612372565b60005b828110156127aa57848901548255600182019150600185019450602081019050612785565b868310156127c757848901546127c3601f8916826124da565b8355505b6001600288020188555050505b5050505050505b565b7f4e487b7100000000000000000000000000000000000000000000000000000000600052603160045260246000fd5b7f4865792069747320616e2061637469766520766f74696e6720706572696f642c60008201527f20796f752063616e6e6f7420766f7465206e6f772e0000000000000000000000602082015250565b6000612868603583611734565b91506128738261280c565b604082019050919050565b600060208201905081810360008301526128978161285b565b9050919050565b60006040820190506128b36000830185611816565b6128c060208301846117b9565b939250505056fea2646970667358221220e225b8ca78068f73411c79720786d8584743942cc2184317d1b2002cec59d33b64736f6c63430008140033",
  "linkReferences": {},
  "deployedLinkReferences": {}
}