{
  "_format": "hh-sol-artifact-1",
  "contractName": "VotingContract",
  "sourceName": "contracts/smartContract.sol",
  "abi": [
    {
      "inputs": [
        {
          "internalType": "address[]",
          "name": "initialAdmins",
          "type": "address[]"
        },
        {
          "internalType": "address",
          "name": "_tokenAddress",
          "type": "address"
        }
      ],
      "stateMutability": "payable",
      "type": "constructor"
    },
    {
      "anonymous": false,
      "inputs": [
        {
          "indexed": false,
          "internalType": "uint256",
          "name": "proposalId",
          "type": "uint256"
        },
        {
          "indexed": false,
          "internalType": "string",
          "name": "title",
          "type": "string"
        },
        {
          "indexed": false,
          "internalType": "string",
          "name": "description",
          "type": "string"
        },
        {
          "indexed": false,
          "internalType": "uint8",
          "name": "durationInMinutes",
          "type": "uint8"
        },
        {
          "indexed": false,
          "internalType": "uint8",
          "name": "quorumType",
          "type": "uint8"
        },
        {
          "indexed": false,
          "internalType": "uint256",
          "name": "endTime",
          "type": "uint256"
        },
        {
          "indexed": false,
          "internalType": "address",
          "name": "proposer",
          "type": "address"
        }
      ],
      "name": "ProposalCreated",
      "type": "event"
    },
    {
      "anonymous": false,
      "inputs": [
        {
          "indexed": true,
          "internalType": "uint256",
          "name": "proposalId",
          "type": "uint256"
        }
      ],
      "name": "ProposalDeleted",
      "type": "event"
    },
    {
      "anonymous": false,
      "inputs": [
        {
          "indexed": false,
          "internalType": "address",
          "name": "voter",
          "type": "address"
        },
        {
          "indexed": false,
          "internalType": "uint256",
          "name": "rewardAmount",
          "type": "uint256"
        }
      ],
      "name": "RewardIssued",
      "type": "event"
    },
    {
      "anonymous": false,
      "inputs": [
        {
          "indexed": false,
          "internalType": "address",
          "name": "voter",
          "type": "address"
        },
        {
          "indexed": false,
          "internalType": "uint256",
          "name": "newShares",
          "type": "uint256"
        }
      ],
      "name": "SharesUpdated",
      "type": "event"
    },
    {
      "anonymous": false,
      "inputs": [
        {
          "indexed": false,
          "internalType": "uint256",
          "name": "proposalId",
          "type": "uint256"
        },
        {
          "indexed": false,
          "internalType": "address",
          "name": "voter",
          "type": "address"
        },
        {
          "indexed": false,
          "internalType": "uint256",
          "name": "weight",
          "type": "uint256"
        },
        {
          "indexed": false,
          "internalType": "bool",
          "name": "voteFor",
          "type": "bool"
        }
      ],
      "name": "VoteCast",
      "type": "event"
    },
    {
      "stateMutability": "payable",
      "type": "fallback"
    },
    {
      "inputs": [
        {
          "internalType": "address",
          "name": "newAdmin",
          "type": "address"
        }
      ],
      "name": "addAdmin",
      "outputs": [],
      "stateMutability": "nonpayable",
      "type": "function"
    },
    {
      "inputs": [
        {
          "internalType": "uint256",
          "name": "",
          "type": "uint256"
        }
      ],
      "name": "adminAddresses",
      "outputs": [
        {
          "internalType": "address",
          "name": "",
          "type": "address"
        }
      ],
      "stateMutability": "view",
      "type": "function"
    },
    {
      "inputs": [
        {
          "internalType": "address",
          "name": "",
          "type": "address"
        }
      ],
      "name": "admins",
      "outputs": [
        {
          "internalType": "bool",
          "name": "",
          "type": "bool"
        }
      ],
      "stateMutability": "view",
      "type": "function"
    },
    {
      "inputs": [
        {
          "internalType": "uint256",
          "name": "proposalId",
          "type": "uint256"
        },
        {
          "internalType": "bool",
          "name": "voteFor",
          "type": "bool"
        }
      ],
      "name": "castVote",
      "outputs": [],
      "stateMutability": "nonpayable",
      "type": "function"
    },
    {
      "inputs": [
        {
          "internalType": "string",
          "name": "title",
          "type": "string"
        },
        {
          "internalType": "string",
          "name": "description",
          "type": "string"
        },
        {
          "internalType": "uint8",
          "name": "durationInMinutes",
          "type": "uint8"
        },
        {
          "internalType": "uint8",
          "name": "quorumType",
          "type": "uint8"
        }
      ],
      "name": "createProposal",
      "outputs": [],
      "stateMutability": "payable",
      "type": "function"
    },
    {
      "inputs": [
        {
          "internalType": "uint8",
          "name": "proposalId",
          "type": "uint8"
        }
      ],
      "name": "deleteProposal",
      "outputs": [],
      "stateMutability": "nonpayable",
      "type": "function"
    },
    {
      "inputs": [],
      "name": "getAdmins",
      "outputs": [
        {
          "internalType": "address[]",
          "name": "",
          "type": "address[]"
        }
      ],
      "stateMutability": "view",
      "type": "function"
    },
    {
      "inputs": [
        {
          "internalType": "uint256",
          "name": "proposalId",
          "type": "uint256"
        }
      ],
      "name": "getProposalOutcome",
      "outputs": [
        {
          "components": [
            {
              "internalType": "bool",
              "name": "passed",
              "type": "bool"
            },
            {
              "internalType": "uint256",
              "name": "votesFor",
              "type": "uint256"
            },
            {
              "internalType": "uint256",
              "name": "votesAgainst",
              "type": "uint256"
            }
          ],
          "internalType": "struct VotingContract.ProposalOutcome",
          "name": "",
          "type": "tuple"
        }
      ],
      "stateMutability": "view",
      "type": "function"
    },
    {
      "inputs": [],
      "name": "getProposals",
      "outputs": [
        {
          "components": [
            {
              "internalType": "string",
              "name": "title",
              "type": "string"
            },
            {
              "internalType": "string",
              "name": "description",
              "type": "string"
            },
            {
              "internalType": "uint8",
              "name": "durationInMinutes",
              "type": "uint8"
            },
            {
              "internalType": "uint8",
              "name": "quorumType",
              "type": "uint8"
            },
            {
              "internalType": "uint256",
              "name": "endTime",
              "type": "uint256"
            },
            {
              "internalType": "address",
              "name": "proposer",
              "type": "address"
            },
            {
              "internalType": "bool",
              "name": "active",
              "type": "bool"
            },
            {
              "internalType": "uint256",
              "name": "votesFor",
              "type": "uint256"
            },
            {
              "internalType": "uint256",
              "name": "votesAgainst",
              "type": "uint256"
            }
          ],
          "internalType": "struct VotingContract.Proposal[]",
          "name": "",
          "type": "tuple[]"
        }
      ],
      "stateMutability": "view",
      "type": "function"
    },
    {
      "inputs": [],
      "name": "getProposalsCount",
      "outputs": [
        {
          "internalType": "uint8",
          "name": "",
          "type": "uint8"
        }
      ],
      "stateMutability": "view",
      "type": "function"
    },
    {
      "inputs": [
        {
          "internalType": "address",
          "name": "account",
          "type": "address"
        }
      ],
      "name": "getTokens",
      "outputs": [
        {
          "internalType": "uint256",
          "name": "",
          "type": "uint256"
        }
      ],
      "stateMutability": "view",
      "type": "function"
    },
    {
      "inputs": [
        {
          "internalType": "address",
          "name": "user",
          "type": "address"
        }
      ],
      "name": "isAdmin",
      "outputs": [
        {
          "internalType": "bool",
          "name": "",
          "type": "bool"
        }
      ],
      "stateMutability": "view",
      "type": "function"
    },
    {
      "inputs": [
        {
          "internalType": "uint256",
          "name": "proposalId",
          "type": "uint256"
        }
      ],
      "name": "isProposalActive",
      "outputs": [
        {
          "internalType": "bool",
          "name": "",
          "type": "bool"
        }
      ],
      "stateMutability": "view",
      "type": "function"
    },
    {
      "inputs": [],
      "name": "isVotingPeriodActive",
      "outputs": [
        {
          "internalType": "bool",
          "name": "",
          "type": "bool"
        }
      ],
      "stateMutability": "view",
      "type": "function"
    },
    {
      "inputs": [],
      "name": "proposalCount",
      "outputs": [
        {
          "internalType": "uint8",
          "name": "",
          "type": "uint8"
        }
      ],
      "stateMutability": "view",
      "type": "function"
    },
    {
      "inputs": [
        {
          "internalType": "uint256",
          "name": "",
          "type": "uint256"
        }
      ],
      "name": "proposalOutcomes",
      "outputs": [
        {
          "internalType": "bool",
          "name": "passed",
          "type": "bool"
        },
        {
          "internalType": "uint256",
          "name": "votesFor",
          "type": "uint256"
        },
        {
          "internalType": "uint256",
          "name": "votesAgainst",
          "type": "uint256"
        }
      ],
      "stateMutability": "view",
      "type": "function"
    },
    {
      "inputs": [
        {
          "internalType": "uint256",
          "name": "",
          "type": "uint256"
        }
      ],
      "name": "proposals",
      "outputs": [
        {
          "internalType": "string",
          "name": "title",
          "type": "string"
        },
        {
          "internalType": "string",
          "name": "description",
          "type": "string"
        },
        {
          "internalType": "uint8",
          "name": "durationInMinutes",
          "type": "uint8"
        },
        {
          "internalType": "uint8",
          "name": "quorumType",
          "type": "uint8"
        },
        {
          "internalType": "uint256",
          "name": "endTime",
          "type": "uint256"
        },
        {
          "internalType": "address",
          "name": "proposer",
          "type": "address"
        },
        {
          "internalType": "bool",
          "name": "active",
          "type": "bool"
        },
        {
          "internalType": "uint256",
          "name": "votesFor",
          "type": "uint256"
        },
        {
          "internalType": "uint256",
          "name": "votesAgainst",
          "type": "uint256"
        }
      ],
      "stateMutability": "view",
      "type": "function"
    },
    {
      "inputs": [
        {
          "internalType": "address",
          "name": "account",
          "type": "address"
        },
        {
          "internalType": "uint256",
          "name": "_shares",
          "type": "uint256"
        }
      ],
      "name": "registerShareholder",
      "outputs": [],
      "stateMutability": "nonpayable",
      "type": "function"
    },
    {
      "inputs": [
        {
          "internalType": "address",
          "name": "admin",
          "type": "address"
        }
      ],
      "name": "removeAdmin",
      "outputs": [],
      "stateMutability": "nonpayable",
      "type": "function"
    },
    {
      "inputs": [
        {
          "internalType": "address",
          "name": "",
          "type": "address"
        }
      ],
      "name": "shares",
      "outputs": [
        {
          "internalType": "uint256",
          "name": "",
          "type": "uint256"
        }
      ],
      "stateMutability": "view",
      "type": "function"
    },
    {
      "inputs": [
        {
          "internalType": "address",
          "name": "",
          "type": "address"
        }
      ],
      "name": "tokens",
      "outputs": [
        {
          "internalType": "uint256",
          "name": "",
          "type": "uint256"
        }
      ],
      "stateMutability": "view",
      "type": "function"
    },
    {
      "inputs": [
        {
          "internalType": "address",
          "name": "voter",
          "type": "address"
        },
        {
          "internalType": "uint256",
          "name": "newShares",
          "type": "uint256"
        }
      ],
      "name": "updateShares",
      "outputs": [],
      "stateMutability": "nonpayable",
      "type": "function"
    },
    {
      "inputs": [
        {
          "internalType": "uint256",
          "name": "",
          "type": "uint256"
        },
        {
          "internalType": "address",
          "name": "",
          "type": "address"
        }
      ],
      "name": "voted",
      "outputs": [
        {
          "internalType": "bool",
          "name": "",
          "type": "bool"
        }
      ],
      "stateMutability": "view",
      "type": "function"
    },
    {
      "inputs": [],
      "name": "votingEndTime",
      "outputs": [
        {
          "internalType": "uint256",
          "name": "",
          "type": "uint256"
        }
      ],
      "stateMutability": "view",
      "type": "function"
    },
    {
      "inputs": [
        {
          "internalType": "address",
          "name": "",
          "type": "address"
        },
        {
          "internalType": "uint256",
          "name": "",
          "type": "uint256"
        }
      ],
      "name": "votingHistory",
      "outputs": [
        {
          "internalType": "uint256",
          "name": "proposalId",
          "type": "uint256"
        },
        {
          "internalType": "bool",
          "name": "votedFor",
          "type": "bool"
        },
        {
          "internalType": "uint256",
          "name": "voteWeight",
          "type": "uint256"
        }
      ],
      "stateMutability": "view",
      "type": "function"
    },
    {
      "stateMutability": "payable",
      "type": "receive"
    }
  ],
  "bytecode": "0x60806040526040516130a23803806130a2833981810160405281019061002591906103fe565b670de0b6b3a7640000341015610070576040517f08c379a0000000000000000000000000000000000000000000000000000000008152600401610067906104dd565b60405180910390fd5b60008251116100b4576040517f08c379a00000000000000000000000000000000000000000000000000000000081526004016100ab90610549565b60405180910390fd5b600073ffffffffffffffffffffffffffffffffffffffff168173ffffffffffffffffffffffffffffffffffffffff1603610123576040517f08c379a000000000000000000000000000000000000000000000000000000000815260040161011a906105b5565b60405180910390fd5b60005b825181101561022b57600160046000858481518110610148576101476105d5565b5b602002602001015173ffffffffffffffffffffffffffffffffffffffff1673ffffffffffffffffffffffffffffffffffffffff16815260200190815260200160002060006101000a81548160ff02191690831515021790555060068382815181106101b6576101b56105d5565b5b60200260200101519080600181540180825580915050600190039060005260206000200160009091909190916101000a81548173ffffffffffffffffffffffffffffffffffffffff021916908373ffffffffffffffffffffffffffffffffffffffff1602179055508080600101915050610126565b505050610604565b6000604051905090565b600080fd5b600080fd5b600080fd5b6000601f19601f8301169050919050565b7f4e487b7100000000000000000000000000000000000000000000000000000000600052604160045260246000fd5b6102958261024c565b810181811067ffffffffffffffff821117156102b4576102b361025d565b5b80604052505050565b60006102c7610233565b90506102d3828261028c565b919050565b600067ffffffffffffffff8211156102f3576102f261025d565b5b602082029050602081019050919050565b600080fd5b600073ffffffffffffffffffffffffffffffffffffffff82169050919050565b600061033482610309565b9050919050565b61034481610329565b811461034f57600080fd5b50565b6000815190506103618161033b565b92915050565b600061037a610375846102d8565b6102bd565b9050808382526020820190506020840283018581111561039d5761039c610304565b5b835b818110156103c657806103b28882610352565b84526020840193505060208101905061039f565b5050509392505050565b600082601f8301126103e5576103e4610247565b5b81516103f5848260208601610367565b91505092915050565b600080604083850312156104155761041461023d565b5b600083015167ffffffffffffffff81111561043357610432610242565b5b61043f858286016103d0565b925050602061045085828601610352565b9150509250929050565b600082825260208201905092915050565b7f596f75206d7573742073656e64206174206c6561737420312045544820746f2060008201527f6465706c6f792074686520636f6e747261637400000000000000000000000000602082015250565b60006104c760338361045a565b91506104d28261046b565b604082019050919050565b600060208201905081810360008301526104f6816104ba565b9050919050565b7f496e697469616c2061646d696e73207265717569726564000000000000000000600082015250565b600061053360178361045a565b915061053e826104fd565b602082019050919050565b6000602082019050818103600083015261056281610526565b9050919050565b7f496e76616c696420746f6b656e20616464726573730000000000000000000000600082015250565b600061059f60158361045a565b91506105aa82610569565b602082019050919050565b600060208201905081810360008301526105ce81610592565b9050919050565b7f4e487b7100000000000000000000000000000000000000000000000000000000600052603260045260246000fd5b612a8f806106136000396000f3fe60806040526004361061016a5760003560e01c80636fdb6f7c116100d1578063ba44eecf1161008a578063d70b8e7e11610064578063d70b8e7e146105c2578063da35c664146105de578063e486033914610609578063e5d0821f1461064657610171565b8063ba44eecf14610509578063ce7c2ac214610546578063d09c34f21461058357610171565b80636fdb6f7c146103e5578063704802751461042257806398e527d31461044b5780639fcc5ce414610476578063a9c0310d146104a1578063afafa0cf146104e057610171565b806331ae450b1161012357806331ae450b146102af57806334bdcdd7146102da578063429b62e514610303578063450efe21146103405780635277b4ae1461037d57806362564c48146103ba57610171565b8063013cf08b1461017357806315373e3d146101b8578063164b3d2f146101e15780631785f53c1461021e5780631ea736e01461024757806324d7806c1461027257610171565b3661017157005b005b34801561017f57600080fd5b5061019a600480360381019061019591906118cf565b61066f565b6040516101af99989796959493929190611a13565b60405180910390f35b3480156101c457600080fd5b506101df60048036038101906101da9190611ada565b610824565b005b3480156101ed57600080fd5b50610208600480360381019061020391906118cf565b610ba4565b6040516102159190611b1a565b60405180910390f35b34801561022a57600080fd5b5061024560048036038101906102409190611b61565b610be0565b005b34801561025357600080fd5b5061025c610cc7565b6040516102699190611b8e565b60405180910390f35b34801561027e57600080fd5b5061029960048036038101906102949190611b61565b610ccd565b6040516102a69190611b1a565b60405180910390f35b3480156102bb57600080fd5b506102c4610d23565b6040516102d19190611c67565b60405180910390f35b3480156102e657600080fd5b5061030160048036038101906102fc9190611cb5565b610db1565b005b34801561030f57600080fd5b5061032a60048036038101906103259190611b61565b610f70565b6040516103379190611b1a565b60405180910390f35b34801561034c57600080fd5b5061036760048036038101906103629190611b61565b610f90565b6040516103749190611b8e565b60405180910390f35b34801561038957600080fd5b506103a4600480360381019061039f9190611ce2565b610fd9565b6040516103b19190611b1a565b60405180910390f35b3480156103c657600080fd5b506103cf611008565b6040516103dc9190611f27565b60405180910390f35b3480156103f157600080fd5b5061040c600480360381019061040791906118cf565b611255565b6040516104199190611f8b565b60405180910390f35b34801561042e57600080fd5b5061044960048036038101906104449190611b61565b6112b1565b005b34801561045757600080fd5b50610460611398565b60405161046d9190611fa6565b60405180910390f35b34801561048257600080fd5b5061048b6113af565b6040516104989190611b1a565b60405180910390f35b3480156104ad57600080fd5b506104c860048036038101906104c391906118cf565b6113c2565b6040516104d793929190611fc1565b60405180910390f35b3480156104ec57600080fd5b5061050760048036038101906105029190611ff8565b6113f9565b005b34801561051557600080fd5b50610530600480360381019061052b91906118cf565b611484565b60405161053d9190612038565b60405180910390f35b34801561055257600080fd5b5061056d60048036038101906105689190611b61565b6114c3565b60405161057a9190611b8e565b60405180910390f35b34801561058f57600080fd5b506105aa60048036038101906105a59190611ff8565b6114db565b6040516105b993929190612053565b60405180910390f35b6105dc60048036038101906105d791906121bf565b61152f565b005b3480156105ea57600080fd5b506105f36117b7565b6040516106009190611fa6565b60405180910390f35b34801561061557600080fd5b50610630600480360381019061062b9190611b61565b6117ca565b60405161063d9190611b8e565b60405180910390f35b34801561065257600080fd5b5061066d60048036038101906106689190611ff8565b6117e2565b005b6007818154811061067f57600080fd5b90600052602060002090600702016000915090508060000180546106a29061228d565b80601f01602080910402602001604051908101604052809291908181526020018280546106ce9061228d565b801561071b5780601f106106f05761010080835404028352916020019161071b565b820191906000526020600020905b8154815290600101906020018083116106fe57829003601f168201915b5050505050908060010180546107309061228d565b80601f016020809104026020016040519081016040528092919081815260200182805461075c9061228d565b80156107a95780601f1061077e576101008083540402835291602001916107a9565b820191906000526020600020905b81548152906001019060200180831161078c57829003601f168201915b5050505050908060020160009054906101000a900460ff16908060020160019054906101000a900460ff16908060030154908060040160009054906101000a900473ffffffffffffffffffffffffffffffffffffffff16908060040160149054906101000a900460ff16908060050154908060060154905089565b6005600083815260200190815260200160002060003373ffffffffffffffffffffffffffffffffffffffff1673ffffffffffffffffffffffffffffffffffffffff16815260200190815260200160002060009054906101000a900460ff16156108c2576040517f08c379a00000000000000000000000000000000000000000000000000000000081526004016108b99061230a565b60405180910390fd5b600782815481106108d6576108d561232a565b5b906000526020600020906007020160040160149054906101000a900460ff16610934576040517f08c379a000000000000000000000000000000000000000000000000000000000815260040161092b906123a5565b60405180910390fd5b60008060003373ffffffffffffffffffffffffffffffffffffffff1673ffffffffffffffffffffffffffffffffffffffff168152602001908152602001600020549050600081116109ba576040517f08c379a00000000000000000000000000000000000000000000000000000000081526004016109b190612411565b60405180910390fd5b8115610a015780600784815481106109d5576109d461232a565b5b906000526020600020906007020160050160008282546109f59190612460565b92505081905550610a3e565b8060078481548110610a1657610a1561232a565b5b90600052602060002090600702016006016000828254610a369190612460565b925050819055505b600260003373ffffffffffffffffffffffffffffffffffffffff1673ffffffffffffffffffffffffffffffffffffffff168152602001908152602001600020604051806060016040528085815260200184151581526020018381525090806001815401808255809150506001900390600052602060002090600302016000909190919091506000820151816000015560208201518160010160006101000a81548160ff02191690831515021790555060408201518160020155505060016005600085815260200190815260200160002060003373ffffffffffffffffffffffffffffffffffffffff1673ffffffffffffffffffffffffffffffffffffffff16815260200190815260200160002060006101000a81548160ff0219169083151502179055507fb898e75d5aac8de2f407e4a683c8d909e832d1e371e3bff0fa3ed934e88d956283338385604051610b979493929190612494565b60405180910390a1505050565b600060078281548110610bba57610bb961232a565b5b906000526020600020906007020160040160149054906101000a900460ff169050919050565b600460003373ffffffffffffffffffffffffffffffffffffffff1673ffffffffffffffffffffffffffffffffffffffff16815260200190815260200160002060009054906101000a900460ff16610c6c576040517f08c379a0000000000000000000000000000000000000000000000000000000008152600401610c639061254b565b60405180910390fd5b6000600460008373ffffffffffffffffffffffffffffffffffffffff1673ffffffffffffffffffffffffffffffffffffffff16815260200190815260200160002060006101000a81548160ff02191690831515021790555050565b60095481565b6000600460008373ffffffffffffffffffffffffffffffffffffffff1673ffffffffffffffffffffffffffffffffffffffff16815260200190815260200160002060009054906101000a900460ff169050919050565b60606006805480602002602001604051908101604052809291908181526020018280548015610da757602002820191906000526020600020905b8160009054906101000a900473ffffffffffffffffffffffffffffffffffffffff1673ffffffffffffffffffffffffffffffffffffffff1681526020019060010190808311610d5d575b5050505050905090565b600460003373ffffffffffffffffffffffffffffffffffffffff1673ffffffffffffffffffffffffffffffffffffffff16815260200190815260200160002060009054906101000a900460ff16610e3d576040517f08c379a0000000000000000000000000000000000000000000000000000000008152600401610e349061254b565b60405180910390fd5b6007805490508160ff1610610e87576040517f08c379a0000000000000000000000000000000000000000000000000000000008152600401610e7e906125b7565b60405180910390fd5b60078160ff1681548110610e9e57610e9d61232a565b5b906000526020600020906007020160040160149054906101000a900460ff16610efc576040517f08c379a0000000000000000000000000000000000000000000000000000000008152600401610ef3906123a5565b60405180910390fd5b8060ff167f61c0d93dc2b610877e420b107c8d12e9185e46e04a505da758cc7f7329ae545f60405160405180910390a2600060078260ff1681548110610f4557610f4461232a565b5b906000526020600020906007020160040160146101000a81548160ff02191690831515021790555050565b60046020528060005260406000206000915054906101000a900460ff1681565b6000600160008373ffffffffffffffffffffffffffffffffffffffff1673ffffffffffffffffffffffffffffffffffffffff168152602001908152602001600020549050919050565b60056020528160005260406000206020528060005260406000206000915091509054906101000a900460ff1681565b60606007805480602002602001604051908101604052809291908181526020016000905b8282101561124c5783829060005260206000209060070201604051806101200160405290816000820180546110609061228d565b80601f016020809104026020016040519081016040528092919081815260200182805461108c9061228d565b80156110d95780601f106110ae576101008083540402835291602001916110d9565b820191906000526020600020905b8154815290600101906020018083116110bc57829003601f168201915b505050505081526020016001820180546110f29061228d565b80601f016020809104026020016040519081016040528092919081815260200182805461111e9061228d565b801561116b5780601f106111405761010080835404028352916020019161116b565b820191906000526020600020905b81548152906001019060200180831161114e57829003601f168201915b505050505081526020016002820160009054906101000a900460ff1660ff1660ff1681526020016002820160019054906101000a900460ff1660ff1660ff168152602001600382015481526020016004820160009054906101000a900473ffffffffffffffffffffffffffffffffffffffff1673ffffffffffffffffffffffffffffffffffffffff1673ffffffffffffffffffffffffffffffffffffffff1681526020016004820160149054906101000a900460ff16151515158152602001600582015481526020016006820154815250508152602001906001019061102c565b50505050905090565b61125d611862565b600360008381526020019081526020016000206040518060600160405290816000820160009054906101000a900460ff16151515158152602001600182015481526020016002820154815250509050919050565b600460003373ffffffffffffffffffffffffffffffffffffffff1673ffffffffffffffffffffffffffffffffffffffff16815260200190815260200160002060009054906101000a900460ff1661133d576040517f08c379a00000000000000000000000000000000000000000000000000000000081526004016113349061254b565b60405180910390fd5b6001600460008373ffffffffffffffffffffffffffffffffffffffff1673ffffffffffffffffffffffffffffffffffffffff16815260200190815260200160002060006101000a81548160ff02191690831515021790555050565b6000600860009054906101000a900460ff16905090565b600860019054906101000a900460ff1681565b60036020528060005260406000206000915090508060000160009054906101000a900460ff16908060010154908060020154905083565b806000808473ffffffffffffffffffffffffffffffffffffffff1673ffffffffffffffffffffffffffffffffffffffff1681526020019081526020016000208190555080600160008473ffffffffffffffffffffffffffffffffffffffff1673ffffffffffffffffffffffffffffffffffffffff168152602001908152602001600020819055505050565b6006818154811061149457600080fd5b906000526020600020016000915054906101000a900473ffffffffffffffffffffffffffffffffffffffff1681565b60006020528060005260406000206000915090505481565b600260205281600052604060002081815481106114f757600080fd5b9060005260206000209060030201600091509150508060000154908060010160009054906101000a900460ff16908060020154905083565b670de0b6b3a76400003414611579576040517f08c379a000000000000000000000000000000000000000000000000000000000815260040161157090612649565b60405180910390fd5b6000603c836115889190612669565b60ff16426115969190612460565b905060076040518061012001604052808781526020018681526020018560ff1681526020018460ff1681526020018381526020013373ffffffffffffffffffffffffffffffffffffffff168152602001600115158152602001600081526020016000815250908060018154018082558091505060019003906000526020600020906007020160009091909190915060008201518160000190816116399190612852565b50602082015181600101908161164f9190612852565b5060408201518160020160006101000a81548160ff021916908360ff16021790555060608201518160020160016101000a81548160ff021916908360ff1602179055506080820151816003015560a08201518160040160006101000a81548173ffffffffffffffffffffffffffffffffffffffff021916908373ffffffffffffffffffffffffffffffffffffffff16021790555060c08201518160040160146101000a81548160ff02191690831515021790555060e08201518160050155610100820151816006015550506008600081819054906101000a900460ff168092919061173990612924565b91906101000a81548160ff021916908360ff160217905550507f21f74685a93242ae0e358e8ff84a7b085919a1daa28f1f2389bc009727898b236001600860009054906101000a900460ff1661178f919061294d565b8686868686336040516117a897969594939291906129b3565b60405180910390a15050505050565b600860009054906101000a900460ff1681565b60016020528060005260406000206000915090505481565b806000808473ffffffffffffffffffffffffffffffffffffffff1673ffffffffffffffffffffffffffffffffffffffff168152602001908152602001600020819055507fe6382c9ed5c0c33bb05042f73cf6cbe9cb25639f9a711e094ee563bc9cb80e2c8282604051611856929190612a30565b60405180910390a15050565b604051806060016040528060001515815260200160008152602001600081525090565b6000604051905090565b600080fd5b600080fd5b6000819050919050565b6118ac81611899565b81146118b757600080fd5b50565b6000813590506118c9816118a3565b92915050565b6000602082840312156118e5576118e461188f565b5b60006118f3848285016118ba565b91505092915050565b600081519050919050565b600082825260208201905092915050565b60005b8381101561193657808201518184015260208101905061191b565b60008484015250505050565b6000601f19601f8301169050919050565b600061195e826118fc565b6119688185611907565b9350611978818560208601611918565b61198181611942565b840191505092915050565b600060ff82169050919050565b6119a28161198c565b82525050565b6119b181611899565b82525050565b600073ffffffffffffffffffffffffffffffffffffffff82169050919050565b60006119e2826119b7565b9050919050565b6119f2816119d7565b82525050565b60008115159050919050565b611a0d816119f8565b82525050565b6000610120820190508181036000830152611a2e818c611953565b90508181036020830152611a42818b611953565b9050611a51604083018a611999565b611a5e6060830189611999565b611a6b60808301886119a8565b611a7860a08301876119e9565b611a8560c0830186611a04565b611a9260e08301856119a8565b611aa06101008301846119a8565b9a9950505050505050505050565b611ab7816119f8565b8114611ac257600080fd5b50565b600081359050611ad481611aae565b92915050565b60008060408385031215611af157611af061188f565b5b6000611aff858286016118ba565b9250506020611b1085828601611ac5565b9150509250929050565b6000602082019050611b2f6000830184611a04565b92915050565b611b3e816119d7565b8114611b4957600080fd5b50565b600081359050611b5b81611b35565b92915050565b600060208284031215611b7757611b7661188f565b5b6000611b8584828501611b4c565b91505092915050565b6000602082019050611ba360008301846119a8565b92915050565b600081519050919050565b600082825260208201905092915050565b6000819050602082019050919050565b611bde816119d7565b82525050565b6000611bf08383611bd5565b60208301905092915050565b6000602082019050919050565b6000611c1482611ba9565b611c1e8185611bb4565b9350611c2983611bc5565b8060005b83811015611c5a578151611c418882611be4565b9750611c4c83611bfc565b925050600181019050611c2d565b5085935050505092915050565b60006020820190508181036000830152611c818184611c09565b905092915050565b611c928161198c565b8114611c9d57600080fd5b50565b600081359050611caf81611c89565b92915050565b600060208284031215611ccb57611cca61188f565b5b6000611cd984828501611ca0565b91505092915050565b60008060408385031215611cf957611cf861188f565b5b6000611d07858286016118ba565b9250506020611d1885828601611b4c565b9150509250929050565b600081519050919050565b600082825260208201905092915050565b6000819050602082019050919050565b600082825260208201905092915050565b6000611d6a826118fc565b611d748185611d4e565b9350611d84818560208601611918565b611d8d81611942565b840191505092915050565b611da18161198c565b82525050565b611db081611899565b82525050565b611dbf816119f8565b82525050565b6000610120830160008301518482036000860152611de38282611d5f565b91505060208301518482036020860152611dfd8282611d5f565b9150506040830151611e126040860182611d98565b506060830151611e256060860182611d98565b506080830151611e386080860182611da7565b5060a0830151611e4b60a0860182611bd5565b5060c0830151611e5e60c0860182611db6565b5060e0830151611e7160e0860182611da7565b50610100830151611e86610100860182611da7565b508091505092915050565b6000611e9d8383611dc5565b905092915050565b6000602082019050919050565b6000611ebd82611d22565b611ec78185611d2d565b935083602082028501611ed985611d3e565b8060005b85811015611f155784840389528151611ef68582611e91565b9450611f0183611ea5565b925060208a01995050600181019050611edd565b50829750879550505050505092915050565b60006020820190508181036000830152611f418184611eb2565b905092915050565b606082016000820151611f5f6000850182611db6565b506020820151611f726020850182611da7565b506040820151611f856040850182611da7565b50505050565b6000606082019050611fa06000830184611f49565b92915050565b6000602082019050611fbb6000830184611999565b92915050565b6000606082019050611fd66000830186611a04565b611fe360208301856119a8565b611ff060408301846119a8565b949350505050565b6000806040838503121561200f5761200e61188f565b5b600061201d85828601611b4c565b925050602061202e858286016118ba565b9150509250929050565b600060208201905061204d60008301846119e9565b92915050565b600060608201905061206860008301866119a8565b6120756020830185611a04565b61208260408301846119a8565b949350505050565b600080fd5b600080fd5b7f4e487b7100000000000000000000000000000000000000000000000000000000600052604160045260246000fd5b6120cc82611942565b810181811067ffffffffffffffff821117156120eb576120ea612094565b5b80604052505050565b60006120fe611885565b905061210a82826120c3565b919050565b600067ffffffffffffffff82111561212a57612129612094565b5b61213382611942565b9050602081019050919050565b82818337600083830152505050565b600061216261215d8461210f565b6120f4565b90508281526020810184848401111561217e5761217d61208f565b5b612189848285612140565b509392505050565b600082601f8301126121a6576121a561208a565b5b81356121b684826020860161214f565b91505092915050565b600080600080608085870312156121d9576121d861188f565b5b600085013567ffffffffffffffff8111156121f7576121f6611894565b5b61220387828801612191565b945050602085013567ffffffffffffffff81111561222457612223611894565b5b61223087828801612191565b935050604061224187828801611ca0565b925050606061225287828801611ca0565b91505092959194509250565b7f4e487b7100000000000000000000000000000000000000000000000000000000600052602260045260246000fd5b600060028204905060018216806122a557607f821691505b6020821081036122b8576122b761225e565b5b50919050565b7f596f75206861766520616c726561647920766f74656400000000000000000000600082015250565b60006122f4601683611907565b91506122ff826122be565b602082019050919050565b60006020820190508181036000830152612323816122e7565b9050919050565b7f4e487b7100000000000000000000000000000000000000000000000000000000600052603260045260246000fd5b7f50726f706f73616c206973206e6f742061637469766500000000000000000000600082015250565b600061238f601683611907565b915061239a82612359565b602082019050919050565b600060208201905081810360008301526123be81612382565b9050919050565b7f596f75206d75737420686f6c642073686172657320746f20766f746500000000600082015250565b60006123fb601c83611907565b9150612406826123c5565b602082019050919050565b6000602082019050818103600083015261242a816123ee565b9050919050565b7f4e487b7100000000000000000000000000000000000000000000000000000000600052601160045260246000fd5b600061246b82611899565b915061247683611899565b925082820190508082111561248e5761248d612431565b5b92915050565b60006080820190506124a960008301876119a8565b6124b660208301866119e9565b6124c360408301856119a8565b6124d06060830184611a04565b95945050505050565b7f4f6e6c792061646d696e732063616e20706572666f726d20746869732061637460008201527f696f6e0000000000000000000000000000000000000000000000000000000000602082015250565b6000612535602383611907565b9150612540826124d9565b604082019050919050565b6000602082019050818103600083015261256481612528565b9050919050565b7f496e76616c69642070726f706f73616c20494400000000000000000000000000600082015250565b60006125a1601383611907565b91506125ac8261256b565b602082019050919050565b600060208201905081810360008301526125d081612594565b9050919050565b7f4d7573742073656e6420312045544820746f2063726561746520612070726f7060008201527f6f73616c00000000000000000000000000000000000000000000000000000000602082015250565b6000612633602483611907565b915061263e826125d7565b604082019050919050565b6000602082019050818103600083015261266281612626565b9050919050565b60006126748261198c565b915061267f8361198c565b925082820261268d8161198c565b915080821461269f5761269e612431565b5b5092915050565b60008190508160005260206000209050919050565b60006020601f8301049050919050565b600082821b905092915050565b6000600883026127087fffffffffffffffffffffffffffffffffffffffffffffffffffffffffffffffff826126cb565b61271286836126cb565b95508019841693508086168417925050509392505050565b6000819050919050565b600061274f61274a61274584611899565b61272a565b611899565b9050919050565b6000819050919050565b61276983612734565b61277d61277582612756565b8484546126d8565b825550505050565b600090565b612792612785565b61279d818484612760565b505050565b5b818110156127c1576127b660008261278a565b6001810190506127a3565b5050565b601f821115612806576127d7816126a6565b6127e0846126bb565b810160208510156127ef578190505b6128036127fb856126bb565b8301826127a2565b50505b505050565b600082821c905092915050565b60006128296000198460080261280b565b1980831691505092915050565b60006128428383612818565b9150826002028217905092915050565b61285b826118fc565b67ffffffffffffffff81111561287457612873612094565b5b61287e825461228d565b6128898282856127c5565b600060209050601f8311600181146128bc57600084156128aa578287015190505b6128b48582612836565b86555061291c565b601f1984166128ca866126a6565b60005b828110156128f2578489015182556001820191506020850194506020810190506128cd565b8683101561290f578489015161290b601f891682612818565b8355505b6001600288020188555050505b505050505050565b600061292f8261198c565b915060ff820361294257612941612431565b5b600182019050919050565b60006129588261198c565b91506129638361198c565b9250828203905060ff81111561297c5761297b612431565b5b92915050565b600061299d6129986129938461198c565b61272a565b611899565b9050919050565b6129ad81612982565b82525050565b600060e0820190506129c8600083018a6129a4565b81810360208301526129da8189611953565b905081810360408301526129ee8188611953565b90506129fd6060830187611999565b612a0a6080830186611999565b612a1760a08301856119a8565b612a2460c08301846119e9565b98975050505050505050565b6000604082019050612a4560008301856119e9565b612a5260208301846119a8565b939250505056fea2646970667358221220b2dd2c9f7ae5e38b04e234212087f5ee044754aca2e413f066c56b58126818d364736f6c634300081a0033",
  "linkReferences": {},
  "deployedLinkReferences": {}
}