{
  "_format": "hh-sol-artifact-1",
  "contractName": "VotingContract",
  "sourceName": "contracts/smartContract.sol",
  "abi": [
    {
      "inputs": [
        {
          "internalType": "address[]",
          "name": "initialAdmins",
          "type": "address[]"
        },
        {
          "internalType": "address",
          "name": "_tokenAddress",
          "type": "address"
        }
      ],
      "stateMutability": "nonpayable",
      "type": "constructor"
    },
    {
      "anonymous": false,
      "inputs": [
        {
          "indexed": false,
          "internalType": "uint256",
          "name": "proposalId",
          "type": "uint256"
        },
        {
          "indexed": false,
          "internalType": "string",
          "name": "title",
          "type": "string"
        },
        {
          "indexed": false,
          "internalType": "string",
          "name": "description",
          "type": "string"
        },
        {
          "indexed": false,
          "internalType": "uint256",
          "name": "durationInMinutes",
          "type": "uint256"
        },
        {
          "indexed": false,
          "internalType": "uint8",
          "name": "quorumType",
          "type": "uint8"
        },
        {
          "indexed": false,
          "internalType": "uint256",
          "name": "endTime",
          "type": "uint256"
        },
        {
          "indexed": false,
          "internalType": "address",
          "name": "proposer",
          "type": "address"
        }
      ],
      "name": "ProposalCreated",
      "type": "event"
    },
    {
      "anonymous": false,
      "inputs": [
        {
          "indexed": false,
          "internalType": "address",
          "name": "voter",
          "type": "address"
        },
        {
          "indexed": false,
          "internalType": "uint256",
          "name": "rewardAmount",
          "type": "uint256"
        }
      ],
      "name": "RewardIssued",
      "type": "event"
    },
    {
      "anonymous": false,
      "inputs": [
        {
          "indexed": false,
          "internalType": "address",
          "name": "voter",
          "type": "address"
        },
        {
          "indexed": false,
          "internalType": "uint256",
          "name": "newShares",
          "type": "uint256"
        }
      ],
      "name": "SharesUpdated",
      "type": "event"
    },
    {
      "anonymous": false,
      "inputs": [
        {
          "indexed": false,
          "internalType": "uint256",
          "name": "proposalId",
          "type": "uint256"
        },
        {
          "indexed": false,
          "internalType": "address",
          "name": "voter",
          "type": "address"
        },
        {
          "indexed": false,
          "internalType": "uint256",
          "name": "weight",
          "type": "uint256"
        },
        {
          "indexed": false,
          "internalType": "bool",
          "name": "voteFor",
          "type": "bool"
        }
      ],
      "name": "VoteCast",
      "type": "event"
    },
    {
      "inputs": [
        {
          "internalType": "address",
          "name": "newAdmin",
          "type": "address"
        }
      ],
      "name": "addAdmin",
      "outputs": [],
      "stateMutability": "nonpayable",
      "type": "function"
    },
    {
      "inputs": [
        {
          "internalType": "address",
          "name": "",
          "type": "address"
        }
      ],
      "name": "admins",
      "outputs": [
        {
          "internalType": "bool",
          "name": "",
          "type": "bool"
        }
      ],
      "stateMutability": "view",
      "type": "function"
    },
    {
      "inputs": [
        {
          "internalType": "uint256",
          "name": "proposalId",
          "type": "uint256"
        },
        {
          "internalType": "bool",
          "name": "voteFor",
          "type": "bool"
        }
      ],
      "name": "castVote",
      "outputs": [],
      "stateMutability": "nonpayable",
      "type": "function"
    },
    {
      "inputs": [
        {
          "internalType": "string",
          "name": "title",
          "type": "string"
        },
        {
          "internalType": "string",
          "name": "description",
          "type": "string"
        },
        {
          "internalType": "uint256",
          "name": "durationInMinutes",
          "type": "uint256"
        },
        {
          "internalType": "uint8",
          "name": "quorumType",
          "type": "uint8"
        }
      ],
      "name": "createProposal",
      "outputs": [],
      "stateMutability": "payable",
      "type": "function"
    },
    {
      "inputs": [
        {
          "internalType": "uint256",
          "name": "proposalId",
          "type": "uint256"
        }
      ],
      "name": "getProposalOutcome",
      "outputs": [
        {
          "components": [
            {
              "internalType": "bool",
              "name": "passed",
              "type": "bool"
            },
            {
              "internalType": "uint256",
              "name": "votesFor",
              "type": "uint256"
            },
            {
              "internalType": "uint256",
              "name": "votesAgainst",
              "type": "uint256"
            }
          ],
          "internalType": "struct VotingContract.ProposalOutcome",
          "name": "",
          "type": "tuple"
        }
      ],
      "stateMutability": "view",
      "type": "function"
    },
    {
      "inputs": [],
      "name": "getProposals",
      "outputs": [
        {
          "components": [
            {
              "internalType": "string",
              "name": "title",
              "type": "string"
            },
            {
              "internalType": "string",
              "name": "description",
              "type": "string"
            },
            {
              "internalType": "uint256",
              "name": "durationInMinutes",
              "type": "uint256"
            },
            {
              "internalType": "uint8",
              "name": "quorumType",
              "type": "uint8"
            },
            {
              "internalType": "uint256",
              "name": "endTime",
              "type": "uint256"
            },
            {
              "internalType": "address",
              "name": "proposer",
              "type": "address"
            },
            {
              "internalType": "bool",
              "name": "active",
              "type": "bool"
            },
            {
              "internalType": "uint256",
              "name": "votesFor",
              "type": "uint256"
            },
            {
              "internalType": "uint256",
              "name": "votesAgainst",
              "type": "uint256"
            }
          ],
          "internalType": "struct VotingContract.Proposal[]",
          "name": "",
          "type": "tuple[]"
        }
      ],
      "stateMutability": "view",
      "type": "function"
    },
    {
      "inputs": [],
      "name": "getProposalsCount",
      "outputs": [
        {
          "internalType": "uint256",
          "name": "",
          "type": "uint256"
        }
      ],
      "stateMutability": "view",
      "type": "function"
    },
    {
      "inputs": [],
      "name": "governanceToken",
      "outputs": [
        {
          "internalType": "contract GovernanceToken",
          "name": "",
          "type": "address"
        }
      ],
      "stateMutability": "view",
      "type": "function"
    },
    {
      "inputs": [
        {
          "internalType": "address",
          "name": "user",
          "type": "address"
        }
      ],
      "name": "isAdmin",
      "outputs": [
        {
          "internalType": "bool",
          "name": "",
          "type": "bool"
        }
      ],
      "stateMutability": "view",
      "type": "function"
    },
    {
      "inputs": [],
      "name": "isVotingPeriodActive",
      "outputs": [
        {
          "internalType": "bool",
          "name": "",
          "type": "bool"
        }
      ],
      "stateMutability": "view",
      "type": "function"
    },
    {
      "inputs": [],
      "name": "proposalCount",
      "outputs": [
        {
          "internalType": "uint256",
          "name": "",
          "type": "uint256"
        }
      ],
      "stateMutability": "view",
      "type": "function"
    },
    {
      "inputs": [
        {
          "internalType": "uint256",
          "name": "",
          "type": "uint256"
        }
      ],
      "name": "proposalOutcomes",
      "outputs": [
        {
          "internalType": "bool",
          "name": "passed",
          "type": "bool"
        },
        {
          "internalType": "uint256",
          "name": "votesFor",
          "type": "uint256"
        },
        {
          "internalType": "uint256",
          "name": "votesAgainst",
          "type": "uint256"
        }
      ],
      "stateMutability": "view",
      "type": "function"
    },
    {
      "inputs": [
        {
          "internalType": "uint256",
          "name": "",
          "type": "uint256"
        }
      ],
      "name": "proposals",
      "outputs": [
        {
          "internalType": "string",
          "name": "title",
          "type": "string"
        },
        {
          "internalType": "string",
          "name": "description",
          "type": "string"
        },
        {
          "internalType": "uint256",
          "name": "durationInMinutes",
          "type": "uint256"
        },
        {
          "internalType": "uint8",
          "name": "quorumType",
          "type": "uint8"
        },
        {
          "internalType": "uint256",
          "name": "endTime",
          "type": "uint256"
        },
        {
          "internalType": "address",
          "name": "proposer",
          "type": "address"
        },
        {
          "internalType": "bool",
          "name": "active",
          "type": "bool"
        },
        {
          "internalType": "uint256",
          "name": "votesFor",
          "type": "uint256"
        },
        {
          "internalType": "uint256",
          "name": "votesAgainst",
          "type": "uint256"
        }
      ],
      "stateMutability": "view",
      "type": "function"
    },
    {
      "inputs": [
        {
          "internalType": "address",
          "name": "voter",
          "type": "address"
        },
        {
          "internalType": "uint256",
          "name": "shareCount",
          "type": "uint256"
        }
      ],
      "name": "registerShareholder",
      "outputs": [],
      "stateMutability": "nonpayable",
      "type": "function"
    },
    {
      "inputs": [
        {
          "internalType": "address",
          "name": "admin",
          "type": "address"
        }
      ],
      "name": "removeAdmin",
      "outputs": [],
      "stateMutability": "nonpayable",
      "type": "function"
    },
    {
      "inputs": [
        {
          "internalType": "address",
          "name": "",
          "type": "address"
        }
      ],
      "name": "shares",
      "outputs": [
        {
          "internalType": "uint256",
          "name": "",
          "type": "uint256"
        }
      ],
      "stateMutability": "view",
      "type": "function"
    },
    {
      "inputs": [],
      "name": "totalShares",
      "outputs": [
        {
          "internalType": "uint256",
          "name": "",
          "type": "uint256"
        }
      ],
      "stateMutability": "view",
      "type": "function"
    },
    {
      "inputs": [
        {
          "internalType": "address",
          "name": "voter",
          "type": "address"
        },
        {
          "internalType": "uint256",
          "name": "newShares",
          "type": "uint256"
        }
      ],
      "name": "updateShares",
      "outputs": [],
      "stateMutability": "nonpayable",
      "type": "function"
    },
    {
      "inputs": [
        {
          "internalType": "address",
          "name": "",
          "type": "address"
        }
      ],
      "name": "voted",
      "outputs": [
        {
          "internalType": "bool",
          "name": "",
          "type": "bool"
        }
      ],
      "stateMutability": "view",
      "type": "function"
    },
    {
      "inputs": [],
      "name": "votingEndTime",
      "outputs": [
        {
          "internalType": "uint256",
          "name": "",
          "type": "uint256"
        }
      ],
      "stateMutability": "view",
      "type": "function"
    },
    {
      "inputs": [
        {
          "internalType": "address",
          "name": "",
          "type": "address"
        },
        {
          "internalType": "uint256",
          "name": "",
          "type": "uint256"
        }
      ],
      "name": "votingHistory",
      "outputs": [
        {
          "internalType": "uint256",
          "name": "proposalId",
          "type": "uint256"
        },
        {
          "internalType": "bool",
          "name": "votedFor",
          "type": "bool"
        },
        {
          "internalType": "uint256",
          "name": "voteWeight",
          "type": "uint256"
        }
      ],
      "stateMutability": "view",
      "type": "function"
    }
  ],
  "bytecode": "0x60806040523480156200001157600080fd5b506040516200291b3803806200291b833981810160405281019062000037919062000307565b80600a60006101000a81548173ffffffffffffffffffffffffffffffffffffffff021916908373ffffffffffffffffffffffffffffffffffffffff16021790555060005b82518110156200011057600160036000858481518110620000a157620000a06200036d565b5b602002602001015173ffffffffffffffffffffffffffffffffffffffff1673ffffffffffffffffffffffffffffffffffffffff16815260200190815260200160002060006101000a81548160ff02191690831515021790555080806200010790620003d5565b9150506200007b565b50505062000422565b6000604051905090565b600080fd5b600080fd5b600080fd5b6000601f19601f8301169050919050565b7f4e487b7100000000000000000000000000000000000000000000000000000000600052604160045260246000fd5b6200017d8262000132565b810181811067ffffffffffffffff821117156200019f576200019e62000143565b5b80604052505050565b6000620001b462000119565b9050620001c2828262000172565b919050565b600067ffffffffffffffff821115620001e557620001e462000143565b5b602082029050602081019050919050565b600080fd5b600073ffffffffffffffffffffffffffffffffffffffff82169050919050565b60006200022882620001fb565b9050919050565b6200023a816200021b565b81146200024657600080fd5b50565b6000815190506200025a816200022f565b92915050565b6000620002776200027184620001c7565b620001a8565b905080838252602082019050602084028301858111156200029d576200029c620001f6565b5b835b81811015620002ca5780620002b5888262000249565b8452602084019350506020810190506200029f565b5050509392505050565b600082601f830112620002ec57620002eb6200012d565b5b8151620002fe84826020860162000260565b91505092915050565b6000806040838503121562000321576200032062000123565b5b600083015167ffffffffffffffff81111562000342576200034162000128565b5b6200035085828601620002d4565b9250506020620003638582860162000249565b9150509250929050565b7f4e487b7100000000000000000000000000000000000000000000000000000000600052603260045260246000fd5b7f4e487b7100000000000000000000000000000000000000000000000000000000600052601160045260246000fd5b6000819050919050565b6000620003e282620003cb565b91507fffffffffffffffffffffffffffffffffffffffffffffffffffffffffffffffff82036200041757620004166200039c565b5b600182019050919050565b6124e980620004326000396000f3fe60806040526004361061012a5760003560e01c806370f6e05d116100ab578063afafa0cf1161006f578063afafa0cf14610415578063ce7c2ac21461043e578063d09c34f21461047b578063da35c664146104ba578063e5d0821f146104e5578063f96dae0a1461050e5761012a565b806370f6e05d1461032757806398e527d3146103435780639fcc5ce41461036e578063a9c0310d14610399578063aec2ccae146103d85761012a565b80633a98ef39116100f25780633a98ef391461022e578063429b62e51461025957806362564c48146102965780636fdb6f7c146102c157806370480275146102fe5761012a565b8063013cf08b1461012f57806315373e3d146101745780631785f53c1461019d5780631ea736e0146101c657806324d7806c146101f1575b600080fd5b34801561013b57600080fd5b5061015660048036038101906101519190611415565b610539565b60405161016b99989796959493929190611559565b60405180910390f35b34801561018057600080fd5b5061019b60048036038101906101969190611620565b6106e1565b005b3480156101a957600080fd5b506101c460048036038101906101bf919061168c565b610a3f565b005b3480156101d257600080fd5b506101db610b26565b6040516101e891906116b9565b60405180910390f35b3480156101fd57600080fd5b506102186004803603810190610213919061168c565b610b2c565b60405161022591906116d4565b60405180910390f35b34801561023a57600080fd5b50610243610b82565b60405161025091906116b9565b60405180910390f35b34801561026557600080fd5b50610280600480360381019061027b919061168c565b610b88565b60405161028d91906116d4565b60405180910390f35b3480156102a257600080fd5b506102ab610ba8565b6040516102b89190611903565b60405180910390f35b3480156102cd57600080fd5b506102e860048036038101906102e39190611415565b610de2565b6040516102f59190611967565b60405180910390f35b34801561030a57600080fd5b506103256004803603810190610320919061168c565b610e3e565b005b610341600480360381019061033c9190611ae3565b610f25565b005b34801561034f57600080fd5b5061035861116c565b60405161036591906116b9565b60405180910390f35b34801561037a57600080fd5b50610383611176565b60405161039091906116d4565b60405180910390f35b3480156103a557600080fd5b506103c060048036038101906103bb9190611415565b611189565b6040516103cf93929190611b82565b60405180910390f35b3480156103e457600080fd5b506103ff60048036038101906103fa919061168c565b6111c0565b60405161040c91906116d4565b60405180910390f35b34801561042157600080fd5b5061043c60048036038101906104379190611bb9565b6111e0565b005b34801561044a57600080fd5b506104656004803603810190610460919061168c565b611290565b60405161047291906116b9565b60405180910390f35b34801561048757600080fd5b506104a2600480360381019061049d9190611bb9565b6112a8565b6040516104b193929190611bf9565b60405180910390f35b3480156104c657600080fd5b506104cf6112fc565b6040516104dc91906116b9565b60405180910390f35b3480156104f157600080fd5b5061050c60048036038101906105079190611bb9565b611302565b005b34801561051a57600080fd5b50610523611382565b6040516105309190611c8f565b60405180910390f35b6006818154811061054957600080fd5b906000526020600020906008020160009150905080600001805461056c90611cd9565b80601f016020809104026020016040519081016040528092919081815260200182805461059890611cd9565b80156105e55780601f106105ba576101008083540402835291602001916105e5565b820191906000526020600020905b8154815290600101906020018083116105c857829003601f168201915b5050505050908060010180546105fa90611cd9565b80601f016020809104026020016040519081016040528092919081815260200182805461062690611cd9565b80156106735780601f1061064857610100808354040283529160200191610673565b820191906000526020600020905b81548152906001019060200180831161065657829003601f168201915b5050505050908060020154908060030160009054906101000a900460ff16908060040154908060050160009054906101000a900473ffffffffffffffffffffffffffffffffffffffff16908060050160149054906101000a900460ff16908060060154908060070154905089565b600560003373ffffffffffffffffffffffffffffffffffffffff1673ffffffffffffffffffffffffffffffffffffffff16815260200190815260200160002060009054906101000a900460ff161561076e576040517f08c379a000000000000000000000000000000000000000000000000000000000815260040161076590611d56565b60405180910390fd5b6006828154811061078257610781611d76565b5b906000526020600020906008020160050160149054906101000a900460ff166107e0576040517f08c379a00000000000000000000000000000000000000000000000000000000081526004016107d790611df1565b60405180910390fd5b60008060003373ffffffffffffffffffffffffffffffffffffffff1673ffffffffffffffffffffffffffffffffffffffff16815260200190815260200160002054905060008111610866576040517f08c379a000000000000000000000000000000000000000000000000000000000815260040161085d90611e5d565b60405180910390fd5b81156108ad57806006848154811061088157610880611d76565b5b906000526020600020906008020160060160008282546108a19190611eac565b925050819055506108ea565b80600684815481106108c2576108c1611d76565b5b906000526020600020906008020160070160008282546108e29190611eac565b925050819055505b600160003373ffffffffffffffffffffffffffffffffffffffff1673ffffffffffffffffffffffffffffffffffffffff168152602001908152602001600020604051806060016040528085815260200184151581526020018381525090806001815401808255809150506001900390600052602060002090600302016000909190919091506000820151816000015560208201518160010160006101000a81548160ff0219169083151502179055506040820151816002015550506001600560003373ffffffffffffffffffffffffffffffffffffffff1673ffffffffffffffffffffffffffffffffffffffff16815260200190815260200160002060006101000a81548160ff0219169083151502179055507fb898e75d5aac8de2f407e4a683c8d909e832d1e371e3bff0fa3ed934e88d956283338385604051610a329493929190611ee0565b60405180910390a1505050565b600360003373ffffffffffffffffffffffffffffffffffffffff1673ffffffffffffffffffffffffffffffffffffffff16815260200190815260200160002060009054906101000a900460ff16610acb576040517f08c379a0000000000000000000000000000000000000000000000000000000008152600401610ac290611f97565b60405180910390fd5b6000600360008373ffffffffffffffffffffffffffffffffffffffff1673ffffffffffffffffffffffffffffffffffffffff16815260200190815260200160002060006101000a81548160ff02191690831515021790555050565b60095481565b6000600360008373ffffffffffffffffffffffffffffffffffffffff1673ffffffffffffffffffffffffffffffffffffffff16815260200190815260200160002060009054906101000a900460ff169050919050565b60045481565b60036020528060005260406000206000915054906101000a900460ff1681565b60606006805480602002602001604051908101604052809291908181526020016000905b82821015610dd9578382906000526020600020906008020160405180610120016040529081600082018054610c0090611cd9565b80601f0160208091040260200160405190810160405280929190818152602001828054610c2c90611cd9565b8015610c795780601f10610c4e57610100808354040283529160200191610c79565b820191906000526020600020905b815481529060010190602001808311610c5c57829003601f168201915b50505050508152602001600182018054610c9290611cd9565b80601f0160208091040260200160405190810160405280929190818152602001828054610cbe90611cd9565b8015610d0b5780601f10610ce057610100808354040283529160200191610d0b565b820191906000526020600020905b815481529060010190602001808311610cee57829003601f168201915b50505050508152602001600282015481526020016003820160009054906101000a900460ff1660ff1660ff168152602001600482015481526020016005820160009054906101000a900473ffffffffffffffffffffffffffffffffffffffff1673ffffffffffffffffffffffffffffffffffffffff1673ffffffffffffffffffffffffffffffffffffffff1681526020016005820160149054906101000a900460ff161515151581526020016006820154815260200160078201548152505081526020019060010190610bcc565b50505050905090565b610dea6113a8565b600260008381526020019081526020016000206040518060600160405290816000820160009054906101000a900460ff16151515158152602001600182015481526020016002820154815250509050919050565b600360003373ffffffffffffffffffffffffffffffffffffffff1673ffffffffffffffffffffffffffffffffffffffff16815260200190815260200160002060009054906101000a900460ff16610eca576040517f08c379a0000000000000000000000000000000000000000000000000000000008152600401610ec190611f97565b60405180910390fd5b6001600360008373ffffffffffffffffffffffffffffffffffffffff1673ffffffffffffffffffffffffffffffffffffffff16815260200190815260200160002060006101000a81548160ff02191690831515021790555050565b670de0b6b3a76400003414610f6f576040517f08c379a0000000000000000000000000000000000000000000000000000000008152600401610f6690612029565b60405180910390fd5b6000603c83610f7e9190612049565b42610f899190611eac565b905060066040518061012001604052808781526020018681526020018581526020018460ff1681526020018381526020013373ffffffffffffffffffffffffffffffffffffffff16815260200160011515815260200160008152602001600081525090806001815401808255809150506001900390600052602060002090600802016000909190919091506000820151816000019081611029919061222d565b50602082015181600101908161103f919061222d565b506040820151816002015560608201518160030160006101000a81548160ff021916908360ff1602179055506080820151816004015560a08201518160050160006101000a81548173ffffffffffffffffffffffffffffffffffffffff021916908373ffffffffffffffffffffffffffffffffffffffff16021790555060c08201518160050160146101000a81548160ff02191690831515021790555060e08201518160060155610100820151816007015550506000600160068054905061110791906122ff565b90506007600081548092919061111c90612333565b91905055507f3d7708da99615a873ed0ef5e0b10f8b1bd8e76e197387471a6a8ca12c29da9138187878787873360405161115c979695949392919061237b565b60405180910390a1505050505050565b6000600754905090565b600860009054906101000a900460ff1681565b60026020528060005260406000206000915090508060000160009054906101000a900460ff16908060010154908060020154905083565b60056020528060005260406000206000915054906101000a900460ff1681565b600860009054906101000a900460ff1615611230576040517f08c379a00000000000000000000000000000000000000000000000000000000081526004016112279061246a565b60405180910390fd5b806000808473ffffffffffffffffffffffffffffffffffffffff1673ffffffffffffffffffffffffffffffffffffffff1681526020019081526020016000208190555080600460008282546112859190611eac565b925050819055505050565b60006020528060005260406000206000915090505481565b600160205281600052604060002081815481106112c457600080fd5b9060005260206000209060030201600091509150508060000154908060010160009054906101000a900460ff16908060020154905083565b60075481565b806000808473ffffffffffffffffffffffffffffffffffffffff1673ffffffffffffffffffffffffffffffffffffffff168152602001908152602001600020819055507fe6382c9ed5c0c33bb05042f73cf6cbe9cb25639f9a711e094ee563bc9cb80e2c828260405161137692919061248a565b60405180910390a15050565b600a60009054906101000a900473ffffffffffffffffffffffffffffffffffffffff1681565b604051806060016040528060001515815260200160008152602001600081525090565b6000604051905090565b600080fd5b600080fd5b6000819050919050565b6113f2816113df565b81146113fd57600080fd5b50565b60008135905061140f816113e9565b92915050565b60006020828403121561142b5761142a6113d5565b5b600061143984828501611400565b91505092915050565b600081519050919050565b600082825260208201905092915050565b60005b8381101561147c578082015181840152602081019050611461565b60008484015250505050565b6000601f19601f8301169050919050565b60006114a482611442565b6114ae818561144d565b93506114be81856020860161145e565b6114c781611488565b840191505092915050565b6114db816113df565b82525050565b600060ff82169050919050565b6114f7816114e1565b82525050565b600073ffffffffffffffffffffffffffffffffffffffff82169050919050565b6000611528826114fd565b9050919050565b6115388161151d565b82525050565b60008115159050919050565b6115538161153e565b82525050565b6000610120820190508181036000830152611574818c611499565b90508181036020830152611588818b611499565b9050611597604083018a6114d2565b6115a460608301896114ee565b6115b160808301886114d2565b6115be60a083018761152f565b6115cb60c083018661154a565b6115d860e08301856114d2565b6115e66101008301846114d2565b9a9950505050505050505050565b6115fd8161153e565b811461160857600080fd5b50565b60008135905061161a816115f4565b92915050565b60008060408385031215611637576116366113d5565b5b600061164585828601611400565b92505060206116568582860161160b565b9150509250929050565b6116698161151d565b811461167457600080fd5b50565b60008135905061168681611660565b92915050565b6000602082840312156116a2576116a16113d5565b5b60006116b084828501611677565b91505092915050565b60006020820190506116ce60008301846114d2565b92915050565b60006020820190506116e9600083018461154a565b92915050565b600081519050919050565b600082825260208201905092915050565b6000819050602082019050919050565b600082825260208201905092915050565b600061173782611442565b611741818561171b565b935061175181856020860161145e565b61175a81611488565b840191505092915050565b61176e816113df565b82525050565b61177d816114e1565b82525050565b61178c8161151d565b82525050565b61179b8161153e565b82525050565b60006101208301600083015184820360008601526117bf828261172c565b915050602083015184820360208601526117d9828261172c565b91505060408301516117ee6040860182611765565b5060608301516118016060860182611774565b5060808301516118146080860182611765565b5060a083015161182760a0860182611783565b5060c083015161183a60c0860182611792565b5060e083015161184d60e0860182611765565b50610100830151611862610100860182611765565b508091505092915050565b600061187983836117a1565b905092915050565b6000602082019050919050565b6000611899826116ef565b6118a381856116fa565b9350836020820285016118b58561170b565b8060005b858110156118f157848403895281516118d2858261186d565b94506118dd83611881565b925060208a019950506001810190506118b9565b50829750879550505050505092915050565b6000602082019050818103600083015261191d818461188e565b905092915050565b60608201600082015161193b6000850182611792565b50602082015161194e6020850182611765565b5060408201516119616040850182611765565b50505050565b600060608201905061197c6000830184611925565b92915050565b600080fd5b600080fd5b7f4e487b7100000000000000000000000000000000000000000000000000000000600052604160045260246000fd5b6119c482611488565b810181811067ffffffffffffffff821117156119e3576119e261198c565b5b80604052505050565b60006119f66113cb565b9050611a0282826119bb565b919050565b600067ffffffffffffffff821115611a2257611a2161198c565b5b611a2b82611488565b9050602081019050919050565b82818337600083830152505050565b6000611a5a611a5584611a07565b6119ec565b905082815260208101848484011115611a7657611a75611987565b5b611a81848285611a38565b509392505050565b600082601f830112611a9e57611a9d611982565b5b8135611aae848260208601611a47565b91505092915050565b611ac0816114e1565b8114611acb57600080fd5b50565b600081359050611add81611ab7565b92915050565b60008060008060808587031215611afd57611afc6113d5565b5b600085013567ffffffffffffffff811115611b1b57611b1a6113da565b5b611b2787828801611a89565b945050602085013567ffffffffffffffff811115611b4857611b476113da565b5b611b5487828801611a89565b9350506040611b6587828801611400565b9250506060611b7687828801611ace565b91505092959194509250565b6000606082019050611b97600083018661154a565b611ba460208301856114d2565b611bb160408301846114d2565b949350505050565b60008060408385031215611bd057611bcf6113d5565b5b6000611bde85828601611677565b9250506020611bef85828601611400565b9150509250929050565b6000606082019050611c0e60008301866114d2565b611c1b602083018561154a565b611c2860408301846114d2565b949350505050565b6000819050919050565b6000611c55611c50611c4b846114fd565b611c30565b6114fd565b9050919050565b6000611c6782611c3a565b9050919050565b6000611c7982611c5c565b9050919050565b611c8981611c6e565b82525050565b6000602082019050611ca46000830184611c80565b92915050565b7f4e487b7100000000000000000000000000000000000000000000000000000000600052602260045260246000fd5b60006002820490506001821680611cf157607f821691505b602082108103611d0457611d03611caa565b5b50919050565b7f596f75206861766520616c726561647920766f74656400000000000000000000600082015250565b6000611d4060168361144d565b9150611d4b82611d0a565b602082019050919050565b60006020820190508181036000830152611d6f81611d33565b9050919050565b7f4e487b7100000000000000000000000000000000000000000000000000000000600052603260045260246000fd5b7f50726f706f73616c206973206e6f742061637469766500000000000000000000600082015250565b6000611ddb60168361144d565b9150611de682611da5565b602082019050919050565b60006020820190508181036000830152611e0a81611dce565b9050919050565b7f596f75206d75737420686f6c642073686172657320746f20766f746500000000600082015250565b6000611e47601c8361144d565b9150611e5282611e11565b602082019050919050565b60006020820190508181036000830152611e7681611e3a565b9050919050565b7f4e487b7100000000000000000000000000000000000000000000000000000000600052601160045260246000fd5b6000611eb7826113df565b9150611ec2836113df565b9250828201905080821115611eda57611ed9611e7d565b5b92915050565b6000608082019050611ef560008301876114d2565b611f02602083018661152f565b611f0f60408301856114d2565b611f1c606083018461154a565b95945050505050565b7f4f6e6c792061646d696e732063616e20706572666f726d20746869732061637460008201527f696f6e0000000000000000000000000000000000000000000000000000000000602082015250565b6000611f8160238361144d565b9150611f8c82611f25565b604082019050919050565b60006020820190508181036000830152611fb081611f74565b9050919050565b7f4d7573742073656e6420312045544820746f2063726561746520612070726f7060008201527f6f73616c00000000000000000000000000000000000000000000000000000000602082015250565b600061201360248361144d565b915061201e82611fb7565b604082019050919050565b6000602082019050818103600083015261204281612006565b9050919050565b6000612054826113df565b915061205f836113df565b925082820261206d816113df565b9150828204841483151761208457612083611e7d565b5b5092915050565b60008190508160005260206000209050919050565b60006020601f8301049050919050565b600082821b905092915050565b6000600883026120ed7fffffffffffffffffffffffffffffffffffffffffffffffffffffffffffffffff826120b0565b6120f786836120b0565b95508019841693508086168417925050509392505050565b600061212a612125612120846113df565b611c30565b6113df565b9050919050565b6000819050919050565b6121448361210f565b61215861215082612131565b8484546120bd565b825550505050565b600090565b61216d612160565b61217881848461213b565b505050565b5b8181101561219c57612191600082612165565b60018101905061217e565b5050565b601f8211156121e1576121b28161208b565b6121bb846120a0565b810160208510156121ca578190505b6121de6121d6856120a0565b83018261217d565b50505b505050565b600082821c905092915050565b6000612204600019846008026121e6565b1980831691505092915050565b600061221d83836121f3565b9150826002028217905092915050565b61223682611442565b67ffffffffffffffff81111561224f5761224e61198c565b5b6122598254611cd9565b6122648282856121a0565b600060209050601f8311600181146122975760008415612285578287015190505b61228f8582612211565b8655506122f7565b601f1984166122a58661208b565b60005b828110156122cd578489015182556001820191506020850194506020810190506122a8565b868310156122ea57848901516122e6601f8916826121f3565b8355505b6001600288020188555050505b505050505050565b600061230a826113df565b9150612315836113df565b925082820390508181111561232d5761232c611e7d565b5b92915050565b600061233e826113df565b91507fffffffffffffffffffffffffffffffffffffffffffffffffffffffffffffffff82036123705761236f611e7d565b5b600182019050919050565b600060e082019050612390600083018a6114d2565b81810360208301526123a28189611499565b905081810360408301526123b68188611499565b90506123c560608301876114d2565b6123d260808301866114ee565b6123df60a08301856114d2565b6123ec60c083018461152f565b98975050505050505050565b7f4865792069747320616e2061637469766520766f74696e6720706572696f642c60008201527f20796f752063616e6e6f7420766f7465206e6f772e0000000000000000000000602082015250565b600061245460358361144d565b915061245f826123f8565b604082019050919050565b6000602082019050818103600083015261248381612447565b9050919050565b600060408201905061249f600083018561152f565b6124ac60208301846114d2565b939250505056fea26469706673582212202ceb2319d39edb5757bf56d4460f3229c728bff0d6ac0aa6536ce2cebbdc8cbe64736f6c63430008140033",
  "linkReferences": {},
  "deployedLinkReferences": {}
}