{
  "_format": "hh-sol-artifact-1",
  "contractName": "VotingContract",
  "sourceName": "contracts/smartContract.sol",
  "abi": [
    {
      "inputs": [
        {
          "internalType": "address",
          "name": "_tokenAddress",
          "type": "address"
        }
      ],
      "stateMutability": "nonpayable",
      "type": "constructor"
    },
    {
      "anonymous": false,
      "inputs": [
        {
          "indexed": false,
          "internalType": "uint256",
          "name": "proposalId",
          "type": "uint256"
        },
        {
          "indexed": false,
          "internalType": "string",
          "name": "description",
          "type": "string"
        },
        {
          "indexed": false,
          "internalType": "uint256",
          "name": "votingEndTime",
          "type": "uint256"
        }
      ],
      "name": "ProposalCreated",
      "type": "event"
    },
    {
      "anonymous": false,
      "inputs": [
        {
          "indexed": false,
          "internalType": "address",
          "name": "voter",
          "type": "address"
        },
        {
          "indexed": false,
          "internalType": "uint256",
          "name": "rewardAmount",
          "type": "uint256"
        }
      ],
      "name": "RewardIssued",
      "type": "event"
    },
    {
      "anonymous": false,
      "inputs": [
        {
          "indexed": false,
          "internalType": "address",
          "name": "voter",
          "type": "address"
        },
        {
          "indexed": false,
          "internalType": "uint256",
          "name": "newShares",
          "type": "uint256"
        }
      ],
      "name": "SharesUpdated",
      "type": "event"
    },
    {
      "anonymous": false,
      "inputs": [
        {
          "indexed": false,
          "internalType": "uint256",
          "name": "proposalId",
          "type": "uint256"
        },
        {
          "indexed": false,
          "internalType": "address",
          "name": "voter",
          "type": "address"
        },
        {
          "indexed": false,
          "internalType": "uint256",
          "name": "weight",
          "type": "uint256"
        },
        {
          "indexed": false,
          "internalType": "bool",
          "name": "voteFor",
          "type": "bool"
        }
      ],
      "name": "VoteCast",
      "type": "event"
    },
    {
      "inputs": [
        {
          "internalType": "string",
          "name": "title",
          "type": "string"
        },
        {
          "internalType": "string",
          "name": "description",
          "type": "string"
        },
        {
          "internalType": "uint256",
          "name": "durationInMinutes",
          "type": "uint256"
        },
        {
          "internalType": "enum VotingContract.QuorumType",
          "name": "quorumType",
          "type": "uint8"
        }
      ],
      "name": "createProposal",
      "outputs": [],
      "stateMutability": "payable",
      "type": "function"
    },
    {
      "inputs": [
        {
          "internalType": "uint256",
          "name": "proposalId",
          "type": "uint256"
        }
      ],
      "name": "endVoting",
      "outputs": [],
      "stateMutability": "nonpayable",
      "type": "function"
    },
    {
      "inputs": [
        {
          "internalType": "uint256",
          "name": "proposalId",
          "type": "uint256"
        }
      ],
      "name": "getProposalOutcome",
      "outputs": [
        {
          "components": [
            {
              "internalType": "bool",
              "name": "passed",
              "type": "bool"
            },
            {
              "internalType": "uint256",
              "name": "votesFor",
              "type": "uint256"
            },
            {
              "internalType": "uint256",
              "name": "votesAgainst",
              "type": "uint256"
            }
          ],
          "internalType": "struct VotingContract.ProposalOutcome",
          "name": "",
          "type": "tuple"
        }
      ],
      "stateMutability": "view",
      "type": "function"
    },
    {
      "inputs": [],
      "name": "getProposals",
      "outputs": [
        {
          "internalType": "uint256[]",
          "name": "ids",
          "type": "uint256[]"
        },
        {
          "internalType": "string[]",
          "name": "titles",
          "type": "string[]"
        },
        {
          "internalType": "string[]",
          "name": "descriptions",
          "type": "string[]"
        },
        {
          "internalType": "uint256[]",
          "name": "votesForArray",
          "type": "uint256[]"
        },
        {
          "internalType": "uint256[]",
          "name": "votesAgainstArray",
          "type": "uint256[]"
        },
        {
          "internalType": "bool[]",
          "name": "actives",
          "type": "bool[]"
        }
      ],
      "stateMutability": "view",
      "type": "function"
    },
    {
      "inputs": [],
      "name": "getProposalsCount",
      "outputs": [
        {
          "internalType": "uint256",
          "name": "",
          "type": "uint256"
        }
      ],
      "stateMutability": "view",
      "type": "function"
    },
    {
      "inputs": [
        {
          "internalType": "address",
          "name": "voter",
          "type": "address"
        }
      ],
      "name": "getShares",
      "outputs": [
        {
          "internalType": "uint256",
          "name": "",
          "type": "uint256"
        }
      ],
      "stateMutability": "view",
      "type": "function"
    },
    {
      "inputs": [
        {
          "internalType": "uint256",
          "name": "proposalId",
          "type": "uint256"
        }
      ],
      "name": "getTotalSharesVoted",
      "outputs": [
        {
          "internalType": "uint256",
          "name": "",
          "type": "uint256"
        }
      ],
      "stateMutability": "view",
      "type": "function"
    },
    {
      "inputs": [
        {
          "internalType": "address",
          "name": "voter",
          "type": "address"
        }
      ],
      "name": "getUserProfile",
      "outputs": [
        {
          "internalType": "uint256",
          "name": "",
          "type": "uint256"
        },
        {
          "components": [
            {
              "internalType": "uint256",
              "name": "proposalId",
              "type": "uint256"
            },
            {
              "internalType": "bool",
              "name": "votedFor",
              "type": "bool"
            },
            {
              "internalType": "uint256",
              "name": "voteWeight",
              "type": "uint256"
            }
          ],
          "internalType": "struct VotingContract.VotingRecord[]",
          "name": "",
          "type": "tuple[]"
        }
      ],
      "stateMutability": "view",
      "type": "function"
    },
    {
      "inputs": [
        {
          "internalType": "uint256",
          "name": "proposalId",
          "type": "uint256"
        }
      ],
      "name": "getVotingProgress",
      "outputs": [
        {
          "internalType": "uint256",
          "name": "progress",
          "type": "uint256"
        },
        {
          "internalType": "uint256",
          "name": "requiredQuorum",
          "type": "uint256"
        }
      ],
      "stateMutability": "view",
      "type": "function"
    },
    {
      "inputs": [],
      "name": "governanceToken",
      "outputs": [
        {
          "internalType": "contract GovernanceToken",
          "name": "",
          "type": "address"
        }
      ],
      "stateMutability": "view",
      "type": "function"
    },
    {
      "inputs": [
        {
          "internalType": "uint256",
          "name": "proposalId",
          "type": "uint256"
        }
      ],
      "name": "hasMetQuorum",
      "outputs": [
        {
          "internalType": "bool",
          "name": "",
          "type": "bool"
        }
      ],
      "stateMutability": "view",
      "type": "function"
    },
    {
      "inputs": [],
      "name": "isVotingPeriodActive",
      "outputs": [
        {
          "internalType": "bool",
          "name": "",
          "type": "bool"
        }
      ],
      "stateMutability": "view",
      "type": "function"
    },
    {
      "inputs": [],
      "name": "proposalCount",
      "outputs": [
        {
          "internalType": "uint256",
          "name": "",
          "type": "uint256"
        }
      ],
      "stateMutability": "view",
      "type": "function"
    },
    {
      "inputs": [
        {
          "internalType": "uint256",
          "name": "",
          "type": "uint256"
        }
      ],
      "name": "proposalOutcomes",
      "outputs": [
        {
          "internalType": "bool",
          "name": "passed",
          "type": "bool"
        },
        {
          "internalType": "uint256",
          "name": "votesFor",
          "type": "uint256"
        },
        {
          "internalType": "uint256",
          "name": "votesAgainst",
          "type": "uint256"
        }
      ],
      "stateMutability": "view",
      "type": "function"
    },
    {
      "inputs": [
        {
          "internalType": "uint256",
          "name": "",
          "type": "uint256"
        }
      ],
      "name": "proposals",
      "outputs": [
        {
          "internalType": "string",
          "name": "title",
          "type": "string"
        },
        {
          "internalType": "string",
          "name": "description",
          "type": "string"
        },
        {
          "internalType": "uint256",
          "name": "votesFor",
          "type": "uint256"
        },
        {
          "internalType": "uint256",
          "name": "votesAgainst",
          "type": "uint256"
        },
        {
          "internalType": "bool",
          "name": "active",
          "type": "bool"
        },
        {
          "internalType": "uint256",
          "name": "votingEndTime",
          "type": "uint256"
        },
        {
          "internalType": "uint256",
          "name": "totalVotesCast",
          "type": "uint256"
        },
        {
          "internalType": "enum VotingContract.QuorumType",
          "name": "quorumType",
          "type": "uint8"
        }
      ],
      "stateMutability": "view",
      "type": "function"
    },
    {
      "inputs": [
        {
          "internalType": "address",
          "name": "voter",
          "type": "address"
        },
        {
          "internalType": "uint256",
          "name": "shareCount",
          "type": "uint256"
        }
      ],
      "name": "registerShareholder",
      "outputs": [],
      "stateMutability": "nonpayable",
      "type": "function"
    },
    {
      "inputs": [
        {
          "internalType": "address",
          "name": "",
          "type": "address"
        }
      ],
      "name": "shares",
      "outputs": [
        {
          "internalType": "uint256",
          "name": "",
          "type": "uint256"
        }
      ],
      "stateMutability": "view",
      "type": "function"
    },
    {
      "inputs": [],
      "name": "totalShares",
      "outputs": [
        {
          "internalType": "uint256",
          "name": "",
          "type": "uint256"
        }
      ],
      "stateMutability": "view",
      "type": "function"
    },
    {
      "inputs": [
        {
          "internalType": "address",
          "name": "voter",
          "type": "address"
        },
        {
          "internalType": "uint256",
          "name": "newShares",
          "type": "uint256"
        }
      ],
      "name": "updateShares",
      "outputs": [],
      "stateMutability": "nonpayable",
      "type": "function"
    },
    {
      "inputs": [
        {
          "internalType": "uint256",
          "name": "proposalId",
          "type": "uint256"
        },
        {
          "internalType": "bool",
          "name": "voteFor",
          "type": "bool"
        }
      ],
      "name": "vote",
      "outputs": [],
      "stateMutability": "nonpayable",
      "type": "function"
    },
    {
      "inputs": [],
      "name": "votingEndTime",
      "outputs": [
        {
          "internalType": "uint256",
          "name": "",
          "type": "uint256"
        }
      ],
      "stateMutability": "view",
      "type": "function"
    },
    {
      "inputs": [
        {
          "internalType": "address",
          "name": "",
          "type": "address"
        },
        {
          "internalType": "uint256",
          "name": "",
          "type": "uint256"
        }
      ],
      "name": "votingHistory",
      "outputs": [
        {
          "internalType": "uint256",
          "name": "proposalId",
          "type": "uint256"
        },
        {
          "internalType": "bool",
          "name": "votedFor",
          "type": "bool"
        },
        {
          "internalType": "uint256",
          "name": "voteWeight",
          "type": "uint256"
        }
      ],
      "stateMutability": "view",
      "type": "function"
    }
  ],
  "bytecode": "0x608060405234801561001057600080fd5b50604051612f3f380380612f3f833981810160405281019061003291906100dc565b80600860006101000a81548173ffffffffffffffffffffffffffffffffffffffff021916908373ffffffffffffffffffffffffffffffffffffffff16021790555050610109565b600080fd5b600073ffffffffffffffffffffffffffffffffffffffff82169050919050565b60006100a98261007e565b9050919050565b6100b98161009e565b81146100c457600080fd5b50565b6000815190506100d6816100b0565b92915050565b6000602082840312156100f2576100f1610079565b5b6000610100848285016100c7565b91505092915050565b612e27806101186000396000f3fe6080604052600436106101355760003560e01c80639fcc5ce4116100ab578063d09c34f21161006f578063d09c34f214610463578063da35c664146104a2578063e5d0821f146104cd578063f04da65b146104f6578063f96dae0a14610533578063fcf0c6ca1461055e57610135565b80639fcc5ce41461036a578063a9c0310d14610395578063afafa0cf146103d4578063c9d27afe146103fd578063ce7c2ac21461042657610135565b80636fdb6f7c116100fd5780636fdb6f7c1461022d57806370f6e05d1461026a5780637a7c153b14610286578063987ee156146102c357806398e527d3146103015780639baf1c971461032c57610135565b8063013cf08b1461013a5780631ea736e01461017e5780633a98ef39146101a957806362564c48146101d4578063649f89a514610204575b600080fd5b34801561014657600080fd5b50610161600480360381019061015c9190611cd0565b61059b565b604051610175989796959493929190611e2e565b60405180910390f35b34801561018a57600080fd5b5061019361071d565b6040516101a09190611eba565b60405180910390f35b3480156101b557600080fd5b506101be610723565b6040516101cb9190611eba565b60405180910390f35b3480156101e057600080fd5b506101e9610729565b6040516101fb9695949392919061215d565b60405180910390f35b34801561021057600080fd5b5061022b60048036038101906102269190611cd0565b610bc4565b005b34801561023957600080fd5b50610254600480360381019061024f9190611cd0565b610eb0565b604051610261919061222a565b60405180910390f35b610284600480360381019061027f919061239f565b610f0c565b005b34801561029257600080fd5b506102ad60048036038101906102a89190611cd0565b611119565b6040516102ba919061243e565b60405180910390f35b3480156102cf57600080fd5b506102ea60048036038101906102e591906124b7565b6112a8565b6040516102f89291906125d5565b60405180910390f35b34801561030d57600080fd5b506103166113bb565b6040516103239190611eba565b60405180910390f35b34801561033857600080fd5b50610353600480360381019061034e9190611cd0565b6113c5565b604051610361929190612605565b60405180910390f35b34801561037657600080fd5b5061037f6116f0565b60405161038c919061243e565b60405180910390f35b3480156103a157600080fd5b506103bc60048036038101906103b79190611cd0565b611703565b6040516103cb9392919061262e565b60405180910390f35b3480156103e057600080fd5b506103fb60048036038101906103f69190612665565b61173a565b005b34801561040957600080fd5b50610424600480360381019061041f91906126d1565b6117ea565b005b34801561043257600080fd5b5061044d600480360381019061044891906124b7565b611ab9565b60405161045a9190611eba565b60405180910390f35b34801561046f57600080fd5b5061048a60048036038101906104859190612665565b611ad1565b60405161049993929190612711565b60405180910390f35b3480156104ae57600080fd5b506104b7611b25565b6040516104c49190611eba565b60405180910390f35b3480156104d957600080fd5b506104f460048036038101906104ef9190612665565b611b2b565b005b34801561050257600080fd5b5061051d600480360381019061051891906124b7565b611bab565b60405161052a9190611eba565b60405180910390f35b34801561053f57600080fd5b50610548611bf3565b60405161055591906127a7565b60405180910390f35b34801561056a57600080fd5b5061058560048036038101906105809190611cd0565b611c19565b6040516105929190611eba565b60405180910390f35b600581815481106105ab57600080fd5b90600052602060002090600802016000915090508060000180546105ce906127f1565b80601f01602080910402602001604051908101604052809291908181526020018280546105fa906127f1565b80156106475780601f1061061c57610100808354040283529160200191610647565b820191906000526020600020905b81548152906001019060200180831161062a57829003601f168201915b50505050509080600101805461065c906127f1565b80601f0160208091040260200160405190810160405280929190818152602001828054610688906127f1565b80156106d55780601f106106aa576101008083540402835291602001916106d5565b820191906000526020600020905b8154815290600101906020018083116106b857829003601f168201915b5050505050908060020154908060030154908060040160009054906101000a900460ff16908060050154908060060154908060070160009054906101000a900460ff16905088565b60075481565b60045481565b606080606080606080600060058054905090508067ffffffffffffffff8111156107565761075561224f565b5b6040519080825280602002602001820160405280156107845781602001602082028036833780820191505090505b5096508067ffffffffffffffff8111156107a1576107a061224f565b5b6040519080825280602002602001820160405280156107d457816020015b60608152602001906001900390816107bf5790505b5095508067ffffffffffffffff8111156107f1576107f061224f565b5b60405190808252806020026020018201604052801561082457816020015b606081526020019060019003908161080f5790505b5094508067ffffffffffffffff8111156108415761084061224f565b5b60405190808252806020026020018201604052801561086f5781602001602082028036833780820191505090505b5093508067ffffffffffffffff81111561088c5761088b61224f565b5b6040519080825280602002602001820160405280156108ba5781602001602082028036833780820191505090505b5092508067ffffffffffffffff8111156108d7576108d661224f565b5b6040519080825280602002602001820160405280156109055781602001602082028036833780820191505090505b50915060005b81811015610bba578088828151811061092757610926612822565b5b6020026020010181815250506005818154811061094757610946612822565b5b90600052602060002090600802016000018054610963906127f1565b80601f016020809104026020016040519081016040528092919081815260200182805461098f906127f1565b80156109dc5780601f106109b1576101008083540402835291602001916109dc565b820191906000526020600020905b8154815290600101906020018083116109bf57829003601f168201915b50505050508782815181106109f4576109f3612822565b5b602002602001018190525060058181548110610a1357610a12612822565b5b90600052602060002090600802016001018054610a2f906127f1565b80601f0160208091040260200160405190810160405280929190818152602001828054610a5b906127f1565b8015610aa85780601f10610a7d57610100808354040283529160200191610aa8565b820191906000526020600020905b815481529060010190602001808311610a8b57829003601f168201915b5050505050868281518110610ac057610abf612822565b5b602002602001018190525060058181548110610adf57610ade612822565b5b906000526020600020906008020160020154858281518110610b0457610b03612822565b5b60200260200101818152505060058181548110610b2457610b23612822565b5b906000526020600020906008020160030154848281518110610b4957610b48612822565b5b60200260200101818152505060058181548110610b6957610b68612822565b5b906000526020600020906008020160040160009054906101000a900460ff16838281518110610b9b57610b9a612822565b5b602002602001019015159081151581525050808060010191505061090b565b5050909192939495565b600060058281548110610bda57610bd9612822565b5b906000526020600020906008020160040160006101000a81548160ff0219169083151502179055506000805b600354811015610c5e5760058181548110610c2457610c23612822565b5b906000526020600020906008020160040160009054906101000a900460ff1615610c515760019150610c5e565b8080600101915050610c06565b50600060058381548110610c7557610c74612822565b5b90600052602060002090600802016003015460058481548110610c9b57610c9a612822565b5b9060005260206000209060080201600201541190506040518060600160405280821515815260200160058581548110610cd757610cd6612822565b5b906000526020600020906008020160020154815260200160058581548110610d0257610d01612822565b5b9060005260206000209060080201600301548152506002600085815260200190815260200160002060008201518160000160006101000a81548160ff021916908315150217905550602082015181600101556040820151816002015590505060058381548110610d7557610d74612822565b5b90600052602060002090600802016005015442118015610d9b5750610d9983611119565b155b15610e9157600060058481548110610db657610db5612822565b5b906000526020600020906008020160040160006101000a81548160ff021916908315150217905550604051806060016040528060001515815260200160058581548110610e0657610e05612822565b5b906000526020600020906008020160020154815260200160058581548110610e3157610e30612822565b5b9060005260206000209060080201600301548152506002600085815260200190815260200160002060008201518160000160006101000a81548160ff02191690831515021790555060208201518160010155604082015181600201559050505b81600660006101000a81548160ff021916908315150217905550505050565b610eb8611c63565b600260008381526020019081526020016000206040518060600160405290816000820160009054906101000a900460ff16151515158152602001600182015481526020016002820154815250509050919050565b60003411610f4f576040517f08c379a0000000000000000000000000000000000000000000000000000000008152600401610f46906128c3565b60405180910390fd5b6040518061010001604052808581526020018481526020016000815260200160008152602001600115158152602001603c84610f8b9190612912565b42610f969190612954565b815260200160008152602001826003811115610fb557610fb4611db7565b5b815250600560035481548110610fce57610fcd612822565b5b90600052602060002090600802016000820151816000019081610ff19190612b2a565b5060208201518160010190816110079190612b2a565b50604082015181600201556060820151816003015560808201518160040160006101000a81548160ff02191690831515021790555060a0820151816005015560c0820151816006015560e08201518160070160006101000a81548160ff0219169083600381111561107b5761107a611db7565b5b02179055509050506001600660006101000a81548160ff021916908315150217905550603c826110ab9190612912565b426110b69190612954565b6007819055507ff5dc0da9afa6d080780a49fd8c680f03d2ddf3c067cd6d0c85360c096644d2d3600354846007546040516110f393929190612bfc565b60405180910390a16003600081548092919061110e90612c3a565b919050555050505050565b600080600583815481106111305761112f612822565b5b90600052602060002090600802019050600080600381111561115557611154611db7565b5b8260070160009054906101000a900460ff16600381111561117957611178611db7565b5b0361119457600260045461118d9190612cb1565b9050611297565b600160038111156111a8576111a7611db7565b5b8260070160009054906101000a900460ff1660038111156111cc576111cb611db7565b5b036111f357600360026004546111e29190612912565b6111ec9190612cb1565b9050611296565b6002600381111561120757611206611db7565b5b8260070160009054906101000a900460ff16600381111561122b5761122a611db7565b5b0361125257600460036004546112419190612912565b61124b9190612cb1565b9050611295565b60038081111561126557611264611db7565b5b8260070160009054906101000a900460ff16600381111561128957611288611db7565b5b036112945760045490505b5b5b5b808260020154101592505050919050565b600060606000808473ffffffffffffffffffffffffffffffffffffffff1673ffffffffffffffffffffffffffffffffffffffff16815260200190815260200160002054600160008573ffffffffffffffffffffffffffffffffffffffff1673ffffffffffffffffffffffffffffffffffffffff16815260200190815260200160002080805480602002602001604051908101604052809291908181526020016000905b828210156113ac5783829060005260206000209060030201604051806060016040529081600082015481526020016001820160009054906101000a900460ff161515151581526020016002820154815250508152602001906001019061134b565b50505050905091509150915091565b6000600354905090565b6000806000600584815481106113de576113dd612822565b5b906000526020600020906008020160405180610100016040529081600082018054611408906127f1565b80601f0160208091040260200160405190810160405280929190818152602001828054611434906127f1565b80156114815780601f1061145657610100808354040283529160200191611481565b820191906000526020600020905b81548152906001019060200180831161146457829003601f168201915b5050505050815260200160018201805461149a906127f1565b80601f01602080910402602001604051908101604052809291908181526020018280546114c6906127f1565b80156115135780601f106114e857610100808354040283529160200191611513565b820191906000526020600020905b8154815290600101906020018083116114f657829003601f168201915b5050505050815260200160028201548152602001600382015481526020016004820160009054906101000a900460ff1615151515815260200160058201548152602001600682015481526020016007820160009054906101000a900460ff16600381111561158457611583611db7565b5b600381111561159657611595611db7565b5b81525050905060008160c00151905060006004546064836115b79190612912565b6115c19190612cb1565b9050600060038111156115d7576115d6611db7565b5b8360e0015160038111156115ee576115ed611db7565b5b036116095760026004546116029190612cb1565b93506116e5565b6001600381111561161d5761161c611db7565b5b8360e00151600381111561163457611633611db7565b5b0361165b576003600260045461164a9190612912565b6116549190612cb1565b93506116e4565b6002600381111561166f5761166e611db7565b5b8360e00151600381111561168657611685611db7565b5b036116ad576004600360045461169c9190612912565b6116a69190612cb1565b93506116e3565b6003808111156116c0576116bf611db7565b5b8360e0015160038111156116d7576116d6611db7565b5b036116e25760045493505b5b5b5b809450505050915091565b600660009054906101000a900460ff1681565b60026020528060005260406000206000915090508060000160009054906101000a900460ff16908060010154908060020154905083565b600660009054906101000a900460ff161561178a576040517f08c379a000000000000000000000000000000000000000000000000000000000815260040161178190612d54565b60405180910390fd5b806000808473ffffffffffffffffffffffffffffffffffffffff1673ffffffffffffffffffffffffffffffffffffffff1681526020019081526020016000208190555080600460008282546117df9190612954565b925050819055505050565b60006004546127106000803373ffffffffffffffffffffffffffffffffffffffff1673ffffffffffffffffffffffffffffffffffffffff1681526020019081526020016000205461183b9190612912565b6118459190612cb1565b9050811561188e57806005848154811061186257611861612822565b5b906000526020600020906008020160020160008282546118829190612954565b925050819055506118cb565b80600584815481106118a3576118a2612822565b5b906000526020600020906008020160030160008282546118c39190612954565b925050819055505b80600584815481106118e0576118df612822565b5b906000526020600020906008020160060160008282546119009190612954565b92505081905550600160003373ffffffffffffffffffffffffffffffffffffffff1673ffffffffffffffffffffffffffffffffffffffff168152602001908152602001600020604051806060016040528085815260200184151581526020018381525090806001815401808255809150506001900390600052602060002090600302016000909190919091506000820151816000015560208201518160010160006101000a81548160ff02191690831515021790555060408201518160020155505060006119cd82611c4d565b9050600860009054906101000a900473ffffffffffffffffffffffffffffffffffffffff1673ffffffffffffffffffffffffffffffffffffffff166340c10f1933836040518363ffffffff1660e01b8152600401611a2c929190612d83565b600060405180830381600087803b158015611a4657600080fd5b505af1158015611a5a573d6000803e3d6000fd5b505050507fb898e75d5aac8de2f407e4a683c8d909e832d1e371e3bff0fa3ed934e88d956284338486604051611a939493929190612dac565b60405180910390a1611aa484611119565b15611ab357611ab284610bc4565b5b50505050565b60006020528060005260406000206000915090505481565b60016020528160005260406000208181548110611aed57600080fd5b9060005260206000209060030201600091509150508060000154908060010160009054906101000a900460ff16908060020154905083565b60035481565b806000808473ffffffffffffffffffffffffffffffffffffffff1673ffffffffffffffffffffffffffffffffffffffff168152602001908152602001600020819055507fe6382c9ed5c0c33bb05042f73cf6cbe9cb25639f9a711e094ee563bc9cb80e2c8282604051611b9f929190612d83565b60405180910390a15050565b60008060008373ffffffffffffffffffffffffffffffffffffffff1673ffffffffffffffffffffffffffffffffffffffff168152602001908152602001600020549050919050565b600860009054906101000a900473ffffffffffffffffffffffffffffffffffffffff1681565b60008060058381548110611c3057611c2f612822565b5b906000526020600020906008020160060154905080915050919050565b6000606482611c5c9190612cb1565b9050919050565b604051806060016040528060001515815260200160008152602001600081525090565b6000604051905090565b600080fd5b600080fd5b6000819050919050565b611cad81611c9a565b8114611cb857600080fd5b50565b600081359050611cca81611ca4565b92915050565b600060208284031215611ce657611ce5611c90565b5b6000611cf484828501611cbb565b91505092915050565b600081519050919050565b600082825260208201905092915050565b60005b83811015611d37578082015181840152602081019050611d1c565b60008484015250505050565b6000601f19601f8301169050919050565b6000611d5f82611cfd565b611d698185611d08565b9350611d79818560208601611d19565b611d8281611d43565b840191505092915050565b611d9681611c9a565b82525050565b60008115159050919050565b611db181611d9c565b82525050565b7f4e487b7100000000000000000000000000000000000000000000000000000000600052602160045260246000fd5b60048110611df757611df6611db7565b5b50565b6000819050611e0882611de6565b919050565b6000611e1882611dfa565b9050919050565b611e2881611e0d565b82525050565b6000610100820190508181036000830152611e49818b611d54565b90508181036020830152611e5d818a611d54565b9050611e6c6040830189611d8d565b611e796060830188611d8d565b611e866080830187611da8565b611e9360a0830186611d8d565b611ea060c0830185611d8d565b611ead60e0830184611e1f565b9998505050505050505050565b6000602082019050611ecf6000830184611d8d565b92915050565b600081519050919050565b600082825260208201905092915050565b6000819050602082019050919050565b611f0a81611c9a565b82525050565b6000611f1c8383611f01565b60208301905092915050565b6000602082019050919050565b6000611f4082611ed5565b611f4a8185611ee0565b9350611f5583611ef1565b8060005b83811015611f86578151611f6d8882611f10565b9750611f7883611f28565b925050600181019050611f59565b5085935050505092915050565b600081519050919050565b600082825260208201905092915050565b6000819050602082019050919050565b600082825260208201905092915050565b6000611fdb82611cfd565b611fe58185611fbf565b9350611ff5818560208601611d19565b611ffe81611d43565b840191505092915050565b60006120158383611fd0565b905092915050565b6000602082019050919050565b600061203582611f93565b61203f8185611f9e565b93508360208202850161205185611faf565b8060005b8581101561208d578484038952815161206e8582612009565b94506120798361201d565b925060208a01995050600181019050612055565b50829750879550505050505092915050565b600081519050919050565b600082825260208201905092915050565b6000819050602082019050919050565b6120d481611d9c565b82525050565b60006120e683836120cb565b60208301905092915050565b6000602082019050919050565b600061210a8261209f565b61211481856120aa565b935061211f836120bb565b8060005b8381101561215057815161213788826120da565b9750612142836120f2565b925050600181019050612123565b5085935050505092915050565b600060c08201905081810360008301526121778189611f35565b9050818103602083015261218b818861202a565b9050818103604083015261219f818761202a565b905081810360608301526121b38186611f35565b905081810360808301526121c78185611f35565b905081810360a08301526121db81846120ff565b9050979650505050505050565b6060820160008201516121fe60008501826120cb565b5060208201516122116020850182611f01565b5060408201516122246040850182611f01565b50505050565b600060608201905061223f60008301846121e8565b92915050565b600080fd5b600080fd5b7f4e487b7100000000000000000000000000000000000000000000000000000000600052604160045260246000fd5b61228782611d43565b810181811067ffffffffffffffff821117156122a6576122a561224f565b5b80604052505050565b60006122b9611c86565b90506122c5828261227e565b919050565b600067ffffffffffffffff8211156122e5576122e461224f565b5b6122ee82611d43565b9050602081019050919050565b82818337600083830152505050565b600061231d612318846122ca565b6122af565b9050828152602081018484840111156123395761233861224a565b5b6123448482856122fb565b509392505050565b600082601f83011261236157612360612245565b5b813561237184826020860161230a565b91505092915050565b6004811061238757600080fd5b50565b6000813590506123998161237a565b92915050565b600080600080608085870312156123b9576123b8611c90565b5b600085013567ffffffffffffffff8111156123d7576123d6611c95565b5b6123e38782880161234c565b945050602085013567ffffffffffffffff81111561240457612403611c95565b5b6124108782880161234c565b935050604061242187828801611cbb565b92505060606124328782880161238a565b91505092959194509250565b60006020820190506124536000830184611da8565b92915050565b600073ffffffffffffffffffffffffffffffffffffffff82169050919050565b600061248482612459565b9050919050565b61249481612479565b811461249f57600080fd5b50565b6000813590506124b18161248b565b92915050565b6000602082840312156124cd576124cc611c90565b5b60006124db848285016124a2565b91505092915050565b600081519050919050565b600082825260208201905092915050565b6000819050602082019050919050565b6060820160008201516125266000850182611f01565b50602082015161253960208501826120cb565b50604082015161254c6040850182611f01565b50505050565b600061255e8383612510565b60608301905092915050565b6000602082019050919050565b6000612582826124e4565b61258c81856124ef565b935061259783612500565b8060005b838110156125c85781516125af8882612552565b97506125ba8361256a565b92505060018101905061259b565b5085935050505092915050565b60006040820190506125ea6000830185611d8d565b81810360208301526125fc8184612577565b90509392505050565b600060408201905061261a6000830185611d8d565b6126276020830184611d8d565b9392505050565b60006060820190506126436000830186611da8565b6126506020830185611d8d565b61265d6040830184611d8d565b949350505050565b6000806040838503121561267c5761267b611c90565b5b600061268a858286016124a2565b925050602061269b85828601611cbb565b9150509250929050565b6126ae81611d9c565b81146126b957600080fd5b50565b6000813590506126cb816126a5565b92915050565b600080604083850312156126e8576126e7611c90565b5b60006126f685828601611cbb565b9250506020612707858286016126bc565b9150509250929050565b60006060820190506127266000830186611d8d565b6127336020830185611da8565b6127406040830184611d8d565b949350505050565b6000819050919050565b600061276d61276861276384612459565b612748565b612459565b9050919050565b600061277f82612752565b9050919050565b600061279182612774565b9050919050565b6127a181612786565b82525050565b60006020820190506127bc6000830184612798565b92915050565b7f4e487b7100000000000000000000000000000000000000000000000000000000600052602260045260246000fd5b6000600282049050600182168061280957607f821691505b60208210810361281c5761281b6127c2565b5b50919050565b7f4e487b7100000000000000000000000000000000000000000000000000000000600052603260045260246000fd5b7f45544820726571756972656420666f72206372656174696e672070726f706f7360008201527f616c000000000000000000000000000000000000000000000000000000000000602082015250565b60006128ad602283611d08565b91506128b882612851565b604082019050919050565b600060208201905081810360008301526128dc816128a0565b9050919050565b7f4e487b7100000000000000000000000000000000000000000000000000000000600052601160045260246000fd5b600061291d82611c9a565b915061292883611c9a565b925082820261293681611c9a565b9150828204841483151761294d5761294c6128e3565b5b5092915050565b600061295f82611c9a565b915061296a83611c9a565b9250828201905080821115612982576129816128e3565b5b92915050565b60008190508160005260206000209050919050565b60006020601f8301049050919050565b600082821b905092915050565b6000600883026129ea7fffffffffffffffffffffffffffffffffffffffffffffffffffffffffffffffff826129ad565b6129f486836129ad565b95508019841693508086168417925050509392505050565b6000612a27612a22612a1d84611c9a565b612748565b611c9a565b9050919050565b6000819050919050565b612a4183612a0c565b612a55612a4d82612a2e565b8484546129ba565b825550505050565b600090565b612a6a612a5d565b612a75818484612a38565b505050565b5b81811015612a9957612a8e600082612a62565b600181019050612a7b565b5050565b601f821115612ade57612aaf81612988565b612ab88461299d565b81016020851015612ac7578190505b612adb612ad38561299d565b830182612a7a565b50505b505050565b600082821c905092915050565b6000612b0160001984600802612ae3565b1980831691505092915050565b6000612b1a8383612af0565b9150826002028217905092915050565b612b3382611cfd565b67ffffffffffffffff811115612b4c57612b4b61224f565b5b612b5682546127f1565b612b61828285612a9d565b600060209050601f831160018114612b945760008415612b82578287015190505b612b8c8582612b0e565b865550612bf4565b601f198416612ba286612988565b60005b82811015612bca57848901518255600182019150602085019450602081019050612ba5565b86831015612be75784890151612be3601f891682612af0565b8355505b6001600288020188555050505b505050505050565b6000606082019050612c116000830186611d8d565b8181036020830152612c238185611d54565b9050612c326040830184611d8d565b949350505050565b6000612c4582611c9a565b91507fffffffffffffffffffffffffffffffffffffffffffffffffffffffffffffffff8203612c7757612c766128e3565b5b600182019050919050565b7f4e487b7100000000000000000000000000000000000000000000000000000000600052601260045260246000fd5b6000612cbc82611c9a565b9150612cc783611c9a565b925082612cd757612cd6612c82565b5b828204905092915050565b7f4865792069747320616e2061637469766520766f74696e6720706572696f642c60008201527f20796f752063616e6e6f7420766f7465206e6f772e0000000000000000000000602082015250565b6000612d3e603583611d08565b9150612d4982612ce2565b604082019050919050565b60006020820190508181036000830152612d6d81612d31565b9050919050565b612d7d81612479565b82525050565b6000604082019050612d986000830185612d74565b612da56020830184611d8d565b9392505050565b6000608082019050612dc16000830187611d8d565b612dce6020830186612d74565b612ddb6040830185611d8d565b612de86060830184611da8565b9594505050505056fea26469706673582212205eff1facc33b4ce113c34ae22fdc63857e29ed0220b3d478be32d8fb8b78b6ac64736f6c634300081a0033",
  "linkReferences": {},
  "deployedLinkReferences": {}
}