{
  "_format": "hh-sol-artifact-1",
  "contractName": "VotingContract",
  "sourceName": "contracts/smartContract.sol",
  "abi": [
    {
      "inputs": [
        {
          "internalType": "address",
          "name": "_tokenAddress",
          "type": "address"
        }
      ],
      "stateMutability": "nonpayable",
      "type": "constructor"
    },
    {
      "anonymous": false,
      "inputs": [
        {
          "indexed": false,
          "internalType": "uint256",
          "name": "proposalId",
          "type": "uint256"
        },
        {
          "indexed": false,
          "internalType": "string",
          "name": "description",
          "type": "string"
        },
        {
          "indexed": false,
          "internalType": "uint256",
          "name": "votingEndTime",
          "type": "uint256"
        }
      ],
      "name": "ProposalCreated",
      "type": "event"
    },
    {
      "anonymous": false,
      "inputs": [
        {
          "indexed": false,
          "internalType": "address",
          "name": "voter",
          "type": "address"
        },
        {
          "indexed": false,
          "internalType": "uint256",
          "name": "rewardAmount",
          "type": "uint256"
        }
      ],
      "name": "RewardIssued",
      "type": "event"
    },
    {
      "anonymous": false,
      "inputs": [
        {
          "indexed": false,
          "internalType": "address",
          "name": "voter",
          "type": "address"
        },
        {
          "indexed": false,
          "internalType": "uint256",
          "name": "newShares",
          "type": "uint256"
        }
      ],
      "name": "SharesUpdated",
      "type": "event"
    },
    {
      "anonymous": false,
      "inputs": [
        {
          "indexed": false,
          "internalType": "uint256",
          "name": "proposalId",
          "type": "uint256"
        },
        {
          "indexed": false,
          "internalType": "address",
          "name": "voter",
          "type": "address"
        },
        {
          "indexed": false,
          "internalType": "uint256",
          "name": "weight",
          "type": "uint256"
        },
        {
          "indexed": false,
          "internalType": "bool",
          "name": "voteFor",
          "type": "bool"
        }
      ],
      "name": "VoteCast",
      "type": "event"
    },
    {
      "inputs": [
        {
          "internalType": "string",
          "name": "title",
          "type": "string"
        },
        {
          "internalType": "string",
          "name": "description",
          "type": "string"
        },
        {
          "internalType": "uint256",
          "name": "durationInMinutes",
          "type": "uint256"
        },
        {
          "internalType": "enum VotingContract.QuorumType",
          "name": "quorumType",
          "type": "uint8"
        }
      ],
      "name": "createProposal",
      "outputs": [],
      "stateMutability": "payable",
      "type": "function"
    },
    {
      "inputs": [
        {
          "internalType": "uint256",
          "name": "proposalId",
          "type": "uint256"
        }
      ],
      "name": "endVoting",
      "outputs": [],
      "stateMutability": "nonpayable",
      "type": "function"
    },
    {
      "inputs": [
        {
          "internalType": "uint256",
          "name": "proposalId",
          "type": "uint256"
        }
      ],
      "name": "getProposalOutcome",
      "outputs": [
        {
          "components": [
            {
              "internalType": "bool",
              "name": "passed",
              "type": "bool"
            },
            {
              "internalType": "uint256",
              "name": "votesFor",
              "type": "uint256"
            },
            {
              "internalType": "uint256",
              "name": "votesAgainst",
              "type": "uint256"
            }
          ],
          "internalType": "struct VotingContract.ProposalOutcome",
          "name": "",
          "type": "tuple"
        }
      ],
      "stateMutability": "view",
      "type": "function"
    },
    {
      "inputs": [],
      "name": "getProposals",
      "outputs": [
        {
          "internalType": "uint256[]",
          "name": "ids",
          "type": "uint256[]"
        },
        {
          "internalType": "string[]",
          "name": "titles",
          "type": "string[]"
        },
        {
          "internalType": "string[]",
          "name": "descriptions",
          "type": "string[]"
        },
        {
          "internalType": "uint256[]",
          "name": "votesForArray",
          "type": "uint256[]"
        },
        {
          "internalType": "uint256[]",
          "name": "votesAgainstArray",
          "type": "uint256[]"
        },
        {
          "internalType": "bool[]",
          "name": "actives",
          "type": "bool[]"
        }
      ],
      "stateMutability": "view",
      "type": "function"
    },
    {
      "inputs": [],
      "name": "getProposalsCount",
      "outputs": [
        {
          "internalType": "uint256",
          "name": "",
          "type": "uint256"
        }
      ],
      "stateMutability": "view",
      "type": "function"
    },
    {
      "inputs": [
        {
          "internalType": "uint256",
          "name": "proposalId",
          "type": "uint256"
        }
      ],
      "name": "getVotingProgress",
      "outputs": [
        {
          "internalType": "uint256",
          "name": "progress",
          "type": "uint256"
        },
        {
          "internalType": "uint256",
          "name": "requiredQuorum",
          "type": "uint256"
        }
      ],
      "stateMutability": "view",
      "type": "function"
    },
    {
      "inputs": [],
      "name": "governanceToken",
      "outputs": [
        {
          "internalType": "contract GovernanceToken",
          "name": "",
          "type": "address"
        }
      ],
      "stateMutability": "view",
      "type": "function"
    },
    {
      "inputs": [
        {
          "internalType": "uint256",
          "name": "proposalId",
          "type": "uint256"
        }
      ],
      "name": "hasMetQuorum",
      "outputs": [
        {
          "internalType": "bool",
          "name": "",
          "type": "bool"
        }
      ],
      "stateMutability": "view",
      "type": "function"
    },
    {
      "inputs": [],
      "name": "isVotingPeriodActive",
      "outputs": [
        {
          "internalType": "bool",
          "name": "",
          "type": "bool"
        }
      ],
      "stateMutability": "view",
      "type": "function"
    },
    {
      "inputs": [],
      "name": "proposalCount",
      "outputs": [
        {
          "internalType": "uint256",
          "name": "",
          "type": "uint256"
        }
      ],
      "stateMutability": "view",
      "type": "function"
    },
    {
      "inputs": [
        {
          "internalType": "uint256",
          "name": "",
          "type": "uint256"
        }
      ],
      "name": "proposalOutcomes",
      "outputs": [
        {
          "internalType": "bool",
          "name": "passed",
          "type": "bool"
        },
        {
          "internalType": "uint256",
          "name": "votesFor",
          "type": "uint256"
        },
        {
          "internalType": "uint256",
          "name": "votesAgainst",
          "type": "uint256"
        }
      ],
      "stateMutability": "view",
      "type": "function"
    },
    {
      "inputs": [
        {
          "internalType": "uint256",
          "name": "",
          "type": "uint256"
        }
      ],
      "name": "proposals",
      "outputs": [
        {
          "internalType": "string",
          "name": "title",
          "type": "string"
        },
        {
          "internalType": "string",
          "name": "description",
          "type": "string"
        },
        {
          "internalType": "uint256",
          "name": "votesFor",
          "type": "uint256"
        },
        {
          "internalType": "uint256",
          "name": "votesAgainst",
          "type": "uint256"
        },
        {
          "internalType": "bool",
          "name": "active",
          "type": "bool"
        },
        {
          "internalType": "uint256",
          "name": "votingEndTime",
          "type": "uint256"
        },
        {
          "internalType": "uint256",
          "name": "totalVotesCast",
          "type": "uint256"
        },
        {
          "internalType": "enum VotingContract.QuorumType",
          "name": "quorumType",
          "type": "uint8"
        }
      ],
      "stateMutability": "view",
      "type": "function"
    },
    {
      "inputs": [
        {
          "internalType": "address",
          "name": "voter",
          "type": "address"
        },
        {
          "internalType": "uint256",
          "name": "shareCount",
          "type": "uint256"
        }
      ],
      "name": "registerShareholder",
      "outputs": [],
      "stateMutability": "nonpayable",
      "type": "function"
    },
    {
      "inputs": [
        {
          "internalType": "address",
          "name": "",
          "type": "address"
        }
      ],
      "name": "shares",
      "outputs": [
        {
          "internalType": "uint256",
          "name": "",
          "type": "uint256"
        }
      ],
      "stateMutability": "view",
      "type": "function"
    },
    {
      "inputs": [],
      "name": "totalShares",
      "outputs": [
        {
          "internalType": "uint256",
          "name": "",
          "type": "uint256"
        }
      ],
      "stateMutability": "view",
      "type": "function"
    },
    {
      "inputs": [
        {
          "internalType": "address",
          "name": "voter",
          "type": "address"
        },
        {
          "internalType": "uint256",
          "name": "newShares",
          "type": "uint256"
        }
      ],
      "name": "updateShares",
      "outputs": [],
      "stateMutability": "nonpayable",
      "type": "function"
    },
    {
      "inputs": [
        {
          "internalType": "uint256",
          "name": "proposalId",
          "type": "uint256"
        },
        {
          "internalType": "bool",
          "name": "voteFor",
          "type": "bool"
        }
      ],
      "name": "vote",
      "outputs": [],
      "stateMutability": "nonpayable",
      "type": "function"
    },
    {
      "inputs": [],
      "name": "votingEndTime",
      "outputs": [
        {
          "internalType": "uint256",
          "name": "",
          "type": "uint256"
        }
      ],
      "stateMutability": "view",
      "type": "function"
    },
    {
      "inputs": [
        {
          "internalType": "address",
          "name": "",
          "type": "address"
        },
        {
          "internalType": "uint256",
          "name": "",
          "type": "uint256"
        }
      ],
      "name": "votingHistory",
      "outputs": [
        {
          "internalType": "uint256",
          "name": "proposalId",
          "type": "uint256"
        },
        {
          "internalType": "bool",
          "name": "votedFor",
          "type": "bool"
        },
        {
          "internalType": "uint256",
          "name": "voteWeight",
          "type": "uint256"
        }
      ],
      "stateMutability": "view",
      "type": "function"
    }
  ],
  "bytecode": "0x608060405234801561001057600080fd5b50604051612bb6380380612bb6833981810160405281019061003291906100dc565b80600860006101000a81548173ffffffffffffffffffffffffffffffffffffffff021916908373ffffffffffffffffffffffffffffffffffffffff16021790555050610109565b600080fd5b600073ffffffffffffffffffffffffffffffffffffffff82169050919050565b60006100a98261007e565b9050919050565b6100b98161009e565b81146100c457600080fd5b50565b6000815190506100d6816100b0565b92915050565b6000602082840312156100f2576100f1610079565b5b6000610100848285016100c7565b91505092915050565b612a9e806101186000396000f3fe6080604052600436106101145760003560e01c80639baf1c97116100a0578063ce7c2ac211610064578063ce7c2ac2146103c7578063d09c34f214610404578063da35c66414610443578063e5d0821f1461046e578063f96dae0a1461049757610114565b80639baf1c97146102cd5780639fcc5ce41461030b578063a9c0310d14610336578063afafa0cf14610375578063c9d27afe1461039e57610114565b8063649f89a5116100e7578063649f89a5146101e35780636fdb6f7c1461020c57806370f6e05d146102495780637a7c153b1461026557806398e527d3146102a257610114565b8063013cf08b146101195780631ea736e01461015d5780633a98ef391461018857806362564c48146101b3575b600080fd5b34801561012557600080fd5b50610140600480360381019061013b9190611a68565b6104c2565b604051610154989796959493929190611bc6565b60405180910390f35b34801561016957600080fd5b50610172610644565b60405161017f9190611c52565b60405180910390f35b34801561019457600080fd5b5061019d61064a565b6040516101aa9190611c52565b60405180910390f35b3480156101bf57600080fd5b506101c8610650565b6040516101da96959493929190611ef5565b60405180910390f35b3480156101ef57600080fd5b5061020a60048036038101906102059190611a68565b610aeb565b005b34801561021857600080fd5b50610233600480360381019061022e9190611a68565b610dd7565b6040516102409190611fc2565b60405180910390f35b610263600480360381019061025e9190612137565b610e33565b005b34801561027157600080fd5b5061028c60048036038101906102879190611a68565b611040565b60405161029991906121d6565b60405180910390f35b3480156102ae57600080fd5b506102b76111cf565b6040516102c49190611c52565b60405180910390f35b3480156102d957600080fd5b506102f460048036038101906102ef9190611a68565b6111d9565b6040516103029291906121f1565b60405180910390f35b34801561031757600080fd5b50610320611504565b60405161032d91906121d6565b60405180910390f35b34801561034257600080fd5b5061035d60048036038101906103589190611a68565b611517565b60405161036c9392919061221a565b60405180910390f35b34801561038157600080fd5b5061039c600480360381019061039791906122af565b61154e565b005b3480156103aa57600080fd5b506103c560048036038101906103c0919061231b565b6115fe565b005b3480156103d357600080fd5b506103ee60048036038101906103e9919061235b565b6118cd565b6040516103fb9190611c52565b60405180910390f35b34801561041057600080fd5b5061042b600480360381019061042691906122af565b6118e5565b60405161043a93929190612388565b60405180910390f35b34801561044f57600080fd5b50610458611939565b6040516104659190611c52565b60405180910390f35b34801561047a57600080fd5b50610495600480360381019061049091906122af565b61193f565b005b3480156104a357600080fd5b506104ac6119bf565b6040516104b9919061241e565b60405180910390f35b600581815481106104d257600080fd5b90600052602060002090600802016000915090508060000180546104f590612468565b80601f016020809104026020016040519081016040528092919081815260200182805461052190612468565b801561056e5780601f106105435761010080835404028352916020019161056e565b820191906000526020600020905b81548152906001019060200180831161055157829003601f168201915b50505050509080600101805461058390612468565b80601f01602080910402602001604051908101604052809291908181526020018280546105af90612468565b80156105fc5780601f106105d1576101008083540402835291602001916105fc565b820191906000526020600020905b8154815290600101906020018083116105df57829003601f168201915b5050505050908060020154908060030154908060040160009054906101000a900460ff16908060050154908060060154908060070160009054906101000a900460ff16905088565b60075481565b60045481565b606080606080606080600060058054905090508067ffffffffffffffff81111561067d5761067c611fe7565b5b6040519080825280602002602001820160405280156106ab5781602001602082028036833780820191505090505b5096508067ffffffffffffffff8111156106c8576106c7611fe7565b5b6040519080825280602002602001820160405280156106fb57816020015b60608152602001906001900390816106e65790505b5095508067ffffffffffffffff81111561071857610717611fe7565b5b60405190808252806020026020018201604052801561074b57816020015b60608152602001906001900390816107365790505b5094508067ffffffffffffffff81111561076857610767611fe7565b5b6040519080825280602002602001820160405280156107965781602001602082028036833780820191505090505b5093508067ffffffffffffffff8111156107b3576107b2611fe7565b5b6040519080825280602002602001820160405280156107e15781602001602082028036833780820191505090505b5092508067ffffffffffffffff8111156107fe576107fd611fe7565b5b60405190808252806020026020018201604052801561082c5781602001602082028036833780820191505090505b50915060005b81811015610ae1578088828151811061084e5761084d612499565b5b6020026020010181815250506005818154811061086e5761086d612499565b5b9060005260206000209060080201600001805461088a90612468565b80601f01602080910402602001604051908101604052809291908181526020018280546108b690612468565b80156109035780601f106108d857610100808354040283529160200191610903565b820191906000526020600020905b8154815290600101906020018083116108e657829003601f168201915b505050505087828151811061091b5761091a612499565b5b60200260200101819052506005818154811061093a57610939612499565b5b9060005260206000209060080201600101805461095690612468565b80601f016020809104026020016040519081016040528092919081815260200182805461098290612468565b80156109cf5780601f106109a4576101008083540402835291602001916109cf565b820191906000526020600020905b8154815290600101906020018083116109b257829003601f168201915b50505050508682815181106109e7576109e6612499565b5b602002602001018190525060058181548110610a0657610a05612499565b5b906000526020600020906008020160020154858281518110610a2b57610a2a612499565b5b60200260200101818152505060058181548110610a4b57610a4a612499565b5b906000526020600020906008020160030154848281518110610a7057610a6f612499565b5b60200260200101818152505060058181548110610a9057610a8f612499565b5b906000526020600020906008020160040160009054906101000a900460ff16838281518110610ac257610ac1612499565b5b6020026020010190151590811515815250508080600101915050610832565b5050909192939495565b600060058281548110610b0157610b00612499565b5b906000526020600020906008020160040160006101000a81548160ff0219169083151502179055506000805b600354811015610b855760058181548110610b4b57610b4a612499565b5b906000526020600020906008020160040160009054906101000a900460ff1615610b785760019150610b85565b8080600101915050610b2d565b50600060058381548110610b9c57610b9b612499565b5b90600052602060002090600802016003015460058481548110610bc257610bc1612499565b5b9060005260206000209060080201600201541190506040518060600160405280821515815260200160058581548110610bfe57610bfd612499565b5b906000526020600020906008020160020154815260200160058581548110610c2957610c28612499565b5b9060005260206000209060080201600301548152506002600085815260200190815260200160002060008201518160000160006101000a81548160ff021916908315150217905550602082015181600101556040820151816002015590505060058381548110610c9c57610c9b612499565b5b90600052602060002090600802016005015442118015610cc25750610cc083611040565b155b15610db857600060058481548110610cdd57610cdc612499565b5b906000526020600020906008020160040160006101000a81548160ff021916908315150217905550604051806060016040528060001515815260200160058581548110610d2d57610d2c612499565b5b906000526020600020906008020160020154815260200160058581548110610d5857610d57612499565b5b9060005260206000209060080201600301548152506002600085815260200190815260200160002060008201518160000160006101000a81548160ff02191690831515021790555060208201518160010155604082015181600201559050505b81600660006101000a81548160ff021916908315150217905550505050565b610ddf6119fb565b600260008381526020019081526020016000206040518060600160405290816000820160009054906101000a900460ff16151515158152602001600182015481526020016002820154815250509050919050565b60003411610e76576040517f08c379a0000000000000000000000000000000000000000000000000000000008152600401610e6d9061253a565b60405180910390fd5b6040518061010001604052808581526020018481526020016000815260200160008152602001600115158152602001603c84610eb29190612589565b42610ebd91906125cb565b815260200160008152602001826003811115610edc57610edb611b4f565b5b815250600560035481548110610ef557610ef4612499565b5b90600052602060002090600802016000820151816000019081610f1891906127a1565b506020820151816001019081610f2e91906127a1565b50604082015181600201556060820151816003015560808201518160040160006101000a81548160ff02191690831515021790555060a0820151816005015560c0820151816006015560e08201518160070160006101000a81548160ff02191690836003811115610fa257610fa1611b4f565b5b02179055509050506001600660006101000a81548160ff021916908315150217905550603c82610fd29190612589565b42610fdd91906125cb565b6007819055507ff5dc0da9afa6d080780a49fd8c680f03d2ddf3c067cd6d0c85360c096644d2d36003548460075460405161101a93929190612873565b60405180910390a160036000815480929190611035906128b1565b919050555050505050565b6000806005838154811061105757611056612499565b5b90600052602060002090600802019050600080600381111561107c5761107b611b4f565b5b8260070160009054906101000a900460ff1660038111156110a05761109f611b4f565b5b036110bb5760026004546110b49190612928565b90506111be565b600160038111156110cf576110ce611b4f565b5b8260070160009054906101000a900460ff1660038111156110f3576110f2611b4f565b5b0361111a57600360026004546111099190612589565b6111139190612928565b90506111bd565b6002600381111561112e5761112d611b4f565b5b8260070160009054906101000a900460ff16600381111561115257611151611b4f565b5b0361117957600460036004546111689190612589565b6111729190612928565b90506111bc565b60038081111561118c5761118b611b4f565b5b8260070160009054906101000a900460ff1660038111156111b0576111af611b4f565b5b036111bb5760045490505b5b5b5b808260020154101592505050919050565b6000600354905090565b6000806000600584815481106111f2576111f1612499565b5b90600052602060002090600802016040518061010001604052908160008201805461121c90612468565b80601f016020809104026020016040519081016040528092919081815260200182805461124890612468565b80156112955780601f1061126a57610100808354040283529160200191611295565b820191906000526020600020905b81548152906001019060200180831161127857829003601f168201915b505050505081526020016001820180546112ae90612468565b80601f01602080910402602001604051908101604052809291908181526020018280546112da90612468565b80156113275780601f106112fc57610100808354040283529160200191611327565b820191906000526020600020905b81548152906001019060200180831161130a57829003601f168201915b5050505050815260200160028201548152602001600382015481526020016004820160009054906101000a900460ff1615151515815260200160058201548152602001600682015481526020016007820160009054906101000a900460ff16600381111561139857611397611b4f565b5b60038111156113aa576113a9611b4f565b5b81525050905060008160c00151905060006004546064836113cb9190612589565b6113d59190612928565b9050600060038111156113eb576113ea611b4f565b5b8360e00151600381111561140257611401611b4f565b5b0361141d5760026004546114169190612928565b93506114f9565b6001600381111561143157611430611b4f565b5b8360e00151600381111561144857611447611b4f565b5b0361146f576003600260045461145e9190612589565b6114689190612928565b93506114f8565b6002600381111561148357611482611b4f565b5b8360e00151600381111561149a57611499611b4f565b5b036114c157600460036004546114b09190612589565b6114ba9190612928565b93506114f7565b6003808111156114d4576114d3611b4f565b5b8360e0015160038111156114eb576114ea611b4f565b5b036114f65760045493505b5b5b5b809450505050915091565b600660009054906101000a900460ff1681565b60026020528060005260406000206000915090508060000160009054906101000a900460ff16908060010154908060020154905083565b600660009054906101000a900460ff161561159e576040517f08c379a0000000000000000000000000000000000000000000000000000000008152600401611595906129cb565b60405180910390fd5b806000808473ffffffffffffffffffffffffffffffffffffffff1673ffffffffffffffffffffffffffffffffffffffff1681526020019081526020016000208190555080600460008282546115f391906125cb565b925050819055505050565b60006004546127106000803373ffffffffffffffffffffffffffffffffffffffff1673ffffffffffffffffffffffffffffffffffffffff1681526020019081526020016000205461164f9190612589565b6116599190612928565b905081156116a257806005848154811061167657611675612499565b5b9060005260206000209060080201600201600082825461169691906125cb565b925050819055506116df565b80600584815481106116b7576116b6612499565b5b906000526020600020906008020160030160008282546116d791906125cb565b925050819055505b80600584815481106116f4576116f3612499565b5b9060005260206000209060080201600601600082825461171491906125cb565b92505081905550600160003373ffffffffffffffffffffffffffffffffffffffff1673ffffffffffffffffffffffffffffffffffffffff168152602001908152602001600020604051806060016040528085815260200184151581526020018381525090806001815401808255809150506001900390600052602060002090600302016000909190919091506000820151816000015560208201518160010160006101000a81548160ff02191690831515021790555060408201518160020155505060006117e1826119e5565b9050600860009054906101000a900473ffffffffffffffffffffffffffffffffffffffff1673ffffffffffffffffffffffffffffffffffffffff166340c10f1933836040518363ffffffff1660e01b81526004016118409291906129fa565b600060405180830381600087803b15801561185a57600080fd5b505af115801561186e573d6000803e3d6000fd5b505050507fb898e75d5aac8de2f407e4a683c8d909e832d1e371e3bff0fa3ed934e88d9562843384866040516118a79493929190612a23565b60405180910390a16118b884611040565b156118c7576118c684610aeb565b5b50505050565b60006020528060005260406000206000915090505481565b6001602052816000526040600020818154811061190157600080fd5b9060005260206000209060030201600091509150508060000154908060010160009054906101000a900460ff16908060020154905083565b60035481565b806000808473ffffffffffffffffffffffffffffffffffffffff1673ffffffffffffffffffffffffffffffffffffffff168152602001908152602001600020819055507fe6382c9ed5c0c33bb05042f73cf6cbe9cb25639f9a711e094ee563bc9cb80e2c82826040516119b39291906129fa565b60405180910390a15050565b600860009054906101000a900473ffffffffffffffffffffffffffffffffffffffff1681565b60006064826119f49190612928565b9050919050565b604051806060016040528060001515815260200160008152602001600081525090565b6000604051905090565b600080fd5b600080fd5b6000819050919050565b611a4581611a32565b8114611a5057600080fd5b50565b600081359050611a6281611a3c565b92915050565b600060208284031215611a7e57611a7d611a28565b5b6000611a8c84828501611a53565b91505092915050565b600081519050919050565b600082825260208201905092915050565b60005b83811015611acf578082015181840152602081019050611ab4565b60008484015250505050565b6000601f19601f8301169050919050565b6000611af782611a95565b611b018185611aa0565b9350611b11818560208601611ab1565b611b1a81611adb565b840191505092915050565b611b2e81611a32565b82525050565b60008115159050919050565b611b4981611b34565b82525050565b7f4e487b7100000000000000000000000000000000000000000000000000000000600052602160045260246000fd5b60048110611b8f57611b8e611b4f565b5b50565b6000819050611ba082611b7e565b919050565b6000611bb082611b92565b9050919050565b611bc081611ba5565b82525050565b6000610100820190508181036000830152611be1818b611aec565b90508181036020830152611bf5818a611aec565b9050611c046040830189611b25565b611c116060830188611b25565b611c1e6080830187611b40565b611c2b60a0830186611b25565b611c3860c0830185611b25565b611c4560e0830184611bb7565b9998505050505050505050565b6000602082019050611c676000830184611b25565b92915050565b600081519050919050565b600082825260208201905092915050565b6000819050602082019050919050565b611ca281611a32565b82525050565b6000611cb48383611c99565b60208301905092915050565b6000602082019050919050565b6000611cd882611c6d565b611ce28185611c78565b9350611ced83611c89565b8060005b83811015611d1e578151611d058882611ca8565b9750611d1083611cc0565b925050600181019050611cf1565b5085935050505092915050565b600081519050919050565b600082825260208201905092915050565b6000819050602082019050919050565b600082825260208201905092915050565b6000611d7382611a95565b611d7d8185611d57565b9350611d8d818560208601611ab1565b611d9681611adb565b840191505092915050565b6000611dad8383611d68565b905092915050565b6000602082019050919050565b6000611dcd82611d2b565b611dd78185611d36565b935083602082028501611de985611d47565b8060005b85811015611e255784840389528151611e068582611da1565b9450611e1183611db5565b925060208a01995050600181019050611ded565b50829750879550505050505092915050565b600081519050919050565b600082825260208201905092915050565b6000819050602082019050919050565b611e6c81611b34565b82525050565b6000611e7e8383611e63565b60208301905092915050565b6000602082019050919050565b6000611ea282611e37565b611eac8185611e42565b9350611eb783611e53565b8060005b83811015611ee8578151611ecf8882611e72565b9750611eda83611e8a565b925050600181019050611ebb565b5085935050505092915050565b600060c0820190508181036000830152611f0f8189611ccd565b90508181036020830152611f238188611dc2565b90508181036040830152611f378187611dc2565b90508181036060830152611f4b8186611ccd565b90508181036080830152611f5f8185611ccd565b905081810360a0830152611f738184611e97565b9050979650505050505050565b606082016000820151611f966000850182611e63565b506020820151611fa96020850182611c99565b506040820151611fbc6040850182611c99565b50505050565b6000606082019050611fd76000830184611f80565b92915050565b600080fd5b600080fd5b7f4e487b7100000000000000000000000000000000000000000000000000000000600052604160045260246000fd5b61201f82611adb565b810181811067ffffffffffffffff8211171561203e5761203d611fe7565b5b80604052505050565b6000612051611a1e565b905061205d8282612016565b919050565b600067ffffffffffffffff82111561207d5761207c611fe7565b5b61208682611adb565b9050602081019050919050565b82818337600083830152505050565b60006120b56120b084612062565b612047565b9050828152602081018484840111156120d1576120d0611fe2565b5b6120dc848285612093565b509392505050565b600082601f8301126120f9576120f8611fdd565b5b81356121098482602086016120a2565b91505092915050565b6004811061211f57600080fd5b50565b60008135905061213181612112565b92915050565b6000806000806080858703121561215157612150611a28565b5b600085013567ffffffffffffffff81111561216f5761216e611a2d565b5b61217b878288016120e4565b945050602085013567ffffffffffffffff81111561219c5761219b611a2d565b5b6121a8878288016120e4565b93505060406121b987828801611a53565b92505060606121ca87828801612122565b91505092959194509250565b60006020820190506121eb6000830184611b40565b92915050565b60006040820190506122066000830185611b25565b6122136020830184611b25565b9392505050565b600060608201905061222f6000830186611b40565b61223c6020830185611b25565b6122496040830184611b25565b949350505050565b600073ffffffffffffffffffffffffffffffffffffffff82169050919050565b600061227c82612251565b9050919050565b61228c81612271565b811461229757600080fd5b50565b6000813590506122a981612283565b92915050565b600080604083850312156122c6576122c5611a28565b5b60006122d48582860161229a565b92505060206122e585828601611a53565b9150509250929050565b6122f881611b34565b811461230357600080fd5b50565b600081359050612315816122ef565b92915050565b6000806040838503121561233257612331611a28565b5b600061234085828601611a53565b925050602061235185828601612306565b9150509250929050565b60006020828403121561237157612370611a28565b5b600061237f8482850161229a565b91505092915050565b600060608201905061239d6000830186611b25565b6123aa6020830185611b40565b6123b76040830184611b25565b949350505050565b6000819050919050565b60006123e46123df6123da84612251565b6123bf565b612251565b9050919050565b60006123f6826123c9565b9050919050565b6000612408826123eb565b9050919050565b612418816123fd565b82525050565b6000602082019050612433600083018461240f565b92915050565b7f4e487b7100000000000000000000000000000000000000000000000000000000600052602260045260246000fd5b6000600282049050600182168061248057607f821691505b60208210810361249357612492612439565b5b50919050565b7f4e487b7100000000000000000000000000000000000000000000000000000000600052603260045260246000fd5b7f45544820726571756972656420666f72206372656174696e672070726f706f7360008201527f616c000000000000000000000000000000000000000000000000000000000000602082015250565b6000612524602283611aa0565b915061252f826124c8565b604082019050919050565b6000602082019050818103600083015261255381612517565b9050919050565b7f4e487b7100000000000000000000000000000000000000000000000000000000600052601160045260246000fd5b600061259482611a32565b915061259f83611a32565b92508282026125ad81611a32565b915082820484148315176125c4576125c361255a565b5b5092915050565b60006125d682611a32565b91506125e183611a32565b92508282019050808211156125f9576125f861255a565b5b92915050565b60008190508160005260206000209050919050565b60006020601f8301049050919050565b600082821b905092915050565b6000600883026126617fffffffffffffffffffffffffffffffffffffffffffffffffffffffffffffffff82612624565b61266b8683612624565b95508019841693508086168417925050509392505050565b600061269e61269961269484611a32565b6123bf565b611a32565b9050919050565b6000819050919050565b6126b883612683565b6126cc6126c4826126a5565b848454612631565b825550505050565b600090565b6126e16126d4565b6126ec8184846126af565b505050565b5b81811015612710576127056000826126d9565b6001810190506126f2565b5050565b601f82111561275557612726816125ff565b61272f84612614565b8101602085101561273e578190505b61275261274a85612614565b8301826126f1565b50505b505050565b600082821c905092915050565b60006127786000198460080261275a565b1980831691505092915050565b60006127918383612767565b9150826002028217905092915050565b6127aa82611a95565b67ffffffffffffffff8111156127c3576127c2611fe7565b5b6127cd8254612468565b6127d8828285612714565b600060209050601f83116001811461280b57600084156127f9578287015190505b6128038582612785565b86555061286b565b601f198416612819866125ff565b60005b828110156128415784890151825560018201915060208501945060208101905061281c565b8683101561285e578489015161285a601f891682612767565b8355505b6001600288020188555050505b505050505050565b60006060820190506128886000830186611b25565b818103602083015261289a8185611aec565b90506128a96040830184611b25565b949350505050565b60006128bc82611a32565b91507fffffffffffffffffffffffffffffffffffffffffffffffffffffffffffffffff82036128ee576128ed61255a565b5b600182019050919050565b7f4e487b7100000000000000000000000000000000000000000000000000000000600052601260045260246000fd5b600061293382611a32565b915061293e83611a32565b92508261294e5761294d6128f9565b5b828204905092915050565b7f4865792069747320616e2061637469766520766f74696e6720706572696f642c60008201527f20796f752063616e6e6f7420766f7465206e6f772e0000000000000000000000602082015250565b60006129b5603583611aa0565b91506129c082612959565b604082019050919050565b600060208201905081810360008301526129e4816129a8565b9050919050565b6129f481612271565b82525050565b6000604082019050612a0f60008301856129eb565b612a1c6020830184611b25565b9392505050565b6000608082019050612a386000830187611b25565b612a4560208301866129eb565b612a526040830185611b25565b612a5f6060830184611b40565b9594505050505056fea2646970667358221220cf07bd13c0b98f0e6a77fec38b40c94a4048dbe6d31f01c1eac8a43a1d4c149d64736f6c634300081a0033",
  "linkReferences": {},
  "deployedLinkReferences": {}
}