{
  "_format": "hh-sol-artifact-1",
  "contractName": "VotingContract",
  "sourceName": "contracts/smartContract.sol",
  "abi": [
    {
      "inputs": [
        {
          "internalType": "address[]",
          "name": "initialAdmins",
          "type": "address[]"
        },
        {
          "internalType": "address",
          "name": "_tokenAddress",
          "type": "address"
        }
      ],
      "stateMutability": "nonpayable",
      "type": "constructor"
    },
    {
      "anonymous": false,
      "inputs": [
        {
          "indexed": false,
          "internalType": "uint256",
          "name": "proposalId",
          "type": "uint256"
        },
        {
          "indexed": false,
          "internalType": "string",
          "name": "title",
          "type": "string"
        },
        {
          "indexed": false,
          "internalType": "string",
          "name": "description",
          "type": "string"
        },
        {
          "indexed": false,
          "internalType": "uint256",
          "name": "durationInMinutes",
          "type": "uint256"
        },
        {
          "indexed": false,
          "internalType": "uint8",
          "name": "quorumType",
          "type": "uint8"
        },
        {
          "indexed": false,
          "internalType": "uint256",
          "name": "endTime",
          "type": "uint256"
        },
        {
          "indexed": false,
          "internalType": "address",
          "name": "proposer",
          "type": "address"
        }
      ],
      "name": "ProposalCreated",
      "type": "event"
    },
    {
      "anonymous": false,
      "inputs": [
        {
          "indexed": false,
          "internalType": "address",
          "name": "voter",
          "type": "address"
        },
        {
          "indexed": false,
          "internalType": "uint256",
          "name": "rewardAmount",
          "type": "uint256"
        }
      ],
      "name": "RewardIssued",
      "type": "event"
    },
    {
      "anonymous": false,
      "inputs": [
        {
          "indexed": false,
          "internalType": "address",
          "name": "voter",
          "type": "address"
        },
        {
          "indexed": false,
          "internalType": "uint256",
          "name": "newShares",
          "type": "uint256"
        }
      ],
      "name": "SharesUpdated",
      "type": "event"
    },
    {
      "anonymous": false,
      "inputs": [
        {
          "indexed": false,
          "internalType": "uint256",
          "name": "proposalId",
          "type": "uint256"
        },
        {
          "indexed": false,
          "internalType": "address",
          "name": "voter",
          "type": "address"
        },
        {
          "indexed": false,
          "internalType": "uint256",
          "name": "weight",
          "type": "uint256"
        },
        {
          "indexed": false,
          "internalType": "bool",
          "name": "voteFor",
          "type": "bool"
        }
      ],
      "name": "VoteCast",
      "type": "event"
    },
    {
      "inputs": [
        {
          "internalType": "address",
          "name": "newAdmin",
          "type": "address"
        }
      ],
      "name": "addAdmin",
      "outputs": [],
      "stateMutability": "nonpayable",
      "type": "function"
    },
    {
      "inputs": [
        {
          "internalType": "address",
          "name": "",
          "type": "address"
        }
      ],
      "name": "admins",
      "outputs": [
        {
          "internalType": "bool",
          "name": "",
          "type": "bool"
        }
      ],
      "stateMutability": "view",
      "type": "function"
    },
    {
      "inputs": [
        {
          "internalType": "string",
          "name": "title",
          "type": "string"
        },
        {
          "internalType": "string",
          "name": "description",
          "type": "string"
        },
        {
          "internalType": "uint256",
          "name": "durationInMinutes",
          "type": "uint256"
        },
        {
          "internalType": "uint8",
          "name": "quorumType",
          "type": "uint8"
        }
      ],
      "name": "createProposal",
      "outputs": [],
      "stateMutability": "payable",
      "type": "function"
    },
    {
      "inputs": [
        {
          "internalType": "uint256",
          "name": "proposalId",
          "type": "uint256"
        }
      ],
      "name": "getProposalOutcome",
      "outputs": [
        {
          "components": [
            {
              "internalType": "bool",
              "name": "passed",
              "type": "bool"
            },
            {
              "internalType": "uint256",
              "name": "votesFor",
              "type": "uint256"
            },
            {
              "internalType": "uint256",
              "name": "votesAgainst",
              "type": "uint256"
            }
          ],
          "internalType": "struct VotingContract.ProposalOutcome",
          "name": "",
          "type": "tuple"
        }
      ],
      "stateMutability": "view",
      "type": "function"
    },
    {
      "inputs": [],
      "name": "getProposals",
      "outputs": [
        {
          "components": [
            {
              "internalType": "string",
              "name": "title",
              "type": "string"
            },
            {
              "internalType": "string",
              "name": "description",
              "type": "string"
            },
            {
              "internalType": "uint256",
              "name": "durationInMinutes",
              "type": "uint256"
            },
            {
              "internalType": "uint8",
              "name": "quorumType",
              "type": "uint8"
            },
            {
              "internalType": "uint256",
              "name": "endTime",
              "type": "uint256"
            },
            {
              "internalType": "address",
              "name": "proposer",
              "type": "address"
            },
            {
              "internalType": "bool",
              "name": "active",
              "type": "bool"
            }
          ],
          "internalType": "struct VotingContract.Proposal[]",
          "name": "",
          "type": "tuple[]"
        }
      ],
      "stateMutability": "view",
      "type": "function"
    },
    {
      "inputs": [],
      "name": "getProposalsCount",
      "outputs": [
        {
          "internalType": "uint256",
          "name": "",
          "type": "uint256"
        }
      ],
      "stateMutability": "view",
      "type": "function"
    },
    {
      "inputs": [],
      "name": "governanceToken",
      "outputs": [
        {
          "internalType": "contract GovernanceToken",
          "name": "",
          "type": "address"
        }
      ],
      "stateMutability": "view",
      "type": "function"
    },
    {
      "inputs": [
        {
          "internalType": "address",
          "name": "user",
          "type": "address"
        }
      ],
      "name": "isAdmin",
      "outputs": [
        {
          "internalType": "bool",
          "name": "",
          "type": "bool"
        }
      ],
      "stateMutability": "view",
      "type": "function"
    },
    {
      "inputs": [],
      "name": "isVotingPeriodActive",
      "outputs": [
        {
          "internalType": "bool",
          "name": "",
          "type": "bool"
        }
      ],
      "stateMutability": "view",
      "type": "function"
    },
    {
      "inputs": [],
      "name": "proposalCount",
      "outputs": [
        {
          "internalType": "uint256",
          "name": "",
          "type": "uint256"
        }
      ],
      "stateMutability": "view",
      "type": "function"
    },
    {
      "inputs": [
        {
          "internalType": "uint256",
          "name": "",
          "type": "uint256"
        }
      ],
      "name": "proposalOutcomes",
      "outputs": [
        {
          "internalType": "bool",
          "name": "passed",
          "type": "bool"
        },
        {
          "internalType": "uint256",
          "name": "votesFor",
          "type": "uint256"
        },
        {
          "internalType": "uint256",
          "name": "votesAgainst",
          "type": "uint256"
        }
      ],
      "stateMutability": "view",
      "type": "function"
    },
    {
      "inputs": [
        {
          "internalType": "uint256",
          "name": "",
          "type": "uint256"
        }
      ],
      "name": "proposals",
      "outputs": [
        {
          "internalType": "string",
          "name": "title",
          "type": "string"
        },
        {
          "internalType": "string",
          "name": "description",
          "type": "string"
        },
        {
          "internalType": "uint256",
          "name": "durationInMinutes",
          "type": "uint256"
        },
        {
          "internalType": "uint8",
          "name": "quorumType",
          "type": "uint8"
        },
        {
          "internalType": "uint256",
          "name": "endTime",
          "type": "uint256"
        },
        {
          "internalType": "address",
          "name": "proposer",
          "type": "address"
        },
        {
          "internalType": "bool",
          "name": "active",
          "type": "bool"
        }
      ],
      "stateMutability": "view",
      "type": "function"
    },
    {
      "inputs": [
        {
          "internalType": "address",
          "name": "voter",
          "type": "address"
        },
        {
          "internalType": "uint256",
          "name": "shareCount",
          "type": "uint256"
        }
      ],
      "name": "registerShareholder",
      "outputs": [],
      "stateMutability": "nonpayable",
      "type": "function"
    },
    {
      "inputs": [
        {
          "internalType": "address",
          "name": "admin",
          "type": "address"
        }
      ],
      "name": "removeAdmin",
      "outputs": [],
      "stateMutability": "nonpayable",
      "type": "function"
    },
    {
      "inputs": [
        {
          "internalType": "address",
          "name": "",
          "type": "address"
        }
      ],
      "name": "shares",
      "outputs": [
        {
          "internalType": "uint256",
          "name": "",
          "type": "uint256"
        }
      ],
      "stateMutability": "view",
      "type": "function"
    },
    {
      "inputs": [],
      "name": "totalShares",
      "outputs": [
        {
          "internalType": "uint256",
          "name": "",
          "type": "uint256"
        }
      ],
      "stateMutability": "view",
      "type": "function"
    },
    {
      "inputs": [
        {
          "internalType": "address",
          "name": "voter",
          "type": "address"
        },
        {
          "internalType": "uint256",
          "name": "newShares",
          "type": "uint256"
        }
      ],
      "name": "updateShares",
      "outputs": [],
      "stateMutability": "nonpayable",
      "type": "function"
    },
    {
      "inputs": [],
      "name": "votingEndTime",
      "outputs": [
        {
          "internalType": "uint256",
          "name": "",
          "type": "uint256"
        }
      ],
      "stateMutability": "view",
      "type": "function"
    },
    {
      "inputs": [
        {
          "internalType": "address",
          "name": "",
          "type": "address"
        },
        {
          "internalType": "uint256",
          "name": "",
          "type": "uint256"
        }
      ],
      "name": "votingHistory",
      "outputs": [
        {
          "internalType": "uint256",
          "name": "proposalId",
          "type": "uint256"
        },
        {
          "internalType": "bool",
          "name": "votedFor",
          "type": "bool"
        },
        {
          "internalType": "uint256",
          "name": "voteWeight",
          "type": "uint256"
        }
      ],
      "stateMutability": "view",
      "type": "function"
    }
  ],
  "bytecode": "0x60806040523480156200001157600080fd5b506040516200226f3803806200226f833981810160405281019062000037919062000307565b80600960006101000a81548173ffffffffffffffffffffffffffffffffffffffff021916908373ffffffffffffffffffffffffffffffffffffffff16021790555060005b82518110156200011057600160036000858481518110620000a157620000a06200036d565b5b602002602001015173ffffffffffffffffffffffffffffffffffffffff1673ffffffffffffffffffffffffffffffffffffffff16815260200190815260200160002060006101000a81548160ff02191690831515021790555080806200010790620003d5565b9150506200007b565b50505062000422565b6000604051905090565b600080fd5b600080fd5b600080fd5b6000601f19601f8301169050919050565b7f4e487b7100000000000000000000000000000000000000000000000000000000600052604160045260246000fd5b6200017d8262000132565b810181811067ffffffffffffffff821117156200019f576200019e62000143565b5b80604052505050565b6000620001b462000119565b9050620001c2828262000172565b919050565b600067ffffffffffffffff821115620001e557620001e462000143565b5b602082029050602081019050919050565b600080fd5b600073ffffffffffffffffffffffffffffffffffffffff82169050919050565b60006200022882620001fb565b9050919050565b6200023a816200021b565b81146200024657600080fd5b50565b6000815190506200025a816200022f565b92915050565b6000620002776200027184620001c7565b620001a8565b905080838252602082019050602084028301858111156200029d576200029c620001f6565b5b835b81811015620002ca5780620002b5888262000249565b8452602084019350506020810190506200029f565b5050509392505050565b600082601f830112620002ec57620002eb6200012d565b5b8151620002fe84826020860162000260565b91505092915050565b6000806040838503121562000321576200032062000123565b5b600083015167ffffffffffffffff81111562000342576200034162000128565b5b6200035085828601620002d4565b9250506020620003638582860162000249565b9150509250929050565b7f4e487b7100000000000000000000000000000000000000000000000000000000600052603260045260246000fd5b7f4e487b7100000000000000000000000000000000000000000000000000000000600052601160045260246000fd5b6000819050919050565b6000620003e282620003cb565b91507fffffffffffffffffffffffffffffffffffffffffffffffffffffffffffffffff82036200041757620004166200039c565b5b600182019050919050565b611e3d80620004326000396000f3fe6080604052600436106101145760003560e01c806370f6e05d116100a0578063ce7c2ac211610064578063ce7c2ac2146103c0578063d09c34f2146103fd578063da35c6641461043c578063e5d0821f14610467578063f96dae0a1461049057610114565b806370f6e05d146102e657806398e527d3146103025780639fcc5ce41461032d578063a9c0310d14610358578063afafa0cf1461039757610114565b80633a98ef39116100e75780633a98ef39146101ed578063429b62e51461021857806362564c48146102555780636fdb6f7c1461028057806370480275146102bd57610114565b8063013cf08b146101195780631785f53c1461015c5780631ea736e01461018557806324d7806c146101b0575b600080fd5b34801561012557600080fd5b50610140600480360381019061013b9190610fd4565b6104bb565b6040516101539796959493929190611118565b60405180910390f35b34801561016857600080fd5b50610183600480360381019061017e91906111c1565b610657565b005b34801561019157600080fd5b5061019a61073e565b6040516101a791906111ee565b60405180910390f35b3480156101bc57600080fd5b506101d760048036038101906101d291906111c1565b610744565b6040516101e49190611209565b60405180910390f35b3480156101f957600080fd5b5061020261079a565b60405161020f91906111ee565b60405180910390f35b34801561022457600080fd5b5061023f600480360381019061023a91906111c1565b6107a0565b60405161024c9190611209565b60405180910390f35b34801561026157600080fd5b5061026a6107c0565b604051610277919061140f565b60405180910390f35b34801561028c57600080fd5b506102a760048036038101906102a29190610fd4565b6109e5565b6040516102b49190611473565b60405180910390f35b3480156102c957600080fd5b506102e460048036038101906102df91906111c1565b610a41565b005b61030060048036038101906102fb91906115ef565b610b28565b005b34801561030e57600080fd5b50610317610d4b565b60405161032491906111ee565b60405180910390f35b34801561033957600080fd5b50610342610d55565b60405161034f9190611209565b60405180910390f35b34801561036457600080fd5b5061037f600480360381019061037a9190610fd4565b610d68565b60405161038e9392919061168e565b60405180910390f35b3480156103a357600080fd5b506103be60048036038101906103b991906116c5565b610d9f565b005b3480156103cc57600080fd5b506103e760048036038101906103e291906111c1565b610e4f565b6040516103f491906111ee565b60405180910390f35b34801561040957600080fd5b50610424600480360381019061041f91906116c5565b610e67565b60405161043393929190611705565b60405180910390f35b34801561044857600080fd5b50610451610ebb565b60405161045e91906111ee565b60405180910390f35b34801561047357600080fd5b5061048e600480360381019061048991906116c5565b610ec1565b005b34801561049c57600080fd5b506104a5610f41565b6040516104b2919061179b565b60405180910390f35b600581815481106104cb57600080fd5b90600052602060002090600602016000915090508060000180546104ee906117e5565b80601f016020809104026020016040519081016040528092919081815260200182805461051a906117e5565b80156105675780601f1061053c57610100808354040283529160200191610567565b820191906000526020600020905b81548152906001019060200180831161054a57829003601f168201915b50505050509080600101805461057c906117e5565b80601f01602080910402602001604051908101604052809291908181526020018280546105a8906117e5565b80156105f55780601f106105ca576101008083540402835291602001916105f5565b820191906000526020600020905b8154815290600101906020018083116105d857829003601f168201915b5050505050908060020154908060030160009054906101000a900460ff16908060040154908060050160009054906101000a900473ffffffffffffffffffffffffffffffffffffffff16908060050160149054906101000a900460ff16905087565b600360003373ffffffffffffffffffffffffffffffffffffffff1673ffffffffffffffffffffffffffffffffffffffff16815260200190815260200160002060009054906101000a900460ff166106e3576040517f08c379a00000000000000000000000000000000000000000000000000000000081526004016106da90611888565b60405180910390fd5b6000600360008373ffffffffffffffffffffffffffffffffffffffff1673ffffffffffffffffffffffffffffffffffffffff16815260200190815260200160002060006101000a81548160ff02191690831515021790555050565b60085481565b6000600360008373ffffffffffffffffffffffffffffffffffffffff1673ffffffffffffffffffffffffffffffffffffffff16815260200190815260200160002060009054906101000a900460ff169050919050565b60045481565b60036020528060005260406000206000915054906101000a900460ff1681565b60606005805480602002602001604051908101604052809291908181526020016000905b828210156109dc57838290600052602060002090600602016040518060e0016040529081600082018054610817906117e5565b80601f0160208091040260200160405190810160405280929190818152602001828054610843906117e5565b80156108905780601f1061086557610100808354040283529160200191610890565b820191906000526020600020905b81548152906001019060200180831161087357829003601f168201915b505050505081526020016001820180546108a9906117e5565b80601f01602080910402602001604051908101604052809291908181526020018280546108d5906117e5565b80156109225780601f106108f757610100808354040283529160200191610922565b820191906000526020600020905b81548152906001019060200180831161090557829003601f168201915b50505050508152602001600282015481526020016003820160009054906101000a900460ff1660ff1660ff168152602001600482015481526020016005820160009054906101000a900473ffffffffffffffffffffffffffffffffffffffff1673ffffffffffffffffffffffffffffffffffffffff1673ffffffffffffffffffffffffffffffffffffffff1681526020016005820160149054906101000a900460ff161515151581525050815260200190600101906107e4565b50505050905090565b6109ed610f67565b600260008381526020019081526020016000206040518060600160405290816000820160009054906101000a900460ff16151515158152602001600182015481526020016002820154815250509050919050565b600360003373ffffffffffffffffffffffffffffffffffffffff1673ffffffffffffffffffffffffffffffffffffffff16815260200190815260200160002060009054906101000a900460ff16610acd576040517f08c379a0000000000000000000000000000000000000000000000000000000008152600401610ac490611888565b60405180910390fd5b6001600360008373ffffffffffffffffffffffffffffffffffffffff1673ffffffffffffffffffffffffffffffffffffffff16815260200190815260200160002060006101000a81548160ff02191690831515021790555050565b670de0b6b3a76400003414610b72576040517f08c379a0000000000000000000000000000000000000000000000000000000008152600401610b699061191a565b60405180910390fd5b6000603c83610b819190611969565b42610b8c91906119ab565b905060056040518060e001604052808781526020018681526020018581526020018460ff1681526020018381526020013373ffffffffffffffffffffffffffffffffffffffff1681526020016001151581525090806001815401808255809150506001900390600052602060002090600602016000909190919091506000820151816000019081610c1d9190611b81565b506020820151816001019081610c339190611b81565b506040820151816002015560608201518160030160006101000a81548160ff021916908360ff1602179055506080820151816004015560a08201518160050160006101000a81548173ffffffffffffffffffffffffffffffffffffffff021916908373ffffffffffffffffffffffffffffffffffffffff16021790555060c08201518160050160146101000a81548160ff021916908315150217905550505060006001600580549050610ce69190611c53565b905060066000815480929190610cfb90611c87565b91905055507f3d7708da99615a873ed0ef5e0b10f8b1bd8e76e197387471a6a8ca12c29da91381878787878733604051610d3b9796959493929190611ccf565b60405180910390a1505050505050565b6000600654905090565b600760009054906101000a900460ff1681565b60026020528060005260406000206000915090508060000160009054906101000a900460ff16908060010154908060020154905083565b600760009054906101000a900460ff1615610def576040517f08c379a0000000000000000000000000000000000000000000000000000000008152600401610de690611dbe565b60405180910390fd5b806000808473ffffffffffffffffffffffffffffffffffffffff1673ffffffffffffffffffffffffffffffffffffffff168152602001908152602001600020819055508060046000828254610e4491906119ab565b925050819055505050565b60006020528060005260406000206000915090505481565b60016020528160005260406000208181548110610e8357600080fd5b9060005260206000209060030201600091509150508060000154908060010160009054906101000a900460ff16908060020154905083565b60065481565b806000808473ffffffffffffffffffffffffffffffffffffffff1673ffffffffffffffffffffffffffffffffffffffff168152602001908152602001600020819055507fe6382c9ed5c0c33bb05042f73cf6cbe9cb25639f9a711e094ee563bc9cb80e2c8282604051610f35929190611dde565b60405180910390a15050565b600960009054906101000a900473ffffffffffffffffffffffffffffffffffffffff1681565b604051806060016040528060001515815260200160008152602001600081525090565b6000604051905090565b600080fd5b600080fd5b6000819050919050565b610fb181610f9e565b8114610fbc57600080fd5b50565b600081359050610fce81610fa8565b92915050565b600060208284031215610fea57610fe9610f94565b5b6000610ff884828501610fbf565b91505092915050565b600081519050919050565b600082825260208201905092915050565b60005b8381101561103b578082015181840152602081019050611020565b60008484015250505050565b6000601f19601f8301169050919050565b600061106382611001565b61106d818561100c565b935061107d81856020860161101d565b61108681611047565b840191505092915050565b61109a81610f9e565b82525050565b600060ff82169050919050565b6110b6816110a0565b82525050565b600073ffffffffffffffffffffffffffffffffffffffff82169050919050565b60006110e7826110bc565b9050919050565b6110f7816110dc565b82525050565b60008115159050919050565b611112816110fd565b82525050565b600060e0820190508181036000830152611132818a611058565b905081810360208301526111468189611058565b90506111556040830188611091565b61116260608301876110ad565b61116f6080830186611091565b61117c60a08301856110ee565b61118960c0830184611109565b98975050505050505050565b61119e816110dc565b81146111a957600080fd5b50565b6000813590506111bb81611195565b92915050565b6000602082840312156111d7576111d6610f94565b5b60006111e5848285016111ac565b91505092915050565b60006020820190506112036000830184611091565b92915050565b600060208201905061121e6000830184611109565b92915050565b600081519050919050565b600082825260208201905092915050565b6000819050602082019050919050565b600082825260208201905092915050565b600061126c82611001565b6112768185611250565b935061128681856020860161101d565b61128f81611047565b840191505092915050565b6112a381610f9e565b82525050565b6112b2816110a0565b82525050565b6112c1816110dc565b82525050565b6112d0816110fd565b82525050565b600060e08301600083015184820360008601526112f38282611261565b9150506020830151848203602086015261130d8282611261565b9150506040830151611322604086018261129a565b50606083015161133560608601826112a9565b506080830151611348608086018261129a565b5060a083015161135b60a08601826112b8565b5060c083015161136e60c08601826112c7565b508091505092915050565b600061138583836112d6565b905092915050565b6000602082019050919050565b60006113a582611224565b6113af818561122f565b9350836020820285016113c185611240565b8060005b858110156113fd57848403895281516113de8582611379565b94506113e98361138d565b925060208a019950506001810190506113c5565b50829750879550505050505092915050565b60006020820190508181036000830152611429818461139a565b905092915050565b60608201600082015161144760008501826112c7565b50602082015161145a602085018261129a565b50604082015161146d604085018261129a565b50505050565b60006060820190506114886000830184611431565b92915050565b600080fd5b600080fd5b7f4e487b7100000000000000000000000000000000000000000000000000000000600052604160045260246000fd5b6114d082611047565b810181811067ffffffffffffffff821117156114ef576114ee611498565b5b80604052505050565b6000611502610f8a565b905061150e82826114c7565b919050565b600067ffffffffffffffff82111561152e5761152d611498565b5b61153782611047565b9050602081019050919050565b82818337600083830152505050565b600061156661156184611513565b6114f8565b90508281526020810184848401111561158257611581611493565b5b61158d848285611544565b509392505050565b600082601f8301126115aa576115a961148e565b5b81356115ba848260208601611553565b91505092915050565b6115cc816110a0565b81146115d757600080fd5b50565b6000813590506115e9816115c3565b92915050565b6000806000806080858703121561160957611608610f94565b5b600085013567ffffffffffffffff81111561162757611626610f99565b5b61163387828801611595565b945050602085013567ffffffffffffffff81111561165457611653610f99565b5b61166087828801611595565b935050604061167187828801610fbf565b9250506060611682878288016115da565b91505092959194509250565b60006060820190506116a36000830186611109565b6116b06020830185611091565b6116bd6040830184611091565b949350505050565b600080604083850312156116dc576116db610f94565b5b60006116ea858286016111ac565b92505060206116fb85828601610fbf565b9150509250929050565b600060608201905061171a6000830186611091565b6117276020830185611109565b6117346040830184611091565b949350505050565b6000819050919050565b600061176161175c611757846110bc565b61173c565b6110bc565b9050919050565b600061177382611746565b9050919050565b600061178582611768565b9050919050565b6117958161177a565b82525050565b60006020820190506117b0600083018461178c565b92915050565b7f4e487b7100000000000000000000000000000000000000000000000000000000600052602260045260246000fd5b600060028204905060018216806117fd57607f821691505b6020821081036118105761180f6117b6565b5b50919050565b7f4f6e6c792061646d696e732063616e20706572666f726d20746869732061637460008201527f696f6e0000000000000000000000000000000000000000000000000000000000602082015250565b600061187260238361100c565b915061187d82611816565b604082019050919050565b600060208201905081810360008301526118a181611865565b9050919050565b7f4d7573742073656e6420312045544820746f2063726561746520612070726f7060008201527f6f73616c00000000000000000000000000000000000000000000000000000000602082015250565b600061190460248361100c565b915061190f826118a8565b604082019050919050565b60006020820190508181036000830152611933816118f7565b9050919050565b7f4e487b7100000000000000000000000000000000000000000000000000000000600052601160045260246000fd5b600061197482610f9e565b915061197f83610f9e565b925082820261198d81610f9e565b915082820484148315176119a4576119a361193a565b5b5092915050565b60006119b682610f9e565b91506119c183610f9e565b92508282019050808211156119d9576119d861193a565b5b92915050565b60008190508160005260206000209050919050565b60006020601f8301049050919050565b600082821b905092915050565b600060088302611a417fffffffffffffffffffffffffffffffffffffffffffffffffffffffffffffffff82611a04565b611a4b8683611a04565b95508019841693508086168417925050509392505050565b6000611a7e611a79611a7484610f9e565b61173c565b610f9e565b9050919050565b6000819050919050565b611a9883611a63565b611aac611aa482611a85565b848454611a11565b825550505050565b600090565b611ac1611ab4565b611acc818484611a8f565b505050565b5b81811015611af057611ae5600082611ab9565b600181019050611ad2565b5050565b601f821115611b3557611b06816119df565b611b0f846119f4565b81016020851015611b1e578190505b611b32611b2a856119f4565b830182611ad1565b50505b505050565b600082821c905092915050565b6000611b5860001984600802611b3a565b1980831691505092915050565b6000611b718383611b47565b9150826002028217905092915050565b611b8a82611001565b67ffffffffffffffff811115611ba357611ba2611498565b5b611bad82546117e5565b611bb8828285611af4565b600060209050601f831160018114611beb5760008415611bd9578287015190505b611be38582611b65565b865550611c4b565b601f198416611bf9866119df565b60005b82811015611c2157848901518255600182019150602085019450602081019050611bfc565b86831015611c3e5784890151611c3a601f891682611b47565b8355505b6001600288020188555050505b505050505050565b6000611c5e82610f9e565b9150611c6983610f9e565b9250828203905081811115611c8157611c8061193a565b5b92915050565b6000611c9282610f9e565b91507fffffffffffffffffffffffffffffffffffffffffffffffffffffffffffffffff8203611cc457611cc361193a565b5b600182019050919050565b600060e082019050611ce4600083018a611091565b8181036020830152611cf68189611058565b90508181036040830152611d0a8188611058565b9050611d196060830187611091565b611d2660808301866110ad565b611d3360a0830185611091565b611d4060c08301846110ee565b98975050505050505050565b7f4865792069747320616e2061637469766520766f74696e6720706572696f642c60008201527f20796f752063616e6e6f7420766f7465206e6f772e0000000000000000000000602082015250565b6000611da860358361100c565b9150611db382611d4c565b604082019050919050565b60006020820190508181036000830152611dd781611d9b565b9050919050565b6000604082019050611df360008301856110ee565b611e006020830184611091565b939250505056fea264697066735822122091162d8da40bb5f86140c7aee76f026f174681dbf45e96e2b3277c664e54ee8864736f6c63430008140033",
  "linkReferences": {},
  "deployedLinkReferences": {}
}