{
  "_format": "hh-sol-artifact-1",
  "contractName": "VotingContract",
  "sourceName": "contracts/smartContract.sol",
  "abi": [
    {
      "inputs": [
        {
          "internalType": "address[]",
          "name": "initialAdmins",
          "type": "address[]"
        },
        {
          "internalType": "address",
          "name": "_tokenAddress",
          "type": "address"
        }
      ],
      "stateMutability": "nonpayable",
      "type": "constructor"
    },
    {
      "anonymous": false,
      "inputs": [
        {
          "indexed": false,
          "internalType": "uint256",
          "name": "proposalId",
          "type": "uint256"
        },
        {
          "indexed": false,
          "internalType": "string",
          "name": "title",
          "type": "string"
        },
        {
          "indexed": false,
          "internalType": "string",
          "name": "description",
          "type": "string"
        },
        {
          "indexed": false,
          "internalType": "uint256",
          "name": "durationInMinutes",
          "type": "uint256"
        },
        {
          "indexed": false,
          "internalType": "uint8",
          "name": "quorumType",
          "type": "uint8"
        },
        {
          "indexed": false,
          "internalType": "uint256",
          "name": "endTime",
          "type": "uint256"
        },
        {
          "indexed": false,
          "internalType": "address",
          "name": "proposer",
          "type": "address"
        }
      ],
      "name": "ProposalCreated",
      "type": "event"
    },
    {
      "anonymous": false,
      "inputs": [
        {
          "indexed": true,
          "internalType": "uint256",
          "name": "proposalId",
          "type": "uint256"
        }
      ],
      "name": "ProposalDeleted",
      "type": "event"
    },
    {
      "anonymous": false,
      "inputs": [
        {
          "indexed": false,
          "internalType": "address",
          "name": "voter",
          "type": "address"
        },
        {
          "indexed": false,
          "internalType": "uint256",
          "name": "rewardAmount",
          "type": "uint256"
        }
      ],
      "name": "RewardIssued",
      "type": "event"
    },
    {
      "anonymous": false,
      "inputs": [
        {
          "indexed": false,
          "internalType": "address",
          "name": "voter",
          "type": "address"
        },
        {
          "indexed": false,
          "internalType": "uint256",
          "name": "newShares",
          "type": "uint256"
        }
      ],
      "name": "SharesUpdated",
      "type": "event"
    },
    {
      "anonymous": false,
      "inputs": [
        {
          "indexed": false,
          "internalType": "uint256",
          "name": "proposalId",
          "type": "uint256"
        },
        {
          "indexed": false,
          "internalType": "address",
          "name": "voter",
          "type": "address"
        },
        {
          "indexed": false,
          "internalType": "uint256",
          "name": "weight",
          "type": "uint256"
        },
        {
          "indexed": false,
          "internalType": "bool",
          "name": "voteFor",
          "type": "bool"
        }
      ],
      "name": "VoteCast",
      "type": "event"
    },
    {
      "inputs": [
        {
          "internalType": "address",
          "name": "newAdmin",
          "type": "address"
        }
      ],
      "name": "addAdmin",
      "outputs": [],
      "stateMutability": "nonpayable",
      "type": "function"
    },
    {
      "inputs": [
        {
          "internalType": "address",
          "name": "",
          "type": "address"
        }
      ],
      "name": "admins",
      "outputs": [
        {
          "internalType": "bool",
          "name": "",
          "type": "bool"
        }
      ],
      "stateMutability": "view",
      "type": "function"
    },
    {
      "inputs": [
        {
          "internalType": "uint256",
          "name": "proposalId",
          "type": "uint256"
        }
      ],
      "name": "calculateQuorum",
      "outputs": [
        {
          "internalType": "uint256",
          "name": "",
          "type": "uint256"
        }
      ],
      "stateMutability": "view",
      "type": "function"
    },
    {
      "inputs": [
        {
          "internalType": "address",
          "name": "voter",
          "type": "address"
        }
      ],
      "name": "calculateVotingWeight",
      "outputs": [
        {
          "internalType": "uint256",
          "name": "",
          "type": "uint256"
        }
      ],
      "stateMutability": "view",
      "type": "function"
    },
    {
      "inputs": [
        {
          "internalType": "uint256",
          "name": "proposalId",
          "type": "uint256"
        },
        {
          "internalType": "bool",
          "name": "voteFor",
          "type": "bool"
        }
      ],
      "name": "castVote",
      "outputs": [],
      "stateMutability": "nonpayable",
      "type": "function"
    },
    {
      "inputs": [
        {
          "internalType": "string",
          "name": "title",
          "type": "string"
        },
        {
          "internalType": "string",
          "name": "description",
          "type": "string"
        },
        {
          "internalType": "uint256",
          "name": "durationInMinutes",
          "type": "uint256"
        },
        {
          "internalType": "uint8",
          "name": "quorumType",
          "type": "uint8"
        }
      ],
      "name": "createProposal",
      "outputs": [],
      "stateMutability": "payable",
      "type": "function"
    },
    {
      "inputs": [
        {
          "internalType": "uint256",
          "name": "proposalId",
          "type": "uint256"
        }
      ],
      "name": "deleteProposal",
      "outputs": [],
      "stateMutability": "nonpayable",
      "type": "function"
    },
    {
      "inputs": [
        {
          "internalType": "uint256",
          "name": "proposalId",
          "type": "uint256"
        }
      ],
      "name": "finalizeProposal",
      "outputs": [],
      "stateMutability": "nonpayable",
      "type": "function"
    },
    {
      "inputs": [
        {
          "internalType": "uint256",
          "name": "proposalId",
          "type": "uint256"
        }
      ],
      "name": "getProposalOutcome",
      "outputs": [
        {
          "components": [
            {
              "internalType": "bool",
              "name": "passed",
              "type": "bool"
            },
            {
              "internalType": "uint256",
              "name": "votesFor",
              "type": "uint256"
            },
            {
              "internalType": "uint256",
              "name": "votesAgainst",
              "type": "uint256"
            }
          ],
          "internalType": "struct VotingContract.ProposalOutcome",
          "name": "",
          "type": "tuple"
        }
      ],
      "stateMutability": "view",
      "type": "function"
    },
    {
      "inputs": [],
      "name": "getProposals",
      "outputs": [
        {
          "components": [
            {
              "internalType": "string",
              "name": "title",
              "type": "string"
            },
            {
              "internalType": "string",
              "name": "description",
              "type": "string"
            },
            {
              "internalType": "uint256",
              "name": "durationInMinutes",
              "type": "uint256"
            },
            {
              "internalType": "uint8",
              "name": "quorumType",
              "type": "uint8"
            },
            {
              "internalType": "uint256",
              "name": "endTime",
              "type": "uint256"
            },
            {
              "internalType": "address",
              "name": "proposer",
              "type": "address"
            },
            {
              "internalType": "bool",
              "name": "active",
              "type": "bool"
            },
            {
              "internalType": "uint256",
              "name": "votesFor",
              "type": "uint256"
            },
            {
              "internalType": "uint256",
              "name": "votesAgainst",
              "type": "uint256"
            }
          ],
          "internalType": "struct VotingContract.Proposal[]",
          "name": "",
          "type": "tuple[]"
        }
      ],
      "stateMutability": "view",
      "type": "function"
    },
    {
      "inputs": [],
      "name": "getProposalsCount",
      "outputs": [
        {
          "internalType": "uint256",
          "name": "",
          "type": "uint256"
        }
      ],
      "stateMutability": "view",
      "type": "function"
    },
    {
      "inputs": [
        {
          "internalType": "address",
          "name": "account",
          "type": "address"
        }
      ],
      "name": "getTokens",
      "outputs": [
        {
          "internalType": "uint256",
          "name": "",
          "type": "uint256"
        }
      ],
      "stateMutability": "view",
      "type": "function"
    },
    {
      "inputs": [],
      "name": "governanceToken",
      "outputs": [
        {
          "internalType": "contract GovernanceToken",
          "name": "",
          "type": "address"
        }
      ],
      "stateMutability": "view",
      "type": "function"
    },
    {
      "inputs": [
        {
          "internalType": "address",
          "name": "user",
          "type": "address"
        }
      ],
      "name": "isAdmin",
      "outputs": [
        {
          "internalType": "bool",
          "name": "",
          "type": "bool"
        }
      ],
      "stateMutability": "view",
      "type": "function"
    },
    {
      "inputs": [],
      "name": "isVotingPeriodActive",
      "outputs": [
        {
          "internalType": "bool",
          "name": "",
          "type": "bool"
        }
      ],
      "stateMutability": "view",
      "type": "function"
    },
    {
      "inputs": [],
      "name": "proposalCount",
      "outputs": [
        {
          "internalType": "uint256",
          "name": "",
          "type": "uint256"
        }
      ],
      "stateMutability": "view",
      "type": "function"
    },
    {
      "inputs": [
        {
          "internalType": "uint256",
          "name": "",
          "type": "uint256"
        }
      ],
      "name": "proposalOutcomes",
      "outputs": [
        {
          "internalType": "bool",
          "name": "passed",
          "type": "bool"
        },
        {
          "internalType": "uint256",
          "name": "votesFor",
          "type": "uint256"
        },
        {
          "internalType": "uint256",
          "name": "votesAgainst",
          "type": "uint256"
        }
      ],
      "stateMutability": "view",
      "type": "function"
    },
    {
      "inputs": [
        {
          "internalType": "uint256",
          "name": "",
          "type": "uint256"
        }
      ],
      "name": "proposals",
      "outputs": [
        {
          "internalType": "string",
          "name": "title",
          "type": "string"
        },
        {
          "internalType": "string",
          "name": "description",
          "type": "string"
        },
        {
          "internalType": "uint256",
          "name": "durationInMinutes",
          "type": "uint256"
        },
        {
          "internalType": "uint8",
          "name": "quorumType",
          "type": "uint8"
        },
        {
          "internalType": "uint256",
          "name": "endTime",
          "type": "uint256"
        },
        {
          "internalType": "address",
          "name": "proposer",
          "type": "address"
        },
        {
          "internalType": "bool",
          "name": "active",
          "type": "bool"
        },
        {
          "internalType": "uint256",
          "name": "votesFor",
          "type": "uint256"
        },
        {
          "internalType": "uint256",
          "name": "votesAgainst",
          "type": "uint256"
        }
      ],
      "stateMutability": "view",
      "type": "function"
    },
    {
      "inputs": [
        {
          "internalType": "address",
          "name": "account",
          "type": "address"
        },
        {
          "internalType": "uint256",
          "name": "_shares",
          "type": "uint256"
        }
      ],
      "name": "registerShareholder",
      "outputs": [],
      "stateMutability": "nonpayable",
      "type": "function"
    },
    {
      "inputs": [
        {
          "internalType": "address",
          "name": "admin",
          "type": "address"
        }
      ],
      "name": "removeAdmin",
      "outputs": [],
      "stateMutability": "nonpayable",
      "type": "function"
    },
    {
      "inputs": [
        {
          "internalType": "address",
          "name": "",
          "type": "address"
        }
      ],
      "name": "shares",
      "outputs": [
        {
          "internalType": "uint256",
          "name": "",
          "type": "uint256"
        }
      ],
      "stateMutability": "view",
      "type": "function"
    },
    {
      "inputs": [
        {
          "internalType": "address",
          "name": "",
          "type": "address"
        }
      ],
      "name": "tokens",
      "outputs": [
        {
          "internalType": "uint256",
          "name": "",
          "type": "uint256"
        }
      ],
      "stateMutability": "view",
      "type": "function"
    },
    {
      "inputs": [],
      "name": "totalShares",
      "outputs": [
        {
          "internalType": "uint256",
          "name": "",
          "type": "uint256"
        }
      ],
      "stateMutability": "view",
      "type": "function"
    },
    {
      "inputs": [
        {
          "internalType": "address",
          "name": "voter",
          "type": "address"
        },
        {
          "internalType": "uint256",
          "name": "newShares",
          "type": "uint256"
        }
      ],
      "name": "updateShares",
      "outputs": [],
      "stateMutability": "nonpayable",
      "type": "function"
    },
    {
      "inputs": [
        {
          "internalType": "address",
          "name": "account",
          "type": "address"
        },
        {
          "internalType": "uint256",
          "name": "voteAmount",
          "type": "uint256"
        }
      ],
      "name": "vote",
      "outputs": [],
      "stateMutability": "nonpayable",
      "type": "function"
    },
    {
      "inputs": [
        {
          "internalType": "address",
          "name": "",
          "type": "address"
        }
      ],
      "name": "voted",
      "outputs": [
        {
          "internalType": "bool",
          "name": "",
          "type": "bool"
        }
      ],
      "stateMutability": "view",
      "type": "function"
    },
    {
      "inputs": [],
      "name": "votingEndTime",
      "outputs": [
        {
          "internalType": "uint256",
          "name": "",
          "type": "uint256"
        }
      ],
      "stateMutability": "view",
      "type": "function"
    },
    {
      "inputs": [
        {
          "internalType": "address",
          "name": "",
          "type": "address"
        },
        {
          "internalType": "uint256",
          "name": "",
          "type": "uint256"
        }
      ],
      "name": "votingHistory",
      "outputs": [
        {
          "internalType": "uint256",
          "name": "proposalId",
          "type": "uint256"
        },
        {
          "internalType": "bool",
          "name": "votedFor",
          "type": "bool"
        },
        {
          "internalType": "uint256",
          "name": "voteWeight",
          "type": "uint256"
        }
      ],
      "stateMutability": "view",
      "type": "function"
    }
  ],
  "bytecode": "0x60806040523480156200001157600080fd5b506040516200356038038062003560833981810160405281019062000037919062000307565b80600b60006101000a81548173ffffffffffffffffffffffffffffffffffffffff021916908373ffffffffffffffffffffffffffffffffffffffff16021790555060005b82518110156200011057600160046000858481518110620000a157620000a06200036d565b5b602002602001015173ffffffffffffffffffffffffffffffffffffffff1673ffffffffffffffffffffffffffffffffffffffff16815260200190815260200160002060006101000a81548160ff02191690831515021790555080806200010790620003d5565b9150506200007b565b50505062000422565b6000604051905090565b600080fd5b600080fd5b600080fd5b6000601f19601f8301169050919050565b7f4e487b7100000000000000000000000000000000000000000000000000000000600052604160045260246000fd5b6200017d8262000132565b810181811067ffffffffffffffff821117156200019f576200019e62000143565b5b80604052505050565b6000620001b462000119565b9050620001c2828262000172565b919050565b600067ffffffffffffffff821115620001e557620001e462000143565b5b602082029050602081019050919050565b600080fd5b600073ffffffffffffffffffffffffffffffffffffffff82169050919050565b60006200022882620001fb565b9050919050565b6200023a816200021b565b81146200024657600080fd5b50565b6000815190506200025a816200022f565b92915050565b6000620002776200027184620001c7565b620001a8565b905080838252602082019050602084028301858111156200029d576200029c620001f6565b5b835b81811015620002ca5780620002b5888262000249565b8452602084019350506020810190506200029f565b5050509392505050565b600082601f830112620002ec57620002eb6200012d565b5b8151620002fe84826020860162000260565b91505092915050565b6000806040838503121562000321576200032062000123565b5b600083015167ffffffffffffffff81111562000342576200034162000128565b5b6200035085828601620002d4565b9250506020620003638582860162000249565b9150509250929050565b7f4e487b7100000000000000000000000000000000000000000000000000000000600052603260045260246000fd5b7f4e487b7100000000000000000000000000000000000000000000000000000000600052601160045260246000fd5b6000819050919050565b6000620003e282620003cb565b91507fffffffffffffffffffffffffffffffffffffffffffffffffffffffffffffffff82036200041757620004166200039c565b5b600182019050919050565b61312e80620004326000396000f3fe6080604052600436106101b75760003560e01c806370f6e05d116100ec578063afafa0cf1161008a578063da35c66411610064578063da35c66414610679578063e4860339146106a4578063e5d0821f146106e1578063f96dae0a1461070a576101b7565b8063afafa0cf146105d4578063ce7c2ac2146105fd578063d09c34f21461063a576101b7565b806398e527d3116100c657806398e527d3146105025780639fcc5ce41461052d578063a9c0310d14610558578063aec2ccae14610597576101b7565b806370f6e05d146104805780637ad6e5aa1461049c5780638259d553146104d9576101b7565b8063429b62e5116101595780635f74bbde116101335780635f74bbde146103c657806362564c48146103ef5780636fdb6f7c1461041a5780637048027514610457576101b7565b8063429b62e514610323578063450efe21146103605780635652077c1461039d576101b7565b80631ea736e0116101955780631ea736e01461025357806324d7806c1461027e578063317571b2146102bb5780633a98ef39146102f8576101b7565b8063013cf08b146101bc57806315373e3d146102015780631785f53c1461022a575b600080fd5b3480156101c857600080fd5b506101e360048036038101906101de9190611d9b565b610735565b6040516101f899989796959493929190611edf565b60405180910390f35b34801561020d57600080fd5b5061022860048036038101906102239190611fa6565b6108dd565b005b34801561023657600080fd5b50610251600480360381019061024c9190612012565b610c05565b005b34801561025f57600080fd5b50610268610cec565b604051610275919061203f565b60405180910390f35b34801561028a57600080fd5b506102a560048036038101906102a09190612012565b610cf2565b6040516102b2919061205a565b60405180910390f35b3480156102c757600080fd5b506102e260048036038101906102dd9190612012565b610d48565b6040516102ef919061203f565b60405180910390f35b34801561030457600080fd5b5061030d610ded565b60405161031a919061203f565b60405180910390f35b34801561032f57600080fd5b5061034a60048036038101906103459190612012565b610df3565b604051610357919061205a565b60405180910390f35b34801561036c57600080fd5b5061038760048036038101906103829190612012565b610e13565b604051610394919061203f565b60405180910390f35b3480156103a957600080fd5b506103c460048036038101906103bf9190611d9b565b610e5c565b005b3480156103d257600080fd5b506103ed60048036038101906103e89190612075565b61103a565b005b3480156103fb57600080fd5b50610404611268565b60405161041191906122c9565b60405180910390f35b34801561042657600080fd5b50610441600480360381019061043c9190611d9b565b6114a2565b60405161044e919061232d565b60405180910390f35b34801561046357600080fd5b5061047e60048036038101906104799190612012565b6114fe565b005b61049a600480360381019061049591906124a9565b6115e5565b005b3480156104a857600080fd5b506104c360048036038101906104be9190611d9b565b61182c565b6040516104d0919061203f565b60405180910390f35b3480156104e557600080fd5b5061050060048036038101906104fb9190611d9b565b6119be565b005b34801561050e57600080fd5b50610517611aff565b604051610524919061203f565b60405180910390f35b34801561053957600080fd5b50610542611b09565b60405161054f919061205a565b60405180910390f35b34801561056457600080fd5b5061057f600480360381019061057a9190611d9b565b611b1c565b60405161058e93929190612548565b60405180910390f35b3480156105a357600080fd5b506105be60048036038101906105b99190612012565b611b53565b6040516105cb919061205a565b60405180910390f35b3480156105e057600080fd5b506105fb60048036038101906105f69190612075565b611b73565b005b34801561060957600080fd5b50610624600480360381019061061f9190612012565b611bfe565b604051610631919061203f565b60405180910390f35b34801561064657600080fd5b50610661600480360381019061065c9190612075565b611c16565b6040516106709392919061257f565b60405180910390f35b34801561068557600080fd5b5061068e611c6a565b60405161069b919061203f565b60405180910390f35b3480156106b057600080fd5b506106cb60048036038101906106c69190612012565b611c70565b6040516106d8919061203f565b60405180910390f35b3480156106ed57600080fd5b5061070860048036038101906107039190612075565b611c88565b005b34801561071657600080fd5b5061071f611d08565b60405161072c9190612615565b60405180910390f35b6007818154811061074557600080fd5b90600052602060002090600802016000915090508060000180546107689061265f565b80601f01602080910402602001604051908101604052809291908181526020018280546107949061265f565b80156107e15780601f106107b6576101008083540402835291602001916107e1565b820191906000526020600020905b8154815290600101906020018083116107c457829003601f168201915b5050505050908060010180546107f69061265f565b80601f01602080910402602001604051908101604052809291908181526020018280546108229061265f565b801561086f5780601f106108445761010080835404028352916020019161086f565b820191906000526020600020905b81548152906001019060200180831161085257829003601f168201915b5050505050908060020154908060030160009054906101000a900460ff16908060040154908060050160009054906101000a900473ffffffffffffffffffffffffffffffffffffffff16908060050160149054906101000a900460ff16908060060154908060070154905089565b600660003373ffffffffffffffffffffffffffffffffffffffff1673ffffffffffffffffffffffffffffffffffffffff16815260200190815260200160002060009054906101000a900460ff161561096a576040517f08c379a0000000000000000000000000000000000000000000000000000000008152600401610961906126dc565b60405180910390fd5b6007828154811061097e5761097d6126fc565b5b906000526020600020906008020160050160149054906101000a900460ff166109dc576040517f08c379a00000000000000000000000000000000000000000000000000000000081526004016109d390612777565b60405180910390fd5b60006109e733610d48565b905060008111610a2c576040517f08c379a0000000000000000000000000000000000000000000000000000000008152600401610a23906127e3565b60405180910390fd5b8115610a73578060078481548110610a4757610a466126fc565b5b90600052602060002090600802016006016000828254610a679190612832565b92505081905550610ab0565b8060078481548110610a8857610a876126fc565b5b90600052602060002090600802016007016000828254610aa89190612832565b925050819055505b600260003373ffffffffffffffffffffffffffffffffffffffff1673ffffffffffffffffffffffffffffffffffffffff168152602001908152602001600020604051806060016040528085815260200184151581526020018381525090806001815401808255809150506001900390600052602060002090600302016000909190919091506000820151816000015560208201518160010160006101000a81548160ff0219169083151502179055506040820151816002015550506001600660003373ffffffffffffffffffffffffffffffffffffffff1673ffffffffffffffffffffffffffffffffffffffff16815260200190815260200160002060006101000a81548160ff0219169083151502179055507fb898e75d5aac8de2f407e4a683c8d909e832d1e371e3bff0fa3ed934e88d956283338385604051610bf89493929190612866565b60405180910390a1505050565b600460003373ffffffffffffffffffffffffffffffffffffffff1673ffffffffffffffffffffffffffffffffffffffff16815260200190815260200160002060009054906101000a900460ff16610c91576040517f08c379a0000000000000000000000000000000000000000000000000000000008152600401610c889061291d565b60405180910390fd5b6000600460008373ffffffffffffffffffffffffffffffffffffffff1673ffffffffffffffffffffffffffffffffffffffff16815260200190815260200160002060006101000a81548160ff02191690831515021790555050565b600a5481565b6000600460008373ffffffffffffffffffffffffffffffffffffffff1673ffffffffffffffffffffffffffffffffffffffff16815260200190815260200160002060009054906101000a900460ff169050919050565b60008060055411610d8e576040517f08c379a0000000000000000000000000000000000000000000000000000000008152600401610d85906129af565b60405180910390fd5b60055460646000808573ffffffffffffffffffffffffffffffffffffffff1673ffffffffffffffffffffffffffffffffffffffff16815260200190815260200160002054610ddc91906129cf565b610de69190612a40565b9050919050565b60055481565b60046020528060005260406000206000915054906101000a900460ff1681565b6000600160008373ffffffffffffffffffffffffffffffffffffffff1673ffffffffffffffffffffffffffffffffffffffff168152602001908152602001600020549050919050565b600060078281548110610e7257610e716126fc565b5b906000526020600020906008020190508060040154421015610ec9576040517f08c379a0000000000000000000000000000000000000000000000000000000008152600401610ec090612abd565b60405180910390fd5b8060050160149054906101000a900460ff16610f1a576040517f08c379a0000000000000000000000000000000000000000000000000000000008152600401610f1190612777565b60405180910390fd5b6000610f258361182c565b905080826006015410610fa75760405180606001604052806001151581526020018360060154815260200183600701548152506003600085815260200190815260200160002060008201518160000160006101000a81548160ff0219169083151502179055506020820151816001015560408201518160020155905050611018565b60405180606001604052806000151581526020018360060154815260200183600701548152506003600085815260200190815260200160002060008201518160000160006101000a81548160ff02191690831515021790555060208201518160010155604082015181600201559050505b60008260050160146101000a81548160ff021916908315150217905550505050565b80600160008473ffffffffffffffffffffffffffffffffffffffff1673ffffffffffffffffffffffffffffffffffffffff1681526020019081526020016000205410156110bc576040517f08c379a00000000000000000000000000000000000000000000000000000000081526004016110b390612b29565b60405180910390fd5b80600160008473ffffffffffffffffffffffffffffffffffffffff1673ffffffffffffffffffffffffffffffffffffffff168152602001908152602001600020600082825461110b9190612b49565b9250508190555080600560008282546111249190612b49565b92505081905550806007600081548110611141576111406126fc565b5b906000526020600020906008020160060160008282546111619190612832565b92505081905550600260008373ffffffffffffffffffffffffffffffffffffffff1673ffffffffffffffffffffffffffffffffffffffff1681526020019081526020016000206040518060600160405280600081526020016001151581526020018381525090806001815401808255809150506001900390600052602060002090600302016000909190919091506000820151816000015560208201518160010160006101000a81548160ff0219169083151502179055506040820151816002015550507fb898e75d5aac8de2f407e4a683c8d909e832d1e371e3bff0fa3ed934e88d956260008383600160405161125c9493929190612bb8565b60405180910390a15050565b60606007805480602002602001604051908101604052809291908181526020016000905b828210156114995783829060005260206000209060080201604051806101200160405290816000820180546112c09061265f565b80601f01602080910402602001604051908101604052809291908181526020018280546112ec9061265f565b80156113395780601f1061130e57610100808354040283529160200191611339565b820191906000526020600020905b81548152906001019060200180831161131c57829003601f168201915b505050505081526020016001820180546113529061265f565b80601f016020809104026020016040519081016040528092919081815260200182805461137e9061265f565b80156113cb5780601f106113a0576101008083540402835291602001916113cb565b820191906000526020600020905b8154815290600101906020018083116113ae57829003601f168201915b50505050508152602001600282015481526020016003820160009054906101000a900460ff1660ff1660ff168152602001600482015481526020016005820160009054906101000a900473ffffffffffffffffffffffffffffffffffffffff1673ffffffffffffffffffffffffffffffffffffffff1673ffffffffffffffffffffffffffffffffffffffff1681526020016005820160149054906101000a900460ff16151515158152602001600682015481526020016007820154815250508152602001906001019061128c565b50505050905090565b6114aa611d2e565b600360008381526020019081526020016000206040518060600160405290816000820160009054906101000a900460ff16151515158152602001600182015481526020016002820154815250509050919050565b600460003373ffffffffffffffffffffffffffffffffffffffff1673ffffffffffffffffffffffffffffffffffffffff16815260200190815260200160002060009054906101000a900460ff1661158a576040517f08c379a00000000000000000000000000000000000000000000000000000000081526004016115819061291d565b60405180910390fd5b6001600460008373ffffffffffffffffffffffffffffffffffffffff1673ffffffffffffffffffffffffffffffffffffffff16815260200190815260200160002060006101000a81548160ff02191690831515021790555050565b670de0b6b3a7640000341461162f576040517f08c379a000000000000000000000000000000000000000000000000000000000815260040161162690612c6f565b60405180910390fd5b6000603c8361163e91906129cf565b426116499190612832565b905060076040518061012001604052808781526020018681526020018581526020018460ff1681526020018381526020013373ffffffffffffffffffffffffffffffffffffffff168152602001600115158152602001600081526020016000815250908060018154018082558091505060019003906000526020600020906008020160009091909190915060008201518160000190816116e99190612e31565b5060208201518160010190816116ff9190612e31565b506040820151816002015560608201518160030160006101000a81548160ff021916908360ff1602179055506080820151816004015560a08201518160050160006101000a81548173ffffffffffffffffffffffffffffffffffffffff021916908373ffffffffffffffffffffffffffffffffffffffff16021790555060c08201518160050160146101000a81548160ff02191690831515021790555060e0820151816006015561010082015181600701555050600060016007805490506117c79190612b49565b9050600860008154809291906117dc90612f03565b91905055507f3d7708da99615a873ed0ef5e0b10f8b1bd8e76e197387471a6a8ca12c29da9138187878787873360405161181c9796959493929190612f4b565b60405180910390a1505050505050565b60008060078381548110611843576118426126fc565b5b906000526020600020906008020190506000600381111561186757611866612fc8565b5b60ff168160030160009054906101000a900460ff1660ff160361189b5760026005546118939190612a40565b9150506119b9565b600160038111156118af576118ae612fc8565b5b60ff168160030160009054906101000a900460ff1660ff16036118ef57600360026005546118dd91906129cf565b6118e79190612a40565b9150506119b9565b6002600381111561190357611902612fc8565b5b60ff168160030160009054906101000a900460ff1660ff1603611943576004600360055461193191906129cf565b61193b9190612a40565b9150506119b9565b60038081111561195657611955612fc8565b5b60ff168160030160009054906101000a900460ff1660ff160361197e576005549150506119b9565b6040517f08c379a00000000000000000000000000000000000000000000000000000000081526004016119b090613043565b60405180910390fd5b919050565b600460003373ffffffffffffffffffffffffffffffffffffffff1673ffffffffffffffffffffffffffffffffffffffff16815260200190815260200160002060009054906101000a900460ff16611a4a576040517f08c379a0000000000000000000000000000000000000000000000000000000008152600401611a419061291d565b60405180910390fd5b6007805490508110611a91576040517f08c379a0000000000000000000000000000000000000000000000000000000008152600401611a88906130af565b60405180910390fd5b600060078281548110611aa757611aa66126fc565b5b906000526020600020906008020160050160146101000a81548160ff021916908315150217905550807f61c0d93dc2b610877e420b107c8d12e9185e46e04a505da758cc7f7329ae545f60405160405180910390a250565b6000600854905090565b600960009054906101000a900460ff1681565b60036020528060005260406000206000915090508060000160009054906101000a900460ff16908060010154908060020154905083565b60066020528060005260406000206000915054906101000a900460ff1681565b806000808473ffffffffffffffffffffffffffffffffffffffff1673ffffffffffffffffffffffffffffffffffffffff1681526020019081526020016000208190555080600160008473ffffffffffffffffffffffffffffffffffffffff1673ffffffffffffffffffffffffffffffffffffffff168152602001908152602001600020819055505050565b60006020528060005260406000206000915090505481565b60026020528160005260406000208181548110611c3257600080fd5b9060005260206000209060030201600091509150508060000154908060010160009054906101000a900460ff16908060020154905083565b60085481565b60016020528060005260406000206000915090505481565b806000808473ffffffffffffffffffffffffffffffffffffffff1673ffffffffffffffffffffffffffffffffffffffff168152602001908152602001600020819055507fe6382c9ed5c0c33bb05042f73cf6cbe9cb25639f9a711e094ee563bc9cb80e2c8282604051611cfc9291906130cf565b60405180910390a15050565b600b60009054906101000a900473ffffffffffffffffffffffffffffffffffffffff1681565b604051806060016040528060001515815260200160008152602001600081525090565b6000604051905090565b600080fd5b600080fd5b6000819050919050565b611d7881611d65565b8114611d8357600080fd5b50565b600081359050611d9581611d6f565b92915050565b600060208284031215611db157611db0611d5b565b5b6000611dbf84828501611d86565b91505092915050565b600081519050919050565b600082825260208201905092915050565b60005b83811015611e02578082015181840152602081019050611de7565b60008484015250505050565b6000601f19601f8301169050919050565b6000611e2a82611dc8565b611e348185611dd3565b9350611e44818560208601611de4565b611e4d81611e0e565b840191505092915050565b611e6181611d65565b82525050565b600060ff82169050919050565b611e7d81611e67565b82525050565b600073ffffffffffffffffffffffffffffffffffffffff82169050919050565b6000611eae82611e83565b9050919050565b611ebe81611ea3565b82525050565b60008115159050919050565b611ed981611ec4565b82525050565b6000610120820190508181036000830152611efa818c611e1f565b90508181036020830152611f0e818b611e1f565b9050611f1d604083018a611e58565b611f2a6060830189611e74565b611f376080830188611e58565b611f4460a0830187611eb5565b611f5160c0830186611ed0565b611f5e60e0830185611e58565b611f6c610100830184611e58565b9a9950505050505050505050565b611f8381611ec4565b8114611f8e57600080fd5b50565b600081359050611fa081611f7a565b92915050565b60008060408385031215611fbd57611fbc611d5b565b5b6000611fcb85828601611d86565b9250506020611fdc85828601611f91565b9150509250929050565b611fef81611ea3565b8114611ffa57600080fd5b50565b60008135905061200c81611fe6565b92915050565b60006020828403121561202857612027611d5b565b5b600061203684828501611ffd565b91505092915050565b60006020820190506120546000830184611e58565b92915050565b600060208201905061206f6000830184611ed0565b92915050565b6000806040838503121561208c5761208b611d5b565b5b600061209a85828601611ffd565b92505060206120ab85828601611d86565b9150509250929050565b600081519050919050565b600082825260208201905092915050565b6000819050602082019050919050565b600082825260208201905092915050565b60006120fd82611dc8565b61210781856120e1565b9350612117818560208601611de4565b61212081611e0e565b840191505092915050565b61213481611d65565b82525050565b61214381611e67565b82525050565b61215281611ea3565b82525050565b61216181611ec4565b82525050565b600061012083016000830151848203600086015261218582826120f2565b9150506020830151848203602086015261219f82826120f2565b91505060408301516121b4604086018261212b565b5060608301516121c7606086018261213a565b5060808301516121da608086018261212b565b5060a08301516121ed60a0860182612149565b5060c083015161220060c0860182612158565b5060e083015161221360e086018261212b565b5061010083015161222861010086018261212b565b508091505092915050565b600061223f8383612167565b905092915050565b6000602082019050919050565b600061225f826120b5565b61226981856120c0565b93508360208202850161227b856120d1565b8060005b858110156122b757848403895281516122988582612233565b94506122a383612247565b925060208a0199505060018101905061227f565b50829750879550505050505092915050565b600060208201905081810360008301526122e38184612254565b905092915050565b6060820160008201516123016000850182612158565b506020820151612314602085018261212b565b506040820151612327604085018261212b565b50505050565b600060608201905061234260008301846122eb565b92915050565b600080fd5b600080fd5b7f4e487b7100000000000000000000000000000000000000000000000000000000600052604160045260246000fd5b61238a82611e0e565b810181811067ffffffffffffffff821117156123a9576123a8612352565b5b80604052505050565b60006123bc611d51565b90506123c88282612381565b919050565b600067ffffffffffffffff8211156123e8576123e7612352565b5b6123f182611e0e565b9050602081019050919050565b82818337600083830152505050565b600061242061241b846123cd565b6123b2565b90508281526020810184848401111561243c5761243b61234d565b5b6124478482856123fe565b509392505050565b600082601f83011261246457612463612348565b5b813561247484826020860161240d565b91505092915050565b61248681611e67565b811461249157600080fd5b50565b6000813590506124a38161247d565b92915050565b600080600080608085870312156124c3576124c2611d5b565b5b600085013567ffffffffffffffff8111156124e1576124e0611d60565b5b6124ed8782880161244f565b945050602085013567ffffffffffffffff81111561250e5761250d611d60565b5b61251a8782880161244f565b935050604061252b87828801611d86565b925050606061253c87828801612494565b91505092959194509250565b600060608201905061255d6000830186611ed0565b61256a6020830185611e58565b6125776040830184611e58565b949350505050565b60006060820190506125946000830186611e58565b6125a16020830185611ed0565b6125ae6040830184611e58565b949350505050565b6000819050919050565b60006125db6125d66125d184611e83565b6125b6565b611e83565b9050919050565b60006125ed826125c0565b9050919050565b60006125ff826125e2565b9050919050565b61260f816125f4565b82525050565b600060208201905061262a6000830184612606565b92915050565b7f4e487b7100000000000000000000000000000000000000000000000000000000600052602260045260246000fd5b6000600282049050600182168061267757607f821691505b60208210810361268a57612689612630565b5b50919050565b7f596f75206861766520616c726561647920766f74656400000000000000000000600082015250565b60006126c6601683611dd3565b91506126d182612690565b602082019050919050565b600060208201905081810360008301526126f5816126b9565b9050919050565b7f4e487b7100000000000000000000000000000000000000000000000000000000600052603260045260246000fd5b7f50726f706f73616c206973206e6f742061637469766500000000000000000000600082015250565b6000612761601683611dd3565b915061276c8261272b565b602082019050919050565b6000602082019050818103600083015261279081612754565b9050919050565b7f596f75206d75737420686f6c642073686172657320746f20766f746500000000600082015250565b60006127cd601c83611dd3565b91506127d882612797565b602082019050919050565b600060208201905081810360008301526127fc816127c0565b9050919050565b7f4e487b7100000000000000000000000000000000000000000000000000000000600052601160045260246000fd5b600061283d82611d65565b915061284883611d65565b92508282019050808211156128605761285f612803565b5b92915050565b600060808201905061287b6000830187611e58565b6128886020830186611eb5565b6128956040830185611e58565b6128a26060830184611ed0565b95945050505050565b7f4f6e6c792061646d696e732063616e20706572666f726d20746869732061637460008201527f696f6e0000000000000000000000000000000000000000000000000000000000602082015250565b6000612907602383611dd3565b9150612912826128ab565b604082019050919050565b60006020820190508181036000830152612936816128fa565b9050919050565b7f546f74616c20736861726573206d75737420626520677265617465722074686160008201527f6e207a65726f0000000000000000000000000000000000000000000000000000602082015250565b6000612999602683611dd3565b91506129a48261293d565b604082019050919050565b600060208201905081810360008301526129c88161298c565b9050919050565b60006129da82611d65565b91506129e583611d65565b92508282026129f381611d65565b91508282048414831517612a0a57612a09612803565b5b5092915050565b7f4e487b7100000000000000000000000000000000000000000000000000000000600052601260045260246000fd5b6000612a4b82611d65565b9150612a5683611d65565b925082612a6657612a65612a11565b5b828204905092915050565b7f566f74696e6720706572696f6420686173206e6f7420656e6465640000000000600082015250565b6000612aa7601b83611dd3565b9150612ab282612a71565b602082019050919050565b60006020820190508181036000830152612ad681612a9a565b9050919050565b7f4e6f7420656e6f75676820746f6b656e7320746f20766f746500000000000000600082015250565b6000612b13601983611dd3565b9150612b1e82612add565b602082019050919050565b60006020820190508181036000830152612b4281612b06565b9050919050565b6000612b5482611d65565b9150612b5f83611d65565b9250828203905081811115612b7757612b76612803565b5b92915050565b6000819050919050565b6000612ba2612b9d612b9884612b7d565b6125b6565b611d65565b9050919050565b612bb281612b87565b82525050565b6000608082019050612bcd6000830187612ba9565b612bda6020830186611eb5565b612be76040830185611e58565b612bf46060830184611ed0565b95945050505050565b7f4d7573742073656e6420312045544820746f2063726561746520612070726f7060008201527f6f73616c00000000000000000000000000000000000000000000000000000000602082015250565b6000612c59602483611dd3565b9150612c6482612bfd565b604082019050919050565b60006020820190508181036000830152612c8881612c4c565b9050919050565b60008190508160005260206000209050919050565b60006020601f8301049050919050565b600082821b905092915050565b600060088302612cf17fffffffffffffffffffffffffffffffffffffffffffffffffffffffffffffffff82612cb4565b612cfb8683612cb4565b95508019841693508086168417925050509392505050565b6000612d2e612d29612d2484611d65565b6125b6565b611d65565b9050919050565b6000819050919050565b612d4883612d13565b612d5c612d5482612d35565b848454612cc1565b825550505050565b600090565b612d71612d64565b612d7c818484612d3f565b505050565b5b81811015612da057612d95600082612d69565b600181019050612d82565b5050565b601f821115612de557612db681612c8f565b612dbf84612ca4565b81016020851015612dce578190505b612de2612dda85612ca4565b830182612d81565b50505b505050565b600082821c905092915050565b6000612e0860001984600802612dea565b1980831691505092915050565b6000612e218383612df7565b9150826002028217905092915050565b612e3a82611dc8565b67ffffffffffffffff811115612e5357612e52612352565b5b612e5d825461265f565b612e68828285612da4565b600060209050601f831160018114612e9b5760008415612e89578287015190505b612e938582612e15565b865550612efb565b601f198416612ea986612c8f565b60005b82811015612ed157848901518255600182019150602085019450602081019050612eac565b86831015612eee5784890151612eea601f891682612df7565b8355505b6001600288020188555050505b505050505050565b6000612f0e82611d65565b91507fffffffffffffffffffffffffffffffffffffffffffffffffffffffffffffffff8203612f4057612f3f612803565b5b600182019050919050565b600060e082019050612f60600083018a611e58565b8181036020830152612f728189611e1f565b90508181036040830152612f868188611e1f565b9050612f956060830187611e58565b612fa26080830186611e74565b612faf60a0830185611e58565b612fbc60c0830184611eb5565b98975050505050505050565b7f4e487b7100000000000000000000000000000000000000000000000000000000600052602160045260246000fd5b7f496e76616c69642071756f72756d207479706500000000000000000000000000600082015250565b600061302d601383611dd3565b915061303882612ff7565b602082019050919050565b6000602082019050818103600083015261305c81613020565b9050919050565b7f496e76616c69642070726f706f73616c20494400000000000000000000000000600082015250565b6000613099601383611dd3565b91506130a482613063565b602082019050919050565b600060208201905081810360008301526130c88161308c565b9050919050565b60006040820190506130e46000830185611eb5565b6130f16020830184611e58565b939250505056fea2646970667358221220393450d7d71b73b131c0bb5b32c21499943b0fefa9d28963cba955b4a38e847e64736f6c63430008140033",
  "linkReferences": {},
  "deployedLinkReferences": {}
}