{
  "_format": "hh-sol-artifact-1",
  "contractName": "VotingContract",
  "sourceName": "contracts/smartContract.sol",
  "abi": [
    {
      "inputs": [
        {
          "internalType": "address",
          "name": "_tokenAddress",
          "type": "address"
        }
      ],
      "stateMutability": "nonpayable",
      "type": "constructor"
    },
    {
      "anonymous": false,
      "inputs": [
        {
          "indexed": false,
          "internalType": "uint256",
          "name": "proposalId",
          "type": "uint256"
        },
        {
          "indexed": false,
          "internalType": "string",
          "name": "description",
          "type": "string"
        },
        {
          "indexed": false,
          "internalType": "uint256",
          "name": "votingEndTime",
          "type": "uint256"
        }
      ],
      "name": "ProposalCreated",
      "type": "event"
    },
    {
      "anonymous": false,
      "inputs": [
        {
          "indexed": false,
          "internalType": "address",
          "name": "voter",
          "type": "address"
        },
        {
          "indexed": false,
          "internalType": "uint256",
          "name": "rewardAmount",
          "type": "uint256"
        }
      ],
      "name": "RewardIssued",
      "type": "event"
    },
    {
      "anonymous": false,
      "inputs": [
        {
          "indexed": false,
          "internalType": "address",
          "name": "voter",
          "type": "address"
        },
        {
          "indexed": false,
          "internalType": "uint256",
          "name": "newShares",
          "type": "uint256"
        }
      ],
      "name": "SharesUpdated",
      "type": "event"
    },
    {
      "anonymous": false,
      "inputs": [
        {
          "indexed": false,
          "internalType": "uint256",
          "name": "proposalId",
          "type": "uint256"
        },
        {
          "indexed": false,
          "internalType": "address",
          "name": "voter",
          "type": "address"
        },
        {
          "indexed": false,
          "internalType": "uint256",
          "name": "weight",
          "type": "uint256"
        },
        {
          "indexed": false,
          "internalType": "bool",
          "name": "voteFor",
          "type": "bool"
        }
      ],
      "name": "VoteCast",
      "type": "event"
    },
    {
      "inputs": [
        {
          "internalType": "string",
          "name": "description",
          "type": "string"
        },
        {
          "internalType": "uint256",
          "name": "durationInMinutes",
          "type": "uint256"
        },
        {
          "internalType": "enum VotingContract.QuorumType",
          "name": "quorumType",
          "type": "uint8"
        }
      ],
      "name": "createProposal",
      "outputs": [],
      "stateMutability": "nonpayable",
      "type": "function"
    },
    {
      "inputs": [
        {
          "internalType": "uint256",
          "name": "proposalId",
          "type": "uint256"
        }
      ],
      "name": "endVoting",
      "outputs": [],
      "stateMutability": "nonpayable",
      "type": "function"
    },
    {
      "inputs": [
        {
          "internalType": "uint256",
          "name": "proposalId",
          "type": "uint256"
        }
      ],
      "name": "getProposalOutcome",
      "outputs": [
        {
          "components": [
            {
              "internalType": "bool",
              "name": "passed",
              "type": "bool"
            },
            {
              "internalType": "uint256",
              "name": "votesFor",
              "type": "uint256"
            },
            {
              "internalType": "uint256",
              "name": "votesAgainst",
              "type": "uint256"
            }
          ],
          "internalType": "struct VotingContract.ProposalOutcome",
          "name": "",
          "type": "tuple"
        }
      ],
      "stateMutability": "view",
      "type": "function"
    },
    {
      "inputs": [],
      "name": "getProposalsCount",
      "outputs": [
        {
          "internalType": "uint256",
          "name": "",
          "type": "uint256"
        }
      ],
      "stateMutability": "view",
      "type": "function"
    },
    {
      "inputs": [
        {
          "internalType": "uint256",
          "name": "proposalId",
          "type": "uint256"
        }
      ],
      "name": "getVotingProgress",
      "outputs": [
        {
          "internalType": "uint256",
          "name": "progress",
          "type": "uint256"
        },
        {
          "internalType": "uint256",
          "name": "requiredQuorum",
          "type": "uint256"
        }
      ],
      "stateMutability": "view",
      "type": "function"
    },
    {
      "inputs": [],
      "name": "governanceToken",
      "outputs": [
        {
          "internalType": "contract GovernanceToken",
          "name": "",
          "type": "address"
        }
      ],
      "stateMutability": "view",
      "type": "function"
    },
    {
      "inputs": [
        {
          "internalType": "uint256",
          "name": "proposalId",
          "type": "uint256"
        }
      ],
      "name": "hasMetQuorum",
      "outputs": [
        {
          "internalType": "bool",
          "name": "",
          "type": "bool"
        }
      ],
      "stateMutability": "view",
      "type": "function"
    },
    {
      "inputs": [],
      "name": "isVotingPeriodActive",
      "outputs": [
        {
          "internalType": "bool",
          "name": "",
          "type": "bool"
        }
      ],
      "stateMutability": "view",
      "type": "function"
    },
    {
      "inputs": [],
      "name": "proposalCount",
      "outputs": [
        {
          "internalType": "uint256",
          "name": "",
          "type": "uint256"
        }
      ],
      "stateMutability": "view",
      "type": "function"
    },
    {
      "inputs": [
        {
          "internalType": "uint256",
          "name": "",
          "type": "uint256"
        }
      ],
      "name": "proposalOutcomes",
      "outputs": [
        {
          "internalType": "bool",
          "name": "passed",
          "type": "bool"
        },
        {
          "internalType": "uint256",
          "name": "votesFor",
          "type": "uint256"
        },
        {
          "internalType": "uint256",
          "name": "votesAgainst",
          "type": "uint256"
        }
      ],
      "stateMutability": "view",
      "type": "function"
    },
    {
      "inputs": [
        {
          "internalType": "uint256",
          "name": "",
          "type": "uint256"
        }
      ],
      "name": "proposals",
      "outputs": [
        {
          "internalType": "string",
          "name": "description",
          "type": "string"
        },
        {
          "internalType": "uint256",
          "name": "votesFor",
          "type": "uint256"
        },
        {
          "internalType": "uint256",
          "name": "votesAgainst",
          "type": "uint256"
        },
        {
          "internalType": "bool",
          "name": "active",
          "type": "bool"
        },
        {
          "internalType": "uint256",
          "name": "votingEndTime",
          "type": "uint256"
        },
        {
          "internalType": "uint256",
          "name": "totalVotesCast",
          "type": "uint256"
        },
        {
          "internalType": "enum VotingContract.QuorumType",
          "name": "quorumType",
          "type": "uint8"
        }
      ],
      "stateMutability": "view",
      "type": "function"
    },
    {
      "inputs": [
        {
          "internalType": "address",
          "name": "voter",
          "type": "address"
        },
        {
          "internalType": "uint256",
          "name": "shareCount",
          "type": "uint256"
        }
      ],
      "name": "registerVoter",
      "outputs": [],
      "stateMutability": "nonpayable",
      "type": "function"
    },
    {
      "inputs": [
        {
          "internalType": "address",
          "name": "",
          "type": "address"
        }
      ],
      "name": "shares",
      "outputs": [
        {
          "internalType": "uint256",
          "name": "",
          "type": "uint256"
        }
      ],
      "stateMutability": "view",
      "type": "function"
    },
    {
      "inputs": [],
      "name": "totalShares",
      "outputs": [
        {
          "internalType": "uint256",
          "name": "",
          "type": "uint256"
        }
      ],
      "stateMutability": "view",
      "type": "function"
    },
    {
      "inputs": [
        {
          "internalType": "address",
          "name": "voter",
          "type": "address"
        },
        {
          "internalType": "uint256",
          "name": "newShares",
          "type": "uint256"
        }
      ],
      "name": "updateShares",
      "outputs": [],
      "stateMutability": "nonpayable",
      "type": "function"
    },
    {
      "inputs": [
        {
          "internalType": "uint256",
          "name": "proposalId",
          "type": "uint256"
        },
        {
          "internalType": "bool",
          "name": "voteFor",
          "type": "bool"
        }
      ],
      "name": "vote",
      "outputs": [],
      "stateMutability": "nonpayable",
      "type": "function"
    },
    {
      "inputs": [],
      "name": "votingEndTime",
      "outputs": [
        {
          "internalType": "uint256",
          "name": "",
          "type": "uint256"
        }
      ],
      "stateMutability": "view",
      "type": "function"
    },
    {
      "inputs": [
        {
          "internalType": "address",
          "name": "",
          "type": "address"
        },
        {
          "internalType": "uint256",
          "name": "",
          "type": "uint256"
        }
      ],
      "name": "votingHistory",
      "outputs": [
        {
          "internalType": "uint256",
          "name": "proposalId",
          "type": "uint256"
        },
        {
          "internalType": "bool",
          "name": "votedFor",
          "type": "bool"
        },
        {
          "internalType": "uint256",
          "name": "voteWeight",
          "type": "uint256"
        }
      ],
      "stateMutability": "view",
      "type": "function"
    }
  ],
  "bytecode": "0x608060405234801561001057600080fd5b50604051612919380380612919833981810160405281019061003291906100dc565b80600860006101000a81548173ffffffffffffffffffffffffffffffffffffffff021916908373ffffffffffffffffffffffffffffffffffffffff16021790555050610109565b600080fd5b600073ffffffffffffffffffffffffffffffffffffffff82169050919050565b60006100a98261007e565b9050919050565b6100b98161009e565b81146100c457600080fd5b50565b6000815190506100d6816100b0565b92915050565b6000602082840312156100f2576100f1610079565b5b6000610100848285016100c7565b91505092915050565b612801806101186000396000f3fe608060405234801561001057600080fd5b50600436106101155760003560e01c80639fcc5ce4116100a2578063ce7c2ac211610071578063ce7c2ac2146102fb578063d09c34f21461032b578063da35c6641461035d578063e5d0821f1461037b578063f96dae0a1461039757610115565b80639fcc5ce414610273578063a9c0310d14610291578063c9d27afe146102c3578063cbea81ef146102df57610115565b8063649f89a5116100e9578063649f89a5146101a85780636fdb6f7c146101c45780637a7c153b146101f457806398e527d3146102245780639baf1c971461024257610115565b8062738ea71461011a578063013cf08b146101365780631ea736e01461016c5780633a98ef391461018a575b600080fd5b610134600480360381019061012f9190611868565b6103b5565b005b610150600480360381019061014b91906118d7565b6105ec565b6040516101639796959493929190611a24565b60405180910390f35b6101746106d0565b6040516101819190611a9a565b60405180910390f35b6101926106d6565b60405161019f9190611a9a565b60405180910390f35b6101c260048036038101906101bd91906118d7565b6106dc565b005b6101de60048036038101906101d991906118d7565b6109ed565b6040516101eb9190611b15565b60405180910390f35b61020e600480360381019061020991906118d7565b610a49565b60405161021b9190611b30565b60405180910390f35b61022c610bc9565b6040516102399190611a9a565b60405180910390f35b61025c600480360381019061025791906118d7565b610bd3565b60405161026a929190611b4b565b60405180910390f35b61027b610e5c565b6040516102889190611b30565b60405180910390f35b6102ab60048036038101906102a691906118d7565b610e6f565b6040516102ba93929190611b74565b60405180910390f35b6102dd60048036038101906102d89190611bd7565b610ea6565b005b6102f960048036038101906102f49190611c75565b611462565b005b61031560048036038101906103109190611cb5565b611512565b6040516103229190611a9a565b60405180910390f35b61034560048036038101906103409190611c75565b61152a565b60405161035493929190611ce2565b60405180910390f35b61036561157e565b6040516103729190611a9a565b60405180910390f35b61039560048036038101906103909190611c75565b611584565b005b61039f611654565b6040516103ac9190611d78565b60405180910390f35b6005805460646000803373ffffffffffffffffffffffffffffffffffffffff1673ffffffffffffffffffffffffffffffffffffffff168152602001908152602001600020546104049190611dc2565b61040e9190611e33565b101561044f576040517f08c379a000000000000000000000000000000000000000000000000000000000815260040161044690611ed6565b60405180910390fd5b6040518060e001604052808481526020016000815260200160008152602001600115158152602001603c846104849190611dc2565b4261048f9190611ef6565b8152602001600081526020018260038111156104ae576104ad6119ad565b5b81525060016000600454815260200190815260200160002060008201518160000190816104db919061212c565b50602082015181600101556040820151816002015560608201518160030160006101000a81548160ff0219169083151502179055506080820151816004015560a0820151816005015560c08201518160060160006101000a81548160ff0219169083600381111561054f5761054e6119ad565b5b02179055509050506001600660006101000a81548160ff021916908315150217905550603c8261057f9190611dc2565b4261058a9190611ef6565b6007819055507ff5dc0da9afa6d080780a49fd8c680f03d2ddf3c067cd6d0c85360c096644d2d3600454846007546040516105c7939291906121fe565b60405180910390a1600460008154809291906105e29061223c565b9190505550505050565b600160205280600052604060002060009150905080600001805461060f90611f59565b80601f016020809104026020016040519081016040528092919081815260200182805461063b90611f59565b80156106885780601f1061065d57610100808354040283529160200191610688565b820191906000526020600020905b81548152906001019060200180831161066b57829003601f168201915b5050505050908060010154908060020154908060030160009054906101000a900460ff16908060040154908060050154908060060160009054906101000a900460ff16905087565b60075481565b60055481565b6001600082815260200190815260200160002060030160009054906101000a900460ff1661073f576040517f08c379a0000000000000000000000000000000000000000000000000000000008152600401610736906122d0565b60405180910390fd5b42600160008381526020019081526020016000206004015410610797576040517f08c379a000000000000000000000000000000000000000000000000000000000815260040161078e9061233c565b60405180910390fd5b60006001600083815260200190815260200160002060030160006101000a81548160ff0219169083151502179055506000805b600454811015610813576001600082815260200190815260200160002060030160009054906101000a900460ff16156108065760019150610813565b80806001019150506107ca565b50600060016000848152602001908152602001600020600201546001600085815260200190815260200160002060010154119050604051806060016040528082151581526020016001600086815260200190815260200160002060010154815260200160016000868152602001908152602001600020600201548152506003600085815260200190815260200160002060008201518160000160006101000a81548160ff0219169083151502179055506020820151816001015560408201518160020155905050600160008481526020019081526020016000206004015442118015610905575061090383610a49565b155b156109ce5760006001600085815260200190815260200160002060030160006101000a81548160ff02191690831515021790555060405180606001604052806000151581526020016001600086815260200190815260200160002060010154815260200160016000868152602001908152602001600020600201548152506003600085815260200190815260200160002060008201518160000160006101000a81548160ff02191690831515021790555060208201518160010155604082015181600201559050505b81600660006101000a81548160ff021916908315150217905550505050565b6109f5611690565b600360008381526020019081526020016000206040518060600160405290816000820160009054906101000a900460ff16151515158152602001600182015481526020016002820154815250509050919050565b6000806001600084815260200190815260200160002090506000806003811115610a7657610a756119ad565b5b8260060160009054906101000a900460ff166003811115610a9a57610a996119ad565b5b03610ab5576002600554610aae9190611e33565b9050610bb8565b60016003811115610ac957610ac86119ad565b5b8260060160009054906101000a900460ff166003811115610aed57610aec6119ad565b5b03610b145760036002600554610b039190611dc2565b610b0d9190611e33565b9050610bb7565b60026003811115610b2857610b276119ad565b5b8260060160009054906101000a900460ff166003811115610b4c57610b4b6119ad565b5b03610b735760046003600554610b629190611dc2565b610b6c9190611e33565b9050610bb6565b600380811115610b8657610b856119ad565b5b8260060160009054906101000a900460ff166003811115610baa57610ba96119ad565b5b03610bb55760055490505b5b5b5b808260010154101592505050919050565b6000600454905090565b6000806000600160008581526020019081526020016000206040518060e0016040529081600082018054610c0690611f59565b80601f0160208091040260200160405190810160405280929190818152602001828054610c3290611f59565b8015610c7f5780601f10610c5457610100808354040283529160200191610c7f565b820191906000526020600020905b815481529060010190602001808311610c6257829003601f168201915b5050505050815260200160018201548152602001600282015481526020016003820160009054906101000a900460ff1615151515815260200160048201548152602001600582015481526020016006820160009054906101000a900460ff166003811115610cf057610cef6119ad565b5b6003811115610d0257610d016119ad565b5b81525050905060008160a0015190506000600554606483610d239190611dc2565b610d2d9190611e33565b905060006003811115610d4357610d426119ad565b5b8360c001516003811115610d5a57610d596119ad565b5b03610d75576002600554610d6e9190611e33565b9350610e51565b60016003811115610d8957610d886119ad565b5b8360c001516003811115610da057610d9f6119ad565b5b03610dc75760036002600554610db69190611dc2565b610dc09190611e33565b9350610e50565b60026003811115610ddb57610dda6119ad565b5b8360c001516003811115610df257610df16119ad565b5b03610e195760046003600554610e089190611dc2565b610e129190611e33565b9350610e4f565b600380811115610e2c57610e2b6119ad565b5b8360c001516003811115610e4357610e426119ad565b5b03610e4e5760055493505b5b5b5b809450505050915091565b600660009054906101000a900460ff1681565b60036020528060005260406000206000915090508060000160009054906101000a900460ff16908060010154908060020154905083565b60008060003373ffffffffffffffffffffffffffffffffffffffff1673ffffffffffffffffffffffffffffffffffffffff1681526020019081526020016000205411610f27576040517f08c379a0000000000000000000000000000000000000000000000000000000008152600401610f1e906123a8565b60405180910390fd5b6001600083815260200190815260200160002060030160009054906101000a900460ff16610f8a576040517f08c379a0000000000000000000000000000000000000000000000000000000008152600401610f8190612414565b60405180910390fd5b4260016000848152602001908152602001600020600401541015610fe3576040517f08c379a0000000000000000000000000000000000000000000000000000000008152600401610fda90612480565b60405180910390fd5b60005b600260003373ffffffffffffffffffffffffffffffffffffffff1673ffffffffffffffffffffffffffffffffffffffff168152602001908152602001600020805490508110156110e15782600260003373ffffffffffffffffffffffffffffffffffffffff1673ffffffffffffffffffffffffffffffffffffffff1681526020019081526020016000208281548110611082576110816124a0565b5b906000526020600020906003020160000154036110d4576040517f08c379a00000000000000000000000000000000000000000000000000000000081526004016110cb90612541565b60405180910390fd5b8080600101915050610fe6565b5060006005546127106000803373ffffffffffffffffffffffffffffffffffffffff1673ffffffffffffffffffffffffffffffffffffffff168152602001908152602001600020546111339190611dc2565b61113d9190611e33565b90508115611177578060016000858152602001908152602001600020600101600082825461116b9190611ef6565b925050819055506111a5565b8060016000858152602001908152602001600020600201600082825461119d9190611ef6565b925050819055505b806001600085815260200190815260200160002060050160008282546111cb9190611ef6565b92505081905550600260003373ffffffffffffffffffffffffffffffffffffffff1673ffffffffffffffffffffffffffffffffffffffff168152602001908152602001600020604051806060016040528085815260200184151581526020018381525090806001815401808255809150506001900390600052602060002090600302016000909190919091506000820151816000015560208201518160010160006101000a81548160ff02191690831515021790555060408201518160020155505060006112988261167a565b90506000600860009054906101000a900473ffffffffffffffffffffffffffffffffffffffff1673ffffffffffffffffffffffffffffffffffffffff166370a08231336040518263ffffffff1660e01b81526004016112f79190612570565b602060405180830381865afa158015611314573d6000803e3d6000fd5b505050506040513d601f19601f8201168201806040525081019061133891906125a0565b14611378576040517f08c379a000000000000000000000000000000000000000000000000000000000815260040161136f90612619565b60405180910390fd5b600860009054906101000a900473ffffffffffffffffffffffffffffffffffffffff1673ffffffffffffffffffffffffffffffffffffffff166340c10f1933836040518363ffffffff1660e01b81526004016113d5929190612639565b600060405180830381600087803b1580156113ef57600080fd5b505af1158015611403573d6000803e3d6000fd5b505050507fb898e75d5aac8de2f407e4a683c8d909e832d1e371e3bff0fa3ed934e88d95628433848660405161143c9493929190612662565b60405180910390a161144d84610a49565b1561145c5761145b846106dc565b5b50505050565b600660009054906101000a900460ff16156114b2576040517f08c379a00000000000000000000000000000000000000000000000000000000081526004016114a990612719565b60405180910390fd5b806000808473ffffffffffffffffffffffffffffffffffffffff1673ffffffffffffffffffffffffffffffffffffffff1681526020019081526020016000208190555080600560008282546115079190611ef6565b925050819055505050565b60006020528060005260406000206000915090505481565b6002602052816000526040600020818154811061154657600080fd5b9060005260206000209060030201600091509150508060000154908060010160009054906101000a900460ff16908060020154905083565b60045481565b600660009054906101000a900460ff16156115d4576040517f08c379a00000000000000000000000000000000000000000000000000000000081526004016115cb906127ab565b60405180910390fd5b806000808473ffffffffffffffffffffffffffffffffffffffff1673ffffffffffffffffffffffffffffffffffffffff168152602001908152602001600020819055507fe6382c9ed5c0c33bb05042f73cf6cbe9cb25639f9a711e094ee563bc9cb80e2c8282604051611648929190612639565b60405180910390a15050565b600860009054906101000a900473ffffffffffffffffffffffffffffffffffffffff1681565b60006064826116899190611e33565b9050919050565b604051806060016040528060001515815260200160008152602001600081525090565b6000604051905090565b600080fd5b600080fd5b600080fd5b600080fd5b6000601f19601f8301169050919050565b7f4e487b7100000000000000000000000000000000000000000000000000000000600052604160045260246000fd5b61171a826116d1565b810181811067ffffffffffffffff82111715611739576117386116e2565b5b80604052505050565b600061174c6116b3565b90506117588282611711565b919050565b600067ffffffffffffffff821115611778576117776116e2565b5b611781826116d1565b9050602081019050919050565b82818337600083830152505050565b60006117b06117ab8461175d565b611742565b9050828152602081018484840111156117cc576117cb6116cc565b5b6117d784828561178e565b509392505050565b600082601f8301126117f4576117f36116c7565b5b813561180484826020860161179d565b91505092915050565b6000819050919050565b6118208161180d565b811461182b57600080fd5b50565b60008135905061183d81611817565b92915050565b6004811061185057600080fd5b50565b60008135905061186281611843565b92915050565b600080600060608486031215611881576118806116bd565b5b600084013567ffffffffffffffff81111561189f5761189e6116c2565b5b6118ab868287016117df565b93505060206118bc8682870161182e565b92505060406118cd86828701611853565b9150509250925092565b6000602082840312156118ed576118ec6116bd565b5b60006118fb8482850161182e565b91505092915050565b600081519050919050565b600082825260208201905092915050565b60005b8381101561193e578082015181840152602081019050611923565b60008484015250505050565b600061195582611904565b61195f818561190f565b935061196f818560208601611920565b611978816116d1565b840191505092915050565b61198c8161180d565b82525050565b60008115159050919050565b6119a781611992565b82525050565b7f4e487b7100000000000000000000000000000000000000000000000000000000600052602160045260246000fd5b600481106119ed576119ec6119ad565b5b50565b60008190506119fe826119dc565b919050565b6000611a0e826119f0565b9050919050565b611a1e81611a03565b82525050565b600060e0820190508181036000830152611a3e818a61194a565b9050611a4d6020830189611983565b611a5a6040830188611983565b611a67606083018761199e565b611a746080830186611983565b611a8160a0830185611983565b611a8e60c0830184611a15565b98975050505050505050565b6000602082019050611aaf6000830184611983565b92915050565b611abe81611992565b82525050565b611acd8161180d565b82525050565b606082016000820151611ae96000850182611ab5565b506020820151611afc6020850182611ac4565b506040820151611b0f6040850182611ac4565b50505050565b6000606082019050611b2a6000830184611ad3565b92915050565b6000602082019050611b45600083018461199e565b92915050565b6000604082019050611b606000830185611983565b611b6d6020830184611983565b9392505050565b6000606082019050611b89600083018661199e565b611b966020830185611983565b611ba36040830184611983565b949350505050565b611bb481611992565b8114611bbf57600080fd5b50565b600081359050611bd181611bab565b92915050565b60008060408385031215611bee57611bed6116bd565b5b6000611bfc8582860161182e565b9250506020611c0d85828601611bc2565b9150509250929050565b600073ffffffffffffffffffffffffffffffffffffffff82169050919050565b6000611c4282611c17565b9050919050565b611c5281611c37565b8114611c5d57600080fd5b50565b600081359050611c6f81611c49565b92915050565b60008060408385031215611c8c57611c8b6116bd565b5b6000611c9a85828601611c60565b9250506020611cab8582860161182e565b9150509250929050565b600060208284031215611ccb57611cca6116bd565b5b6000611cd984828501611c60565b91505092915050565b6000606082019050611cf76000830186611983565b611d04602083018561199e565b611d116040830184611983565b949350505050565b6000819050919050565b6000611d3e611d39611d3484611c17565b611d19565b611c17565b9050919050565b6000611d5082611d23565b9050919050565b6000611d6282611d45565b9050919050565b611d7281611d57565b82525050565b6000602082019050611d8d6000830184611d69565b92915050565b7f4e487b7100000000000000000000000000000000000000000000000000000000600052601160045260246000fd5b6000611dcd8261180d565b9150611dd88361180d565b9250828202611de68161180d565b91508282048414831517611dfd57611dfc611d93565b5b5092915050565b7f4e487b7100000000000000000000000000000000000000000000000000000000600052601260045260246000fd5b6000611e3e8261180d565b9150611e498361180d565b925082611e5957611e58611e04565b5b828204905092915050565b7f536f7272792c20796f75206e65656420746f2068617665206f7665722035252060008201527f746f2063726561746520612070726f706f73616c000000000000000000000000602082015250565b6000611ec060348361190f565b9150611ecb82611e64565b604082019050919050565b60006020820190508181036000830152611eef81611eb3565b9050919050565b6000611f018261180d565b9150611f0c8361180d565b9250828201905080821115611f2457611f23611d93565b5b92915050565b7f4e487b7100000000000000000000000000000000000000000000000000000000600052602260045260246000fd5b60006002820490506001821680611f7157607f821691505b602082108103611f8457611f83611f2a565b5b50919050565b60008190508160005260206000209050919050565b60006020601f8301049050919050565b600082821b905092915050565b600060088302611fec7fffffffffffffffffffffffffffffffffffffffffffffffffffffffffffffffff82611faf565b611ff68683611faf565b95508019841693508086168417925050509392505050565b600061202961202461201f8461180d565b611d19565b61180d565b9050919050565b6000819050919050565b6120438361200e565b61205761204f82612030565b848454611fbc565b825550505050565b600090565b61206c61205f565b61207781848461203a565b505050565b5b8181101561209b57612090600082612064565b60018101905061207d565b5050565b601f8211156120e0576120b181611f8a565b6120ba84611f9f565b810160208510156120c9578190505b6120dd6120d585611f9f565b83018261207c565b50505b505050565b600082821c905092915050565b6000612103600019846008026120e5565b1980831691505092915050565b600061211c83836120f2565b9150826002028217905092915050565b61213582611904565b67ffffffffffffffff81111561214e5761214d6116e2565b5b6121588254611f59565b61216382828561209f565b600060209050601f8311600181146121965760008415612184578287015190505b61218e8582612110565b8655506121f6565b601f1984166121a486611f8a565b60005b828110156121cc578489015182556001820191506020850194506020810190506121a7565b868310156121e957848901516121e5601f8916826120f2565b8355505b6001600288020188555050505b505050505050565b60006060820190506122136000830186611983565b8181036020830152612225818561194a565b90506122346040830184611983565b949350505050565b60006122478261180d565b91507fffffffffffffffffffffffffffffffffffffffffffffffffffffffffffffffff820361227957612278611d93565b5b600182019050919050565b7f50726f706f73616c20616c726561647920636c6f7365642e0000000000000000600082015250565b60006122ba60188361190f565b91506122c582612284565b602082019050919050565b600060208201905081810360008301526122e9816122ad565b9050919050565b7f566f74696e6720706572696f64207374696c6c20676f696e67206f6e00000000600082015250565b6000612326601c8361190f565b9150612331826122f0565b602082019050919050565b6000602082019050818103600083015261235581612319565b9050919050565b7f4e6f20766f74696e6720706f7765722e00000000000000000000000000000000600082015250565b600061239260108361190f565b915061239d8261235c565b602082019050919050565b600060208201905081810360008301526123c181612385565b9050919050565b7f50726f706f73616c20696e6163746976652e0000000000000000000000000000600082015250565b60006123fe60128361190f565b9150612409826123c8565b602082019050919050565b6000602082019050818103600083015261242d816123f1565b9050919050565b7f566f74696e6720706572696f64206861732066696e69736865642e0000000000600082015250565b600061246a601b8361190f565b915061247582612434565b602082019050919050565b600060208201905081810360008301526124998161245d565b9050919050565b7f4e487b7100000000000000000000000000000000000000000000000000000000600052603260045260246000fd5b7f596f7520616c726561647920766f746564206f6e20746869732070726f706f7360008201527f616c2e0000000000000000000000000000000000000000000000000000000000602082015250565b600061252b60238361190f565b9150612536826124cf565b604082019050919050565b6000602082019050818103600083015261255a8161251e565b9050919050565b61256a81611c37565b82525050565b60006020820190506125856000830184612561565b92915050565b60008151905061259a81611817565b92915050565b6000602082840312156125b6576125b56116bd565b5b60006125c48482850161258b565b91505092915050565b7f5265776172647320616c726561647920636c61696d65642e0000000000000000600082015250565b600061260360188361190f565b915061260e826125cd565b602082019050919050565b60006020820190508181036000830152612632816125f6565b9050919050565b600060408201905061264e6000830185612561565b61265b6020830184611983565b9392505050565b60006080820190506126776000830187611983565b6126846020830186612561565b6126916040830185611983565b61269e606083018461199e565b95945050505050565b7f4865792069747320616e2061637469766520766f74696e6720706572696f642c60008201527f20796f752063616e6e6f7420766f7465206e6f772e0000000000000000000000602082015250565b600061270360358361190f565b915061270e826126a7565b604082019050919050565b60006020820190508181036000830152612732816126f6565b9050919050565b7f63616e6e6f74207570646174652073686172657320647572696e67206f6e676f60008201527f696e6720766f746f6e6720706572696f64000000000000000000000000000000602082015250565b600061279560318361190f565b91506127a082612739565b604082019050919050565b600060208201905081810360008301526127c481612788565b905091905056fea2646970667358221220f1fb806d18adc08e829ed706c1e7afc86894ece6c6cb6f264c428c2f2a64a06964736f6c634300081a0033",
  "linkReferences": {},
  "deployedLinkReferences": {}
}