{
  "_format": "hh-sol-artifact-1",
  "contractName": "VotingContract",
  "sourceName": "contracts/smartContract.sol",
  "abi": [
    {
      "inputs": [
        {
          "internalType": "address[]",
          "name": "initialAdmins",
          "type": "address[]"
        },
        {
          "internalType": "address",
          "name": "_tokenAddress",
          "type": "address"
        }
      ],
      "stateMutability": "nonpayable",
      "type": "constructor"
    },
    {
      "anonymous": false,
      "inputs": [
        {
          "indexed": false,
          "internalType": "uint256",
          "name": "proposalId",
          "type": "uint256"
        },
        {
          "indexed": false,
          "internalType": "string",
          "name": "title",
          "type": "string"
        },
        {
          "indexed": false,
          "internalType": "string",
          "name": "description",
          "type": "string"
        },
        {
          "indexed": false,
          "internalType": "uint256",
          "name": "durationInMinutes",
          "type": "uint256"
        },
        {
          "indexed": false,
          "internalType": "uint8",
          "name": "quorumType",
          "type": "uint8"
        },
        {
          "indexed": false,
          "internalType": "uint256",
          "name": "endTime",
          "type": "uint256"
        },
        {
          "indexed": false,
          "internalType": "address",
          "name": "proposer",
          "type": "address"
        }
      ],
      "name": "ProposalCreated",
      "type": "event"
    },
    {
      "anonymous": false,
      "inputs": [
        {
          "indexed": true,
          "internalType": "uint256",
          "name": "proposalId",
          "type": "uint256"
        }
      ],
      "name": "ProposalDeleted",
      "type": "event"
    },
    {
      "anonymous": false,
      "inputs": [
        {
          "indexed": false,
          "internalType": "address",
          "name": "voter",
          "type": "address"
        },
        {
          "indexed": false,
          "internalType": "uint256",
          "name": "rewardAmount",
          "type": "uint256"
        }
      ],
      "name": "RewardIssued",
      "type": "event"
    },
    {
      "anonymous": false,
      "inputs": [
        {
          "indexed": false,
          "internalType": "address",
          "name": "voter",
          "type": "address"
        },
        {
          "indexed": false,
          "internalType": "uint256",
          "name": "newShares",
          "type": "uint256"
        }
      ],
      "name": "SharesUpdated",
      "type": "event"
    },
    {
      "anonymous": false,
      "inputs": [
        {
          "indexed": false,
          "internalType": "uint256",
          "name": "proposalId",
          "type": "uint256"
        },
        {
          "indexed": false,
          "internalType": "address",
          "name": "voter",
          "type": "address"
        },
        {
          "indexed": false,
          "internalType": "uint256",
          "name": "weight",
          "type": "uint256"
        },
        {
          "indexed": false,
          "internalType": "bool",
          "name": "voteFor",
          "type": "bool"
        }
      ],
      "name": "VoteCast",
      "type": "event"
    },
    {
      "inputs": [
        {
          "internalType": "address",
          "name": "newAdmin",
          "type": "address"
        }
      ],
      "name": "addAdmin",
      "outputs": [],
      "stateMutability": "nonpayable",
      "type": "function"
    },
    {
      "inputs": [
        {
          "internalType": "address",
          "name": "",
          "type": "address"
        }
      ],
      "name": "admins",
      "outputs": [
        {
          "internalType": "bool",
          "name": "",
          "type": "bool"
        }
      ],
      "stateMutability": "view",
      "type": "function"
    },
    {
      "inputs": [
        {
          "internalType": "uint256",
          "name": "proposalId",
          "type": "uint256"
        }
      ],
      "name": "calculateQuorum",
      "outputs": [
        {
          "internalType": "uint256",
          "name": "",
          "type": "uint256"
        }
      ],
      "stateMutability": "view",
      "type": "function"
    },
    {
      "inputs": [
        {
          "internalType": "address",
          "name": "voter",
          "type": "address"
        }
      ],
      "name": "calculateVotingWeight",
      "outputs": [
        {
          "internalType": "uint256",
          "name": "",
          "type": "uint256"
        }
      ],
      "stateMutability": "view",
      "type": "function"
    },
    {
      "inputs": [
        {
          "internalType": "uint256",
          "name": "proposalId",
          "type": "uint256"
        },
        {
          "internalType": "bool",
          "name": "voteFor",
          "type": "bool"
        }
      ],
      "name": "castVote",
      "outputs": [],
      "stateMutability": "nonpayable",
      "type": "function"
    },
    {
      "inputs": [
        {
          "internalType": "string",
          "name": "title",
          "type": "string"
        },
        {
          "internalType": "string",
          "name": "description",
          "type": "string"
        },
        {
          "internalType": "uint256",
          "name": "durationInMinutes",
          "type": "uint256"
        },
        {
          "internalType": "uint8",
          "name": "quorumType",
          "type": "uint8"
        }
      ],
      "name": "createProposal",
      "outputs": [],
      "stateMutability": "payable",
      "type": "function"
    },
    {
      "inputs": [
        {
          "internalType": "uint256",
          "name": "proposalId",
          "type": "uint256"
        }
      ],
      "name": "deleteProposal",
      "outputs": [],
      "stateMutability": "nonpayable",
      "type": "function"
    },
    {
      "inputs": [
        {
          "internalType": "uint256",
          "name": "proposalId",
          "type": "uint256"
        }
      ],
      "name": "finalizeProposal",
      "outputs": [],
      "stateMutability": "nonpayable",
      "type": "function"
    },
    {
      "inputs": [
        {
          "internalType": "uint256",
          "name": "proposalId",
          "type": "uint256"
        }
      ],
      "name": "getProposalOutcome",
      "outputs": [
        {
          "components": [
            {
              "internalType": "bool",
              "name": "passed",
              "type": "bool"
            },
            {
              "internalType": "uint256",
              "name": "votesFor",
              "type": "uint256"
            },
            {
              "internalType": "uint256",
              "name": "votesAgainst",
              "type": "uint256"
            }
          ],
          "internalType": "struct VotingContract.ProposalOutcome",
          "name": "",
          "type": "tuple"
        }
      ],
      "stateMutability": "view",
      "type": "function"
    },
    {
      "inputs": [],
      "name": "getProposals",
      "outputs": [
        {
          "components": [
            {
              "internalType": "string",
              "name": "title",
              "type": "string"
            },
            {
              "internalType": "string",
              "name": "description",
              "type": "string"
            },
            {
              "internalType": "uint256",
              "name": "durationInMinutes",
              "type": "uint256"
            },
            {
              "internalType": "uint8",
              "name": "quorumType",
              "type": "uint8"
            },
            {
              "internalType": "uint256",
              "name": "endTime",
              "type": "uint256"
            },
            {
              "internalType": "address",
              "name": "proposer",
              "type": "address"
            },
            {
              "internalType": "bool",
              "name": "active",
              "type": "bool"
            },
            {
              "internalType": "uint256",
              "name": "votesFor",
              "type": "uint256"
            },
            {
              "internalType": "uint256",
              "name": "votesAgainst",
              "type": "uint256"
            }
          ],
          "internalType": "struct VotingContract.Proposal[]",
          "name": "",
          "type": "tuple[]"
        }
      ],
      "stateMutability": "view",
      "type": "function"
    },
    {
      "inputs": [],
      "name": "getProposalsCount",
      "outputs": [
        {
          "internalType": "uint256",
          "name": "",
          "type": "uint256"
        }
      ],
      "stateMutability": "view",
      "type": "function"
    },
    {
      "inputs": [
        {
          "internalType": "address",
          "name": "account",
          "type": "address"
        }
      ],
      "name": "getTokens",
      "outputs": [
        {
          "internalType": "uint256",
          "name": "",
          "type": "uint256"
        }
      ],
      "stateMutability": "view",
      "type": "function"
    },
    {
      "inputs": [],
      "name": "governanceToken",
      "outputs": [
        {
          "internalType": "contract GovernanceToken",
          "name": "",
          "type": "address"
        }
      ],
      "stateMutability": "view",
      "type": "function"
    },
    {
      "inputs": [
        {
          "internalType": "address",
          "name": "user",
          "type": "address"
        }
      ],
      "name": "isAdmin",
      "outputs": [
        {
          "internalType": "bool",
          "name": "",
          "type": "bool"
        }
      ],
      "stateMutability": "view",
      "type": "function"
    },
    {
      "inputs": [],
      "name": "isVotingPeriodActive",
      "outputs": [
        {
          "internalType": "bool",
          "name": "",
          "type": "bool"
        }
      ],
      "stateMutability": "view",
      "type": "function"
    },
    {
      "inputs": [],
      "name": "proposalCount",
      "outputs": [
        {
          "internalType": "uint256",
          "name": "",
          "type": "uint256"
        }
      ],
      "stateMutability": "view",
      "type": "function"
    },
    {
      "inputs": [
        {
          "internalType": "uint256",
          "name": "",
          "type": "uint256"
        }
      ],
      "name": "proposalOutcomes",
      "outputs": [
        {
          "internalType": "bool",
          "name": "passed",
          "type": "bool"
        },
        {
          "internalType": "uint256",
          "name": "votesFor",
          "type": "uint256"
        },
        {
          "internalType": "uint256",
          "name": "votesAgainst",
          "type": "uint256"
        }
      ],
      "stateMutability": "view",
      "type": "function"
    },
    {
      "inputs": [
        {
          "internalType": "uint256",
          "name": "",
          "type": "uint256"
        }
      ],
      "name": "proposals",
      "outputs": [
        {
          "internalType": "string",
          "name": "title",
          "type": "string"
        },
        {
          "internalType": "string",
          "name": "description",
          "type": "string"
        },
        {
          "internalType": "uint256",
          "name": "durationInMinutes",
          "type": "uint256"
        },
        {
          "internalType": "uint8",
          "name": "quorumType",
          "type": "uint8"
        },
        {
          "internalType": "uint256",
          "name": "endTime",
          "type": "uint256"
        },
        {
          "internalType": "address",
          "name": "proposer",
          "type": "address"
        },
        {
          "internalType": "bool",
          "name": "active",
          "type": "bool"
        },
        {
          "internalType": "uint256",
          "name": "votesFor",
          "type": "uint256"
        },
        {
          "internalType": "uint256",
          "name": "votesAgainst",
          "type": "uint256"
        }
      ],
      "stateMutability": "view",
      "type": "function"
    },
    {
      "inputs": [
        {
          "internalType": "address",
          "name": "account",
          "type": "address"
        },
        {
          "internalType": "uint256",
          "name": "_shares",
          "type": "uint256"
        }
      ],
      "name": "registerShareholder",
      "outputs": [],
      "stateMutability": "nonpayable",
      "type": "function"
    },
    {
      "inputs": [
        {
          "internalType": "address",
          "name": "admin",
          "type": "address"
        }
      ],
      "name": "removeAdmin",
      "outputs": [],
      "stateMutability": "nonpayable",
      "type": "function"
    },
    {
      "inputs": [
        {
          "internalType": "address",
          "name": "",
          "type": "address"
        }
      ],
      "name": "shares",
      "outputs": [
        {
          "internalType": "uint256",
          "name": "",
          "type": "uint256"
        }
      ],
      "stateMutability": "view",
      "type": "function"
    },
    {
      "inputs": [
        {
          "internalType": "address",
          "name": "",
          "type": "address"
        }
      ],
      "name": "tokens",
      "outputs": [
        {
          "internalType": "uint256",
          "name": "",
          "type": "uint256"
        }
      ],
      "stateMutability": "view",
      "type": "function"
    },
    {
      "inputs": [],
      "name": "totalShares",
      "outputs": [
        {
          "internalType": "uint256",
          "name": "",
          "type": "uint256"
        }
      ],
      "stateMutability": "view",
      "type": "function"
    },
    {
      "inputs": [
        {
          "internalType": "address",
          "name": "voter",
          "type": "address"
        },
        {
          "internalType": "uint256",
          "name": "newShares",
          "type": "uint256"
        }
      ],
      "name": "updateShares",
      "outputs": [],
      "stateMutability": "nonpayable",
      "type": "function"
    },
    {
      "inputs": [
        {
          "internalType": "address",
          "name": "account",
          "type": "address"
        },
        {
          "internalType": "uint256",
          "name": "voteAmount",
          "type": "uint256"
        }
      ],
      "name": "vote",
      "outputs": [],
      "stateMutability": "nonpayable",
      "type": "function"
    },
    {
      "inputs": [
        {
          "internalType": "address",
          "name": "",
          "type": "address"
        }
      ],
      "name": "voted",
      "outputs": [
        {
          "internalType": "bool",
          "name": "",
          "type": "bool"
        }
      ],
      "stateMutability": "view",
      "type": "function"
    },
    {
      "inputs": [],
      "name": "votingEndTime",
      "outputs": [
        {
          "internalType": "uint256",
          "name": "",
          "type": "uint256"
        }
      ],
      "stateMutability": "view",
      "type": "function"
    },
    {
      "inputs": [
        {
          "internalType": "address",
          "name": "",
          "type": "address"
        },
        {
          "internalType": "uint256",
          "name": "",
          "type": "uint256"
        }
      ],
      "name": "votingHistory",
      "outputs": [
        {
          "internalType": "uint256",
          "name": "proposalId",
          "type": "uint256"
        },
        {
          "internalType": "bool",
          "name": "votedFor",
          "type": "bool"
        },
        {
          "internalType": "uint256",
          "name": "voteWeight",
          "type": "uint256"
        }
      ],
      "stateMutability": "view",
      "type": "function"
    }
  ],
  "bytecode": "0x60806040523480156200001157600080fd5b506040516200384638038062003846833981810160405281019062000037919062000307565b80600b60006101000a81548173ffffffffffffffffffffffffffffffffffffffff021916908373ffffffffffffffffffffffffffffffffffffffff16021790555060005b82518110156200011057600160046000858481518110620000a157620000a06200036d565b5b602002602001015173ffffffffffffffffffffffffffffffffffffffff1673ffffffffffffffffffffffffffffffffffffffff16815260200190815260200160002060006101000a81548160ff02191690831515021790555080806200010790620003d5565b9150506200007b565b50505062000422565b6000604051905090565b600080fd5b600080fd5b600080fd5b6000601f19601f8301169050919050565b7f4e487b7100000000000000000000000000000000000000000000000000000000600052604160045260246000fd5b6200017d8262000132565b810181811067ffffffffffffffff821117156200019f576200019e62000143565b5b80604052505050565b6000620001b462000119565b9050620001c2828262000172565b919050565b600067ffffffffffffffff821115620001e557620001e462000143565b5b602082029050602081019050919050565b600080fd5b600073ffffffffffffffffffffffffffffffffffffffff82169050919050565b60006200022882620001fb565b9050919050565b6200023a816200021b565b81146200024657600080fd5b50565b6000815190506200025a816200022f565b92915050565b6000620002776200027184620001c7565b620001a8565b905080838252602082019050602084028301858111156200029d576200029c620001f6565b5b835b81811015620002ca5780620002b5888262000249565b8452602084019350506020810190506200029f565b5050509392505050565b600082601f830112620002ec57620002eb6200012d565b5b8151620002fe84826020860162000260565b91505092915050565b6000806040838503121562000321576200032062000123565b5b600083015167ffffffffffffffff81111562000342576200034162000128565b5b6200035085828601620002d4565b9250506020620003638582860162000249565b9150509250929050565b7f4e487b7100000000000000000000000000000000000000000000000000000000600052603260045260246000fd5b7f4e487b7100000000000000000000000000000000000000000000000000000000600052601160045260246000fd5b6000819050919050565b6000620003e282620003cb565b91507fffffffffffffffffffffffffffffffffffffffffffffffffffffffffffffffff82036200041757620004166200039c565b5b600182019050919050565b61341480620004326000396000f3fe6080604052600436106101b75760003560e01c806370f6e05d116100ec578063afafa0cf1161008a578063da35c66411610064578063da35c66414610679578063e4860339146106a4578063e5d0821f146106e1578063f96dae0a1461070a576101b7565b8063afafa0cf146105d4578063ce7c2ac2146105fd578063d09c34f21461063a576101b7565b806398e527d3116100c657806398e527d3146105025780639fcc5ce41461052d578063a9c0310d14610558578063aec2ccae14610597576101b7565b806370f6e05d146104805780637ad6e5aa1461049c5780638259d553146104d9576101b7565b8063429b62e5116101595780635f74bbde116101335780635f74bbde146103c657806362564c48146103ef5780636fdb6f7c1461041a5780637048027514610457576101b7565b8063429b62e514610323578063450efe21146103605780635652077c1461039d576101b7565b80631ea736e0116101955780631ea736e01461025357806324d7806c1461027e578063317571b2146102bb5780633a98ef39146102f8576101b7565b8063013cf08b146101bc57806315373e3d146102015780631785f53c1461022a575b600080fd5b3480156101c857600080fd5b506101e360048036038101906101de9190611f5d565b610735565b6040516101f8999897969594939291906120a1565b60405180910390f35b34801561020d57600080fd5b5061022860048036038101906102239190612168565b6108dd565b005b34801561023657600080fd5b50610251600480360381019061024c91906121d4565b610cf6565b005b34801561025f57600080fd5b50610268610ddd565b6040516102759190612201565b60405180910390f35b34801561028a57600080fd5b506102a560048036038101906102a091906121d4565b610de3565b6040516102b2919061221c565b60405180910390f35b3480156102c757600080fd5b506102e260048036038101906102dd91906121d4565b610e39565b6040516102ef9190612201565b60405180910390f35b34801561030457600080fd5b5061030d610ede565b60405161031a9190612201565b60405180910390f35b34801561032f57600080fd5b5061034a600480360381019061034591906121d4565b610ee4565b604051610357919061221c565b60405180910390f35b34801561036c57600080fd5b50610387600480360381019061038291906121d4565b610f04565b6040516103949190612201565b60405180910390f35b3480156103a957600080fd5b506103c460048036038101906103bf9190611f5d565b610f4d565b005b3480156103d257600080fd5b506103ed60048036038101906103e89190612237565b611146565b005b3480156103fb57600080fd5b50610404611374565b604051610411919061248b565b60405180910390f35b34801561042657600080fd5b50610441600480360381019061043c9190611f5d565b6115ae565b60405161044e91906124ef565b60405180910390f35b34801561046357600080fd5b5061047e600480360381019061047991906121d4565b61160a565b005b61049a6004803603810190610495919061266b565b6116f1565b005b3480156104a857600080fd5b506104c360048036038101906104be9190611f5d565b611938565b6040516104d09190612201565b60405180910390f35b3480156104e557600080fd5b5061050060048036038101906104fb9190611f5d565b611aca565b005b34801561050e57600080fd5b50610517611c0b565b6040516105249190612201565b60405180910390f35b34801561053957600080fd5b50610542611c15565b60405161054f919061221c565b60405180910390f35b34801561056457600080fd5b5061057f600480360381019061057a9190611f5d565b611c28565b60405161058e9392919061270a565b60405180910390f35b3480156105a357600080fd5b506105be60048036038101906105b991906121d4565b611c5f565b6040516105cb919061221c565b60405180910390f35b3480156105e057600080fd5b506105fb60048036038101906105f69190612237565b611c7f565b005b34801561060957600080fd5b50610624600480360381019061061f91906121d4565b611d5a565b6040516106319190612201565b60405180910390f35b34801561064657600080fd5b50610661600480360381019061065c9190612237565b611d72565b60405161067093929190612741565b60405180910390f35b34801561068557600080fd5b5061068e611dc6565b60405161069b9190612201565b60405180910390f35b3480156106b057600080fd5b506106cb60048036038101906106c691906121d4565b611dcc565b6040516106d89190612201565b60405180910390f35b3480156106ed57600080fd5b5061070860048036038101906107039190612237565b611de4565b005b34801561071657600080fd5b5061071f611eb4565b60405161072c91906127d7565b60405180910390f35b6007818154811061074557600080fd5b906000526020600020906008020160009150905080600001805461076890612821565b80601f016020809104026020016040519081016040528092919081815260200182805461079490612821565b80156107e15780601f106107b6576101008083540402835291602001916107e1565b820191906000526020600020905b8154815290600101906020018083116107c457829003601f168201915b5050505050908060010180546107f690612821565b80601f016020809104026020016040519081016040528092919081815260200182805461082290612821565b801561086f5780601f106108445761010080835404028352916020019161086f565b820191906000526020600020905b81548152906001019060200180831161085257829003601f168201915b5050505050908060020154908060030160009054906101000a900460ff16908060040154908060050160009054906101000a900473ffffffffffffffffffffffffffffffffffffffff16908060050160149054906101000a900460ff16908060060154908060070154905089565b600660003373ffffffffffffffffffffffffffffffffffffffff1673ffffffffffffffffffffffffffffffffffffffff16815260200190815260200160002060009054906101000a900460ff161561096a576040517f08c379a00000000000000000000000000000000000000000000000000000000081526004016109619061289e565b60405180910390fd5b6007828154811061097e5761097d6128be565b5b906000526020600020906008020160050160149054906101000a900460ff166109dc576040517f08c379a00000000000000000000000000000000000000000000000000000000081526004016109d390612939565b60405180910390fd5b60006109e733610e39565b905060008111610a2c576040517f08c379a0000000000000000000000000000000000000000000000000000000008152600401610a23906129a5565b60405180910390fd5b8115610a73578060078481548110610a4757610a466128be565b5b90600052602060002090600802016006016000828254610a6791906129f4565b92505081905550610ab0565b8060078481548110610a8857610a876128be565b5b90600052602060002090600802016007016000828254610aa891906129f4565b925050819055505b600260003373ffffffffffffffffffffffffffffffffffffffff1673ffffffffffffffffffffffffffffffffffffffff168152602001908152602001600020604051806060016040528085815260200184151581526020018381525090806001815401808255809150506001900390600052602060002090600302016000909190919091506000820151816000015560208201518160010160006101000a81548160ff0219169083151502179055506040820151816002015550506001600660003373ffffffffffffffffffffffffffffffffffffffff1673ffffffffffffffffffffffffffffffffffffffff16815260200190815260200160002060006101000a81548160ff0219169083151502179055506001600960006101000a81548160ff0219169083151502179055506000610be982611eda565b9050600b60009054906101000a900473ffffffffffffffffffffffffffffffffffffffff1673ffffffffffffffffffffffffffffffffffffffff166340c10f1933836040518363ffffffff1660e01b8152600401610c48929190612a28565b600060405180830381600087803b158015610c6257600080fd5b505af1158015610c76573d6000803e3d6000fd5b505050507fb898e75d5aac8de2f407e4a683c8d909e832d1e371e3bff0fa3ed934e88d956284338486604051610caf9493929190612a51565b60405180910390a17ff9b6ec770c96c3a6f9225bf3a8463a8ad03e884448af07b4ecd4d19d628946ee3382604051610ce8929190612a28565b60405180910390a150505050565b600460003373ffffffffffffffffffffffffffffffffffffffff1673ffffffffffffffffffffffffffffffffffffffff16815260200190815260200160002060009054906101000a900460ff16610d82576040517f08c379a0000000000000000000000000000000000000000000000000000000008152600401610d7990612b08565b60405180910390fd5b6000600460008373ffffffffffffffffffffffffffffffffffffffff1673ffffffffffffffffffffffffffffffffffffffff16815260200190815260200160002060006101000a81548160ff02191690831515021790555050565b600a5481565b6000600460008373ffffffffffffffffffffffffffffffffffffffff1673ffffffffffffffffffffffffffffffffffffffff16815260200190815260200160002060009054906101000a900460ff169050919050565b60008060055411610e7f576040517f08c379a0000000000000000000000000000000000000000000000000000000008152600401610e7690612b9a565b60405180910390fd5b60055460646000808573ffffffffffffffffffffffffffffffffffffffff1673ffffffffffffffffffffffffffffffffffffffff16815260200190815260200160002054610ecd9190612bba565b610ed79190612c2b565b9050919050565b60055481565b60046020528060005260406000206000915054906101000a900460ff1681565b6000600160008373ffffffffffffffffffffffffffffffffffffffff1673ffffffffffffffffffffffffffffffffffffffff168152602001908152602001600020549050919050565b600060078281548110610f6357610f626128be565b5b906000526020600020906008020190508060040154421015610fba576040517f08c379a0000000000000000000000000000000000000000000000000000000008152600401610fb190612ca8565b60405180910390fd5b8060050160149054906101000a900460ff1661100b576040517f08c379a000000000000000000000000000000000000000000000000000000000815260040161100290612939565b60405180910390fd5b600061101683611938565b9050808260060154106110985760405180606001604052806001151581526020018360060154815260200183600701548152506003600085815260200190815260200160002060008201518160000160006101000a81548160ff0219169083151502179055506020820151816001015560408201518160020155905050611109565b60405180606001604052806000151581526020018360060154815260200183600701548152506003600085815260200190815260200160002060008201518160000160006101000a81548160ff02191690831515021790555060208201518160010155604082015181600201559050505b60008260050160146101000a81548160ff0219169083151502179055506000600960006101000a81548160ff021916908315150217905550505050565b80600160008473ffffffffffffffffffffffffffffffffffffffff1673ffffffffffffffffffffffffffffffffffffffff1681526020019081526020016000205410156111c8576040517f08c379a00000000000000000000000000000000000000000000000000000000081526004016111bf90612d14565b60405180910390fd5b80600160008473ffffffffffffffffffffffffffffffffffffffff1673ffffffffffffffffffffffffffffffffffffffff16815260200190815260200160002060008282546112179190612d34565b9250508190555080600560008282546112309190612d34565b9250508190555080600760008154811061124d5761124c6128be565b5b9060005260206000209060080201600601600082825461126d91906129f4565b92505081905550600260008373ffffffffffffffffffffffffffffffffffffffff1673ffffffffffffffffffffffffffffffffffffffff1681526020019081526020016000206040518060600160405280600081526020016001151581526020018381525090806001815401808255809150506001900390600052602060002090600302016000909190919091506000820151816000015560208201518160010160006101000a81548160ff0219169083151502179055506040820151816002015550507fb898e75d5aac8de2f407e4a683c8d909e832d1e371e3bff0fa3ed934e88d95626000838360016040516113689493929190612da3565b60405180910390a15050565b60606007805480602002602001604051908101604052809291908181526020016000905b828210156115a55783829060005260206000209060080201604051806101200160405290816000820180546113cc90612821565b80601f01602080910402602001604051908101604052809291908181526020018280546113f890612821565b80156114455780601f1061141a57610100808354040283529160200191611445565b820191906000526020600020905b81548152906001019060200180831161142857829003601f168201915b5050505050815260200160018201805461145e90612821565b80601f016020809104026020016040519081016040528092919081815260200182805461148a90612821565b80156114d75780601f106114ac576101008083540402835291602001916114d7565b820191906000526020600020905b8154815290600101906020018083116114ba57829003601f168201915b50505050508152602001600282015481526020016003820160009054906101000a900460ff1660ff1660ff168152602001600482015481526020016005820160009054906101000a900473ffffffffffffffffffffffffffffffffffffffff1673ffffffffffffffffffffffffffffffffffffffff1673ffffffffffffffffffffffffffffffffffffffff1681526020016005820160149054906101000a900460ff161515151581526020016006820154815260200160078201548152505081526020019060010190611398565b50505050905090565b6115b6611ef0565b600360008381526020019081526020016000206040518060600160405290816000820160009054906101000a900460ff16151515158152602001600182015481526020016002820154815250509050919050565b600460003373ffffffffffffffffffffffffffffffffffffffff1673ffffffffffffffffffffffffffffffffffffffff16815260200190815260200160002060009054906101000a900460ff16611696576040517f08c379a000000000000000000000000000000000000000000000000000000000815260040161168d90612b08565b60405180910390fd5b6001600460008373ffffffffffffffffffffffffffffffffffffffff1673ffffffffffffffffffffffffffffffffffffffff16815260200190815260200160002060006101000a81548160ff02191690831515021790555050565b670de0b6b3a7640000341461173b576040517f08c379a000000000000000000000000000000000000000000000000000000000815260040161173290612e5a565b60405180910390fd5b6000603c8361174a9190612bba565b4261175591906129f4565b905060076040518061012001604052808781526020018681526020018581526020018460ff1681526020018381526020013373ffffffffffffffffffffffffffffffffffffffff168152602001600115158152602001600081526020016000815250908060018154018082558091505060019003906000526020600020906008020160009091909190915060008201518160000190816117f5919061301c565b50602082015181600101908161180b919061301c565b506040820151816002015560608201518160030160006101000a81548160ff021916908360ff1602179055506080820151816004015560a08201518160050160006101000a81548173ffffffffffffffffffffffffffffffffffffffff021916908373ffffffffffffffffffffffffffffffffffffffff16021790555060c08201518160050160146101000a81548160ff02191690831515021790555060e0820151816006015561010082015181600701555050600060016007805490506118d39190612d34565b9050600860008154809291906118e8906130ee565b91905055507f3d7708da99615a873ed0ef5e0b10f8b1bd8e76e197387471a6a8ca12c29da913818787878787336040516119289796959493929190613136565b60405180910390a1505050505050565b6000806007838154811061194f5761194e6128be565b5b9060005260206000209060080201905060006003811115611973576119726131b3565b5b60ff168160030160009054906101000a900460ff1660ff16036119a757600260055461199f9190612c2b565b915050611ac5565b600160038111156119bb576119ba6131b3565b5b60ff168160030160009054906101000a900460ff1660ff16036119fb57600360026005546119e99190612bba565b6119f39190612c2b565b915050611ac5565b60026003811115611a0f57611a0e6131b3565b5b60ff168160030160009054906101000a900460ff1660ff1603611a4f5760046003600554611a3d9190612bba565b611a479190612c2b565b915050611ac5565b600380811115611a6257611a616131b3565b5b60ff168160030160009054906101000a900460ff1660ff1603611a8a57600554915050611ac5565b6040517f08c379a0000000000000000000000000000000000000000000000000000000008152600401611abc9061322e565b60405180910390fd5b919050565b600460003373ffffffffffffffffffffffffffffffffffffffff1673ffffffffffffffffffffffffffffffffffffffff16815260200190815260200160002060009054906101000a900460ff16611b56576040517f08c379a0000000000000000000000000000000000000000000000000000000008152600401611b4d90612b08565b60405180910390fd5b6007805490508110611b9d576040517f08c379a0000000000000000000000000000000000000000000000000000000008152600401611b949061329a565b60405180910390fd5b600060078281548110611bb357611bb26128be565b5b906000526020600020906008020160050160146101000a81548160ff021916908315150217905550807f61c0d93dc2b610877e420b107c8d12e9185e46e04a505da758cc7f7329ae545f60405160405180910390a250565b6000600854905090565b600960009054906101000a900460ff1681565b60036020528060005260406000206000915090508060000160009054906101000a900460ff16908060010154908060020154905083565b60066020528060005260406000206000915054906101000a900460ff1681565b600960009054906101000a900460ff1615611ccf576040517f08c379a0000000000000000000000000000000000000000000000000000000008152600401611cc69061332c565b60405180910390fd5b806000808473ffffffffffffffffffffffffffffffffffffffff1673ffffffffffffffffffffffffffffffffffffffff1681526020019081526020016000208190555080600160008473ffffffffffffffffffffffffffffffffffffffff1673ffffffffffffffffffffffffffffffffffffffff168152602001908152602001600020819055505050565b60006020528060005260406000206000915090505481565b60026020528160005260406000208181548110611d8e57600080fd5b9060005260206000209060030201600091509150508060000154908060010160009054906101000a900460ff16908060020154905083565b60085481565b60016020528060005260406000206000915090505481565b600960009054906101000a900460ff1615611e34576040517f08c379a0000000000000000000000000000000000000000000000000000000008152600401611e2b906133be565b60405180910390fd5b806000808473ffffffffffffffffffffffffffffffffffffffff1673ffffffffffffffffffffffffffffffffffffffff168152602001908152602001600020819055507fe6382c9ed5c0c33bb05042f73cf6cbe9cb25639f9a711e094ee563bc9cb80e2c8282604051611ea8929190612a28565b60405180910390a15050565b600b60009054906101000a900473ffffffffffffffffffffffffffffffffffffffff1681565b6000606482611ee99190612c2b565b9050919050565b604051806060016040528060001515815260200160008152602001600081525090565b6000604051905090565b600080fd5b600080fd5b6000819050919050565b611f3a81611f27565b8114611f4557600080fd5b50565b600081359050611f5781611f31565b92915050565b600060208284031215611f7357611f72611f1d565b5b6000611f8184828501611f48565b91505092915050565b600081519050919050565b600082825260208201905092915050565b60005b83811015611fc4578082015181840152602081019050611fa9565b60008484015250505050565b6000601f19601f8301169050919050565b6000611fec82611f8a565b611ff68185611f95565b9350612006818560208601611fa6565b61200f81611fd0565b840191505092915050565b61202381611f27565b82525050565b600060ff82169050919050565b61203f81612029565b82525050565b600073ffffffffffffffffffffffffffffffffffffffff82169050919050565b600061207082612045565b9050919050565b61208081612065565b82525050565b60008115159050919050565b61209b81612086565b82525050565b60006101208201905081810360008301526120bc818c611fe1565b905081810360208301526120d0818b611fe1565b90506120df604083018a61201a565b6120ec6060830189612036565b6120f9608083018861201a565b61210660a0830187612077565b61211360c0830186612092565b61212060e083018561201a565b61212e61010083018461201a565b9a9950505050505050505050565b61214581612086565b811461215057600080fd5b50565b6000813590506121628161213c565b92915050565b6000806040838503121561217f5761217e611f1d565b5b600061218d85828601611f48565b925050602061219e85828601612153565b9150509250929050565b6121b181612065565b81146121bc57600080fd5b50565b6000813590506121ce816121a8565b92915050565b6000602082840312156121ea576121e9611f1d565b5b60006121f8848285016121bf565b91505092915050565b6000602082019050612216600083018461201a565b92915050565b60006020820190506122316000830184612092565b92915050565b6000806040838503121561224e5761224d611f1d565b5b600061225c858286016121bf565b925050602061226d85828601611f48565b9150509250929050565b600081519050919050565b600082825260208201905092915050565b6000819050602082019050919050565b600082825260208201905092915050565b60006122bf82611f8a565b6122c981856122a3565b93506122d9818560208601611fa6565b6122e281611fd0565b840191505092915050565b6122f681611f27565b82525050565b61230581612029565b82525050565b61231481612065565b82525050565b61232381612086565b82525050565b600061012083016000830151848203600086015261234782826122b4565b9150506020830151848203602086015261236182826122b4565b915050604083015161237660408601826122ed565b50606083015161238960608601826122fc565b50608083015161239c60808601826122ed565b5060a08301516123af60a086018261230b565b5060c08301516123c260c086018261231a565b5060e08301516123d560e08601826122ed565b506101008301516123ea6101008601826122ed565b508091505092915050565b60006124018383612329565b905092915050565b6000602082019050919050565b600061242182612277565b61242b8185612282565b93508360208202850161243d85612293565b8060005b85811015612479578484038952815161245a85826123f5565b945061246583612409565b925060208a01995050600181019050612441565b50829750879550505050505092915050565b600060208201905081810360008301526124a58184612416565b905092915050565b6060820160008201516124c3600085018261231a565b5060208201516124d660208501826122ed565b5060408201516124e960408501826122ed565b50505050565b600060608201905061250460008301846124ad565b92915050565b600080fd5b600080fd5b7f4e487b7100000000000000000000000000000000000000000000000000000000600052604160045260246000fd5b61254c82611fd0565b810181811067ffffffffffffffff8211171561256b5761256a612514565b5b80604052505050565b600061257e611f13565b905061258a8282612543565b919050565b600067ffffffffffffffff8211156125aa576125a9612514565b5b6125b382611fd0565b9050602081019050919050565b82818337600083830152505050565b60006125e26125dd8461258f565b612574565b9050828152602081018484840111156125fe576125fd61250f565b5b6126098482856125c0565b509392505050565b600082601f8301126126265761262561250a565b5b81356126368482602086016125cf565b91505092915050565b61264881612029565b811461265357600080fd5b50565b6000813590506126658161263f565b92915050565b6000806000806080858703121561268557612684611f1d565b5b600085013567ffffffffffffffff8111156126a3576126a2611f22565b5b6126af87828801612611565b945050602085013567ffffffffffffffff8111156126d0576126cf611f22565b5b6126dc87828801612611565b93505060406126ed87828801611f48565b92505060606126fe87828801612656565b91505092959194509250565b600060608201905061271f6000830186612092565b61272c602083018561201a565b612739604083018461201a565b949350505050565b6000606082019050612756600083018661201a565b6127636020830185612092565b612770604083018461201a565b949350505050565b6000819050919050565b600061279d61279861279384612045565b612778565b612045565b9050919050565b60006127af82612782565b9050919050565b60006127c1826127a4565b9050919050565b6127d1816127b6565b82525050565b60006020820190506127ec60008301846127c8565b92915050565b7f4e487b7100000000000000000000000000000000000000000000000000000000600052602260045260246000fd5b6000600282049050600182168061283957607f821691505b60208210810361284c5761284b6127f2565b5b50919050565b7f596f75206861766520616c726561647920766f74656400000000000000000000600082015250565b6000612888601683611f95565b915061289382612852565b602082019050919050565b600060208201905081810360008301526128b78161287b565b9050919050565b7f4e487b7100000000000000000000000000000000000000000000000000000000600052603260045260246000fd5b7f50726f706f73616c206973206e6f742061637469766500000000000000000000600082015250565b6000612923601683611f95565b915061292e826128ed565b602082019050919050565b6000602082019050818103600083015261295281612916565b9050919050565b7f596f75206d75737420686f6c642073686172657320746f20766f746500000000600082015250565b600061298f601c83611f95565b915061299a82612959565b602082019050919050565b600060208201905081810360008301526129be81612982565b9050919050565b7f4e487b7100000000000000000000000000000000000000000000000000000000600052601160045260246000fd5b60006129ff82611f27565b9150612a0a83611f27565b9250828201905080821115612a2257612a216129c5565b5b92915050565b6000604082019050612a3d6000830185612077565b612a4a602083018461201a565b9392505050565b6000608082019050612a66600083018761201a565b612a736020830186612077565b612a80604083018561201a565b612a8d6060830184612092565b95945050505050565b7f4f6e6c792061646d696e732063616e20706572666f726d20746869732061637460008201527f696f6e0000000000000000000000000000000000000000000000000000000000602082015250565b6000612af2602383611f95565b9150612afd82612a96565b604082019050919050565b60006020820190508181036000830152612b2181612ae5565b9050919050565b7f546f74616c20736861726573206d75737420626520677265617465722074686160008201527f6e207a65726f0000000000000000000000000000000000000000000000000000602082015250565b6000612b84602683611f95565b9150612b8f82612b28565b604082019050919050565b60006020820190508181036000830152612bb381612b77565b9050919050565b6000612bc582611f27565b9150612bd083611f27565b9250828202612bde81611f27565b91508282048414831517612bf557612bf46129c5565b5b5092915050565b7f4e487b7100000000000000000000000000000000000000000000000000000000600052601260045260246000fd5b6000612c3682611f27565b9150612c4183611f27565b925082612c5157612c50612bfc565b5b828204905092915050565b7f566f74696e6720706572696f6420686173206e6f7420656e6465640000000000600082015250565b6000612c92601b83611f95565b9150612c9d82612c5c565b602082019050919050565b60006020820190508181036000830152612cc181612c85565b9050919050565b7f4e6f7420656e6f75676820746f6b656e7320746f20766f746500000000000000600082015250565b6000612cfe601983611f95565b9150612d0982612cc8565b602082019050919050565b60006020820190508181036000830152612d2d81612cf1565b9050919050565b6000612d3f82611f27565b9150612d4a83611f27565b9250828203905081811115612d6257612d616129c5565b5b92915050565b6000819050919050565b6000612d8d612d88612d8384612d68565b612778565b611f27565b9050919050565b612d9d81612d72565b82525050565b6000608082019050612db86000830187612d94565b612dc56020830186612077565b612dd2604083018561201a565b612ddf6060830184612092565b95945050505050565b7f4d7573742073656e6420312045544820746f2063726561746520612070726f7060008201527f6f73616c00000000000000000000000000000000000000000000000000000000602082015250565b6000612e44602483611f95565b9150612e4f82612de8565b604082019050919050565b60006020820190508181036000830152612e7381612e37565b9050919050565b60008190508160005260206000209050919050565b60006020601f8301049050919050565b600082821b905092915050565b600060088302612edc7fffffffffffffffffffffffffffffffffffffffffffffffffffffffffffffffff82612e9f565b612ee68683612e9f565b95508019841693508086168417925050509392505050565b6000612f19612f14612f0f84611f27565b612778565b611f27565b9050919050565b6000819050919050565b612f3383612efe565b612f47612f3f82612f20565b848454612eac565b825550505050565b600090565b612f5c612f4f565b612f67818484612f2a565b505050565b5b81811015612f8b57612f80600082612f54565b600181019050612f6d565b5050565b601f821115612fd057612fa181612e7a565b612faa84612e8f565b81016020851015612fb9578190505b612fcd612fc585612e8f565b830182612f6c565b50505b505050565b600082821c905092915050565b6000612ff360001984600802612fd5565b1980831691505092915050565b600061300c8383612fe2565b9150826002028217905092915050565b61302582611f8a565b67ffffffffffffffff81111561303e5761303d612514565b5b6130488254612821565b613053828285612f8f565b600060209050601f8311600181146130865760008415613074578287015190505b61307e8582613000565b8655506130e6565b601f19841661309486612e7a565b60005b828110156130bc57848901518255600182019150602085019450602081019050613097565b868310156130d957848901516130d5601f891682612fe2565b8355505b6001600288020188555050505b505050505050565b60006130f982611f27565b91507fffffffffffffffffffffffffffffffffffffffffffffffffffffffffffffffff820361312b5761312a6129c5565b5b600182019050919050565b600060e08201905061314b600083018a61201a565b818103602083015261315d8189611fe1565b905081810360408301526131718188611fe1565b9050613180606083018761201a565b61318d6080830186612036565b61319a60a083018561201a565b6131a760c0830184612077565b98975050505050505050565b7f4e487b7100000000000000000000000000000000000000000000000000000000600052602160045260246000fd5b7f496e76616c69642071756f72756d207479706500000000000000000000000000600082015250565b6000613218601383611f95565b9150613223826131e2565b602082019050919050565b600060208201905081810360008301526132478161320b565b9050919050565b7f496e76616c69642070726f706f73616c20494400000000000000000000000000600082015250565b6000613284601383611f95565b915061328f8261324e565b602082019050919050565b600060208201905081810360008301526132b381613277565b9050919050565b7f43616e6e6f74207265676973746572207368617265686f6c646572732064757260008201527f696e6720766f74696e6720706572696f64000000000000000000000000000000602082015250565b6000613316603183611f95565b9150613321826132ba565b604082019050919050565b6000602082019050818103600083015261334581613309565b9050919050565b7f43616e6e6f74207570646174652073686172657320647572696e6720766f746960008201527f6e6720706572696f640000000000000000000000000000000000000000000000602082015250565b60006133a8602983611f95565b91506133b38261334c565b604082019050919050565b600060208201905081810360008301526133d78161339b565b905091905056fea2646970667358221220cf88df06b9aa39b12677ad0ceb1db890f633850531dda0504b1e44843a7456f064736f6c63430008140033",
  "linkReferences": {},
  "deployedLinkReferences": {}
}