{
  "_format": "hh-sol-artifact-1",
  "contractName": "VotingContract",
  "sourceName": "contracts/smartContract.sol",
  "abi": [
    {
      "inputs": [
        {
          "internalType": "address",
          "name": "_tokenAddress",
          "type": "address"
        }
      ],
      "stateMutability": "nonpayable",
      "type": "constructor"
    },
    {
      "anonymous": false,
      "inputs": [
        {
          "indexed": false,
          "internalType": "uint256",
          "name": "proposalId",
          "type": "uint256"
        },
        {
          "indexed": false,
          "internalType": "string",
          "name": "description",
          "type": "string"
        },
        {
          "indexed": false,
          "internalType": "uint256",
          "name": "votingEndTime",
          "type": "uint256"
        }
      ],
      "name": "ProposalCreated",
      "type": "event"
    },
    {
      "anonymous": false,
      "inputs": [
        {
          "indexed": false,
          "internalType": "address",
          "name": "voter",
          "type": "address"
        },
        {
          "indexed": false,
          "internalType": "uint256",
          "name": "rewardAmount",
          "type": "uint256"
        }
      ],
      "name": "RewardIssued",
      "type": "event"
    },
    {
      "anonymous": false,
      "inputs": [
        {
          "indexed": false,
          "internalType": "address",
          "name": "voter",
          "type": "address"
        },
        {
          "indexed": false,
          "internalType": "uint256",
          "name": "newShares",
          "type": "uint256"
        }
      ],
      "name": "SharesUpdated",
      "type": "event"
    },
    {
      "anonymous": false,
      "inputs": [
        {
          "indexed": false,
          "internalType": "uint256",
          "name": "proposalId",
          "type": "uint256"
        },
        {
          "indexed": false,
          "internalType": "address",
          "name": "voter",
          "type": "address"
        },
        {
          "indexed": false,
          "internalType": "uint256",
          "name": "weight",
          "type": "uint256"
        },
        {
          "indexed": false,
          "internalType": "bool",
          "name": "voteFor",
          "type": "bool"
        }
      ],
      "name": "VoteCast",
      "type": "event"
    },
    {
      "inputs": [
        {
          "internalType": "string",
          "name": "description",
          "type": "string"
        },
        {
          "internalType": "uint256",
          "name": "durationInMinutes",
          "type": "uint256"
        },
        {
          "internalType": "enum VotingContract.QuorumType",
          "name": "quorumType",
          "type": "uint8"
        }
      ],
      "name": "createProposal",
      "outputs": [],
      "stateMutability": "nonpayable",
      "type": "function"
    },
    {
      "inputs": [
        {
          "internalType": "uint256",
          "name": "proposalId",
          "type": "uint256"
        }
      ],
      "name": "endVoting",
      "outputs": [],
      "stateMutability": "nonpayable",
      "type": "function"
    },
    {
      "inputs": [
        {
          "internalType": "uint256",
          "name": "proposalId",
          "type": "uint256"
        }
      ],
      "name": "getProposalOutcome",
      "outputs": [
        {
          "components": [
            {
              "internalType": "bool",
              "name": "passed",
              "type": "bool"
            },
            {
              "internalType": "uint256",
              "name": "votesFor",
              "type": "uint256"
            },
            {
              "internalType": "uint256",
              "name": "votesAgainst",
              "type": "uint256"
            }
          ],
          "internalType": "struct VotingContract.ProposalOutcome",
          "name": "",
          "type": "tuple"
        }
      ],
      "stateMutability": "view",
      "type": "function"
    },
    {
      "inputs": [
        {
          "internalType": "uint256",
          "name": "proposalId",
          "type": "uint256"
        }
      ],
      "name": "getVotingProgress",
      "outputs": [
        {
          "internalType": "uint256",
          "name": "progress",
          "type": "uint256"
        },
        {
          "internalType": "uint256",
          "name": "requiredQuorum",
          "type": "uint256"
        }
      ],
      "stateMutability": "view",
      "type": "function"
    },
    {
      "inputs": [],
      "name": "governanceToken",
      "outputs": [
        {
          "internalType": "contract GovernanceToken",
          "name": "",
          "type": "address"
        }
      ],
      "stateMutability": "view",
      "type": "function"
    },
    {
      "inputs": [
        {
          "internalType": "uint256",
          "name": "proposalId",
          "type": "uint256"
        }
      ],
      "name": "hasMetQuorum",
      "outputs": [
        {
          "internalType": "bool",
          "name": "",
          "type": "bool"
        }
      ],
      "stateMutability": "view",
      "type": "function"
    },
    {
      "inputs": [],
      "name": "isVotingPeriodActive",
      "outputs": [
        {
          "internalType": "bool",
          "name": "",
          "type": "bool"
        }
      ],
      "stateMutability": "view",
      "type": "function"
    },
    {
      "inputs": [],
      "name": "proposalCount",
      "outputs": [
        {
          "internalType": "uint256",
          "name": "",
          "type": "uint256"
        }
      ],
      "stateMutability": "view",
      "type": "function"
    },
    {
      "inputs": [
        {
          "internalType": "uint256",
          "name": "",
          "type": "uint256"
        }
      ],
      "name": "proposalOutcomes",
      "outputs": [
        {
          "internalType": "bool",
          "name": "passed",
          "type": "bool"
        },
        {
          "internalType": "uint256",
          "name": "votesFor",
          "type": "uint256"
        },
        {
          "internalType": "uint256",
          "name": "votesAgainst",
          "type": "uint256"
        }
      ],
      "stateMutability": "view",
      "type": "function"
    },
    {
      "inputs": [
        {
          "internalType": "uint256",
          "name": "",
          "type": "uint256"
        }
      ],
      "name": "proposals",
      "outputs": [
        {
          "internalType": "string",
          "name": "description",
          "type": "string"
        },
        {
          "internalType": "uint256",
          "name": "votesFor",
          "type": "uint256"
        },
        {
          "internalType": "uint256",
          "name": "votesAgainst",
          "type": "uint256"
        },
        {
          "internalType": "bool",
          "name": "active",
          "type": "bool"
        },
        {
          "internalType": "uint256",
          "name": "votingEndTime",
          "type": "uint256"
        },
        {
          "internalType": "uint256",
          "name": "totalVotesCast",
          "type": "uint256"
        },
        {
          "internalType": "enum VotingContract.QuorumType",
          "name": "quorumType",
          "type": "uint8"
        }
      ],
      "stateMutability": "view",
      "type": "function"
    },
    {
      "inputs": [
        {
          "internalType": "address",
          "name": "voter",
          "type": "address"
        },
        {
          "internalType": "uint256",
          "name": "shareCount",
          "type": "uint256"
        }
      ],
      "name": "registerVoter",
      "outputs": [],
      "stateMutability": "nonpayable",
      "type": "function"
    },
    {
      "inputs": [
        {
          "internalType": "address",
          "name": "",
          "type": "address"
        }
      ],
      "name": "shares",
      "outputs": [
        {
          "internalType": "uint256",
          "name": "",
          "type": "uint256"
        }
      ],
      "stateMutability": "view",
      "type": "function"
    },
    {
      "inputs": [],
      "name": "totalShares",
      "outputs": [
        {
          "internalType": "uint256",
          "name": "",
          "type": "uint256"
        }
      ],
      "stateMutability": "view",
      "type": "function"
    },
    {
      "inputs": [
        {
          "internalType": "address",
          "name": "voter",
          "type": "address"
        },
        {
          "internalType": "uint256",
          "name": "newShares",
          "type": "uint256"
        }
      ],
      "name": "updateShares",
      "outputs": [],
      "stateMutability": "nonpayable",
      "type": "function"
    },
    {
      "inputs": [
        {
          "internalType": "uint256",
          "name": "proposalId",
          "type": "uint256"
        },
        {
          "internalType": "bool",
          "name": "voteFor",
          "type": "bool"
        }
      ],
      "name": "vote",
      "outputs": [],
      "stateMutability": "nonpayable",
      "type": "function"
    },
    {
      "inputs": [],
      "name": "votingEndTime",
      "outputs": [
        {
          "internalType": "uint256",
          "name": "",
          "type": "uint256"
        }
      ],
      "stateMutability": "view",
      "type": "function"
    },
    {
      "inputs": [
        {
          "internalType": "address",
          "name": "",
          "type": "address"
        },
        {
          "internalType": "uint256",
          "name": "",
          "type": "uint256"
        }
      ],
      "name": "votingHistory",
      "outputs": [
        {
          "internalType": "uint256",
          "name": "proposalId",
          "type": "uint256"
        },
        {
          "internalType": "bool",
          "name": "votedFor",
          "type": "bool"
        },
        {
          "internalType": "uint256",
          "name": "voteWeight",
          "type": "uint256"
        }
      ],
      "stateMutability": "view",
      "type": "function"
    }
  ],
  "bytecode": "0x608060405234801561001057600080fd5b50604051612967380380612967833981810160405281019061003291906100dc565b80600860006101000a81548173ffffffffffffffffffffffffffffffffffffffff021916908373ffffffffffffffffffffffffffffffffffffffff16021790555050610109565b600080fd5b600073ffffffffffffffffffffffffffffffffffffffff82169050919050565b60006100a98261007e565b9050919050565b6100b98161009e565b81146100c457600080fd5b50565b6000815190506100d6816100b0565b92915050565b6000602082840312156100f2576100f1610079565b5b6000610100848285016100c7565b91505092915050565b61284f806101186000396000f3fe608060405234801561001057600080fd5b506004361061010a5760003560e01c80639fcc5ce4116100a2578063ce7c2ac211610071578063ce7c2ac2146102d2578063d09c34f214610302578063da35c66414610334578063e5d0821f14610352578063f96dae0a1461036e5761010a565b80639fcc5ce41461024a578063a9c0310d14610268578063c9d27afe1461029a578063cbea81ef146102b65761010a565b8063649f89a5116100de578063649f89a51461019d5780636fdb6f7c146101b95780637a7c153b146101e95780639baf1c97146102195761010a565b8062738ea71461010f578063013cf08b1461012b5780631ea736e0146101615780633a98ef391461017f575b600080fd5b610129600480360381019061012491906118b6565b61038c565b005b61014560048036038101906101409190611925565b61062b565b6040516101589796959493929190611a72565b60405180910390f35b61016961070f565b6040516101769190611ae8565b60405180910390f35b610187610715565b6040516101949190611ae8565b60405180910390f35b6101b760048036038101906101b29190611925565b61071b565b005b6101d360048036038101906101ce9190611925565b610a2c565b6040516101e09190611b63565b60405180910390f35b61020360048036038101906101fe9190611925565b610a88565b6040516102109190611b7e565b60405180910390f35b610233600480360381019061022e9190611925565b610c21565b604051610241929190611b99565b60405180910390f35b610252610eaa565b60405161025f9190611b7e565b60405180910390f35b610282600480360381019061027d9190611925565b610ebd565b60405161029193929190611bc2565b60405180910390f35b6102b460048036038101906102af9190611c25565b610ef4565b005b6102d060048036038101906102cb9190611cc3565b6114b0565b005b6102ec60048036038101906102e79190611d03565b611560565b6040516102f99190611ae8565b60405180910390f35b61031c60048036038101906103179190611cc3565b611578565b60405161032b93929190611d30565b60405180910390f35b61033c6115cc565b6040516103499190611ae8565b60405180910390f35b61036c60048036038101906103679190611cc3565b6115d2565b005b6103766116a2565b6040516103839190611dc6565b60405180910390f35b6000805b6004548110156103f3576000803373ffffffffffffffffffffffffffffffffffffffff1673ffffffffffffffffffffffffffffffffffffffff16815260200190815260200160002054826103e49190611e10565b91508080600101915050610390565b5060058160646000803373ffffffffffffffffffffffffffffffffffffffff1673ffffffffffffffffffffffffffffffffffffffff168152602001908152602001600020546104429190611e44565b61044c9190611eb5565b101561048d576040517f08c379a000000000000000000000000000000000000000000000000000000000815260040161048490611f58565b60405180910390fd5b6040518060e001604052808581526020016000815260200160008152602001600115158152602001603c856104c29190611e44565b426104cd9190611e10565b8152602001600081526020018360038111156104ec576104eb6119fb565b5b8152506001600060045481526020019081526020016000206000820151816000019081610519919061217a565b50602082015181600101556040820151816002015560608201518160030160006101000a81548160ff0219169083151502179055506080820151816004015560a0820151816005015560c08201518160060160006101000a81548160ff0219169083600381111561058d5761058c6119fb565b5b02179055509050506001600660006101000a81548160ff021916908315150217905550603c836105bd9190611e44565b426105c89190611e10565b6007819055507ff5dc0da9afa6d080780a49fd8c680f03d2ddf3c067cd6d0c85360c096644d2d3600454856007546040516106059392919061224c565b60405180910390a1600460008154809291906106209061228a565b919050555050505050565b600160205280600052604060002060009150905080600001805461064e90611fa7565b80601f016020809104026020016040519081016040528092919081815260200182805461067a90611fa7565b80156106c75780601f1061069c576101008083540402835291602001916106c7565b820191906000526020600020905b8154815290600101906020018083116106aa57829003601f168201915b5050505050908060010154908060020154908060030160009054906101000a900460ff16908060040154908060050154908060060160009054906101000a900460ff16905087565b60075481565b60055481565b6001600082815260200190815260200160002060030160009054906101000a900460ff1661077e576040517f08c379a00000000000000000000000000000000000000000000000000000000081526004016107759061231e565b60405180910390fd5b426001600083815260200190815260200160002060040154106107d6576040517f08c379a00000000000000000000000000000000000000000000000000000000081526004016107cd9061238a565b60405180910390fd5b60006001600083815260200190815260200160002060030160006101000a81548160ff0219169083151502179055506000805b600454811015610852576001600082815260200190815260200160002060030160009054906101000a900460ff16156108455760019150610852565b8080600101915050610809565b50600060016000848152602001908152602001600020600201546001600085815260200190815260200160002060010154119050604051806060016040528082151581526020016001600086815260200190815260200160002060010154815260200160016000868152602001908152602001600020600201548152506003600085815260200190815260200160002060008201518160000160006101000a81548160ff0219169083151502179055506020820151816001015560408201518160020155905050600160008481526020019081526020016000206004015442118015610944575061094283610a88565b155b15610a0d5760006001600085815260200190815260200160002060030160006101000a81548160ff02191690831515021790555060405180606001604052806000151581526020016001600086815260200190815260200160002060010154815260200160016000868152602001908152602001600020600201548152506003600085815260200190815260200160002060008201518160000160006101000a81548160ff02191690831515021790555060208201518160010155604082015181600201559050505b81600660006101000a81548160ff021916908315150217905550505050565b610a346116de565b600360008381526020019081526020016000206040518060600160405290816000820160009054906101000a900460ff16151515158152602001600182015481526020016002820154815250509050919050565b600080600160008481526020019081526020016000209050600081600201548260010154610ab69190611e10565b90506000806003811115610acd57610acc6119fb565b5b8360060160009054906101000a900460ff166003811115610af157610af06119fb565b5b03610b0c576002600554610b059190611eb5565b9050610c0f565b60016003811115610b2057610b1f6119fb565b5b8360060160009054906101000a900460ff166003811115610b4457610b436119fb565b5b03610b6b5760036002600554610b5a9190611e44565b610b649190611eb5565b9050610c0e565b60026003811115610b7f57610b7e6119fb565b5b8360060160009054906101000a900460ff166003811115610ba357610ba26119fb565b5b03610bca5760046003600554610bb99190611e44565b610bc39190611eb5565b9050610c0d565b600380811115610bdd57610bdc6119fb565b5b8360060160009054906101000a900460ff166003811115610c0157610c006119fb565b5b03610c0c5760055490505b5b5b5b80836001015410159350505050919050565b6000806000600160008581526020019081526020016000206040518060e0016040529081600082018054610c5490611fa7565b80601f0160208091040260200160405190810160405280929190818152602001828054610c8090611fa7565b8015610ccd5780601f10610ca257610100808354040283529160200191610ccd565b820191906000526020600020905b815481529060010190602001808311610cb057829003601f168201915b5050505050815260200160018201548152602001600282015481526020016003820160009054906101000a900460ff1615151515815260200160048201548152602001600582015481526020016006820160009054906101000a900460ff166003811115610d3e57610d3d6119fb565b5b6003811115610d5057610d4f6119fb565b5b81525050905060008160a0015190506000600554606483610d719190611e44565b610d7b9190611eb5565b905060006003811115610d9157610d906119fb565b5b8360c001516003811115610da857610da76119fb565b5b03610dc3576002600554610dbc9190611eb5565b9350610e9f565b60016003811115610dd757610dd66119fb565b5b8360c001516003811115610dee57610ded6119fb565b5b03610e155760036002600554610e049190611e44565b610e0e9190611eb5565b9350610e9e565b60026003811115610e2957610e286119fb565b5b8360c001516003811115610e4057610e3f6119fb565b5b03610e675760046003600554610e569190611e44565b610e609190611eb5565b9350610e9d565b600380811115610e7a57610e796119fb565b5b8360c001516003811115610e9157610e906119fb565b5b03610e9c5760055493505b5b5b5b809450505050915091565b600660009054906101000a900460ff1681565b60036020528060005260406000206000915090508060000160009054906101000a900460ff16908060010154908060020154905083565b60008060003373ffffffffffffffffffffffffffffffffffffffff1673ffffffffffffffffffffffffffffffffffffffff1681526020019081526020016000205411610f75576040517f08c379a0000000000000000000000000000000000000000000000000000000008152600401610f6c906123f6565b60405180910390fd5b6001600083815260200190815260200160002060030160009054906101000a900460ff16610fd8576040517f08c379a0000000000000000000000000000000000000000000000000000000008152600401610fcf90612462565b60405180910390fd5b4260016000848152602001908152602001600020600401541015611031576040517f08c379a0000000000000000000000000000000000000000000000000000000008152600401611028906124ce565b60405180910390fd5b60005b600260003373ffffffffffffffffffffffffffffffffffffffff1673ffffffffffffffffffffffffffffffffffffffff1681526020019081526020016000208054905081101561112f5782600260003373ffffffffffffffffffffffffffffffffffffffff1673ffffffffffffffffffffffffffffffffffffffff16815260200190815260200160002082815481106110d0576110cf6124ee565b5b90600052602060002090600302016000015403611122576040517f08c379a00000000000000000000000000000000000000000000000000000000081526004016111199061258f565b60405180910390fd5b8080600101915050611034565b5060006005546127106000803373ffffffffffffffffffffffffffffffffffffffff1673ffffffffffffffffffffffffffffffffffffffff168152602001908152602001600020546111819190611e44565b61118b9190611eb5565b905081156111c557806001600085815260200190815260200160002060010160008282546111b99190611e10565b925050819055506111f3565b806001600085815260200190815260200160002060020160008282546111eb9190611e10565b925050819055505b806001600085815260200190815260200160002060050160008282546112199190611e10565b92505081905550600260003373ffffffffffffffffffffffffffffffffffffffff1673ffffffffffffffffffffffffffffffffffffffff168152602001908152602001600020604051806060016040528085815260200184151581526020018381525090806001815401808255809150506001900390600052602060002090600302016000909190919091506000820151816000015560208201518160010160006101000a81548160ff02191690831515021790555060408201518160020155505060006112e6826116c8565b90506000600860009054906101000a900473ffffffffffffffffffffffffffffffffffffffff1673ffffffffffffffffffffffffffffffffffffffff166370a08231336040518263ffffffff1660e01b815260040161134591906125be565b602060405180830381865afa158015611362573d6000803e3d6000fd5b505050506040513d601f19601f8201168201806040525081019061138691906125ee565b146113c6576040517f08c379a00000000000000000000000000000000000000000000000000000000081526004016113bd90612667565b60405180910390fd5b600860009054906101000a900473ffffffffffffffffffffffffffffffffffffffff1673ffffffffffffffffffffffffffffffffffffffff166340c10f1933836040518363ffffffff1660e01b8152600401611423929190612687565b600060405180830381600087803b15801561143d57600080fd5b505af1158015611451573d6000803e3d6000fd5b505050507fb898e75d5aac8de2f407e4a683c8d909e832d1e371e3bff0fa3ed934e88d95628433848660405161148a94939291906126b0565b60405180910390a161149b84610a88565b156114aa576114a98461071b565b5b50505050565b600660009054906101000a900460ff1615611500576040517f08c379a00000000000000000000000000000000000000000000000000000000081526004016114f790612767565b60405180910390fd5b806000808473ffffffffffffffffffffffffffffffffffffffff1673ffffffffffffffffffffffffffffffffffffffff1681526020019081526020016000208190555080600560008282546115559190611e10565b925050819055505050565b60006020528060005260406000206000915090505481565b6002602052816000526040600020818154811061159457600080fd5b9060005260206000209060030201600091509150508060000154908060010160009054906101000a900460ff16908060020154905083565b60045481565b600660009054906101000a900460ff1615611622576040517f08c379a0000000000000000000000000000000000000000000000000000000008152600401611619906127f9565b60405180910390fd5b806000808473ffffffffffffffffffffffffffffffffffffffff1673ffffffffffffffffffffffffffffffffffffffff168152602001908152602001600020819055507fe6382c9ed5c0c33bb05042f73cf6cbe9cb25639f9a711e094ee563bc9cb80e2c8282604051611696929190612687565b60405180910390a15050565b600860009054906101000a900473ffffffffffffffffffffffffffffffffffffffff1681565b60006064826116d79190611eb5565b9050919050565b604051806060016040528060001515815260200160008152602001600081525090565b6000604051905090565b600080fd5b600080fd5b600080fd5b600080fd5b6000601f19601f8301169050919050565b7f4e487b7100000000000000000000000000000000000000000000000000000000600052604160045260246000fd5b6117688261171f565b810181811067ffffffffffffffff8211171561178757611786611730565b5b80604052505050565b600061179a611701565b90506117a6828261175f565b919050565b600067ffffffffffffffff8211156117c6576117c5611730565b5b6117cf8261171f565b9050602081019050919050565b82818337600083830152505050565b60006117fe6117f9846117ab565b611790565b90508281526020810184848401111561181a5761181961171a565b5b6118258482856117dc565b509392505050565b600082601f83011261184257611841611715565b5b81356118528482602086016117eb565b91505092915050565b6000819050919050565b61186e8161185b565b811461187957600080fd5b50565b60008135905061188b81611865565b92915050565b6004811061189e57600080fd5b50565b6000813590506118b081611891565b92915050565b6000806000606084860312156118cf576118ce61170b565b5b600084013567ffffffffffffffff8111156118ed576118ec611710565b5b6118f98682870161182d565b935050602061190a8682870161187c565b925050604061191b868287016118a1565b9150509250925092565b60006020828403121561193b5761193a61170b565b5b60006119498482850161187c565b91505092915050565b600081519050919050565b600082825260208201905092915050565b60005b8381101561198c578082015181840152602081019050611971565b60008484015250505050565b60006119a382611952565b6119ad818561195d565b93506119bd81856020860161196e565b6119c68161171f565b840191505092915050565b6119da8161185b565b82525050565b60008115159050919050565b6119f5816119e0565b82525050565b7f4e487b7100000000000000000000000000000000000000000000000000000000600052602160045260246000fd5b60048110611a3b57611a3a6119fb565b5b50565b6000819050611a4c82611a2a565b919050565b6000611a5c82611a3e565b9050919050565b611a6c81611a51565b82525050565b600060e0820190508181036000830152611a8c818a611998565b9050611a9b60208301896119d1565b611aa860408301886119d1565b611ab560608301876119ec565b611ac260808301866119d1565b611acf60a08301856119d1565b611adc60c0830184611a63565b98975050505050505050565b6000602082019050611afd60008301846119d1565b92915050565b611b0c816119e0565b82525050565b611b1b8161185b565b82525050565b606082016000820151611b376000850182611b03565b506020820151611b4a6020850182611b12565b506040820151611b5d6040850182611b12565b50505050565b6000606082019050611b786000830184611b21565b92915050565b6000602082019050611b9360008301846119ec565b92915050565b6000604082019050611bae60008301856119d1565b611bbb60208301846119d1565b9392505050565b6000606082019050611bd760008301866119ec565b611be460208301856119d1565b611bf160408301846119d1565b949350505050565b611c02816119e0565b8114611c0d57600080fd5b50565b600081359050611c1f81611bf9565b92915050565b60008060408385031215611c3c57611c3b61170b565b5b6000611c4a8582860161187c565b9250506020611c5b85828601611c10565b9150509250929050565b600073ffffffffffffffffffffffffffffffffffffffff82169050919050565b6000611c9082611c65565b9050919050565b611ca081611c85565b8114611cab57600080fd5b50565b600081359050611cbd81611c97565b92915050565b60008060408385031215611cda57611cd961170b565b5b6000611ce885828601611cae565b9250506020611cf98582860161187c565b9150509250929050565b600060208284031215611d1957611d1861170b565b5b6000611d2784828501611cae565b91505092915050565b6000606082019050611d4560008301866119d1565b611d5260208301856119ec565b611d5f60408301846119d1565b949350505050565b6000819050919050565b6000611d8c611d87611d8284611c65565b611d67565b611c65565b9050919050565b6000611d9e82611d71565b9050919050565b6000611db082611d93565b9050919050565b611dc081611da5565b82525050565b6000602082019050611ddb6000830184611db7565b92915050565b7f4e487b7100000000000000000000000000000000000000000000000000000000600052601160045260246000fd5b6000611e1b8261185b565b9150611e268361185b565b9250828201905080821115611e3e57611e3d611de1565b5b92915050565b6000611e4f8261185b565b9150611e5a8361185b565b9250828202611e688161185b565b91508282048414831517611e7f57611e7e611de1565b5b5092915050565b7f4e487b7100000000000000000000000000000000000000000000000000000000600052601260045260246000fd5b6000611ec08261185b565b9150611ecb8361185b565b925082611edb57611eda611e86565b5b828204905092915050565b7f536f72727920796f75206e65656420746f2068617665206f766572203525207460008201527f6f2063726561746520612070726f706f73616c00000000000000000000000000602082015250565b6000611f4260338361195d565b9150611f4d82611ee6565b604082019050919050565b60006020820190508181036000830152611f7181611f35565b9050919050565b7f4e487b7100000000000000000000000000000000000000000000000000000000600052602260045260246000fd5b60006002820490506001821680611fbf57607f821691505b602082108103611fd257611fd1611f78565b5b50919050565b60008190508160005260206000209050919050565b60006020601f8301049050919050565b600082821b905092915050565b60006008830261203a7fffffffffffffffffffffffffffffffffffffffffffffffffffffffffffffffff82611ffd565b6120448683611ffd565b95508019841693508086168417925050509392505050565b600061207761207261206d8461185b565b611d67565b61185b565b9050919050565b6000819050919050565b6120918361205c565b6120a561209d8261207e565b84845461200a565b825550505050565b600090565b6120ba6120ad565b6120c5818484612088565b505050565b5b818110156120e9576120de6000826120b2565b6001810190506120cb565b5050565b601f82111561212e576120ff81611fd8565b61210884611fed565b81016020851015612117578190505b61212b61212385611fed565b8301826120ca565b50505b505050565b600082821c905092915050565b600061215160001984600802612133565b1980831691505092915050565b600061216a8383612140565b9150826002028217905092915050565b61218382611952565b67ffffffffffffffff81111561219c5761219b611730565b5b6121a68254611fa7565b6121b18282856120ed565b600060209050601f8311600181146121e457600084156121d2578287015190505b6121dc858261215e565b865550612244565b601f1984166121f286611fd8565b60005b8281101561221a578489015182556001820191506020850194506020810190506121f5565b868310156122375784890151612233601f891682612140565b8355505b6001600288020188555050505b505050505050565b600060608201905061226160008301866119d1565b81810360208301526122738185611998565b905061228260408301846119d1565b949350505050565b60006122958261185b565b91507fffffffffffffffffffffffffffffffffffffffffffffffffffffffffffffffff82036122c7576122c6611de1565b5b600182019050919050565b7f50726f706f73616c20616c726561647920636c6f7365642e0000000000000000600082015250565b600061230860188361195d565b9150612313826122d2565b602082019050919050565b60006020820190508181036000830152612337816122fb565b9050919050565b7f566f74696e6720706572696f64207374696c6c20676f696e67206f6e00000000600082015250565b6000612374601c8361195d565b915061237f8261233e565b602082019050919050565b600060208201905081810360008301526123a381612367565b9050919050565b7f4e6f20766f74696e6720706f7765722e00000000000000000000000000000000600082015250565b60006123e060108361195d565b91506123eb826123aa565b602082019050919050565b6000602082019050818103600083015261240f816123d3565b9050919050565b7f50726f706f73616c20696e6163746976652e0000000000000000000000000000600082015250565b600061244c60128361195d565b915061245782612416565b602082019050919050565b6000602082019050818103600083015261247b8161243f565b9050919050565b7f566f74696e6720706572696f64206861732066696e69736865642e0000000000600082015250565b60006124b8601b8361195d565b91506124c382612482565b602082019050919050565b600060208201905081810360008301526124e7816124ab565b9050919050565b7f4e487b7100000000000000000000000000000000000000000000000000000000600052603260045260246000fd5b7f596f7520616c726561647920766f746564206f6e20746869732070726f706f7360008201527f616c2e0000000000000000000000000000000000000000000000000000000000602082015250565b600061257960238361195d565b91506125848261251d565b604082019050919050565b600060208201905081810360008301526125a88161256c565b9050919050565b6125b881611c85565b82525050565b60006020820190506125d360008301846125af565b92915050565b6000815190506125e881611865565b92915050565b6000602082840312156126045761260361170b565b5b6000612612848285016125d9565b91505092915050565b7f5265776172647320616c726561647920636c61696d65642e0000000000000000600082015250565b600061265160188361195d565b915061265c8261261b565b602082019050919050565b6000602082019050818103600083015261268081612644565b9050919050565b600060408201905061269c60008301856125af565b6126a960208301846119d1565b9392505050565b60006080820190506126c560008301876119d1565b6126d260208301866125af565b6126df60408301856119d1565b6126ec60608301846119ec565b95945050505050565b7f4865792069747320616e2061637469766520766f74696e6720706572696f642c60008201527f20796f752063616e6e6f7420766f7465206e6f772e0000000000000000000000602082015250565b600061275160358361195d565b915061275c826126f5565b604082019050919050565b6000602082019050818103600083015261278081612744565b9050919050565b7f63616e6e6f74207570646174652073686172657320647572696e67206f6e676f60008201527f696e6720766f746f6e6720706572696f64000000000000000000000000000000602082015250565b60006127e360318361195d565b91506127ee82612787565b604082019050919050565b60006020820190508181036000830152612812816127d6565b905091905056fea2646970667358221220ac4950104310df4ddee67f74dbeb816cd71650805c2b6c634abebec503be667764736f6c634300081a0033",
  "linkReferences": {},
  "deployedLinkReferences": {}
}