{
  "_format": "hh-sol-artifact-1",
  "contractName": "VotingContract",
  "sourceName": "contracts/smartContract.sol",
  "abi": [
    {
      "inputs": [
        {
          "internalType": "address[]",
          "name": "initialAdmins",
          "type": "address[]"
        },
        {
          "internalType": "address",
          "name": "_tokenAddress",
          "type": "address"
        }
      ],
      "stateMutability": "nonpayable",
      "type": "constructor"
    },
    {
      "anonymous": false,
      "inputs": [
        {
          "indexed": false,
          "internalType": "uint256",
          "name": "proposalId",
          "type": "uint256"
        },
        {
          "indexed": false,
          "internalType": "string",
          "name": "description",
          "type": "string"
        },
        {
          "indexed": false,
          "internalType": "uint256",
          "name": "votingEndTime",
          "type": "uint256"
        }
      ],
      "name": "ProposalCreated",
      "type": "event"
    },
    {
      "anonymous": false,
      "inputs": [
        {
          "indexed": false,
          "internalType": "address",
          "name": "voter",
          "type": "address"
        },
        {
          "indexed": false,
          "internalType": "uint256",
          "name": "rewardAmount",
          "type": "uint256"
        }
      ],
      "name": "RewardIssued",
      "type": "event"
    },
    {
      "anonymous": false,
      "inputs": [
        {
          "indexed": false,
          "internalType": "address",
          "name": "voter",
          "type": "address"
        },
        {
          "indexed": false,
          "internalType": "uint256",
          "name": "newShares",
          "type": "uint256"
        }
      ],
      "name": "SharesUpdated",
      "type": "event"
    },
    {
      "anonymous": false,
      "inputs": [
        {
          "indexed": false,
          "internalType": "uint256",
          "name": "proposalId",
          "type": "uint256"
        },
        {
          "indexed": false,
          "internalType": "address",
          "name": "voter",
          "type": "address"
        },
        {
          "indexed": false,
          "internalType": "uint256",
          "name": "weight",
          "type": "uint256"
        },
        {
          "indexed": false,
          "internalType": "bool",
          "name": "voteFor",
          "type": "bool"
        }
      ],
      "name": "VoteCast",
      "type": "event"
    },
    {
      "inputs": [
        {
          "internalType": "address",
          "name": "newAdmin",
          "type": "address"
        }
      ],
      "name": "addAdmin",
      "outputs": [],
      "stateMutability": "nonpayable",
      "type": "function"
    },
    {
      "inputs": [
        {
          "internalType": "address",
          "name": "",
          "type": "address"
        }
      ],
      "name": "admins",
      "outputs": [
        {
          "internalType": "bool",
          "name": "",
          "type": "bool"
        }
      ],
      "stateMutability": "view",
      "type": "function"
    },
    {
      "inputs": [
        {
          "internalType": "string",
          "name": "title",
          "type": "string"
        },
        {
          "internalType": "string",
          "name": "description",
          "type": "string"
        },
        {
          "internalType": "uint256",
          "name": "durationInMinutes",
          "type": "uint256"
        },
        {
          "internalType": "enum VotingContract.QuorumType",
          "name": "quorumType",
          "type": "uint8"
        }
      ],
      "name": "createProposal",
      "outputs": [],
      "stateMutability": "payable",
      "type": "function"
    },
    {
      "inputs": [
        {
          "internalType": "uint256",
          "name": "proposalId",
          "type": "uint256"
        }
      ],
      "name": "endVoting",
      "outputs": [],
      "stateMutability": "nonpayable",
      "type": "function"
    },
    {
      "inputs": [
        {
          "internalType": "uint256",
          "name": "proposalId",
          "type": "uint256"
        }
      ],
      "name": "getProposalOutcome",
      "outputs": [
        {
          "components": [
            {
              "internalType": "bool",
              "name": "passed",
              "type": "bool"
            },
            {
              "internalType": "uint256",
              "name": "votesFor",
              "type": "uint256"
            },
            {
              "internalType": "uint256",
              "name": "votesAgainst",
              "type": "uint256"
            }
          ],
          "internalType": "struct VotingContract.ProposalOutcome",
          "name": "",
          "type": "tuple"
        }
      ],
      "stateMutability": "view",
      "type": "function"
    },
    {
      "inputs": [],
      "name": "getProposals",
      "outputs": [
        {
          "internalType": "uint256[]",
          "name": "ids",
          "type": "uint256[]"
        },
        {
          "internalType": "string[]",
          "name": "titles",
          "type": "string[]"
        },
        {
          "internalType": "string[]",
          "name": "descriptions",
          "type": "string[]"
        },
        {
          "internalType": "uint256[]",
          "name": "votesForArray",
          "type": "uint256[]"
        },
        {
          "internalType": "uint256[]",
          "name": "votesAgainstArray",
          "type": "uint256[]"
        },
        {
          "internalType": "bool[]",
          "name": "actives",
          "type": "bool[]"
        }
      ],
      "stateMutability": "view",
      "type": "function"
    },
    {
      "inputs": [],
      "name": "getProposalsCount",
      "outputs": [
        {
          "internalType": "uint256",
          "name": "",
          "type": "uint256"
        }
      ],
      "stateMutability": "view",
      "type": "function"
    },
    {
      "inputs": [
        {
          "internalType": "address",
          "name": "voter",
          "type": "address"
        }
      ],
      "name": "getShares",
      "outputs": [
        {
          "internalType": "uint256",
          "name": "",
          "type": "uint256"
        }
      ],
      "stateMutability": "view",
      "type": "function"
    },
    {
      "inputs": [
        {
          "internalType": "uint256",
          "name": "proposalId",
          "type": "uint256"
        }
      ],
      "name": "getTotalSharesVoted",
      "outputs": [
        {
          "internalType": "uint256",
          "name": "",
          "type": "uint256"
        }
      ],
      "stateMutability": "view",
      "type": "function"
    },
    {
      "inputs": [
        {
          "internalType": "address",
          "name": "voter",
          "type": "address"
        }
      ],
      "name": "getUserProfile",
      "outputs": [
        {
          "internalType": "uint256",
          "name": "",
          "type": "uint256"
        },
        {
          "components": [
            {
              "internalType": "uint256",
              "name": "proposalId",
              "type": "uint256"
            },
            {
              "internalType": "bool",
              "name": "votedFor",
              "type": "bool"
            },
            {
              "internalType": "uint256",
              "name": "voteWeight",
              "type": "uint256"
            }
          ],
          "internalType": "struct VotingContract.VotingRecord[]",
          "name": "",
          "type": "tuple[]"
        }
      ],
      "stateMutability": "view",
      "type": "function"
    },
    {
      "inputs": [
        {
          "internalType": "uint256",
          "name": "proposalId",
          "type": "uint256"
        }
      ],
      "name": "getVotingProgress",
      "outputs": [
        {
          "internalType": "uint256",
          "name": "progress",
          "type": "uint256"
        },
        {
          "internalType": "uint256",
          "name": "requiredQuorum",
          "type": "uint256"
        }
      ],
      "stateMutability": "view",
      "type": "function"
    },
    {
      "inputs": [],
      "name": "governanceToken",
      "outputs": [
        {
          "internalType": "contract GovernanceToken",
          "name": "",
          "type": "address"
        }
      ],
      "stateMutability": "view",
      "type": "function"
    },
    {
      "inputs": [
        {
          "internalType": "uint256",
          "name": "proposalId",
          "type": "uint256"
        }
      ],
      "name": "hasMetQuorum",
      "outputs": [
        {
          "internalType": "bool",
          "name": "",
          "type": "bool"
        }
      ],
      "stateMutability": "view",
      "type": "function"
    },
    {
      "inputs": [
        {
          "internalType": "address",
          "name": "user",
          "type": "address"
        }
      ],
      "name": "isAdmin",
      "outputs": [
        {
          "internalType": "bool",
          "name": "",
          "type": "bool"
        }
      ],
      "stateMutability": "view",
      "type": "function"
    },
    {
      "inputs": [],
      "name": "isVotingPeriodActive",
      "outputs": [
        {
          "internalType": "bool",
          "name": "",
          "type": "bool"
        }
      ],
      "stateMutability": "view",
      "type": "function"
    },
    {
      "inputs": [],
      "name": "proposalCount",
      "outputs": [
        {
          "internalType": "uint256",
          "name": "",
          "type": "uint256"
        }
      ],
      "stateMutability": "view",
      "type": "function"
    },
    {
      "inputs": [
        {
          "internalType": "uint256",
          "name": "",
          "type": "uint256"
        }
      ],
      "name": "proposalOutcomes",
      "outputs": [
        {
          "internalType": "bool",
          "name": "passed",
          "type": "bool"
        },
        {
          "internalType": "uint256",
          "name": "votesFor",
          "type": "uint256"
        },
        {
          "internalType": "uint256",
          "name": "votesAgainst",
          "type": "uint256"
        }
      ],
      "stateMutability": "view",
      "type": "function"
    },
    {
      "inputs": [
        {
          "internalType": "uint256",
          "name": "",
          "type": "uint256"
        }
      ],
      "name": "proposals",
      "outputs": [
        {
          "internalType": "string",
          "name": "title",
          "type": "string"
        },
        {
          "internalType": "string",
          "name": "description",
          "type": "string"
        },
        {
          "internalType": "uint256",
          "name": "votesFor",
          "type": "uint256"
        },
        {
          "internalType": "uint256",
          "name": "votesAgainst",
          "type": "uint256"
        },
        {
          "internalType": "bool",
          "name": "active",
          "type": "bool"
        },
        {
          "internalType": "uint256",
          "name": "votingEndTime",
          "type": "uint256"
        },
        {
          "internalType": "uint256",
          "name": "totalVotesCast",
          "type": "uint256"
        },
        {
          "internalType": "enum VotingContract.QuorumType",
          "name": "quorumType",
          "type": "uint8"
        }
      ],
      "stateMutability": "view",
      "type": "function"
    },
    {
      "inputs": [
        {
          "internalType": "address",
          "name": "voter",
          "type": "address"
        },
        {
          "internalType": "uint256",
          "name": "shareCount",
          "type": "uint256"
        }
      ],
      "name": "registerShareholder",
      "outputs": [],
      "stateMutability": "nonpayable",
      "type": "function"
    },
    {
      "inputs": [
        {
          "internalType": "address",
          "name": "admin",
          "type": "address"
        }
      ],
      "name": "removeAdmin",
      "outputs": [],
      "stateMutability": "nonpayable",
      "type": "function"
    },
    {
      "inputs": [
        {
          "internalType": "address",
          "name": "",
          "type": "address"
        }
      ],
      "name": "shares",
      "outputs": [
        {
          "internalType": "uint256",
          "name": "",
          "type": "uint256"
        }
      ],
      "stateMutability": "view",
      "type": "function"
    },
    {
      "inputs": [],
      "name": "totalShares",
      "outputs": [
        {
          "internalType": "uint256",
          "name": "",
          "type": "uint256"
        }
      ],
      "stateMutability": "view",
      "type": "function"
    },
    {
      "inputs": [
        {
          "internalType": "address",
          "name": "voter",
          "type": "address"
        },
        {
          "internalType": "uint256",
          "name": "newShares",
          "type": "uint256"
        }
      ],
      "name": "updateShares",
      "outputs": [],
      "stateMutability": "nonpayable",
      "type": "function"
    },
    {
      "inputs": [
        {
          "internalType": "uint256",
          "name": "proposalId",
          "type": "uint256"
        },
        {
          "internalType": "bool",
          "name": "voteFor",
          "type": "bool"
        }
      ],
      "name": "vote",
      "outputs": [],
      "stateMutability": "nonpayable",
      "type": "function"
    },
    {
      "inputs": [],
      "name": "votingEndTime",
      "outputs": [
        {
          "internalType": "uint256",
          "name": "",
          "type": "uint256"
        }
      ],
      "stateMutability": "view",
      "type": "function"
    },
    {
      "inputs": [
        {
          "internalType": "address",
          "name": "",
          "type": "address"
        },
        {
          "internalType": "uint256",
          "name": "",
          "type": "uint256"
        }
      ],
      "name": "votingHistory",
      "outputs": [
        {
          "internalType": "uint256",
          "name": "proposalId",
          "type": "uint256"
        },
        {
          "internalType": "bool",
          "name": "votedFor",
          "type": "bool"
        },
        {
          "internalType": "uint256",
          "name": "voteWeight",
          "type": "uint256"
        }
      ],
      "stateMutability": "view",
      "type": "function"
    }
  ],
  "bytecode": "0x608060405234801561001057600080fd5b5060405161360c38038061360c833981810160405281019061003291906102d1565b80600960006101000a81548173ffffffffffffffffffffffffffffffffffffffff021916908373ffffffffffffffffffffffffffffffffffffffff16021790555060005b82518110156100fe576001600360008584815181106100985761009761032d565b5b602002602001015173ffffffffffffffffffffffffffffffffffffffff1673ffffffffffffffffffffffffffffffffffffffff16815260200190815260200160002060006101000a81548160ff0219169083151502179055508080600101915050610076565b50505061035c565b6000604051905090565b600080fd5b600080fd5b600080fd5b6000601f19601f8301169050919050565b7f4e487b7100000000000000000000000000000000000000000000000000000000600052604160045260246000fd5b6101688261011f565b810181811067ffffffffffffffff8211171561018757610186610130565b5b80604052505050565b600061019a610106565b90506101a6828261015f565b919050565b600067ffffffffffffffff8211156101c6576101c5610130565b5b602082029050602081019050919050565b600080fd5b600073ffffffffffffffffffffffffffffffffffffffff82169050919050565b6000610207826101dc565b9050919050565b610217816101fc565b811461022257600080fd5b50565b6000815190506102348161020e565b92915050565b600061024d610248846101ab565b610190565b905080838252602082019050602084028301858111156102705761026f6101d7565b5b835b8181101561029957806102858882610225565b845260208401935050602081019050610272565b5050509392505050565b600082601f8301126102b8576102b761011a565b5b81516102c884826020860161023a565b91505092915050565b600080604083850312156102e8576102e7610110565b5b600083015167ffffffffffffffff81111561030657610305610115565b5b610312858286016102a3565b925050602061032385828601610225565b9150509250929050565b7f4e487b7100000000000000000000000000000000000000000000000000000000600052603260045260246000fd5b6132a18061036b6000396000f3fe6080604052600436106101815760003560e01c806398e527d3116100d1578063ce7c2ac21161008a578063e5d0821f11610064578063e5d0821f146105e5578063f04da65b1461060e578063f96dae0a1461064b578063fcf0c6ca1461067657610181565b8063ce7c2ac21461053e578063d09c34f21461057b578063da35c664146105ba57610181565b806398e527d3146104195780639baf1c97146104445780639fcc5ce414610482578063a9c0310d146104ad578063afafa0cf146104ec578063c9d27afe1461051557610181565b806362564c481161013e5780637048027511610118578063704802751461035957806370f6e05d146103825780637a7c153b1461039e578063987ee156146103db57610181565b806362564c48146102c3578063649f89a5146102f35780636fdb6f7c1461031c57610181565b8063013cf08b146101865780631785f53c146101ca5780631ea736e0146101f357806324d7806c1461021e5780633a98ef391461025b578063429b62e514610286575b600080fd5b34801561019257600080fd5b506101ad60048036038101906101a891906120b8565b6106b3565b6040516101c1989796959493929190612216565b60405180910390f35b3480156101d657600080fd5b506101f160048036038101906101ec9190612300565b610835565b005b3480156101ff57600080fd5b5061020861091c565b604051610215919061232d565b60405180910390f35b34801561022a57600080fd5b5061024560048036038101906102409190612300565b610922565b6040516102529190612348565b60405180910390f35b34801561026757600080fd5b50610270610978565b60405161027d919061232d565b60405180910390f35b34801561029257600080fd5b506102ad60048036038101906102a89190612300565b61097e565b6040516102ba9190612348565b60405180910390f35b3480156102cf57600080fd5b506102d861099e565b6040516102ea969594939291906125eb565b60405180910390f35b3480156102ff57600080fd5b5061031a600480360381019061031591906120b8565b610e39565b005b34801561032857600080fd5b50610343600480360381019061033e91906120b8565b611125565b60405161035091906126b8565b60405180910390f35b34801561036557600080fd5b50610380600480360381019061037b9190612300565b611181565b005b61039c6004803603810190610397919061282d565b611268565b005b3480156103aa57600080fd5b506103c560048036038101906103c091906120b8565b611501565b6040516103d29190612348565b60405180910390f35b3480156103e757600080fd5b5061040260048036038101906103fd9190612300565b611690565b6040516104109291906129bd565b60405180910390f35b34801561042557600080fd5b5061042e6117a3565b60405161043b919061232d565b60405180910390f35b34801561045057600080fd5b5061046b600480360381019061046691906120b8565b6117ad565b6040516104799291906129ed565b60405180910390f35b34801561048e57600080fd5b50610497611ad8565b6040516104a49190612348565b60405180910390f35b3480156104b957600080fd5b506104d460048036038101906104cf91906120b8565b611aeb565b6040516104e393929190612a16565b60405180910390f35b3480156104f857600080fd5b50610513600480360381019061050e9190612a4d565b611b22565b005b34801561052157600080fd5b5061053c60048036038101906105379190612ab9565b611bd2565b005b34801561054a57600080fd5b5061056560048036038101906105609190612300565b611ea1565b604051610572919061232d565b60405180910390f35b34801561058757600080fd5b506105a2600480360381019061059d9190612a4d565b611eb9565b6040516105b193929190612af9565b60405180910390f35b3480156105c657600080fd5b506105cf611f0d565b6040516105dc919061232d565b60405180910390f35b3480156105f157600080fd5b5061060c60048036038101906106079190612a4d565b611f13565b005b34801561061a57600080fd5b5061063560048036038101906106309190612300565b611f93565b604051610642919061232d565b60405180910390f35b34801561065757600080fd5b50610660611fdb565b60405161066d9190612b8f565b60405180910390f35b34801561068257600080fd5b5061069d600480360381019061069891906120b8565b612001565b6040516106aa919061232d565b60405180910390f35b600681815481106106c357600080fd5b90600052602060002090600802016000915090508060000180546106e690612bd9565b80601f016020809104026020016040519081016040528092919081815260200182805461071290612bd9565b801561075f5780601f106107345761010080835404028352916020019161075f565b820191906000526020600020905b81548152906001019060200180831161074257829003601f168201915b50505050509080600101805461077490612bd9565b80601f01602080910402602001604051908101604052809291908181526020018280546107a090612bd9565b80156107ed5780601f106107c2576101008083540402835291602001916107ed565b820191906000526020600020905b8154815290600101906020018083116107d057829003601f168201915b5050505050908060020154908060030154908060040160009054906101000a900460ff16908060050154908060060154908060070160009054906101000a900460ff16905088565b600360003373ffffffffffffffffffffffffffffffffffffffff1673ffffffffffffffffffffffffffffffffffffffff16815260200190815260200160002060009054906101000a900460ff166108c1576040517f08c379a00000000000000000000000000000000000000000000000000000000081526004016108b890612c7c565b60405180910390fd5b6000600360008373ffffffffffffffffffffffffffffffffffffffff1673ffffffffffffffffffffffffffffffffffffffff16815260200190815260200160002060006101000a81548160ff02191690831515021790555050565b60085481565b6000600360008373ffffffffffffffffffffffffffffffffffffffff1673ffffffffffffffffffffffffffffffffffffffff16815260200190815260200160002060009054906101000a900460ff169050919050565b60055481565b60036020528060005260406000206000915054906101000a900460ff1681565b606080606080606080600060068054905090508067ffffffffffffffff8111156109cb576109ca6126dd565b5b6040519080825280602002602001820160405280156109f95781602001602082028036833780820191505090505b5096508067ffffffffffffffff811115610a1657610a156126dd565b5b604051908082528060200260200182016040528015610a4957816020015b6060815260200190600190039081610a345790505b5095508067ffffffffffffffff811115610a6657610a656126dd565b5b604051908082528060200260200182016040528015610a9957816020015b6060815260200190600190039081610a845790505b5094508067ffffffffffffffff811115610ab657610ab56126dd565b5b604051908082528060200260200182016040528015610ae45781602001602082028036833780820191505090505b5093508067ffffffffffffffff811115610b0157610b006126dd565b5b604051908082528060200260200182016040528015610b2f5781602001602082028036833780820191505090505b5092508067ffffffffffffffff811115610b4c57610b4b6126dd565b5b604051908082528060200260200182016040528015610b7a5781602001602082028036833780820191505090505b50915060005b81811015610e2f5780888281518110610b9c57610b9b612c9c565b5b60200260200101818152505060068181548110610bbc57610bbb612c9c565b5b90600052602060002090600802016000018054610bd890612bd9565b80601f0160208091040260200160405190810160405280929190818152602001828054610c0490612bd9565b8015610c515780601f10610c2657610100808354040283529160200191610c51565b820191906000526020600020905b815481529060010190602001808311610c3457829003601f168201915b5050505050878281518110610c6957610c68612c9c565b5b602002602001018190525060068181548110610c8857610c87612c9c565b5b90600052602060002090600802016001018054610ca490612bd9565b80601f0160208091040260200160405190810160405280929190818152602001828054610cd090612bd9565b8015610d1d5780601f10610cf257610100808354040283529160200191610d1d565b820191906000526020600020905b815481529060010190602001808311610d0057829003601f168201915b5050505050868281518110610d3557610d34612c9c565b5b602002602001018190525060068181548110610d5457610d53612c9c565b5b906000526020600020906008020160020154858281518110610d7957610d78612c9c565b5b60200260200101818152505060068181548110610d9957610d98612c9c565b5b906000526020600020906008020160030154848281518110610dbe57610dbd612c9c565b5b60200260200101818152505060068181548110610dde57610ddd612c9c565b5b906000526020600020906008020160040160009054906101000a900460ff16838281518110610e1057610e0f612c9c565b5b6020026020010190151590811515815250508080600101915050610b80565b5050909192939495565b600060068281548110610e4f57610e4e612c9c565b5b906000526020600020906008020160040160006101000a81548160ff0219169083151502179055506000805b600454811015610ed35760068181548110610e9957610e98612c9c565b5b906000526020600020906008020160040160009054906101000a900460ff1615610ec65760019150610ed3565b8080600101915050610e7b565b50600060068381548110610eea57610ee9612c9c565b5b90600052602060002090600802016003015460068481548110610f1057610f0f612c9c565b5b9060005260206000209060080201600201541190506040518060600160405280821515815260200160068581548110610f4c57610f4b612c9c565b5b906000526020600020906008020160020154815260200160068581548110610f7757610f76612c9c565b5b9060005260206000209060080201600301548152506002600085815260200190815260200160002060008201518160000160006101000a81548160ff021916908315150217905550602082015181600101556040820151816002015590505060068381548110610fea57610fe9612c9c565b5b90600052602060002090600802016005015442118015611010575061100e83611501565b155b156111065760006006848154811061102b5761102a612c9c565b5b906000526020600020906008020160040160006101000a81548160ff02191690831515021790555060405180606001604052806000151581526020016006858154811061107b5761107a612c9c565b5b9060005260206000209060080201600201548152602001600685815481106110a6576110a5612c9c565b5b9060005260206000209060080201600301548152506002600085815260200190815260200160002060008201518160000160006101000a81548160ff02191690831515021790555060208201518160010155604082015181600201559050505b81600760006101000a81548160ff021916908315150217905550505050565b61112d61204b565b600260008381526020019081526020016000206040518060600160405290816000820160009054906101000a900460ff16151515158152602001600182015481526020016002820154815250509050919050565b600360003373ffffffffffffffffffffffffffffffffffffffff1673ffffffffffffffffffffffffffffffffffffffff16815260200190815260200160002060009054906101000a900460ff1661120d576040517f08c379a000000000000000000000000000000000000000000000000000000000815260040161120490612c7c565b60405180910390fd5b6001600360008373ffffffffffffffffffffffffffffffffffffffff1673ffffffffffffffffffffffffffffffffffffffff16815260200190815260200160002060006101000a81548160ff02191690831515021790555050565b600360003373ffffffffffffffffffffffffffffffffffffffff1673ffffffffffffffffffffffffffffffffffffffff16815260200190815260200160002060009054906101000a900460ff166112f4576040517f08c379a00000000000000000000000000000000000000000000000000000000081526004016112eb90612c7c565b60405180910390fd5b60003411611337576040517f08c379a000000000000000000000000000000000000000000000000000000000815260040161132e90612d3d565b60405180910390fd5b6040518061010001604052808581526020018481526020016000815260200160008152602001600115158152602001603c846113739190612d8c565b4261137e9190612dce565b81526020016000815260200182600381111561139d5761139c61219f565b5b8152506006600454815481106113b6576113b5612c9c565b5b906000526020600020906008020160008201518160000190816113d99190612fa4565b5060208201518160010190816113ef9190612fa4565b50604082015181600201556060820151816003015560808201518160040160006101000a81548160ff02191690831515021790555060a0820151816005015560c0820151816006015560e08201518160070160006101000a81548160ff021916908360038111156114635761146261219f565b5b02179055509050506001600760006101000a81548160ff021916908315150217905550603c826114939190612d8c565b4261149e9190612dce565b6008819055507ff5dc0da9afa6d080780a49fd8c680f03d2ddf3c067cd6d0c85360c096644d2d3600454846008546040516114db93929190613076565b60405180910390a1600460008154809291906114f6906130b4565b919050555050505050565b6000806006838154811061151857611517612c9c565b5b90600052602060002090600802019050600080600381111561153d5761153c61219f565b5b8260070160009054906101000a900460ff1660038111156115615761156061219f565b5b0361157c576002600554611575919061312b565b905061167f565b600160038111156115905761158f61219f565b5b8260070160009054906101000a900460ff1660038111156115b4576115b361219f565b5b036115db57600360026005546115ca9190612d8c565b6115d4919061312b565b905061167e565b600260038111156115ef576115ee61219f565b5b8260070160009054906101000a900460ff1660038111156116135761161261219f565b5b0361163a57600460036005546116299190612d8c565b611633919061312b565b905061167d565b60038081111561164d5761164c61219f565b5b8260070160009054906101000a900460ff1660038111156116715761167061219f565b5b0361167c5760055490505b5b5b5b808260020154101592505050919050565b600060606000808473ffffffffffffffffffffffffffffffffffffffff1673ffffffffffffffffffffffffffffffffffffffff16815260200190815260200160002054600160008573ffffffffffffffffffffffffffffffffffffffff1673ffffffffffffffffffffffffffffffffffffffff16815260200190815260200160002080805480602002602001604051908101604052809291908181526020016000905b828210156117945783829060005260206000209060030201604051806060016040529081600082015481526020016001820160009054906101000a900460ff1615151515815260200160028201548152505081526020019060010190611733565b50505050905091509150915091565b6000600454905090565b6000806000600684815481106117c6576117c5612c9c565b5b9060005260206000209060080201604051806101000160405290816000820180546117f090612bd9565b80601f016020809104026020016040519081016040528092919081815260200182805461181c90612bd9565b80156118695780601f1061183e57610100808354040283529160200191611869565b820191906000526020600020905b81548152906001019060200180831161184c57829003601f168201915b5050505050815260200160018201805461188290612bd9565b80601f01602080910402602001604051908101604052809291908181526020018280546118ae90612bd9565b80156118fb5780601f106118d0576101008083540402835291602001916118fb565b820191906000526020600020905b8154815290600101906020018083116118de57829003601f168201915b5050505050815260200160028201548152602001600382015481526020016004820160009054906101000a900460ff1615151515815260200160058201548152602001600682015481526020016007820160009054906101000a900460ff16600381111561196c5761196b61219f565b5b600381111561197e5761197d61219f565b5b81525050905060008160c001519050600060055460648361199f9190612d8c565b6119a9919061312b565b9050600060038111156119bf576119be61219f565b5b8360e0015160038111156119d6576119d561219f565b5b036119f15760026005546119ea919061312b565b9350611acd565b60016003811115611a0557611a0461219f565b5b8360e001516003811115611a1c57611a1b61219f565b5b03611a435760036002600554611a329190612d8c565b611a3c919061312b565b9350611acc565b60026003811115611a5757611a5661219f565b5b8360e001516003811115611a6e57611a6d61219f565b5b03611a955760046003600554611a849190612d8c565b611a8e919061312b565b9350611acb565b600380811115611aa857611aa761219f565b5b8360e001516003811115611abf57611abe61219f565b5b03611aca5760055493505b5b5b5b809450505050915091565b600760009054906101000a900460ff1681565b60026020528060005260406000206000915090508060000160009054906101000a900460ff16908060010154908060020154905083565b600760009054906101000a900460ff1615611b72576040517f08c379a0000000000000000000000000000000000000000000000000000000008152600401611b69906131ce565b60405180910390fd5b806000808473ffffffffffffffffffffffffffffffffffffffff1673ffffffffffffffffffffffffffffffffffffffff168152602001908152602001600020819055508060056000828254611bc79190612dce565b925050819055505050565b60006005546127106000803373ffffffffffffffffffffffffffffffffffffffff1673ffffffffffffffffffffffffffffffffffffffff16815260200190815260200160002054611c239190612d8c565b611c2d919061312b565b90508115611c76578060068481548110611c4a57611c49612c9c565b5b90600052602060002090600802016002016000828254611c6a9190612dce565b92505081905550611cb3565b8060068481548110611c8b57611c8a612c9c565b5b90600052602060002090600802016003016000828254611cab9190612dce565b925050819055505b8060068481548110611cc857611cc7612c9c565b5b90600052602060002090600802016006016000828254611ce89190612dce565b92505081905550600160003373ffffffffffffffffffffffffffffffffffffffff1673ffffffffffffffffffffffffffffffffffffffff168152602001908152602001600020604051806060016040528085815260200184151581526020018381525090806001815401808255809150506001900390600052602060002090600302016000909190919091506000820151816000015560208201518160010160006101000a81548160ff0219169083151502179055506040820151816002015550506000611db582612035565b9050600960009054906101000a900473ffffffffffffffffffffffffffffffffffffffff1673ffffffffffffffffffffffffffffffffffffffff166340c10f1933836040518363ffffffff1660e01b8152600401611e149291906131fd565b600060405180830381600087803b158015611e2e57600080fd5b505af1158015611e42573d6000803e3d6000fd5b505050507fb898e75d5aac8de2f407e4a683c8d909e832d1e371e3bff0fa3ed934e88d956284338486604051611e7b9493929190613226565b60405180910390a1611e8c84611501565b15611e9b57611e9a84610e39565b5b50505050565b60006020528060005260406000206000915090505481565b60016020528160005260406000208181548110611ed557600080fd5b9060005260206000209060030201600091509150508060000154908060010160009054906101000a900460ff16908060020154905083565b60045481565b806000808473ffffffffffffffffffffffffffffffffffffffff1673ffffffffffffffffffffffffffffffffffffffff168152602001908152602001600020819055507fe6382c9ed5c0c33bb05042f73cf6cbe9cb25639f9a711e094ee563bc9cb80e2c8282604051611f879291906131fd565b60405180910390a15050565b60008060008373ffffffffffffffffffffffffffffffffffffffff1673ffffffffffffffffffffffffffffffffffffffff168152602001908152602001600020549050919050565b600960009054906101000a900473ffffffffffffffffffffffffffffffffffffffff1681565b6000806006838154811061201857612017612c9c565b5b906000526020600020906008020160060154905080915050919050565b6000606482612044919061312b565b9050919050565b604051806060016040528060001515815260200160008152602001600081525090565b6000604051905090565b600080fd5b600080fd5b6000819050919050565b61209581612082565b81146120a057600080fd5b50565b6000813590506120b28161208c565b92915050565b6000602082840312156120ce576120cd612078565b5b60006120dc848285016120a3565b91505092915050565b600081519050919050565b600082825260208201905092915050565b60005b8381101561211f578082015181840152602081019050612104565b60008484015250505050565b6000601f19601f8301169050919050565b6000612147826120e5565b61215181856120f0565b9350612161818560208601612101565b61216a8161212b565b840191505092915050565b61217e81612082565b82525050565b60008115159050919050565b61219981612184565b82525050565b7f4e487b7100000000000000000000000000000000000000000000000000000000600052602160045260246000fd5b600481106121df576121de61219f565b5b50565b60008190506121f0826121ce565b919050565b6000612200826121e2565b9050919050565b612210816121f5565b82525050565b6000610100820190508181036000830152612231818b61213c565b90508181036020830152612245818a61213c565b90506122546040830189612175565b6122616060830188612175565b61226e6080830187612190565b61227b60a0830186612175565b61228860c0830185612175565b61229560e0830184612207565b9998505050505050505050565b600073ffffffffffffffffffffffffffffffffffffffff82169050919050565b60006122cd826122a2565b9050919050565b6122dd816122c2565b81146122e857600080fd5b50565b6000813590506122fa816122d4565b92915050565b60006020828403121561231657612315612078565b5b6000612324848285016122eb565b91505092915050565b60006020820190506123426000830184612175565b92915050565b600060208201905061235d6000830184612190565b92915050565b600081519050919050565b600082825260208201905092915050565b6000819050602082019050919050565b61239881612082565b82525050565b60006123aa838361238f565b60208301905092915050565b6000602082019050919050565b60006123ce82612363565b6123d8818561236e565b93506123e38361237f565b8060005b838110156124145781516123fb888261239e565b9750612406836123b6565b9250506001810190506123e7565b5085935050505092915050565b600081519050919050565b600082825260208201905092915050565b6000819050602082019050919050565b600082825260208201905092915050565b6000612469826120e5565b612473818561244d565b9350612483818560208601612101565b61248c8161212b565b840191505092915050565b60006124a3838361245e565b905092915050565b6000602082019050919050565b60006124c382612421565b6124cd818561242c565b9350836020820285016124df8561243d565b8060005b8581101561251b57848403895281516124fc8582612497565b9450612507836124ab565b925060208a019950506001810190506124e3565b50829750879550505050505092915050565b600081519050919050565b600082825260208201905092915050565b6000819050602082019050919050565b61256281612184565b82525050565b60006125748383612559565b60208301905092915050565b6000602082019050919050565b60006125988261252d565b6125a28185612538565b93506125ad83612549565b8060005b838110156125de5781516125c58882612568565b97506125d083612580565b9250506001810190506125b1565b5085935050505092915050565b600060c082019050818103600083015261260581896123c3565b9050818103602083015261261981886124b8565b9050818103604083015261262d81876124b8565b9050818103606083015261264181866123c3565b9050818103608083015261265581856123c3565b905081810360a0830152612669818461258d565b9050979650505050505050565b60608201600082015161268c6000850182612559565b50602082015161269f602085018261238f565b5060408201516126b2604085018261238f565b50505050565b60006060820190506126cd6000830184612676565b92915050565b600080fd5b600080fd5b7f4e487b7100000000000000000000000000000000000000000000000000000000600052604160045260246000fd5b6127158261212b565b810181811067ffffffffffffffff82111715612734576127336126dd565b5b80604052505050565b600061274761206e565b9050612753828261270c565b919050565b600067ffffffffffffffff821115612773576127726126dd565b5b61277c8261212b565b9050602081019050919050565b82818337600083830152505050565b60006127ab6127a684612758565b61273d565b9050828152602081018484840111156127c7576127c66126d8565b5b6127d2848285612789565b509392505050565b600082601f8301126127ef576127ee6126d3565b5b81356127ff848260208601612798565b91505092915050565b6004811061281557600080fd5b50565b60008135905061282781612808565b92915050565b6000806000806080858703121561284757612846612078565b5b600085013567ffffffffffffffff8111156128655761286461207d565b5b612871878288016127da565b945050602085013567ffffffffffffffff8111156128925761289161207d565b5b61289e878288016127da565b93505060406128af878288016120a3565b92505060606128c087828801612818565b91505092959194509250565b600081519050919050565b600082825260208201905092915050565b6000819050602082019050919050565b60608201600082015161290e600085018261238f565b5060208201516129216020850182612559565b506040820151612934604085018261238f565b50505050565b600061294683836128f8565b60608301905092915050565b6000602082019050919050565b600061296a826128cc565b61297481856128d7565b935061297f836128e8565b8060005b838110156129b0578151612997888261293a565b97506129a283612952565b925050600181019050612983565b5085935050505092915050565b60006040820190506129d26000830185612175565b81810360208301526129e4818461295f565b90509392505050565b6000604082019050612a026000830185612175565b612a0f6020830184612175565b9392505050565b6000606082019050612a2b6000830186612190565b612a386020830185612175565b612a456040830184612175565b949350505050565b60008060408385031215612a6457612a63612078565b5b6000612a72858286016122eb565b9250506020612a83858286016120a3565b9150509250929050565b612a9681612184565b8114612aa157600080fd5b50565b600081359050612ab381612a8d565b92915050565b60008060408385031215612ad057612acf612078565b5b6000612ade858286016120a3565b9250506020612aef85828601612aa4565b9150509250929050565b6000606082019050612b0e6000830186612175565b612b1b6020830185612190565b612b286040830184612175565b949350505050565b6000819050919050565b6000612b55612b50612b4b846122a2565b612b30565b6122a2565b9050919050565b6000612b6782612b3a565b9050919050565b6000612b7982612b5c565b9050919050565b612b8981612b6e565b82525050565b6000602082019050612ba46000830184612b80565b92915050565b7f4e487b7100000000000000000000000000000000000000000000000000000000600052602260045260246000fd5b60006002820490506001821680612bf157607f821691505b602082108103612c0457612c03612baa565b5b50919050565b7f4f6e6c792061646d696e732063616e20706572666f726d20746869732061637460008201527f696f6e0000000000000000000000000000000000000000000000000000000000602082015250565b6000612c666023836120f0565b9150612c7182612c0a565b604082019050919050565b60006020820190508181036000830152612c9581612c59565b9050919050565b7f4e487b7100000000000000000000000000000000000000000000000000000000600052603260045260246000fd5b7f45544820726571756972656420666f72206372656174696e672070726f706f7360008201527f616c000000000000000000000000000000000000000000000000000000000000602082015250565b6000612d276022836120f0565b9150612d3282612ccb565b604082019050919050565b60006020820190508181036000830152612d5681612d1a565b9050919050565b7f4e487b7100000000000000000000000000000000000000000000000000000000600052601160045260246000fd5b6000612d9782612082565b9150612da283612082565b9250828202612db081612082565b91508282048414831517612dc757612dc6612d5d565b5b5092915050565b6000612dd982612082565b9150612de483612082565b9250828201905080821115612dfc57612dfb612d5d565b5b92915050565b60008190508160005260206000209050919050565b60006020601f8301049050919050565b600082821b905092915050565b600060088302612e647fffffffffffffffffffffffffffffffffffffffffffffffffffffffffffffffff82612e27565b612e6e8683612e27565b95508019841693508086168417925050509392505050565b6000612ea1612e9c612e9784612082565b612b30565b612082565b9050919050565b6000819050919050565b612ebb83612e86565b612ecf612ec782612ea8565b848454612e34565b825550505050565b600090565b612ee4612ed7565b612eef818484612eb2565b505050565b5b81811015612f1357612f08600082612edc565b600181019050612ef5565b5050565b601f821115612f5857612f2981612e02565b612f3284612e17565b81016020851015612f41578190505b612f55612f4d85612e17565b830182612ef4565b50505b505050565b600082821c905092915050565b6000612f7b60001984600802612f5d565b1980831691505092915050565b6000612f948383612f6a565b9150826002028217905092915050565b612fad826120e5565b67ffffffffffffffff811115612fc657612fc56126dd565b5b612fd08254612bd9565b612fdb828285612f17565b600060209050601f83116001811461300e5760008415612ffc578287015190505b6130068582612f88565b86555061306e565b601f19841661301c86612e02565b60005b828110156130445784890151825560018201915060208501945060208101905061301f565b86831015613061578489015161305d601f891682612f6a565b8355505b6001600288020188555050505b505050505050565b600060608201905061308b6000830186612175565b818103602083015261309d818561213c565b90506130ac6040830184612175565b949350505050565b60006130bf82612082565b91507fffffffffffffffffffffffffffffffffffffffffffffffffffffffffffffffff82036130f1576130f0612d5d565b5b600182019050919050565b7f4e487b7100000000000000000000000000000000000000000000000000000000600052601260045260246000fd5b600061313682612082565b915061314183612082565b925082613151576131506130fc565b5b828204905092915050565b7f4865792069747320616e2061637469766520766f74696e6720706572696f642c60008201527f20796f752063616e6e6f7420766f7465206e6f772e0000000000000000000000602082015250565b60006131b86035836120f0565b91506131c38261315c565b604082019050919050565b600060208201905081810360008301526131e7816131ab565b9050919050565b6131f7816122c2565b82525050565b600060408201905061321260008301856131ee565b61321f6020830184612175565b9392505050565b600060808201905061323b6000830187612175565b61324860208301866131ee565b6132556040830185612175565b6132626060830184612190565b9594505050505056fea26469706673582212208bfe81853d0937590977c868de55e8fde0e0d93f15b97adeb35f73870a72f42c64736f6c634300081a0033",
  "linkReferences": {},
  "deployedLinkReferences": {}
}