{
  "_format": "hh-sol-artifact-1",
  "contractName": "VotingContract",
  "sourceName": "contracts/smartContract.sol",
  "abi": [
    {
      "inputs": [
        {
          "internalType": "address[]",
          "name": "initialAdmins",
          "type": "address[]"
        },
        {
          "internalType": "address",
          "name": "_tokenAddress",
          "type": "address"
        }
      ],
      "stateMutability": "nonpayable",
      "type": "constructor"
    },
    {
      "anonymous": false,
      "inputs": [
        {
          "indexed": false,
          "internalType": "uint256",
          "name": "proposalId",
          "type": "uint256"
        },
        {
          "indexed": false,
          "internalType": "string",
          "name": "title",
          "type": "string"
        },
        {
          "indexed": false,
          "internalType": "string",
          "name": "description",
          "type": "string"
        },
        {
          "indexed": false,
          "internalType": "uint256",
          "name": "durationInMinutes",
          "type": "uint256"
        },
        {
          "indexed": false,
          "internalType": "uint8",
          "name": "quorumType",
          "type": "uint8"
        },
        {
          "indexed": false,
          "internalType": "uint256",
          "name": "endTime",
          "type": "uint256"
        },
        {
          "indexed": false,
          "internalType": "address",
          "name": "proposer",
          "type": "address"
        }
      ],
      "name": "ProposalCreated",
      "type": "event"
    },
    {
      "anonymous": false,
      "inputs": [
        {
          "indexed": true,
          "internalType": "uint256",
          "name": "proposalId",
          "type": "uint256"
        }
      ],
      "name": "ProposalDeleted",
      "type": "event"
    },
    {
      "anonymous": false,
      "inputs": [
        {
          "indexed": false,
          "internalType": "address",
          "name": "voter",
          "type": "address"
        },
        {
          "indexed": false,
          "internalType": "uint256",
          "name": "rewardAmount",
          "type": "uint256"
        }
      ],
      "name": "RewardIssued",
      "type": "event"
    },
    {
      "anonymous": false,
      "inputs": [
        {
          "indexed": false,
          "internalType": "address",
          "name": "voter",
          "type": "address"
        },
        {
          "indexed": false,
          "internalType": "uint256",
          "name": "newShares",
          "type": "uint256"
        }
      ],
      "name": "SharesUpdated",
      "type": "event"
    },
    {
      "anonymous": false,
      "inputs": [
        {
          "indexed": false,
          "internalType": "uint256",
          "name": "proposalId",
          "type": "uint256"
        },
        {
          "indexed": false,
          "internalType": "address",
          "name": "voter",
          "type": "address"
        },
        {
          "indexed": false,
          "internalType": "uint256",
          "name": "weight",
          "type": "uint256"
        },
        {
          "indexed": false,
          "internalType": "bool",
          "name": "voteFor",
          "type": "bool"
        }
      ],
      "name": "VoteCast",
      "type": "event"
    },
    {
      "inputs": [
        {
          "internalType": "address",
          "name": "newAdmin",
          "type": "address"
        }
      ],
      "name": "addAdmin",
      "outputs": [],
      "stateMutability": "nonpayable",
      "type": "function"
    },
    {
      "inputs": [
        {
          "internalType": "address",
          "name": "",
          "type": "address"
        }
      ],
      "name": "admins",
      "outputs": [
        {
          "internalType": "bool",
          "name": "",
          "type": "bool"
        }
      ],
      "stateMutability": "view",
      "type": "function"
    },
    {
      "inputs": [
        {
          "internalType": "address",
          "name": "voter",
          "type": "address"
        }
      ],
      "name": "calculateVotingWeight",
      "outputs": [
        {
          "internalType": "uint256",
          "name": "",
          "type": "uint256"
        }
      ],
      "stateMutability": "view",
      "type": "function"
    },
    {
      "inputs": [
        {
          "internalType": "uint256",
          "name": "proposalId",
          "type": "uint256"
        },
        {
          "internalType": "bool",
          "name": "voteFor",
          "type": "bool"
        }
      ],
      "name": "castVote",
      "outputs": [],
      "stateMutability": "nonpayable",
      "type": "function"
    },
    {
      "inputs": [
        {
          "internalType": "string",
          "name": "title",
          "type": "string"
        },
        {
          "internalType": "string",
          "name": "description",
          "type": "string"
        },
        {
          "internalType": "uint256",
          "name": "durationInMinutes",
          "type": "uint256"
        },
        {
          "internalType": "uint8",
          "name": "quorumType",
          "type": "uint8"
        }
      ],
      "name": "createProposal",
      "outputs": [],
      "stateMutability": "payable",
      "type": "function"
    },
    {
      "inputs": [
        {
          "internalType": "uint256",
          "name": "proposalId",
          "type": "uint256"
        }
      ],
      "name": "deleteProposal",
      "outputs": [],
      "stateMutability": "nonpayable",
      "type": "function"
    },
    {
      "inputs": [
        {
          "internalType": "uint256",
          "name": "proposalId",
          "type": "uint256"
        }
      ],
      "name": "getProposalOutcome",
      "outputs": [
        {
          "components": [
            {
              "internalType": "bool",
              "name": "passed",
              "type": "bool"
            },
            {
              "internalType": "uint256",
              "name": "votesFor",
              "type": "uint256"
            },
            {
              "internalType": "uint256",
              "name": "votesAgainst",
              "type": "uint256"
            }
          ],
          "internalType": "struct VotingContract.ProposalOutcome",
          "name": "",
          "type": "tuple"
        }
      ],
      "stateMutability": "view",
      "type": "function"
    },
    {
      "inputs": [],
      "name": "getProposals",
      "outputs": [
        {
          "components": [
            {
              "internalType": "string",
              "name": "title",
              "type": "string"
            },
            {
              "internalType": "string",
              "name": "description",
              "type": "string"
            },
            {
              "internalType": "uint256",
              "name": "durationInMinutes",
              "type": "uint256"
            },
            {
              "internalType": "uint8",
              "name": "quorumType",
              "type": "uint8"
            },
            {
              "internalType": "uint256",
              "name": "endTime",
              "type": "uint256"
            },
            {
              "internalType": "address",
              "name": "proposer",
              "type": "address"
            },
            {
              "internalType": "bool",
              "name": "active",
              "type": "bool"
            },
            {
              "internalType": "uint256",
              "name": "votesFor",
              "type": "uint256"
            },
            {
              "internalType": "uint256",
              "name": "votesAgainst",
              "type": "uint256"
            }
          ],
          "internalType": "struct VotingContract.Proposal[]",
          "name": "",
          "type": "tuple[]"
        }
      ],
      "stateMutability": "view",
      "type": "function"
    },
    {
      "inputs": [],
      "name": "getProposalsCount",
      "outputs": [
        {
          "internalType": "uint256",
          "name": "",
          "type": "uint256"
        }
      ],
      "stateMutability": "view",
      "type": "function"
    },
    {
      "inputs": [
        {
          "internalType": "address",
          "name": "account",
          "type": "address"
        }
      ],
      "name": "getTokens",
      "outputs": [
        {
          "internalType": "uint256",
          "name": "",
          "type": "uint256"
        }
      ],
      "stateMutability": "view",
      "type": "function"
    },
    {
      "inputs": [],
      "name": "governanceToken",
      "outputs": [
        {
          "internalType": "contract GovernanceToken",
          "name": "",
          "type": "address"
        }
      ],
      "stateMutability": "view",
      "type": "function"
    },
    {
      "inputs": [
        {
          "internalType": "address",
          "name": "user",
          "type": "address"
        }
      ],
      "name": "isAdmin",
      "outputs": [
        {
          "internalType": "bool",
          "name": "",
          "type": "bool"
        }
      ],
      "stateMutability": "view",
      "type": "function"
    },
    {
      "inputs": [],
      "name": "isVotingPeriodActive",
      "outputs": [
        {
          "internalType": "bool",
          "name": "",
          "type": "bool"
        }
      ],
      "stateMutability": "view",
      "type": "function"
    },
    {
      "inputs": [],
      "name": "proposalCount",
      "outputs": [
        {
          "internalType": "uint256",
          "name": "",
          "type": "uint256"
        }
      ],
      "stateMutability": "view",
      "type": "function"
    },
    {
      "inputs": [
        {
          "internalType": "uint256",
          "name": "",
          "type": "uint256"
        }
      ],
      "name": "proposalOutcomes",
      "outputs": [
        {
          "internalType": "bool",
          "name": "passed",
          "type": "bool"
        },
        {
          "internalType": "uint256",
          "name": "votesFor",
          "type": "uint256"
        },
        {
          "internalType": "uint256",
          "name": "votesAgainst",
          "type": "uint256"
        }
      ],
      "stateMutability": "view",
      "type": "function"
    },
    {
      "inputs": [
        {
          "internalType": "uint256",
          "name": "",
          "type": "uint256"
        }
      ],
      "name": "proposals",
      "outputs": [
        {
          "internalType": "string",
          "name": "title",
          "type": "string"
        },
        {
          "internalType": "string",
          "name": "description",
          "type": "string"
        },
        {
          "internalType": "uint256",
          "name": "durationInMinutes",
          "type": "uint256"
        },
        {
          "internalType": "uint8",
          "name": "quorumType",
          "type": "uint8"
        },
        {
          "internalType": "uint256",
          "name": "endTime",
          "type": "uint256"
        },
        {
          "internalType": "address",
          "name": "proposer",
          "type": "address"
        },
        {
          "internalType": "bool",
          "name": "active",
          "type": "bool"
        },
        {
          "internalType": "uint256",
          "name": "votesFor",
          "type": "uint256"
        },
        {
          "internalType": "uint256",
          "name": "votesAgainst",
          "type": "uint256"
        }
      ],
      "stateMutability": "view",
      "type": "function"
    },
    {
      "inputs": [
        {
          "internalType": "address",
          "name": "account",
          "type": "address"
        },
        {
          "internalType": "uint256",
          "name": "_shares",
          "type": "uint256"
        }
      ],
      "name": "registerShareholder",
      "outputs": [],
      "stateMutability": "nonpayable",
      "type": "function"
    },
    {
      "inputs": [
        {
          "internalType": "address",
          "name": "admin",
          "type": "address"
        }
      ],
      "name": "removeAdmin",
      "outputs": [],
      "stateMutability": "nonpayable",
      "type": "function"
    },
    {
      "inputs": [
        {
          "internalType": "address",
          "name": "",
          "type": "address"
        }
      ],
      "name": "shares",
      "outputs": [
        {
          "internalType": "uint256",
          "name": "",
          "type": "uint256"
        }
      ],
      "stateMutability": "view",
      "type": "function"
    },
    {
      "inputs": [
        {
          "internalType": "address",
          "name": "",
          "type": "address"
        }
      ],
      "name": "tokens",
      "outputs": [
        {
          "internalType": "uint256",
          "name": "",
          "type": "uint256"
        }
      ],
      "stateMutability": "view",
      "type": "function"
    },
    {
      "inputs": [],
      "name": "totalShares",
      "outputs": [
        {
          "internalType": "uint256",
          "name": "",
          "type": "uint256"
        }
      ],
      "stateMutability": "view",
      "type": "function"
    },
    {
      "inputs": [
        {
          "internalType": "address",
          "name": "voter",
          "type": "address"
        },
        {
          "internalType": "uint256",
          "name": "newShares",
          "type": "uint256"
        }
      ],
      "name": "updateShares",
      "outputs": [],
      "stateMutability": "nonpayable",
      "type": "function"
    },
    {
      "inputs": [
        {
          "internalType": "address",
          "name": "account",
          "type": "address"
        },
        {
          "internalType": "uint256",
          "name": "voteAmount",
          "type": "uint256"
        }
      ],
      "name": "vote",
      "outputs": [],
      "stateMutability": "nonpayable",
      "type": "function"
    },
    {
      "inputs": [
        {
          "internalType": "address",
          "name": "",
          "type": "address"
        }
      ],
      "name": "voted",
      "outputs": [
        {
          "internalType": "bool",
          "name": "",
          "type": "bool"
        }
      ],
      "stateMutability": "view",
      "type": "function"
    },
    {
      "inputs": [],
      "name": "votingEndTime",
      "outputs": [
        {
          "internalType": "uint256",
          "name": "",
          "type": "uint256"
        }
      ],
      "stateMutability": "view",
      "type": "function"
    },
    {
      "inputs": [
        {
          "internalType": "address",
          "name": "",
          "type": "address"
        },
        {
          "internalType": "uint256",
          "name": "",
          "type": "uint256"
        }
      ],
      "name": "votingHistory",
      "outputs": [
        {
          "internalType": "uint256",
          "name": "proposalId",
          "type": "uint256"
        },
        {
          "internalType": "bool",
          "name": "votedFor",
          "type": "bool"
        },
        {
          "internalType": "uint256",
          "name": "voteWeight",
          "type": "uint256"
        }
      ],
      "stateMutability": "view",
      "type": "function"
    }
  ],
  "bytecode": "0x60806040523480156200001157600080fd5b506040516200304d3803806200304d833981810160405281019062000037919062000307565b80600b60006101000a81548173ffffffffffffffffffffffffffffffffffffffff021916908373ffffffffffffffffffffffffffffffffffffffff16021790555060005b82518110156200011057600160046000858481518110620000a157620000a06200036d565b5b602002602001015173ffffffffffffffffffffffffffffffffffffffff1673ffffffffffffffffffffffffffffffffffffffff16815260200190815260200160002060006101000a81548160ff02191690831515021790555080806200010790620003d5565b9150506200007b565b50505062000422565b6000604051905090565b600080fd5b600080fd5b600080fd5b6000601f19601f8301169050919050565b7f4e487b7100000000000000000000000000000000000000000000000000000000600052604160045260246000fd5b6200017d8262000132565b810181811067ffffffffffffffff821117156200019f576200019e62000143565b5b80604052505050565b6000620001b462000119565b9050620001c2828262000172565b919050565b600067ffffffffffffffff821115620001e557620001e462000143565b5b602082029050602081019050919050565b600080fd5b600073ffffffffffffffffffffffffffffffffffffffff82169050919050565b60006200022882620001fb565b9050919050565b6200023a816200021b565b81146200024657600080fd5b50565b6000815190506200025a816200022f565b92915050565b6000620002776200027184620001c7565b620001a8565b905080838252602082019050602084028301858111156200029d576200029c620001f6565b5b835b81811015620002ca5780620002b5888262000249565b8452602084019350506020810190506200029f565b5050509392505050565b600082601f830112620002ec57620002eb6200012d565b5b8151620002fe84826020860162000260565b91505092915050565b6000806040838503121562000321576200032062000123565b5b600083015167ffffffffffffffff81111562000342576200034162000128565b5b6200035085828601620002d4565b9250506020620003638582860162000249565b9150509250929050565b7f4e487b7100000000000000000000000000000000000000000000000000000000600052603260045260246000fd5b7f4e487b7100000000000000000000000000000000000000000000000000000000600052601160045260246000fd5b6000819050919050565b6000620003e282620003cb565b91507fffffffffffffffffffffffffffffffffffffffffffffffffffffffffffffffff82036200041757620004166200039c565b5b600182019050919050565b612c1b80620004326000396000f3fe6080604052600436106101815760003560e01c806370f6e05d116100d1578063afafa0cf1161008a578063da35c66411610064578063da35c664146105dd578063e486033914610608578063e5d0821f14610645578063f96dae0a1461066e57610181565b8063afafa0cf14610538578063ce7c2ac214610561578063d09c34f21461059e57610181565b806370f6e05d146104215780638259d5531461043d57806398e527d3146104665780639fcc5ce414610491578063a9c0310d146104bc578063aec2ccae146104fb57610181565b80633a98ef391161013e5780635f74bbde116101185780635f74bbde1461036757806362564c48146103905780636fdb6f7c146103bb57806370480275146103f857610181565b80633a98ef39146102c2578063429b62e5146102ed578063450efe211461032a57610181565b8063013cf08b1461018657806315373e3d146101cb5780631785f53c146101f45780631ea736e01461021d57806324d7806c14610248578063317571b214610285575b600080fd5b34801561019257600080fd5b506101ad60048036038101906101a8919061198f565b610699565b6040516101c299989796959493929190611ad3565b60405180910390f35b3480156101d757600080fd5b506101f260048036038101906101ed9190611b9a565b610841565b005b34801561020057600080fd5b5061021b60048036038101906102169190611c06565b610b69565b005b34801561022957600080fd5b50610232610c50565b60405161023f9190611c33565b60405180910390f35b34801561025457600080fd5b5061026f600480360381019061026a9190611c06565b610c56565b60405161027c9190611c4e565b60405180910390f35b34801561029157600080fd5b506102ac60048036038101906102a79190611c06565b610cac565b6040516102b99190611c33565b60405180910390f35b3480156102ce57600080fd5b506102d7610d51565b6040516102e49190611c33565b60405180910390f35b3480156102f957600080fd5b50610314600480360381019061030f9190611c06565b610d57565b6040516103219190611c4e565b60405180910390f35b34801561033657600080fd5b50610351600480360381019061034c9190611c06565b610d77565b60405161035e9190611c33565b60405180910390f35b34801561037357600080fd5b5061038e60048036038101906103899190611c69565b610dc0565b005b34801561039c57600080fd5b506103a5610fee565b6040516103b29190611ebd565b60405180910390f35b3480156103c757600080fd5b506103e260048036038101906103dd919061198f565b611228565b6040516103ef9190611f21565b60405180910390f35b34801561040457600080fd5b5061041f600480360381019061041a9190611c06565b611284565b005b61043b6004803603810190610436919061209d565b61136b565b005b34801561044957600080fd5b50610464600480360381019061045f919061198f565b6115b2565b005b34801561047257600080fd5b5061047b6116f3565b6040516104889190611c33565b60405180910390f35b34801561049d57600080fd5b506104a66116fd565b6040516104b39190611c4e565b60405180910390f35b3480156104c857600080fd5b506104e360048036038101906104de919061198f565b611710565b6040516104f29392919061213c565b60405180910390f35b34801561050757600080fd5b50610522600480360381019061051d9190611c06565b611747565b60405161052f9190611c4e565b60405180910390f35b34801561054457600080fd5b5061055f600480360381019061055a9190611c69565b611767565b005b34801561056d57600080fd5b5061058860048036038101906105839190611c06565b6117f2565b6040516105959190611c33565b60405180910390f35b3480156105aa57600080fd5b506105c560048036038101906105c09190611c69565b61180a565b6040516105d493929190612173565b60405180910390f35b3480156105e957600080fd5b506105f261185e565b6040516105ff9190611c33565b60405180910390f35b34801561061457600080fd5b5061062f600480360381019061062a9190611c06565b611864565b60405161063c9190611c33565b60405180910390f35b34801561065157600080fd5b5061066c60048036038101906106679190611c69565b61187c565b005b34801561067a57600080fd5b506106836118fc565b6040516106909190612209565b60405180910390f35b600781815481106106a957600080fd5b90600052602060002090600802016000915090508060000180546106cc90612253565b80601f01602080910402602001604051908101604052809291908181526020018280546106f890612253565b80156107455780601f1061071a57610100808354040283529160200191610745565b820191906000526020600020905b81548152906001019060200180831161072857829003601f168201915b50505050509080600101805461075a90612253565b80601f016020809104026020016040519081016040528092919081815260200182805461078690612253565b80156107d35780601f106107a8576101008083540402835291602001916107d3565b820191906000526020600020905b8154815290600101906020018083116107b657829003601f168201915b5050505050908060020154908060030160009054906101000a900460ff16908060040154908060050160009054906101000a900473ffffffffffffffffffffffffffffffffffffffff16908060050160149054906101000a900460ff16908060060154908060070154905089565b600660003373ffffffffffffffffffffffffffffffffffffffff1673ffffffffffffffffffffffffffffffffffffffff16815260200190815260200160002060009054906101000a900460ff16156108ce576040517f08c379a00000000000000000000000000000000000000000000000000000000081526004016108c5906122d0565b60405180910390fd5b600782815481106108e2576108e16122f0565b5b906000526020600020906008020160050160149054906101000a900460ff16610940576040517f08c379a00000000000000000000000000000000000000000000000000000000081526004016109379061236b565b60405180910390fd5b600061094b33610cac565b905060008111610990576040517f08c379a0000000000000000000000000000000000000000000000000000000008152600401610987906123d7565b60405180910390fd5b81156109d75780600784815481106109ab576109aa6122f0565b5b906000526020600020906008020160060160008282546109cb9190612426565b92505081905550610a14565b80600784815481106109ec576109eb6122f0565b5b90600052602060002090600802016007016000828254610a0c9190612426565b925050819055505b600260003373ffffffffffffffffffffffffffffffffffffffff1673ffffffffffffffffffffffffffffffffffffffff168152602001908152602001600020604051806060016040528085815260200184151581526020018381525090806001815401808255809150506001900390600052602060002090600302016000909190919091506000820151816000015560208201518160010160006101000a81548160ff0219169083151502179055506040820151816002015550506001600660003373ffffffffffffffffffffffffffffffffffffffff1673ffffffffffffffffffffffffffffffffffffffff16815260200190815260200160002060006101000a81548160ff0219169083151502179055507fb898e75d5aac8de2f407e4a683c8d909e832d1e371e3bff0fa3ed934e88d956283338385604051610b5c949392919061245a565b60405180910390a1505050565b600460003373ffffffffffffffffffffffffffffffffffffffff1673ffffffffffffffffffffffffffffffffffffffff16815260200190815260200160002060009054906101000a900460ff16610bf5576040517f08c379a0000000000000000000000000000000000000000000000000000000008152600401610bec90612511565b60405180910390fd5b6000600460008373ffffffffffffffffffffffffffffffffffffffff1673ffffffffffffffffffffffffffffffffffffffff16815260200190815260200160002060006101000a81548160ff02191690831515021790555050565b600a5481565b6000600460008373ffffffffffffffffffffffffffffffffffffffff1673ffffffffffffffffffffffffffffffffffffffff16815260200190815260200160002060009054906101000a900460ff169050919050565b60008060055411610cf2576040517f08c379a0000000000000000000000000000000000000000000000000000000008152600401610ce9906125a3565b60405180910390fd5b60055460646000808573ffffffffffffffffffffffffffffffffffffffff1673ffffffffffffffffffffffffffffffffffffffff16815260200190815260200160002054610d4091906125c3565b610d4a9190612634565b9050919050565b60055481565b60046020528060005260406000206000915054906101000a900460ff1681565b6000600160008373ffffffffffffffffffffffffffffffffffffffff1673ffffffffffffffffffffffffffffffffffffffff168152602001908152602001600020549050919050565b80600160008473ffffffffffffffffffffffffffffffffffffffff1673ffffffffffffffffffffffffffffffffffffffff168152602001908152602001600020541015610e42576040517f08c379a0000000000000000000000000000000000000000000000000000000008152600401610e39906126b1565b60405180910390fd5b80600160008473ffffffffffffffffffffffffffffffffffffffff1673ffffffffffffffffffffffffffffffffffffffff1681526020019081526020016000206000828254610e9191906126d1565b925050819055508060056000828254610eaa91906126d1565b92505081905550806007600081548110610ec757610ec66122f0565b5b90600052602060002090600802016006016000828254610ee79190612426565b92505081905550600260008373ffffffffffffffffffffffffffffffffffffffff1673ffffffffffffffffffffffffffffffffffffffff1681526020019081526020016000206040518060600160405280600081526020016001151581526020018381525090806001815401808255809150506001900390600052602060002090600302016000909190919091506000820151816000015560208201518160010160006101000a81548160ff0219169083151502179055506040820151816002015550507fb898e75d5aac8de2f407e4a683c8d909e832d1e371e3bff0fa3ed934e88d9562600083836001604051610fe29493929190612740565b60405180910390a15050565b60606007805480602002602001604051908101604052809291908181526020016000905b8282101561121f57838290600052602060002090600802016040518061012001604052908160008201805461104690612253565b80601f016020809104026020016040519081016040528092919081815260200182805461107290612253565b80156110bf5780601f10611094576101008083540402835291602001916110bf565b820191906000526020600020905b8154815290600101906020018083116110a257829003601f168201915b505050505081526020016001820180546110d890612253565b80601f016020809104026020016040519081016040528092919081815260200182805461110490612253565b80156111515780601f1061112657610100808354040283529160200191611151565b820191906000526020600020905b81548152906001019060200180831161113457829003601f168201915b50505050508152602001600282015481526020016003820160009054906101000a900460ff1660ff1660ff168152602001600482015481526020016005820160009054906101000a900473ffffffffffffffffffffffffffffffffffffffff1673ffffffffffffffffffffffffffffffffffffffff1673ffffffffffffffffffffffffffffffffffffffff1681526020016005820160149054906101000a900460ff161515151581526020016006820154815260200160078201548152505081526020019060010190611012565b50505050905090565b611230611922565b600360008381526020019081526020016000206040518060600160405290816000820160009054906101000a900460ff16151515158152602001600182015481526020016002820154815250509050919050565b600460003373ffffffffffffffffffffffffffffffffffffffff1673ffffffffffffffffffffffffffffffffffffffff16815260200190815260200160002060009054906101000a900460ff16611310576040517f08c379a000000000000000000000000000000000000000000000000000000000815260040161130790612511565b60405180910390fd5b6001600460008373ffffffffffffffffffffffffffffffffffffffff1673ffffffffffffffffffffffffffffffffffffffff16815260200190815260200160002060006101000a81548160ff02191690831515021790555050565b670de0b6b3a764000034146113b5576040517f08c379a00000000000000000000000000000000000000000000000000000000081526004016113ac906127f7565b60405180910390fd5b6000603c836113c491906125c3565b426113cf9190612426565b905060076040518061012001604052808781526020018681526020018581526020018460ff1681526020018381526020013373ffffffffffffffffffffffffffffffffffffffff1681526020016001151581526020016000815260200160008152509080600181540180825580915050600190039060005260206000209060080201600090919091909150600082015181600001908161146f91906129b9565b50602082015181600101908161148591906129b9565b506040820151816002015560608201518160030160006101000a81548160ff021916908360ff1602179055506080820151816004015560a08201518160050160006101000a81548173ffffffffffffffffffffffffffffffffffffffff021916908373ffffffffffffffffffffffffffffffffffffffff16021790555060c08201518160050160146101000a81548160ff02191690831515021790555060e08201518160060155610100820151816007015550506000600160078054905061154d91906126d1565b90506008600081548092919061156290612a8b565b91905055507f3d7708da99615a873ed0ef5e0b10f8b1bd8e76e197387471a6a8ca12c29da913818787878787336040516115a29796959493929190612ad3565b60405180910390a1505050505050565b600460003373ffffffffffffffffffffffffffffffffffffffff1673ffffffffffffffffffffffffffffffffffffffff16815260200190815260200160002060009054906101000a900460ff1661163e576040517f08c379a000000000000000000000000000000000000000000000000000000000815260040161163590612511565b60405180910390fd5b6007805490508110611685576040517f08c379a000000000000000000000000000000000000000000000000000000000815260040161167c90612b9c565b60405180910390fd5b60006007828154811061169b5761169a6122f0565b5b906000526020600020906008020160050160146101000a81548160ff021916908315150217905550807f61c0d93dc2b610877e420b107c8d12e9185e46e04a505da758cc7f7329ae545f60405160405180910390a250565b6000600854905090565b600960009054906101000a900460ff1681565b60036020528060005260406000206000915090508060000160009054906101000a900460ff16908060010154908060020154905083565b60066020528060005260406000206000915054906101000a900460ff1681565b806000808473ffffffffffffffffffffffffffffffffffffffff1673ffffffffffffffffffffffffffffffffffffffff1681526020019081526020016000208190555080600160008473ffffffffffffffffffffffffffffffffffffffff1673ffffffffffffffffffffffffffffffffffffffff168152602001908152602001600020819055505050565b60006020528060005260406000206000915090505481565b6002602052816000526040600020818154811061182657600080fd5b9060005260206000209060030201600091509150508060000154908060010160009054906101000a900460ff16908060020154905083565b60085481565b60016020528060005260406000206000915090505481565b806000808473ffffffffffffffffffffffffffffffffffffffff1673ffffffffffffffffffffffffffffffffffffffff168152602001908152602001600020819055507fe6382c9ed5c0c33bb05042f73cf6cbe9cb25639f9a711e094ee563bc9cb80e2c82826040516118f0929190612bbc565b60405180910390a15050565b600b60009054906101000a900473ffffffffffffffffffffffffffffffffffffffff1681565b604051806060016040528060001515815260200160008152602001600081525090565b6000604051905090565b600080fd5b600080fd5b6000819050919050565b61196c81611959565b811461197757600080fd5b50565b60008135905061198981611963565b92915050565b6000602082840312156119a5576119a461194f565b5b60006119b38482850161197a565b91505092915050565b600081519050919050565b600082825260208201905092915050565b60005b838110156119f65780820151818401526020810190506119db565b60008484015250505050565b6000601f19601f8301169050919050565b6000611a1e826119bc565b611a2881856119c7565b9350611a388185602086016119d8565b611a4181611a02565b840191505092915050565b611a5581611959565b82525050565b600060ff82169050919050565b611a7181611a5b565b82525050565b600073ffffffffffffffffffffffffffffffffffffffff82169050919050565b6000611aa282611a77565b9050919050565b611ab281611a97565b82525050565b60008115159050919050565b611acd81611ab8565b82525050565b6000610120820190508181036000830152611aee818c611a13565b90508181036020830152611b02818b611a13565b9050611b11604083018a611a4c565b611b1e6060830189611a68565b611b2b6080830188611a4c565b611b3860a0830187611aa9565b611b4560c0830186611ac4565b611b5260e0830185611a4c565b611b60610100830184611a4c565b9a9950505050505050505050565b611b7781611ab8565b8114611b8257600080fd5b50565b600081359050611b9481611b6e565b92915050565b60008060408385031215611bb157611bb061194f565b5b6000611bbf8582860161197a565b9250506020611bd085828601611b85565b9150509250929050565b611be381611a97565b8114611bee57600080fd5b50565b600081359050611c0081611bda565b92915050565b600060208284031215611c1c57611c1b61194f565b5b6000611c2a84828501611bf1565b91505092915050565b6000602082019050611c486000830184611a4c565b92915050565b6000602082019050611c636000830184611ac4565b92915050565b60008060408385031215611c8057611c7f61194f565b5b6000611c8e85828601611bf1565b9250506020611c9f8582860161197a565b9150509250929050565b600081519050919050565b600082825260208201905092915050565b6000819050602082019050919050565b600082825260208201905092915050565b6000611cf1826119bc565b611cfb8185611cd5565b9350611d0b8185602086016119d8565b611d1481611a02565b840191505092915050565b611d2881611959565b82525050565b611d3781611a5b565b82525050565b611d4681611a97565b82525050565b611d5581611ab8565b82525050565b6000610120830160008301518482036000860152611d798282611ce6565b91505060208301518482036020860152611d938282611ce6565b9150506040830151611da86040860182611d1f565b506060830151611dbb6060860182611d2e565b506080830151611dce6080860182611d1f565b5060a0830151611de160a0860182611d3d565b5060c0830151611df460c0860182611d4c565b5060e0830151611e0760e0860182611d1f565b50610100830151611e1c610100860182611d1f565b508091505092915050565b6000611e338383611d5b565b905092915050565b6000602082019050919050565b6000611e5382611ca9565b611e5d8185611cb4565b935083602082028501611e6f85611cc5565b8060005b85811015611eab5784840389528151611e8c8582611e27565b9450611e9783611e3b565b925060208a01995050600181019050611e73565b50829750879550505050505092915050565b60006020820190508181036000830152611ed78184611e48565b905092915050565b606082016000820151611ef56000850182611d4c565b506020820151611f086020850182611d1f565b506040820151611f1b6040850182611d1f565b50505050565b6000606082019050611f366000830184611edf565b92915050565b600080fd5b600080fd5b7f4e487b7100000000000000000000000000000000000000000000000000000000600052604160045260246000fd5b611f7e82611a02565b810181811067ffffffffffffffff82111715611f9d57611f9c611f46565b5b80604052505050565b6000611fb0611945565b9050611fbc8282611f75565b919050565b600067ffffffffffffffff821115611fdc57611fdb611f46565b5b611fe582611a02565b9050602081019050919050565b82818337600083830152505050565b600061201461200f84611fc1565b611fa6565b9050828152602081018484840111156120305761202f611f41565b5b61203b848285611ff2565b509392505050565b600082601f83011261205857612057611f3c565b5b8135612068848260208601612001565b91505092915050565b61207a81611a5b565b811461208557600080fd5b50565b60008135905061209781612071565b92915050565b600080600080608085870312156120b7576120b661194f565b5b600085013567ffffffffffffffff8111156120d5576120d4611954565b5b6120e187828801612043565b945050602085013567ffffffffffffffff81111561210257612101611954565b5b61210e87828801612043565b935050604061211f8782880161197a565b925050606061213087828801612088565b91505092959194509250565b60006060820190506121516000830186611ac4565b61215e6020830185611a4c565b61216b6040830184611a4c565b949350505050565b60006060820190506121886000830186611a4c565b6121956020830185611ac4565b6121a26040830184611a4c565b949350505050565b6000819050919050565b60006121cf6121ca6121c584611a77565b6121aa565b611a77565b9050919050565b60006121e1826121b4565b9050919050565b60006121f3826121d6565b9050919050565b612203816121e8565b82525050565b600060208201905061221e60008301846121fa565b92915050565b7f4e487b7100000000000000000000000000000000000000000000000000000000600052602260045260246000fd5b6000600282049050600182168061226b57607f821691505b60208210810361227e5761227d612224565b5b50919050565b7f596f75206861766520616c726561647920766f74656400000000000000000000600082015250565b60006122ba6016836119c7565b91506122c582612284565b602082019050919050565b600060208201905081810360008301526122e9816122ad565b9050919050565b7f4e487b7100000000000000000000000000000000000000000000000000000000600052603260045260246000fd5b7f50726f706f73616c206973206e6f742061637469766500000000000000000000600082015250565b60006123556016836119c7565b91506123608261231f565b602082019050919050565b6000602082019050818103600083015261238481612348565b9050919050565b7f596f75206d75737420686f6c642073686172657320746f20766f746500000000600082015250565b60006123c1601c836119c7565b91506123cc8261238b565b602082019050919050565b600060208201905081810360008301526123f0816123b4565b9050919050565b7f4e487b7100000000000000000000000000000000000000000000000000000000600052601160045260246000fd5b600061243182611959565b915061243c83611959565b9250828201905080821115612454576124536123f7565b5b92915050565b600060808201905061246f6000830187611a4c565b61247c6020830186611aa9565b6124896040830185611a4c565b6124966060830184611ac4565b95945050505050565b7f4f6e6c792061646d696e732063616e20706572666f726d20746869732061637460008201527f696f6e0000000000000000000000000000000000000000000000000000000000602082015250565b60006124fb6023836119c7565b91506125068261249f565b604082019050919050565b6000602082019050818103600083015261252a816124ee565b9050919050565b7f546f74616c20736861726573206d75737420626520677265617465722074686160008201527f6e207a65726f0000000000000000000000000000000000000000000000000000602082015250565b600061258d6026836119c7565b915061259882612531565b604082019050919050565b600060208201905081810360008301526125bc81612580565b9050919050565b60006125ce82611959565b91506125d983611959565b92508282026125e781611959565b915082820484148315176125fe576125fd6123f7565b5b5092915050565b7f4e487b7100000000000000000000000000000000000000000000000000000000600052601260045260246000fd5b600061263f82611959565b915061264a83611959565b92508261265a57612659612605565b5b828204905092915050565b7f4e6f7420656e6f75676820746f6b656e7320746f20766f746500000000000000600082015250565b600061269b6019836119c7565b91506126a682612665565b602082019050919050565b600060208201905081810360008301526126ca8161268e565b9050919050565b60006126dc82611959565b91506126e783611959565b92508282039050818111156126ff576126fe6123f7565b5b92915050565b6000819050919050565b600061272a61272561272084612705565b6121aa565b611959565b9050919050565b61273a8161270f565b82525050565b60006080820190506127556000830187612731565b6127626020830186611aa9565b61276f6040830185611a4c565b61277c6060830184611ac4565b95945050505050565b7f4d7573742073656e6420312045544820746f2063726561746520612070726f7060008201527f6f73616c00000000000000000000000000000000000000000000000000000000602082015250565b60006127e16024836119c7565b91506127ec82612785565b604082019050919050565b60006020820190508181036000830152612810816127d4565b9050919050565b60008190508160005260206000209050919050565b60006020601f8301049050919050565b600082821b905092915050565b6000600883026128797fffffffffffffffffffffffffffffffffffffffffffffffffffffffffffffffff8261283c565b612883868361283c565b95508019841693508086168417925050509392505050565b60006128b66128b16128ac84611959565b6121aa565b611959565b9050919050565b6000819050919050565b6128d08361289b565b6128e46128dc826128bd565b848454612849565b825550505050565b600090565b6128f96128ec565b6129048184846128c7565b505050565b5b818110156129285761291d6000826128f1565b60018101905061290a565b5050565b601f82111561296d5761293e81612817565b6129478461282c565b81016020851015612956578190505b61296a6129628561282c565b830182612909565b50505b505050565b600082821c905092915050565b600061299060001984600802612972565b1980831691505092915050565b60006129a9838361297f565b9150826002028217905092915050565b6129c2826119bc565b67ffffffffffffffff8111156129db576129da611f46565b5b6129e58254612253565b6129f082828561292c565b600060209050601f831160018114612a235760008415612a11578287015190505b612a1b858261299d565b865550612a83565b601f198416612a3186612817565b60005b82811015612a5957848901518255600182019150602085019450602081019050612a34565b86831015612a765784890151612a72601f89168261297f565b8355505b6001600288020188555050505b505050505050565b6000612a9682611959565b91507fffffffffffffffffffffffffffffffffffffffffffffffffffffffffffffffff8203612ac857612ac76123f7565b5b600182019050919050565b600060e082019050612ae8600083018a611a4c565b8181036020830152612afa8189611a13565b90508181036040830152612b0e8188611a13565b9050612b1d6060830187611a4c565b612b2a6080830186611a68565b612b3760a0830185611a4c565b612b4460c0830184611aa9565b98975050505050505050565b7f496e76616c69642070726f706f73616c20494400000000000000000000000000600082015250565b6000612b866013836119c7565b9150612b9182612b50565b602082019050919050565b60006020820190508181036000830152612bb581612b79565b9050919050565b6000604082019050612bd16000830185611aa9565b612bde6020830184611a4c565b939250505056fea2646970667358221220f08e6fe442c976ebdec523d0089a0d0f5aa7ab61564b404342420a0c08c9120064736f6c63430008140033",
  "linkReferences": {},
  "deployedLinkReferences": {}
}