{
  "_format": "hh-sol-artifact-1",
  "contractName": "VotingContract",
  "sourceName": "contracts/smartContract.sol",
  "abi": [
    {
      "inputs": [
        {
          "internalType": "address[]",
          "name": "initialAdmins",
          "type": "address[]"
        },
        {
          "internalType": "address",
          "name": "_tokenAddress",
          "type": "address"
        }
      ],
      "stateMutability": "nonpayable",
      "type": "constructor"
    },
    {
      "anonymous": false,
      "inputs": [
        {
          "indexed": false,
          "internalType": "uint256",
          "name": "proposalId",
          "type": "uint256"
        },
        {
          "indexed": false,
          "internalType": "string",
          "name": "title",
          "type": "string"
        },
        {
          "indexed": false,
          "internalType": "string",
          "name": "description",
          "type": "string"
        },
        {
          "indexed": false,
          "internalType": "uint256",
          "name": "durationInMinutes",
          "type": "uint256"
        },
        {
          "indexed": false,
          "internalType": "uint8",
          "name": "quorumType",
          "type": "uint8"
        },
        {
          "indexed": false,
          "internalType": "uint256",
          "name": "endTime",
          "type": "uint256"
        },
        {
          "indexed": false,
          "internalType": "address",
          "name": "proposer",
          "type": "address"
        }
      ],
      "name": "ProposalCreated",
      "type": "event"
    },
    {
      "anonymous": false,
      "inputs": [
        {
          "indexed": true,
          "internalType": "uint256",
          "name": "proposalId",
          "type": "uint256"
        }
      ],
      "name": "ProposalDeleted",
      "type": "event"
    },
    {
      "anonymous": false,
      "inputs": [
        {
          "indexed": false,
          "internalType": "address",
          "name": "voter",
          "type": "address"
        },
        {
          "indexed": false,
          "internalType": "uint256",
          "name": "rewardAmount",
          "type": "uint256"
        }
      ],
      "name": "RewardIssued",
      "type": "event"
    },
    {
      "anonymous": false,
      "inputs": [
        {
          "indexed": false,
          "internalType": "address",
          "name": "voter",
          "type": "address"
        },
        {
          "indexed": false,
          "internalType": "uint256",
          "name": "newShares",
          "type": "uint256"
        }
      ],
      "name": "SharesUpdated",
      "type": "event"
    },
    {
      "anonymous": false,
      "inputs": [
        {
          "indexed": false,
          "internalType": "uint256",
          "name": "proposalId",
          "type": "uint256"
        },
        {
          "indexed": false,
          "internalType": "address",
          "name": "voter",
          "type": "address"
        },
        {
          "indexed": false,
          "internalType": "uint256",
          "name": "weight",
          "type": "uint256"
        },
        {
          "indexed": false,
          "internalType": "bool",
          "name": "voteFor",
          "type": "bool"
        }
      ],
      "name": "VoteCast",
      "type": "event"
    },
    {
      "anonymous": false,
      "inputs": [
        {
          "indexed": false,
          "internalType": "uint256",
          "name": "proposalId",
          "type": "uint256"
        },
        {
          "indexed": false,
          "internalType": "uint256",
          "name": "votesFor",
          "type": "uint256"
        },
        {
          "indexed": false,
          "internalType": "uint256",
          "name": "votesAgainst",
          "type": "uint256"
        }
      ],
      "name": "VoteProgressUpdated",
      "type": "event"
    },
    {
      "inputs": [
        {
          "internalType": "address",
          "name": "newAdmin",
          "type": "address"
        }
      ],
      "name": "addAdmin",
      "outputs": [],
      "stateMutability": "nonpayable",
      "type": "function"
    },
    {
      "inputs": [
        {
          "internalType": "address",
          "name": "",
          "type": "address"
        }
      ],
      "name": "admins",
      "outputs": [
        {
          "internalType": "bool",
          "name": "",
          "type": "bool"
        }
      ],
      "stateMutability": "view",
      "type": "function"
    },
    {
      "inputs": [
        {
          "internalType": "uint256",
          "name": "proposalId",
          "type": "uint256"
        }
      ],
      "name": "calculateQuorum",
      "outputs": [
        {
          "internalType": "uint256",
          "name": "",
          "type": "uint256"
        }
      ],
      "stateMutability": "view",
      "type": "function"
    },
    {
      "inputs": [
        {
          "internalType": "address",
          "name": "voter",
          "type": "address"
        }
      ],
      "name": "calculateVotingWeight",
      "outputs": [
        {
          "internalType": "uint256",
          "name": "",
          "type": "uint256"
        }
      ],
      "stateMutability": "view",
      "type": "function"
    },
    {
      "inputs": [
        {
          "internalType": "uint256",
          "name": "proposalId",
          "type": "uint256"
        },
        {
          "internalType": "bool",
          "name": "voteFor",
          "type": "bool"
        }
      ],
      "name": "castVote",
      "outputs": [],
      "stateMutability": "nonpayable",
      "type": "function"
    },
    {
      "inputs": [
        {
          "internalType": "string",
          "name": "title",
          "type": "string"
        },
        {
          "internalType": "string",
          "name": "description",
          "type": "string"
        },
        {
          "internalType": "uint256",
          "name": "durationInMinutes",
          "type": "uint256"
        },
        {
          "internalType": "uint8",
          "name": "quorumType",
          "type": "uint8"
        }
      ],
      "name": "createProposal",
      "outputs": [],
      "stateMutability": "payable",
      "type": "function"
    },
    {
      "inputs": [
        {
          "internalType": "uint256",
          "name": "proposalId",
          "type": "uint256"
        }
      ],
      "name": "deleteProposal",
      "outputs": [],
      "stateMutability": "nonpayable",
      "type": "function"
    },
    {
      "inputs": [
        {
          "internalType": "uint256",
          "name": "proposalId",
          "type": "uint256"
        }
      ],
      "name": "finalizeProposal",
      "outputs": [],
      "stateMutability": "nonpayable",
      "type": "function"
    },
    {
      "inputs": [],
      "name": "getPastProposals",
      "outputs": [
        {
          "components": [
            {
              "internalType": "string",
              "name": "title",
              "type": "string"
            },
            {
              "internalType": "string",
              "name": "description",
              "type": "string"
            },
            {
              "internalType": "uint256",
              "name": "durationInMinutes",
              "type": "uint256"
            },
            {
              "internalType": "uint8",
              "name": "quorumType",
              "type": "uint8"
            },
            {
              "internalType": "uint256",
              "name": "endTime",
              "type": "uint256"
            },
            {
              "internalType": "address",
              "name": "proposer",
              "type": "address"
            },
            {
              "internalType": "bool",
              "name": "active",
              "type": "bool"
            },
            {
              "internalType": "uint256",
              "name": "votesFor",
              "type": "uint256"
            },
            {
              "internalType": "uint256",
              "name": "votesAgainst",
              "type": "uint256"
            }
          ],
          "internalType": "struct VotingContract.Proposal[]",
          "name": "",
          "type": "tuple[]"
        },
        {
          "components": [
            {
              "internalType": "bool",
              "name": "passed",
              "type": "bool"
            },
            {
              "internalType": "uint256",
              "name": "votesFor",
              "type": "uint256"
            },
            {
              "internalType": "uint256",
              "name": "votesAgainst",
              "type": "uint256"
            }
          ],
          "internalType": "struct VotingContract.ProposalOutcome[]",
          "name": "",
          "type": "tuple[]"
        }
      ],
      "stateMutability": "view",
      "type": "function"
    },
    {
      "inputs": [
        {
          "internalType": "uint256",
          "name": "proposalId",
          "type": "uint256"
        }
      ],
      "name": "getProposalOutcome",
      "outputs": [
        {
          "components": [
            {
              "internalType": "bool",
              "name": "passed",
              "type": "bool"
            },
            {
              "internalType": "uint256",
              "name": "votesFor",
              "type": "uint256"
            },
            {
              "internalType": "uint256",
              "name": "votesAgainst",
              "type": "uint256"
            }
          ],
          "internalType": "struct VotingContract.ProposalOutcome",
          "name": "",
          "type": "tuple"
        }
      ],
      "stateMutability": "view",
      "type": "function"
    },
    {
      "inputs": [],
      "name": "getProposals",
      "outputs": [
        {
          "components": [
            {
              "internalType": "string",
              "name": "title",
              "type": "string"
            },
            {
              "internalType": "string",
              "name": "description",
              "type": "string"
            },
            {
              "internalType": "uint256",
              "name": "durationInMinutes",
              "type": "uint256"
            },
            {
              "internalType": "uint8",
              "name": "quorumType",
              "type": "uint8"
            },
            {
              "internalType": "uint256",
              "name": "endTime",
              "type": "uint256"
            },
            {
              "internalType": "address",
              "name": "proposer",
              "type": "address"
            },
            {
              "internalType": "bool",
              "name": "active",
              "type": "bool"
            },
            {
              "internalType": "uint256",
              "name": "votesFor",
              "type": "uint256"
            },
            {
              "internalType": "uint256",
              "name": "votesAgainst",
              "type": "uint256"
            }
          ],
          "internalType": "struct VotingContract.Proposal[]",
          "name": "",
          "type": "tuple[]"
        }
      ],
      "stateMutability": "view",
      "type": "function"
    },
    {
      "inputs": [],
      "name": "getProposalsCount",
      "outputs": [
        {
          "internalType": "uint256",
          "name": "",
          "type": "uint256"
        }
      ],
      "stateMutability": "view",
      "type": "function"
    },
    {
      "inputs": [
        {
          "internalType": "address",
          "name": "account",
          "type": "address"
        }
      ],
      "name": "getTokens",
      "outputs": [
        {
          "internalType": "uint256",
          "name": "",
          "type": "uint256"
        }
      ],
      "stateMutability": "view",
      "type": "function"
    },
    {
      "inputs": [
        {
          "internalType": "address",
          "name": "shareholder",
          "type": "address"
        }
      ],
      "name": "getVotingHistory",
      "outputs": [
        {
          "components": [
            {
              "internalType": "uint256",
              "name": "proposalId",
              "type": "uint256"
            },
            {
              "internalType": "bool",
              "name": "votedFor",
              "type": "bool"
            },
            {
              "internalType": "uint256",
              "name": "voteWeight",
              "type": "uint256"
            }
          ],
          "internalType": "struct VotingContract.VotingRecord[]",
          "name": "",
          "type": "tuple[]"
        }
      ],
      "stateMutability": "view",
      "type": "function"
    },
    {
      "inputs": [],
      "name": "governanceToken",
      "outputs": [
        {
          "internalType": "contract GovernanceToken",
          "name": "",
          "type": "address"
        }
      ],
      "stateMutability": "view",
      "type": "function"
    },
    {
      "inputs": [
        {
          "internalType": "address",
          "name": "user",
          "type": "address"
        }
      ],
      "name": "isAdmin",
      "outputs": [
        {
          "internalType": "bool",
          "name": "",
          "type": "bool"
        }
      ],
      "stateMutability": "view",
      "type": "function"
    },
    {
      "inputs": [],
      "name": "isVotingPeriodActive",
      "outputs": [
        {
          "internalType": "bool",
          "name": "",
          "type": "bool"
        }
      ],
      "stateMutability": "view",
      "type": "function"
    },
    {
      "inputs": [],
      "name": "proposalCount",
      "outputs": [
        {
          "internalType": "uint256",
          "name": "",
          "type": "uint256"
        }
      ],
      "stateMutability": "view",
      "type": "function"
    },
    {
      "inputs": [
        {
          "internalType": "uint256",
          "name": "",
          "type": "uint256"
        }
      ],
      "name": "proposalOutcomes",
      "outputs": [
        {
          "internalType": "bool",
          "name": "passed",
          "type": "bool"
        },
        {
          "internalType": "uint256",
          "name": "votesFor",
          "type": "uint256"
        },
        {
          "internalType": "uint256",
          "name": "votesAgainst",
          "type": "uint256"
        }
      ],
      "stateMutability": "view",
      "type": "function"
    },
    {
      "inputs": [
        {
          "internalType": "uint256",
          "name": "",
          "type": "uint256"
        }
      ],
      "name": "proposals",
      "outputs": [
        {
          "internalType": "string",
          "name": "title",
          "type": "string"
        },
        {
          "internalType": "string",
          "name": "description",
          "type": "string"
        },
        {
          "internalType": "uint256",
          "name": "durationInMinutes",
          "type": "uint256"
        },
        {
          "internalType": "uint8",
          "name": "quorumType",
          "type": "uint8"
        },
        {
          "internalType": "uint256",
          "name": "endTime",
          "type": "uint256"
        },
        {
          "internalType": "address",
          "name": "proposer",
          "type": "address"
        },
        {
          "internalType": "bool",
          "name": "active",
          "type": "bool"
        },
        {
          "internalType": "uint256",
          "name": "votesFor",
          "type": "uint256"
        },
        {
          "internalType": "uint256",
          "name": "votesAgainst",
          "type": "uint256"
        }
      ],
      "stateMutability": "view",
      "type": "function"
    },
    {
      "inputs": [
        {
          "internalType": "address",
          "name": "account",
          "type": "address"
        },
        {
          "internalType": "uint256",
          "name": "_shares",
          "type": "uint256"
        }
      ],
      "name": "registerShareholder",
      "outputs": [],
      "stateMutability": "nonpayable",
      "type": "function"
    },
    {
      "inputs": [
        {
          "internalType": "address",
          "name": "admin",
          "type": "address"
        }
      ],
      "name": "removeAdmin",
      "outputs": [],
      "stateMutability": "nonpayable",
      "type": "function"
    },
    {
      "inputs": [
        {
          "internalType": "address",
          "name": "",
          "type": "address"
        }
      ],
      "name": "shares",
      "outputs": [
        {
          "internalType": "uint256",
          "name": "",
          "type": "uint256"
        }
      ],
      "stateMutability": "view",
      "type": "function"
    },
    {
      "inputs": [
        {
          "internalType": "address",
          "name": "",
          "type": "address"
        }
      ],
      "name": "tokens",
      "outputs": [
        {
          "internalType": "uint256",
          "name": "",
          "type": "uint256"
        }
      ],
      "stateMutability": "view",
      "type": "function"
    },
    {
      "inputs": [],
      "name": "totalShares",
      "outputs": [
        {
          "internalType": "uint256",
          "name": "",
          "type": "uint256"
        }
      ],
      "stateMutability": "view",
      "type": "function"
    },
    {
      "inputs": [
        {
          "internalType": "address",
          "name": "voter",
          "type": "address"
        },
        {
          "internalType": "uint256",
          "name": "newShares",
          "type": "uint256"
        }
      ],
      "name": "updateShares",
      "outputs": [],
      "stateMutability": "nonpayable",
      "type": "function"
    },
    {
      "inputs": [
        {
          "internalType": "address",
          "name": "account",
          "type": "address"
        },
        {
          "internalType": "uint256",
          "name": "voteAmount",
          "type": "uint256"
        }
      ],
      "name": "vote",
      "outputs": [],
      "stateMutability": "nonpayable",
      "type": "function"
    },
    {
      "inputs": [
        {
          "internalType": "address",
          "name": "",
          "type": "address"
        }
      ],
      "name": "voted",
      "outputs": [
        {
          "internalType": "bool",
          "name": "",
          "type": "bool"
        }
      ],
      "stateMutability": "view",
      "type": "function"
    },
    {
      "inputs": [],
      "name": "votingEndTime",
      "outputs": [
        {
          "internalType": "uint256",
          "name": "",
          "type": "uint256"
        }
      ],
      "stateMutability": "view",
      "type": "function"
    },
    {
      "inputs": [
        {
          "internalType": "address",
          "name": "",
          "type": "address"
        },
        {
          "internalType": "uint256",
          "name": "",
          "type": "uint256"
        }
      ],
      "name": "votingHistory",
      "outputs": [
        {
          "internalType": "uint256",
          "name": "proposalId",
          "type": "uint256"
        },
        {
          "internalType": "bool",
          "name": "votedFor",
          "type": "bool"
        },
        {
          "internalType": "uint256",
          "name": "voteWeight",
          "type": "uint256"
        }
      ],
      "stateMutability": "view",
      "type": "function"
    }
  ],
  "bytecode": "0x60806040523480156200001157600080fd5b506040516200406538038062004065833981810160405281019062000037919062000307565b80600b60006101000a81548173ffffffffffffffffffffffffffffffffffffffff021916908373ffffffffffffffffffffffffffffffffffffffff16021790555060005b82518110156200011057600160046000858481518110620000a157620000a06200036d565b5b602002602001015173ffffffffffffffffffffffffffffffffffffffff1673ffffffffffffffffffffffffffffffffffffffff16815260200190815260200160002060006101000a81548160ff02191690831515021790555080806200010790620003d5565b9150506200007b565b50505062000422565b6000604051905090565b600080fd5b600080fd5b600080fd5b6000601f19601f8301169050919050565b7f4e487b7100000000000000000000000000000000000000000000000000000000600052604160045260246000fd5b6200017d8262000132565b810181811067ffffffffffffffff821117156200019f576200019e62000143565b5b80604052505050565b6000620001b462000119565b9050620001c2828262000172565b919050565b600067ffffffffffffffff821115620001e557620001e462000143565b5b602082029050602081019050919050565b600080fd5b600073ffffffffffffffffffffffffffffffffffffffff82169050919050565b60006200022882620001fb565b9050919050565b6200023a816200021b565b81146200024657600080fd5b50565b6000815190506200025a816200022f565b92915050565b6000620002776200027184620001c7565b620001a8565b905080838252602082019050602084028301858111156200029d576200029c620001f6565b5b835b81811015620002ca5780620002b5888262000249565b8452602084019350506020810190506200029f565b5050509392505050565b600082601f830112620002ec57620002eb6200012d565b5b8151620002fe84826020860162000260565b91505092915050565b6000806040838503121562000321576200032062000123565b5b600083015167ffffffffffffffff81111562000342576200034162000128565b5b6200035085828601620002d4565b9250506020620003638582860162000249565b9150509250929050565b7f4e487b7100000000000000000000000000000000000000000000000000000000600052603260045260246000fd5b7f4e487b7100000000000000000000000000000000000000000000000000000000600052601160045260246000fd5b6000819050919050565b6000620003e282620003cb565b91507fffffffffffffffffffffffffffffffffffffffffffffffffffffffffffffffff82036200041757620004166200039c565b5b600182019050919050565b613c3380620004326000396000f3fe6080604052600436106101cd5760003560e01c806370f6e05d116100f7578063afafa0cf11610095578063da35c66411610064578063da35c664146106f8578063e486033914610723578063e5d0821f14610760578063f96dae0a14610789576101cd565b8063afafa0cf14610627578063ce7c2ac214610650578063d09c34f21461068d578063d4bdf023146106cc576101cd565b806398e527d3116100d157806398e527d3146105555780639fcc5ce414610580578063a9c0310d146105ab578063aec2ccae146105ea576101cd565b806370f6e05d146104d35780637ad6e5aa146104ef5780638259d5531461052c576101cd565b8063429b62e51161016f5780635f74bbde1161013e5780635f74bbde1461041957806362564c48146104425780636fdb6f7c1461046d57806370480275146104aa576101cd565b8063429b62e514610339578063450efe21146103765780635652077c146103b35780635daff901146103dc576101cd565b80631ea736e0116101ab5780631ea736e01461026957806324d7806c14610294578063317571b2146102d15780633a98ef391461030e576101cd565b8063013cf08b146101d257806315373e3d146102175780631785f53c14610240575b600080fd5b3480156101de57600080fd5b506101f960048036038101906101f4919061250a565b6107b4565b60405161020e9998979695949392919061264e565b60405180910390f35b34801561022357600080fd5b5061023e60048036038101906102399190612715565b61095c565b005b34801561024c57600080fd5b5061026760048036038101906102629190612781565b610dfa565b005b34801561027557600080fd5b5061027e610ee1565b60405161028b91906127ae565b60405180910390f35b3480156102a057600080fd5b506102bb60048036038101906102b69190612781565b610ee7565b6040516102c891906127c9565b60405180910390f35b3480156102dd57600080fd5b506102f860048036038101906102f39190612781565b610f3d565b60405161030591906127ae565b60405180910390f35b34801561031a57600080fd5b50610323610fe2565b60405161033091906127ae565b60405180910390f35b34801561034557600080fd5b50610360600480360381019061035b9190612781565b610fe8565b60405161036d91906127c9565b60405180910390f35b34801561038257600080fd5b5061039d60048036038101906103989190612781565b611008565b6040516103aa91906127ae565b60405180910390f35b3480156103bf57600080fd5b506103da60048036038101906103d5919061250a565b611051565b005b3480156103e857600080fd5b5061040360048036038101906103fe9190612781565b61124a565b60405161041091906128f3565b60405180910390f35b34801561042557600080fd5b50610440600480360381019061043b9190612915565b611317565b005b34801561044e57600080fd5b50610457611545565b6040516104649190612b4b565b60405180910390f35b34801561047957600080fd5b50610494600480360381019061048f919061250a565b61177f565b6040516104a19190612baf565b60405180910390f35b3480156104b657600080fd5b506104d160048036038101906104cc9190612781565b6117db565b005b6104ed60048036038101906104e89190612d2b565b6118c2565b005b3480156104fb57600080fd5b506105166004803603810190610511919061250a565b611b09565b60405161052391906127ae565b60405180910390f35b34801561053857600080fd5b50610553600480360381019061054e919061250a565b611c9b565b005b34801561056157600080fd5b5061056a611ddc565b60405161057791906127ae565b60405180910390f35b34801561058c57600080fd5b50610595611de6565b6040516105a291906127c9565b60405180910390f35b3480156105b757600080fd5b506105d260048036038101906105cd919061250a565b611df9565b6040516105e193929190612dca565b60405180910390f35b3480156105f657600080fd5b50610611600480360381019061060c9190612781565b611e30565b60405161061e91906127c9565b60405180910390f35b34801561063357600080fd5b5061064e60048036038101906106499190612915565b611e50565b005b34801561065c57600080fd5b5061067760048036038101906106729190612781565b611f2b565b60405161068491906127ae565b60405180910390f35b34801561069957600080fd5b506106b460048036038101906106af9190612915565b611f43565b6040516106c393929190612e01565b60405180910390f35b3480156106d857600080fd5b506106e1611f97565b6040516106ef929190612f29565b60405180910390f35b34801561070457600080fd5b5061070d61230c565b60405161071a91906127ae565b60405180910390f35b34801561072f57600080fd5b5061074a60048036038101906107459190612781565b612312565b60405161075791906127ae565b60405180910390f35b34801561076c57600080fd5b5061078760048036038101906107829190612915565b61232a565b005b34801561079557600080fd5b5061079e6123fa565b6040516107ab9190612fbf565b60405180910390f35b600781815481106107c457600080fd5b90600052602060002090600802016000915090508060000180546107e790613009565b80601f016020809104026020016040519081016040528092919081815260200182805461081390613009565b80156108605780601f1061083557610100808354040283529160200191610860565b820191906000526020600020905b81548152906001019060200180831161084357829003601f168201915b50505050509080600101805461087590613009565b80601f01602080910402602001604051908101604052809291908181526020018280546108a190613009565b80156108ee5780601f106108c3576101008083540402835291602001916108ee565b820191906000526020600020905b8154815290600101906020018083116108d157829003601f168201915b5050505050908060020154908060030160009054906101000a900460ff16908060040154908060050160009054906101000a900473ffffffffffffffffffffffffffffffffffffffff16908060050160149054906101000a900460ff16908060060154908060070154905089565b600660003373ffffffffffffffffffffffffffffffffffffffff1673ffffffffffffffffffffffffffffffffffffffff16815260200190815260200160002060009054906101000a900460ff16156109e9576040517f08c379a00000000000000000000000000000000000000000000000000000000081526004016109e090613086565b60405180910390fd5b600782815481106109fd576109fc6130a6565b5b906000526020600020906008020160050160149054906101000a900460ff16610a5b576040517f08c379a0000000000000000000000000000000000000000000000000000000008152600401610a5290613121565b60405180910390fd5b6000610a6633610f3d565b905060008111610aab576040517f08c379a0000000000000000000000000000000000000000000000000000000008152600401610aa29061318d565b60405180910390fd5b8115610af2578060078481548110610ac657610ac56130a6565b5b90600052602060002090600802016006016000828254610ae691906131dc565b92505081905550610b2f565b8060078481548110610b0757610b066130a6565b5b90600052602060002090600802016007016000828254610b2791906131dc565b925050819055505b600260003373ffffffffffffffffffffffffffffffffffffffff1673ffffffffffffffffffffffffffffffffffffffff168152602001908152602001600020604051806060016040528085815260200184151581526020018381525090806001815401808255809150506001900390600052602060002090600302016000909190919091506000820151816000015560208201518160010160006101000a81548160ff0219169083151502179055506040820151816002015550506001600660003373ffffffffffffffffffffffffffffffffffffffff1673ffffffffffffffffffffffffffffffffffffffff16815260200190815260200160002060006101000a81548160ff0219169083151502179055506001600960006101000a81548160ff0219169083151502179055506000610c6882612420565b9050600b60009054906101000a900473ffffffffffffffffffffffffffffffffffffffff1673ffffffffffffffffffffffffffffffffffffffff166340c10f1933836040518363ffffffff1660e01b8152600401610cc7929190613210565b600060405180830381600087803b158015610ce157600080fd5b505af1158015610cf5573d6000803e3d6000fd5b505050507fb898e75d5aac8de2f407e4a683c8d909e832d1e371e3bff0fa3ed934e88d956284338486604051610d2e9493929190613239565b60405180910390a17ff9b6ec770c96c3a6f9225bf3a8463a8ad03e884448af07b4ecd4d19d628946ee3382604051610d67929190613210565b60405180910390a17f2928c60fc388d58e01cef82fb7676953f4792e35df8e557becce0082924185fc8460078681548110610da557610da46130a6565b5b90600052602060002090600802016006015460078781548110610dcb57610dca6130a6565b5b906000526020600020906008020160070154604051610dec9392919061327e565b60405180910390a150505050565b600460003373ffffffffffffffffffffffffffffffffffffffff1673ffffffffffffffffffffffffffffffffffffffff16815260200190815260200160002060009054906101000a900460ff16610e86576040517f08c379a0000000000000000000000000000000000000000000000000000000008152600401610e7d90613327565b60405180910390fd5b6000600460008373ffffffffffffffffffffffffffffffffffffffff1673ffffffffffffffffffffffffffffffffffffffff16815260200190815260200160002060006101000a81548160ff02191690831515021790555050565b600a5481565b6000600460008373ffffffffffffffffffffffffffffffffffffffff1673ffffffffffffffffffffffffffffffffffffffff16815260200190815260200160002060009054906101000a900460ff169050919050565b60008060055411610f83576040517f08c379a0000000000000000000000000000000000000000000000000000000008152600401610f7a906133b9565b60405180910390fd5b60055460646000808573ffffffffffffffffffffffffffffffffffffffff1673ffffffffffffffffffffffffffffffffffffffff16815260200190815260200160002054610fd191906133d9565b610fdb919061344a565b9050919050565b60055481565b60046020528060005260406000206000915054906101000a900460ff1681565b6000600160008373ffffffffffffffffffffffffffffffffffffffff1673ffffffffffffffffffffffffffffffffffffffff168152602001908152602001600020549050919050565b600060078281548110611067576110666130a6565b5b9060005260206000209060080201905080600401544210156110be576040517f08c379a00000000000000000000000000000000000000000000000000000000081526004016110b5906134c7565b60405180910390fd5b8060050160149054906101000a900460ff1661110f576040517f08c379a000000000000000000000000000000000000000000000000000000000815260040161110690613121565b60405180910390fd5b600061111a83611b09565b90508082600601541061119c5760405180606001604052806001151581526020018360060154815260200183600701548152506003600085815260200190815260200160002060008201518160000160006101000a81548160ff021916908315150217905550602082015181600101556040820151816002015590505061120d565b60405180606001604052806000151581526020018360060154815260200183600701548152506003600085815260200190815260200160002060008201518160000160006101000a81548160ff02191690831515021790555060208201518160010155604082015181600201559050505b60008260050160146101000a81548160ff0219169083151502179055506000600960006101000a81548160ff021916908315150217905550505050565b6060600260008373ffffffffffffffffffffffffffffffffffffffff1673ffffffffffffffffffffffffffffffffffffffff168152602001908152602001600020805480602002602001604051908101604052809291908181526020016000905b8282101561130c5783829060005260206000209060030201604051806060016040529081600082015481526020016001820160009054906101000a900460ff16151515158152602001600282015481525050815260200190600101906112ab565b505050509050919050565b80600160008473ffffffffffffffffffffffffffffffffffffffff1673ffffffffffffffffffffffffffffffffffffffff168152602001908152602001600020541015611399576040517f08c379a000000000000000000000000000000000000000000000000000000000815260040161139090613533565b60405180910390fd5b80600160008473ffffffffffffffffffffffffffffffffffffffff1673ffffffffffffffffffffffffffffffffffffffff16815260200190815260200160002060008282546113e89190613553565b9250508190555080600560008282546114019190613553565b9250508190555080600760008154811061141e5761141d6130a6565b5b9060005260206000209060080201600601600082825461143e91906131dc565b92505081905550600260008373ffffffffffffffffffffffffffffffffffffffff1673ffffffffffffffffffffffffffffffffffffffff1681526020019081526020016000206040518060600160405280600081526020016001151581526020018381525090806001815401808255809150506001900390600052602060002090600302016000909190919091506000820151816000015560208201518160010160006101000a81548160ff0219169083151502179055506040820151816002015550507fb898e75d5aac8de2f407e4a683c8d909e832d1e371e3bff0fa3ed934e88d956260008383600160405161153994939291906135c2565b60405180910390a15050565b60606007805480602002602001604051908101604052809291908181526020016000905b8282101561177657838290600052602060002090600802016040518061012001604052908160008201805461159d90613009565b80601f01602080910402602001604051908101604052809291908181526020018280546115c990613009565b80156116165780601f106115eb57610100808354040283529160200191611616565b820191906000526020600020905b8154815290600101906020018083116115f957829003601f168201915b5050505050815260200160018201805461162f90613009565b80601f016020809104026020016040519081016040528092919081815260200182805461165b90613009565b80156116a85780601f1061167d576101008083540402835291602001916116a8565b820191906000526020600020905b81548152906001019060200180831161168b57829003601f168201915b50505050508152602001600282015481526020016003820160009054906101000a900460ff1660ff1660ff168152602001600482015481526020016005820160009054906101000a900473ffffffffffffffffffffffffffffffffffffffff1673ffffffffffffffffffffffffffffffffffffffff1673ffffffffffffffffffffffffffffffffffffffff1681526020016005820160149054906101000a900460ff161515151581526020016006820154815260200160078201548152505081526020019060010190611569565b50505050905090565b611787612436565b600360008381526020019081526020016000206040518060600160405290816000820160009054906101000a900460ff16151515158152602001600182015481526020016002820154815250509050919050565b600460003373ffffffffffffffffffffffffffffffffffffffff1673ffffffffffffffffffffffffffffffffffffffff16815260200190815260200160002060009054906101000a900460ff16611867576040517f08c379a000000000000000000000000000000000000000000000000000000000815260040161185e90613327565b60405180910390fd5b6001600460008373ffffffffffffffffffffffffffffffffffffffff1673ffffffffffffffffffffffffffffffffffffffff16815260200190815260200160002060006101000a81548160ff02191690831515021790555050565b670de0b6b3a7640000341461190c576040517f08c379a000000000000000000000000000000000000000000000000000000000815260040161190390613679565b60405180910390fd5b6000603c8361191b91906133d9565b4261192691906131dc565b905060076040518061012001604052808781526020018681526020018581526020018460ff1681526020018381526020013373ffffffffffffffffffffffffffffffffffffffff168152602001600115158152602001600081526020016000815250908060018154018082558091505060019003906000526020600020906008020160009091909190915060008201518160000190816119c6919061383b565b5060208201518160010190816119dc919061383b565b506040820151816002015560608201518160030160006101000a81548160ff021916908360ff1602179055506080820151816004015560a08201518160050160006101000a81548173ffffffffffffffffffffffffffffffffffffffff021916908373ffffffffffffffffffffffffffffffffffffffff16021790555060c08201518160050160146101000a81548160ff02191690831515021790555060e082015181600601556101008201518160070155505060006001600780549050611aa49190613553565b905060086000815480929190611ab99061390d565b91905055507f3d7708da99615a873ed0ef5e0b10f8b1bd8e76e197387471a6a8ca12c29da91381878787878733604051611af99796959493929190613955565b60405180910390a1505050505050565b60008060078381548110611b2057611b1f6130a6565b5b9060005260206000209060080201905060006003811115611b4457611b436139d2565b5b60ff168160030160009054906101000a900460ff1660ff1603611b78576002600554611b70919061344a565b915050611c96565b60016003811115611b8c57611b8b6139d2565b5b60ff168160030160009054906101000a900460ff1660ff1603611bcc5760036002600554611bba91906133d9565b611bc4919061344a565b915050611c96565b60026003811115611be057611bdf6139d2565b5b60ff168160030160009054906101000a900460ff1660ff1603611c205760046003600554611c0e91906133d9565b611c18919061344a565b915050611c96565b600380811115611c3357611c326139d2565b5b60ff168160030160009054906101000a900460ff1660ff1603611c5b57600554915050611c96565b6040517f08c379a0000000000000000000000000000000000000000000000000000000008152600401611c8d90613a4d565b60405180910390fd5b919050565b600460003373ffffffffffffffffffffffffffffffffffffffff1673ffffffffffffffffffffffffffffffffffffffff16815260200190815260200160002060009054906101000a900460ff16611d27576040517f08c379a0000000000000000000000000000000000000000000000000000000008152600401611d1e90613327565b60405180910390fd5b6007805490508110611d6e576040517f08c379a0000000000000000000000000000000000000000000000000000000008152600401611d6590613ab9565b60405180910390fd5b600060078281548110611d8457611d836130a6565b5b906000526020600020906008020160050160146101000a81548160ff021916908315150217905550807f61c0d93dc2b610877e420b107c8d12e9185e46e04a505da758cc7f7329ae545f60405160405180910390a250565b6000600854905090565b600960009054906101000a900460ff1681565b60036020528060005260406000206000915090508060000160009054906101000a900460ff16908060010154908060020154905083565b60066020528060005260406000206000915054906101000a900460ff1681565b600960009054906101000a900460ff1615611ea0576040517f08c379a0000000000000000000000000000000000000000000000000000000008152600401611e9790613b4b565b60405180910390fd5b806000808473ffffffffffffffffffffffffffffffffffffffff1673ffffffffffffffffffffffffffffffffffffffff1681526020019081526020016000208190555080600160008473ffffffffffffffffffffffffffffffffffffffff1673ffffffffffffffffffffffffffffffffffffffff168152602001908152602001600020819055505050565b60006020528060005260406000206000915090505481565b60026020528160005260406000208181548110611f5f57600080fd5b9060005260206000209060030201600091509150508060000154908060010160009054906101000a900460ff16908060020154905083565b606080600060085467ffffffffffffffff811115611fb857611fb7612bd4565b5b604051908082528060200260200182016040528015611ff157816020015b611fde612459565b815260200190600190039081611fd65790505b509050600060085467ffffffffffffffff81111561201257612011612bd4565b5b60405190808252806020026020018201604052801561204b57816020015b612038612436565b8152602001906001900390816120305790505b50905060005b6008548110156122ff576007818154811061206f5761206e6130a6565b5b90600052602060002090600802016040518061012001604052908160008201805461209990613009565b80601f01602080910402602001604051908101604052809291908181526020018280546120c590613009565b80156121125780601f106120e757610100808354040283529160200191612112565b820191906000526020600020905b8154815290600101906020018083116120f557829003601f168201915b5050505050815260200160018201805461212b90613009565b80601f016020809104026020016040519081016040528092919081815260200182805461215790613009565b80156121a45780601f10612179576101008083540402835291602001916121a4565b820191906000526020600020905b81548152906001019060200180831161218757829003601f168201915b50505050508152602001600282015481526020016003820160009054906101000a900460ff1660ff1660ff168152602001600482015481526020016005820160009054906101000a900473ffffffffffffffffffffffffffffffffffffffff1673ffffffffffffffffffffffffffffffffffffffff1673ffffffffffffffffffffffffffffffffffffffff1681526020016005820160149054906101000a900460ff1615151515815260200160068201548152602001600782015481525050838281518110612276576122756130a6565b5b6020026020010181905250600360008281526020019081526020016000206040518060600160405290816000820160009054906101000a900460ff16151515158152602001600182015481526020016002820154815250508282815181106122e1576122e06130a6565b5b602002602001018190525080806122f79061390d565b915050612051565b5081819350935050509091565b60085481565b60016020528060005260406000206000915090505481565b600960009054906101000a900460ff161561237a576040517f08c379a000000000000000000000000000000000000000000000000000000000815260040161237190613bdd565b60405180910390fd5b806000808473ffffffffffffffffffffffffffffffffffffffff1673ffffffffffffffffffffffffffffffffffffffff168152602001908152602001600020819055507fe6382c9ed5c0c33bb05042f73cf6cbe9cb25639f9a711e094ee563bc9cb80e2c82826040516123ee929190613210565b60405180910390a15050565b600b60009054906101000a900473ffffffffffffffffffffffffffffffffffffffff1681565b600060648261242f919061344a565b9050919050565b604051806060016040528060001515815260200160008152602001600081525090565b604051806101200160405280606081526020016060815260200160008152602001600060ff16815260200160008152602001600073ffffffffffffffffffffffffffffffffffffffff16815260200160001515815260200160008152602001600081525090565b6000604051905090565b600080fd5b600080fd5b6000819050919050565b6124e7816124d4565b81146124f257600080fd5b50565b600081359050612504816124de565b92915050565b6000602082840312156125205761251f6124ca565b5b600061252e848285016124f5565b91505092915050565b600081519050919050565b600082825260208201905092915050565b60005b83811015612571578082015181840152602081019050612556565b60008484015250505050565b6000601f19601f8301169050919050565b600061259982612537565b6125a38185612542565b93506125b3818560208601612553565b6125bc8161257d565b840191505092915050565b6125d0816124d4565b82525050565b600060ff82169050919050565b6125ec816125d6565b82525050565b600073ffffffffffffffffffffffffffffffffffffffff82169050919050565b600061261d826125f2565b9050919050565b61262d81612612565b82525050565b60008115159050919050565b61264881612633565b82525050565b6000610120820190508181036000830152612669818c61258e565b9050818103602083015261267d818b61258e565b905061268c604083018a6125c7565b61269960608301896125e3565b6126a660808301886125c7565b6126b360a0830187612624565b6126c060c083018661263f565b6126cd60e08301856125c7565b6126db6101008301846125c7565b9a9950505050505050505050565b6126f281612633565b81146126fd57600080fd5b50565b60008135905061270f816126e9565b92915050565b6000806040838503121561272c5761272b6124ca565b5b600061273a858286016124f5565b925050602061274b85828601612700565b9150509250929050565b61275e81612612565b811461276957600080fd5b50565b60008135905061277b81612755565b92915050565b600060208284031215612797576127966124ca565b5b60006127a58482850161276c565b91505092915050565b60006020820190506127c360008301846125c7565b92915050565b60006020820190506127de600083018461263f565b92915050565b600081519050919050565b600082825260208201905092915050565b6000819050602082019050919050565b612819816124d4565b82525050565b61282881612633565b82525050565b6060820160008201516128446000850182612810565b506020820151612857602085018261281f565b50604082015161286a6040850182612810565b50505050565b600061287c838361282e565b60608301905092915050565b6000602082019050919050565b60006128a0826127e4565b6128aa81856127ef565b93506128b583612800565b8060005b838110156128e65781516128cd8882612870565b97506128d883612888565b9250506001810190506128b9565b5085935050505092915050565b6000602082019050818103600083015261290d8184612895565b905092915050565b6000806040838503121561292c5761292b6124ca565b5b600061293a8582860161276c565b925050602061294b858286016124f5565b9150509250929050565b600081519050919050565b600082825260208201905092915050565b6000819050602082019050919050565b600082825260208201905092915050565b600061299d82612537565b6129a78185612981565b93506129b7818560208601612553565b6129c08161257d565b840191505092915050565b6129d4816125d6565b82525050565b6129e381612612565b82525050565b6000610120830160008301518482036000860152612a078282612992565b91505060208301518482036020860152612a218282612992565b9150506040830151612a366040860182612810565b506060830151612a4960608601826129cb565b506080830151612a5c6080860182612810565b5060a0830151612a6f60a08601826129da565b5060c0830151612a8260c086018261281f565b5060e0830151612a9560e0860182612810565b50610100830151612aaa610100860182612810565b508091505092915050565b6000612ac183836129e9565b905092915050565b6000602082019050919050565b6000612ae182612955565b612aeb8185612960565b935083602082028501612afd85612971565b8060005b85811015612b395784840389528151612b1a8582612ab5565b9450612b2583612ac9565b925060208a01995050600181019050612b01565b50829750879550505050505092915050565b60006020820190508181036000830152612b658184612ad6565b905092915050565b606082016000820151612b83600085018261281f565b506020820151612b966020850182612810565b506040820151612ba96040850182612810565b50505050565b6000606082019050612bc46000830184612b6d565b92915050565b600080fd5b600080fd5b7f4e487b7100000000000000000000000000000000000000000000000000000000600052604160045260246000fd5b612c0c8261257d565b810181811067ffffffffffffffff82111715612c2b57612c2a612bd4565b5b80604052505050565b6000612c3e6124c0565b9050612c4a8282612c03565b919050565b600067ffffffffffffffff821115612c6a57612c69612bd4565b5b612c738261257d565b9050602081019050919050565b82818337600083830152505050565b6000612ca2612c9d84612c4f565b612c34565b905082815260208101848484011115612cbe57612cbd612bcf565b5b612cc9848285612c80565b509392505050565b600082601f830112612ce657612ce5612bca565b5b8135612cf6848260208601612c8f565b91505092915050565b612d08816125d6565b8114612d1357600080fd5b50565b600081359050612d2581612cff565b92915050565b60008060008060808587031215612d4557612d446124ca565b5b600085013567ffffffffffffffff811115612d6357612d626124cf565b5b612d6f87828801612cd1565b945050602085013567ffffffffffffffff811115612d9057612d8f6124cf565b5b612d9c87828801612cd1565b9350506040612dad878288016124f5565b9250506060612dbe87828801612d16565b91505092959194509250565b6000606082019050612ddf600083018661263f565b612dec60208301856125c7565b612df960408301846125c7565b949350505050565b6000606082019050612e1660008301866125c7565b612e23602083018561263f565b612e3060408301846125c7565b949350505050565b600081519050919050565b600082825260208201905092915050565b6000819050602082019050919050565b606082016000820151612e7a600085018261281f565b506020820151612e8d6020850182612810565b506040820151612ea06040850182612810565b50505050565b6000612eb28383612e64565b60608301905092915050565b6000602082019050919050565b6000612ed682612e38565b612ee08185612e43565b9350612eeb83612e54565b8060005b83811015612f1c578151612f038882612ea6565b9750612f0e83612ebe565b925050600181019050612eef565b5085935050505092915050565b60006040820190508181036000830152612f438185612ad6565b90508181036020830152612f578184612ecb565b90509392505050565b6000819050919050565b6000612f85612f80612f7b846125f2565b612f60565b6125f2565b9050919050565b6000612f9782612f6a565b9050919050565b6000612fa982612f8c565b9050919050565b612fb981612f9e565b82525050565b6000602082019050612fd46000830184612fb0565b92915050565b7f4e487b7100000000000000000000000000000000000000000000000000000000600052602260045260246000fd5b6000600282049050600182168061302157607f821691505b60208210810361303457613033612fda565b5b50919050565b7f596f75206861766520616c726561647920766f74656400000000000000000000600082015250565b6000613070601683612542565b915061307b8261303a565b602082019050919050565b6000602082019050818103600083015261309f81613063565b9050919050565b7f4e487b7100000000000000000000000000000000000000000000000000000000600052603260045260246000fd5b7f50726f706f73616c206973206e6f742061637469766500000000000000000000600082015250565b600061310b601683612542565b9150613116826130d5565b602082019050919050565b6000602082019050818103600083015261313a816130fe565b9050919050565b7f596f75206d75737420686f6c642073686172657320746f20766f746500000000600082015250565b6000613177601c83612542565b915061318282613141565b602082019050919050565b600060208201905081810360008301526131a68161316a565b9050919050565b7f4e487b7100000000000000000000000000000000000000000000000000000000600052601160045260246000fd5b60006131e7826124d4565b91506131f2836124d4565b925082820190508082111561320a576132096131ad565b5b92915050565b60006040820190506132256000830185612624565b61323260208301846125c7565b9392505050565b600060808201905061324e60008301876125c7565b61325b6020830186612624565b61326860408301856125c7565b613275606083018461263f565b95945050505050565b600060608201905061329360008301866125c7565b6132a060208301856125c7565b6132ad60408301846125c7565b949350505050565b7f4f6e6c792061646d696e732063616e20706572666f726d20746869732061637460008201527f696f6e0000000000000000000000000000000000000000000000000000000000602082015250565b6000613311602383612542565b915061331c826132b5565b604082019050919050565b6000602082019050818103600083015261334081613304565b9050919050565b7f546f74616c20736861726573206d75737420626520677265617465722074686160008201527f6e207a65726f0000000000000000000000000000000000000000000000000000602082015250565b60006133a3602683612542565b91506133ae82613347565b604082019050919050565b600060208201905081810360008301526133d281613396565b9050919050565b60006133e4826124d4565b91506133ef836124d4565b92508282026133fd816124d4565b91508282048414831517613414576134136131ad565b5b5092915050565b7f4e487b7100000000000000000000000000000000000000000000000000000000600052601260045260246000fd5b6000613455826124d4565b9150613460836124d4565b9250826134705761346f61341b565b5b828204905092915050565b7f566f74696e6720706572696f6420686173206e6f7420656e6465640000000000600082015250565b60006134b1601b83612542565b91506134bc8261347b565b602082019050919050565b600060208201905081810360008301526134e0816134a4565b9050919050565b7f4e6f7420656e6f75676820746f6b656e7320746f20766f746500000000000000600082015250565b600061351d601983612542565b9150613528826134e7565b602082019050919050565b6000602082019050818103600083015261354c81613510565b9050919050565b600061355e826124d4565b9150613569836124d4565b9250828203905081811115613581576135806131ad565b5b92915050565b6000819050919050565b60006135ac6135a76135a284613587565b612f60565b6124d4565b9050919050565b6135bc81613591565b82525050565b60006080820190506135d760008301876135b3565b6135e46020830186612624565b6135f160408301856125c7565b6135fe606083018461263f565b95945050505050565b7f4d7573742073656e6420312045544820746f2063726561746520612070726f7060008201527f6f73616c00000000000000000000000000000000000000000000000000000000602082015250565b6000613663602483612542565b915061366e82613607565b604082019050919050565b6000602082019050818103600083015261369281613656565b9050919050565b60008190508160005260206000209050919050565b60006020601f8301049050919050565b600082821b905092915050565b6000600883026136fb7fffffffffffffffffffffffffffffffffffffffffffffffffffffffffffffffff826136be565b61370586836136be565b95508019841693508086168417925050509392505050565b600061373861373361372e846124d4565b612f60565b6124d4565b9050919050565b6000819050919050565b6137528361371d565b61376661375e8261373f565b8484546136cb565b825550505050565b600090565b61377b61376e565b613786818484613749565b505050565b5b818110156137aa5761379f600082613773565b60018101905061378c565b5050565b601f8211156137ef576137c081613699565b6137c9846136ae565b810160208510156137d8578190505b6137ec6137e4856136ae565b83018261378b565b50505b505050565b600082821c905092915050565b6000613812600019846008026137f4565b1980831691505092915050565b600061382b8383613801565b9150826002028217905092915050565b61384482612537565b67ffffffffffffffff81111561385d5761385c612bd4565b5b6138678254613009565b6138728282856137ae565b600060209050601f8311600181146138a55760008415613893578287015190505b61389d858261381f565b865550613905565b601f1984166138b386613699565b60005b828110156138db578489015182556001820191506020850194506020810190506138b6565b868310156138f857848901516138f4601f891682613801565b8355505b6001600288020188555050505b505050505050565b6000613918826124d4565b91507fffffffffffffffffffffffffffffffffffffffffffffffffffffffffffffffff820361394a576139496131ad565b5b600182019050919050565b600060e08201905061396a600083018a6125c7565b818103602083015261397c818961258e565b90508181036040830152613990818861258e565b905061399f60608301876125c7565b6139ac60808301866125e3565b6139b960a08301856125c7565b6139c660c0830184612624565b98975050505050505050565b7f4e487b7100000000000000000000000000000000000000000000000000000000600052602160045260246000fd5b7f496e76616c69642071756f72756d207479706500000000000000000000000000600082015250565b6000613a37601383612542565b9150613a4282613a01565b602082019050919050565b60006020820190508181036000830152613a6681613a2a565b9050919050565b7f496e76616c69642070726f706f73616c20494400000000000000000000000000600082015250565b6000613aa3601383612542565b9150613aae82613a6d565b602082019050919050565b60006020820190508181036000830152613ad281613a96565b9050919050565b7f43616e6e6f74207265676973746572207368617265686f6c646572732064757260008201527f696e6720766f74696e6720706572696f64000000000000000000000000000000602082015250565b6000613b35603183612542565b9150613b4082613ad9565b604082019050919050565b60006020820190508181036000830152613b6481613b28565b9050919050565b7f43616e6e6f74207570646174652073686172657320647572696e6720766f746960008201527f6e6720706572696f640000000000000000000000000000000000000000000000602082015250565b6000613bc7602983612542565b9150613bd282613b6b565b604082019050919050565b60006020820190508181036000830152613bf681613bba565b905091905056fea2646970667358221220701113bae65263998d396613af672529ee8be49c90d7d7d52a482ac3745ec82f64736f6c63430008140033",
  "linkReferences": {},
  "deployedLinkReferences": {}
}